:020000040000FA
:1000000038BF0020E5680000BDDE0200D1680000B6
:10001000D1680000D1680000D1680000D1680000FC
:100020000000000000000000000000008D6A0000D9
:10003000D168000000000000E9690000D1680000FC
:10004000AD6C0000AD6C0000AD6C0000AD6C00004C
:10005000AD6C0000AD6C0000AD6C0000AD6C00003C
:10006000AD6C0000AD6C0000AD6C0000AD6C00002C
:10007000AD6C0000AD6C0000AD6C0000AD6C00001C
:10008000AD6C0000AD6C0000AD6C0000AD6C00000C
:10009000AD6C0000AD6C0000AD6C0000AD6C0000FC
:1000A000AD6C0000AD6C0000AD6C0000AD6C0000EC
:1000B000AD6C0000AD6C0000AD6C0000AD6C0000DC
:1000C000AD6C0000AD6C0000AD6C0000AD6C0000CC
:1000D000AD6C0000AD6C0000AD6C0000AD6C0000BC
:1000E000AD6C0000AD6C0000AD6C0000AD6C0000AC
:1000F000AD6C0000AD6C0000AD6C0000AD6C00009C
:10010000AD6C0000AD6C0000AD6C0000AD6C00008B
:10011000AD6C0000AD6C0000AD6C0000AD6C00007B
:10012000AD6C0000AD6C0000AD6C0000AD6C00006B
:10013000AD6C0000AD6C0000AD6C0000AD6C00005B
:10014000AD6C0000AD6C0000AD6C0000AD6C00004B
:10015000AD6C000053B94AB9002908BF00281CBF84
:100160004FF0FF314FF0FF3000F00CB8ADF1080C4C
:100170006DE904CE00F022F8DDF804E0DDE90223A9
:1001800004B07047704700BF10F8012B11F8013B15
:10019000012A28BF9A42F7D0D01A7047034611F8B7
:1001A000012B03F8012B002AF9D17047034613F8FD
:1001B000012B002AFBD1181A013870472DE9F047AE
:1001C00086468C460846089E154674461946002BFE
:1001D00040F0C1808542B2FA82F245D94AB1C2F1FB
:1001E000200300FA02FC954094402EFA03F343EA00
:1001F0000C0C4FEA154EA8B2230CBCFBFEF80EFB0C
:1002000018CC08FB00F943EA0C43994528D9EB18B0
:1002100008F1FF3704D2994502D9A8F102072B440F
:10022000A3EB0903A4B2B3FBFEFC0EFB1C330CFBD7
:1002300000F044EA0344A04214D92C190CF1FF3316
:1002400004D2A04202D9ACF102032C44241A43EA9E
:1002500007401EB1D440002334607360BDE8F087CE
:100260004746DDE76346F1E792BB431B01214FEAB6
:10027000154EAFB2200CB3FBFEFC0EFB1C330CFB87
:1002800007F840EA0343984561D9EB180CF1FF30B9
:1002900004D2984502D9ACF102002B44A3EB080329
:1002A000A4B2B3FBFEFC0EFB1C330CFB07F744EAC5
:1002B0000344A7424DD92C190CF1FF3304D2A742B5
:1002C00002D9ACF102032C44E41B43EA0040C0E72E
:1002D000C2F120039540944020FA03F12EFA03F373
:1002E0004FEA154E9040AFB20343B1FBFEFC0EFB4C
:1002F0001C10190C0CFB07F841EA0041884522D973
:1003000069180CF1FF3004D2884502D9ACF1020023
:100310002944A1EB08019BB2B1FBFEFC0EFB1C11B2
:100320000CFB07F743EA01439F420ED9EB180CF18F
:10033000FF3104D29F4202D9ACF102012B44DB1BF6
:1003400041EA004193E76046E3E76146F7E760462C
:10035000A4E76346B8E7834206D916B900210846E8
:100360007CE7C6E900E0F9E7B3FA83F78FB9834287
:1003700001D3724508D8BEEB020460EB03030120F1
:100380009C461EB9002169E73846FAE7C6E9004CE9
:10039000F8E7C7F1200CBB400EFA07F522FA0CF47F
:1003A0002EFA0CF1BA401C4320FA0CF3B8404FEA85
:1003B000144901431FFA84FEB3FBF9F809FB183016
:1003C0000B0C08FB0EFA43EA00439A4540D9E318A8
:1003D00008F1FF3004D29A4502D9A8F10200234463
:1003E000A3EB0A0389B2B3FBF9F809FB183308FB46
:1003F0000EFE41EA03418E452CD9611808F1FF3306
:1004000004D28E4502D9A8F10203214443EA0040F8
:10041000A1EB0E01A0FB02984145CE46434602D314
:1004200006D14D4504D20138B9EB020E68EB040346
:10043000002EA7D0B5EB0E0261EB030101FA0CFC14
:1004400022FA07F3F9404CEA0303C6E9003199E7C1
:100450004046C5E74346D9E70023064A52F8041B45
:10046000096829B90133DBB2052BF7D101207047A8
:1004700000207047602D002001482BF0BCBC00BF5D
:100480004807002001464FF4A07270B50446134897
:1004900030F014F812482BF0AEFC124A1368591CC5
:1004A0001160C822B3FBF2F002FB1033A3B91A4665
:1004B000A51E0E3435F9020F0028B8BF404286B29F
:1004C000B342B8BF3346A54212FA80F2F2D1BDE87A
:1004D000704005482CF07BBD70BD00BFAE540020BD
:1004E000A00600205C2D00205687030001480FF075
:1004F0006FBF00BFD82D00201FB501AB07CA83E82E
:10050000070006482BF079FC024618B91846044942
:1005100007F0A8F905B05DF804FB00BFF82D002036
:100520000D0D000070B50C6892B02378064607AD3B
:10053000032B2ED8DFE803F00227292B1849284681
:10054000FFF72CFEA379059562781E210492A2780C
:100550000AA80392E27802922279019262790092CB
:10056000104A29F097FD304609F012FB0AAA01460D
:100570000D482CF02CFD01220C4B0D481A702BF06D
:100580003AFC12B070BD0B49D9E70B49D7E70B49CC
:10059000D5E70A2128460A4A29F07CFDD2E700BFA8
:1005A00087870300A9870300CC8703007C580020BD
:1005B000600700208E870300958703009F87030054
:1005C000FABE0300F7B5054619482BF016FC84B2B5
:1005D000A5420F46064609D8164800212BF028FCF4
:1005E000154803B0BDE8F0402BF022BC2C1BA4B290
:1005F000042C02D121460F48F3E700210D482BF0CF
:1006000017FC0D482BF014FC01220C4BD3E8EF1F14
:10061000002903D1C3E8E02F0028F7D106D12A46EC
:10062000394607480094B3B22CF0D1FC03B0F0BDBA
:1006300070010020082E0020042E0020002E002033
:10064000FC870300F7B54B790F4F052B28BF052317
:10065000888A3B700D4D0B690D4E0C460D492B6081
:100660003080FFF7AFFF0C4B1B683BB93B780B4862
:10067000009333882A6861792CF0A9FC084803B0FC
:10068000BDE8F0402BF0B7BB270500207401002027
:10069000AA54002032880300E82D00203A88030085
:1006A0003007002070B505460A460C460146114841
:1006B0002CF08DFC002110482BF0BAFB0F4B104E94
:1006C0001B7856F82330AB4202D10E482BF0B0FB1A
:1006D0003368AB4202D10C482FF002FE3E2C01D011
:1006E000442C04D10948BDE870402BF084BB084875
:1006F000F9E700BF7C880300102E002026050020AB
:10070000602D0020EC2D0020C80B0020D00600201A
:10071000E80600202DE9F041504E514D8EB0306872
:100720004FF4A472002301A90FF000FB0446002837
:100730003ED0002200234B482BF064FBEFE704205F
:1007400000212FF0EDFC4CF24F3364349C4208D969
:10075000404629782BF051FB024643482CF037FCE9
:10076000002438462BF049FB0028E8D13F4B1C7889
:10077000012C38BF0124013C14F0FF04CFD0042128
:10078000684606F077FF009BB3FBF4F204FB1233DC
:10079000374A0133DBB252F823802B70B8F1000FD7
:1007A000BDD0BDF804303BB932482CF010FCB6E7A0
:1007B000314FDFF8DC80D4E7002200232F482DF0F2
:1007C00003FC044698B92E482BF017FB0028A6D04E
:1007D0002C4A1368591C11603222B3FBF2F002FB61
:1007E0001033002B9BD128482CF0F1FB97E72748CA
:1007F0002BF003FB38B926482BF0FFFA18B9204636
:1008000006F0C8FD8BE704F10C0738460D212DF0EA
:1008100014FCBDF80420384603A91E4F2DF01EFC21
:10082000012115482BF004FB3A8829781A482CF04E
:10083000CEFB3A88214640462DF03DFE021E04DAEA
:10084000414616482CF0C3FBD9E701210C482BF098
:10085000EFFA3B880B443B8061E700BF142E002079
:100860002605002078070020AC880300270500201B
:10087000602D0020E98803000C2E0020A80700202E
:10088000EC2D0020582D0020048903009832002010
:1008900094320020A85400202D89030047890300CA
:1008A0002DE9F0414FF47A752FF0C7FC2F46A0FBDD
:1008B000050605FB0166C30B43EA464313F5FA64DC
:1008C0004FEAD636DFF8388046F10006FFF7C4FD60
:1008D00008B1BDE8F0812FF0B0FCA0FB070305FBD9
:1008E0000131C30B43EA4143A3424FEAD131B14145
:1008F000EFDA40F6CD42002340462BF083FAE5E7DD
:10090000E806002013B5014604460F482CF05FFBB3
:100910000E4BD3E8EF1F0131C3E8E21F002AF8D1E4
:100920000B482BF068FA0B4B1B68A34209D100223D
:1009300000230948CDE900234FF48042002310F042
:100940004FFC02B010BD00BF6A890300F02D0020EB
:10095000D0060020602D0020C80B00202DE9F04FAC
:100960000025DFF80CA2EFB04FF0FF324FF0FF335D
:1009700011A973480FF0DAF972482BF03EFA012101
:10098000044650462BF040FABDF84410002973D0BD
:10099000A3B2994228BF194613A8B0FA80F35B09A5
:1009A00002931EAF0DF1220301934FF4A0720023B6
:1009B000009705F02FFB002809DA634A002113682D
:1009C0003846013313604FF4A0722FF09EFD50465D
:1009D00000212BF019FABDF84420A0B2031D9A4261
:1009E0002AD100F1080311AA11A9084413445A7826
:1009F000047A5B8844EA022444EA034421465348CB
:100A00002BF016FA524A1368591C11606422B3FB8A
:100A1000F2F102FB11337BB909A8014624FA03F273
:100A200002F00102013330321E2B00F8012BF5D108
:100A300048488D772CF0CBFADFF838B1464C218846
:100A4000BBF8003089B226889BB2994237BFB6B254
:100A5000BBF80030BBF800301036F61AB6B230469C
:100A6000C6F10F06B6B201F05BFF092E0AD83B4A69
:100A700013680133136077E7394A08461368013376
:100A800013608AE70026374AB84623889BB202EBF8
:100A90008311A1F1040E3C3138F8020B00EB004049
:100AA0004EF8040F7145F7D10133103603F00F03F0
:100AB000A02E238007F12007E6D12B490B6803F114
:100AC0000109C1F80090C821B3FBF1F001FB10331C
:100AD000002B7FF449AFB4F800C0DFF88480BBF886
:100AE0000000D8F80030184F1C4E1FFA8CFC80B262
:100AF0008445059331683B6818D32488BBF80020EF
:100B0000A4B292B2A41ACDE9063101F0C9FBDDE925
:100B100005230799CDE901400091144849462CF07E
:100B200056FAC8F800503D6035601DE7BBF800205C
:100B3000248892B2C2F1100212FA84F4E3E700BFF3
:100B40001006002070010020442D0020042E0020FB
:100B5000402D002084890300F05500203C2D00200A
:100B6000482D0020182E0020382D0020A7890300D2
:100B700030140300EE55002008B50B482CF027FA7E
:100B80000A482FF0ADFB0A4800212BF051F9094B20
:100B9000186840B10AF024F9014620B1BDE80840C8
:100BA00005482CF014BA08BDE0890300C80B0020EA
:100BB000102E0020E82D0020108A030010B50446F6
:100BC000012114482BF020F9134B1A68944214D0D9
:100BD0005A68944213D1012149B2104A127853F84D
:100BE0002230A3420ED100210D482BF021F9BDE89F
:100BF0001040002107482BF007B90021ECE74FF027
:100C0000FF31EAE707482BF0F8F8034606482CF0D6
:100C1000DEF9ECE740140300602D002026050020DB
:100C20000C2E002094320020318A03000D4A1378E4
:100C3000B3B94389A3B10121117001790A4A117036
:100C400040F2E2425343094A13600268084B1168BC
:100C5000084819609188998092799A712BF0CBB8E5
:100C6000704700BF7D58002074580020FC2D0020E4
:100C7000755800201807002030B51F4B0D461B6823
:100C80001446834291B035D101211C482BF0BCF8A9
:100C90003422002103A82FF038FCAB791A0744BF97
:100CA0002A680492CCB1258A2C2D16D8DB0714D5DE
:100CB0002A46E16805A8ADF80C502FF0FFFB284646
:100CC0000F49FFF77FFC002200230E48CDE90023E7
:100CD0004FF48042002310F083FA002203A900237E
:100CE00009480EF0C3FF0021044811B0BDE83040B0
:100CF0002BF08AB811B030BD602D002038140300ED
:100D0000678A0300C80B0020100600202DE9F04F71
:100D10008FB0002800F0F3800378162B40F0EF80AE
:100D20004278052A40F2EB8041680BA82DF07FF94C
:100D30000BA82DF0CDF941F65103984240F0DF8029
:100D4000BDF83030032B0FD80122714BD3E8EF1FD1
:100D5000002903D1C3E8E02F0028F7D100F0D180AB
:100D600000200FB0BDE8F08F0BA82DF0B9F90446B4
:100D70000BA82DF0A5F905460028E5D0024621462E
:100D800064482CF024F94FF00008BDF83030072BF0
:100D9000DAD90BA82DF094F907460028D4D00BA877
:100DA0002DF08EF907900BA82DF092F908900BA862
:100DB0002DF08EF9BDF830300990002BC4D00BA86F
:100DC0002DF07EF9BDF8303004468342BCD3014695
:100DD0000BA8DDF82CB02DF06BF9BDF83030002BEE
:100DE000B2D00BA82DF06CF9BDF830300646834226
:100DF000AAD301460BA82DF05BF900239C4256D8DC
:100E00004FF0000AD146BDF8301001299CD90BA83B
:100E10002DF056F983460BA82DF052F90146BDF886
:100E20003000884290D30BF1FF3B0BA82DF040F926
:100E30005FFA8BF11F2998BF01230AF1010A98BFBD
:100E400003FA0BFB5FFA8AF198BF49EA0B098F425C
:100E5000D9D8079BFF2B4ED14DF6AD63089A9A4225
:100E60004BD14BF6EF602C4B2C49099A824208BFBC
:100E70000B46099A08F101080192089A414600922E
:100E8000CDE90479CDE90246079A25482CF09FF870
:100E90005FFA88F39D423FF678AFBDF83030002B03
:100EA0007FF452AF01211F482AF0C2FF58E71BF818
:100EB0000320591C002AA3D050188442A0D31BF849
:100EC0000110013A042903F10203D2B211D1022A1E
:100ED0000FD13BF803104B1E2B2B91D812482AF050
:100EE000A7FF124B188800288AD01149FFF76AFB28
:100EF00086E7134482E70F4BBBE7074BB9E70120B6
:100F00002FE76FF015010C482CF061F828E700BFBF
:100F1000F42D00209A8A0300878A0300708A030058
:100F2000CC8A0300F82D002070010020AA54002074
:100F300032880300F0CA0300498B03002DE9F04317
:100F40005A4B5B4E1D8E5B4FDFF8A481EFB034220D
:100F5000002111A82FF0D9FA4FF0FF324FF0FF33E4
:100F600030462AF04FFF38462AF047FF0028EED0DF
:100F70004FF4A07241461EA82FF0A0FA4E482AF066
:100F80003CFF18B1A0211EA801F0D0FD002213469D
:100F90001EA931F9020B0132082A0344F9D147484E
:100FA0000268511C01606420B2FBF0F400FB1422C3
:100FB00032B943482AF021FF024642482CF007F894
:100FC00041482AF01AFFE0B1012140482AF01CFFF5
:100FD0002C23009300230DF1160906AC4FF4A071E9
:100FE0001A46CDF8089001941EA804F0B9FF0146F6
:100FF00068B137482BF0EBFF002134482AF004FF9A
:10100000A5E72F482AF0F9FE0028DDD19FE7B9F8BF
:1010100000108D4203D02A462E482BF0D8FF2146DF
:101020002A4613A82FF04AFA2B482AF0E6FE10F0C1
:10103000FF0407D005F1080011AB22460021184437
:101040002FF063FA254B2C441868ADF84440002279
:10105000002311A90EF00AFE68B10A22204B19687C
:1010600001311960B1FBF2F302FB1313012B02D122
:101070001C482BF0ACFF002114482AF0C5FE1A4A88
:101080001468611C1160C822B4FBF2F002FB10442A
:10109000002C7FF45CAFDFF848901448D9F80020AA
:1010A0002BF095FFC9F8004051E700BF7801002000
:1010B000A0060020102E002090320020542D002089
:1010C00094320020608B0300983200202814030023
:1010D0008A8B0300B18B0300082E0020142E002001
:1010E000502D0020E68B03004C2D00200C8C0300BB
:1010F000AE5400202DE9F04FAB4899B02BF067FFBC
:10110000AA482BF064FF0521A9482BF060FF00F0EE
:10111000EFFE054680B10146A6482BF058FFA648D1
:1011200000F07AFD044650B10146A4482BF04FFF71
:10113000204619B0BDE8F08F00F002FFEFE7032171
:101140001E2208469C4B01F0A3FC014610B19C48AE
:101150002BF03DFF00F006FF2AF0FEFE0022994929
:1011600099482FF0B1F8994999482EF0B8FE00221D
:10117000984B9949994C9A480532192AC3E901407C
:1011800041F8043B03F11403F6D19649964801F067
:10119000BFF8044610B101469448C7E701F0F0F8E3
:1011A000044610B101469248C0E701F095FB01F0FA
:1011B000D9FB904E904B21461860B28E204604F029
:1011C00069FF044610B101468C48AFE701278C4BFC
:1011D0000097019310214FF4FA434FF47A50B28EE6
:1011E00004F07CFF044610B1014686489EE73B466A
:1011F00010214FF47A50B28E04F0FAFF044610B179
:101200000146814892E74FF000084FF000094FF483
:10121000C052CDE90370CDE901000090CDE9068907
:101220007A4B7B497B480FF0FBF97B4979480FF0FB
:1012300081F902274FF48052CDE90689CDE90247B2
:10124000CDE90044754B7649049476480FF0E8F9EF
:10125000754974480FF06EF94FF48062CDE9068944
:10126000CDE90374CDE90144704B71490094714894
:101270000FF0D6F970496F480FF05CF9204607F07F
:1012800023FB044610B101466C484FE76C4808F058
:1012900067FC6C4808F0A6FD08946B482AF0B0FD86
:1012A0006A482AF0ADFD6A482AF0AAFD69482AF08A
:1012B000A7FD69482AF0A4FD68482AF0A1FD002195
:1012C00067482AF0B5FD67482AF0B2FD2821664834
:1012D0002AF0AEFD002165482AF0AAFD64482AF0F4
:1012E000A7FD64482AF0A4FD634B089A1A80634B5B
:1012F0001A7015B9284600F023FE61482BF067FEEE
:10130000604A0CAB1068516803C3906800211860F4
:101310000CA808F0B9FB044610B101465A4805E78D
:101320005A4B18705A482BF052FE4FF0FF324FF0D4
:10133000FF3345482AF066FD044610B10146554882
:10134000F4E655482BF043FE08F0EEFB044610B1DE
:1013500001465248EAE6524B119418689A889B79E4
:101360000F908DF842304F4B4F481B78ADF840201E
:101370008DF843304D4BADF848401F6806235F435E
:1013800042F21073B7FBF3F3ADF84A302BF01FFEB7
:101390000BA90FA808F050FC0446002800F08A8032
:1013A00001464348C2E600BF268C0300408C030080
:1013B0005C8C0300938C030078070020A88C03004A
:1013C000C18C0300ED040000C80B0020790B000065
:1013D000D82D0020742D0020602D00203001002029
:1013E0006801002085040000B0010020D68C0300B5
:1013F000ED8C030078010020142E0020058D0300E1
:10140000AC540020238D0300458D03005D090000CE
:1014100038700020D00A0020678D03003D0F0000C7
:1014200038600020D8090020738D030015070000E4
:10143000385C0020E00800207F8D0300868D0300CB
:101440002401002008010020180700204807002080
:101450006007002030070020D0060020E8060020AA
:10146000F82D0020F42D002070010020082E00200F
:10147000042E0020002E0020AA5400207C580020BA
:10148000A68D0300DC0F0300B98D03007D580020FA
:10149000D68D0300FB8D0300138E0300308E0300F6
:1014A00075580020745800204C8E0300FC2D00203D
:1014B000738E0300A4482BF08AFDA4494FF400402A
:1014C0008C462146E7FB00C10023A14A6046FEF797
:1014D00041FE074602460B469E480C462AF092FC07
:1014E00030B19D482BF073FD0B9808F05DFBD4E6FE
:1014F0009A482BF06CFD3A46234699482AF082FC24
:10150000014640B197482BF062FD974B1B78002BAA
:101510007FF4C3AEE8E7954B1A682823726392B252
:10152000338604F0B7FD014630B391482BF04FFDF0
:1015300090482BF04CFD002200238F482AF062FCDB
:10154000B0B18E482BF043FD85482AF059FC4FF48A
:101550002032002382482AF055FC40B388482BF003
:1015600036FD4FF0FF324FF0FF3383482AF04AFC3C
:1015700084482BF02CFD90E60124834B00940193CA
:1015800010214FF4FA434FF47A50B28E04F0A6FDC6
:10159000014608B17D48C9E7102123464FF47A502F
:1015A000B28E04F025FE014608B17948BEE7FEF789
:1015B00053FF70B977482BF00AFD4FF480300021BB
:1015C000FFF76EF9FEF748FF18B973482BF0FFFCE0
:1015D000AEE70122714F724C397872488A40013A65
:1015E000A26021712BF0F3FC00216F482AF020FC4F
:1015F00021466E4A0B9809F087FD0446002800F04A
:101600009A8001466A482BF0E2FC14F1780F7FF4CF
:101610008FAD4FF480300021FFF742F988E748464C
:1016200009912BF0D4FC4FF4A022002350462AF05D
:10163000E9FB08F10108002862D1584609992BF00E
:10164000C6FC3B785FFA88F18B42E8D856482AF00E
:10165000D4FB984255DB57482BF0B9FC0021564883
:101660002AF0E6FB0C46DFF838A19AF804205FFA6E
:1016700084FB5A4500F2C680002401F065F94F4B07
:1016800021464F481C802AF0D3FB4E482EF0A2FA88
:101690004D4B18682EF09EFA4C4B21461C804C4B4B
:1016A0004FF480624B481C802EF02FFF00F0FEFDAF
:1016B000494C0022002320462AF0A4FB0028F8D041
:1016C00001213D482AF0B4FB15B9084600F038FC6A
:1016D0004FF00008DFF81491DFF814A1DFF814B11F
:1016E0003B785FFA88F18B4200F2C5803B482BF0D3
:1016F0006EFC002D7FF41CAF284600F021FC17E79C
:10170000044629482AF079FB214602463B783448B2
:101710002BF05DFC254B186809F062FB00F1160206
:10172000162A044604D82F4B1341DB077FF571AF0F
:1017300021462D48FAE48046DFF8BC90DFF8BCA0D3
:10174000DFF8BCB07DE700BF998E03003F420F0079
:1017500040420F0048070020B78E0300CE8E0300E2
:1017600030070020E78E03007C5800207401002021
:10177000F98E0300BD91030060070020E191030092
:10178000FF91030033920300AC5400201F8F03002D
:10179000498F0300738F0300A08F030027050020EB
:1017A00044010020E28F0300F02D0020E82D0020EE
:1017B0001290030098900300102E0020A8540020DF
:1017C000EC2D002010060020142E0020F0550020E3
:1017D000EE550020182E0020A0060020AD91030039
:1017E0006D900300FEFFBDFF108A030051910300BE
:1017F000E8060020959103002E900300D0060020FB
:101800004F900300274B14220021BBFA8BF913A839
:1018100053F82B802EF079FE0322594622484FEAD6
:1018200059198DF84D202BF0D2FB13AA494640469A
:1018300008F082FD10F10D0F024611D159461B48E8
:101840002BF0C5FB0121404608F0AAFE00214046CE
:1018500008F0A6FE13AA4946404608F06DFD024670
:10186000594601341AB112482BF0B1FB52E7114826
:101870002BF0ADFBF9E6484609912BF0A8FB4FF0A1
:10188000FF324FF0FF3350462AF0BCFA08F101084E
:101890000446099910B10146074847E458462BF021
:1018A00096FB1DE7602D0020AF900300CD90030054
:1018B0000A910300399103007791030001480EF06B
:1018C00087BD00BF1832002008B5002104482AF067
:1018D0000FFB20B1BDE8084040B22AF047BB08BD6D
:1018E0003432002010B512482AF0FFFA0446F0B94D
:1018F000062110482AF0E5FA00280BDD21460E48A3
:101900002AF0F6FABDE8104046F2676200230B4861
:101910000EF00ABE09482EF03CFB40B906482AF0FA
:10192000E4FA20B9BDE8104005480EF051BD10BDE5
:1019300098320020380A03006C320020000C00208E
:101940007032002008B508482BF041FB074BD3E864
:10195000EF1F0339C3E8E21F002AF8D1BDE80840B1
:1019600003480EF035BD00BF48920300343200201A
:1019700038320020014603488368DB690BB101223D
:1019800018477047380A030010B524482AF0ADFA0A
:101990000446B0FA80F0400900F0A4FC024648B1C9
:1019A0001F49204B2048002C08BF1946BDE81040B5
:1019B0002BF00DBB4CBB21461C482AF099FA1C4861
:1019C0002AF093FA28B11A482AF092FA19482AF014
:1019D00097FA002118482AF08BFA01F0C7F8174847
:1019E0002EF0D7FA002116482AF082FA15482AF07C
:1019F00087FA012109482AF07BFA13482AF080FA75
:101A00001248BDE810402BF0E2BA014603482AF024
:101A10006FFA0D482AF074FA0D48F2E79832002068
:101A2000B1C70300549203005C920300943200207B
:101A3000803200201814030090320020000C002097
:101A40006C32002010140300E81303007B920300A3
:101A5000AC92030010B5012118482AF049FA184841
:101A60002AF043FA40BB17482AF03FFA044620B157
:101A70001548BDE810402BF0AABA14482AF035FAF0
:101A800070B1214611482AF033FA11482AF038FA89
:101A9000104821462AF034FA01F068F80E48E8E7C9
:101AA0000A482AF025FA0A482AF02AFA09480121A8
:101AB0002AF026FA0948DCE710BD00BF6C3200208E
:101AC0009832002080320020D9920300903200200A
:101AD0001014030018140300009303001493030070
:101AE00010B519482AF001FA68BB18482AF0FDF928
:101AF000044620B11648BDE810402BF068BA1548DE
:101B00002AF0F3F960B1214612482AF0F1F912489F
:101B10002AF0F6F9214611482AF0EAF91048EAE7D6
:101B200001210C482AF0E4F90B482AF0E9F90121D7
:101B30000A482AF0DDF900F007FF0A4B18680EF09A
:101B400053FA0948D7E710BD9832002090320020A0
:101B500027930300803200201814030094320020E1
:101B60004A9303009C3200205F93030008B50848A5
:101B70002BF02DFA074BD3E8EF1F0331C3E8E21F28
:101B8000002AF8D1BDE8084003480EF021BC00BF90
:101B900073930300343200203832002010B5164809
:101BA0002AF0A3F930BB15482AF09FF910BB14485E
:101BB0002AF09BF90446E8B9042112482AF081F979
:101BC00000280EDD012110482AF092F900F0BCFE39
:101BD0000E482BF0FCF90E4B1868BDE810400EF0D3
:101BE00003BA214608482AF083F9BDE810400948A5
:101BF0002BF0EDB910BD00BF9832002080320020DC
:101C000090320020380A0300943200207D930300B4
:101C10009C3200208C9303007C4B10B518607C48EC
:101C20002AF082F928B97B482BF0D1F96FF0120421
:101C30000AE04FF4803178482AF024F9044628B1AC
:101C4000014676482BF0C3F9204610BD4FF0E861FD
:101C500071482AF0F4F8044610B101467048F1E7E3
:101C60007048714B436010238360FFF783FE6F4819
:101C70002BF0ADF96E496F482EF031F96E486F497F
:101C80002EF07BF962482AF04FF908B96C48CBE78F
:101C90005F482AF049F90028F8D04FF480316948AC
:101CA0002AF0F0F8044610B101466748CAE74FF43D
:101CB000B01166482AF0E6F8044610B101466448BF
:101CC000C0E753482AF030F908B96248ACE74FF44E
:101CD000B01161482AF0D6F8044610B101465F48B9
:101CE000B0E74FF0E86157482AF0A9F8044610B170
:101CF00001465B48A6E75B485B4B4360402383603B
:101D0000FFF738FE59482BF062F9594859492EF02F
:101D1000E6F83F482AF008F908B9574884E73C48F4
:101D20002AF002F90028F8D04FF4803153482AF005
:101D3000A9F80446002887D14FF4803150482AF092
:101D4000A1F8044600287FF47FAF4FF0B8614B48FC
:101D50002AF075F8044600287FF476AF4FF0B8619A
:101D600047482AF06CF8044600287FF46DAF4548D8
:101D7000454B464C436004238360454B6360082316
:101D8000A360FFF7F7FD2046FFF7F4FD032141486C
:101D90002BF01DF900F090F8044600287FF454AFB2
:101DA0003D483E492EF09BF819482AF0BDF808B985
:101DB0003B4839E716482AF0B7F80028F8D04FF426
:101DC000803138482AF05EF8044600287FF43CAFA2
:101DD0004FF4B01134482AF055F8044600287FF437
:101DE00033AF4FF0B8612F482AF029F80446002895
:101DF0007FF42AAF2D482E4B436020238360FFF7EA
:101E0000B9FD2C482BF0E3F81EE700BF9C32002000
:101E1000380A03009C93030008140300B7930300DF
:101E2000D8930300603200209D1B0000FC93030048
:101E3000E11A000070320020000C0020551A00004A
:101E40002794030020140300409403001814030097
:101E5000669403008994030010140300A594030002
:101E6000C794030084320020E5180000F0940300BA
:101E700038320020C9180000139503000014030035
:101E8000F8130300543200204519000048320020A6
:101E90006D1B0000319503001832002089190000E5
:101EA00057950300F0130300E813030028320020C5
:101EB000BD1800007295030008B502482BF087F8A2
:101EC000002008BDA2950300084B1A691268520150
:101ED00048BF80F0010028B19B68DB684FF080614B
:101EE000024818479B681B69F8E700BF380A0300DF
:101EF00038B5114D2B78C3B9104C20462DF09FFDFD
:101F0000B0B12269A1681368204623F08063136092
:101F10000B684FF4C0221A219847034630B9FFF7E7
:101F2000D3FF034610B901232B700023184638BD98
:101F30006FF01203FAE700BF7E580020380A030052
:101F400010B5074B04461B7823B12046BDE810406E
:101F5000FFF7BABFFFF7CCFF0028F6D010BD00BFD7
:101F60007E58002010B521482DF069FD30B9204879
:101F70002BF02DF86FF01204204610BD1D4829F0FB
:101F8000D5FF044620B101461B482BF020F8F3E7AB
:101F900016482DF054FD08B91848E9E7184829F00B
:101FA000C5FF044610B101461648EEE70F482DF074
:101FB00046FD08B91448DBE7144829F0B7FF04468A
:101FC00010B101461248E0E712482DF038FD08B97B
:101FD0001148CDE7114829F0A9FF044610B1014688
:101FE0000F48D2E70F482AF0F2FFC5E7180A0300AE
:101FF000E195030038140300009603002A960300BD
:10200000301403004B960300779603002814030056
:1020100098960300380A0300C49603004014030096
:10202000E39603000D9703002DE9F047DFF8648283
:10203000064698F80030002B54D0002852D00027D4
:10204000B946844C844D2378021F05EB43153C3080
:1020500052F8041F0B14002BB8BF5B429BB209B2AD
:102060009945B8BF99460029B8BF494289B28F4205
:10207000B8BF0F469042EBD1DFF81CA2DAF800306F
:10208000002B0FDAB9F1400F01DC402F0ADDB94512
:10209000ACBF002101213B464A467048CAF80010F7
:1020A0002AF095FFDAF80000002803DAB945ACBF42
:1020B00000200120002156F8213002284FEA234257
:1020C0001BB26DD11A4402EBD27242F34F0325F8D2
:1020D000113001311029EED123780133DBB2092B05
:1020E00062D823705E4A5F4F13785F49DFF8AC9186
:1020F000002B18BF0F4683F001031370D9F800308E
:10210000002B00F08A809A6814885A68A4B2B2F84A
:1021100000A09A891FFA8AFA544B544519784CD872
:10212000AAEB0405ADB200294DD0544575D0DFF8B7
:102130005CA1DAF8001049B1D9F800302A469B8931
:102140004B482AF044FF0023CAF80030BC46D9F8B7
:1021500000504FEA841E2B6803EB841303F14009FF
:10216000624618685968083303C24B459446F7D154
:1021700028684022002170442EF0C7F9AB89013451
:10218000B4FBF3F103FB1144AA68A4B2394B1480E9
:10219000D3E8EF1F0131C3E8E21F002A1AD0F7E7A6
:1021A000002808BF134692E700232370324B1B68B8
:1021B000002B97D02848984794E70AEB02052D1B7F
:1021C000ADB20029B3D1092D20D8402200213846D4
:1021D0002EF09BF998F800303946002B14BF30469A
:1021E000002000F0C9F9014688B3244B1A68013277
:1021F000052A1A6005D93220B2FBF0F300FB132345
:102200002BBBBDE8F0471E482AF0E1BE01211D4866
:10221000197029462AF0DBFE87E740220021384664
:102220002EF073F9184BD3E8EF1F0131C3E8E21F1A
:10223000002AF8D1154B16481A6801321A60D0E806
:10224000AF2F19689142C5D929F088FEC2E7BDE8D1
:10225000F08700BF81580020F25500205A970300F4
:102260007F580020F4320020B43200208058002033
:10227000B4970300AC320020B8330020A032002015
:10228000E497030090970300B0320020A8320020AA
:10229000A432002082580020C0010020B433002066
:1022A0000021014829F05ABEB0320020002108B5B3
:1022B000074B08481970084B196029F04FFE074872
:1022C00029F04CFEBDE80840054829F047BE00BF94
:1022D00080580020B0320020A8320020AC3200200C
:1022E000A43200204FF0FF3307B501A9019301F09C
:1022F000BFF938B9019B5A1C042A28BF4FF0FF339D
:10230000024A136003B05DF804FB00BFC001002067
:1023100037B502466C460B46134903C984E80300EF
:102320001046F2B1EBB1114D2A7812B1002003B082
:1023300030BD0F4A10600F4A2046136001F0F0F8DC
:102340000028F4D19DF800200B4B1A70019B5A1CF9
:10235000042A28BF4FF0FF33084A136001232B7073
:10236000E4E76FF01500E2E7800F030084580020D7
:10237000B4330020B833002082580020C001002070
:1023800070B52C4B1B78002B50D02B4E3378002B84
:102390004AD12A4800F07AF800F07EF8044628B1C5
:1023A000014627482AF013FE204670BD0146402210
:1023B0002448254D2EF0A9F82146402223482EF02E
:1023C000A4F8FFF773FF2B782148002B08BF0020EB
:1023D0001C4900F0ABF8044610B101461D48E1E786
:1023E0002B781D48002B08BF0020184900F0C4F8C6
:1023F000044610B101461948D4E701F0F9F8044643
:1024000030B1014616482AF0E2FD00F0D7F8CBE7DC
:10241000144B2978144A154800290CBF1146194657
:102420002AF0D5FD012333700024BDE74FF0FF34BF
:10243000BAE700BF845800208358002029200000FC
:102440001F980300F432002082580020B43200208C
:10245000743300203A980300343300205698030068
:1024600079980300199803001C980300A8980300AA
:10247000012908D138B1044A126822B1D0E900011B
:1024800000B901B110477047BC330020014B186000
:10249000704700BFBC33002037B51D4D2B78002B93
:1024A00034D14FF0502449F6A633C4F85C350123EB
:1024B000A361D4F8203153B10021164801AA2CF0B1
:1024C0009BF9002808DA6FF0040003B030BD00214A
:1024D00021202DF025FEECE7019B0F4A19791868A1
:1024E0000AF09AF902460028EDD10121282004F0D3
:1024F0000FFB282004F0DCFA084A094909480BF0D0
:10250000C3FF094B9842DED101232B700020DCE78A
:1025100085580020481403000080025071240000F8
:10252000C4010020EC0100200000AD0B1FB50F4CD2
:102530002378012B13D100B989B11023CDE9010112
:1025400000220B4801A9ADF80C300CF06FF8094BD4
:10255000984207D102230020237004B010BD6FF011
:102560001500FAE76FF00400F7E700BF8558002078
:10257000EC0100200000AD0B1FB50D4B1B78022BAA
:1025800013D100B989B11023CDE90101094801A98E
:10259000ADF80C300CF0BEF8074B984214BF6FF04A
:1025A0000400002005B05DF804FB6FF01500F9E7AA
:1025B00085580020EC0100200000AD0B10B5054C43
:1025C0002378022B04D104480CF0E6F80123237091
:1025D00010BD00BF85580020EC010020034648F6DE
:1025E000D870834206DD4AF273729342CCBF4AF23E
:1025F000747098B2044B1A8882421EBF18804FF044
:102600005023C3F85C05704724050020F8B5074641
:102610000446002507F8141B194829F0A9FC0229D3
:1026200065610E467D60E561258415D003291ED0C5
:10263000012E2946134805D029F09AFCC4E9025519
:102640002582F8BD29F094FCC4E9025525820E4884
:10265000BDE8F8402AF0BBBC29460A4829F088FCAE
:1026600061680A482582BDE8F8402AF0B0BC012123
:10267000044829F07DFC064B064819882582F2E7BC
:10268000C0330020C4330020DA980300E998030027
:1026900024050020079903002DE9F0418AB0242287
:1026A000002101A82DF031FF49F6A6324FF050234A
:1026B0000292D3F85C357F4E9BB2002B08BF1346C5
:1026C0007D4FDFF810827D4D33804FF0FF324FF0A9
:1026D000FF3338460DF0C2FC0021404629F048FC8B
:1026E000044648B149F6A6332846029329F040FC37
:1026F00001A8FFF78BFFE8E7D5E8EF3F012B03D1F7
:10270000C5E8E24F002AF7D1DFD16D4BD3E8AF2FF8
:102710009DF825009DF824100328089B1FD80DF173
:10272000280C0CEB410C134401302CF8102C0893AE
:102730008DF82500013101F003018DF824109DF87A
:102740002510089B012938BF0121B3FBF1F39DF847
:1027500004100329B9D8DFE801F00E103C760AA86E
:1027600000EB410030F810CC20F8102CA3EB0C0348
:1027700013440893DEE70121BAE7039B1A44049B44
:1027800003920133092B04939FD992FBF3F30A229E
:10279000C3F1020353435B1083EAE372A2EBE372DB
:1027A000082AC8BF1C4640F24B12464B49F6A630D9
:1027B000634393FBF2F3182BA8BF18236FF01702A3
:1027C0009342ACBFC01880180290FFF707FF0221A8
:1027D0008EE70A22C3F1020353435B1083EAE372DC
:1027E000A2EBE372082AC8BF1C4640F24B12354BDD
:1027F0006FF01700634393FBF2F3182BA8BF182365
:10280000029A21468342ACBFD0181018FFF7E6FEAB
:1028100032882D482AF0DBFB84EAE473A3EBE473EF
:102820000F2B01DC032163E79DF815300133DBB288
:10283000092B8DF815307FF648AF214623482AF042
:10284000C6FB002154E70A22C3F1020353435B1085
:1028500083EAE372A2EBE372082AC8BF1C4640F287
:102860004B12184B6FF01700634393FBF2F3182BD6
:10287000A8BF1823029A8342ACBFD0181018FFF7E4
:10288000ADFE84EAE473A3EBE473202B0DDD9DF829
:1028900014300133DBB2022B8DF814307FF615AF04
:1028A00021460B482AF093FB91E700238DF8143062
:1028B0000BE700BF2405002070060020CC33002069
:1028C000C833002018FCFFFF23990300469903003A
:1028D00075990300F401002010B588B00022002390
:1028E000CDE9062300230122094CCDE90323CDE9DC
:1028F000013300934FF480622046064B06490DF0E9
:102900008FFE2046054908B0BDE810400DF012BE0C
:10291000300C00209926000038880020A099030080
:1029200010B5074C0146204629F022FB0121201D4D
:1029300029F01EFBBDE8104002480DF055BB00BF5A
:10294000C83300207006002008B50121034829F093
:102950000FFBBDE8084002480DF046BBF401002023
:102960007006002000487047400600200023084AF7
:102970001370084A1360084A1360084AD2E8EF1F30
:10298000C2E8E03F0028F9D105482AF020BB00BF8B
:1029900087580020D4330020D03300209432002008
:1029A000A999030038B50A4600EB41050446002109
:1029B000A5420DD1B1F5FA7F2C4C13DA2378012B07
:1029C0003CD0022B46D0002B3DD1294B002239E0D0
:1029D00034F9023B002BB8BF5B421BB29942B8BF2F
:1029E0001946E5E70146234800F0DAF82378012B81
:1029F00022D0022B28D033BB0028E6DD1C491E481C
:102A00000A680068013282420A601CDB01220B6006
:102A10001A4B2270D3E8EF1FC3E8E02F0028F9D14A
:102A2000FFF792FF164B186808B10DF0DDFABDE80C
:102A3000384014482AF0CBBA002804DC02230122D3
:102A40002370114B1A6038BD002803DD0123237069
:102A50000D4BBBE70C4A1368013313600B4A126835
:102A60009342F0DBBDE83840FFF780BF8758002075
:102A7000D4330020E4330020DC33002094320020E3
:102A8000E0330020B8990300D0330020D833002071
:102A90002DE9F3411C4C054620460E461746984644
:102AA00000F030F968BBC4F8F0022946204629F04E
:102AB00067FA28B16FF01504204602B0BDE8F08136
:102AC00020464FF47A5129F065FA04460028F1D1E6
:102AD0000E4B32461E600E4B29461F600D4BC3F84D
:102AE00000800D4B18700D4B18600D4B18600D4B8E
:102AF00018704FF4FA730C4800933B462AF067FABB
:102B0000DAE76FF00404D7E7E4330020DC33002079
:102B1000D8330020E033002087580020D433002031
:102B2000D033002086580020C89903009F2903460F
:102B300070B512D80B4C0C4D26784A0001FB06F0FC
:102B4000194605EB40002DF0B9FC16B9012323709E
:102B500070BD0023A02128462370BDE87040FFF718
:102B600021BF00BF865800203257002010B5084C06
:102B70002378013B012B01D8FFF7F8FE0023054A1B
:102B800023701360044A1360044A137010BD00BF21
:102B900087580020D4330020D033002086580020EE
:102BA00038B508B92BF0FCF90A24D0F8F0520D4BD7
:102BB00053F825305C43A24207D014245C43A24260
:102BC00003D01E2463439A4209D1074B53F82530A2
:102BD00098470028E6DB14BF0120002038BD4FF0E5
:102BE000FF30FBE78014030070140300032966D84C
:102BF000DFE801F00220374E324B1A689B88C0F89C
:102C0000C422A0F8C832304B1A689B88C0F8CA2288
:102C1000A0F8CE322D4B1A689B88C0F8D022A0F8BD
:102C2000D4322B4B1A689B88C0F8D622A0F8DA322F
:102C300000207047274B1A689B88C0F8C422A0F870
:102C4000C832254B1A689B88C0F8CA22A0F8CE3239
:102C5000224B1A689B88C0F8D022A0F8D432204BAF
:102C6000E0E7204B1A689B88C0F8C422A0F8C8325D
:102C70001D4B1A689B88C0F8CA22A0F8CE321B4BA5
:102C80001A689B88C0F8D022A0F8D432184BC9E744
:102C9000184B1A689B88C0F8C422A0F8C832164B9B
:102CA0001A689B88C0F8CA22A0F8CE32134B1A6863
:102CB0009B88C0F8D022A0F8D432114BB2E74FF075
:102CC000FF3070471E4903001849030012490300F2
:102CD0000C4903000649030000490300FA480300B9
:102CE000F4480300EE480300E8480300E24803000C
:102CF000DC480300D6480300D0480300CA4803005C
:102D0000C448030010B5044610B94FF0FF3010BDA1
:102D1000012300210360C0E94511102204302DF089
:102D2000F4FB04F1140029F0C9FC2D4B04F1B402AA
:102D300003F1180153F8040B8B4242F8040BF9D14C
:102D4000284B04F1CC0203F1180153F8040B8B4219
:102D500042F8040BF9D1244B04F1E40203F1180109
:102D600053F8040B8B4242F8040BF9D11F4B04F1CA
:102D7000FC0203F1180153F8040B8B4242F8040BD8
:102D8000F9D142F2107104F5ED7304F29A2223F89E
:102D9000021F9342FBD10021C02204F58E702DF05A
:102DA000B4FB0021124B2046C4E9A733C4F8A81293
:102DB000C4F8AC12A4F8B012C4F8B212C4F8B61237
:102DC000A4F8BA12C4F8BC12C4F8C012C4F8A432F1
:102DD000FFF70CFF002898D12A23C4F8EC3296E7BD
:102DE0006C490300544903003C4903002449030093
:102DF000400640062DE9F04F00F53777A9B03B4675
:102E00001646044629F0C8F918220021A4F8E80261
:102E100005461CA82DF079FB1822002122A82DF0D0
:102E200074FB502E22D1B4F9C4320893B4F9CA32DB
:102E30000193B4F9D0320693B4F9D6320A2D079330
:102E40002EDD4FF0000B22AB0493AE4B0DF170085A
:102E50000993CDF814B0CDF808B00025029B2E469A
:102E6000A7F5377A4FEA4309039529E0A02E0BD145
:102E7000B4F9C6320893B4F9CC320193B4F9D23222
:102E80000693B4F9D832D9E7B4F9C8320893B4F943
:102E9000CE320193B4F9D4320693B4F9DA32CDE7E5
:102EA000B4F91831002B00F31A8200260023A4F88D
:102EB0001A313046266029B0BDE8F08F0123039314
:102EC00010ABBAF9E420BAF9B4104B44B7F90000DA
:102ED00029F022FA8C4B0CAA33F90930BAF9CC103C
:102EE0005843039B064442F8230016ABBAF9FC2072
:102EF0004B44B7F9000029F00FFA844B039A33F9D9
:102F000009300AF10C0A58430EAB43F8220005447D
:102F100009F10C09002AD1D0002E40F0DA80002DF2
:102F200000F0E58085EAE573B3FA83F31F22013BE5
:102F30001BB20999D21A31F9023B0991059902FB9A
:102F400003130593069B46F30F31B3EB820FB8BF13
:102F50004FF0010B002940F3CD800C986C4B03EA35
:102F6000800029F02DFBA8F80000C0F58040A8F8EB
:102F70000C0045F30F3100290ADD654B0E9803EA7A
:102F8000800029F01DFB049B1880C0F580409881CB
:102F9000029B08F1020801330293049B02370233BB
:102FA0000493029B062B7FF458AF059B079A4FF0C2
:102FB00000089342B4BF5E464BF00106554B36B253
:102FC0000A93554B04F1B4050993544B07934FF4FE
:102FD00048534246B5F928122046049329F004FAD2
:102FE0004FEA48030693484B074603EB48031A464B
:102FF00000212846029328F0ECFF9A224FF4207A11
:103000008011C0EB071010FB02F0C0F34F230593B3
:10301000434BC8EB48270393049BFF01534407F538
:1030200010571BB2DDF81890A5F1B40BBFB20B938B
:10303000BBF9FC30BBF9B400BBF9CCC0BBF9E41060
:103040000493002E6ED0059B41F69A1E184400B2E0
:103050005045B8BF50463BB29842A8BF184622AB75
:1030600039F9031016ABABF8B40039F90300039A31
:1030700001FB00F3DB1213FB0EF35B150133B2F916
:1030800000E00CEB63031BB27345B8BF73460B9AA9
:103090000CF1040C9342A8BF1346ABF8CC30B5F842
:1030A0002832BDF81020A3EBEC0313FB00F3DB1078
:1030B0008810A3F58053584302EB820100114900A8
:1030C000002809B263DC4042049229F079FA4042B8
:1030D00060E086EAE672B2FA82F2013A12B23DB1DB
:1030E00085EAE573B3FA83F3013B1BB221E71F22A4
:1030F0001F231EE74FF48043A8F8003039E74FF450
:10310000407A95E7DC4903009C49030084490300A9
:1031100000C0FFFFB4490300C4490300D0490300C5
:10312000C049030040F28F2E1CAB33F90930059AD9
:10313000049310AB39F903C0049B03FB0CF3DB12BF
:1031400013FB0EF300EBA35313441BB25345B8BF5C
:1031500053460FFA87FE7345A8BF7346ABF8B430E9
:10316000B5F82832A3EBE00313FB0CF30498DB1053
:1031700002308010A3F5805358438013002800F3D9
:103180009C804042049129F01BFA404298E004924E
:1031900029F016FA00B2049A803040F30720024466
:1031A00012B2B2F5C07FB8BF4FF4C072ABF8FC20CA
:1031B000039B80370233BAF5407F0BF10C0BBFB293
:1031C000039309F10C099AD10021029A284628F0AC
:1031D00000FF069B454A05F1180A13441A460746A4
:1031E000002150469B4628F0F4FE079BC0F34F2277
:1031F000814633F9020BC7F34F210793531A1BB2D1
:10320000834215DA0144891A09B201EB410701EB47
:1032100087015A4641F38F01504628F0DAFEB91073
:1032200049428146029A284609B228F0D2FE074652
:10323000099A32F9023B09924FEAE91249F3CF1990
:103240004B4508DA298B9A1A11FA82F12983A98C45
:1032500011FA82F2AA840A98F91130F9022B47F385
:10326000CF1797420A9008DD521A298811FA82F185
:103270002980A98911FA82F2AA8108F10108B8F11E
:10328000060F05F102057FF4A4AED4F81431013322
:10329000C4F81431002E3FF403AEB4F81A310133F0
:1032A0001BB2062BDBBFA4F81A31089BA4F81A81C5
:1032B0000193019BA4F81831FBE5049129F080F9F2
:1032C00000B20499203040F38910084400B2B0F5F0
:1032D000C07FB8BF4FF4C070ABF8E40068E79BB2A2
:1032E0009E1C013B36B2A4F81831DFE58449030087
:1032F0002DE9F04743F6D72C002540F6EA3642F296
:10330000984A49108D4215DB0646002740F2353CAD
:1033100041F2DE7E43F25E088F4234DB002547F641
:10332000FF7C3A4E02F1020E8D4200F1100053DB99
:10333000BDE8F08750F83580D3F804E01F68A8EBAB
:103340000E0404F50054A41306FB0474C3F80080B3
:10335000D3F808805C60A4EB08095FEAA93948BF8C
:1033600009F101090AFB09EEDC68AEEB0404A413C1
:1033700048BF01340CFB0484C3E902E4641040F844
:1033800035400135BEE7D6F804A0D3F814900137D4
:10339000AAEB090404F50054A5131C69C3F810A096
:1033A0000CFB05449D695C61A4EB050A5FEAAA3A3F
:1033B00048BF0AF1010A0EFB0A99DC690836A9EB3D
:1033C0000404A41348BF013408FB0455C3E906955F
:1033D0006D1046F8045C9FE750E90234234450E93D
:1033E00004473C44E413B442B8BF3446DB1364459D
:1033F000A8BF6446B342B8BF33466345A8BF63461F
:1034000022F815402EF8153002358DE70080FFFFB9
:103410002DE9F74F8946019240F20A38002240F226
:103420003F4C45F6F52143F2672440F2B916DE27FA
:10343000DFF894E0234D09F1040A019B9A4202D17E
:1034400003B0BDE8F08F03680C3008FB03FB50F8B5
:10345000083C0BF5804B0EFB03BB50F8043C0CFB07
:1034600003BB036801FB03BB436804FB03BB836826
:1034700005FB03BBC36806FB03BB036907FB03B380
:1034800049F8323050F8083C07FB03FB50F8043C85
:103490000BF5804B06FB03BB036805FB03BB4368CE
:1034A00004FB03BB836801FB03BBC3680CFB03BBCA
:1034B00003690EFB03BB436908FB03B34AF83230D0
:1034C0000132BAE739F1FFFFFEF7FFFF2DE9F041C6
:1034D0000446DFF8488000EBC105AC4201D1002072
:1034E00017E0D4E90067012E04D138462CF0A2FA87
:1034F0000834F2E73A46314640462AF0AEFC03462D
:103500000028F5D004483A46314629F060FD6FF0B6
:103510000400BDE8F08100BF0B9A0300D8360020FC
:1035200038B5054600284BD0274800F03FFA04463E
:1035300028B10146254829F04AFD204638BD022120
:103540002348FFF7C3FF04460028F6D1092121488C
:10355000FFF7BCFF04460028EFD104211E48FFF707
:10356000B5FF04460028E8D10E211C48FFF7AEFF46
:1035700004460028E1D10A211948FFF7A7FF0446B5
:103580000028DAD103211748FFF7A0FF04460028DE
:10359000D3D140F2622244F618010B482AF05DFCB8
:1035A000044630B10146104829F011FD6FF00404C3
:1035B000C3E7012368602B700C4829F008FDBCE7C5
:1035C0006FF01504B9E700BFD83600203F9A03001A
:1035D00090140300F8150300D8150300B814030075
:1035E00088150300281503005D9A0300839A0300E1
:1035F00010B503210548FFF769FF044618B10146DD
:10360000034829F0E4FC204610BD00BFA0140300CD
:10361000A59A030073B5064644F61801124801AA9C
:103620002AF013FC18B16FF0040002B070BD9DF8D1
:10363000044044F6180104EB4604802CA8BF802403
:1036400024EAE474084844F400722AF006FC0546B3
:103650000028E8D16310054822463146403B29F056
:10366000B6FC2846E1E700BFD8360020C29A030026
:1036700010B50C46B1B150B109210C48FFF726FF37
:1036800020B920600A4829F0A2FC002010BD0A21C0
:103690000848FFF71BFF0028F8D14FF0FF3306481A
:1036A0002360F0E76FF01500F0E700BF401503005E
:1036B000E69A030088150300839A03000146014837
:1036C00029F085BC0C9B030008B5024829F07FFC5B
:1036D000012008BD329B030008B5024829F077FCA1
:1036E000012008BD5D9B030008B5024829F06FFC6E
:1036F000012008BD899B030008B5024829F067FC3A
:10370000012008BDAE9B030008B5024829F05FFC0C
:10371000012008BDD29B030008B5024829F057FCE0
:10372000012008BD059C030008B5024829F04FFCA4
:10373000012008BD2A9C030008B5024829F047FC77
:10374000012008BD5B9C03000A4608B50123C0B2F6
:1037500003FA00F107484AB18368DB68984720B153
:103760000146054829F033FC012008BD83681B6928
:10377000F4E700BF380A03007E9C0300F8B501257A
:10378000154B164E1960164B16491A60164BB76842
:103790004B6005FA00F38B60FB6904460BB901200E
:1037A000F8BD2A46304698470028F8D1E1B2BC69F6
:1037B0003369002CF3D01B688D401D4214BF4FF0BD
:1037C00080634FF000734FF0A0723046A04700387E
:1037D00018BF0120E4E700BF8C370020380A03003F
:1037E000883700207C370020ED370000B2F5002F2D
:1037F00008B50AD1054A064B00201B681168984796
:10380000BDE8084003480CF0EFBB08BD8837002036
:103810008C3700200007002010B505480CF062FB33
:10382000044618B10146034829F0D1FB204610BDDB
:1038300068370020A19C030010B54FF0FF324FF015
:10384000FF3305480CF0D6FA044618B10146034888
:1038500029F0BDFB204610BD68370020BD9C030049
:1038600010B58AB008460D99042903D0144829F0F0
:10387000AEFB10E008930C9B0024099304AB029369
:103880000323CDE9040201AACDE9062101940393A3
:10389000FFF7D2FF10B101200AB010BD09480A4954
:1038A00083681C6802AB1A46A047014608B1074866
:1038B000DDE7FFF7B1FF003818BF0120ECE700BFDC
:1038C000D79C0300380B030064160300FC9C030024
:1038D00070B50446084E094D4FF0FF324FF0FF33EC
:1038E00030460CF0BBFB204602F094F90028F3D0E0
:1038F000284629F06CFBEFE7000700201D9D030020
:1039000070B5144601B922B10B4829F060FB0120C3
:1039100070BD20EAE0754FF40046214640F2E730E2
:103920004FF47A720023C5FB0601FCF713FC2CF060
:10393000F7FB2046ECE700BF3E9D030010B58AB0C0
:1039400008460D99042903D0144829F040FB11E0E2
:1039500008930C9B0024099304AB02930323CDE945
:10396000040201AA0393CDE906210194FFF764FF45
:10397000034610B101200AB010BD09480949826808
:10398000146802AAA047014608B10748DDE7FFF71F
:1039900043FF003818BF0120EDE700BFD79C0300AC
:1039A000380B030064160300619D0300F0B593B06B
:1039B00007462822002108A82CF0A7FD3E482CF03D
:1039C00054F93E482CF03BF848B13D482CF037F80C
:1039D00028B13B482CF033F848B93A4800E03A485F
:1039E00029F0F5FA6FF00504204613B0F0BD4FF44E
:1039F0008031364828F0CAFF04460028F4D1304808
:103A00002CF01DF80028E8D04FF48031304828F021
:103A1000BDFF04460028E7D129482CF010F8002803
:103A2000DBD04FF400312B4828F0B0FF04460028CB
:103A3000DAD14FF4A4720023CDE906230523CDE9A2
:103A40000070CDE9020304904FF42F72224B2349FA
:103A500023480CF0E5FD234921480CF06BFD04469A
:103A60000028C1D138462AF008FA08B11E48B7E745
:103A70001E4E08AD0FCE0FC596E80F0085E80F006B
:103A80001B4B384610931E2308A9119302F07AF8B5
:103A900008B11848A4E7384602F094F908B116486E
:103AA0009EE7B968154A91429ED0154829F08FFAD1
:103AB0006FF0040498E700BF68370020380B03005C
:103AC000380A0300919D03007A9D030088160300C5
:103AD0008016030078160300D1380000388C0020CF
:103AE000280D0020A59D0300AD9D03004016030096
:103AF000A0020020CB9D0300E89D0300637A040030
:103B0000019E03002DE9F04F91B0009302F00403F1
:103B10000293C2F3C2030133840705460E46DDF863
:103B200068800392059340F0BB81041D30B10729E2
:103B300009D86FF01B0011B0BDE8F08F01F0070647
:103B40003444C6F10806009B4FF000094FF0040A08
:103B5000591E4FF0FF334F460193CB465346CDF8E5
:103B600010900DB1009820600598002800F3E880BF
:103B70009848009A824203D397488242C0F0E0807E
:103B8000039AA4EB050E92074FEA9E0000F1038111
:103B90000F2F00F2B180002D00F0058107F14002E7
:103BA0000DEB020C019A0CF8200C0CF8102C049868
:103BB00001300490E7E07A285DD84B280ED84728DA
:103BC00059D829282DD8252852D054D820287AD041
:103BD0002338D0F1000B4BEB000B74E04C382E284F
:103BE00049D8DFE800F07048484848484848484805
:103BF00048484B484848484848484859484B4B591A
:103C00005959704B6D487048184B184848827F4B83
:103C100048484B487F0000204FF0000B4FF0040A4B
:103C200038E001222A38C0B202FA00F010EA0E0F82
:103C300049D110F0625C2FD110EA020B43D06046EC
:103C4000013C5444B4FBFAF40AFB04F4002D61D0A7
:103C5000A3EB050CA444B4453FF66BAF002868D134
:103C6000042B47D158F8043B2360042304342AE092
:103C7000019A013A01924FF0000B24E011F8010C77
:103C80006C2834D1002011F8023C83466C2BC5D13E
:103C90004FF0080A5346D3E708F1070828F0070851
:103CA000073424F00704F8E802AB35B10698204445
:103CB000B0423FF63EAFC4E900AB4FF0000B083412
:103CC0004FF0080A534611F8010F002878D0BBF1D5
:103CD000000F7FF470AF2528F5D14FF0010B019B49
:103CE000013301934FF0040AECE7584694E70020B3
:103CF0008346A5E7082B02D06FF015001BE708F1FB
:103D0000070828F00708B8EC027B84ED007B082345
:103D10000834D8E768B9042B02D108F10408A4E7F5
:103D2000082BE9D108F1070828F0070808F108086E
:103D3000EDE705980138059058F8040B009010E75E
:103D4000039A900720D54FF0010CA4EB050E4FEA23
:103D50009E00BEF5007FCFD20F2FCDD8F5B107F171
:103D600040020DEB020E019AC0B20EF8200C0EF8C4
:103D7000102CBCF1000F3FF41AAF60F07F000EF87A
:103D8000200C09F101090137C5F108024FF6DA7E6E
:103D90000434069297E74FF0000CDAE7BCF1000F0D
:103DA00001D00136EFE7029A0236002AEBD10098E3
:103DB000CDE90631FCF7FAF9DDE906310644E2E720
:103DC000631BB3F5806F97D245B9A6F10804E018DC
:103DD000B1E600BF2809030044D50300029A9B08FE
:103DE00028602B709DF81030C2B1EB7085F80290FE
:103DF000B9F1000F05D0002208A8C5F1010C9742C7
:103E00000ED14FF0000AC5F101030DF12008019316
:103E10000DF1300B574512D1601B8CE66B70E5E756
:103E200010F8013B190608D50CEB040EB64503F05B
:103E30007F033FF67EAE04F8013B0132DFE7B9F1C4
:103E4000000F03D098F90020002A17DB029BD3B1A2
:103E50001AF80B2004F8012B0022019B18191044BA
:103E6000B0423FF666AE98F80000009904F8010BE6
:103E7000204603922CF022FB039A14440AF1010A13
:103E800008F10108C6E798F8002055F822300093A1
:103E9000029B009845F82230FCF788F9421CDCE7C9
:103EA0006FF00D0047E600BF2DE9F04F97B000AF6F
:103EB000D7F880B03B62CBF3C0030446894690F844
:103EC00002A0FA62BB6141B9457800780AEB800034
:103ED00020444D4517D8A0EB0409E378FB61BAF103
:103EE000000F02D01BF0010F16D1FB6953BBFB6A18
:103EF0001BB1494620463A6A98474D4628465C37EA
:103F0000BD46BDE8F08F461C3046FCF74FF9013046
:103F1000304409F10109DCE7626823787A62FA6AC1
:103F20009900796104EB8301002A40F001810E467B
:103F30004FF000084D4601EB0A094E454CD101EB0C
:103F40000A0610E01BF0020FD1D023789A007A61A4
:103F5000626804EB83017A62FA6A002A77D14D46DF
:103F6000904601EB0A061BF0050F0CBF022301234C
:103F7000FB62FB6906EB430A0BF00203BB6256458A
:103F8000BCD016F8021B16F8013C54F82390994B4C
:103F9000994502D3984B994536D3BB69002B40D045
:103FA000786A28F0EBFF00283BD0E9468AB06A46E1
:103FB000924B53617B6AC2E906314FF4007313845C
:103FC0008F4B42F8103F00234FF412518D4801F0FF
:103FD000B7F8023DCD46D2E716F8013BF96254F836
:103FE0002300FCF7E3F8D7F88430F96A01304BB1CD
:103FF000D7F8883098453EBFD7F8843023F81800AA
:1040000008F10108054498E7BB6923B1786A28F0F4
:10401000B5FF0028C9D11BF0010F05D1FB6AED1ACD
:10402000ADE7BB6A002BAAD04846FCF7BFF8D7F82B
:10403000843053B1D7F8883098453FBFD7F88420F3
:10404000431C22F8183008F10108054497E7BAF13B
:10405000000F73D01BF0040673D0D046002607F182
:10406000480052463B61B9622CF028FAB96A3B69B4
:1040700001EB0A02BA62FA69F9695200FA60BA6A97
:1040800002EB41023A610BF00202BA603A69B96A86
:104090008A4258D162781BF0020F18BF00217A6261
:1040A00008BF4FEA5801B2181BF0010FD2B240F01E
:1040B0009F801BF0040F14BF40460020BB6162705C
:1040C000A070E17020463A6A7969FB6A9847051E3C
:1040D000FFF614AFBB69414623707B6A3A6A63708E
:1040E000FB6984F802A0E37007F14800FB6A984777
:1040F000B0F10008C0F2BA807B69A9EB0A01C91AC5
:10410000FB683A6AC91AD7E90A0398470028C0F23F
:10411000AF804FF0000BA84408EB000507F1380A08
:10412000B34571D300213A6A0846FB6A9847E5E631
:1041300056464FF0000807F1380092E75646D04641
:1041400096E7B04694E7BA6A12F8021B12F8015CCF
:10415000BA6254F82500274A904202D3264A904278
:104160001ED3BA6932B1786A7B6028F007FF7B689A
:1041700000288BD1BA6802BB08F1280207F1300C85
:1041800008F10100944407F1580208F1020852FABC
:1041900080F00CF8101C5FFA88F800F8105C75E7E6
:1041A000BA693AB1786A7B6028F0E8FE7B6800283B
:1041B0007FF46CAF1BF0010F09D006F1280207F164
:1041C0003000711C161806F8205CCEB25EE71BF0BA
:1041D000040F3FF45BAF08F1280207F1300008F14B
:1041E000010102EB000808F8105C5FFA81F84DE766
:1041F000002063E72809030044D503002C9E030038
:1042000004000001980E03001BF80A3054F82390B4
:1042100087F83730D7F884302BB3D7F888309B45F0
:1042200021D2D7F8843033F81B8001213A6AFB6A27
:1042300007F13700984700281ADB0544B8F1000F52
:1042400006D14846FBF7B2FF00F101081FFA88F8D3
:10425000414648463A6AFB6A9847002808DB05440D
:104260000BF1010B5CE74FF00008DEE7454645E641
:10427000054643E6014B1860704700BF340200203A
:1042800080B505460E46174698460CF08FFC03464F
:104290002CF040FB0446DFF81890424649F8003005
:1042A00039463046A84754F8090002F087FB00BFA2
:1042B000080000002DE9F047058B044628079046CA
:1042C00011D4022905F0070540F0CC80204629F0E2
:1042D00003F978B10138218B042811D8DFE800F008
:1042E000C2106D85950001290CBF45F0100545F001
:1042F0002005258388F31188BFF36F8FBDE8F08711
:1043000001F0070AAA4500F0A5800027B9463E46FD
:10431000A368002B00F0BC8041F00801218388F3E2
:104320001188BFF36F8FA168002900F0BA800D6873
:10433000002900F0B680334652462046D1F804806A
:10434000C047002D76D02B6829461D46F0E701F0C6
:1043500007035A1F012A1BD8002221F00701062B50
:10436000276889B2C4E9002209D13B4603E0628B89
:10437000013262831B68002BF9D141F00201204613
:10438000218329F0A9F800287AD041F0200176E0B5
:10439000042B0AD121F0070189B22046218329F09C
:1043A0009BF810B141F020012183218B01F0070A15
:1043B000AA454FD00027B946AAE7236921F0070193
:1043C00041F00601062DD3F8009021832DD1B9F1DB
:1043D000000F3FD041F00801218388F31188BFF31B
:1043E0006F8F20463949C84729E021F0070123692A
:1043F00041F0040189B2042DD3F804902183E6D062
:1044000000274FF0040A3E4682E721F007012369A6
:1044100041F0050189B2052DD3F808902183D6D04B
:1044200000274FF0050A3E4672E700274FF0060AC4
:104430003E466DE72B4687E7B9F1000FD1D1EFF388
:104440001188202383F31288BFF36F8F238B23F00F
:1044500008032383258BEA062ED525F0100323833A
:1044600005F007056669218B002EBFF670AF0023AB
:104470002768C4E9003321F0070141F001012183DD
:10448000218B4FF0000901F0070AAA457FF440AFE5
:10449000002F9CD041F00801218388F31188BFF3DD
:1044A0006F8F002FC8D03D683946334652462046AC
:1044B00029F03EF82F46F4E7AB067FF51BAF25F059
:1044C0002003238305F0070500E700BF5DD5020048
:1044D00010B530B90B480C4929F00AF96FF01500F6
:1044E00010BD836833B90748084929F001F96FF016
:1044F0000400F5E71B6813B1BDE8104018471846E3
:10450000EEE700BFB00E0300E09E0300F19E030043
:1045100010B530B90B480C4929F0EAF86FF01500D6
:1045200010BD836833B90748084929F0E1F86FF0F6
:104530000400F5E75B6813B1BDE810401847184662
:10454000EEE700BFB00E0300E09E0300F19E030003
:1045500070B508B101B132B90B480C4929F0C8F85F
:104560006FF0150070BD84680CB1E56835B9064878
:10457000074929F0BDF86FF00400F3E741F8040B98
:10458000E368BDE870401847B00E03000F9F0300BA
:10459000F19E030010B5044630B91048104929F0C7
:1045A000A7F86FF0150010BD006830B90B480D4931
:1045B00029F09EF86FF00100F5E783680BB11B69E5
:1045C00033B90648084929F093F86FF00400EAE788
:1045D000616898470028E6D12060E4E7B00E030048
:1045E0003B9F03004C9F0300F19E030070B51346F0
:1045F000044630B91048114929F07AF86FF01500D7
:1046000070BD006830B90C480D4929F071F86FF0A1
:104610000100F5E782680AB1956835B9064809498D
:1046200029F066F86FF00400EAE70A46AC466168D4
:10463000BDE87040604700BFB00E03003B9F030021
:104640004C9F0300F19E0300034A13680BB95268A4
:1046500013600020704700BF3802002030B50C46C0
:104660000E4985B00291D0F8D4110546CDE900314C
:1046700000F1F0014FF0FF3320460AF073FE50B90D
:10468000012384F86C30D5F8D03123B1204605B031
:10469000BDE83040184705B030BD00BFE9D7020083
:1046A00038B50C461146054629F0A0F8034638B93E
:1046B0002846044929F09AF803460020236038BDB3
:1046C0000120FBE7F0CA03002DE9F04F01238146EA
:1046D000056946688FB005F57B77D7E8EF2F002A8C
:1046E00003D1C7E8E13F0029F7D10CBF1A460022E9
:1046F00040F0BB80B368B16A05F5F8781C1F10461E
:1047000029F0FBF8844279D8013A00F0A880B2FA87
:1047100082F24FF00044D44072682046073222F003
:104720000302C5F83C22B16A29F0E7F8C5F8400257
:10473000B36A40466343033323F0030302EB4302AF
:10474000230103EB4403093323F0030303EBC40306
:10475000C5F834221A440832C5F830227368C5F807
:104760003842C5F82C32424BC5E9AD63316800F0E0
:10477000F1F9044600283FD1D9F810B0D9F804A0C7
:10478000D9F800300BF53479059004934846DAE9FE
:104790000734012B08BF103C2BF0E8FBDAF82400AB
:1047A000344904AB009301EB8021234648464FF483
:1047B00080620BF013FE2021DAF824302E4A06A87E
:1047C00025F068FC06A948460BF0B4FE2B490BF512
:1047D00030702BF084FBDAE9050183685C684CB12A
:1047E0005B46274AA047044630B9DAE905018368E9
:1047F0001B692BB96FF05704002129E001327EE7D5
:104800000122984704460028F6D11E4B2846C5F8D9
:10481000D0311D4BC5F8D4311C4B0393D5F8403231
:104820000293D5F83C32CDE9008305F51173B26AE5
:10483000D5F8E81300F056F904460028DCD105F15C
:10484000F0000AF035FE0028C5F8F0030ADB02216B
:10485000384628F0FFFF20460FB0BDE8F08F6FF01C
:104860000B04C9E76FF01504C6E76FF07704F2E7B1
:104870003FD80200F88E0020719F030025D8020067
:1048800019D8020091480000D1D9020085D8020051
:1048900013B5044640B100230122CDE90032074B95
:1048A000D0E909120AF032FD236F1B6823B1606F53
:1048B00002B0BDE81040184702B010BDF0CA0300B6
:1048C00013B504460846216901F57B71D1E8AF1F95
:1048D000022910D193B1A0B10121CDE900311346D5
:1048E000D0E909120AF012FD074B984208BF6FF099
:1048F0000B0002B010BD6FF00F00FAE76FF04C0034
:10490000F7E76FF00100F4E72EF8FFFF2DE9F3471A
:1049100089461546066906F57B73D3E8AF3F022B3F
:1049200064D1136823B96FF0150002B0BDE8F087B9
:104930001B78002BF7D0D6F8E8A3BAF1000F36D1D8
:1049400006F5EC774FF0FF324FF0FF3338460BF0AF
:1049500051FA30462A6801A9FFF7A2FE019C804661
:104960001CB9384628F074FFDDE705F1080323671A
:10497000AB6984F86CA06367646460B1384628F062
:1049800067FF21463046A36E2A68FFF767FE0020C6
:10499000C9F80040C9E71F22296804F148002BF03C
:1049A000DEFD384684F8678028F052FFEFE7304696
:1049B000104928F01BFF04460028B4D0002705F159
:1049C00008030367AB6980F86C70436740641F227B
:1049D000296848302BF0C3FD22460121304684F877
:1049E000677000F061F80028D1D09CE76FF00F00ED
:1049F0009BE700BFF0CA030010B50C46006900F544
:104A00007B73D3E8AF3F022B0FD189B10A4900F580
:104A100030702BF090FA20462AF03BFD78220021DE
:104A200020462BF072FD002010BD6FF00F00FBE759
:104A30006FF00100F8E700BF903700202DE9F04F3C
:104A400005460E4690460027D0F8C4A085B0AAF5CA
:104A5000BE7421463046FBF797FBE0B9114BA4F139
:104A6000480B0293DAF810303246CDE9008329462C
:104A70004FF0FF335846AAF5E2790AF073FC60B9AB
:104A80007823012203FB079383F86C20DAF80C30BB
:104A90000BB158469847783417B105B0BDE8F08F90
:104AA0000127D6E7FFD902001FB5144690B18AB19D
:104AB000012912D10A4B00F1F0010293D0F8D43150
:104AC000483201934FF0FF33204600930AF04AFC2E
:104AD00004B010BD6FF01500FAE70020F8E700BF42
:104AE000FFD902002DE9F04387B00E46DDE90E81C3
:104AF0001446DDE910251F4630B329B3DFF850C056
:104B000000F1F009002D08BF65469EB9CDE90344C8
:104B100000F5E274204605962AF053FF03ABCDE979
:104B200000432A463B46414648460AF039FD07B055
:104B3000BDE8F083002241460E9248462A4607B05F
:104B4000BDE8F0430AF07CBE6FF01500EFE700BF50
:104B50003D4A0000F0B504462B4A87B004AB0E4630
:104B600092E8030083E80300002C49D018460AF0BD
:104B7000D3FA0546B0B94FF0FF33E16C04F15407A6
:104B8000A163CDE9010000933846236D04F138029A
:104B90002AF02FF9A06C28F061FFC4F8BC0020B9FE
:104BA0006FF00B05284607B0F0BDA06C28F056FF4B
:104BB000C4F8C0000028F3D0236CD4F8BC10C4F8AB
:104BC00090300423C4F89430C4F8AC300223E3627C
:104BD0000E4BB4F84820C4F88C10616C236204F1C9
:104BE0008C03C4F8A070A4F89820C4F8B870C4F876
:104BF000A810A4F8B020C4F8A400A6612363D1E7EC
:104C00006FF01505CEE700BF880F0300BC16030048
:104C10002DE9F047044607464FF00109DFF85080C0
:104C200014B93846BDE8F08794FAA4F5B5FA85F5CD
:104C300009FA05F32E0108EB05156FEA030A24EAC9
:104C400003042B7B002BEBD058F806301B694BB9C3
:104C50004644736804222846196807EA0A0728F0C0
:104C600065FFDDE7284698470028D9D1F0E700BF67
:104C7000200F030030B5002289B00F490F482BF0F8
:104C800023FB002200230024CDE906230E230C4D34
:104C9000CDE903344FF440722846CDE90144094B75
:104CA000094900940BF0BCFC084928460BF042FC73
:104CB000204609B030BD00BFD14C000018230020B1
:104CC00018120020E54F0000F89200207D9F03009D
:104CD00001480BF089B900BF880600202DE9F04794
:104CE000804621480F4628F005FF0646002833D0AD
:104CF00000252846BDE8F087237B83B12368DB6865
:104D00000BB120469847636883F8069023681B69B7
:104D1000D3B9636804222046196828F007FF0136DA
:104D200010345445E8D3B8F1000FE2D0002DDFD0A5
:104D30002846FFF76DFF0546002FF7D000214FF4FE
:104D4000A4702BF0EDF9F1E7204698470028E0D059
:104D500009FA06F31D43E2E705464FF00109034C4B
:104D6000DFF80CA0DDE700BFC8370020200F0300EC
:104D7000300F0300014B53F820007047FC1603006E
:104D800008B5034608462BB1044A136000F070FCD6
:104D9000002008BD6FF01500FBE700BF6402002093
:104DA00010B5044C237813B903480BF01DF9012307
:104DB000237010BD885800208806002010B50446D6
:104DC000094828F097FE3CB1084BD3E8EF1F0139A2
:104DD000C3E8E21F002AF8D105482BF081FABDE8AC
:104DE000104004480BF000B9C0370020C437002041
:104DF000182300208806002000200146034BD3E83A
:104E0000EF0FC3E8E21F002AF9D17047C037002036
:104E100070B5FFF7F1FF0546074C084EB44200D3CA
:104E200070BD63685B792BB123685B6813B1294659
:104E3000204698471034F1E7200F0300300F03009D
:104E400010B5044C0449204628F0DFF9034B1C60E0
:104E500010BD00BF40050020E8160300B837002051
:104E600000230D4A10B513700C4A4FF40041136033
:104E70000B4A0C481360FFF783FFFFF7E1FF0A4B73
:104E80000A4918468B4200D310BD1A1A5C681211E9
:104E9000013222711033F5E789580020C037002015
:104EA000C4370020F1DA0200200F0300300F0300A6
:104EB000014600220023014828F0C8B9400500201F
:104EC000014828F061BA00BF40050020024B0146AE
:104ED000186828F0ADBA00BFB8370020014828F0A4
:104EE000E2BA00BF4005002070B5274B18780028B3
:104EF00049D0FFF7E5FF0546002841D1234B244C5C
:104F00001B68002B19DD2BF098F94FF47A72A0FB87
:104F1000020302FB0131C30B43EA4143D4E9002001
:104F20009B1A40F2E9324FEAD13161EB0001934222
:104F300071F1000101D3FFF76BFFD4E9003213F5E3
:104F40007A7342F10002C4E90032BDE87040FFF715
:104F5000C5BF63685B7923B12368294620461B6877
:104F600098471034B442F4D32846FFF7AFFF094BFB
:104F7000D3E8EF1F0139C3E8E21F002ABED0F7E7EC
:104F8000054C064EEEE770BD88580020C037002063
:104F900010230020C4370020200F0300300F03002F
:104FA00070B50D4D297861B90120FFF797FE0B4CC4
:104FB0000B4EB44206D3FFF797FF0028FBD1012325
:104FC0002B7070BD63685B791BB1236820469B68BA
:104FD00098471034EDE700BF89580020200F0300E8
:104FE000300F030000212DE9F0470846FFF776FE59
:104FF000044658B340F267684FF000092BF08AFC72
:105000001B4B1C4A1B58136033B11B4B1B68092BED
:1050100002DD1A480AF0E8FF0025194FDFF85CA00E
:1050200044B12046FFF7F4FD044618B94FF0FF38AD
:105030004FF0FF39FFF758FF064628B9B5B9424689
:105040004B4650460BF00AF83546E9E74FF0FF387B
:105050004FF0FF39D2E72B689B691BB1002228462D
:10506000114698471035BD42F5D3E8E7054DFAE7FC
:1050700008000000BC370020C4370020880600204C
:10508000300F0300200F030013B5184828F032FD3D
:10509000174B1B7873B1EFF31184202383F312882D
:1050A000BFF36F8FFFF720FF84F31188BFF36F8F7B
:1050B00002B010BD0F4B1B68002BF9D050B9002275
:1050C00000230D48CDE900234FF4004200230CF0EB
:1050D00087F8EDE70928EBD107482BF001F90748DD
:1050E00002B0BDE810400AF07FBF00BFC437002007
:1050F00089580020BC370020182300208806002093
:1051000010B5064B04461B6898472146A06004482A
:1051100028F01BF9BDE81040FFF7B6BF640200207D
:1051200040050020044A054B9B1AB1EBD30F34BF56
:1051300052F8310000207047380E0300200F0300A2
:105140002DE9F04F8FB0C1F34A2804AF0D469146C8
:10515000B8607B600C0DB8F1000F63D000264FF0F3
:10516000040B4FF00A0A07F11403C7F80C80C7E9D3
:1051700007667E620193CDF808B0CDF800A007F174
:105180001C0332464846F968FEF78EFEB0F5006F04
:1051900003461CD36C468AB0D9F8041004AB2648E9
:1051A0001A46C3E9050140F2FF71D9614FF400715D
:1051B0001984224B42F8103F4FF4125133462048D5
:1051C000FFF7BEFFA5462C37BD46BDE8F08FC0F304
:1051D0000A0804F11700184420F0070080083B601B
:1051E000FFF766FE68F35325044690B13B6800F173
:1051F0001001C7E9083607F11403F961CDE900A3EE
:10520000CDF808B048460F4AF96807F11C03FEF7CD
:105210004BFE68F353252A4620467B68B96828F080
:10522000A4FCD0E704F1170020F007008008FFF786
:105230003FFE0446EDE700BF929F0300040000011B
:10524000B80E03003FDB02002DE9F04F87B00446A3
:10525000DDE9105ADDE91279934698460391BFB112
:105260003B46524610210020CDF80090CDF8149016
:10527000FEF748FCB0F5006F06460AD340F2FF7314
:105280000221174A174807B0BDE8F04F28F0C6BC06
:105290003E4605F11700304420F007008008FFF774
:1052A00007FE04F007040BF0070BE40044EA8B143C
:1052B00044EA462444EA0554054640B13FB13B4622
:1052C00052463146CDF800901030FEF71BFC4346A5
:1052D00022462846039907B0BDE8F04F28F045BCA8
:1052E000D19F0300B80E0300406820B1034BC01AE1
:1052F00040F3CF0070474FF0FF307047380E030087
:105300000EB403B503AB53F8042B014604480193D4
:1053100001F0ECFE02B05DF804EB03B0704700BF93
:105320007FDC0200CA0605D48B064CBF0249034944
:10533000FFF7E6BF704700BFEFCA0300EECA0300E5
:105340002DE9F04F8BB09B46169B9DF854A0069319
:10535000179B04460593189B0D469046199E04938F
:10536000BAF1000F00F09E8006F00103089306F0EA
:105370000803079306F48073099328F0D5FB06F021
:105380000209024600283BD020468F49FFF7B8FFAC
:105390000746B9F1000F08D016F0440F32D12A4663
:1053A00020468A49FFF7ACFF0744089B53B1884B5E
:1053B000204653F82A20874B8749002A08BF1A46FF
:1053C000FFF79EFF099B002B48D0079B002B62D163
:1053D000B8F1000F64D0424620468049FFF790FFA5
:1053E0000546069B3D44002B6BD1049B002B71D1DD
:1053F000F30700F1E28031462046FFF793FFD6E045
:105400000746C6E7764B18680028CDD0754B4FF499
:105410007A791B684FF03C0CB5FBF3F5B5FBF0F166
:105420004FF4616300FB115509FB05F5B1FBF3F285
:10543000B5FBF0FE03FB121100FB1E55B1FBFCF3A4
:1054400009FB05F5B5FBF0F50CFB131120460091A7
:10545000CDE901E56449FFF753FFA5E7079BEBB1F1
:10546000624B204653F82A206149FFF749FF054661
:10547000B8F1000F05D0424620465849FFF740FFDB
:105480000544BBF1000FACD05A4620465949FFF7FE
:1054900037FF0544A5E74FF0000BE1E7079DE7E77D
:1054A00045469EE7BBF1010F069B06D1002B64D158
:1054B000049B002B7BD000250CE0002BF8D04E483D
:1054C0005CE04E48069B22464D4927F026FD049B92
:1054D000002B68D0DFF83881DFF83891049F31461F
:1054E000102F204628BF10274FF0000BFFF71AFFA0
:1054F0005D4545DC059B494620461A78FFF700FFCD
:105500004FF0010B1BF0070F03D141462046FFF778
:10551000F7FE5F453BD9059B4946204613F80B2013
:10552000FFF7EEFE0BF1010BBBF1100FEAD14FF0CC
:10553000000B20463349FFF7E3FE5A46059B204601
:105540009A5CA2F120015F2928BF2E222E49FFF785
:10555000D7FE0BF1010BBBF1100F1DD01BF0070F95
:1055600003D141462046FFF7CBFE5F455A46E5D8BA
:1055700041462046FFF7C4FEEBE720485546A1E729
:1055800041462046FFF7BCFE0BF1010BB0E7204679
:105590001E49FFF7B5FEC5E7059B3B440593049BF9
:1055A000DB1B04939AD1BAF1000F7FF421AF2046A0
:1055B0000BB0BDE8F04F28F055BB2046054A064920
:1055C000FFF79EFE17E700BF0EA0030012A0030026
:1055D0000C17030009A0030047AB030037A003002A
:1055E000D0370020CC3700201BA003002017030079
:1055F0003BA0030041A00300ADDC02007FDC020001
:10560000ED7000004CA003004EA00300B8CA0300D8
:10561000BACA030046A0030042F20F7373B58B426F
:1056200028BF0B4605680446052168460D4A24F04C
:1056300031FD0646636828460B225B680A4928F05C
:1056400003FB63683246694628465B6828F0FCFA2B
:1056500063681B2228465B68044928F0F5FA02B00B
:1056600070BD00BFDDA803006DA0030051A00300C2
:1056700000210123064A904206D8064A01B90123B7
:105680001360054B18607047012140085B00F2E78A
:1056900040420F00CC370020D0370020F8B50D462F
:1056A0000446064F4618B44201D12846F8BD14F806
:1056B000011BBB6801485B689847F4E7980A030040
:1056C000014B0360002070476817030008B50448C9
:1056D00027F07DFCBDE80840024827F078BC00BFF9
:1056E000B3A00300E8A00300014821F0ADBF00BF54
:1056F0006817030038B5044618B90F4B0F485B68AC
:1057000098476168B1F5683F10D0B1F5680F0DD0CA
:105710000B4DA9420AD011F46861206807D00146F8
:1057200008482AF007FA00232360656038BD142278
:105730002AF0EBFEF9E700BFBC04002016A103002D
:105740002C5F5CA9003D002008B560B34368B3F549
:10575000683F0ED0B3F5680F18D0144A934220D09A
:1057600000684FF0FF324FF0FF330AF043FB58B1AF
:1057700015E001220368D3E8EF1F002903D1C3E835
:10578000E02F0028F7D10AD1002008BD0368084A9D
:105790001B7803F5807352F82330002BF4D00548B2
:1057A000F3E70548F1E76FF4E040EEE72C5F5CA912
:1057B00000000350E98FFFFFEA8FFFFF08B520B319
:1057C0004368B3F5683F09D0B3F5680F13D0114AA9
:1057D00093421DD000680AF085FB14E000220368A4
:1057E000D3E8EF1F012903D1C3E8E02F0028F7D148
:1057F00009D0094808BD00210368084A1B7803F551
:10580000807342F823100020F4E76FF4E040F1E7E2
:105810000348EFE72C5F5CA9E98FFFFF000003500E
:10582000EA8FFFFF10B5044618B91D4B1D485B6891
:1058300098476368B3F5683F2FD0B3F5680F2CD055
:10584000194A934219D1236803BB4FF0FF324FF03E
:10585000FF33214615480AF0DBF908B923681BB964
:105860000F4B13485B6898471422002120682AF0E8
:105870004CFE4FF46863636008E0B3F5683F0DD8F1
:105880003A2B03D040F6BA629342DED120682AF068
:10589000ECF9636843F03A03636010BD054AF3E72F
:1058A000BC04002016A103002C5F5CA9003D002071
:1058B0003CA103003A00003A08B5064940231422EF
:1058C00005482AF029F9BDE808400449044821F0B8
:1058D0007FBF00BF00380020003D0020701703008C
:1058E00084170300002370B5136086B00593037915
:1058F00005461446032B03D8DFE803F0051A315C94
:10590000012006B070BD2D4B09BA0491196800231F
:105910000422CDE9013300924E69006805AB04A969
:10592000B0470028ECD1059B00201BBA2360E8E7B4
:105930000B0C8DF811304BBA8268ADF812301F4B4A
:10594000090E1B680192042261F07F0100921E6A19
:105950008DF8101005AB04A90068B047E1E70B0C07
:105960008DF811304BBAADF812300B0E63F07F0397
:105970008DF81030114BB1F5405F1B6800681E6A4E
:10598000AB6801930DD202230422009304A905AB56
:10599000B047BDF814305BBA2380003818BF01202F
:1059A000AFE7042205AB009204A9B047059B1BBAE0
:1059B0002360F2E7224628F0F6F9EEE7F80100202E
:1059C00030B50379044685B0032B45D8DFE803F0F2
:1059D00002152540214B12BA03921A680023009346
:1059E0009569082209BA029120680DEB0201A847C7
:1059F000003818BF012005B030BD12BA174B039212
:105A0000A2681B6801920422009209BA20685D6AAC
:105A1000029103AB02A9A847EAE70BBA02930F4B26
:105A2000B1F5405F1B6820685D6AA36809D252BA6D
:105A300001930223ADF80C200422009303AB02A9CA
:105A4000E9E712BA039204220193009203ABF6E74E
:105A5000204628F0C6F9CBE70120CCE7F80100206A
:105A6000F0B50C4601790546022987B00ED81948D1
:105A700024BAE1B10168A8680594CDE90030134665
:105A80004C6A0422286805A9A0471BE003291ED1FF
:105A9000012023F003031E19171BB44212D0214624
:105AA00028463A5D28F09DF960B90434F5E70068AE
:105AB000CDE90111009305941346C46904222868B6
:105AC00005A9A047003818BF012007B0F0BD01208C
:105AD000FBE700BFF80100202DE9F84F06460D4610
