:020000040000FA
:10000000A8D200205965000025380200456500008F
:100010004565000045650000456500004565000038
:100020000000000000000000000000000167000068
:1000300045650000000000005D66000045650000A9
:100040002169000021690000216900002169000088
:100050002169000021690000216900002169000078
:100060002169000021690000216900002169000068
:100070002169000021690000216900002169000058
:100080002169000021690000216900002169000048
:100090002169000021690000216900002169000038
:1000A0002169000021690000216900002169000028
:1000B0002169000021690000216900002169000018
:1000C0002169000021690000216900002169000008
:1000D00021690000216900002169000021690000F8
:1000E00021690000216900002169000021690000E8
:1000F00021690000216900002169000021690000D8
:1001000021690000216900002169000021690000C7
:1001100021690000216900002169000021690000B7
:1001200021690000216900002169000021690000A7
:100130002169000021690000216900002169000097
:100140002169000021690000216900002169000087
:100150002169000053B94AB9002908BF00281CBF13
:100160004FF0FF314FF0FF3000F00CB8ADF1080C4C
:100170006DE904CE00F035F8DDF804E0DDE9022396
:1001800004B07047704700BF10F8012B11F8013B15
:10019000012A28BF9A42F7D0D01A7047034611F8B7
:1001A000012B03F8012B002AF9D17047034613F8FD
:1001B000012B002AFBD1181A01387047430803F0BD
:1001C0005533C01A00F03333800800F03330184440
:1001D0004FF0013300EB101000F00F305843000EC9
:1001E00070472DE9F04786468C460846089E15461E
:1001F00074461946002B40F0C1808542B2FA82F263
:1002000045D94AB1C2F1200300FA02FC954094405E
:100210002EFA03F343EA0C0C4FEA154EA8B2230C56
:10022000BCFBFEF80EFB18CC08FB00F943EA0C43BC
:10023000994528D9EB1808F1FF3704D2994502D91E
:10024000A8F102072B44A3EB0903A4B2B3FBFEFC05
:100250000EFB1C330CFB00F044EA0344A04214D90B
:100260002C190CF1FF3304D2A04202D9ACF10203E5
:100270002C44241A43EA07401EB1D44000233460C2
:100280007360BDE8F0874746DDE76346F1E792BB60
:10029000431B01214FEA154EAFB2200CB3FBFEFC0D
:1002A0000EFB1C330CFB07F840EA0343984561D969
:1002B000EB180CF1FF3004D2984502D9ACF10200E2
:1002C0002B44A3EB0803A4B2B3FBFEFC0EFB1C33D0
:1002D0000CFB07F744EA0344A7424DD92C190CF153
:1002E000FF3304D2A74202D9ACF102032C44E41B31
:1002F00043EA0040C0E7C2F120039540944020FA51
:1003000003F12EFA03F34FEA154E9040AFB20343C8
:10031000B1FBFEFC0EFB1C10190C0CFB07F841EAAC
:100320000041884522D969180CF1FF3004D2884574
:1003300002D9ACF102002944A1EB08019BB2B1FB48
:10034000FEFC0EFB1C110CFB07F743EA01439F4226
:100350000ED9EB180CF1FF3104D29F4202D9ACF157
:1003600002012B44DB1B41EA004193E76046E3E7CF
:100370006146F7E76046A4E76346B8E7834206D9DB
:1003800016B9002108467CE7C6E900E0F9E7B3FAB0
:1003900083F78FB9834201D3724508D8BEEB0204BC
:1003A00060EB030301209C461EB9002169E7384633
:1003B000FAE7C6E9004CF8E7C7F1200CBB400EFA9B
:1003C00007F522FA0CF42EFA0CF1BA401C4320FA7D
:1003D0000CF3B8404FEA144901431FFA84FEB3FB03
:1003E000F9F809FB18300B0C08FB0EFA43EA00433E
:1003F0009A4540D9E31808F1FF3004D29A4502D952
:10040000A8F102002344A3EB0A0389B2B3FBF9F875
:1004100009FB183308FB0EFE41EA03418E452CD937
:10042000611808F1FF3304D28E4502D9A8F1020306
:10043000214443EA0040A1EB0E01A0FB0298414594
:10044000CE46434602D306D14D4504D20138B9EB1E
:10045000020E68EB0403002EA7D0B5EB0E0261EB91
:10046000030101FA0CFC22FA07F3F9404CEA0303FA
:10047000C6E9003199E74046C5E74346D9E70000A1
:100480000023064A52F8041B096829B90133DBB27C
:10049000052BF7D10120704700207047E839002074
:1004A000014821F0D6B900BFAC0900200146A022C6
:1004B00070B50446124825F0B1FC124821F0C9F984
:1004C000114A1368591C1160C822B3FBF2F002FBF9
:1004D0001033A3B91A46A51E0E3435F9020F0028B1
:1004E000B8BF404286B2B342B8BF3346A54212FA03
:1004F00080F2F2D1BDE87040044822F020BA70BD0D
:100500006869002004090020E4390020646E0300BB
:1005100001481CF059B800BF603A00201FB501AB7C
:1005200007CA83E80700064821F095F9024618B982
:100530001846044906F098FF05B05DF804FB00BFBB
:10054000803A0020BD0D000073B52E4D2B78FF2B97
:1005500050D12D4B2D481B7821F07DF910B1002092
:1005600002B070BD2A4821F076F90028F7D0012B9F
:1005700038BF0123013B13F0FF03F0D0254821F0E1
:100580006AF90124C0B29C40042804F1FF3413D15D
:10059000214821F060F984430ED1204A1368591C88
:1005A0001160C822B3FBF2F102FB1133002BD6D14C
:1005B0001B4822F0C4F9D2E72046FFF7FFFD0646AC
:1005C00004210DEB010006F057FE019B0021B3FB57
:1005D000F6F206FB123224FA01F3DB070DD55AB905
:1005E000C9B24B1C2B7002310C4B0E48C9B21A60B9
:1005F00022F0A5F90120B3E7013A01311E29EAD121
:10060000ADE700BF8607002088070020F4490020DE
:10061000F0490020903A00208C3A0020943A0020C3
:10062000956E0300CD6E030070B50C6892B0237810
:10063000064607AD032B2ED8DFE803F00227292B4F
:1006400018492846FFF7AAFDA379059562781E216F
:100650000492A2780AA80392E27802922279019287
:1006600062790092104A1FF0BDFF304609F092F8FF
:100670000AAA01460D4822F062F901220C4B0D48EE
:100680001A7021F0E6F812B070BD0B49D9E70B499A
:10069000D7E70B49D5E70A2128460A4A1FF0A2FFEF
:1006A000D2E700BFF66E0300186F03003B6F030034
:1006B000F46B0020C4090020FD6E0300046F0300EA
:1006C0000E6F0300D7A20300F7B50546194821F0C5
:1006D000C2F884B2A5420F46064609D81648002142
:1006E00021F0D4F8154803B0BDE8F04021F0CEB8B1
:1006F0002C1BA4B2042C02D121460F48F3E70021A1
:100700000D4821F0C3F80D4821F0C0F801220C4B30
:10071000D3E8EF1F002903D1C3E8E02F0028F7D169
:1007200006D12A46394607480094B3B222F007F9A9
:1007300003B0F0BD70010020903A00208C3A0020F8
:10074000883A00206B6F0300F7B54B790F4F052BEC
:1007500028BF0523888A3B700D4D0B690D4E0C4652
:100760000D492B603080FFF7AFFF0C4B1B683BB986
:100770003B780B48009333882A68617922F0DFF8D0
:10078000084803B0BDE8F04021F063B888070020B6
:100790007401002066690020A16F0300703A0020F8
:1007A000A96F03009409002070B505460A460C465F
:1007B0000146114822F0C3F80021104821F066F8E4
:1007C0000F4B104E1B7856F82330AB4202D10E4827
:1007D00021F05CF83368AB4202D10C4825F034FAC2
:1007E0003E2C01D0442C04D10948BDE8704021F0D2
:1007F00030B80848F9E700BFEB6F0300EC46002073
:1008000087070020E8390020743A0020280E0020D5
:10081000340900204C0900202DE9F043474FDFF850
:100820005081474E89B038684FF4A472002369465E
:100830001BF078FB48B100220023404621F010F85D
:10084000F1E70420002125F01FF9304621F003F8DC
:100850000028F6D13B4820F0FEFF48B13A4B3B4917
:100860001B783B4AFF2B0DD1012355680B700CE020
:10087000384820F0F0FF0028F0D0FFF765FE002890
:10088000ECD1D0E752F823500B70002DCBD0BDF83F
:1008900000301BB9304822F052F8C4E70022002390
:1008A0002E4823F045F8044698B92D4820F0D3FF90
:1008B0000028B8D02B4A1368591C11603222B3FBB0
:1008C000F2F002FB1033002BADD1274822F037F8AD
:1008D000A9E71C4820F0BFFF38B91E4820F0BBFF35
:1008E00018B9204606F058FB9DE704F10C0948466C
:1008F0000D2123F056F8BDF80020484602A9DFF884
:10090000749023F05FF80121304620F0BFFFB9F862
:1009100000202146284623F082FA021E04DA2946E6
:10092000124822F00CF8DCE701210D4820F0AEFF60
:10093000B9F800300B44A9F8003074E7F046002005
:10094000E8460020F44900208607002087070020A1
:10095000E8390020F04900201B7003000C0A002039
:10096000743A0020E0390020367003005F70030005
:10097000DC090020646900202DE9F0414FF47A750C
:1009800025F00FF92F46A0FB050605FB0166C30BFA
:1009900043EA464313F5FA644FEAD636DFF8388067
:1009A00046F10006FFF76CFD08B1BDE8F08125F0C7
:1009B000F8F8A0FB070305FB0131C30B43EA4143F1
:1009C000A3424FEAD131B141EFDA40F6CD420023E4
:1009D000404620F045FFE5E74C09002013B50146ED
:1009E00004460F4821F0ABFF0E4BD3E8EF1F013157
:1009F000C3E8E21F002AF8D10B4820F02AFF0B4B76
:100A00001B68A34209D1002200230948CDE9002335
:100A10004FF4804200231CF0DFFC02B010BD00BF89
:100A200082700300783A002034090020E839002061
:100A3000280E00202DE9F04F0026DFF814A2C1B0E7
:100A40004FF0FF324FF0FF3310A974481BF06AFAE1
:100A5000734820F000FF01210446504620F002FFB9
:100A6000BDF84020002A71D0A3B29A4228BF1A468E
:100A700012A901236B4818AF019300970023006867
:100A80000FF07AFD002808DA674A0021136838461B
:100A900001331360A02225F0E8F95046002120F030
:100AA000E1FEBDF84020A0B2031D9A422ED100F114
:100AB000080310AA00F580710DEB010013445A7869
:100AC00010F8B84C5B8844EA022444EA0344214607
:100AD000564820F0DBFE564A1368591C1160642208
:100AE000B3FBF2F102FB113383B908A8014624FAE3
:100AF00003F202F00102013330321E2B00F8012B09
:100B0000F5D14C488DF83E6021F019FFDFF844B173
:100B1000494D2988BBF8003089B22C889BB2994294
:100B200037BFA4B2BBF80030BBF800300A34E41A77
:100B3000A4B22046C4F10904A4B201F0FBFE042CC7
:100B40000AD83E4A13680133136079E73C490B68C1
:100B500001330B6011468CE700200A24394AB9465C
:100B60002B889BB202EB8311A1F104083C3139F8C8
:100B700002EB0EEB0E4E48F804EF4145F7D101337E
:100B8000B3FBF4F104FB113310309BB250282B80DF
:100B900007F12007E3D12C490B6803F10109C1F8E3
:100BA0000090C821B3FBF1F001FB1033002B7FF460
:100BB00047AFB5F800C0DFF88880BBF80000D8F870
:100BC0000030194F1D4C1FFA8CFC80B284450593F0
:100BD00021683B6818D32D88BBF80020ADB292B2D3
:100BE000AD1ACDE9063101F065FBDDE90523079972
:100BF000CDE9015000911548494621F0A0FEC8F802
:100C000000603E6026601BE7BBF800202D8892B292
:100C1000C2F10A0212FA85F5E3E700BF740800206A
:100C200070010020E4460020CC3900208C3A0020DE
:100C3000C83900209C7003000A6A0020C4390020D3
:100C4000D0390020F4460020C0390020BF700300D6
:100C5000006E0200086A002010B5044601210A480F
:100C600020F000FE094B1A78094B53F82230A342BA
:100C700003D10021074820F009FEBDE81040002103
:100C8000014820F0EFBD00BF106E02008707002072
:100C9000E8390020E846002008B50B4821F04FFE57
:100CA0000A4824F0D1FF0A48002120F0EFFD094B4B
:100CB000186840B109F096FE014620B1BDE8084031
:100CC000054821F03CBE08BDF8700300280E002046
:100CD000EC460020703A0020287103000D4A13787A
:100CE000B3B94389A3B10121117001790A4A117086
:100CF00040F2E2425343094A13600268084B11680C
:100D0000084819609188998092799A7120F0A1BD64
:100D1000704700BFF56B0020EC6B0020843A002088
:100D2000ED6B00207C09002030B51F4B0D461B6881
:100D3000144683428BB035D101211C4820F092FD2E
:100D40002022002102A825F090F8AB791A0744BFB1
:100D50002A680392CCB1258A182D16D8DB0714D542
:100D60002A46E16804A8ADF8085025F057F828464F
:100D70000F49FFF7A9FC002200230E48CDE900230C
:100D80004FF4804200231CF027FB002202A900231D
:100D900009481BF067F8002104480BB0BDE830405B
:100DA00020F060BD0BB030BDE8390020086E0200B5
:100DB00049710300280E0020740800202DE9F04F2F
:100DC0008FB0002800F0F3800378162B40F0EF80FE
:100DD0004278052A40F2EB8041680BA822F0DBFD47
:100DE0000BA822F029FE41F65103984240F0DF8023
:100DF000BDF83030032B0FD80122714BD3E8EF1F21
:100E0000002903D1C3E8E02F0028F7D100F0D180FA
:100E100000200FB0BDE8F08F0BA822F015FE0446AD
:100E20000BA822F001FE05460028E5D00246214627
:100E3000644821F084FD4FF00008BDF83030072BE6
:100E4000DAD90BA822F0F0FD07460028D4D00BA871
:100E500022F0EAFD07900BA822F0EEFD08900BA807
:100E600022F0EAFDBDF830300990002BC4D00BA869
:100E700022F0DAFDBDF8303004468342BCD301468F
:100E80000BA8DDF82CB022F0C7FDBDF83030002BE8
:100E9000B2D00BA822F0C8FDBDF830300646834220
:100EA000AAD301460BA822F0B7FD00239C4256D8D6
:100EB0004FF0000AD146BDF8301001299CD90BA88B
:100EC00022F0B2FD83460BA822F0AEFD0146BDF82C
:100ED0003000884290D30BF1FF3B0BA822F09CFD21
:100EE0005FFA8BF11F2998BF01230AF1010A98BF0D
:100EF00003FA0BFB5FFA8AF198BF49EA0B098F42AC
:100F0000D9D8079BFF2B4ED14DF6AD63089A9A4274
:100F10004BD14BF6EF602C4B2C49099A824208BF0B
:100F20000B46099A08F101080192089A414600927D
:100F3000CDE90479CDE90246079A254821F0FFFC66
:100F40005FFA88F39D423FF678AFBDF83030002B52
:100F50007FF452AF01211F4820F098FC58E71BF89E
:100F60000320591C002AA3D050188442A0D31BF898
:100F70000110013A042903F10203D2B211D1022A6D
:100F80000FD13BF803104B1E172B91D8124820F0BD
:100F90007DFC124B188800288AD01149FFF794FB7A
:100FA00086E7134482E70F4BBBE7074BB9E7012005
:100FB0002FE76FF015010C4821F0C1FC28E700BFB6
:100FC0007C3A00207C7103006971030052710300B8
:100FD000AE710300803A0020700100206669002095
:100FE000A16F0300CDAE03002B7203002DE9F04387
:100FF0005A4B5B4E1D8E5B4FDFF8A481B9B02022A7
:1010000000210DEB020024F030FF4FF0FF324FF0D3
:10101000FF33304620F024FC384620F01CFC00282A
:10102000EDD0A022414610A824F0F8FE4E4820F052
:1010300012FC18B1502110A801F086FD00221346C1
:1010400010A931F9020B0132082A0344F9D14748AB
:101050000268511C01606420B2FBF0F400FB142212
:1010600032B9434820F0F7FB0246424821F067FCC2
:10107000414820F0F0FBD8B13F4820F0ECFBE8B14C
:1010800001213E4802AC20F0EDFBCDE900543C4884
:1010900000210123006810AA0FF002F8011E17DAE0
:1010A000384821F04CFC0021344820F0DBFBA6E757
:1010B0002F4820F0D0FB0028DED1A0E72C4820F0FC
:1010C000CAFB0028DCD0FFF73FFA0028D8D196E70A
:1010D00021462A460AA824F0A1FE2B4820F0BBFB9B
:1010E00010F0FF0407D005F1080008AB22460021EC
:1010F000184424F0BAFE254B2C441868ADF8204063
:101100000022002308A91AF0ADFE68B10A22204B84
:10111000196801311960B1FBF2F302FB1313012BC3
:1011200002D11C4821F00BFC0021144820F09AFB4E
:10113000194A1468611C1160C822B4FBF2F002FB6A
:101140001044002C7FF45BAFDFF844901348D9F8CB
:10115000002021F0F4FBC9F8004050E7780100209E
:1011600004090020EC460020C8490020DC3900209A
:10117000F049002042720300F4490020F86D02009B
:10118000983A00206C720300903A0020F04600204C
:10119000D839002088720300D4390020AE720300D1
:1011A00068690020FF22034B1A700022024B1A606C
:1011B000704700BF86070020943A002041F2883330
:1011C0002DE9F04FA84E99B07363142333860123A1
:1011D000A64886F82E3021F0B2FBA54821F0AFFBDF
:1011E0000221A44821F0ABFB00F094FE054668B153
:1011F0000146A14821F0A3FBA04800F02DFD0446C4
:1012000038B101469E4821F09AFB4BE000F0AAFE5F
:10121000F2E703211E220846984B01F047FC0146E5
:1012200010B1984821F08BFB00F0AEFE00229649E9
:10123000964824F0FDFC9649964824F004FB0022D1
:10124000954B9649964C97480532192AC3E90140B7
:1012500041F8043B03F11403F6D19349934801F09C
:1012600061F8044610B101469148CCE701F092F8CC
:10127000044610B101468F48C5E701F037FB01F085
:101280007BFB8D4B224618604FF47A518B4B706B71
:101290000EF0ECFF8A4B186040B98A4821F04FFBF2
:1012A0006FF00404204619B0BDE8F08F864B22464B
:1012B0004FF47A51706B0EF07FFD844B186008B9C3
:1012C0008348EBE74FF000084FF0000901234FF48B
:1012D000C052CDE90243CDE90689CDE900447D4BFA
:1012E0007D4904947D481BF097FA7D497B481BF0AB
:1012F0001DFA02274FF48052CDE90689CDE9024755
:10130000CDE90044774B7849049478481BF084FA7F
:10131000774976481BF00AFA4FF48062CDE90689D6
:10132000CDE90374CDE90144724B734900947348CD
:101330001BF072FA724971481BF0F8F9204607F069
:10134000C5F8044610B101466E485CE76E4808F0E7
:1013500009FA6E4808F048FB08946D4820F07EFAC0
:101360006C4820F07BFA6C4820F078FA6B4820F04B
:1013700075FA6B4820F072FA6A4820F06FFA002183
:10138000694820F083FA694820F080FA14216848FF
:1013900020F07CFA0021674820F078FA664820F0B7
:1013A00075FA664820F072FA654B089A1A80654B08
:1013B0001A7015B9284600F0D5FD634821F0BFFA30
:1013C000624A0CAB1068516803C390680021186032
:1013D0000CA808F05BF9044610B101465C4812E71E
:1013E0005C4B18705C4821F0AAFA4FF0FF324FF0C6
:1013F000FF33474820F034FA044610B101465748FD
:1014000001E7574821F09BFA08F090F9044610B123
:1014100001465448F7E6544B119418689A889B7912
:101420000F908DF84230514B51481B78ADF8402059
:101430008DF843304F4BADF848401F6806235F439B
:1014400042F21073B7FBF3F3ADF84A3021F077FAAC
:101450000BA90FA808F0F2F90446002800F08E80CE
:1014600001464548CFE600BF78010020C87203005E
:10147000E2720300017303002D730300DC090020F6
:10148000427303005B73030011050000280E002067
:10149000990C0000603A0020FC390020E839002057
:1014A0003001002068010020AD040000B0010020E0
:1014B0007073030087730300F04600209C3A0020FD
:1014C000E44600209F730300600E0020983A00203D
:1014D000C3730300350A0000A8830020300D0020EC
:1014E000E7730300ED0F0000A8730020380C002004
:1014F000F373030019080000A86F0020400B0020C0
:10150000FF7303000674030024010020080100207B
:101510007C090020AC090020C409002094090020A7
:10152000340900204C090020803A00207C3A002039
:1015300070010020903A00208C3A0020883A002068
:1015400066690020F46B002026740300B069020075
:1015500039740300F56B0020567403007B7403009C
:1015600093740300B0740300ED6B0020EC6B00205B
:10157000CC740300843A0020F3740300B94821F0CE
:10158000DEF9B9494FF400408C462146E7FB00C123
:101590000023B64A6046FEF7DDFD074602460B46CD
:1015A000B3480C4620F05CF930B1B24821F0C7F9DD
:1015B0000B9808F0FBF8D0E6AF4821F0C0F92346BD
:1015C0003A46AE4820F04CF9044640B1AC4821F010
:1015D000B6F9AC4B1B78002B7FF4BFAEE8E7AA4B03
:1015E0002246186814234FF47A513386A74B706350
:1015F0000EF03CFEA64B186030BBA64821F09FF9C8
:10160000A54821F09CF900220023A44820F028F9E5
:10161000B0B1A34821F093F9984820F01FF94FF496
:1016200020320023954820F01BF9C8B19D4821F0D5
:1016300086F94FF0FF324FF0FF33984820F010F951
:10164000994821F07CF988E6984B22464FF47A516C
:10165000706B0EF0B1FB964B186008B99548CDE75A
:10166000FEF70EFF60B9944821F069F94FF480301D
:101670000021FFF781F9FEF703FF08B98F48BDE7A6
:1016800001228F4F8F4C39788F488A40013AA260EF
:10169000217121F054F900218C4820F0F7F82146FF
:1016A0008B4A0B9809F032FB0446002800F09B801F
:1016B0000146884821F043F914F1780F7FF4F2AD28
:1016C0004FF480300021FFF757F999E74846099118
:1016D00021F035F94FF4A0220023504620F0C0F845
:1016E00008F10108002863D15846099921F027F92B
:1016F0003B785FFA88F18B42E8D8744820F0ABF869
:10170000984256DB744821F01AF90021734820F002
:10171000BDF80C46DFF8AC91DFF800B299F8042070
:101720005FFA84FA524566D8002401F017F96C4B31
:1017300021466C481C8020F0A9F86B4823F0FEFE7F
:101740006A4B186823F0FAFE694B21461C80694BEE
:101750004FF4207268481C8024F087FB00F0B0FD35
:10176000664C00220023204620F07AF80028F8D0AA
:1017700001215A4820F08AF815B9084600F0F2FB1A
:101780000027DFF83C81DFF89891DFF898A198F8FE
:1017900000305FFA87FB5B4500F2D080584821F0AB
:1017A000CEF8002D7FF42CAF284600F0DBFB27E7B6
:1017B0000446464820F04FF8214602463B785148FF
:1017C00021F0BDF8424B186809F00CF900F116023F
:1017D000162A044604D84C4B1341DB077FF570AF43
:1017E00021464A480FE58046DFF83C91DFF83CA1EE
:1017F000DFF83CB17CE7464B14220021BAFA8AF8A4
:1018000013A853F82A7024F030FB032251464148B4
:101810004FEA58188DF84D2021F091F813AA41464F
:10182000384608F08BFB10F10D0F024611D15146DE
:10183000584621F084F80121384608F0B3FC002115
:10184000384608F0AFFC13AA4146384608F076FB4C
:10185000024651460134002A6CD02F4821F06FF81F
:10186000B0E700BF197503003F420F0040420F0070
:10187000AC090020377503004E7503009409002061
:1018800067750300F46B0020740100209C3A00206F
:10189000E44600207975030005780300C4090020A0
:1018A00029780300477803007B780300600E00204E
:1018B000983A00209A750300BB750300E875030091
:1018C00088070020440100202A760300783A00208F
:1018D000703A00205A760300E0760300EC460020C0
:1018E00064690020743A002074080020F04600204B
:1018F0000A6A0020086A0020F4460020040900203B
:10190000F5770300B5760300FEFFBDFF28710300E5
:10191000E8390020F77603005277030015770300BB
:10192000997703004C0900207676030034090020E3
:10193000977603000C4821F002F8EFE65946484636
:1019400020F0FDFF4FF0FF324FF0FF3350461FF005
:1019500087FF0137044610B10146044853E4594655
:10196000034820F0ECFF12E781770300BF77030004
:10197000DD77030001481AF027BE00BF744900203C
:1019800008B5002104481FF0E1FF20B1BDE8084080
:1019900040B220F017B808BD90490020062110B5CC
:1019A0000F481FF0BCFF00280BDD00210D481FF081
:1019B000CDFFBDE8104046F2676200230A481AF0E6
:1019C000AFBE094823F099FF40B906481FF0BBFF9E
:1019D00020B9BDE8104005481AF0F6BD10BD00BFA3
:1019E00098630200CC49002088180020D0490020CC
:1019F00008B5084820F0A3FF074BD3E8EF1F0339D1
:101A0000C3E8E21F002AF8D1BDE8084003481AF0F5
:101A1000DBBD00BF9078030090490020944900206E
:101A2000014603488368DB690BB101221847704700
:101A30009863020010B514481FF085FF044658B1A2
:101A4000002111481FF082FF10481FF087FF00207F
:101A5000BDE8104000F050BC01210B481FF076FF9C
:101A60000A481FF07BFF214609481FF06FFF094815
:101A70001FF069FF28B107481FF068FF06481FF0F4
:101A80006DFF0120E4E700BFF4490020B86D0200BB
:101A9000F0490020E0490020E86D020010B5012166
:101AA00015481FF053FF15481FF04DFF044620B1A5
:101AB0001348BDE8104020F042BF12481FF043FF1A
:101AC00070B121460F481FF041FF0F481FF046FF3D
:101AD0000E4821461FF042FF01F056F80C48E8E797
:101AE00008481FF033FF08481FF038FF074801215E
:101AF0001FF034FF0748DCE7CC490020E049002014
:101B00009C780300C8490020E06D0200E86D0200E7
:101B1000C3780300D778030010B51A481FF013FFED
:101B200078BB19481FF00FFF044620B11748BDE8E5
:101B3000104020F004BF16481FF005FF70B1214689
:101B400013481FF003FF13481FF008FF21461248F7
:101B50001FF0FCFEFFF726FB1048E8E701210C48C8
:101B60001FF0F4FE0B481FF0F9FE01210A481FF098
:101B7000EDFE00F0F3FE0A4B18681AF031FB09483D
:101B8000D5E710BDF4490020C8490020EA780300D9
:101B9000E0490020E86D0200F04900200D790300C3
:101BA000F84900202279030008B5084820F0C7FE54
:101BB000074BD3E8EF1F0331C3E8E21F002AF8D137
:101BC000BDE8084003481AF0FFBC00BF36790300A7
:101BD000904900209449002010B517481FF0B3FE2B
:101BE00040BB16481FF0AFFE20BB15481FF0ABFEF0
:101BF0000446F8B9042113481FF091FE00280EDDB9
:101C0000012111481FF0A2FE00F0A8FE0F4820F0AD
:101C100096FE0F4B1868BDE810401AF0E1BA214655
:101C200009481FF093FEFFF7BDFABDE810400948D0
:101C300020F085BE10BD00BFF4490020E04900201F
:101C4000C849002098630200F04900204079030051
:101C5000F84900204F790300794B10B51860794896
:101C60001FF090FE28B9784820F069FE6FF012044A
:101C70000AE04FF4803175481FF032FE044628B167
:101C80000146734820F05BFE204610BD4FF0E8612E
:101C90006E481FF002FE044610B101466D48F1E7A0
:101CA0006D486E4B436010238360FFF7B9FE6C48AC
:101CB00020F045FE6B496C4823F0C5FD6B486C492C
:101CC00023F00FFE5F481FF05DFE08B96948CBE7BF
:101CD0005C481FF057FE0028F8D04FF4803166486A
:101CE0001FF0FEFD044610B101466448CAE74FF4F8
:101CF000B01163481FF0F4FD044610B1014661487D
:101D0000C0E750481FF03EFE08B95F48ACE74FF40B
:101D1000B0115E481FF0E4FD044610B101465C4876
:101D2000B0E74FF0E86154481FF0B7FD044610B12A
:101D300001465848A6E75848584B43604023836003
:101D4000FFF76EFE564820F0FAFD5648564923F03C
:101D50007AFD3C481FF016FE08B9544884E739481C
:101D60001FF010FE0028F8D04FF4803150481FF0CB
:101D7000B7FD0446002887D14FF480314D481FF04D
:101D8000AFFD044600287FF47FAF4FF0B8614848AC
:101D90001FF083FD044600287FF476AF4FF0B86152
:101DA00044481FF07AFD044600287FF46DAF424896
:101DB000424B434C436004238360424B63600823DF
:101DC000A360FFF72DFE2046FFF72AFE03213E48C1
:101DD00020F0B5FD3D483E4923F035FD19481FF080
:101DE000D1FD08B93B483FE716481FF0CBFD00285E
:101DF000F8D04FF4803138481FF072FD04460028B7
:101E00007FF442AF4FF4B01134481FF069FD04462F
:101E100000287FF439AF4FF0B8612F481FF03DFD27
:101E2000044600287FF430AF2D482E4B436020231A
:101E30008360FFF7F5FD2C4820F081FD24E700BF0B
:101E4000F8490020986302005F790300D86D020012
:101E50007A7903009B790300BC490020D91B00005C
:101E6000BF790300191B0000D0490020881800200A
:101E70009D1A0000EA790300F06D0200037A030066
:101E8000E86D0200297A03004C7A0300E06D02003D
:101E9000687A03008A7A0300E44900209D19000053
:101EA000B37A03009449002081190000D67A030018
:101EB000D06D0200C86D0200B0490020F119000089
:101EC000A4490020A91B0000F47A030074490020F3
:101ED000351A00001A7B0300C06D0200B86D0200C5
:101EE0008449002075190000357B0300084B1A69EE
:101EF0001268520148BF80F0010028B19B68DB687E
:101F00004FF08061024818479B681B69F8E700BFE3
:101F10009863020038B5114D2B78C3B9104C204698
:101F200023F041FAB0B12269A1681368204623F07A
:101F3000806313600B684FF4C0221A219847034650
:101F400030B9FFF7D3FF034610B901232B700023EC
:101F5000184638BD6FF01203FAE700BFF66B002099
:101F60009863020010B5074B04461B7823B1204646
:101F7000BDE81040FFF7BABFFFF7CCFF0028F6D04E
:101F800010BD00BFF66B002010B5214823F00BFAFE
:101F900030B9204820F0D3FC6FF01204204610BD69
:101FA0001D481FF0F1FC044620B101461B4820F0FB
:101FB000C6FCF3E7164823F0F6F908B91848E9E734
:101FC00018481FF0E1FC044610B101461648EEE740
:101FD0000F4823F0E8F908B91448DBE714481FF06C
:101FE000D3FC044610B101461248E0E7124823F042
:101FF000DAF908B91148CDE711481FF0C5FC0446CD
:1020000010B101460F48D2E70F4820F098FCC5E711
:1020100078630200657B0300086E0200847B030086
:10202000AE7B0300006E0200CF7B0300FB7B03004E
:10203000F86D02001C7C030098630200487C0300DA
:10204000106E0200677C0300917C03002DE9F047CD
:10205000854F06463B78002B4BD0002849D04FF0E7
:1020600000094C46814D824B2A78011F03EB421830
:102070003C3051F8042F1314002BB8BF5B429BB2C5
:1020800012B29C42B8BF1C46002AB8BF524292B25C
:102090009145B8BF91468842EBD1DFF810A2DAF83B
:1020A0000030002B0FDA402C02DCB9F1400F0ADDC2
:1020B0004C45ACBF002101214B4622466D48CAF871
:1020C000001020F03CFCDAF80030002B70DBDCB2B2
:1020D000002356F82320002C6FD1121428F8132067
:1020E0000133102BF5D12B780133DBB2042B66D8EA
:1020F0002B70614A614813786149DFF8B491002B75
:102100000CBF8046884683F001031370D9F8003075
:10211000002B00F08C809A6814885A68A4B2B2F838
:1021200000A09A891FFA8AFA564B544519784FD85D
:10213000AAEB0405ADB2002950D0544577D0DFF8A2
:1021400064A1DAF8001049B1D9F800302A469B8919
:102150004D4820F0F4FB0023CAF80030C446D9F8FB
:1021600000504FEA841E2B6803EB841303F14009EF
:10217000624618685968083303C24B459446F7D144
:10218000286840220021704423F06FFEAB8901349F
:10219000B4FBF3F103FB1144AA68A4B23B4B1480D7
:1021A000D3E8EF1F0131C3E8E21F002A1DD0F7E793
:1021B0004C45ACBF002401248AE712B28EE700230D
:1021C0002B70334B1B68002B93D02948984790E71E
:1021D0000AEB02052D1BADB20029B0D1042D1FD88A
:1021E00040220021404623F040FE3B784146002B30
:1021F00014BF3046002000F0C9F9014688B3254BD2
:102200001A680132052A1A6005D93220B2FBF0F3B0
:1022100000FB13232BBBBDE8F0471F4820F08FBB0A
:1022200001211E481970294620F089FB85E74022CC
:102230000021404623F019FE194BD3E8EF1F01316E
:10224000C3E8E21F002AF8D1164B17481A6801327A
:102250001A60D0E8AF2F19689142C6D91FF0AAFBC7
:10226000C3E7BDE8F08700BFFA6B0020F96B0020E0
:102270000C6A0020DE7C0300F76B0020504A00202F
:10228000104A0020F86B0020387D0300084A002027
:10229000144B0020FC490020687D0300147D0300DE
:1022A0000C4A0020044A0020004A0020C0010020FF
:1022B000104B0020002101481FF07CBB0C4A00207D
:1022C000002108B5074B08481970084B19601FF02A
:1022D00071FB07481FF06EFBBDE8084005481FF082
:1022E00069BB00BFF86B00200C4A0020044A0020A4
:1022F000084A0020004A00204FF0FF3307B501A92B
:10230000019301F0C3F938B9019B5A1C032A28BF75
:102310004FF0FF33024A136003B05DF804FB00BFC7
:10232000C001002037B502466C460B46134903C96D
:1023300084E803001046F2B1EBB1114D2A7812B1D6
:10234000002003B030BD0F4A10600F4A20461360D2
:1023500001F0F4F80028F4D19DF800200B4B1A701E
:10236000019B5A1C032A28BF4FF0FF33084A136011
:1023700001232B70E4E76FF01500E2E7D06802005C
:10238000FC6B0020104B0020144B0020FA6B002047
:10239000C001002070B52C4B1B78002B50D02B4E69
:1023A0003378002B4AD12A4800F07AF800F07EF802
:1023B000044628B10146274820F0C1FA204670BDE6
:1023C000014640222448254D23F04FFD214640225E
:1023D000234823F04AFDFFF773FF2B782148002B99
:1023E00008BF00201C4900F0ABF8044610B10146BC
:1023F0001D48E1E72B781D48002B08BF0020184935
:1024000000F0C4F8044610B101461948D4E701F0C1
:10241000FDF8044630B10146164820F090FA00F06D
:10242000D7F8CBE7144B2978144A154800290CBF7C
:102430001146194620F083FA012333700024BDE7CA
:102440004FF0FF34BAE700BFFC6B0020FB6B0020AD
:102450004D200000A37D0300504A0020FA6B0020AD
:10246000104A0020D04A0020BE7D0300904A002080
:10247000DA7D0300FD7D03009D7D0300A07D030048
:102480002C7E0300012908D138B1044A126822B118
:10249000D0E9000100B901B110477047184B002086
:1024A000014B1860704700BF184B002037B51D4D19
:1024B0002B78002B34D14FF0502449F6A633C4F8C2
:1024C0005C350123A361D4F8203153B100211648B3
:1024D00001AA21F045FE002808DA6FF0040003B0DD
:1024E00030BD0021212023F0CFFAECE7019B0F4AF9
:1024F0001979186809F092FF02460028EDD10121F0
:10250000282004F03FF9282004F00CF9084A094972
:1025100009480BF0BBFD094B9842DED101232B701B
:102520000020DCE7FD6B0020186E020000800250E6
:1025300085240000C4010020EC0100200000AD0B48
:102540001FB50F4C2378012B13D100B989B110238B
:10255000CDE9010100220B4801A9ADF80C300BF0C8
:1025600067FE094B984207D102230020237004B074
:1025700010BD6FF01500FAE76FF00400F7E700BF39
:10258000FD6B0020EC0100200000AD0B1FB50D4BD2
:102590001B78022B13D100B989B11023CDE90101B9
:1025A000094801A9ADF80C300BF0B6FE074B984274
:1025B00014BF6FF00400002005B05DF804FB6FF05D
:1025C0001500F9E7FD6B0020EC0100200000AD0BC9
:1025D00010B5054C2378022B04D104480BF0DEFE25
:1025E0000123237010BD00BFFD6B0020EC01002013
:1025F000034648F6D870834206DD4AF2737293426E
:10260000CCBF4AF2747098B2044B1A8882421EBF43
:1026100018804FF05023C3F85C05704784070020F2
:10262000F8B507460446002507F8141B19481FF0A3
:10263000CBF9022965610E467D60E561258415D0E0
:1026400003291ED0012E2946134805D01FF0BCF9DE
:10265000C4E902552582F8BD1FF0B6F9C4E9025558
:1026600025820E48BDE8F84020F069B929460A489D
:102670001FF0AAF961680A482582BDE8F84020F0F9
:102680005EB9012104481FF09FF9064B06481988DE
:102690002582F2E71C4B0020204B00205E7E0300C9
:1026A0006D7E0300840700208B7E03002DE9F0413E
:1026B0008AB02422002101A823F0D7FB49F6A632D4
:1026C0004FF050230292D3F85C357F4E9BB2002B23
:1026D00008BF13467D4FDFF810827D4D33804FF0E9
:1026E000FF324FF0FF33384619F0B4FD0021404669
:1026F0001FF06AF9044648B149F6A633284602930A
:102700001FF062F901A8FFF78BFFE8E7D5E8EF3F7C
:10271000012B03D1C5E8E24F002AF7D1DFD16D4B81
:10272000D3E8AF2F9DF825009DF824100328089BBF
:102730001FD80DF1280C0CEB410C134401302CF880
:10274000102C08938DF82500013101F003018DF85C
:1027500024109DF82510089B012938BF0121B3FBE7
:10276000F1F39DF804100329B9D8DFE801F00E1049
:102770003C760AA800EB410030F810CC20F8102C71
:10278000A3EB0C0313440893DEE70121BAE7039B94
:102790001A44049B03920133132B04939FD992FB99
:1027A000F3F30A22C3F1020353435B1083EAE3729B
:1027B000A2EBE372082AC8BF1C4640F24B12464BFC
:1027C00049F6A630634393FBF2F3182BA8BF1823F6
:1027D0006FF017029342ACBFC01880180290FFF749
:1027E00007FF02218EE70A22C3F1020353435B1065
:1027F00083EAE372A2EBE372082AC8BF1C4640F2E8
:102800004B12354B6FF01700634393FBF2F3182B19
:10281000A8BF1823029A21468342ACBFD0181018D3
:10282000FFF7E6FE32882D4820F089F884EAE47349
:10283000A3EBE4730F2B01DC032163E79DF8153054
:102840000133DBB2092B8DF815307FF648AF2146F6
:10285000234820F074F8002154E70A22C3F1020350
:1028600053435B1083EAE372A2EBE372082AC8BF0A
:102870001C4640F24B12184B6FF01700634393FB5A
:10288000F2F3182BA8BF1823029A8342ACBFD018CA
:102890001018FFF7ADFE84EAE473A3EBE473202B7A
:1028A0000DDD9DF814300133DBB2022B8DF81430AE
:1028B0007FF615AF21460B4820F041F891E7002341
:1028C0008DF814300BE700BF84070020D4080020E7
:1028D000284B0020244B002018FCFFFFA77E03009C
:1028E000CA7E0300F97E0300F401002010B588B011
:1028F00000220023CDE9062300230122094CCDE963
:102900000323CDE9013300934FF480622046064B48
:10291000064919F081FF2046054908B0BDE810407E
:1029200019F004BFB8180020AD260000A89B0020B5
:10293000247F030010B5074C014620461FF044F8E1
:102940000121201D1FF040F8BDE81040024819F099
:1029500047BC00BF244B0020D408002008B501214B
:1029600003481FF031F8BDE80840024819F038BCB0
:10297000F4010020D408002000487047A40800207B
:1029800008B50023094A1370094A1360094A136005
:10299000094AD2E8EF1FC2E8E03F0028F9D1FEF76C
:1029A00001FCBDE8084005481FF0C9BFFF6B0020CF
:1029B000304B00202C4B0020F04900202D7F0300DD
:1029C00038B50A4600EB410504460021A5420DD169
:1029D000B1F5FA7F2C4C13DA2378012B3CD0022B73
:1029E00046D0002B3DD1294B002239E034F9023B7F
:1029F000002BB8BF5B421BB29942B8BF1946E5E74E
:102A00000146234800F0DAF82378012B22D0022B6C
:102A100028D033BB0028E6DD1C491E480A68006840
:102A2000013282420A601CDB01220B601A4B2270C9
:102A3000D3E8EF1FC3E8E02F0028F9D1FFF78EFF9E
:102A4000164B186808B119F0CBFBBDE838401448A4
:102A50001FF075BF002804DC022301222370114BF4
:102A60001A6038BD002803DD012323700D4BBBE73E
:102A70000C4A1368013313600B4A12689342F0DB6F
:102A8000BDE83840FFF77CBFFF6B0020304B0020D3
:102A9000404B0020384B0020F04900203C4B0020E8
:102AA0003C7F03002C4B0020344B00202DE9F341E8
:102AB0001C4C054620460E461746984600F030F955
:102AC00068BBC4F8F002294620461EF085FF28B1F5
:102AD0006FF01504204602B0BDE8F08120464FF4A7
:102AE0007A511EF083FF04460028F1D10E4B324686
:102AF0001E600E4B29461F600D4BC3F800800D4B26
:102B000018700D4B18600D4B18600D4B18704FF47A
:102B1000FA730C4800933B461FF011FFDAE76FF0A1
:102B20000404D7E7404B0020384B0020344B0020F2
:102B30003C4B0020FF6B0020304B00202C4B002032
:102B4000FE6B00204C7F03009F29034670B512D80E
:102B50000B4C0C4D26784A0001FB06F0194605EB9C
:102B6000400023F05BF916B90123237070BD0023E8
:102B7000A02128462370BDE87040FFF721BF00BFA9
:102B8000FE6B0020AC6A002010B5084C2378013B96
:102B9000012B01D8FFF7F4FE0023054A23701360D0
:102BA000044A1360044A137010BD00BFFF6B00207D
:102BB000304B00202C4B0020FE6B002038B508B9AC
:102BC00020F0A2FE0A24D0F8F0520D4B53F8253025
:102BD0005C43A24207D014245C43A24203D01E24CB
:102BE00063439A4209D1074B53F825309847002890
:102BF000E6DB14BF0120002038BD4FF0FF30FBE7BB
:102C0000506E0200406E0200032966D8DFE801F032
:102C10000220374E324B1A689B88C0F8C422A0F8B5
:102C2000C832304B1A689B88C0F8CA22A0F8CE324E
:102C30002D4B1A689B88C0F8D022A0F8D4322B4BB9
:102C40001A689B88C0F8D622A0F8DA3200207047B4
:102C5000274B1A689B88C0F8C422A0F8C832254BBD
:102C60001A689B88C0F8CA22A0F8CE32224B1A6894
:102C70009B88C0F8D022A0F8D432204BE0E7204B4C
:102C80001A689B88C0F8C422A0F8C8321D4B1A6885
:102C90009B88C0F8CA22A0F8CE321B4B1A689B88CA
:102CA000C0F8D022A0F8D432184BC9E7184B1A68E4
:102CB0009B88C0F8C422A0F8C832164B1A689B88BB
:102CC000C0F8CA22A0F8CE32134B1A689B88C0F80D
:102CD000D022A0F8D432114BB2E74FF0FF3070474A
:102CE0008A6D0300846D03007E6D0300786D030020
:102CF000726D03006C6D0300666D0300606D030070
:102D00005A6D0300546D03004E6D0300486D0300BF
:102D1000426D03003C6D0300366D0300306D03000F
:102D200010B5044610B94FF0FF3010BD012300214B
:102D30000360C0E945111022043023F096F804F135
:102D400014001FF0E7F92D4B04F1B40203F1180150
:102D500053F8040B8B4242F8040BF9D1284B04F1D1
:102D6000CC0203F1180153F8040B8B4242F8040B18
:102D7000F9D1244B04F1E40203F1180153F8040BD8
:102D80008B4242F8040BF9D11F4B04F1FC0203F112
:102D9000180153F8040B8B4242F8040BF9D142F2AC
:102DA000107104F5ED7304F29A2223F8021F934286
:102DB000FBD10021C02204F58E7023F056F80021CB
:102DC000124B2046C4E9A733C4F8A812C4F8AC12C9
:102DD000A4F8B012C4F8B212C4F8B612A4F8BA1229
:102DE000C4F8BC12C4F8C012C4F8A432FFF70CFF38
:102DF000002898D12A23C4F8EC3296E7D86D030056
:102E0000C06D0300A86D0300906D030040064006EE
:102E10002DE9F04F00F53777A9B03B46164604463A
:102E20001EF0E6FE18220021A4F8E80205461CA8C0
:102E300023F01BF81822002122A823F016F8502EA8
:102E400022D1B4F9C4320893B4F9CA320193B4F967
:102E5000D0320693B4F9D6320A2D07932EDD4FF007
:102E6000000B22AB0493AE4B0DF170080993CDF823
:102E700014B0CDF808B00025029B2E46A7F5377A8E
:102E80004FEA4309039529E0A02E0BD1B4F9C632CD
:102E90000893B4F9CC320193B4F9D2320693B4F961
:102EA000D832D9E7B4F9C8320893B4F9CE320193D5
:102EB000B4F9D4320693B4F9DA32CDE7B4F9183163
:102EC000002B00F31A8200260023A4F81A313046A2
:102ED000266029B0BDE8F08F0123039310ABBAF947
:102EE000E420BAF9B4104B44B7F900001EF040FFDB
:102EF0008C4B0CAA33F90930BAF9CC105843039B18
:102F0000064442F8230016ABBAF9FC204B44B7F94B
:102F100000001EF02DFF844B039A33F909300AF1AB
:102F20000C0A58430EAB43F82200054409F10C0982
:102F3000002AD1D0002E40F0DA80002D00F0E5808C
:102F400085EAE573B3FA83F31F22013B1BB20999AB
:102F5000D21A31F9023B0991059902FB031305933B
:102F6000069B46F30F31B3EB820FB8BF4FF0010B56
:102F7000002940F3CD800C986C4B03EA80001FF0D1
:102F80004BF8A8F80000C0F58040A8F80C0045F305
:102F90000F3100290ADD654B0E9803EA80001FF00F
:102FA0003BF8049B1880C0F580409881029B08F193
:102FB000020801330293049B023702330493029BFD
:102FC000062B7FF458AF059B079A4FF000089342F9
:102FD000B4BF5E464BF00106554B36B20A93554BD3
:102FE00004F1B4050993544B07934FF448534246F8
:102FF000B5F92812204604931EF022FF4FEA480339
:103000000693484B074603EB48031A46002128461F
:1030100002931EF00AFD9A224FF4207A8011C0EB31
:10302000071010FB02F0C0F34F230593434BC8EB8E
:1030300048270393049BFF01534407F510571BB225
:10304000DDF81890A5F1B40BBFB20B93BBF9FC30BF
:10305000BBF9B400BBF9CCC0BBF9E4100493002E5B
:103060006ED0059B41F69A1E184400B25045B8BF79
:1030700050463BB29842A8BF184622AB39F903101C
:1030800016ABABF8B40039F90300039A01FB00F367
:10309000DB1213FB0EF35B150133B2F900E00CEB0E
:1030A00063031BB27345B8BF73460B9A0CF1040C53
:1030B0009342A8BF1346ABF8CC30B5F82832BDF820
:1030C0001020A3EBEC0313FB00F3DB108810A3F537
:1030D0008053584302EB820100114900002809B2D5
:1030E00063DC404204921EF097FF404260E086EAB3
:1030F000E672B2FA82F2013A12B23DB185EAE573A4
:10310000B3FA83F3013B1BB221E71F221F231EE703
:103110004FF48043A8F8003039E74FF4407A95E740
:10312000486E0300086E0300F06D030000C0FFFF4F
:10313000206E0300306E03003C6E03002C6E030013
:1031400040F28F2E1CAB33F90930059A049310AB73
:1031500039F903C0049B03FB0CF3DB1213FB0EF3E2
:1031600000EBA35313441BB25345B8BF53460FFAA9
:1031700087FE7345A8BF7346ABF8B430B5F8283264
:10318000A3EBE00313FB0CF30498DB100230801078
:10319000A3F5805358438013002800F39C804042DD
:1031A00004911EF039FF404298E004921EF034FF73
:1031B00000B2049A803040F30720024412B2B2F504
:1031C000C07FB8BF4FF4C072ABF8FC20039B8037C0
:1031D0000233BAF5407F0BF10C0BBFB2039309F138
:1031E0000C099AD10021029A28461EF01EFC069B6B
:1031F000454A05F1180A13441A460746002150466D
:103200009B461EF012FC079BC0F34F22814633F908
:10321000020BC7F34F210793531A1BB2834215DAEF
:103220000144891A09B201EB410701EB87015A46B3
:1032300041F38F0150461EF0F8FBB9104942814618
:10324000029A284609B21EF0F0FB0746099A32F9A5
:10325000023B09924FEAE91249F3CF194B4508DACC
:10326000298B9A1A11FA82F12983A98C11FA82F218
:10327000AA840A98F91130F9022B47F3CF17974225
:103280000A9008DD521A298811FA82F12980A98949
:1032900011FA82F2AA8108F10108B8F1060F05F1CE
:1032A00002057FF4A4AED4F814310133C4F814310C
:1032B000002E3FF403AEB4F81A3101331BB2062BD3
:1032C000DBBFA4F81A31089BA4F81A810193019B73
:1032D000A4F81831FBE504911EF09EFE00B204999B
:1032E000203040F38910084400B2B0F5C07FB8BF69
:1032F0004FF4C070ABF8E40068E79BB29E1C013B42
:1033000036B2A4F81831DFE5F06D03002DE9F0477F
:1033100043F6D72C002540F6EA3642F2984A491087
:103320008D4215DB0646002740F2353C41F2DE7E39
:1033300043F25E088F4234DB002547F6FF7C3A4EAD
:1033400002F1020E8D4200F1100053DBBDE8F08760
:1033500050F83580D3F804E01F68A8EB0E0404F59C
:103360000054A41306FB0474C3F80080D3F808804B
:103370005C60A4EB08095FEAA93948BF09F10109BB
:103380000AFB09EEDC68AEEB0404A41348BF013469
:103390000CFB0484C3E902E4641040F835400135B5
:1033A000BEE7D6F804A0D3F814900137AAEB0904BD
:1033B00004F50054A5131C69C3F810A00CFB0544C8
:1033C0009D695C61A4EB050A5FEAAA3A48BF0AF16D
:1033D000010A0EFB0A99DC690836A9EB0404A41360
:1033E00048BF013408FB0455C3E906956D1046F843
:1033F000045C9FE750E90234234450E904473C440D
:10340000E413B442B8BF3446DB136445A8BF644636
:10341000B342B8BF33466345A8BF634622F81540A0
:103420002EF8153002358DE70080FFFF2DE9F74FAC
:103430008946019240F20A38002240F23F4C45F69C
:10344000F52143F2672440F2B916DE27DFF894E055
:10345000234D09F1040A019B9A4202D103B0BDE851
:10346000F08F03680C3008FB03FB50F8083C0BF5A9
:10347000804B0EFB03BB50F8043C0CFB03BB036802
:1034800001FB03BB436804FB03BB836805FB03BB71
:10349000C36806FB03BB036907FB03B349F832307B
:1034A00050F8083C07FB03FB50F8043C0BF5804B3D
:1034B00006FB03BB036805FB03BB436804FB03BBBC
:1034C000836801FB03BBC3680CFB03BB03690EFBF2
:1034D00003BB436908FB03B34AF832300132BAE751
:1034E00039F1FFFFFEF7FFFF2DE9F0410446DFF859
:1034F000488000EBC105AC4201D1002017E0D4E9BF
:103500000067012E04D1384621F048FF0834F2E765
:103510003A463146404620F058F903460028F5D097
:1035200004483A4631461FF00AFA6FF00400BDE83D
:10353000F08100BF8F7F0300344E002038B5054670
:1035400000284BD0274800F03FFA044628B1014636
:1035500025481FF0F4F9204638BD02212348FFF723
:10356000C3FF04460028F6D109212148FFF7BCFF1C
:1035700004460028EFD104211E48FFF7B5FF04469A
:103580000028E8D10E211C48FFF7AEFF04460028B2
:10359000E1D10A211948FFF7A7FF04460028DAD134
:1035A00003211748FFF7A0FF04460028D3D140F2BB
:1035B000622244F618010B4820F007F9044630B1A6
:1035C000014610481FF0BBF96FF00404C3E7012364
:1035D00068602B700C481FF0B2F9BCE76FF015045F
:1035E000B9E700BF344E0020C37F0300606E0200C5
:1035F000C86F0200A86F0200886E0200586F0200B8
:10360000F86E0200E17F03000780030010B503217C
:103610000548FFF769FF044618B1014603481FF04B
:103620008EF9204610BD00BF706E02002980030095
:1036300073B5064644F61801124801AA20F0BDF8F9
:1036400018B16FF0040002B070BD9DF8044044F65C
:10365000180104EB4604802CA8BF802424EAE474FB
:10366000084844F4007220F0B0F805460028E8D17C
:103670006310054822463146403B1FF060F928465A
:10368000E1E700BF344E00204680030010B50C4631
:10369000B1B150B109210C48FFF726FF20B92060D5
:1036A0000A481FF04CF9002010BD0A210848FFF716
:1036B0001BFF0028F8D14FF0FF3306482360F0E7E6
:1036C0006FF01500F0E700BF106F02006A80030082
:1036D000586F020007800300014601481FF02FB910
:1036E0009080030008B502481FF029F9012008BDA9
:1036F000B680030008B502481FF021F9012008BD7B
:10370000E180030008B502481FF019F9012008BD47
:103710000D81030008B502481FF011F9012008BD12
:103720003281030008B502481FF009F9012008BDE5
:103730005681030008B502481FF001F9012008BDB9
:103740008981030008B502481FF0F9F8012008BD7F
:10375000AE81030008B502481FF0F1F8012008BD52
:10376000DF8103000A4608B50123C0B203FA00F165
:1037700007484AB18368DB68984720B1014605488D
:103780001FF0DDF8012008BD83681B69F4E700BF66
:103790009863020002820300F8B50125154B164E0E
:1037A0001960164B16491A60164BB7684B6005FA3C
:1037B00000F38B60FB6904460BB90120F8BD2A4673
:1037C000304698470028F8D1E1B2BC693369002C33
:1037D000F3D01B688D401D4214BF4FF080634FF043
:1037E00000734FF0A0723046A047003818BF012088
:1037F000E4E700BFE84E002098630200E44E00209A
:10380000D84E002009380000B2F5002F08B50AD1C3
:10381000054A064B00201B6811689847BDE8084020
:10382000034818F0DDBC08BDE44E0020E84E00203F
:103830006409002010B5054818F050FC044618B182
:10384000014603481FF07BF8204610BDC44E0020FF
:103850002582030010B54FF0FF324FF0FF330548CB
:1038600018F0C4FB044618B1014603481FF067F87E
:10387000204610BDC44E00204182030010B58AB01E
:1038800008460D99042903D014481FF058F810E099
:1038900008930C9B0024099304AB02930323CDE906
:1038A000040201AACDE9062101940393FFF7D2FF98
:1038B00010B101200AB010BD09480A4983681C688C
:1038C00002AB1A46A047014608B10748DDE7FFF7FB
:1038D000B1FF003818BF0120ECE700BF5B82030096
:1038E00098640200347002008082030070B50446C0
:1038F000084E094D4FF0FF324FF0FF33304618F0BD
:10390000A9FC204602F094F90028F3D028461FF0C5
:1039100016F8EFE764090020A182030070B5144691
:1039200001B922B10B481FF00AF8012070BD20EA4E
:10393000E0754FF40046214640F2E7304FF47A72CA
:103940000023C5FB0601FCF705FC22F09DF820468C
:10395000ECE700BFC282030010B58AB008460D999B
:10396000042903D014481EF0EAFF11E008930C9BD1
:103970000024099304AB02930323CDE9040201AAB6
:103980000393CDE906210194FFF764FF034610B1CC
:1039900001200AB010BD094809498268146802AACA
:1039A000A047014608B10748DDE7FFF743FF0038AD
:1039B00018BF0120EDE700BF5B820300986402009E
:1039C00034700200E5820300F0B593B00746282268
:1039D000002108A822F049FA3E4821F0FAFD3E48AD
:1039E00021F0E1FC48B13D4821F0DDFC28B13B4825
:1039F00021F0D9FC48B93A4800E03A481EF09FFF50
:103A00006FF00504204613B0F0BD4FF48031364806
:103A10001EF0E8FC04460028F4D1304821F0C3FC35
:103A20000028E8D04FF4803130481EF0DBFC04461B
:103A30000028E7D1294821F0B6FC0028DBD04FF45C
:103A400000312B481EF0CEFC04460028DAD14FF49A
:103A5000A4720023CDE906230523CDE90070CDE94A
:103A6000020304904FF42F72224B2349234818F08D
:103A7000D3FE2349214818F059FE04460028C1D13D
:103A800038461FF0B2FE08B11E48B7E71E4E08AD1B
:103A90000FCE0FC596E80F0085E80F001B4B384688
:103AA00010931E2308A9119302F07AF808B1184860
:103AB000A4E7384602F094F908B116489EE7B968C1
:103AC000154A91429ED015481EF039FF6FF004044C
:103AD00098E700BFC44E002098640200986302007B
:103AE00015830300FE82030058700200507002002C
:103AF00048700200ED380000A89F0020B019002097
:103B0000298303003183030010700200A00200200B
:103B10004F8303006C830300637A040085830300F2
:103B20002DE9F04F91B0009302F004030293C2F329
:103B3000C2030133840705460E46DDF86880039210
:103B4000059340F0BB81041D30B1072909D86FF0FF
:103B50001B0011B0BDE8F08F01F007063444C6F138
:103B60000806009B4FF000094FF0040A591E4FF061
:103B7000FF334F460193CB465346CDF810900DB11D
:103B8000009820600598002800F3E8809848009A83
:103B9000824203D397488242C0F0E080039AA4EBAC
:103BA000050E92074FEA9E0000F103810F2F00F2ED
:103BB000B180002D00F0058107F140020DEB020CF1
:103BC000019A0CF8200C0CF8102C04980130049089
:103BD000E7E07A285DD84B280ED8472859D82928FD
:103BE0002DD8252852D054D820287AD02338D0F187
:103BF000000B4BEB000B74E04C382E2849D8DFE863
:103C000000F07048484848484848484848484B48A9
:103C10004848484848484859484B4B595959704BAF
:103C20006D487048184B184848827F4B48484B48AD
:103C30007F0000204FF0000B4FF0040A38E0012213
:103C40002A38C0B202FA00F010EA0E0F49D110F083
:103C5000625C2FD110EA020B43D06046013C544411
:103C6000B4FBFAF40AFB04F4002D61D0A3EB050CBD
:103C7000A444B4453FF66BAF002868D1042B47D16C
:103C800058F8043B2360042304342AE0019A013AE3
:103C900001924FF0000B24E011F8010C6C2834D194
:103CA000002011F8023C83466C2BC5D14FF0080A66
:103CB0005346D3E708F1070828F00708073424F033
:103CC0000704F8E802AB35B106982044B0423FF64D
:103CD0003EAFC4E900AB4FF0000B08344FF0080AC8
:103CE000534611F8010F002878D0BBF1000F7FF484
:103CF00070AF2528F5D14FF0010B019B01330193E3
:103D00004FF0040AECE7584694E700208346A5E705
:103D1000082B02D06FF015001BE708F1070828F008
:103D20000708B8EC027B84ED007B08230834D8E751
:103D300068B9042B02D108F10408A4E7082BE9D1E3
:103D400008F1070828F0070808F10808EDE70598CA
:103D50000138059058F8040B009010E7039A90077B
:103D600020D54FF0010CA4EB050E4FEA9E00BEF5E6
:103D7000007FCFD20F2FCDD8F5B107F140020DEB68
:103D8000020E019AC0B20EF8200C0EF8102CBCF1F5
:103D9000000F3FF41AAF60F07F000EF8200C09F11D
:103DA00001090137C5F108024FF6DA7E04340692A4
:103DB00097E74FF0000CDAE7BCF1000F01D00136B5
:103DC000EFE7029A0236002AEBD10098CDE90631DE
:103DD000FCF7ECF9DDE906310644E2E7631BB3F5D5
:103DE000806F97D245B9A6F10804E018B1E600BF8C
:103DF00088620200E8AF0300029A9B0828602B70DB
:103E00009DF81030C2B1EB7085F80290B9F1000F47
:103E100005D0002208A8C5F1010C97420ED14FF041
:103E2000000AC5F101030DF1200801930DF1300BDB
:103E3000574512D1601B8CE66B70E5E710F8013B2B
:103E4000190608D50CEB040EB64503F07F033FF6C8
:103E50007EAE04F8013B0132DFE7B9F1000F03D079
:103E600098F90020002A17DB029BD3B11AF80B2027
:103E700004F8012B0022019B18191044B0423FF6B0
:103E800066AE98F80000009904F8010B20460392F2
:103E900021F0C4FF039A14440AF1010A08F1010851
:103EA000C6E798F8002055F822300093029B00984E
:103EB00045F82230FCF77AF9421CDCE76FF00D0080
:103EC00047E600BF2DE9F04F97B000AFD7F880B0BC
:103ED0003B62CBF3C0030446894690F802A0FA6225
:103EE000BB6141B9457800780AEB800020444D451C
:103EF00017D8A0EB0409E378FB61BAF1000F02D0F8
:103F00001BF0010F16D1FB6953BBFB6A1BB149467D
:103F100020463A6A98474D4628465C37BD46BDE87C
:103F2000F08F461C3046FCF741F90130304409F16E
:103F30000109DCE7626823787A62FA6A990079619C
:103F400004EB8301002A40F001810E464FF0000887
:103F50004D4601EB0A094E454CD101EB0A0610E033
:103F60001BF0020FD1D023789A007A61626804EBCB
:103F700083017A62FA6A002A77D14D46904601EBB6
:103F80000A061BF0050F0CBF02230123FB62FB692D
:103F900006EB430A0BF00203BB625645BCD016F891
:103FA000021B16F8013C54F82390994B994502D313
:103FB000984B994536D3BB69002B40D0786A1EF0E8
:103FC00095FC00283BD0E9468AB06A46924B536183
:103FD0007B6AC2E906314FF4007313848F4B42F8B9
:103FE000103F00234FF412518D4801F0B7F8023D05
:103FF000CD46D2E716F8013BF96254F82300FCF7EE
:10400000D5F8D7F88430F96A01304BB1D7F8883049
:1040100098453EBFD7F8843023F8180008F101080E
:10402000054498E7BB6923B1786A1EF05FFC00285D
:10403000C9D11BF0010F05D1FB6AED1AADE7BB6AD0
:10404000002BAAD04846FCF7B1F8D7F8843053B11A
:10405000D7F8883098453FBFD7F88420431C22F812
:10406000183008F10108054497E7BAF1000F73D042
:104070001BF0040673D0D046002607F148005246D4
:104080003B61B96221F0CAFEB96A3B6901EB0A02E1
:10409000BA62FA69F9695200FA60BA6A02EB41023F
:1040A0003A610BF00202BA603A69B96A8A4258D1A1
:1040B00062781BF0020F18BF00217A6208BF4FEA36
:1040C0005801B2181BF0010FD2B240F09F801BF0D4
:1040D000040F14BF40460020BB616270A070E17005
:1040E00020463A6A7969FB6A9847051EFFF614AFC5
:1040F000BB69414623707B6A3A6A6370FB6984F846
:1041000002A0E37007F14800FB6A9847B0F100088D
:10411000C0F2BA807B69A9EB0A01C91AFB683A6A46
:10412000C91AD7E90A0398470028C0F2AF804FF0B8
:10413000000BA84408EB000507F1380AB34571D31A
:1041400000213A6A0846FB6A9847E5E656464FF072
:10415000000807F1380092E75646D04696E7B04689
:1041600094E7BA6A12F8021B12F8015CBA6254F8BA
:104170002500274A904202D3264A90421ED3BA69AC
:1041800032B1786A7B601EF0B1FB7B6800288BD16E
:10419000BA6802BB08F1280207F1300C08F10100EF
:1041A000944407F1580208F1020852FA80F00CF822
:1041B000101C5FFA88F800F8105C75E7BA693AB12C
:1041C000786A7B601EF092FB7B6800287FF46CAFFE
:1041D0001BF0010F09D006F1280207F13000711C15
:1041E000161806F8205CCEB25EE71BF0040F3FF411
:1041F0005BAF08F1280207F1300008F1010102EB82
:10420000000808F8105C5FFA81F84DE7002063E7CA
:1042100088620200E8AF0300B083030004000001DD
:10422000F86702001BF80A3054F8239087F83730FB
:10423000D7F884302BB3D7F888309B4521D2D7F8F4
:10424000843033F81B8001213A6AFB6A07F137009A
:10425000984700281ADB0544B8F1000F06D14846FC
:10426000FBF7A4FF00F101081FFA88F84146484611
:104270003A6AFB6A9847002808DB05440BF1010BFA
:104280005CE74FF00008DEE7454645E6054643E6B5
:10429000014B1860704700BF3402002080B505460E
:1042A0000E461746984618F07DFD034621F0E2FFC2
:1042B0000446DFF81890424649F800303946304647
:1042C000A84754F8090002F0B3F900BF0800000045
:1042D0002DE9F047058B04462807904611D40229A2
:1042E00005F0070540F0CC8020461EF0ADFD78B10A
:1042F0000138218B042811D8DFE800F0C2106D8549
:10430000950001290CBF45F0100545F020052583D7
:1043100088F31188BFF36F8FBDE8F08701F0070ABB
:10432000AA4500F0A5800027B9463E46A368002BA9
:1043300000F0BC8041F00801218388F31188BFF3AD
:104340006F8FA168002900F0BA800D68002900F085
:10435000B680334652462046D1F80480C047002D2F
:1043600076D02B6829461D46F0E701F007035A1F57
:10437000012A1BD8002221F00701062B276889B2E9
:10438000C4E9002209D13B4603E0628B013262831B
:104390001B68002BF9D141F00201204621831EF059
:1043A00053FD00287AD041F0200176E0042B0AD199
:1043B00021F0070189B2204621831EF045FD10B18E
:1043C00041F020012183218B01F0070AAA454FD03B
:1043D0000027B946AAE7236921F0070141F0060149
:1043E000062DD3F8009021832DD1B9F1000F3FD0D5
:1043F00041F00801218388F31188BFF36F8F2046B5
:104400003949C84729E021F00701236941F0040137
:1044100089B2042DD3F804902183E6D000274FF011
:10442000040A3E4682E721F00701236941F00501B5
:1044300089B2052DD3F808902183D6D000274FF0FC
:10444000050A3E4672E700274FF0060A3E466DE732
:104450002B4687E7B9F1000FD1D1EFF31188202364
:1044600083F31288BFF36F8F238B23F0080323831A
:10447000258BEA062ED525F01003238305F00705CA
:104480006669218B002EBFF670AF00232768C4E950
:10449000003321F0070141F001012183218B4FF00E
:1044A000000901F0070AAA457FF440AF002F9CD015
:1044B00041F00801218388F31188BFF36F8F002F2B
:1044C000C8D03D6839463346524620461EF0E8FCC7
:1044D0002F46F4E7AB067FF51BAF25F020032383BF
:1044E00005F0070500E700BFCD2E020010B530B97A
:1044F0000B480C491EF0B4FD6FF0150010BD836829
:1045000033B9074808491EF0ABFD6FF00400F5E72A
:104510001B6813B1BDE8104018471846EEE700BF0E
:1045200010680200648403007584030010B530B97C
:104530000B480C491EF094FD6FF0150010BD836808
:1045400033B9074808491EF08BFD6FF00400F5E70A
:104550005B6813B1BDE8104018471846EEE700BF8E
:1045600010680200648403007584030070B508B10C
:1045700001B132B90B480C491EF072FD6FF0150005
:1045800070BD84680CB1E56835B9064807491EF06E
:1045900067FD6FF00400F3E741F8040BE368BDE842
:1045A000704018471068020093840300758403006C
:1045B00010B5044630B9104810491EF051FD6FF097
:1045C000150010BD006830B90B480D491EF048FDBC
:1045D0006FF00100F5E783680BB11B6933B906483A
:1045E00008491EF03DFD6FF00400EAE76168984756
:1045F0000028E6D12060E4E710680200BF840300D1
:10460000D08403007584030070B51346044630B9A6
:10461000104811491EF024FD6FF0150070BD0068B0
:1046200030B90C480D491EF01BFD6FF00100F5E795
:1046300082680AB1956835B9064809491EF010FD2F
:104640006FF00400EAE70A46AC466168BDE87040D6
:10465000604700BF10680200BF840300D0840300DD
:1046600075840300034A13680BB952681360002075
:10467000704700BF3802002030B50C460E4985B0A7
:104680000291D0F8D4110546CDE9003100F1F001D6
:104690004FF0FF33204616F061FF50B9012384F834
:1046A0006C30D5F8D03123B1204605B0BDE830409C
:1046B000184705B030BD00BF5931020038B50C466F
:1046C000114605461EF04AFD034638B928460449FE
:1046D0001EF044FD03460020236038BD0120FBE7A7
:1046E000CDAE03002DE9F04F0123814605694668F0
:1046F0008FB005F57B77D7E8EF2F002A03D1C7E805
:10470000E13F0029F7D10CBF1A46002240F0BB80E0
:10471000B368B16A05F5F8781C1F10461EF0A5FDB8
:10472000844279D8013A00F0A880B2FA82F24FF0C0
:104730000044D44072682046073222F00302C5F8D4
:104740003C22B16A1EF091FDC5F84002B36A4046B2
:104750006343033323F0030302EB4302230103EB20
:104760004403093323F0030303EBC403C5F83422E5
:104770001A440832C5F830227368C5F83842C5F8C3
:104780002C32424BC5E9AD63316800F0F1F90446C3
:1047900000283FD1D9F810B0D9F804A0D9F80030DA
:1047A0000BF53479059004934846DAE90734012B78
:1047B00008BF103C21F08EF8DAF82400344904AB2D
:1047C000009301EB8021234648464FF4806217F0A6
:1047D00001FF2021DAF824302E4A06A81BF002FF40
:1047E00006A9484617F0A2FF2B490BF5307021F0BF
:1047F0002AF8DAE9050183685C684CB15B46274A10
:10480000A047044630B9DAE9050183681B692BB972
:104810006FF05704002129E001327EE7012298471A
:1048200004460028F6D11E4B2846C5F8D0311D4B52
:10483000C5F8D4311C4B0393D5F840320293D5F818
:104840003C32CDE9008305F51173B26AD5F8E8135F
:1048500000F056F904460028DCD105F1F00016F00E
:1048600023FF0028C5F8F0030ADB022138461EF0BA
:10487000A9FC20460FB0BDE8F08F6FF00B04C9E72C
:104880006FF01504C6E76FF07704F2E7AF3102006E
:1048900068A20020F58403009531020089310200EE
:1048A000AD48000041330200F531020013B5044663
:1048B00040B100230122CDE90032074BD0E90912B3
:1048C00016F020FE236F1B6823B1606F02B0BDE8B5
:1048D0001040184702B010BDCDAE030013B504461A
:1048E0000846216901F57B71D1E8AF1F022910D17B
:1048F00093B1A0B10121CDE900311346D0E90912ED
:1049000016F000FE074B984208BF6FF00B0002B094
:1049100010BD6FF00F00FAE76FF04C00F7E76FF093
:104920000100F4E72EF8FFFF2DE9F347894615460D
:10493000066906F57B73D3E8AF3F022B64D1136899
:1049400023B96FF0150002B0BDE8F0871B78002B8B
:10495000F7D0D6F8E8A3BAF1000F36D106F5EC7718
:104960004FF0FF324FF0FF33384617F03FFB304631
:104970002A6801A9FFF7A2FE019C80461CB93846AF
:104980001EF01EFCDDE705F108032367AB6984F820
:104990006CA06367646460B138461EF011FC214668
:1049A0003046A36E2A68FFF767FE0020C9F8004072
:1049B000C9E71F22296804F1480021F080FA38462F
:1049C00084F867801EF0FCFBEFE7304610491EF0CC
:1049D000C5FB04460028B4D0002705F1080303678F
:1049E000AB6980F86C70436740641F2229684830C7
:1049F00021F065FA22460121304684F8677000F004
:104A000061F80028D1D09CE76FF00F009BE700BF52
:104A1000CDAE030010B50C46006900F57B73D3E8FA
:104A2000AF3F022B0FD189B10A4900F5307020F059
:104A300036FF204620F0E1F978220021204621F0BF
:104A400014FA002010BD6FF00F00FBE76FF00100BB
:104A5000F8E700BFEC4E00202DE9F04F05460E466A
:104A600090460027D0F8C4A085B0AAF5BE742146B0
:104A70003046FBF789FBE0B9114BA4F1480B0293D8
:104A8000DAF810303246CDE9008329464FF0FF3383
:104A90005846AAF5E27916F061FD60B97823012243
:104AA00003FB079383F86C20DAF80C300BB15846FF
:104AB0009847783417B105B0BDE8F08F0127D6E7E5
:104AC0006F3302001FB5144690B18AB1012912D18B
:104AD0000A4B00F1F0010293D0F8D431483201932F
:104AE0004FF0FF332046009316F038FD04B010BDA0
:104AF0006FF01500FAE70020F8E700BF6F330200FF
:104B00002DE9F04387B00E46DDE90E811446DDE95C
:104B100010251F4630B329B3DFF850C000F1F0096B
:104B2000002D08BF65469EB9CDE9034400F5E27447
:104B30002046059620F0F9FB03ABCDE900432A4659
:104B40003B464146484616F027FE07B0BDE8F083D5
:104B5000002241460E9248462A4607B0BDE8F0437F
:104B600016F06ABF6FF01500EFE700BF594A00006A
:104B7000F0B504462B4A87B004AB0E4692E803001A
:104B800083E80300002C49D0184616F0C1FB054607
:104B9000B0B94FF0FF33E16C04F15407A163CDE9E4
:104BA000010000933846236D04F138021FF0D5FD53
:104BB000A06C1EF00BFCC4F8BC0020B96FF00B0514
:104BC000284607B0F0BDA06C1EF000FCC4F8C00081
:104BD0000028F3D0236CD4F8BC10C4F89030042320
:104BE000C4F89430C4F8AC300223E3620E4BB4F83E
:104BF0004820C4F88C10616C236204F18C03C4F863
:104C0000A070A4F89820C4F8B870C4F8A810A4F84C
:104C1000B020C4F8A400A6612363D1E76FF01505A6
:104C2000CEE700BFD86802008C7002002DE9F04783
:104C3000044607464FF00109DFF8508014B93846A2
:104C4000BDE8F08794FAA4F5B5FA85F509FA05F3FD
:104C50002E0108EB05156FEA030A24EA03042B7BF7
:104C6000002BEBD058F806301B694BB946447368EB
:104C700004222846196807EA0A071EF00FFCDDE740
:104C8000284698470028D9D1F0E700BF786802008D
:104C900030B5002289B00F490F4820F0C9FF00222B
:104CA00000230024CDE906230E230C4DCDE9033467
:104CB0004FF440722846CDE90144094B094900945C
:104CC00017F0AAFD0849284617F030FD204609B024
:104CD00030BD00BFED4C0000A02F0020A01E002022
:104CE0000150000068A6002001850300014817F06C
:104CF00077BA00BFEC0800202DE9F0478046214834
:104D00000F461EF0AFFB0646002833D0002528468C
:104D1000BDE8F087237B83B12368DB680BB12046B5
:104D20009847636883F8069023681B69D3B9636862
:104D30000422204619681EF0B1FB01361034544598
:104D4000E8D3B8F1000FE2D0002DDFD02846FFF7FE
:104D50006DFF0546002FF7D000214FF4A47020F01E
:104D600093FEF1E7204698470028E0D009FA06F3C1
:104D70001D43E2E705464FF00109034CDFF80CA0A4
:104D8000DDE700BF244F0020786802008868020039
:104D9000014B53F820007047CC70020008B5034661
:104DA00008462BB1044A136000F070FC002008BDD7
:104DB0006FF01500FBE700BF6402002010B5044C43
:104DC000237813B9034817F00BFA0123237010BDA1
:104DD000006C0020EC08002010B5044609481EF0C5
:104DE00041FB3CB1084BD3E8EF1F0139C3E8E21F98
:104DF000002AF8D1054820F027FFBDE810400448FC
:104E000017F0EEB91C4F0020204F0020A02F0020EB
:104E1000EC08002000200146034BD3E8EF0FC3E865
:104E2000E21F002AF9D170471C4F002070B5FFF730
:104E3000F1FF0546074C084EB44200D370BD6368CD
:104E40005B792BB123685B6813B1294620469847EC
:104E50001034F1E7786802008868020010B5044C4D
:104E6000044920461DF089FE034B1C6010BD00BFA5
:104E7000A4070020B8700200144F002000230D4A40
:104E800010B513700C4A4FF4004113600B4A0C48E4
:104E90001360FFF783FFFFF7E1FF0A4B0A4918464B
:104EA0008B4200D310BD1A1A5C68121101322271B4
:104EB0001033F5E7016C00201C4F0020204F00202C
:104EC000613402007868020088680200014600220E
:104ED000002301481DF072BEA407002001481DF008
:104EE0000BBF00BFA4070020024B014618681DF04D
:104EF00057BF00BF144F002001481DF08CBF00BFFA
:104F0000A407002070B5274B1878002849D0FFF778
:104F1000E5FF0546002841D1234B244C1B68002B9C
:104F200019DD20F03EFE4FF47A72A0FB020302FB73
:104F30000131C30B43EA4143D4E900209B1A40F2FC
:104F4000E9324FEAD13161EB0001934271F1000186
:104F500001D3FFF76BFFD4E9003213F57A7342F106
:104F60000002C4E90032BDE87040FFF7C5BF6368C6
:104F70005B7923B12368294620461B689847103483
:104F8000B442F4D32846FFF7AFFF094BD3E8EF1F35
:104F90000139C3E8E21F002ABED0F7E7054C064EF0
:104FA000EEE770BD006C00201C4F0020982F002001
:104FB000204F0020786802008868020070B50D4D0F
:104FC000297861B90120FFF797FE0B4C0B4EB442D4
:104FD00006D3FFF797FF0028FBD101232B7070BD8C
:104FE00063685B791BB1236820469B68984710343F
:104FF000EDE700BF016C00207868020088680200BD
:1050000000212DE9F0470846FFF776FE044658B325
:1050100040F267684FF0000921F02CF91B4B1C4A45
:105020001B58136033B11B4B1B68092B02DD1A4858
:1050300017F0D6F80025194FDFF85CA044B12046E0
:10504000FFF7F4FD044618B94FF0FF384FF0FF3971
:10505000FFF758FF064628B9B5B942464B465046B9
:1050600017F0F8F83546E9E74FF0FF384FF0FF3911
:10507000D2E72B689B691BB100222846114698474E
:105080001035BD42F5D3E8E7054DFAE7080000000A
:10509000184F0020204F0020EC08002088680200F4
:1050A0007868020013B518481EF0DCF9174B1B781E
:1050B00073B1EFF31184202383F31288BFF36F8F52
:1050C000FFF720FF84F31188BFF36F8F02B010BD8C
:1050D0000F4B1B68002BF9D050B9002200230D485C
:1050E000CDE900234FF40042002318F075F9EDE7F5
:1050F0000928EBD1074820F0A7FD074802B0BDE81A
:10510000104017F06DB800BF204F0020016C002048
:10511000184F0020A02F0020EC08002010B5064BEF
:1051200004461B6898472146A06004481DF0C5FD51
:10513000BDE81040FFF7B6BF64020020A4070020BE
:10514000044A054B9B1AB1EBD30F34BF52F8310020
:105150000020704798670200786802002DE9F04F40
:105160008FB0C1F34A2804AF0D469146B8607B600A
:105170000C0DB8F1000F63D000264FF0040B4FF078
:105180000A0A07F11403C7F80C80C7E907667E62B4
:105190000193CDF808B0CDF800A007F11C0332460A
:1051A0004846F968FEF78EFEB0F5006F03461CD343
:1051B0006C468AB0D9F8041004AB26481A46C3E9F5
:1051C000050140F2FF71D9614FF400711984224B3F
:1051D00042F8103F4FF4125133462048FFF7BEFF0C
:1051E000A5462C37BD46BDE8F08FC0F30A0804F190
:1051F0001700184420F0070080083B60FFF766FEA8
:1052000068F35325044690B13B6800F11001C7E9EB
:10521000083607F11403F961CDE900A3CDF808B011
:1052200048460F4AF96807F11C03FEF74BFE68F386
:1052300053252A4620467B68B9681EF04EF9D0E710
:1052400004F1170020F007008008FFF73FFE044636
:10525000EDE700BF16850300040000011868020096
:10526000AF3402002DE9F04F87B00446DDE9105A53
:10527000DDE91279934698460391BFB13B46524609
:1052800010210020CDF80090CDF81490FEF748FCD6
:10529000B0F5006F06460AD340F2FF730221174AA9
:1052A000174807B0BDE8F04F1EF070B93E4605F153
:1052B0001700304420F007008008FFF707FE04F0D5
:1052C00007040BF0070BE40044EA8B1444EA46247D
:1052D00044EA0554054640B13FB13B46524631468B
:1052E000CDF800901030FEF71BFC434622462846BE
:1052F000039907B0BDE8F04F1EF0EFB855850300E5
:1053000018680200406820B1034BC01A40F3CF0078
:1053100070474FF0FF307047986702000EB403B536
:1053200003AB53F8042B01460448019301F018FD28
:1053300002B05DF804EB03B0704700BFEF35020028
:10534000CA0605D48B064CBF02490349FFF7E6BFE6
:10535000704700BFCCAE0300CBAE03002DE9F04F89
:105360008BB09B46169B9DF854A00693179B044652
:105370000593189B0D469046199E0493BAF1000FB1
:1053800000F09E8006F00103089306F008030793DF
:1053900006F4807309931EF07FF806F002090246B6
:1053A00000283BD020468F49FFF7B8FF0746B9F1E8
:1053B000000F08D016F0440F32D12A4620468A4901
:1053C000FFF7ACFF0744089B53B1884B204653F8C6
:1053D0002A20874B8749002A08BF1A46FFF79EFFFD
:1053E000099B002B48D0079B002B62D1B8F1000F1E
:1053F00064D0424620468049FFF790FF0546069B51
:105400003D44002B6BD1049B002B71D1F30700F1BD
:10541000E28031462046FFF793FFD6E00746C6E715
:10542000764B18680028CDD0754B4FF47A791B68FD
:105430004FF03C0CB5FBF3F5B5FBF0F14FF46163B5
:1054400000FB115509FB05F5B1FBF3F2B5FBF0FECE
:1054500003FB121100FB1E55B1FBFCF309FB05F524
:10546000B5FBF0F50CFB131120460091CDE901E5E9
:105470006449FFF753FFA5E7079BEBB1624B20465A
:1054800053F82A206149FFF749FF0546B8F1000F9C
:1054900005D0424620465849FFF740FF0544BBF17E
:1054A000000FACD05A4620465949FFF737FF054454
:1054B000A5E74FF0000BE1E7079DE7E745469EE7CC
:1054C000BBF1010F069B06D1002B64D1049B002B7E
:1054D0007BD000250CE0002BF8D04E485CE04E4815
:1054E000069B22464D491DF0D0F9049B002B68D045
:1054F000DFF83881DFF83891049F3146102F2046BD
:1055000028BF10274FF0000BFFF71AFF5D4545DC61
:10551000059B494620461A78FFF700FF4FF0010B24
:105520001BF0070F03D141462046FFF7F7FE5F450A
:105530003BD9059B4946204613F80B20FFF7EEFEAA
:105540000BF1010BBBF1100FEAD14FF0000B20461D
:105550003349FFF7E3FE5A46059B20469A5CA2F1C9
:1055600020015F2928BF2E222E49FFF7D7FE0BF11D
:10557000010BBBF1100F1DD01BF0070F03D14146EB
:105580002046FFF7CBFE5F455A46E5D84146204608
:10559000FFF7C4FEEBE720485546A1E74146204609
:1055A000FFF7BCFE0BF1010BB0E720461E49FFF7E9
:1055B000B5FEC5E7059B3B440593049BDB1B0493A9
:1055C0009AD1BAF1000F7FF421AF20460BB0BDE8AD
:1055D000F04F1DF0FFBF2046054A0649FFF79EFE2B
:1055E00017E700BF9285030096850300DC70020078
:1055F0008D850300248F0300BB8503002C4F002002
:10560000284F00209F850300F0700200BF85030033
:10561000C58503001D360200EF350200616D0000F4
:10562000D0850300D285030095AE030097AE03003A
:10563000CA85030042F20F7373B58B4228BF0B4635
:1056400005680446052168460D4A1AF0CBFF064658
:10565000636828460B225B680A491DF0ADFF63684A
:105660003246694628465B681DF0A6FF63681B2228
:1056700028465B6804491DF09FFF02B070BD00BF63
:10568000BA8C0300F1850300D585030000210123B6
:10569000064A904206D8064A01B901231360054B19
:1056A00018607047012140085B00F2E740420F009C
:1056B000284F00202C4F0020F8B50D460446064F19
:1056C0004618B44201D12846F8BD14F8011BBB6846
:1056D00001485B689847F4E7F8630200014B0360F8
:1056E000002070473871020008B504481DF027F902
:1056F000BDE8084002481DF022B900BF378603000C
:105700006C860300014818F047BA00BF38710200E8
:1057100038B5044618B90F4B0F485B689847616865
:10572000B1F5683F10D0B1F5680F0DD00B4DA9420F
:105730000AD011F46861206807D0014608481FF0BC
:10574000ADFE00232360656038BD142220F08DFB80
:10575000F9E700BF1C0700209A8603002C5F5CA9B4
:105760005C54002008B560B34368B3F5683F0ED0C1
:10577000B3F5680F18D0144A934220D000684FF058
:10578000FF324FF0FF3316F031FC58B115E0012223
:105790000368D3E8EF1F002903D1C3E8E02F0028F6
:1057A000F7D10AD1002008BD0368084A1B7803F529
:1057B000807352F82330002BF4D00548F3E70548F6
:1057C000F1E76FF4E040EEE72C5F5CA900000350C6
:1057D000E98FFFFFEA8FFFFF08B520B34368B3F5F9
:1057E000683F09D0B3F5680F13D0114A93421DD01A
:1057F000006816F073FC14E000220368D3E8EF1F82
:10580000012903D1C3E8E02F0028F7D109D00948C6
:1058100008BD00210368084A1B7803F5807342F82D
:1058200023100020F4E76FF4E040F1E70348EFE7CE
:105830002C5F5CA9E98FFFFF00000350EA8FFFFF98
:1058400010B5044618B91D4B1D485B68984763683E
:10585000B3F5683F2FD0B3F5680F2CD0194A9342A7
:1058600019D1236803BB4FF0FF324FF0FF332146BD
:10587000154816F0C9FA08B923681BB90F4B13482D
:105880005B68984714220021206820F0EEFA4FF45C
:105890006863636008E0B3F5683F0DD83A2B03D026
:1058A00040F6BA629342DED120681FF092FE636830
:1058B00043F03A03636010BD054AF3E71C0700207C
:1058C0009A8603002C5F5CA95C540020C08603000C
:1058D0003A00003A08B506494023142205481FF053
:1058E000CFFDBDE808400449044818F019BA00BFCC
:1058F0005C4F00205C540020407102005471020093
:10590000002370B5136086B00593037905461446ED
:10591000032B03D8DFE803F0051A315C012006B041
:1059200070BD2D4B09BA0491196800230422CDE9FA
:10593000013300924E69006805AB04A9B047002806
:10594000ECD1059B00201BBA2360E8E70B0C8DF817
:1059500011304BBA8268ADF812301F4B090E1B682C
:105960000192042261F07F0100921E6A8DF81010EE
:1059700005AB04A90068B047E1E70B0C8DF81130C6
:105980004BBAADF812300B0E63F07F038DF8103078
:10599000114BB1F5405F1B6800681E6AAB6801934C
:1059A0000DD202230422009304A905ABB047BDF831
:1059B00014305BBA2380003818BF0120AFE70422FF
:1059C00005AB009204A9B047059B1BBA2360F2E720
:1059D00022461DF0A0FEEEE7F801002030B5037965
:1059E000044685B0032B45D8DFE803F002152540B7
:1059F000214B12BA03921A6800230093956908227A
:105A000009BA029120680DEB0201A847003818BFBF
:105A1000012005B030BD12BA174B0392A2681B6873
:105A200001920422009209BA20685D6A029103ABD8
:105A300002A9A847EAE70BBA02930F4BB1F5405F02
:105A40001B6820685D6AA36809D252BA01930223D9
:105A5000ADF80C200422009303AB02A9E9E712BAC7
:105A6000039204220193009203ABF6E720461DF057
:105A700070FECBE70120CCE7F8010020F0B50C4622
:105A800001790546022987B00ED8194824BAE1B138
:105A90000168A8680594CDE9003013464C6A0422D9
:105AA000286805A9A0471BE003291ED1012023F087
:105AB00003031E19171BB44212D0214628463A5D33
:105AC0001DF047FE60B90434F5E70068CDE9011127
:105AD000009305941346C4690422286805A9A047C9
