:020000040000FA
:1000000078B400207D53000071CD020069530000D8
:1000100069530000695300006953000069530000F0
:100020000000000000000000000000002555000056
:100030006953000000000000815400006953000073
:100040004557000045570000455700004557000040
:100050004557000045570000455700004557000030
:100060004557000045570000455700004557000020
:100070004557000045570000455700004557000010
:100080004557000045570000455700004557000000
:1000900045570000455700004557000045570000F0
:1000A00045570000455700004557000045570000E0
:1000B00045570000455700004557000045570000D0
:1000C00045570000455700004557000045570000C0
:1000D00045570000455700004557000045570000B0
:1000E00045570000455700004557000045570000A0
:1000F0004557000045570000455700004557000090
:10010000455700004557000045570000455700007F
:10011000455700004557000045570000455700006F
:10012000455700004557000045570000455700005F
:10013000455700004557000045570000455700004F
:10014000455700004557000045570000455700003F
:10015000455700007BB972B90029BEBF00204FF09F
:10016000004106E008BF00281CBF6FF000414FF0BF
:10017000FF3000F057B8ADF1080C6DE904CE00294E
:1001800009DB002B1ADB00F069F8DDF804E0DDE99B
:10019000022304B07047404261EB4101002B1BDB9E
:1001A00000F05CF8DDF804E0DDE9022304B0404231
:1001B00061EB4101524263EB43037047524263EBF0
:1001C000430300F04BF8DDF804E0DDE9022304B05E
:1001D000404261EB41017047524263EB430300F040
:1001E0003DF8DDF804E0DDE9022304B0524263EBA0
:1001F0004303704753B94AB9002908BF00281CBF00
:100200004FF0FF314FF0FF3000F00CB8ADF1080CAB
:100210006DE904CE00F022F8DDF804E0DDE9022308
:1002200004B07047704700BF10F8012B11F8013B74
:10023000012A28BF9A42F7D0D01A7047034611F816
:10024000012B03F8012B002AF9D17047034613F85C
:10025000012B002AFBD1181A013870472DE9F0470D
:1002600086468C460846089E154674461946002B5D
:1002700040F0C1808542B2FA82F245D94AB1C2F15A
:10028000200300FA02FC954094402EFA03F343EA5F
:100290000C0C4FEA154EA8B2230CBCFBFEF80EFB6B
:1002A00018CC08FB00F943EA0C43994528D9EB1810
:1002B00008F1FF3704D2994502D9A8F102072B446F
:1002C000A3EB0903A4B2B3FBFEFC0EFB1C330CFB37
:1002D00000F044EA0344A04214D92C190CF1FF3376
:1002E00004D2A04202D9ACF102032C44241A43EAFE
:1002F00007401EB1D440002334607360BDE8F0872E
:100300004746DDE76346F1E792BB431B01214FEA15
:10031000154EAFB2200CB3FBFEFC0EFB1C330CFBE6
:1003200007F840EA0343984561D9EB180CF1FF3018
:1003300004D2984502D9ACF102002B44A3EB080388
:10034000A4B2B3FBFEFC0EFB1C330CFB07F744EA24
:100350000344A7424DD92C190CF1FF3304D2A74214
:1003600002D9ACF102032C44E41B43EA0040C0E78D
:10037000C2F120039540944020FA03F12EFA03F3D2
:100380004FEA154E9040AFB20343B1FBFEFC0EFBAB
:100390001C10190C0CFB07F841EA0041884522D9D2
:1003A00069180CF1FF3004D2884502D9ACF1020083
:1003B0002944A1EB08019BB2B1FBFEFC0EFB1C1112
:1003C0000CFB07F743EA01439F420ED9EB180CF1EF
:1003D000FF3104D29F4202D9ACF102012B44DB1B56
:1003E00041EA004193E76046E3E76146F7E760468C
:1003F000A4E76346B8E7834206D916B90021084648
:100400007CE7C6E900E0F9E7B3FA83F78FB98342E6
:1004100001D3724508D8BEEB020460EB0303012050
:100420009C461EB9002169E73846FAE7C6E9004C48
:10043000F8E7C7F1200CBB400EFA07F522FA0CF4DE
:100440002EFA0CF1BA401C4320FA0CF3B8404FEAE4
:10045000144901431FFA84FEB3FBF9F809FB183075
:100460000B0C08FB0EFA43EA00439A4540D9E31807
:1004700008F1FF3004D29A4502D9A8F102002344C2
:10048000A3EB0A0389B2B3FBF9F809FB183308FBA5
:100490000EFE41EA03418E452CD9611808F1FF3365
:1004A00004D28E4502D9A8F10203214443EA004058
:1004B000A1EB0E01A0FB02984145CE46434602D374
:1004C00006D14D4504D20138B9EB020E68EB0403A6
:1004D000002EA7D0B5EB0E0261EB030101FA0CFC74
:1004E00022FA07F3F9404CEA0303C6E9003199E721
:1004F0004046C5E74346D9E70A46014601482BF086
:1005000043BD00BF427B030008B5014605482BF000
:100510003BFD0022044B05481A80BDE808402AF044
:10052000F5BC00BF727B0300E45200206C05002084
:1005300010B504462DF0FFFE094BA0FB0330DB0B8A
:1005400043EA404001F002FC21464FF4A072054806
:100550002FF069FBBDE8104003482AF0D7BC00BF6C
:1005600040420F00285400203C05002008B50848F0
:100570002BF00AFD074BD3E8EF1F0331C3E8E21F5E
:10058000002AF8D1BDE8084003480EF04BBF00BF79
:100590008C7B03001C2D0020202D002008B500219D
:1005A00004482AF0A8FC20B1BDE8084040B22AF077
:1005B000CFBC08BD1C2D0020062110B50F482AF025
:1005C00086FC00280BDD00210D482AF094FCBDE8D4
:1005D000104046F2676200230A480EF0CFBF094878
:1005E0002FF08CF840B906482AF08DFC20B9BDE800
:1005F000104005480EF016BF10BD00BFA401030057
:10060000E42C0020D0090020E82C00201FB5124B5C
:1006100004461B68834218D110482AF077FC104822
:100620002AF071FC48B90F4A13680133012B13609B
:1006300003D901210A482AF05EFC204601A909F0ED
:10064000A3F920B9019801F073FB04B010BD064A6C
:10065000136801331360F8E7B428002084050020F4
:100660009429002064280020602800202DE9F04310
:100670000646B3B0384D05AB95E8030083E80300A8
:100680001946304607F06AFC044638B10146334843
:100690002BF07AFC204633B0BDE8F08301461422EB
:1006A0000DA82FF0E7FAAB89A868ADF808306B8A7F
:1006B0000190ADF81030D5F80E00294B039012933D
:1006C00003F1240048331893032301AA149206224D
:1006D00001270793DFF89C90224B03A9CDE916214F
:1006E000CDE9192115900993494634330DF1480895
:1006F00007AD0AA81392CDF820800A970B950C93AA
:100700000AF028FB044610B101461748C0E74FF431
:100710000003D9F800000AA9CDE90B38CDF82880EC
:100720002DF0FFFA044610B101461048B0E7162339
:100730008DF81C30BDF82C303A468DF81D300A9BE0
:1007400029463046089307F077FC04460028A1D0DC
:10075000014607489CE700BF200703009E7B03007B
:10076000C028002058010020D67B0300F97B03003D
:100770000E7C03002C290020014603488368DB69B6
:100780000BB1012218477047A401030010B50121E5
:1007900015482AF0B0FB15482AF0B5FB044620B1F5
:1007A0001348BDE810402BF0EFBB12482AF0ABFB1A
:1007B00070B121460F482AF09EFB0F482AF0A8FB93
:1007C0000E4821462AF0A4FB01F076FD0C48E8E72C
:1007D00008482AF090FB08482AF09AFB07480121B4
:1007E0002AF096FB0748DCE7E42C0020F82C0020D8
:1007F0002B7C0300E02C0020580A0300600A030051
:10080000527C0300667C030010B516482AF07BFB7F
:1008100038BB15482AF077FB044620B11348BDE8E1
:1008200010402BF0B1BB12482AF06DFB60B121469D
:100830000F482AF060FB0F482AF06AFB21460E4859
:100840002AF059FB0D48EAE7012109482AF053FB39
:1008500008482AF05DFB012107482AF04CFB0848B4
:10086000DDE710BD182D0020E02C0020797C03006E
:10087000F82C0020600A0300082D00209C7C030057
:10088000C57C030010B50D482AF03DFBA8B9042132
:100890000B482AF01CFB04460028D4BF002101218C
:1008A00008482AF028FB0849084B0948002CC8BF13
:1008B0001946BDE810402BF067BB10BD182D002075
:1008C000A4010300082D0020F97C0300F17C030043
:1008D000027D03002DE9F041314D324E324F8AB096
:1008E0004FF0FF324FF0FF3328460EF021FC00227C
:1008F000002330462CF0C2FA044618B92B482BF0DE
:1009000043FBEDE700F10C080D2140462CF0E9FA1D
:10091000002138462AF0EFFA10B3EC46244B03F1DD
:10092000280E624618685968083303C27345944616
:10093000F7D12822694640462CF0E4FADFF8888097
:100940001C4B2146B8F8002018682CF03AFF011E15
:1009500012DA19482BF018FB204605F067FABFE7BA
:10096000282268462FF086F9144B15481968013182
:1009700019602BF009FBDCE7B8F80030114A0133AD
:10098000A8F80030136801331360C822B3FBF2F1FA
:1009900002FB1133002BA3D1084A1360A0E700BF6C
:1009A00084050020B40500209C2900200C7D030054
:1009B00056580020B42800205B7D030074280020D6
:1009C0002F7D030070280020E45200202DE9F0471D
:1009D0000027444B444E9D8FD6B04FF0FF324FF06E
:1009E000FF3330460EF0A4FB4FF4A0723F4906A837
:1009F0002FF019F93E482AF086FA18B1A02106A86E
:100A000001F03AFC3B482AF07EFA48B93A482AF00D
:100A10007AFA014620B94FF4A07206A82FF02AF9FD
:100A2000002136482AF067FA88B1354C06A834F917
:100A3000023BB0F9002003EBD37302EBD2725B10E0
:100A4000013103EB6203A02920F8023BEFD12DF026
:100A500072FC2C4B0DF1160A0193282300930023FE
:100A60004FF4A0711A468146CDF808A006A803F0FD
:100A7000C3FF80462DF05FFC0446B8F1000F04D0A0
:100A8000414621482BF080FAA7E7BAF800108D42C2
:100A900003D02A461D482BF077FADFF88880012121
:100AA0001B482AF028FA98F8003023B119482AF098
:100AB0002DFA88F80070184A1368591C11606422D6
:100AC000B3FBF2F002FB1033002B86D1134AA4EBE8
:100AD0000900A0FB0202C00B40EA424210482BF082
:100AE00053FA7AE758010020F4040020285400202B
:100AF000E02C0020182D0020082D0020982900202F
:100B0000E852002056580020797D03009A7D0300AA
:100B10009C290020840500206C28002040420F0002
:100B2000C97D0300F00300202DE9F04FDFF8E8B1A4
:100B3000ADF5297D4FF0FF324FF0FF336C480EF0DA
:100B4000F7FA002108AE0C46B046894669486A4D5E
:100B50002AF0D1F90DF11C0AADF81C100DF11E0799
:100B600095F82920E3B2002A00F0A88035F8021C8D
:100B7000002900F0A38028294FF4A07228BF282163
:100B80002846CDE90179CDF8008003F08FFF0123DD
:100B9000024622B1214659482BF0F6F9002325F8E8
:100BA000029C85F8289085F829900AF8013B08F501
:100BB000A0783035002C7FD06427DBF80010B1FB23
:100BC000F7F907FB1919B9F1000F20D14C482BF0A8
:100BD000DBF94C4DDFF8448195F83330002B7DD1A3
:100BE00095F83210002328461A46994278DC12FB09
:100BF00007F2B2FBF1F240464946D2B22BF0C4F9FB
:100C00003435B9F1000F67D03F482BF0BDF900240F
:100C10009DF81D309DF81C803C4DDFF804C1DFF8C5
:100C200004E105933046A946BCF80030DEF8001018
:100C30009BB201EB8317403101EB83120492B8F1B0
:100C4000000F53D0B0F90020059911B1B0F940A1BF
:100C500052442F4902308A42B8BF0A4647F6FF7114
:100C60008A42A8BF0A464FEA024A1AFA82FA47F8AD
:100C700004AB29F8022B049ABA42E0D1BEF80C204A
:100C80000133B3FBF2F102FB113310349BB2A02C01
:100C9000ACF8003005F1200506F12006C2D1012193
:100CA00014482AF028F91B482AF030F9DBF8003004
:100CB0000133CBF800303DE7012451E70122002148
:100CC000CDE9017208464FF4A072CDF8008003F020
:100CD000EDFE002302465CE7A1467DE7322181E775
:100CE00010F801CB01336244D2B27EE74246ABE753
:100CF0000C0500209829002036290020E67D0300FD
:100D0000117E0300EE570020A5B70300E852002033
:100D10000080FFFFF404002068280020207E0300EC
:100D20006A55002048010020F8B52D4B14465A683A
:100D3000904204D09B68834251D1022600E00126F4
:100D400028482AF0E0F8002849D0002C45D0238A12
:100D500023B18B7983F00203C3F3400330220027D1
:100D6000013E7243204887520127851885F82A7072
:100D700085F82B308A883421EA6232251B4A01FB30
:100D8000062292F8321053543944B1FBF5FC05FBAE
:100D90001C1182F8321009B982F833705BB130232C
:100DA000228A7343282A28BF2822C2520233E168CC
:100DB00018442EF038FF0E48D0E8EF3F0133C0E86A
:100DC000E23F002AF8D1012B09D900212AF093F83B
:100DD000BDE8F84007482AF099B82346BEE7F8BDB9
:100DE000B42800209429002034290020EE57002048
:100DF000302900200C05002008B508482BF0C4F865
:100E0000074BD3E8EF1F0339C3E8E21F002AF8D1EC
:100E1000BDE8084003480EF005BB00BF2D7E03006F
:100E20001C2D0020202D00202DE9F0430021012061
:100E300099B00BF0FDFE00F1744404F5A6043CB13A
:100E4000214692482BF0A0F8204619B0BDE8F08367
:100E50008F482BF099F88F482BF096F88E498F48E1
:100E60002BF092F800F004FB014650B18C482BF0B7
:100E70008BF88C482AF060F830B98B482BF084F856
:100E80000CE000F01DFBF4E74FF48031874829F0B7
:100E9000FFFF014690B186482BF076F885498648D9
:100EA0002EF0D2FB854886492EF01CFC7D482AF0A6
:100EB00043F8D0B983482BF067F825E04FF0E8619C
:100EC0007A4829F0C2FF044610B101467E48E3E7A4
:100ED0007E487F4B436010238360FFF74DFC214623
:100EE0007C482AF008F87C48C8E77C482AF024F8B7
:100EF0000028DFD04FF48031794829F0C9FF01463E
:100F0000C0B178482BF040F80321002308461E2288
:100F100001F064F9014610B173482BF035F82AF05E
:100F20000DF87249724800F027FC044660B3014690
:100F3000704887E74FF4B0116F4829F0A9FF0146C8
:100F400008B16E48DEE7654829F0F6FF08B96C483D
:100F5000B1E74FF4B0116B4829F09AFF014608B190
:100F60006948CFE74FF0E8615D4829F06EFF014620
:100F700008B16648C6E76648664B43604023836015
:100F8000FFF7FAFB644896E700F02EFC044610B128
:100F90000146624856E7624D00F0D8FB61482AF0EE
:100FA000F3FF286C00F07EFE044610B101465E4857
:100FB00048E75E485E492EF047FB3A4829F0BCFFFF
:100FC00070B95C482AF0E0FF0021B5F840200846DF
:100FD00003F0ACFD0446002837D00146564831E7FF
:100FE000304829F0A9FF0028EBD04FF48031534856
:100FF00029F04EFF0028E7D14FF48031504829F006
:1010000047FF0028E0D14FF0B8614C4829F01DFFA0
:101010000028D9D14FF0B861494829F016FF0028BF
:10102000D2D14848484B494C436004238360484B25
:1010300063600823A360FFF79FFB2046FFF79CFB3C
:10104000032144482AF0A0FFBEE70126424B009648
:10105000019310214FF4FA434FF47A50B5F8402031
:1010600003F088FD044610B101463C48EAE602233D
:1010700010214FF47A50B5F8402003F005FE0446E5
:1010800000286FD001463648DCE600BF417E0300F1
:10109000677E0300817E03009E7E0300B07E030016
:1010A000C07E0300A4010300D57E0300700A030084
:1010B000F07E030009080000E82C0020D009002081
:1010C0008D070000667F0300117F03000C2D0020B8
:1010D00085080000082D0020357F030084010300EF
:1010E000680A03008A7F03006D8003003105000059
:1010F0004801002082800300600A0300B07F0300E3
:10110000D37F0300580A0300EF7F03001180030020
:10111000FC2C0020B90500003A80030099800300F0
:1011200058010020B1800300E1800300202D002041
:101130009D050000FB80030054810300800A03002A
:10114000780A03003C2D0020F90D0000302D00200E
:101150006D05000019810300E65200207281030032
:101160009481030092482AF00FFF92482AF00CFF66
:101170004FF000084FF0000903234FF48052CDE9EF
:101180000243CDE90689CDE900448B4B8B49049499
:101190008B480EF06FFA8B4989480EF0F5F9CDE9CE
:1011A00006894FF002084FF48052CDE90248CDE99C
:1011B0000044854B8549049485480EF05BFA8549C7
:1011C00083480EF0E1F98448214632462EF0B8F902
:1011D000204606F02FF8044610B101467F4831E65C
:1011E0007F4F13AE0FCF0FC63B682146336009AA6D
:1011F00013A806F031FE044610B10146794821E6F5
:101200004FF4A0220AAB41F652010CA8CDE90D2300
:101210000C932BF088FE74490CA82BF08EFE16233D
:101220008DF83C30BDF8343000948DF83D300C9B87
:101230004246109341F20923ADF844306B4B0998B4
:1012400012930FA923462CF0E4F9044610B101468D
:101250006748F7E50998FFF709FA044600287FF484
:10126000F3AD09982CF007FA044610B10146614825
:10127000E8E5ADF83C008DF83E000FA9099806F0AE
:101280001BFE044610B101465B48DBE55B4B5C4A44
:101290005C4E5D495E60996003F11407C3E9066125
:1012A000C3E90B61136028339360134609985760B4
:1012B00052F8041B0134896895F83A604968E4B231
:1012C000032CCE70F4D151492A6C0B608A60EA8FEE
:1012D0008A810CAA08F0C2FB044610B101464C48B2
:1012E000B0E505464B4FDFF858814B4E294638464E
:1012F0002AF04AFE4FF0FF324FF0FF3340460DF028
:1013000017FF044610B1014644489BE52946304684
:1013100001352AF039FE032DE8D100F01DFD2546E8
:10132000364EDFF820813E4F294640462AF02CFEFB
:101330001422002113A82EF09DFC0323E9B20039EA
:1013400018BF0121304613AA8DF84D3007F06CFF0D
:10135000044610B10146334874E529463846013544
:101360002AF012FE032D06F11406DDD1002200231F
:10137000CDE9062302234FF48062CDE90243CDE993
:101380000044294B2949049429480EF073F929494E
:1013900027480EF0F9F8284829F0B8FD012000F0A0
:1013A0008FF8014600283FF44FAD24484AE500BFBE
:1013B000B6810300D2810300290B000038600020B1
:1013C000E007002004820300CD09000038700020EF
:1013D000D808002010820300F40400201C820300BF
:1013E000340703003C820300563412006782030076
:1013F0007A820300A3820300D382030078280020AE
:10140000B4280020080100201C0100202401002035
:101410000283030021830300468303002B82030021
:10142000A583030082830300D5080000385C0020F8
:10143000E8060020CA83030084050020D18303004E
:101440006C05002064830300084B1A691268002AA7
:10145000B8BF80F0010028B19B68DB684FF0004105
:10146000024818479B681B69F8E700BFA401030006
:1014700038B5104D2B78BBB90F4C20462DF0E4FE4B
:10148000A8B12269A1681368204643F000431360A5
:101490000B680A4A1F219847034630B9FFF7D4FF6B
:1014A000034610B901232B700023184638BD6FF096
:1014B0001203FAE77E580020A401030001000A008D
:1014C00010B5074B04461B7823B12046BDE81040F9
:1014D000FFF7BABFFFF7CCFF0028F6D010BD00BF62
:1014E0007E5800202DE9F047854F06463B78002BBB
:1014F0004BD0002849D04FF000094C46814D824B1B
:101500002A78011F03EB42183C3051F8042F13B224
:10151000002BB8BF5B429BB212149C42B8BF1C4662
:10152000002AB8BF524292B29145B8BF9146884254
:10153000EBD1DFF810A2DAF80030002B0FDA402CE4
:1015400002DCB9F1400F0ADD4C45ACBF002101219E
:101550004B4622466D48CAF800102AF015FDDAF80D
:101560000030002B70DBDCB2002356F82320002C67
:101570006FD112B228F813200133102BF5D12B783C
:101580000133DBB2092B66D82B70614A61481378AE
:101590006149DFF8B491002B0CBF8046884683F088
:1015A00001031370D9F80030002B00F08C809A688A
:1015B00014885A68A4B2B2F800A09A891FFA8AFA6D
:1015C000564B544519784FD8AAEB0405ADB2002903
:1015D00050D0544577D0DFF864A1DAF8001049B153
:1015E000D9F800302A469B894D482AF0CDFC0023CB
:1015F000CAF80030C446D9F800504FEA841E2B6860
:1016000003EB841303F140096246186859680833F4
:1016100003C24B459446F7D128684022002170440C
:101620002EF028FBAB890134B4FBF3F103FB11442A
:10163000AA68A4B23B4B1480D3E8EF1F0131C3E882
:10164000E21F002A1DD0F7E74C45ACBF002401245F
:101650008AE712148EE700232B70334B1B68002B94
:1016600093D02948984790E70AEB02052D1BADB2AD
:101670000029B0D1092D1FD84022002140462EF06C
:10168000F9FA3B784146002B14BF3046002000F0A9
:10169000BDF9014688B3254B1A680132052A1A6044
:1016A00005D93220B2FBF0F300FB13232BBBBDE8BE
:1016B000F0471F482AF068BC01211E4819702946CE
:1016C0002AF062FC85E74022002140462EF0D2FA43
:1016D000194BD3E8EF1F0131C3E8E21F002AF8D10C
:1016E000164B17481A6801321A60D0E8AF2F1968F4
:1016F0009142C6D929F024FCC3E7BDE8F08700BFBA
:1017000082580020815800206C550020F783030088
:101710007F5800209C2D00205C2D00208058002048
:1017200051840300542D0020602E0020482D0020FD
:10173000818403002D840300582D0020502D0020AB
:101740004C2D00209C0100205C2E00204FF0FF3328
:1017500007B501A9019329F004FC38B9019B5A1C73
:10176000032A28BF4FF0FF33024A136003B05DF82D
:1017700004FB00BF9C01002037B502466C460B46B7
:10178000134903C984E803001046F2B1EBB1114DCF
:101790002A7812B1002003B030BD0F4A10600F4A02
:1017A0002046136000F036FB0028F4D19DF800209D
:1017B0000B4B1A70019B5A1C032A28BF4FF0FF33B2
:1017C000084A136001232B70E4E76FF01500E2E78D
:1017D00048070300845800205C2E0020602E002063
:1017E000825800209C01002070B5324B1B78002BE2
:1017F0005CD0314E3378002B56D1304800F090F851
:1018000000F094F8044628B101462D482AF0BCFBAC
:10181000204670BD014640222A482EF02BFA402275
:10182000214629482EF026FA284B21461C70284BC9
:1018300028481C60284D29F083FB284829F080FBAC
:10184000274829F07DFB2B782648002B08BF002075
:101850001C4900F0B5F8044610B101462248D5E70E
:101860002B782248002B08BF0020174900F0CEF843
:10187000044610B101461E48C8E700F009FB0446C3
:1018800030B101461B482AF07FFB00F0E1F8BFE7CA
:10189000194B2978194A1A4800290CBF11461946D4
:1018A0002AF072FB012333700024B1E74FF0FF34BC
:1018B000AEE700BF8458002083580020E5140000E4
:1018C000BC8403009C2D00205C2D0020805800204B
:1018D000502D0020582D002082580020542D00202B
:1018E0004C2D00201C2E0020D7840300DC2D00206E
:1018F000F384030016850300B6840300B984030053
:1019000045850300012908D138B1044A126822B183
:10191000D0E9000100B901B110477047642E0020E2
:10192000014B1860704700BF642E002037B51D4D75
:101930002B78002B34D14FF0502449F6A633C4F84D
:101940005C350123A361D4F8203153B1002116483E
:1019500001AA2CF016FC002808DA6FF0040003B08E
:1019600030BD002121202DF090FFECE7019B0F4AB4
:10197000197918680AF000FB02460028EDD1012110
:10198000282003F011FE282003F0DEFD084A094953
:1019900009480BF011FE094B9842DED101232B7050
:1019A0000020DCE785580020880A030000800250F0
:1019B00005190000A0010020C80100200000AD0BA7
:1019C0001FB50F4C2378012B13D100B989B1102317
:1019D000CDE9010100220B4801A9ADF80C300BF054
:1019E000BDFE094B984207D102230020237004B0AA
:1019F00010BD6FF01500FAE76FF00400F7E700BFC5
:101A000085580020C80100200000AD0B1FB50D4B0C
:101A10001B78022B13D100B989B11023CDE9010144
:101A2000094801A9ADF80C300BF00CFF074B9842A8
:101A300014BF6FF00400002005B05DF804FB6FF0E8
:101A40001500F9E785580020C80100200000AD0B03
:101A500010B5054C2378022B04D104480BF034FF59
:101A60000123237010BD00BF85580020C80100204D
:101A70004FF050232DE9F74FD3F85C6549F6A633B4
:101A8000B6B2002E08BF1E464FF00008C2464546BB
:101A900000244FF0FF324FF0FF336F480DF048FB4A
:101AA0006E4AD2E8EF3F012B03D1C2E8E14F002993
:101AB000F7D10CBF012727460BD12146684829F0F2
:101AC00049FA684B68481A68684B19682AF05CFA4A
:101AD000DAE7674BD3E8AF4F012D11D004D9AB1E25
:101AE000012B3CD9474609E05E4B604A21461B6802
:101AF000126860482AF048FAA2460125B846C7E7AE
:101B0000584B08F101081B684345EBD840F24B13D2
:101B1000A4EB0A01C1F5C332574DA032554395FBE2
:101B2000F3F505F51B442B46A63405F5DD55534862
:101B3000009406352AF028FAB5F5804F04D35048B2
:101B40002AF022FA0025D9E74FF0502321464D48CC
:101B5000C3F85C452AF018FA0225A6B2CEE7414B3D
:101B600008F101081B684345BCD8474BD3E8AF8F49
:101B70003E4BB4EB0800D3F8009061EB0101002963
:101B80004FEA590B21DB4A463B46FEF7E3FA934501
:101B900001DAA2EB09023D4802EBD2723C494FEA5E
:101BA0006209032D08BF0146434622463948CDF855
:101BB00000902AF0E9F909F5FA73B3F57A7F12D9A2
:101BC000494635482AF0E0F998E7B8EB040061EBA4
:101BD00001014A463B46FEF7BDFA5A45C8BFA2EB93
:101BE00009025242D7E740F24B13234C04FB09F49D
:101BF00094FBF3F43444B4F5004F1BDD4BF6FE7355
:101C00009C421ADCA4B24FF05023022DC3F85C456D
:101C100089EAE973A3EBE97312D10F2B3FF76EAF9B
:101C200001210F4829F096F921461C482AF0ACF909
:101C3000032563E74FF40044E5E74BF6FF74E2E762
:101C4000202BF5DD0021064829F084F94946144887
:101C50002AF09AF976E700BFDC040020D8010020C2
:101C6000682E0020D001002085850300D4010020CB
:101C7000702E0020AF85030018FCFFFFDC850300F9
:101C80000D860300308603006C2E0020778503004C
:101C90007E85030052860300758603009486030048
:101CA000AE86030010B5184B421E9A42014688B01A
:101CB00005D8164CB4FBF0F200FB124434B11448C2
:101CC0002AF062F96FF0150008B010BD114B1860D2
:101CD000114B12481A602AF057F900220023CDE96F
:101CE000062301234FF48062CDE90243CDE900448D
:101CF0000B4B0C4904940C480DF0BCFC0B490A48F2
:101D00000DF042FC2046DFE79F860100A08601001F
:101D1000CC860300D4010020D0010020EA86030015
:101D2000711A000038800020000A00200A87030092
:101D3000014608B5034829F00DF9BDE808400248FE
:101D40000DF0BCB9702E0020DC04002001460148D3
:101D500029F000B96C2E002008B50121034829F0B4
:101D6000F9F8BDE8084002480DF0A8B9D8010020F4
:101D7000DC04002010B588B00DF1070302930123A5
:101D80000022CDE90513039307238DF807008DF892
:101D900010208DF81C3007489DF81C30826843F0F5
:101DA00002038DF81C3094681823022202A9A04770
:101DB00008B010BD840203001FB502238DF8000097
:101DC0008DF80110CDF804D002938DF80C3007483F
:101DD0009DF80C30826843F002038DF80C30946853
:101DE0001823012201A9A04704B010BD84020300FA
:101DF00010B5014604461020FFF7DEFF30B921463A
:101E00001120FFF7D9FF08B9014B1C7010BD00BFAE
:101E1000F103002037B5054650B317482DF014FAEA
:101E200038B916482AF0B0F86FF01204204603B013
:101E300030BDFF200DF10701FFF79CFF044620B1E4
:101E400001460F482AF0A0F8F0E79DF80710422954
:101E500005D00C482AF098F86FF00404E6E7012357
:101E60002B706B60084B187008482AF08DF8DDE77E
:101E70006FF01504DAE700BF840203001387030044
:101E80002E870300508703008658002075870300C3
:101E900037B55C4D297819B10024204603B030BD18
:101EA00017208DF80710FFF787FF044620B1014681
:101EB00055482AF069F8F0E710210520FFF77CFF6C
:101EC000044610B101465148F3E780210620FFF790
:101ED00073FF0446014608B14D48EAE70720FFF7C3
:101EE0006BFF044610B101464A48E2E7002140F684
:101EF000CD402DF0CAFC20460DF10701FFF73AFF57
:101F000010210820FFF758FF044610B1014642484F
:101F1000CFE710210920FFF74FFF0446014608B123
:101F20003E48C6E70A20FFF747FF0446014608B1CE
:101F30003B48BEE70B20FFF73FFF044610B10146C8
:101F40003848B6E730210C20FFF736FF044610B1C1
:101F500001463548ADE733210D20FFF72DFF04463C
:101F600010B101463148A4E734211220FFF724FFC5
:101F7000044610B101462E489BE72E211320FFF79F
:101F80001BFF0446014608B12A4892E71520FFF7D7
:101F900013FF044610B1014627488AE71021142098
:101FA000FFF70AFF044610B10146244881E70221E9
:101FB0001620FFF701FF044610B10146204878E7DC
:101FC000204B1878FFF714FF044610B101461E4855
:101FD0006FE78F211720FFF7EFFE044610B101468F
:101FE0001A4866E72E2333213422194829F0CCFF02
:101FF0009DF807108B0702D4164829F0C5FF01236E
:102000002B7049E786580020A7870300CC87030080
:10201000EE870300168803003F88030065880300ED
:102020008B880300B3880300D6880300F888030078
:102030001A8903003F89030064890300898903002A
:10204000AD890300F1030020CC890300EC89030073
:102050000F8A03007B8A0300F8B500210646152786
:102060006FF00042114B124D1B7835F8134004EB12
:10207000400424B235F9023B1B1B002BB8BF5B4266
:102080009342B8BFCFB201F10101B8BF1A46282967
:10209000F0D13846FFF7ACFE044620B93A46314647
:1020A000044829F071FF2046F8BD00BFF10300206D
:1020B000603C0300B88A03000023084A1370084AF2
:1020C0001360084A1360084AD2E8EF1FC2E8E03FF5
:1020D0000028F9D1054829F057BF00BF88580020D3
:1020E000782E0020742E0020082D0020D48A0300B2
:1020F00038B50A4600EB410504460021A5420DD142
:10210000B1F5FA7F2C4C13DA2378012B3CD0022B4B
:1021100046D0002B3DD1294B002239E034F9023B57
:10212000002BB8BF5B421BB29942B8BF1946E5E726
:102130000146234800F0DAF82378012B22D0022B45
:1021400028D033BB0028E6DD1C491E480A68006819
:10215000013282420A601CDB01220B601A4B2270A2
:10216000D3E8EF1FC3E8E02F0028F9D1FFF7F4FD13
:10217000164B186808B10CF0A1FFBDE838401448B0
:1021800029F002BF002804DC022301222370114B36
:102190001A6038BD002803DD012323700D4BBBE717
:1021A0000C4A1368013313600B4A12689342F0DB48
:1021B000BDE83840FFF780BF88580020782E002007
:1021C000882E0020802E0020082D0020842E002044
:1021D000E38A0300742E00207C2E00202DE9F341B9
:1021E0001C4C054620460E461746984600F030F92E
:1021F00068BBC4F8F0022946204628F0B5FE28B195
:102200006FF01504204602B0BDE8F08120464FF47F
:102210007A5128F0B3FE04460028F1D10E4B324625
:102220001E600E4B29461F600D4BC3F800800D4BFE
:1022300018700D4B18600D4B18600D4B18704FF453
:10224000FA730C4800933B4629F09EFEDAE76FF0E4
:102250000404D7E7882E0020802E00207C2E00204A
:10226000842E002088580020782E0020742E002014
:1022700087580020F38A03009F29034670B512D8BF
:102280000B4C0C4D26784A0001FB06F0194605EB75
:1022900040002DF0C8FC16B90123237070BD002347
:1022A000A02128462370BDE87040FFF721BF00BF82
:1022B00087580020AC56002010B5084C2378013B0D
:1022C000012B01D8FFF7F8FE0023054A23701360A5
:1022D000044A1360044A137010BD00BF88580020E0
:1022E000782E0020742E00208758002038B508B9B9
:1022F0002AF0B0FD0A24D0F8F0520D4B53F82530E7
:102300005C43A24207D014245C43A24203D01E24A3
:1023100063439A4209D1074B53F825309847002868
:10232000E6DB14BF0120002038BD4FF0FF30FBE793
:10233000C00A0300B00A0300032966D8DFE801F0F1
:102340000220374E324B1A689B88C0F8C422A0F88E
:10235000C832304B1A689B88C0F8CA22A0F8CE3227
:102360002D4B1A689B88C0F8D022A0F8D4322B4B92
:102370001A689B88C0F8D622A0F8DA32002070478D
:10238000274B1A689B88C0F8C422A0F8C832254B96
:102390001A689B88C0F8CA22A0F8CE32224B1A686D
:1023A0009B88C0F8D022A0F8D432204BE0E7204B25
:1023B0001A689B88C0F8C422A0F8C8321D4B1A685E
:1023C0009B88C0F8CA22A0F8CE321B4B1A689B88A3
:1023D000C0F8D022A0F8D432184BC9E7184B1A68BD
:1023E0009B88C0F8C422A0F8C832164B1A689B8894
:1023F000C0F8CA22A0F8CE32134B1A689B88C0F8E6
:10240000D022A0F8D432114BB2E74FF0FF30704722
:102410000A3D0300043D0300FE3C0300F83C0300BA
:10242000F23C0300EC3C0300E63C0300E03C03000C
:10243000DA3C0300D43C0300CE3C0300C83C03005C
:10244000C23C0300BC3C0300B63C0300B03C0300AC
:1024500010B5044610B94FF0FF3010BD0123002124
:102460000360C0E94511102204302DF003FC04F193
:10247000140029F017F92D4B04F1B40203F11801EF
:1024800053F8040B8B4242F8040BF9D1284B04F1AA
:10249000CC0203F1180153F8040B8B4242F8040BF1
:1024A000F9D1244B04F1E40203F1180153F8040BB1
:1024B0008B4242F8040BF9D11F4B04F1FC0203F1EB
:1024C000180153F8040B8B4242F8040BF9D142F285
:1024D000107104F5ED7304F29A2223F8021F93425F
:1024E000FBD10021C02204F58E702DF0C3FB00212A
:1024F000124B2046C4E9A733C4F8A812C4F8AC12A2
:10250000A4F8B012C4F8B212C4F8B612A4F8BA1201
:10251000C4F8BC12C4F8C012C4F8A432FFF70CFF10
:10252000002898D12A23C4F8EC3296E7583D0300DE
:10253000403D0300283D0300103D030040064006D7
:102540002DE9F04F00F53777A9B03B461646044613
:1025500028F016FE18220021A4F8E80205461CA85F
:102560002DF088FB1822002122A82DF083FB502E8D
:1025700022D1B4F9C4320893B4F9CA320193B4F940
:10258000D0320693B4F9D6320A2D07932EDD4FF0E0
:10259000000B22AB0493AE4B0DF170080993CDF8FC
:1025A00014B0CDF808B00025029B2E46A7F5377A67
:1025B0004FEA4309039529E0A02E0BD1B4F9C632A6
:1025C0000893B4F9CC320193B4F9D2320693B4F93A
:1025D000D832D9E7B4F9C8320893B4F9CE320193AE
:1025E000B4F9D4320693B4F9DA32CDE7B4F918313C
:1025F000002B00F31A8200260023A4F81A3130467B
:10260000266029B0BDE8F08F0123039310ABBAF91F
:10261000E420BAF9B4104B44B7F9000028F070FE7A
:102620008C4B0CAA33F90930BAF9CC105843039BF0
:10263000064442F8230016ABBAF9FC204B44B7F924
:10264000000028F05DFE844B039A33F909300AF14B
:102650000C0A58430EAB43F82200054409F10C095B
:10266000002AD1D0002E40F0DA80002D00F0E58065
:1026700085EAE573B3FA83F31F22013B1BB2099984
:10268000D21A31F9023B0991059902FB0313059314
:10269000069B46F30F31B3EB820FB8BF4FF0010B2F
:1026A000002940F3CD800C986C4B03EA800028F0A1
:1026B0007BFFA8F80000C0F58040A8F80C0045F3A7
:1026C0000F3100290ADD654B0E9803EA800028F0DF
:1026D0006BFF049B1880C0F580409881029B08F135
:1026E000020801330293049B023702330493029BD6
:1026F000062B7FF458AF059B079A4FF000089342D2
:10270000B4BF5E464BF00106554B36B20A93554BAB
:1027100004F1B4050993544B07934FF448534246D0
:10272000B5F928122046049328F052FE4FEA4803D8
:102730000693484B074603EB48031A4600212846F8
:10274000029328F03AFC9A224FF4207A8011C0EBD1
:10275000071010FB02F0C0F34F230593434BC8EB67
:1027600048270393049BFF01534407F510571BB2FE
:10277000DDF81890A5F1B40BBFB20B93BBF9FC3098
:10278000BBF9B400BBF9CCC0BBF9E4100493002E34
:102790006ED0059B41F69A1E184400B25045B8BF52
:1027A00050463BB29842A8BF184622AB39F90310F5
:1027B00016ABABF8B40039F90300039A01FB00F340
:1027C000DB1213FB0EF35B150133B2F900E00CEBE7
:1027D00063031BB27345B8BF73460B9A0CF1040C2C
:1027E0009342A8BF1346ABF8CC30B5F82832BDF8F9
:1027F0001020A3EBEC0313FB00F3DB108810A3F510
:102800008053584302EB820100114900002809B2AD
:1028100063DC4042049228F0C7FE404260E086EA52
:10282000E672B2FA82F2013A12B23DB185EAE5737C
:10283000B3FA83F3013B1BB221E71F221F231EE7DC
:102840004FF48043A8F8003039E74FF4407A95E719
:10285000C83D0300883D0300703D030000C0FFFF3A
:10286000A03D0300B03D0300BC3D0300AC3D0300B0
:1028700040F28F2E1CAB33F90930059A049310AB4C
:1028800039F903C0049B03FB0CF3DB1213FB0EF3BB
:1028900000EBA35313441BB25345B8BF53460FFA82
:1028A00087FE7345A8BF7346ABF8B430B5F828323D
:1028B000A3EBE00313FB0CF30498DB100230801051
:1028C000A3F5805358438013002800F39C804042B6
:1028D000049128F069FE404298E0049228F064FEDA
:1028E00000B2049A803040F30720024412B2B2F5DD
:1028F000C07FB8BF4FF4C072ABF8FC20039B803799
:102900000233BAF5407F0BF10C0BBFB2039309F110
:102910000C099AD10021029A284628F04EFB069B0A
:10292000454A05F1180A13441A4607460021504645
:102930009B4628F042FB079BC0F34F22814633F9A8
:10294000020BC7F34F210793531A1BB2834215DAC8
:102950000144891A09B201EB410701EB87015A468C
:1029600041F38F01504628F028FBB91049428146B7
:10297000029A284609B228F020FB0746099A32F944
:10298000023B09924FEAE91249F3CF194B4508DAA5
:10299000298B9A1A11FA82F12983A98C11FA82F2F1
:1029A000AA840A98F91130F9022B47F3CF179742FE
:1029B0000A9008DD521A298811FA82F12980A98922
:1029C00011FA82F2AA8108F10108B8F1060F05F1A7
:1029D00002057FF4A4AED4F814310133C4F81431E5
:1029E000002E3FF403AEB4F81A3101331BB2062BAC
:1029F000DBBFA4F81A31089BA4F81A810193019B4C
:102A0000A4F81831FBE5049128F0CEFD00B204993A
:102A1000203040F38910084400B2B0F5C07FB8BF41
:102A20004FF4C070ABF8E40068E79BB29E1C013B1A
:102A300036B2A4F81831DFE5703D03002DE9F04708
:102A400043F6D72C002540F6EA3642F2984A491060
:102A50008D4215DB0646002740F2353C41F2DE7E12
:102A600043F25E088F4234DB002547F6FF7C3A4E86
:102A700002F1020E8D4200F1100053DBBDE8F08739
:102A800050F83580D3F804E01F68A8EB0E0404F575
:102A90000054A41306FB0474C3F80080D3F8088024
:102AA0005C60A4EB08095FEAA93948BF09F1010994
:102AB0000AFB09EEDC68AEEB0404A41348BF013442
:102AC0000CFB0484C3E902E4641040F8354001358E
:102AD000BEE7D6F804A0D3F814900137AAEB090496
:102AE00004F50054A5131C69C3F810A00CFB0544A1
:102AF0009D695C61A4EB050A5FEAAA3A48BF0AF146
:102B0000010A0EFB0A99DC690836A9EB0404A41338
:102B100048BF013408FB0455C3E906956D1046F81B
:102B2000045C9FE750E90234234450E904473C44E5
:102B3000E413B442B8BF3446DB136445A8BF64460F
:102B4000B342B8BF33466345A8BF634622F8154079
:102B50002EF8153002358DE70080FFFF2DE9F74F85
:102B60008946019240F20A38002240F23F4C45F675
:102B7000F52143F2672440F2B916DE27DFF894E02E
:102B8000234D09F1040A019B9A4202D103B0BDE82A
:102B9000F08F03680C3008FB03FB50F8083C0BF582
:102BA000804B0EFB03BB50F8043C0CFB03BB0368DB
:102BB00001FB03BB436804FB03BB836805FB03BB4A
:102BC000C36806FB03BB036907FB03B349F8323054
:102BD00050F8083C07FB03FB50F8043C0BF5804B16
:102BE00006FB03BB036805FB03BB436804FB03BB95
:102BF000836801FB03BBC3680CFB03BB03690EFBCB
:102C000003BB436908FB03B34AF832300132BAE729
:102C100039F1FFFFFEF7FFFF2DE9F04F91B0009370
:102C200002F004030293C2F3C20301338407054692
:102C30000E46DDF868800392059340F0BB81041DC9
:102C400030B1072909D86FF01B0011B0BDE8F08F33
:102C500001F007063444C6F10806009B4FF0000956
:102C60004FF0040A591E4FF0FF334F460193CB46F5
:102C70005346CDF810900DB10098206005980028BB
:102C800000F3E8809848009A824203D39748824232
:102C9000C0F0E080039AA4EB050E92074FEA9E0075
:102CA00000F103810F2F00F2B180002D00F00581AB
:102CB00007F140020DEB020C019A0CF8200C0CF805
:102CC000102C049801300490E7E07A285DD84B2856
:102CD0000ED8472859D829282DD8252852D054D87D
:102CE00020287AD02338D0F1000B4BEB000B74E096
:102CF0004C382E2849D8DFE800F07048484848484A
:102D00004848484848484B4848484848484848592F
:102D1000484B4B595959704B6D487048184B1848DF
:102D200048827F4B48484B487F0000204FF0000B03
:102D30004FF0040A38E001222A38C0B202FA00F04B
:102D400010EA0E0F49D110F0625C2FD110EA020B8D
:102D500043D06046013C5444B4FBFAF40AFB04F44B
:102D6000002D61D0A3EB050CA444B4453FF66BAF36
:102D7000002868D1042B47D158F8043B2360042372
:102D800004342AE0019A013A01924FF0000B24E04A
:102D900011F8010C6C2834D1002011F8023C834654
:102DA0006C2BC5D14FF0080A5346D3E708F107084A
:102DB00028F00708073424F00704F8E802AB35B11F
:102DC00006982044B0423FF63EAFC4E900AB4FF056
:102DD000000B08344FF0080A534611F8010F002881
:102DE00078D0BBF1000F7FF470AF2528F5D14FF0FC
:102DF000010B019B013301934FF0040AECE75846A5
:102E000094E700208346A5E7082B02D06FF0150059
:102E10001BE708F1070828F00708B8EC027B84EDEF
:102E2000007B08230834D8E768B9042B02D108F1E5
:102E30000408A4E7082BE9D108F1070828F00708DF
:102E400008F10808EDE705980138059058F8040BDB
:102E5000009010E7039A900720D54FF0010CA4EBE7
:102E6000050E4FEA9E00BEF5007FCFD20F2FCDD8C2
:102E7000F5B107F140020DEB020E019AC0B20EF857
:102E8000200C0EF8102CBCF1000F3FF41AAF60F0CC
:102E90007F000EF8200C09F101090137C5F1080285
:102EA0004FF6DA7E0434069297E74FF0000CDAE72B
:102EB000BCF1000F01D00136EFE7029A0236002A7A
:102EC000EBD10098CDE90631FDF7C0F9DDE9063117
:102ED0000644E2E7631BB3F5806F97D245B9A6F1CC
:102EE0000804E018B1E600BF94000300F4C1030039
:102EF000029A9B0828602B709DF81030C2B1EB70CD
:102F000085F80290B9F1000F05D0002208A8C5F19C
:102F1000010C97420ED14FF0000AC5F101030DF1EB
:102F2000200801930DF1300B574512D1601B8CE640
:102F30006B70E5E710F8013B190608D50CEB040EA1
:102F4000B64503F07F033FF67EAE04F8013B013245
:102F5000DFE7B9F1000F03D098F90020002A17DB52
:102F6000029BD3B11AF80B2004F8012B0022019B1D
:102F700018191044B0423FF666AE98F80000009968
:102F800004F8010B204603922CF04DFE039A1444E2
:102F90000AF1010A08F10108C6E798F8002055F87F
:102FA00022300093029B009845F82230FDF74EF93D
:102FB000421CDCE76FF00D0047E600BF2DE9F04F43
:102FC00097B000AFD7F880B03B62CBF3C0030446A4
:102FD000894690F802A0FA62BB6141B94578007851
:102FE0000AEB800020444D4517D8A0EB0409E37894
:102FF000FB61BAF1000F02D01BF0010F16D1FB6983
:1030000053BBFB6A1BB1494620463A6A98474D4676
:1030100028465C37BD46BDE8F08F461C3046FDF7BC
:1030200015F90130304409F10109DCE762682378C1
:103030007A62FA6A9900796104EB8301002A40F010
:1030400001810E464FF000084D4601EB0A094E453E
:103050004CD101EB0A0610E01BF0020FD1D023780F
:103060009A007A61626804EB83017A62FA6A002A44
:1030700077D14D46904601EB0A061BF0050F0CBFB9
:1030800002230123FB62FB6906EB430A0BF00203F8
:10309000BB625645BCD016F8021B16F8013C54F82A
:1030A0002390994B994502D3984B994536D3BB69E8
:1030B000002B40D0786A28F03EFF00283BD0E9463C
:1030C0008AB06A46924B53617B6AC2E906314FF47B
:1030D000007313848F4B42F8103F00234FF41251BA
:1030E0008D4801F0B7F8023DCD46D2E716F8013B16
:1030F000F96254F82300FDF7A9F8D7F88430F96A8B
:1031000001304BB1D7F8883098453EBFD7F88430AE
:1031100023F8180008F10108054498E7BB6923B1BA
:10312000786A28F008FF0028C9D11BF0010F05D1EB
:10313000FB6AED1AADE7BB6A002BAAD04846FDF743
:1031400085F8D7F8843053B1D7F8883098453FBF19
:10315000D7F88420431C22F8183008F101080544F0
:1031600097E7BAF1000F73D01BF0040673D0D04676
:10317000002607F1480052463B61B9622CF053FD2E
:10318000B96A3B6901EB0A02BA62FA69F96952004D
:10319000FA60BA6A02EB41023A610BF00202BA60CD
:1031A0003A69B96A8A4258D162781BF0020F18BF97
:1031B00000217A6208BF4FEA5801B2181BF0010FD4
:1031C000D2B240F09F801BF0040F14BF4046002095
:1031D000BB616270A070E17020463A6A7969FB6A4F
:1031E0009847051EFFF614AFBB69414623707B6A02
:1031F0003A6A6370FB6984F802A0E37007F1480043
:10320000FB6A9847B0F10008C0F2BA807B69A9EB6D
:103210000A01C91AFB683A6AC91AD7E90A0398472A
:103220000028C0F2AF804FF0000BA84408EB000567
:1032300007F1380AB34571D300213A6A0846FB6AA0
:103240009847E5E656464FF0000807F1380092E748
:103250005646D04696E7B04694E7BA6A12F8021B83
:1032600012F8015CBA6254F82500274A904202D352
:10327000264A90421ED3BA6932B1786A7B6028F040
:103280005AFE7B6800288BD1BA6802BB08F128027D
:1032900007F1300C08F10100944407F1580208F1DD
:1032A000020852FA80F00CF8101C5FFA88F800F857
:1032B000105C75E7BA693AB1786A7B6028F03BFE2A
:1032C0007B6800287FF46CAF1BF0010F09D006F17A
:1032D000280207F13000711C161806F8205CCEB2E7
:1032E0005EE71BF0040F3FF45BAF08F1280207F123
:1032F000300008F1010102EB000808F8105C5FFAE9
:1033000081F84DE7002063E794000300F4C1030057
:10331000368B030004000001340603001BF80A305A
:1033200054F8239087F83730D7F884302BB3D7F888
:1033300088309B4521D2D7F8843033F81B80012197
:103340003A6AFB6A07F13700984700281ADB054400
:10335000B8F1000F06D14846FCF778FF00F10108EC
:103360001FFA88F8414648463A6AFB6A984700289F
:1033700008DB05440BF1010B5CE74FF00008DEE7CA
:10338000454645E6054643E6014B1860704700BFD9
:10339000DC01002080B505460E46174698460CF025
:1033A0002FFC03462CF06CFE0446DFF818904246D2
:1033B00049F8003039463046A84754F8090002F071
:1033C00049F800BF080000002DE9F047058B0446CE
:1033D0002807904611D4022905F0070540F0CC805B
:1033E000204629F056F878B10138218B042811D8ED
:1033F000DFE800F0C2106D85950001290CBF45F093
:10340000100545F02005258388F31188BFF36F8FE1
:10341000BDE8F08701F0070AAA4500F0A580002763
:10342000B9463E46A368002B00F0BC8041F008017D
:10343000218388F31188BFF36F8FA168002900F002
:10344000BA800D68002900F0B68033465246204607
:10345000D1F80480C047002D76D02B6829461D4640
:10346000F0E701F007035A1F012A1BD8002221F0C0
:103470000701062B276889B2C4E9002209D13B461F
:1034800003E0628B013262831B68002BF9D141F0AB
:1034900002012046218328F0FCFF00287AD041F069
:1034A000200176E0042B0AD121F0070189B22046E1
:1034B000218328F0EEFF10B141F020012183218B00
:1034C00001F0070AAA454FD00027B946AAE72369A9
:1034D00021F0070141F00601062DD3F80090218369
:1034E0002DD1B9F1000F3FD041F00801218388F3BD
:1034F0001188BFF36F8F20463949C84729E021F072
:103500000701236941F0040189B2042DD3F8049026
:103510002183E6D000274FF0040A3E4682E721F0DF
:103520000701236941F0050189B2052DD3F8089000
:103530002183D6D000274FF0050A3E4672E70027C8
:103540004FF0060A3E466DE72B4687E7B9F1000FBC
:10355000D1D1EFF31188202383F31288BFF36F8F4B
:10356000238B23F008032383258BEA062ED525F031
:103570001003238305F007056669218B002EBFF633
:1035800070AF00232768C4E9003321F0070141F040
:1035900001012183218B4FF0000901F0070AAA45A0
:1035A0007FF440AF002F9CD041F00801218388F3C5
:1035B0001188BFF36F8F002FC8D03D68394633465E
:1035C0005246204628F091FF2F46F4E7AB067FF5E0
:1035D0001BAF25F02003238305F0070500E700BF9C
:1035E00017C5020010B530B90B480C4929F05DF839
:1035F0006FF0150010BD836833B90748084929F0FA
:1036000054F86FF00400F5E71B6813B1BDE81040F3
:1036100018471846EEE700BF5C060300EA8B03007C
:10362000FB8B030010B530B90B480C4929F03DF86D
:103630006FF0150010BD836833B90748084929F0B9
:1036400034F86FF00400F5E75B6813B1BDE8104093
:1036500018471846EEE700BF5C060300EA8B03003C
:10366000FB8B030070B508B101B132B90B480C49AE
:1036700029F01BF86FF0150070BD84680CB1E56887
:1036800035B90648074929F010F86FF00400F3E750
:1036900041F8040BE368BDE8704018475C0603007E
:1036A000198C0300FB8B030010B5044630B9104899
:1036B000104928F0FAFF6FF0150010BD006830B90E
:1036C0000B480D4928F0F1FF6FF00100F5E7836822
:1036D0000BB11B6933B90648084928F0E6FF6FF0C3
:1036E0000400EAE7616898470028E6D12060E4E733
:1036F0005C060300458C0300568C0300FB8B030023
:1037000070B51346044630B91048114928F0CDFF72
:103710006FF0150070BD006830B90C480D4928F0F5
:10372000C4FF6FF00100F5E782680AB1956835B90A
:103730000648094928F0B9FF6FF00400EAE70A4695
:10374000AC466168BDE87040604700BF5C0603009E
:10375000458C0300568C0300FB8B0300034A13685F
:103760000BB9526813600020704700BFE0010020D1
:1037700030B50C460E4985B00291D0F8D4110546FB
:10378000CDE9003100F1F0014FF0FF3320460AF09F
:1037900017FF50B9012384F86C30D5F8D03123B12C
:1037A000204605B0BDE83040184705B030BD00BF29
:1037B000A3C7020038B50C461146054628F0F3FFB2
:1037C000034638B92846044928F0EDFF0346002097
:1037D000236038BD0120FBE7A6B703002DE9F04FB9
:1037E00001238146056946688FB005F57B77D7E8E8
:1037F000EF2F002A03D1C7E8E13F0029F7D10CBF22
:103800001A46002240F0BB80B368B16A05F5F8782B
:103810001C1F104629F04EF8844279D8013A00F076
:10382000A880B2FA82F24FF00044D4407268204679
:10383000073222F00302C5F83C22B16A29F03AF8B7
:10384000C5F84002B36A40466343033323F00303E1
:1038500002EB4302230103EB4403093323F0030388
:1038600003EBC403C5F834221A440832C5F83022E9
:103870007368C5F83842C5F82C32424BC5E9AD63D0
:10388000316800F0F1F9044600283FD1D9F810B0B2
:10389000D9F804A0D9F800300BF5347905900493D9
:1038A0004846DAE90734012B08BF103C2BF013FF20
:1038B000DAF82400344904AB009301EB802123465D
:1038C00048464FF480620BF0B3FD2021DAF8243033
:1038D0002E4A06A825F008FC06A948460BF054FE1F
:1038E0002B490BF530702BF0AFFEDAE90501836848
:1038F0005C684CB15B46274AA047044630B9DAE918
:10390000050183681B692BB96FF05704002129E07A
:1039100001327EE70122984704460028F6D11E4B6B
:103920002846C5F8D0311D4BC5F8D4311C4B039344
:10393000D5F840320293D5F83C32CDE9008305F545
:103940001173B26AD5F8E81300F056F9044600285E
:10395000DCD105F1F0000AF0D9FE0028C5F8F0032B
:103960000ADB0221384628F052FF20460FB0BDE89E
:10397000F08F6FF00B04C9E76FF01504C6E76FF026
:103980007704F2E7F9C70200388400207B8C03003B
:10399000DFC70200D3C70200A53900008BC90200AF
:1039A0003FC8020013B5044640B100230122CDE90F
:1039B0000032074BD0E909120AF0D6FD236F1B68CD
:1039C00023B1606F02B0BDE81040184702B010BDCF
:1039D000A6B7030013B504460846216901F57B71BB
:1039E000D1E8AF1F022910D193B1A0B10121CDE9D7
:1039F00000311346D0E909120AF0B6FD074B984290
:103A000008BF6FF00B0002B010BD6FF00F00FAE7B7
:103A10006FF04C00F7E76FF00100F4E72EF8FFFFBE
:103A20002DE9F34789461546066906F57B73D3E809
:103A3000AF3F022B64D1136823B96FF0150002B0B9
:103A4000BDE8F0871B78002BF7D0D6F8E8A3BAF1D1
:103A5000000F36D106F5EC774FF0FF324FF0FF3311
:103A600038460BF031FA30462A6801A9FFF7A2FE6A
:103A7000019C80461CB9384628F0C7FEDDE705F1F9
:103A800008032367AB6984F86CA06367646460B162
:103A9000384628F0BAFE21463046A36E2A68FFF762
:103AA00067FE0020C9F80040C9E71F22296804F119
:103AB00048002CF009F9384684F8678028F0A5FE04
:103AC000EFE73046104928F06EFE04460028B4D0D7
:103AD000002705F108030367AB6980F86C70436742
:103AE00040641F22296848302CF0EEF8224601215C
:103AF000304684F8677000F061F80028D1D09CE768
:103B00006FF00F009BE700BFA6B7030010B50C468F
:103B1000006900F57B73D3E8AF3F022B0FD189B169
:103B20000A4900F530702BF0BBFD20462BF0B6F8AB
:103B30007822002120462CF09DF8002010BD6FF067
:103B40000F00FBE76FF00100F8E700BF7C310020B9
:103B50002DE9F04F05460E4690460027D0F8C4A048
:103B600085B0AAF5BE7421463046FCF75DFBE0B98E
:103B7000114BA4F1480B0293DAF810303246CDE92C
:103B8000008329464FF0FF335846AAF5E2790AF040
:103B900017FD60B97823012203FB079383F86C209B
:103BA000DAF80C300BB158469847783417B105B0A5
:103BB000BDE8F08F0127D6E7B9C902001FB514464A
:103BC00090B18AB1012912D10A4B00F1F0010293A0
:103BD000D0F8D431483201934FF0FF3320460093A0
:103BE0000AF0EEFC04B010BD6FF01500FAE70020FB
:103BF000F8E700BFB9C902002DE9F04387B00E46CF
:103C0000DDE90E811446DDE910251F4630B329B3E6
:103C1000DFF850C000F1F009002D08BF65469EB9DD
:103C2000CDE9034400F5E274204605962BF0CEFA68
:103C300003ABCDE900432A463B46414648460AF0DD
:103C4000DDFD07B0BDE8F083002241460E924846F4
:103C50002A4607B0BDE8F0430AF020BF6FF0150018
:103C6000EFE700BF513B0000F0B504462B4A87B098
:103C700004AB0E4692E8030083E80300002C49D011
:103C800018460AF077FB0546B0B94FF0FF33E16CF8
:103C900004F15407A163CDE9010000933846236D78
:103CA00004F138022AF0AAFCA06C28F0B4FEC4F893
:103CB000BC0020B96FF00B05284607B0F0BDA06C22
:103CC00028F0A9FEC4F8C0000028F3D0236CD4F873
:103CD000BC10C4F890300423C4F89430C4F8AC305D
:103CE0000223E3620E4BB4F84820C4F88C10616CD8
:103CF000236204F18C03C4F8A070A4F89820C4F8DF
:103D0000B870C4F8A810A4F8B020C4F8A400A66144
:103D10002363D1E76FF01505CEE700BF500703001E
:103D2000FC0A03002DE9F047044607464FF001095D
:103D3000DFF8508014B93846BDE8F08794FAA4F54E
:103D4000B5FA85F509FA05F32E0108EB05156FEABA
:103D5000030A24EA03042B7B002BEBD058F806302F
:103D60001B694BB94644736804222846196807EA60
:103D70000A0728F0B8FEDDE7284698470028D9D181
:103D8000F0E700BFC406030030B5002289B00F4938
:103D90000F482BF04EFE002200230024CDE906231D
:103DA0000E230C4DCDE903344FF440722846CDE983
:103DB0000144094B094900940BF05CFC0849284672
:103DC0000BF0E2FB204609B030BD00BFE53D00002E
:103DD000F01F0020F00E0020F9400000388800207D
:103DE000878C030001480BF069B900BF240500204F
:103DF0002DE9F047804621480F4628F058FE064638
:103E0000002833D000252846BDE8F087237B83B106
:103E10002368DB680BB120469847636883F80690F7
:103E200023681B69D3B9636804222046196828F007
:103E30005AFE013610345445E8D3B8F1000FE2D0F1
:103E4000002DDFD02846FFF76DFF0546002FF7D085
:103E500000214FF4A4702BF018FDF1E7204698479D
:103E60000028E0D009FA06F31D43E2E705464FF0CB
:103E70000109034CDFF80CA0DDE700BFB4310020DE
:103E8000C4060300D4060300014B53F8200070471A
:103E90003C0B030008B5034608462BB1044A1360E7
:103EA00000F070FC002008BD6FF01500FBE700BFBC
:103EB0000C02002010B5044C237813B903480BF012
:103EC000FDF80123237010BD89580020240500202F
:103ED00010B50446094828F0EAFD3CB1084BD3E888
:103EE000EF1F0139C3E8E21F002AF8D105482BF083
:103EF000ACFDBDE8104004480BF0E0B8AC31002048
:103F0000B0310020F01F00202405002000200146D1
:103F1000034BD3E8EF0FC3E8E21F002AF9D1704743
:103F2000AC31002070B5FFF7F1FF0546074C084E95
:103F3000B44200D370BD63685B792BB123685B68C2
:103F400013B12946204698471034F1E7C406030010
:103F5000D406030010B5044C0449204628F032F979
:103F6000034B1C6010BD00BF0C040020280B030095
:103F7000A431002000230D4A10B513700C4A4FF4F1
:103F8000004113600B4A0C481360FFF783FFFFF7F3
:103F9000E1FF0A4B0A4918468B4200D310BD1A1A9A
:103FA0005C681211013222711033F5E78A58002043
:103FB000AC310020B0310020ABCA0200C4060300BF
:103FC000D4060300014600220023014828F01BB953
:103FD0000C040020014828F0B4B900BF0C040020F4
:103FE000024B0146186828F000BA00BFA431002037
:103FF000014828F035BA00BF0C04002070B5274BEB
:104000001878002849D0FFF7E5FF0546002841D180
:10401000234B244C1B68002B19DD2BF0C3FC4FF401
:104020007A72A0FB020302FB0131C30B43EA414356
:10403000D4E900209B1A40F2E9324FEAD13161EB1A
:104040000001934271F1000101D3FFF76BFFD4E946
:10405000003213F57A7342F10002C4E90032BDE880
:104060007040FFF7C5BF63685B7923B123682946B9
:1040700020461B6898471034B442F4D32846FFF713
:10408000AFFF094BD3E8EF1F0139C3E8E21F002A55
:10409000BED0F7E7054C064EEEE770BD895800200C
:1040A000AC310020E81F0020B0310020C40603001E
:1040B000D406030070B50D4D297861B90120FFF7D2
:1040C00097FE0B4C0B4EB44206D3FFF797FF002828
:1040D000FBD101232B7070BD63685B791BB1236832
:1040E00020469B6898471034EDE700BF8A580020AF
:1040F000C4060300D406030000212DE9F04708465A
:10410000FFF776FE044658B340F267684FF00009A7
:104110002BF0B6FF1B4B1C4A1B58136033B11B4BD3
:104120001B68092B02DD1A480AF0C8FF0025194F49
:10413000DFF85CA044B12046FFF7F4FD044618B94F
:104140004FF0FF384FF0FF39FFF758FF064628B908
:10415000B5B942464B4650460AF0EAFF3546E9E714
:104160004FF0FF384FF0FF39D2E72B689B691BB146
:1041700000222846114698471035BD42F5D3E8E79E
:10418000054DFAE708000000A8310020B0310020FA
:1041900024050020D4060300C406030013B5184804
:1041A00028F085FC174B1B7873B1EFF311842023A3
:1041B00083F31288BFF36F8FFFF720FF84F311881A
:1041C000BFF36F8F02B010BD0F4B1B68002BF9D0EF
:1041D00050B9002200230D48CDE900234FF40042DE
:1041E00000230CF027F8EDE70928EBD107482BF066
:1041F0002CFC074802B0BDE810400AF05FBF00BFCA
:10420000B03100208A580020A8310020F01F002083
:104210002405002010B5064B04461B68984721462C
:10422000A060044828F06EF8BDE81040FFF7B6BF64
:104230000C0200200C040020044A054B9B1AB1EB31
:10424000D30F34BF52F8310000207047B40503008B
:10425000C40603002DE9F04F8FB0C1F34A2804AF24
:104260000D469146B8607B600C0DB8F1000F63D02D
:1042700000264FF0040B4FF00A0A07F11403C7F8A9
:104280000C80C7E907667E620193CDF808B0CDF8CF
:1042900000A007F11C0332464846F968FEF78EFE7F
:1042A000B0F5006F03461CD36C468AB0D9F80410F1
:1042B00004AB26481A46C3E9050140F2FF71D961F3
:1042C0004FF400711984224B42F8103F4FF4125101
:1042D00033462048FFF7BEFFA5462C37BD46BDE854
:1042E000F08FC0F30A0804F11700184420F007000B
:1042F00080083B60FFF766FE68F35325044690B1E3
:104300003B6800F11001C7E9083607F11403F961B1
:10431000CDE900A3CDF808B048460F4AF96807F187
:104320001C03FEF74BFE68F353252A4620467B68A4
:10433000B96828F0F7FBD0E704F1170020F0070078
:104340008008FFF73FFE0446EDE700BF9C8C0300AA
:104350000400000164060300F9CA02002DE9F04FD1
:1043600087B00446DDE9105ADDE912799346984694
:104370000391BFB13B46524610210020CDF800907A
:10438000CDF81490FEF748FCB0F5006F06460AD34E
:1043900040F2FF730221174A174807B0BDE8F04FFB
:1043A00028F019BC3E4605F11700304420F0070004
:1043B0008008FFF707FE04F007040BF0070BE4008A
:1043C00044EA8B1444EA462444EA0554054640B1C5
:1043D0003FB13B4652463146CDF800901030FEF7D3
:1043E0001BFC434622462846039907B0BDE8F04F20
:1043F00028F098BBDB8C030064060300406820B102
:10440000034BC01A40F3CF0070474FF0FF307047A6
:10441000B40503000EB403B503AB53F8042B0146F7
:104420000448019301F0AEFB02B05DF804EB03B069
:10443000704700BF39CC0200CA0605D48B064CBFBA
:1044400002490349FFF7E6BF704700BFA5B7030065
:10445000A4B703002DE9F04F8BB09B46169B9DF847
:1044600054A00693179B04460593189B0D4690464F
:10447000199E0493BAF1000F00F09E8006F001032C
:10448000089306F00803079306F48073099328F055
:1044900028FB06F00209024600283BD020468F493F
:1044A000FFF7B8FF0746B9F1000F08D016F0440F28
:1044B00032D12A4620468A49FFF7ACFF0744089BC1
:1044C00053B1884B204653F82A20874B8749002A4E
:1044D00008BF1A46FFF79EFF099B002B48D0079B99
:1044E000002B62D1B8F1000F64D0424620468049CB
:1044F000FFF790FF0546069B3D44002B6BD1049BC4
:10450000002B71D1F30700F1E28031462046FFF71E
:1045100093FFD6E00746C6E7764B18680028CDD053
:10452000754B4FF47A791B684FF03C0CB5FBF3F5F3
:10453000B5FBF0F14FF4616300FB115509FB05F584
:10454000B1FBF3F2B5FBF0FE03FB121100FB1E55AD
:10455000B1FBFCF309FB05F5B5FBF0F50CFB131102
:1045600020460091CDE901E56449FFF753FFA5E737
:10457000079BEBB1624B204653F82A206149FFF7B5
:1045800049FF0546B8F1000F05D04246204658497C
:10459000FFF740FF0544BBF1000FACD05A46204660
:1045A0005949FFF737FF0544A5E74FF0000BE1E756
:1045B000079DE7E745469EE7BBF1010F069B06D145
:1045C000002B64D1049B002B7BD000250CE0002B3A
:1045D000F8D04E485CE04E48069B22464D4927F0F5
:1045E00079FC049B002B68D0DFF83881DFF8389124
:1045F000049F3146102F204628BF10274FF0000B94
:10460000FFF71AFF5D4545DC059B494620461A78B1
:10461000FFF700FF4FF0010B1BF0070F03D14146DE
:104620002046FFF7F7FE5F453BD9059B49462046EC
:1046300013F80B20FFF7EEFE0BF1010BBBF1100F8F
:10464000EAD14FF0000B20463349FFF7E3FE5A460C
:10465000059B20469A5CA2F120015F2928BF2E22EB
:104660002E49FFF7D7FE0BF1010BBBF1100F1DD048
:104670001BF0070F03D141462046FFF7CBFE5F45F5
:104680005A46E5D841462046FFF7C4FEEBE72048EE
:104690005546A1E741462046FFF7BCFE0BF1010B52
:1046A000B0E720461E49FFF7B5FEC5E7059B3B4432
:1046B0000593049BDB1B04939AD1BAF1000F7FF49E
:1046C00021AF20460BB0BDE8F04F28F0A8BA204635
:1046D000054A0649FFF79EFE17E700BF188D030045
:1046E0001C8D03004C0B0300138D03007398030013
:1046F000418D0300BC310020B8310020258D03001E
:10470000600B0300458D03004B8D030067CC020056
:1047100039CC0200855B0000568D0300588D0300E4
:104720006EB7030070B70300508D030042F20F73A1
:1047300073B58B4228BF0B460568044605216846C1
:104740000D4A24F0D1FC0646636828460B225B68BC
:104750000A4928F056FA63683246694628465B687B
:1047600028F04FFA63681B2228465B68044928F04A
:1047700048FA02B070BD00BF09960300778D0300B0
:104780005B8D030000210123064A904206D8064AA9
:1047900001B901231360054B1860704701214008DF
:1047A0005B00F2E740420F00B8310020BC3100202E
:1047B000F8B50D460446064F4618B44201D12846C6
:1047C000F8BD14F8011BBB6801485B689847F4E723
:1047D00004020300014B036000207047A80B030094
:1047E00008B5044827F0D0FBBDE80840024827F090
:1047F000CBBB00BFBD8D0300F28D0300014821F04B
:104800004DBF00BFA80B030038B5044618B90F4BC5
:104810000F485B6898476168B1F5683F10D0B1F503
:10482000680F0DD00B4DA9420AD011F468612068C1
:1048300007D0014608482AF082FD00232360656006
:1048400038BD14222BF016FAF9E700BF88030020C8
:10485000208E03002C5F5CA9EC36002008B560B305
:104860004368B3F5683F0ED0B3F5680F18D0144A0B
:10487000934220D000684FF0FF324FF0FF330AF030
:1048800023FB58B115E001220368D3E8EF1F00298C
:1048900003D1C3E8E02F0028F7D10AD1002008BDDA
:1048A0000368084A1B7803F5807352F82330002B05
:1048B000F4D00548F3E70548F1E76FF4E040EEE790
:1048C0002C5F5CA900000350E98FFFFFEA8FFFFF18
:1048D00008B520B34368B3F5683F09D0B3F5680F56
:1048E00013D0114A93421DD000680AF065FB14E012
:1048F00000220368D3E8EF1F012903D1C3E8E02FAA
:104900000028F7D109D0094808BD00210368084AEA
:104910001B7803F5807342F823100020F4E76FF44E
:10492000E040F1E70348EFE72C5F5CA9E98FFFFF68
:1049300000000350EA8FFFFF10B5044618B91D4B65
:104940001D485B6898476368B3F5683F2FD0B3F59F
:10495000680F2CD0194A934219D1236803BB4FF03A
:10496000FF324FF0FF33214615480AF07FFA08B9AD
:1049700023681BB90F4B13485B689847142200212A
:1049800020682BF077F94FF46863636008E0B3F5B3
:10499000683F0DD83A2B03D040F6BA629342DED17D
:1049A00020682AF017FD636843F03A03636010BD86
:1049B000054AF3E788030020208E03002C5F5CA9E2
:1049C000EC360020468E03003A00003A08B506494E
:1049D0004023142205482AF0A4FCBDE808400449FD
:1049E000044821F01FBF00BFEC310020EC3600204E
:1049F000B00B0300C40B030010B5244C88B024880E
:104A00008C420AD9224A009123460121214828F0EC
:104A1000ECF86FF0150008B010BD1F4C24789C42D4
:104A200005D801211D4A1B4828F0CCF8F1E70024E5
:104A30000490CDF81640CDF81A40ADF81E40ADF800
:104A400014100AB9164A126806920B9A0292BDF81F
:104A50002820ADF80C200022ADF80E20114A52F8A3
:104A6000230038B90B4801210F4A28F079F94FF09B
:104A7000FF30D0E702AA04A90BF0EEFE0028CAD14D
:104A80000C9BBDF80E201A80C5E700BFEC57002034
:104A9000738E0300B40603008D580020B18E03000E
:104AA0001837002014370020E18E030030B51A4D6E
:104AB00087B02D789D4208D818480121184A28F05F
:104AC00081F86FF0150007B030BDADF8102000225E
:104AD000ADF80810ADF812209DF83010ADF8142094
:104AE000104A01908DF80A1052F823000A99039198
:104AF00038B90A4801210C4A28F032F94FF0FF304A
:104B0000E1E703AA01A916F0FDFE0028DBD10B9B0B
:104B1000BDF812201A80D6E78C580020B406030096
:104B2000B18E030008370020028F0300134607B53B
:104B300041F64C5293420DD042F21072934212D081
:104B40000A4801210A4A28F00BF96FF0150003B05A
:104B50005DF804FB0122CDE900013F210023084656
:104B600015F018FEF3E70022F5E700BFB4060300D6
:104B7000238F03002DE9F04F1C4641F64C5385B0BE
:104B80009A4206460F469DF838B00ED042F2107396
:104B90009A4213D0134601212F4A304828F0E0F8FA
:104BA0006FF0150005B0BDE8F08F4FF0010944B972
:104BB00001212B4A294828F005F8F1E74FF00009B8
:104BC000F5E745F6C0539C421DD82346254A0221ED
:104BD000224828F0C5F80DF10C0A53464A463946DA
:104BE00030461DF0C3FD204B18800F9B188080B10C
:104BF0000025DFF890805D4513D11C4B03981C60A5
:104C00001B4B1D70CEE71B4B9C42E4D923461A4A2E
:104C1000DDE712480121194A27F0D4FF4FF0FF3099
:104C2000C0E7D8F8003043B10C482B460121144AA4
:104C300028F096F86FF07700B4E74A4639463046D8
:104C4000CDE9003A0BF08CFB48F8040B03980135D2
:104C50000028D0D0A6E700BF238F0300B4060300CE
:104C60003D8F0300528F0300EC57002018370020BF
:104C70008D580020FF700200778F03009D8F030086
:104C8000C78F0300143700202DE9FF471D4641F66A
:104C90004C539A42074688460ED042F210739A420D
:104CA00016D0134618480121184A28F059F86FF019
:104CB000150004B0BDE8F0874FF0010A0024144E3F
:104CC0000DF10C09AC4206D1124B00201C70F0E72C
:104CD0004FF0000AF2E7336843B10B482346012145
:104CE0000D4A28F03DF86FF07700E2E75246414662
:104CF0003846CDE9003916F05BFC46F8040B039802
:104D000001340028DED0D4E7B4060300238F03006B
:104D1000083700208C580020EA8F030038B504467D
:104D200000F098FFB0B100220D4951F8323001EB8C
:104D3000C20583B941F832001A466C60094C54F838
:104D400033100133322B0A44F9D1074B19689142D1
:104D500038BF1A6038BD0132322AE6D128F07AF81D
:104D600020370020243700201C37002010B50446CF
:104D700000F08AFF5CB10023084A52F8331002EBBE
:104D8000C300A14204D1002142F83310416010BD9C
:104D90000133322BF1D128F05DF800BF203700201D
:104DA0002DE9F84F80460C4600AF002965D0D1E9C7
:104DB0000012E9468AB0A3686D464FF0050A2E46F8
:104DC0003748C5E90723C5E9050146F810AF0023B8
:104DD00032464FF421513348FFF73CFAD4E903122D
:104DE000CD466369AD463048C5E90723C5E90501ED
:104DF000C5F810A0002332464FF421512948FFF78F
:104E000029FACD46E3690121284A264827F0E3FE26
:104E1000264600254FF00A0ADFF8A0B0E946D6E999
:104E200008E0D6E90A138EB06A46C2F81CE005F124
:104E3000010EC2E908E0A81CC2E90A01E91CC2E9A6
:104E400005B5C2E90C1342F810AF002345F240014A
:104E500014480435FFF7FEF9102DCD4606F1100673
:104E6000DCD1236E0121124A0E4827F0B4FEA3695B
:104E70000121104A0B4827F0AEFEB8F1010F07D10F
:104E8000EFF305830C4A41460648103B27F0A3FE8A
:104E90002146404609F028FEBD46BDE8F88F00BF18
:104EA0001A900300A40603004990030078900300C1
:104EB000CA900300D9900300079103008790030074
:104EC00030BFFFF7FDBF00BF2DE9F04105460B4E97
:104ED000DFF83080324606EB0807CC1B2046084935
:104EE0002AF0A1FEA01942460021083C2AF0C2FE89
:104EF000C5F8A84007F10800BDE8F08100000000F7
:104F00001807030008000000054B9A699B689A4245
:104F10001FBF044A536843F080535360704700BF7B
:104F20004441002000ED00E070B52A4C06460D46D5
:104F300029482A4927F023FFA36ADB0647D52648DC
:104F4000274927F01CFF1120A36A1C0704D522481B
:104F5000244927F014FF12201E4CA36A990712D58A
:104F600021491D4827F00BFF636BA26A120609D581
:104F700001211E4A184827F02EFE1EB1A36A23F015
:104F80008003A3621320134CA36ADE0704D51248E2
:104F9000174927F0F4FE1420A36A9C0604D50E4896
:104FA000144927F0ECFE15200A4B9A6AD10658BF27
:104FB0009A6A9A6A920642BF5A6A22F400525A6268
:104FC0009A6A42F0FF029A6200232B7070BD102093
:104FD000BAE700BF00ED00E0A40603001A91030049
:104FE0003091030063910300769103008E910300DA
:104FF000A4910300C391030010B5244C2449254813
:1050000027F0BDFEA36A99013ED52248224927F028
:10501000B6FE1E20A36ADA0104D51E481F4927F0F8
:10502000AEFE1F20194CA36ADB0204D519481C49A7
:1050300027F0A5FE0220A36A1C0304D515481949D0
:1050400027F09DFE2120114CA36A590304D5114875
:10505000154927F094FE2220A36A9A0304D50D482F
:10506000124927F08CFE2320084CA36ADB0304D5E9
:1050700008480F4927F083FE2420A36A6FEA034300
:105080006FEA1343A36210BD1D20C3E700ED00E0EB
:10509000F2910300A40603000A9203001D9203008C
:1050A00037920300619203007F920300A4920300F1
:1050B000BE92030070B5294C06460D462848294982
:1050C00027F05DFEA36AD9043CD52548264927F080
:1050D00056FE1720A36A1A0504D52148234927F054
:1050E0004EFE18201D4CA36A9B0512D51C48204972
:1050F00027F045FEA36BA26A100409D501211D4AC1
:10510000174827F068FD1EB1A36A23F40043A36289
:105110001920124CA36A590504D51148164927F0E5
:105120002EFE1A20A36ADA050ED50D48134927F082
:1051300026FE1B20094A936A43F47F4393620023AF
:105140002B7070BD1620C5E7A36A9B04F2D50448F6
:105150000B4927F014FE1C20ECE700BF00ED00E037
:10516000A4060300E9920300FF9203006391030089
:1051700010930300299303003E9303005993030007
:10518000C39103002DE9F0419CB0624B0546D3F872
:105190000480002600AFC8F3080486F31188BFF32B
:1051A0006F8F02F07F43B3F17F4F07D102F00C0302
:1051B000082B12D15849594827F0E1FD0026354601
:1051C0000023FB71E31E092B00F28380DFE803F06C
:1051D0000A797C7581818181817F10074CBF0D46E2
:1051E0000126EDE74E494D4827F0C9FD0023494C03
:1051F000FB71E36A9A0705D54A49484827F0BFFD85
:10520000002431E0E36A002B01DA4749F5E7E36A5D
:105210005B00F5D54549414827F0B1FD6369AA69AE
:1052200043F480736361BFF34F8FBFF36F8F636984
:1052300032F8022C23F480736361BFF34F8FBFF306
:105240006F8F4DF602739A4207D0A36ADBB23BB36D
:105250000120F91DFFF768FE31E02B680121344A77
:105260002E4827F0B8FC2C68FB79ABB96822294698
:1052700007F108002AF0D7FC7B6A002E45D0C3F363
:10528000080222B96FEA53236FEA43237B62204668
:1052900007F10801FFF784FD7037BD46BDE8F081D6
:1052A000A36A13F47F4F04D00120F91DFFF702FF1A
:1052B00005E0A36AB3F5803FA2D3FFF79DFE044645
:1052C000D2E70020F91DC5E70020F91DEEE71949D6
:1052D00093E7194A18F4F87FE8468AB0174B18BFCD
:1052E00013466A461649103CC2E905134FF4007391
:1052F0001384144BD46142F8103F00234FF4115132
:105300000648FEF7A7FFC5467AE723F4FF7323F0AC
:105310000103BBE700ED00E09F930300A406030038
:10532000CA930300E1930300029403001094030066
:105330002F9403004B9403008693030071930300A2
:105340006F94030004000001064B5A6942F01002FA
:105350005A615A6942F480625A615A6922F008021D
:105360005A61704700ED00E0EFF30880EFF3098128
:1053700001B57246FFF706FF01BD00BF002080F3B4
:105380001488BFF36F8F002080F30A8880F30B88A6
:10539000104880F3088800200F49087007F0CEF904
:1053A00000200E490860BFF34F8F00F02DF8202039
:1053B00080F311880A484FF40061401880F309888F
:1053C000EFF314800221084380F31488BFF36F8F3A
:1053D00000F00EF978B40020305C002094ED00E07D
:1053E000389B0020002318460649D1F89020C2F3CC
:1053F0000722934200DB7047C1F89830C1F8A00043
:105400000133F6E700ED00E010B572B6002484F336
:105410001388FFF7E7FF23464FF0FF300C4A03F1F4
:1054200020010133102B42F82100F8D100234FF066
:10543000FF30074A03F160010133102B42F82100CD
:10544000F8D162B6BFF34F8FBFF36F8F10BD00BFAF
:1054500000E100E0084B9B6883420BD1EFF305832A
:1054600043B1064B5A6842F080525A605A6A22F49D
:1054700000425A620AF0CABB4441002000ED00E03D
:1054800025498A6882F8F5E04FF030001044EFF3C8
:10549000098C80E8F01F1EF0100F03D102F1B40058
:1054A00080EC108A202080F31288BFF36F8F1B4F8F
:1054B0004FF000668A698A603E60D2F8A800184CF6
:1054C000206092F9F5E0D2F8AC000023C2F8AC30CD
:1054D00080F311881EF0100F03D00023E1EE103A84
:1054E00003E002F1B40090EC108AEFF3148323F090
:1054F000040383F31488BFF36F8F02F1300090E848
:10550000F01F8CF3098802F1000004B527F03FFC7E
:10551000BDE80440704700004441002004ED00E075
:10552000B03800201EF0040F0CBFEFF30880EFF33B
:105530000980816911F8021C0229FFD001B5724669
:1055400027F012FC01BD00BF40B2002807DB012399
:105550004109034A00F01F00834042F821307047A0
:1055600000E100E040B200280CDB012206494309BB
:1055700000F01F008240203341F82320BFF34F8FFB
:10558000BFF36F8F704700BF00E100E0054B420999
:1055900053F82220012300F01F0003FA00F010400E
:1055A000704700BF00E100E040B2002801F10101B6
:1055B000ACBF00F16040064B4FEA4111C9B2ABBF2E
:1055C00000F5614000F00F0080F800131954704797
:1055D00014ED00E0044B054A23F07F039360BFF312
:1055E0004F8FBFF36F8F70470000000000ED00E0A9
:1055F00008B5FFF7EFFF104BD3F8882022F47002B4
:10560000C3F88820D3F8882042F4A002C3F8882089
:105610004FF04042C3F83422BFF34F8FBFF36F8F78
:105620000023E1EE103A09F04DFB0AF047FC00F0D0
:105630007DF809F08BFB00BF00ED00E042F8203C54
:10564000009B0D4942F81C3C019B21F0010142F8EE
:10565000183C029B42F8081C42F8143C4FF080733F
:1056600042F8043C0023C0F8AC304FF47D43203AAC
:105670000265C0F8F430704795330000104B9B680A
:1056800083421AD1EFF30580B8B9EFF311812022DC
:1056900082F31288BFF36F8F1A7B22F002021A7313
:1056A000EFF3148323F0040383F31488BFF36F8FA5
:1056B00081F31188BFF36F8F70476FF0150070474B
:1056C000444100200E461546002300B5E1EE103A95
:1056D000EFF3148323F0040383F31488BFF36F8F75
:1056E000BFF36F8F0A4BD0F8A8209860094B1A605F
:1056F000D0F8983083F30B882C4686F30988002075
:10570000054B98472046002100220023034C2047E8
:1057100044410020B038002099CD020095330000AC
:105720001022014B1A61704700ED00E00023202198
:105730000348C2180133452B82F80013F9D1704792
:1057400000E100E008B5EFF30583064A103B02EBE9
:10575000C30152F8330049688847BDE80840FFF7A5
:10576000D3BB00BFC40203001FB5094C094A23463E
:105770000121094800F012F900230393074B01218E
:10578000E41A01A80193029400F012F904B010BDCC
:105790000000072000000020D40B0300E8060020D2
:1057A00010B50C7A0B6804F01F0223F01F031A4394
:1057B000CB68640923F01F03054943EA440343F01F
:1057C0000103C1F89800C1F89C20C1F8A03010BDB9
:1057D00000ED00E010B50A4BD3F89030C3F3072377
:1057E000013B984208D901210346064A064827F0A2
:1057F000F2F96FF0150010BDFFF7D2FFFBE700BF15
:1058000000ED00E086940300840603002DE9F04FCC
:105810008946144606464FF00008514D85B0C845EC
:1058200027DAD6F804A0BAF1000F44D0BAF11F0F5E
:1058300017D91AF01F0F14D1D6F800B01BF01F0FA4
:105840000FD1584627F0E4FA07460AEB0B0001385F
:1058500027F0DEFA874210D06FF01507414A3B4629
:1058600001E04346404A0121404827F0B4F96FF077
:105870001504204605B0BDE8F08F17F1160FEDD0E6
:10588000BC42EBDDC5F89870D5F89C10C5F898704F
:10589000D5F8A03021F01F0143F01F0BD6E90032EC
:1058A0001A44994202F1FF3A1DD1D34507D131463E
:1058B000F8B227F0B6FA08F101080C36AFE7314626
:1058C000C5F89870D5F89C3022F01F0203F01F0332
:1058D0001343C5F89C30E0B227F0A3FA10F1160F7D
:1058E000C5D0441CE7E7C5F89870D5F8A020013B67
:1058F00023F01F0302F01F021343D3453146E0B2E9
:10590000C5F8A030E8D027F08CFA10F1160FAED011
:10591000C5F89870D5F89C209DF808300BF1FF3B36
:1059200062F304038DF80830D5F8A0309DF8082004
:105930005B0863F347128DF80820D6E90032134460
:10594000009323F01F035B44A3EB0A03013023F011
:105950001F036946C0B20393FFF73CFFBEE700BFD9
:1059600000ED00E0CF940300AC9403008406030034
:105970000522044BC3F89420BFF34F8FBFF36F8F02
:10598000704700BF00ED00E0BFF35F8F0022024BC5
:10599000C3F89420704700BF00ED00E010B5034C41
:1059A0002278FFF733FF207010BD00BF8E58002013
:1059B0002DE9F74F294D8A4606464FF00008AB46C1
:1059C000274FD0451BDAD6F80490B9F1000F3FD02D
:1059D00031680846019127F01BFA0199044609EB4A
:1059E0000100013827F014FA84424FF014021D4BD5
:1059F00008D002FB08F36FF015024BF8032003B048
:105A0000BDE8F08F14F1160F2C60F8D01978A14280
:105A1000F5DD02FB08B0C7F89840C7F89840D7F802
:105A20009C4000F10801007B64F304000871D7F882
:105A3000A0000C79400860F347140C71D7F89C1053
:105A400021F01F016960D7F8A01021F01F01296122
:105A500008F1010814350C36B3E700BFB438002054
:105A600000ED00E08E580020F0B54149414CD1F8DE
:105A700090302568C3F307239D4287B075D8002076
:105A8000FFF782FF3C4BC1F8C030854216D13B4C3A
:105A900001A82570FEF79EFE00250646384FAE424F
:105AA00013D1002023783249D1F89020C2F3072285
:105AB000934254DBFFF75CFF00202FE0616801EBAD
:105AC0000011FFF76DFE0130DFE70199280101EBBE
:105AD0000513DA683A40B2F5001F21D0B2F5800F05
