:020000040000FA
:10000000A8D20020896400005937020075640000FE
:10001000756400007564000075640000756400007C
:100020000000000000000000000000003166000039
:1000300075640000000000008D650000756400001C
:1000400051680000516800005168000051680000CC
:1000500051680000516800005168000051680000BC
:1000600051680000516800005168000051680000AC
:10007000516800005168000051680000516800009C
:10008000516800005168000051680000516800008C
:10009000516800005168000051680000516800007C
:1000A000516800005168000051680000516800006C
:1000B000516800005168000051680000516800005C
:1000C000516800005168000051680000516800004C
:1000D000516800005168000051680000516800003C
:1000E000516800005168000051680000516800002C
:1000F000516800005168000051680000516800001C
:10010000516800005168000051680000516800000B
:1001100051680000516800005168000051680000FB
:1001200051680000516800005168000051680000EB
:1001300051680000516800005168000051680000DB
:1001400051680000516800005168000051680000CB
:100150005168000053B94AB9002908BF00281CBFE4
:100160004FF0FF314FF0FF3000F00CB8ADF1080C4C
:100170006DE904CE00F022F8DDF804E0DDE90223A9
:1001800004B07047704700BF10F8012B11F8013B15
:10019000012A28BF9A42F7D0D01A7047034611F8B7
:1001A000012B03F8012B002AF9D17047034613F8FD
:1001B000012B002AFBD1181A013870472DE9F047AE
:1001C00086468C460846089E154674461946002BFE
:1001D00040F0C1808542B2FA82F245D94AB1C2F1FB
:1001E000200300FA02FC954094402EFA03F343EA00
:1001F0000C0C4FEA154EA8B2230CBCFBFEF80EFB0C
:1002000018CC08FB00F943EA0C43994528D9EB18B0
:1002100008F1FF3704D2994502D9A8F102072B440F
:10022000A3EB0903A4B2B3FBFEFC0EFB1C330CFBD7
:1002300000F044EA0344A04214D92C190CF1FF3316
:1002400004D2A04202D9ACF102032C44241A43EA9E
:1002500007401EB1D440002334607360BDE8F087CE
:100260004746DDE76346F1E792BB431B01214FEAB6
:10027000154EAFB2200CB3FBFEFC0EFB1C330CFB87
:1002800007F840EA0343984561D9EB180CF1FF30B9
:1002900004D2984502D9ACF102002B44A3EB080329
:1002A000A4B2B3FBFEFC0EFB1C330CFB07F744EAC5
:1002B0000344A7424DD92C190CF1FF3304D2A742B5
:1002C00002D9ACF102032C44E41B43EA0040C0E72E
:1002D000C2F120039540944020FA03F12EFA03F373
:1002E0004FEA154E9040AFB20343B1FBFEFC0EFB4C
:1002F0001C10190C0CFB07F841EA0041884522D973
:1003000069180CF1FF3004D2884502D9ACF1020023
:100310002944A1EB08019BB2B1FBFEFC0EFB1C11B2
:100320000CFB07F743EA01439F420ED9EB180CF18F
:10033000FF3104D29F4202D9ACF102012B44DB1BF6
:1003400041EA004193E76046E3E76146F7E760462C
:10035000A4E76346B8E7834206D916B900210846E8
:100360007CE7C6E900E0F9E7B3FA83F78FB9834287
:1003700001D3724508D8BEEB020460EB03030120F1
:100380009C461EB9002169E73846FAE7C6E9004CE9
:10039000F8E7C7F1200CBB400EFA07F522FA0CF47F
:1003A0002EFA0CF1BA401C4320FA0CF3B8404FEA85
:1003B000144901431FFA84FEB3FBF9F809FB183016
:1003C0000B0C08FB0EFA43EA00439A4540D9E318A8
:1003D00008F1FF3004D29A4502D9A8F10200234463
:1003E000A3EB0A0389B2B3FBF9F809FB183308FB46
:1003F0000EFE41EA03418E452CD9611808F1FF3306
:1004000004D28E4502D9A8F10203214443EA0040F8
:10041000A1EB0E01A0FB02984145CE46434602D314
:1004200006D14D4504D20138B9EB020E68EB040346
:10043000002EA7D0B5EB0E0261EB030101FA0CFC14
:1004400022FA07F3F9404CEA0303C6E9003199E7C1
:100450004046C5E74346D9E70023064A52F8041B45
:10046000096829B90133DBB2052BF7D101207047A8
:1004700000207047E8390020014821F082B900BF10
:10048000A80900200146A02270B50446124825F0B4
:100490005FFC124821F075F9114A1368591C11606C
:1004A000C822B3FBF2F002FB1033A3B91A46A51E13
:1004B0000E3435F9020F0028B8BF404286B2B3426D
:1004C000B8BF3346A54212FA80F2F2D1BDE87040BF
:1004D000044822F0CEB970BD6469002000090020F4
:1004E000E4390020946D030001481CF005B800BFFA
:1004F000603A00201FB501AB07CA83E80700064831
:1005000021F041F9024618B91846044906F044FFA3
:1005100005B05DF804FB00BF803A0020110D00001B
:1005200070B50C6892B02378064607AD032B2ED821
:10053000DFE803F00227292B18492846FFF72EFE93
:10054000A379059562781E210492A2780AA80392E5
:10055000E27802922279019262790092104A1FF0A9
:10056000D9FF304609F0AEF80AAA01460D4822F03C
:1005700080F901220C4B0D481A7021F002F912B0DB
:1005800070BD0B49D9E70B49D7E70B49D5E70A21DD
:1005900028460A4A1FF0BEFFD2E700BFC56D030020
:1005A000E76D03000A6E0300F06B0020C009002015
:1005B000CC6D0300D36D0300DD6D03007DA203004D
:1005C000F7B50546194821F0DEF884B2A5420F467A
:1005D000064609D81648002121F0F0F8154803B066
:1005E000BDE8F04021F0EAB82C1BA4B2042C02D1E3
:1005F00021460F48F3E700210D4821F0DFF80D48B0
:1006000021F0DCF801220C4BD3E8EF1F002903D1C5
:10061000C3E8E02F0028F7D106D12A46394607481B
:100620000094B3B222F025F903B0F0BD70010020B0
:10063000903A00208C3A0020883A00203A6E03005D
:10064000F7B54B790F4F052B28BF0523888A3B70E0
:100650000D4D0B690D4E0C460D492B603080FFF798
:10066000AFFF0C4B1B683BB93B780B4800933388BA
:100670002A68617922F0FDF8084803B0BDE8F0402F
:1006800021F07FB8870700207401002062690020F4
:10069000706E0300703A0020786E0300900900200D
:1006A00070B505460A460C460146114822F0E1F8AD
:1006B0000021104821F082F80F4B104E1B7856F89D
:1006C0002330AB4202D10E4821F078F83368AB42B8
:1006D00002D10C4825F052FA3E2C01D0442C04D112
:1006E0000948BDE8704021F04CB80848F9E700BF60
:1006F000BA6E0300E846002086070020E839002093
:10070000743A0020280E00203009002048090020FB
:100710002DE9F041504E514D8AB030684FF4A4722B
:10072000002302A91BF096FB044600283FD00022BC
:1007300000234B4821F02CF8EFE70420002125F09E
:100740003DF94CF24F3364349C4208D94046297835
:1007500021F019F80246434822F08BF8002438466D
:1007600021F011F80028E8D13F4B1C78012C38BF4C
:100770000124013C14F0FF04CFD004210DEB010053
:1007800006F012FD019BB3FBF4F204FB1233374A6F
:100790000133DBB252F823802B70B8F1000FBCD0CC
:1007A000BDF808303BB9324822F063F8B5E7314F65
:1007B000DFF8D880D3E7002200232F4823F052F837
:1007C000044698B92D4820F0DEFF0028A5D02C4A19
:1007D0001368591C11603222B3FBF2F002FB103394
:1007E000002B9AD1274822F044F896E7264820F0BB
:1007F000CAFF38B9254820F0C6FF18B9204606F0D0
:1008000063FB8AE704F10C0738460D2123F063F8F7
:10081000BDF80820384604A91D4F23F06DF80121CA
:10082000144820F0CBFF3A8829781A4822F021F8A2
:100830003A882146404623F08CFA021E04DA4146EB
:10084000154822F016F8D9E701210C4820F0B6FF30
:100850003B880B443B8060E7EC4600208607002085
:10086000D8090020EA6E030087070020E83900203D
:10087000276F0300E4460020080A0020743A002095
:10088000E0390020426F0300F0490020EC490020CD
:10089000606900206B6F0300856F03002DE9F04154
:1008A0004FF47A7525F017F92F46A0FB050605FBD6
:1008B0000166C30B43EA464313F5FA644FEAD636A2
:1008C000DFF8388046F10006FFF7C6FD08B1BDE845
:1008D000F08125F000F9A0FB070305FB0131C30BF4
:1008E00043EA4143A3424FEAD131B141EFDA40F646
:1008F000CD420023404620F04BFFE5E748090020A9
:1009000013B5014604460F4821F0B3FF0E4BD3E860
:10091000EF1F0131C3E8E21F002AF8D10B4820F095
:1009200030FF0B4B1B68A34209D10022002309486A
:10093000CDE900234FF4804200231CF0E5FC02B017
:1009400010BD00BFA86F0300783A002030090020D6
:10095000E8390020280E00202DE9F04F0026DFF8AE
:1009600014A2C1B04FF0FF324FF0FF3310A974480A
:100970001BF070FA734820F006FF01210446504630
:1009800020F008FFBDF84020002A71D0A3B29A429F
:1009900028BF1A4612A901236B4818AF019300978C
:1009A000002300680FF080FD002808DA674A002164
:1009B0001368384601331360A02225F0F0F9504641
:1009C000002120F0E7FEBDF84020A0B2031D9A42AE
:1009D0002ED100F1080310AA00F580710DEB010083
:1009E00013445A7810F8B84C5B8844EA022444EA6D
:1009F00003442146564820F0E1FE564A1368591C2C
:100A000011606422B3FBF2F102FB113383B908A831
:100A1000014624FA03F202F00102013330321E2BA8
:100A200000F8012BF5D14C488DF83E6021F021FFF4
:100A3000DFF844B1494D2988BBF8003089B22C88D1
:100A40009BB2994237BFA4B2BBF80030BBF800306C
:100A50000A34E41AA4B22046C4F10904A4B201F095
:100A600005FF042C0AD83E4A13680133136079E766
:100A70003C490B6801330B6011468CE700200A24C7
:100A8000394AB9462B889BB202EB8311A1F10408C5
:100A90003C3139F802EB0EEB0E4E48F804EF4145BD
:100AA000F7D10133B3FBF4F104FB113310309BB2E7
:100AB00050282B8007F12007E3D12C490B6803F164
:100AC0000109C1F80090C821B3FBF1F001FB10331C
:100AD000002B7FF447AFB5F800C0DFF88880BBF883
:100AE0000000D8F80030194F1D4C1FFA8CFC80B262
:100AF0008445059321683B6818D32D88BBF80020F6
:100B0000ADB292B2AD1ACDE9063101F06FFBDDE96D
:100B100005230799CDE9015000911548494621F078
:100B2000A8FEC8F800603E6026601BE7BBF8002006
:100B30002D8892B2C2F10A0212FA85F5E3E700BFEE
:100B40007008002070010020E0460020CC39002011
:100B50008C3A0020C8390020C26F0300066A0020CA
:100B6000C4390020D0390020F0460020C0390020D0
:100B7000E56F0300306D0200046A002008B50B48E1
:100B800021F077FE0A4824F0F9FF0A48002120F0FE
:100B900015FE094B186840B109F0BCFE014620B1B2
:100BA000BDE80840054821F064BE08BD1E70030082
:100BB000280E0020E8460020703A00204E70030006
:100BC00010B504460121144820F0E4FD134B1A68C7
:100BD000944214D05A68944213D1012149B2104A68
:100BE000127853F82230A3420ED100210D4820F094
:100BF000E5FDBDE810400021074820F0CBBD0021F5
:100C0000ECE74FF0FF31EAE7074820F0BCFD034670
:100C1000064821F02EFEECE7406D0200E839002086
:100C200086070020E4460020EC4900206F70030096
:100C30000D4A1378B3B94389A3B101211170017929
:100C40000A4A117040F2E2425343094A13600268B3
:100C5000084B1168084819609188998092799A71B7
:100C600020F08FBD704700BFF16B0020E86B0020C3
:100C7000843A0020E96B00207809002030B51F4B32
:100C80000D461B68144683428BB035D101211C48A8
:100C900020F080FD2022002102A825F080F8AB7909
:100CA0001A0744BF2A680392CCB1258A182D16D89A
:100CB000DB0714D52A46E16804A8ADF8085025F0F2
:100CC00047F828460F49FFF77BFC002200230E4817
:100CD000CDE900234FF4804200231CF015FB0022D5
:100CE00002A9002309481BF055F8002104480BB065
:100CF000BDE8304020F04EBD0BB030BDE8390020DB
:100D0000386D0200A5700300280E00207008002036
:100D10002DE9F04F8FB0002800F0F3800378162BF8
:100D200040F0EF804278052A40F2EB8041680BA842
:100D300022F0CBFD0BA822F019FE41F65103984298
:100D400040F0DF80BDF83030032B0FD80122714B0B
:100D5000D3E8EF1F002903D1C3E8E02F0028F7D123
:100D600000F0D18000200FB0BDE8F08F0BA822F07A
:100D700005FE04460BA822F0F1FD05460028E5D04B
:100D800002462146644821F074FD4FF00008BDF88A
:100D90003030072BDAD90BA822F0E0FD07460028F7
:100DA000D4D00BA822F0DAFD07900BA822F0DEFDCC
:100DB00008900BA822F0DAFDBDF830300990002B26
:100DC000C4D00BA822F0CAFDBDF8303004468342DF
:100DD000BCD301460BA8DDF82CB022F0B7FDBDF85E
:100DE0003030002BB2D00BA822F0B8FDBDF8303067
:100DF00006468342AAD301460BA822F0A7FD002392
:100E00009C4256D84FF0000AD146BDF83010012957
:100E10009CD90BA822F0A2FD83460BA822F09EFDD0
:100E20000146BDF83000884290D30BF1FF3B0BA880
:100E300022F08CFD5FFA8BF11F2998BF01230AF184
:100E4000010A98BF03FA0BFB5FFA8AF198BF49EADF
:100E50000B098F42D9D8079BFF2B4ED14DF6AD63BE
:100E6000089A9A424BD14BF6EF602C4B2C49099AC9
:100E7000824208BF0B46099A08F101080192089ABC
:100E800041460092CDE90479CDE90246079A25480A
:100E900021F0EFFC5FFA88F39D423FF678AFBDF892
:100EA0003030002B7FF452AF01211F4820F086FC28
:100EB00058E71BF80320591C002AA3D0501884427D
:100EC000A0D31BF80110013A042903F10203D2B2A6
:100ED00011D1022A0FD13BF803104B1E172B91D8CA
:100EE000124820F06BFC124B188800288AD0114958
:100EF000FFF766FB86E7134482E70F4BBBE7074B20
:100F0000B9E701202FE76FF015010C4821F0B1FC83
:100F100028E700BF7C3A0020D8700300C5700300AA
:100F2000AE7003000A710300803A002070010020B7
:100F300062690020706E030073AE030087710300C6
:100F40002DE9F043534B544E1D8E544FDFF88881EA
:100F5000B9B0202200210DEB020024F020FF4FF059
:100F6000FF324FF0FF33304620F012FC384620F0BD
:100F70000AFC0028EDD0A022414610A824F0E8FE8B
:100F8000474820F000FC18B1502110A801F074FD72
:100F90000022134610A931F9020B0132082A03443A
:100FA000F9D140480268511C01606420B2FBF0F4A2
:100FB00000FB142232B93C4820F0E5FB02463B48D6
:100FC00021F057FC3A4820F0DEFBB8B10121394846
:100FD00002AC20F0DFFBCDE90054374800210123AB
:100FE000006810AA0EF0F4FF011E0DDA334821F05C
:100FF00040FC00212F4820F0CDFBAAE72A4820F032
:10100000C2FB0028E2D1A4E721462A460AA824F020
:101010009FFE2B4820F0B7FB10F0FF0407D005F12E
:10102000080008AB22460021184424F0B8FE254BE6
:101030002C441868ADF820400022002308A91AF0BB
:10104000A9FE68B10A22204B196801311960B1FB71
:10105000F2F302FB1313012B02D11C4821F009FC0F
:101060000021144820F096FB194A1468611C116095
:10107000C822B4FBF2F002FB1044002C7FF469AFED
:10108000DFF844901348D9F8002021F0F2FBC9F8AA
:1010900000405EE77801002000090020E8460020BB
:1010A000E8490020DC390020EC4900209E71030053
:1010B000F0490020286D0200943A0020C871030016
:1010C000903A0020EC460020D8390020E47103005B
:1010D000D43900200A7203006469002041F2883389
:1010E0002DE9F04FA94E99B0736314233386012381
:1010F000A74886F82E3021F0BCFBA64821F0B9FBAA
:101100000521A54821F0B5FB00F0A0FE054668B119
:101110000146A24821F0ADFBA14800F02BFD04469A
:1011200038B101469F4821F0A4FB4DE000F0B6FE27
:10113000F2E703211E220846994B01F04FFC0146BD
:1011400010B1994821F095FB00F0BAFE20F0CAFBDF
:1011500000229649964824F005FD9649964824F0C9
:101160000CFB0022954B9649964C97480532192A5C
:10117000C3E9014041F8043B03F11403F6D193495C
:10118000934801F06BF8044610B101469148CAE754
:1011900001F09CF8044610B101468F48C3E701F006
:1011A00041FB01F085FB8D4B224618604FF47A51CC
:1011B0008B4B706B0EF0F2FF8A4B186040B98A4877
:1011C00021F057FB6FF00404204619B0BDE8F08F02
:1011D000864B22464FF47A51706B0EF085FD844B9E
:1011E000186008B98348EBE74FF000084FF000099A
:1011F00001234FF4C052CDE90243CDE90689CDE980
:1012000000447D4B7D4904947D481BF09DFA7D4947
:101210007B481BF023FA02274FF48052CDE9068960
:10122000CDE90247CDE90044774B784904947848EA
:101230001BF08AFA774976481BF010FA4FF4806267
:10124000CDE90689CDE90374CDE90144724B7349B8
:10125000009473481BF078FA724971481BF0FEF94C
:10126000204607F0CBF8044610B101466E485AE715
:101270006E4808F00FFA6E4808F04EFB08946D486F
:1012800020F084FA6C4820F081FA6C4820F07EFA55
:101290006B4820F07BFA6B4820F078FA6A4820F01F
:1012A00075FA0021694820F089FA694820F086FA29
:1012B0001421684820F082FA0021674820F07EFA65
:1012C000664820F07BFA664820F078FA654B089A69
:1012D0001A80654B1A7015B9284600F0DFFD634887
:1012E00021F0C7FA624A0CAB1068516803C39068DA
:1012F000002118600CA808F061F9044610B10146FD
:101300005C4810E75C4B18705C4821F0B2FA4FF073
:10131000FF324FF0FF33474820F03AFA044610B14D
:1013200001465748FFE6574821F0A3FA08F096F91E
:10133000044610B101465448F5E6544B1194186820
:101340009A889B790F908DF84230514B51481B7809
:10135000ADF840208DF843304F4BADF848401F6842
:1013600006235F4342F21073B7FBF3F3ADF84A3044
:1013700021F07FFA0BA90FA808F0F8F9044600281D
:1013800000F08E8001464548CDE600BF7801002080
:10139000247203003E7203005D7203009472030026
:1013A000D8090020A9720300C2720300E9040000FA
:1013B000280E00207D0B0000603A0020FC39002040
:1013C000E839002030010020680100208504000079
:1013D000B0010020D7720300EE720300EC4600203B
:1013E000983A0020E046002006730300600E0020BB
:1013F000943A00202A73030059090000A8830020B2
:10140000300D00204E730300410F0000A873002030
:10141000380C00205A73030011070000A86F002049
:10142000400B0020667303006D730300240100204D
:101430000801002078090020A8090020C009002028
:10144000900900203009002048090020803A00203F
:101450007C3A002070010020903A00208C3A002055
:10146000883A002062690020F06B00208D73030031
:10147000E0680200A0730300F16B0020BD7303005D
:10148000E2730300FA73030017740300E96B002092
:10149000E86B002033740300843A00205A74030080
:1014A000B94821F0E6F9B9494FF400408C4621468D
:1014B000E7FB00C10023B64A6046FEF74BFE074635
:1014C00002460B46B3480C4620F062F930B1B248F0
:1014D00021F0CFF90B9808F001F9D0E6AF4821F0E0
:1014E000C8F923463A46AE4820F052F9044640B1C6
:1014F000AC4821F0BEF9AC4B1B78002B7FF4BFAE9B
:10150000E8E7AA4B2246186814234FF47A51338631
:10151000A74B70630EF042FEA64B186030BBA64886
:1015200021F0A7F9A54821F0A4F900220023A4483E
:1015300020F02EF9B0B1A34821F09BF9984820F093
:1015400025F94FF420320023954820F021F9C8B145
:101550009D4821F08EF94FF0FF324FF0FF3398484D
:1015600020F016F9994821F084F988E6984B224634
:101570004FF47A51706B0EF0B7FB964B186008B9B8
:101580009548CDE7FEF768FF60B9944821F071F9FE
:101590004FF480300021FFF781F9FEF75DFF08B9B5
:1015A0008F48BDE701228F4F8F4C39788F488A4092
:1015B000013AA260217121F05CF900218C4820F0F1
:1015C000FDF821468B4A0B9809F038FB04460028A9
:1015D00000F09B800146884821F04BF914F1780F08
:1015E0007FF4F2AD4FF480300021FFF757F999E70F
:1015F0004846099121F03DF94FF4A02200235046BE
:1016000020F0C6F808F10108002863D1584609996E
:1016100021F02FF93B785FFA88F18B42E8D87448C3
:1016200020F0B1F8984256DB744821F022F90021ED
:10163000734820F0C3F80C46DFF8AC91DFF800B235
:1016400099F804205FFA84FA524566D8002401F024
:1016500021F96C4B21466C481C8020F0AFF86B4898
:1016600023F006FF6A4B186823F002FF694B2146FE
:101670001C80694B4FF4207268481C8024F08FFB5B
:1016800000F0BAFD664C00220023204620F080F8CE
:101690000028F8D001215A4820F090F815B90846E2
:1016A00000F0FCFB0027DFF83C81DFF89891DFF8C1
:1016B00098A198F800305FFA87FB5B4500F2D08074
:1016C000584821F0D6F8002D7FF42CAF284600F0C2
:1016D000E5FB27E70446464820F055F82146024638
:1016E0003B78514821F0C5F8424B186809F012F9CF
:1016F00000F11602162A044604D84C4B1341DB07AE
:101700007FF570AF21464A480DE58046DFF83C91F1
:10171000DFF83CA1DFF83CB17CE7464B1422002106
:10172000BAFA8AF813A853F82A7024F038FB032277
:10173000514641484FEA58188DF84D2021F099F84C
:1017400013AA4146384608F091FB10F10D0F0246EE
:1017500011D15146584621F08CF80121384608F045
:10176000B9FC0021384608F0B5FC13AA41463846BA
:1017700008F07CFB024651460134002A6CD02F4809
:1017800021F077F8B0E700BF807403003F420F00FC
:1017900040420F00A80900209E740300B5740300A6
:1017A00090090020CE740300F06B0020740100202B
:1017B000983A0020E0460020E07403006C770300B4
:1017C000C009002090770300AE770300E2770300A2
:1017D000600E0020943A002001750300227503007A
:1017E0004F75030087070020440100209175030016
:1017F000783A0020703A0020C17503004776030054
:10180000E846002060690020743A0020700800203B
:10181000EC460020066A0020046A0020F046002002
:10182000000900205C7703001C760300FEFFBDFF6B
:101830004E700300E83900205E760300B97603009D
:101840007C7603000077030048090020DD75030063
:1018500030090020FE7503000C4821F00AF8EFE67D
:101860005946484621F005F84FF0FF324FF0FF335C
:1018700050461FF08DFF0137044610B10146044861
:1018800051E45946034820F0F4FF12E7E8760300DC
:10189000267703004477030001481AF02DBE00BFED
:1018A0007049002008B5002104481FF0E7FF20B16F
:1018B000BDE8084040B220F01FB808BD8C490020A8
:1018C000062110B50F481FF0C2FF00280BDD0021D4
:1018D0000D481FF0D3FFBDE8104046F267620023B9
:1018E0000A481AF0B5BE094823F0A1FF40B90648DE
:1018F0001FF0C1FF20B9BDE8104005481AF0FCBD3B
:1019000010BD00BFCC620200C4490020881800202E
:10191000C849002008B5084820F0ABFF074BD3E8C2
:10192000EF1F0339C3E8E21F002AF8D1BDE80840E1
:1019300003481AF0E1BD00BFF77703008C4900208F
:1019400090490020014603488368DB690BB10122FE
:1019500018477047CC62020010B514481FF08BFF87
:10196000044658B1002111481FF088FF10481FF0AD
:101970008DFF0020BDE8104000F05ABC01210B484B
:101980001FF07CFF0A481FF081FF214609481FF025
:1019900075FF09481FF06FFF28B107481FF06EFF61
:1019A00006481FF073FF0120E4E700BFF049002064
:1019B000E86C0200EC490020D8490020186D0200B4
:1019C00010B5012115481FF059FF15481FF053FFAE
:1019D000044620B11348BDE8104020F04ABF124829
:1019E0001FF049FF70B121460F481FF047FF0F4815
:1019F0001FF04CFF0E4821461FF048FF01F05CF835
:101A00000C48E8E708481FF039FF08481FF03EFF80
:101A1000074801211FF03AFF0748DCE7C4490020CE
:101A2000D849002003780300E8490020106D020027
:101A3000186D02002A7803003E78030010B519489B
:101A40001FF019FF68BB18481FF015FF044620B1AE
:101A50001648BDE8104020F00CBF15481FF00BFFE2
:101A600060B1214612481FF009FF12481FF00EFF17
:101A7000214611481FF002FF1048EAE701210C48F7
:101A80001FF0FCFE0B481FF001FF01210A481FF068
:101A9000F5FE00F0FFFE0A4B18681AF039FB094802
:101AA000D7E710BDF0490020E84900205178030035
:101AB000D8490020186D0200EC490020747803001A
:101AC000F44900208978030008B5084820F0D1FEC9
:101AD000074BD3E8EF1F0331C3E8E21F002AF8D118
:101AE000BDE8084003481AF007BD00BF9D78030019
:101AF0008C4900209049002010B516481FF0BBFE0D
:101B000030BB15481FF0B7FE10BB14481FF0B3FEE2
:101B10000446E8B9042112481FF099FE00280EDDA2
:101B2000012110481FF0AAFE00F0B4FE0E4820F07C
:101B3000A0FE0E4B1868BDE810401AF0E9BA214625
:101B400008481FF09BFEBDE81040094820F091BEF8
:101B500010BD00BFF0490020D8490020E84900200E
:101B6000CC620200EC490020A7780300F449002071
:101B7000B67803007C4B10B518607C481FF09AFEC5
:101B800028B97B4820F075FE6FF012040AE04FF48C
:101B9000803178481FF03CFE044628B10146764863
:101BA00020F067FE204610BD4FF0E86171481FF03D
:101BB0000CFE044610B101467048F1E77048714BC5
:101BC000436010238360FFF7BDFE6F4820F051FE95
:101BD0006E496F4823F0D1FD6E486F4923F01BFE1C
:101BE00062481FF067FE08B96C48CBE75F481FF0FA
:101BF00061FE0028F8D04FF4803169481FF008FEDC
:101C0000044610B101466748CAE74FF4B011664870
:101C10001FF0FEFD044610B101466448C0E753487A
:101C20001FF048FE08B96248ACE74FF4B0116148B4
:101C30001FF0EEFD044610B101465F48B0E74FF0DB
:101C4000E86157481FF0C1FD044610B101465B48EA
:101C5000A6E75B485B4B436040238360FFF772FE5F
:101C6000594820F006FE5948594923F086FD3F485F
:101C70001FF020FE08B9574884E73C481FF01AFEC1
:101C80000028F8D04FF4803153481FF0C1FD0446BE
:101C9000002887D14FF4803150481FF0B9FD044629
:101CA00000287FF47FAF4FF0B8614B481FF08DFDE7
:101CB000044600287FF476AF4FF0B86147481FF024
:101CC00084FD044600287FF46DAF4548454B464CE3
:101CD000436004238360454B63600823A360FFF7E0
:101CE00031FE2046FFF72EFE0321414820F0C1FDC2
:101CF00000F090F8044600287FF454AF3D483E4978
:101D000023F03BFD19481FF0D5FD08B93B4839E7E2
:101D100016481FF0CFFD0028F8D04FF48031384826
:101D20001FF076FD044600287FF43CAF4FF4B0115D
:101D300034481FF06DFD044600287FF433AF4FF0A8
:101D4000B8612F481FF041FD044600287FF42AAFF8
:101D50002D482E4B436020238360FFF7F3FD2C4872
:101D600020F087FD1EE700BFF4490020CC6202008E
:101D7000C6780300086D0200E178030002790300D1
:101D8000B8490020F91A0000267903003D1A000026
:101D9000C849002088180020C119000051790300AB
:101DA000206D02006A790300186D0200907903002B
:101DB000B3790300106D0200CF790300F1790300BD
:101DC000DC490020C11800001A7A03009049002065
:101DD000A51800003D7A0300006D0200F86C0200B7
:101DE000AC49002015190000A0490020C91A0000C4
:101DF0005B7A03007049002059190000817A0300C2
:101E0000F06C0200E86C0200804900209918000084
:101E10009C7A030008B5024820F02BFD002008BD85
:101E2000CC7A0300084B1A691268520148BF80F04F
:101E3000010028B19B68DB684FF0806102481847B9
:101E40009B681B69F8E700BFCC62020038B5114DF2
:101E50002B78C3B9104C204623F03FFAB0B1226969
:101E6000A1681368204623F0806313600B684FF469
:101E7000C0221A219847034630B9FFF7D3FF034623
:101E800010B901232B700023184638BD6FF01203E0
:101E9000FAE700BFF26B0020CC62020010B5074BDE
:101EA00004461B7823B12046BDE81040FFF7BABFB7
:101EB000FFF7CCFF0028F6D010BD00BFF26B00206A
:101EC00010B5214823F009FA30B9204820F0D1FCA0
:101ED0006FF01204204610BD1D481FF0EDFC0446B3
:101EE00020B101461B4820F0C4FCF3E7164823F05C
:101EF000F4F908B91848E9E718481FF0DDFC044672
:101F000010B101461648EEE70F4823F0E6F908B98C
:101F10001448DBE714481FF0CFFC044610B101461B
:101F20001248E0E7124823F0D8F908B91148CDE784
:101F300011481FF0C1FC044610B101460F48D2E71A
:101F40000F4820F096FCC5E7AC6202000B7B030053
:101F5000386D02002A7B0300547B0300306D0200C1
:101F6000757B0300A17B0300286D0200C27B030088
:101F7000CC620200EE7B0300406D02000D7C03008A
:101F8000377C03002DE9F047854F06463B78002B50
:101F90004BD0002849D04FF000094C46814D824B70
:101FA0002A78011F03EB42183C3051F8042F131418
:101FB000002BB8BF5B429BB212B29C42B8BF1C461A
:101FC000002AB8BF524292B29145B8BF91468842AA
:101FD000EBD1DFF810A2DAF80030002B0FDA402C3A
:101FE00002DCB9F1400F0ADD4C45ACBF00210121F4
:101FF0004B4622466D48CAF8001020F03AFCDAF849
:102000000030002B70DBDCB2002356F82320002CBC
:102010006FD1121428F813200133102BF5D12B782F
:102020000133DBB2042B66D82B70614A6148137808
:102030006149DFF8B491002B0CBF8046884683F0DD
:1020400001031370D9F80030002B00F08C809A68DF
:1020500014885A68A4B2B2F800A09A891FFA8AFAC2
:10206000564B544519784FD8AAEB0405ADB2002958
:1020700050D0544577D0DFF864A1DAF8001049B1A8
:10208000D9F800302A469B894D4820F0F2FB002306
:10209000CAF80030C446D9F800504FEA841E2B68B5
:1020A00003EB841303F1400962461868596808334A
:1020B00003C24B459446F7D1286840220021704462
:1020C00023F06DFEAB890134B4FBF3F103FB114443
:1020D000AA68A4B23B4B1480D3E8EF1F0131C3E8D8
:1020E000E21F002A1DD0F7E74C45ACBF00240124B5
:1020F0008AE712B28EE700232B70334B1B68002B4C
:1021000093D02948984790E70AEB02052D1BADB202
:102110000029B0D1042D1FD840220021404623F0D1
:102120003EFE3B784146002B14BF3046002000F0B5
:10213000C9F9014688B3254B1A680132052A1A608D
:1021400005D93220B2FBF0F300FB13232BBBBDE813
:10215000F0471F4820F08DBB01211E481970294609
:1021600020F087FB85E740220021404623F017FE40
:10217000194BD3E8EF1F0131C3E8E21F002AF8D161
:10218000164B17481A6801321A60D0E8AF2F196849
:102190009142C6D91FF0A8FBC3E7BDE8F08700BF96
:1021A000F66B0020F56B0020086A0020847C030099
:1021B000F36B00204C4A00200C4A0020F46B0020F6
:1021C000DE7C0300044A0020104B0020F849002068
:1021D0000E7D0300BA7C0300084A0020004A00205C
:1021E000FC490020C00100200C4B002000210148C8
:1021F0001FF07ABB084A0020002108B5074B0848A9
:102200001970084B19601FF06FFB07481FF06CFB3B
:10221000BDE8084005481FF067BB00BFF46B002015
:10222000084A0020004A0020044A0020FC490020FF
:102230004FF0FF3307B501A9019301F0BFF938B999
:10224000019B5A1C032A28BF4FF0FF33024A136038
:1022500003B05DF804FB00BFC001002037B50246A3
:102260006C460B46134903C984E803001046F2B1DB
:10227000EBB1114D2A7812B1002003B030BD0F4AE6
:1022800010600F4A2046136001F0F0F80028F4D1E6
:102290009DF800200B4B1A70019B5A1C032A28BF83
:1022A0004FF0FF33084A136001232B70E4E76FF00F
:1022B0001500E2E700680200F86B00200C4B0020DC
:1022C000104B0020F66B0020C001002070B52C4B95
:1022D0001B78002B50D02B4E3378002B4AD12A4844
:1022E00000F07AF800F07EF8044628B1014627484D
:1022F00020F0BFFA204670BD014640222448254DFB
:1023000023F04DFD21464022234823F048FDFFF7EE
:1023100073FF2B782148002B08BF00201C4900F0D8
:10232000ABF8044610B101461D48E1E72B781D4883
:10233000002B08BF0020184900F0C4F8044610B173
:1023400001461948D4E701F0F9F8044630B10146D6
:10235000164820F08EFA00F0D7F8CBE7144B297816
:10236000144A154800290CBF1146194620F081FA7D
:10237000012333700024BDE74FF0FF34BAE700BFFC
:10238000F86B0020F76B0020851F0000497D0300DB
:102390004C4A0020F66B00200C4A0020CC4A00205A
:1023A000647D03008C4A0020807D0300A37D030030
:1023B000437D0300467D0300D27D0300012908D13F
:1023C00038B1044A126822B1D0E9000100B901B164
:1023D00010477047144B0020014B1860704700BF36
:1023E000144B002037B51D4D2B78002B34D14FF006
:1023F000502449F6A633C4F85C350123A361D4F810
:10240000203153B10021164801AA21F043FE0028D3
:1024100008DA6FF0040003B030BD0021212023F062
:10242000CDFAECE7019B0F4A1979186809F08EFF85
:1024300002460028EDD10121282004F03BF9282094
:1024400004F008F9084A094909480BF0B7FD094B9F
:102450009842DED101232B700020DCE7F96B0020CD
:10246000486D020000800250BD230000C40100201E
:10247000EC0100200000AD0B1FB50F4C2378012BA1
:1024800013D100B989B11023CDE9010100220B4815
:1024900001A9ADF80C300BF063FE094B984207D14F
:1024A00002230020237004B010BD6FF01500FAE77E
:1024B0006FF00400F7E700BFF96B0020EC0100208B
:1024C0000000AD0B1FB50D4B1B78022B13D100B9CB
:1024D00089B11023CDE90101094801A9ADF80C30FB
:1024E0000BF0B2FE074B984214BF6FF004000020BF
:1024F00005B05DF804FB6FF01500F9E7F96B0020FB
:10250000EC0100200000AD0B10B5054C2378022B28
:1025100004D104480BF0DAFE0123237010BD00BF84
:10252000F96B0020EC010020034648F6D870834286
:1025300006DD4AF273729342CCBF4AF2747098B2CD
:10254000044B1A8882421EBF18804FF05023C3F8F4
:102550005C05704784070020F8B50746044600254F
:1025600007F8141B19481FF0C9F9022965610E46C6
:102570007D60E561258415D003291ED0012E2946F2
:10258000134805D01FF0BAF9C4E902552582F8BDF9
:102590001FF0B4F9C4E9025525820E48BDE8F840A1
:1025A00020F067B929460A481FF0A8F961680A486F
:1025B0002582BDE8F84020F05CB9012104481FF0F5
:1025C0009DF9064B064819882582F2E7184B002032
:1025D0001C4B0020047E0300137E030084070020B0
:1025E000317E03002DE9F0418AB02422002101A8A8
:1025F00023F0D5FB49F6A6324FF050230292D3F8D0
:102600005C357F4E9BB2002B08BF13467D4FDFF831
:1026100010827D4D33804FF0FF324FF0FF3338464C
:1026200019F0B0FD002140461FF068F9044648B19A
:1026300049F6A633284602931FF060F901A8FFF778
:102640008BFFE8E7D5E8EF3F012B03D1C5E8E24F68
:10265000002AF7D1DFD16D4BD3E8AF2F9DF82500CD
:102660009DF824100328089B1FD80DF1280C0CEBB3
:10267000410C134401302CF8102C08938DF82500E0
:10268000013101F003018DF824109DF82510089BFD
:10269000012938BF0121B3FBF1F39DF80410032990
:1026A000B9D8DFE801F00E103C760AA800EB410033
:1026B00030F810CC20F8102CA3EB0C031344089333
:1026C000DEE70121BAE7039B1A44049B039201331E
:1026D000132B04939FD992FBF3F30A22C3F1020355
:1026E00053435B1083EAE372A2EBE372082AC8BF8C
:1026F0001C4640F24B12464B49F6A630634393FB0F
:10270000F2F3182BA8BF18236FF017029342ACBF47
:10271000C01880180290FFF707FF02218EE70A22F7
:10272000C3F1020353435B1083EAE372A2EBE3724B
:10273000082AC8BF1C4640F24B12354B6FF01700F9
:10274000634393FBF2F3182BA8BF1823029A214688
:102750008342ACBFD0181018FFF7E6FE32882D4830
:1027600020F087F884EAE473A3EBE4730F2B01DC19
:10277000032163E79DF815300133DBB2092B8DF897
:1027800015307FF648AF2146234820F072F800212B
:1027900054E70A22C3F1020353435B1083EAE37256
:1027A000A2EBE372082AC8BF1C4640F24B12184B3A
:1027B0006FF01700634393FBF2F3182BA8BF1823A5
:1027C000029A8342ACBFD0181018FFF7ADFE84EA1E
:1027D000E473A3EBE473202B0DDD9DF8143001337B
:1027E000DBB2022B8DF814307FF615AF21460B4873
:1027F00020F03FF891E700238DF814300BE700BF7D
:1028000084070020D0080020244B0020204B00200B
:1028100018FCFFFF4D7E0300707E03009F7E0300C7
:10282000F401002010B588B000220023CDE9062372
:1028300000230122094CCDE90323CDE901330093A4
:102840004FF480622046064B064919F07DFF204672
:10285000054908B0BDE8104019F000BFB8180020C5
:10286000E5250000A89B0020CA7E030010B5074C98
:10287000014620461FF042F80121201D1FF03EF8BE
:10288000BDE81040024819F043BC00BF204B0020B7
:10289000D008002008B5012103481FF02FF8BDE83B
:1028A0000840024819F034BCF4010020D008002090
:1028B00000487047A00800200023084A1370084A07
:1028C0001360084A1360084AD2E8EF1FC2E8E03FED
:1028D0000028F9D105481FF0CCBF00BFFB6B0020DA
:1028E0002C4B0020284B0020EC490020D37E030015
:1028F00038B50A4600EB410504460021A5420DD13A
:10290000B1F5FA7F2C4C13DA2378012B3CD0022B43
:1029100046D0002B3DD1294B002239E034F9023B4F
:10292000002BB8BF5B421BB29942B8BF1946E5E71E
:102930000146234800F0DAF82378012B22D0022B3D
:1029400028D033BB0028E6DD1C491E480A68006811
:10295000013282420A601CDB01220B601A4B22709A
:10296000D3E8EF1FC3E8E02F0028F9D1FFF792FF6B
:10297000164B186808B119F0CBFBBDE83840144875
:102980001FF077BF002804DC022301222370114BC3
:102990001A6038BD002803DD012323700D4BBBE70F
:1029A0000C4A1368013313600B4A12689342F0DB40
:1029B000BDE83840FFF780BFFB6B00202C4B0020A8
:1029C0003C4B0020344B0020EC490020384B0020C9
:1029D000E27E0300284B0020304B00202DE9F3411C
:1029E0001C4C054620460E461746984600F030F926
:1029F00068BBC4F8F002294620461EF087FF28B1C4
:102A00006FF01504204602B0BDE8F08120464FF477
:102A10007A511EF085FF04460028F1D10E4B324654
:102A20001E600E4B29461F600D4BC3F800800D4BF6
:102A300018700D4B18600D4B18600D4B18704FF44B
:102A4000FA730C4800933B461FF013FFDAE76FF070
:102A50000404D7E73C4B0020344B0020304B0020CF
:102A6000384B0020FB6B00202C4B0020284B002013
:102A7000FA6B0020F27E03009F29034670B512D83E
:102A80000B4C0C4D26784A0001FB06F0194605EB6D
:102A9000400023F05DF916B90123237070BD0023B7
:102AA000A02128462370BDE87040FFF721BF00BF7A
:102AB000FA6B0020A86A002010B5084C2378013B6F
:102AC000012B01D8FFF7F8FE0023054A237013609D
:102AD000044A1360044A137010BD00BFFB6B002052
:102AE0002C4B0020284B0020FA6B002038B508B989
:102AF00020F0A4FE0A24D0F8F0520D4B53F82530F4
:102B00005C43A24207D014245C43A24203D01E249B
:102B100063439A4209D1074B53F825309847002860
:102B2000E6DB14BF0120002038BD4FF0FF30FBE78B
:102B3000806D0200706D0200032966D8DFE801F0A5
:102B40000220374E324B1A689B88C0F8C422A0F886
:102B5000C832304B1A689B88C0F8CA22A0F8CE321F
:102B60002D4B1A689B88C0F8D022A0F8D4322B4B8A
:102B70001A689B88C0F8D622A0F8DA320020704785
:102B8000274B1A689B88C0F8C422A0F8C832254B8E
:102B90001A689B88C0F8CA22A0F8CE32224B1A6865
:102BA0009B88C0F8D022A0F8D432204BE0E7204B1D
:102BB0001A689B88C0F8C422A0F8C8321D4B1A6856
:102BC0009B88C0F8CA22A0F8CE321B4B1A689B889B
:102BD000C0F8D022A0F8D432184BC9E7184B1A68B5
:102BE0009B88C0F8C422A0F8C832164B1A689B888C
:102BF000C0F8CA22A0F8CE32134B1A689B88C0F8DE
:102C0000D022A0F8D432114BB2E74FF0FF3070471A
:102C1000BA6C0300B46C0300AE6C0300A86C030034
:102C2000A26C03009C6C0300966C0300906C030084
:102C30008A6C0300846C03007E6C0300786C0300D4
:102C4000726C03006C6C0300666C0300606C030024
:102C500010B5044610B94FF0FF3010BD012300211C
:102C60000360C0E945111022043023F098F804F104
:102C700014001FF0E9F92D4B04F1B40203F118011F
:102C800053F8040B8B4242F8040BF9D1284B04F1A2
:102C9000CC0203F1180153F8040B8B4242F8040BE9
:102CA000F9D1244B04F1E40203F1180153F8040BA9
:102CB0008B4242F8040BF9D11F4B04F1FC0203F1E3
:102CC000180153F8040B8B4242F8040BF9D142F27D
:102CD000107104F5ED7304F29A2223F8021F934257
:102CE000FBD10021C02204F58E7023F058F800219A
:102CF000124B2046C4E9A733C4F8A812C4F8AC129A
:102D0000A4F8B012C4F8B212C4F8B612A4F8BA12F9
:102D1000C4F8BC12C4F8C012C4F8A432FFF70CFF08
:102D2000002898D12A23C4F8EC3296E7086D0300F6
:102D3000F06C0300D86C0300C06C03004006400632
:102D40002DE9F04F00F53777A9B03B46164604460B
:102D50001EF0E8FE18220021A4F8E80205461CA88F
:102D600023F01DF81822002122A823F018F8502E75
:102D700022D1B4F9C4320893B4F9CA320193B4F938
:102D8000D0320693B4F9D6320A2D07932EDD4FF0D8
:102D9000000B22AB0493AE4B0DF170080993CDF8F4
:102DA00014B0CDF808B00025029B2E46A7F5377A5F
:102DB0004FEA4309039529E0A02E0BD1B4F9C6329E
:102DC0000893B4F9CC320193B4F9D2320693B4F932
:102DD000D832D9E7B4F9C8320893B4F9CE320193A6
:102DE000B4F9D4320693B4F9DA32CDE7B4F9183134
:102DF000002B00F31A8200260023A4F81A31304673
:102E0000266029B0BDE8F08F0123039310ABBAF917
:102E1000E420BAF9B4104B44B7F900001EF042FFA9
:102E20008C4B0CAA33F90930BAF9CC105843039BE8
:102E3000064442F8230016ABBAF9FC204B44B7F91C
:102E400000001EF02FFF844B039A33F909300AF17A
:102E50000C0A58430EAB43F82200054409F10C0953
:102E6000002AD1D0002E40F0DA80002D00F0E5805D
:102E700085EAE573B3FA83F31F22013B1BB209997C
:102E8000D21A31F9023B0991059902FB031305930C
:102E9000069B46F30F31B3EB820FB8BF4FF0010B27
:102EA000002940F3CD800C986C4B03EA80001FF0A2
:102EB0004DF8A8F80000C0F58040A8F80C0045F3D4
:102EC0000F3100290ADD654B0E9803EA80001FF0E0
:102ED0003DF8049B1880C0F580409881029B08F162
:102EE000020801330293049B023702330493029BCE
:102EF000062B7FF458AF059B079A4FF000089342CA
:102F0000B4BF5E464BF00106554B36B20A93554BA3
:102F100004F1B4050993544B07934FF448534246C8
:102F2000B5F92812204604931EF024FF4FEA480307
:102F30000693484B074603EB48031A4600212846F0
:102F400002931EF00CFD9A224FF4207A8011C0EB00
:102F5000071010FB02F0C0F34F230593434BC8EB5F
:102F600048270393049BFF01534407F510571BB2F6
:102F7000DDF81890A5F1B40BBFB20B93BBF9FC3090
:102F8000BBF9B400BBF9CCC0BBF9E4100493002E2C
:102F90006ED0059B41F69A1E184400B25045B8BF4A
:102FA00050463BB29842A8BF184622AB39F90310ED
:102FB00016ABABF8B40039F90300039A01FB00F338
:102FC000DB1213FB0EF35B150133B2F900E00CEBDF
:102FD00063031BB27345B8BF73460B9A0CF1040C24
:102FE0009342A8BF1346ABF8CC30B5F82832BDF8F1
:102FF0001020A3EBEC0313FB00F3DB108810A3F508
:103000008053584302EB820100114900002809B2A5
:1030100063DC404204921EF099FF404260E086EA81
:10302000E672B2FA82F2013A12B23DB185EAE57374
:10303000B3FA83F3013B1BB221E71F221F231EE7D4
:103040004FF48043A8F8003039E74FF4407A95E711
:10305000786D0300386D0300206D030000C0FFFF92
:10306000506D0300606D03006C6D03005C6D030028
:1030700040F28F2E1CAB33F90930059A049310AB44
:1030800039F903C0049B03FB0CF3DB1213FB0EF3B3
:1030900000EBA35313441BB25345B8BF53460FFA7A
:1030A00087FE7345A8BF7346ABF8B430B5F8283235
:1030B000A3EBE00313FB0CF30498DB100230801049
:1030C000A3F5805358438013002800F39C804042AE
:1030D00004911EF03BFF404298E004921EF036FF40
:1030E00000B2049A803040F30720024412B2B2F5D5
:1030F000C07FB8BF4FF4C072ABF8FC20039B803791
:103100000233BAF5407F0BF10C0BBFB2039309F108
:103110000C099AD10021029A28461EF020FC069B39
:10312000454A05F1180A13441A460746002150463D
:103130009B461EF014FC079BC0F34F22814633F9D7
:10314000020BC7F34F210793531A1BB2834215DAC0
:103150000144891A09B201EB410701EB87015A4684
:1031600041F38F0150461EF0FAFBB91049428146E7
:10317000029A284609B21EF0F2FB0746099A32F974
:10318000023B09924FEAE91249F3CF194B4508DA9D
:10319000298B9A1A11FA82F12983A98C11FA82F2E9
:1031A000AA840A98F91130F9022B47F3CF179742F6
:1031B0000A9008DD521A298811FA82F12980A9891A
:1031C00011FA82F2AA8108F10108B8F1060F05F19F
:1031D00002057FF4A4AED4F814310133C4F81431DD
:1031E000002E3FF403AEB4F81A3101331BB2062BA4
:1031F000DBBFA4F81A31089BA4F81A810193019B44
:10320000A4F81831FBE504911EF0A0FE00B2049969
:10321000203040F38910084400B2B0F5C07FB8BF39
:103220004FF4C070ABF8E40068E79BB29E1C013B12
:1032300036B2A4F81831DFE5206D03002DE9F04720
:1032400043F6D72C002540F6EA3642F2984A491058
:103250008D4215DB0646002740F2353C41F2DE7E0A
:1032600043F25E088F4234DB002547F6FF7C3A4E7E
:1032700002F1020E8D4200F1100053DBBDE8F08731
:1032800050F83580D3F804E01F68A8EB0E0404F56D
:103290000054A41306FB0474C3F80080D3F808801C
:1032A0005C60A4EB08095FEAA93948BF09F101098C
:1032B0000AFB09EEDC68AEEB0404A41348BF01343A
:1032C0000CFB0484C3E902E4641040F83540013586
:1032D000BEE7D6F804A0D3F814900137AAEB09048E
:1032E00004F50054A5131C69C3F810A00CFB054499
:1032F0009D695C61A4EB050A5FEAAA3A48BF0AF13E
:10330000010A0EFB0A99DC690836A9EB0404A41330
:1033100048BF013408FB0455C3E906956D1046F813
:10332000045C9FE750E90234234450E904473C44DD
:10333000E413B442B8BF3446DB136445A8BF644607
:10334000B342B8BF33466345A8BF634622F8154071
:103350002EF8153002358DE70080FFFF2DE9F74F7D
:103360008946019240F20A38002240F23F4C45F66D
:10337000F52143F2672440F2B916DE27DFF894E026
:10338000234D09F1040A019B9A4202D103B0BDE822
:10339000F08F03680C3008FB03FB50F8083C0BF57A
:1033A000804B0EFB03BB50F8043C0CFB03BB0368D3
:1033B00001FB03BB436804FB03BB836805FB03BB42
:1033C000C36806FB03BB036907FB03B349F832304C
:1033D00050F8083C07FB03FB50F8043C0BF5804B0E
:1033E00006FB03BB036805FB03BB436804FB03BB8D
:1033F000836801FB03BBC3680CFB03BB03690EFBC3
:1034000003BB436908FB03B34AF832300132BAE721
:1034100039F1FFFFFEF7FFFF2DE9F0410446DFF829
:10342000488000EBC105AC4201D1002017E0D4E98F
:103430000067012E04D1384621F04AFF0834F2E734
:103440003A463146404620F05AF903460028F5D066
:1034500004483A4631461FF00CFA6FF00400BDE80C
:10346000F08100BF357F0300304E002038B505469F
:1034700000284BD0274800F03FFA044628B1014607
:1034800025481FF0F6F9204638BD02212348FFF7F2
:10349000C3FF04460028F6D109212148FFF7BCFFED
:1034A00004460028EFD104211E48FFF7B5FF04466B
:1034B0000028E8D10E211C48FFF7AEFF0446002883
:1034C000E1D10A211948FFF7A7FF04460028DAD105
:1034D00003211748FFF7A0FF04460028D3D140F28C
:1034E000622244F618010B4820F009F9044630B175
:1034F000014610481FF0BDF96FF00404C3E7012333
:1035000068602B700C481FF0B4F9BCE76FF015042D
:10351000B9E700BF304E0020697F0300906D0200C4
:10352000F86E0200D86E0200B86D0200886E0200CC
:10353000286E0200877F0300AD7F030010B50321D2
:103540000548FFF769FF044618B1014603481FF01C
:1035500090F9204610BD00BFA06D0200CF7F030090
:1035600073B5064644F61801124801AA20F0BFF8C8
:1035700018B16FF0040002B070BD9DF8044044F62D
:10358000180104EB4604802CA8BF802424EAE474CC
:10359000084844F4007220F0B2F805460028E8D14B
:1035A0006310054822463146403B1FF062F9284629
:1035B000E1E700BF304E0020EC7F030010B50C4661
:1035C000B1B150B109210C48FFF726FF20B92060A6
:1035D0000A481FF04EF9002010BD0A210848FFF7E5
:1035E0001BFF0028F8D14FF0FF3306482360F0E7B7
:1035F0006FF01500F0E700BF406E0200108003007E
:10360000886E0200AD7F0300014601481FF031B90A
:103610003680030008B502481FF02BF9012008BDD1
:103620005C80030008B502481FF023F9012008BDA3
:103630008780030008B502481FF01BF9012008BD70
:10364000B380030008B502481FF013F9012008BD3C
:10365000D880030008B502481FF00BF9012008BD0F
:10366000FC80030008B502481FF003F9012008BDE3
:103670002F81030008B502481FF0FBF8012008BDA8
:103680005481030008B502481FF0F3F8012008BD7B
:10369000858103000A4608B50123C0B203FA00F190
:1036A00007484AB18368DB68984720B1014605485E
:1036B0001FF0DFF8012008BD83681B69F4E700BF35
:1036C000CC620200A8810300F8B50125154B164E07
:1036D0001960164B16491A60164BB7684B6005FA0D
:1036E00000F38B60FB6904460BB90120F8BD2A4644
:1036F000304698470028F8D1E1B2BC693369002C04
:10370000F3D01B688D401D4214BF4FF080634FF013
:1037100000734FF0A0723046A047003818BF012058
:10372000E4E700BFE44E0020CC620200E04E00203F
:10373000D44E002039370000B2F5002F08B50AD169
:10374000054A064B00201B6811689847BDE80840F1
:10375000034818F0DDBC08BDE04E0020E44E002018
:103760006009002010B5054818F050FC044618B157
:10377000014603481FF07DF8204610BDC04E0020D2
:10378000CB81030010B54FF0FF324FF0FF330548F7
:1037900018F0C4FB044618B1014603481FF069F84D
:1037A000204610BDC04E0020E781030010B58AB04E
:1037B00008460D99042903D014481FF05AF810E068
:1037C00008930C9B0024099304AB02930323CDE9D7
:1037D000040201AACDE9062101940393FFF7D2FF69
:1037E00010B101200AB010BD09480A4983681C685D
:1037F00002AB1A46A047014608B10748DDE7FFF7CC
:10380000B1FF003818BF0120ECE700BF01820300C0
:10381000CC630200646F02002682030070B5044688
:10382000084E094D4FF0FF324FF0FF33304618F08D
:10383000A9FC204602F094F90028F3D028461FF096
:1038400018F8EFE7600900204782030070B51446BE
:1038500001B922B10B481FF00CF8012070BD20EA1D
:10386000E0754FF40046214640F2E7304FF47A729B
:103870000023C5FB0601FCF76DFC22F09FF82046F3
:10388000ECE700BF6882030010B58AB008460D99C6
:10389000042903D014481EF0ECFF11E008930C9BA0
:1038A0000024099304AB02930323CDE9040201AA87
:1038B0000393CDE906210194FFF764FF034610B19D
:1038C00001200AB010BD094809498268146802AA9B
:1038D000A047014608B10748DDE7FFF743FF00387E
:1038E00018BF0120EDE700BF01820300CC63020096
:1038F000646F02008B820300F0B593B00746282264
:10390000002108A822F04BFA3E4821F0FCFD3E4879
:1039100021F0E3FC48B13D4821F0DFFC28B13B48F1
:1039200021F0DBFC48B93A4800E03A481EF0A1FF1C
:103930006FF00504204613B0F0BD4FF480313648D7
:103940001EF0EAFC04460028F4D1304821F0C5FC02
:103950000028E8D04FF4803130481EF0DDFC0446EA
:103960000028E7D1294821F0B8FC0028DBD04FF42B
:1039700000312B481EF0D0FC04460028DAD14FF469
:10398000A4720023CDE906230523CDE90070CDE91B
:10399000020304904FF42F72224B2349234818F05E
:1039A000D3FE2349214818F059FE04460028C1D10E
:1039B00038461FF0B4FE08B11E48B7E71E4E08ADEA
:1039C0000FCE0FC596E80F0085E80F001B4B384659
:1039D00010931E2308A9119302F07AF808B1184831
:1039E000A4E7384602F094F908B116489EE7B96892
:1039F000154A91429ED015481EF03BFF6FF004041B
:103A000098E700BFC04E0020CC630200CC620200E9
:103A1000BB820300A4820300886F0200806F020053
:103A2000786F02001D380000A89F0020B019002008
:103A3000CF820300D7820300406F0200A002002063
:103A4000F582030012830300637A04002B830300D2
:103A50002DE9F04F91B0009302F004030293C2F3FA
:103A6000C2030133840705460E46DDF868800392E1
:103A7000059340F0BB81041D30B1072909D86FF0D0
:103A80001B0011B0BDE8F08F01F007063444C6F109
:103A90000806009B4FF000094FF0040A591E4FF032
:103AA000FF334F460193CB465346CDF810900DB1EE
:103AB000009820600598002800F3E8809848009A54
:103AC000824203D397488242C0F0E080039AA4EB7D
:103AD000050E92074FEA9E0000F103810F2F00F2BE
:103AE000B180002D00F0058107F140020DEB020CC2
:103AF000019A0CF8200C0CF8102C0498013004905A
:103B0000E7E07A285DD84B280ED8472859D82928CD
:103B10002DD8252852D054D820287AD02338D0F157
:103B2000000B4BEB000B74E04C382E2849D8DFE833
:103B300000F07048484848484848484848484B487A
:103B40004848484848484859484B4B595959704B80
:103B50006D487048184B184848827F4B48484B487E
:103B60007F0000204FF0000B4FF0040A38E00122E4
:103B70002A38C0B202FA00F010EA0E0F49D110F054
:103B8000625C2FD110EA020B43D06046013C5444E2
:103B9000B4FBFAF40AFB04F4002D61D0A3EB050C8E
:103BA000A444B4453FF66BAF002868D1042B47D13D
:103BB00058F8043B2360042304342AE0019A013AB4
:103BC00001924FF0000B24E011F8010C6C2834D165
:103BD000002011F8023C83466C2BC5D14FF0080A37
:103BE0005346D3E708F1070828F00708073424F004
:103BF0000704F8E802AB35B106982044B0423FF61E
:103C00003EAFC4E900AB4FF0000B08344FF0080A98
:103C1000534611F8010F002878D0BBF1000F7FF454
:103C200070AF2528F5D14FF0010B019B01330193B3
:103C30004FF0040AECE7584694E700208346A5E7D6
:103C4000082B02D06FF015001BE708F1070828F0D9
:103C50000708B8EC027B84ED007B08230834D8E722
:103C600068B9042B02D108F10408A4E7082BE9D1B4
:103C700008F1070828F0070808F10808EDE705989B
:103C80000138059058F8040B009010E7039A90074C
:103C900020D54FF0010CA4EB050E4FEA9E00BEF5B7
:103CA000007FCFD20F2FCDD8F5B107F140020DEB39
:103CB000020E019AC0B20EF8200C0EF8102CBCF1C6
:103CC000000F3FF41AAF60F07F000EF8200C09F1EE
:103CD00001090137C5F108024FF6DA7E0434069275
:103CE00097E74FF0000CDAE7BCF1000F01D0013686
:103CF000EFE7029A0236002AEBD10098CDE90631AF
:103D0000FCF754FADDE906310644E2E7631BB3F53C
:103D1000806F97D245B9A6F10804E018B1E600BF5C
:103D2000BC61020090AF0300029A9B0828602B70D0
:103D30009DF81030C2B1EB7085F80290B9F1000F18
:103D400005D0002208A8C5F1010C97420ED14FF012
:103D5000000AC5F101030DF1200801930DF1300BAC
:103D6000574512D1601B8CE66B70E5E710F8013BFC
:103D7000190608D50CEB040EB64503F07F033FF699
:103D80007EAE04F8013B0132DFE7B9F1000F03D04A
:103D900098F90020002A17DB029BD3B11AF80B20F8
:103DA00004F8012B0022019B18191044B0423FF681
:103DB00066AE98F80000009904F8010B20460392C3
:103DC00021F0C6FF039A14440AF1010A08F1010820
:103DD000C6E798F8002055F822300093029B00981F
:103DE00045F82230FCF7E2F9421CDCE76FF00D00E9
:103DF00047E600BF2DE9F04F97B000AFD7F880B08D
:103E00003B62CBF3C0030446894690F802A0FA62F5
:103E1000BB6141B9457800780AEB800020444D45EC
:103E200017D8A0EB0409E378FB61BAF1000F02D0C8
:103E30001BF0010F16D1FB6953BBFB6A1BB149464E
:103E400020463A6A98474D4628465C37BD46BDE84D
:103E5000F08F461C3046FCF7A9F90130304409F1D7
:103E60000109DCE7626823787A62FA6A990079616D
:103E700004EB8301002A40F001810E464FF0000858
:103E80004D4601EB0A094E454CD101EB0A0610E004
:103E90001BF0020FD1D023789A007A61626804EB9C
:103EA00083017A62FA6A002A77D14D46904601EB87
:103EB0000A061BF0050F0CBF02230123FB62FB69FE
:103EC00006EB430A0BF00203BB625645BCD016F862
:103ED000021B16F8013C54F82390994B994502D3E4
:103EE000984B994536D3BB69002B40D0786A1EF0B9
:103EF00097FC00283BD0E9468AB06A46924B536152
:103F00007B6AC2E906314FF4007313848F4B42F889
:103F1000103F00234FF412518D4801F0B7F8023DD5
:103F2000CD46D2E716F8013BF96254F82300FCF7BE
:103F30003DF9D7F88430F96A01304BB1D7F88830B1
:103F400098453EBFD7F8843023F8180008F10108DF
:103F5000054498E7BB6923B1786A1EF061FC00282C
:103F6000C9D11BF0010F05D1FB6AED1AADE7BB6AA1
:103F7000002BAAD04846FCF719F9D7F8843053B182
:103F8000D7F8883098453FBFD7F88420431C22F8E3
:103F9000183008F10108054497E7BAF1000F73D013
:103FA0001BF0040673D0D046002607F148005246A5
:103FB0003B61B96221F0CCFEB96A3B6901EB0A02B0
:103FC000BA62FA69F9695200FA60BA6A02EB410210
:103FD0003A610BF00202BA603A69B96A8A4258D172
:103FE00062781BF0020F18BF00217A6208BF4FEA07
:103FF0005801B2181BF0010FD2B240F09F801BF0A5
:10400000040F14BF40460020BB616270A070E170D5
:1040100020463A6A7969FB6A9847051EFFF614AF95
:10402000BB69414623707B6A3A6A6370FB6984F816
:1040300002A0E37007F14800FB6A9847B0F100085E
:10404000C0F2BA807B69A9EB0A01C91AFB683A6A17
:10405000C91AD7E90A0398470028C0F2AF804FF089
:10406000000BA84408EB000507F1380AB34571D3EB
:1040700000213A6A0846FB6A9847E5E656464FF043
:10408000000807F1380092E75646D04696E7B0465A
:1040900094E7BA6A12F8021B12F8015CBA6254F88B
:1040A0002500274A904202D3264A90421ED3BA697D
:1040B00032B1786A7B601EF0B3FB7B6800288BD13D
:1040C000BA6802BB08F1280207F1300C08F10100C0
:1040D000944407F1580208F1020852FA80F00CF8F3
:1040E000101C5FFA88F800F8105C75E7BA693AB1FD
:1040F000786A7B601EF094FB7B6800287FF46CAFCD
:104100001BF0010F09D006F1280207F13000711CE5
:10411000161806F8205CCEB25EE71BF0040F3FF4E1
:104120005BAF08F1280207F1300008F1010102EB52
:10413000000808F8105C5FFA81F84DE7002063E79B
:10414000BC61020090AF030056830300040000012D
:104150002C6702001BF80A3054F8239087F8373098
:10416000D7F884302BB3D7F888309B4521D2D7F8C5
:10417000843033F81B8001213A6AFB6A07F137006B
:10418000984700281ADB0544B8F1000F06D14846CD
:10419000FCF70CF800F101081FFA88F84146484680
:1041A0003A6AFB6A9847002808DB05440BF1010BCB
:1041B0005CE74FF00008DEE7454645E6054643E686
:1041C000014B1860704700BF3402002080B50546DF
:1041D0000E461746984618F07DFD034621F0E4FF91
:1041E0000446DFF81890424649F800303946304618
:1041F000A84754F8090002F0B3F900BF0800000016
:104200002DE9F047058B04462807904611D4022972
:1042100005F0070540F0CC8020461EF0AFFD78B1D8
:104220000138218B042811D8DFE800F0C2106D8519
:10423000950001290CBF45F0100545F020052583A8
:1042400088F31188BFF36F8FBDE8F08701F0070A8C
:10425000AA4500F0A5800027B9463E46A368002B7A
:1042600000F0BC8041F00801218388F31188BFF37E
:104270006F8FA168002900F0BA800D68002900F056
:10428000B680334652462046D1F80480C047002D00
:1042900076D02B6829461D46F0E701F007035A1F28
:1042A000012A1BD8002221F00701062B276889B2BA
:1042B000C4E9002209D13B4603E0628B01326283EC
:1042C0001B68002BF9D141F00201204621831EF02A
:1042D00055FD00287AD041F0200176E0042B0AD168
:1042E00021F0070189B2204621831EF047FD10B15D
:1042F00041F020012183218B01F0070AAA454FD00C
:104300000027B946AAE7236921F0070141F0060119
:10431000062DD3F8009021832DD1B9F1000F3FD0A5
:1043200041F00801218388F31188BFF36F8F204685
:104330003949C84729E021F00701236941F0040108
:1043400089B2042DD3F804902183E6D000274FF0E2
:10435000040A3E4682E721F00701236941F0050186
:1043600089B2052DD3F808902183D6D000274FF0CD
:10437000050A3E4672E700274FF0060A3E466DE703
:104380002B4687E7B9F1000FD1D1EFF31188202335
:1043900083F31288BFF36F8F238B23F008032383EB
:1043A000258BEA062ED525F01003238305F007059B
:1043B0006669218B002EBFF670AF00232768C4E921
:1043C000003321F0070141F001012183218B4FF0DF
:1043D000000901F0070AAA457FF440AF002F9CD0E6
:1043E00041F00801218388F31188BFF36F8F002FFC
:1043F000C8D03D6839463346524620461EF0EAFC96
:104400002F46F4E7AB067FF51BAF25F0200323838F
:1044100005F0070500E700BF012E020010B530B916
:104420000B480C491EF0B6FD6FF0150010BD8368F7
:1044300033B9074808491EF0ADFD6FF00400F5E7F9
:104440001B6813B1BDE8104018471846EEE700BFDF
:10445000446702000A8403001B84030010B530B9CE
:104460000B480C491EF096FD6FF0150010BD8368D7
:1044700033B9074808491EF08DFD6FF00400F5E7D9
:104480005B6813B1BDE8104018471846EEE700BF5F
:10449000446702000A8403001B84030070B508B15E
:1044A00001B132B90B480C491EF074FD6FF01500D4
:1044B00070BD84680CB1E56835B9064807491EF03F
:1044C00069FD6FF00400F3E741F8040BE368BDE811
:1044D0007040184744670200398403001B840300BE
:1044E00010B5044630B9104810491EF053FD6FF066
:1044F000150010BD006830B90B480D491EF04AFD8B
:104500006FF00100F5E783680BB11B6933B906480A
:1045100008491EF03FFD6FF00400EAE76168984724
:104520000028E6D12060E4E74467020065840300C8
:10453000768403001B84030070B51346044630B92B
:10454000104811491EF026FD6FF0150070BD00687F
:1045500030B90C480D491EF01DFD6FF00100F5E764
:1045600082680AB1956835B9064809491EF012FDFE
:104570006FF00400EAE70A46AC466168BDE87040A7
:10458000604700BF4467020065840300768403002F
:104590001B840300034A13680BB9526813600020A0
:1045A000704700BF3802002030B50C460E4985B078
:1045B0000291D0F8D4110546CDE9003100F1F001A7
:1045C0004FF0FF33204616F061FF50B9012384F805
:1045D0006C30D5F8D03123B1204605B0BDE830406D
:1045E000184705B030BD00BF8D30020038B50C460D
:1045F000114605461EF04CFD034638B928460449CD
:104600001EF046FD03460020236038BD0120FBE775
:1046100073AE03002DE9F04F01238146056946681A
:104620008FB005F57B77D7E8EF2F002A03D1C7E8D5
:10463000E13F0029F7D10CBF1A46002240F0BB80B1
:10464000B368B16A05F5F8781C1F10461EF0A7FD87
:10465000844279D8013A00F0A880B2FA82F24FF091
:104660000044D44072682046073222F00302C5F8A5
:104670003C22B16A1EF093FDC5F84002B36A404681
:104680006343033323F0030302EB4302230103EBF1
:104690004403093323F0030303EBC403C5F83422B6
:1046A0001A440832C5F830227368C5F83842C5F894
:1046B0002C32424BC5E9AD63316800F0F1F9044694
:1046C00000283FD1D9F810B0D9F804A0D9F80030AB
:1046D0000BF53479059004934846DAE90734012B49
:1046E00008BF103C21F090F8DAF82400344904ABFC
:1046F000009301EB8021234648464FF4806217F077
:1047000001FF2021DAF824302E4A06A81BF002FF10
:1047100006A9484617F0A2FF2B490BF5307021F08F
:104720002CF8DAE9050183685C684CB15B46274ADE
:10473000A047044630B9DAE9050183681B692BB943
:104740006FF05704002129E001327EE701229847EB
:1047500004460028F6D11E4B2846C5F8D0311D4B23
:10476000C5F8D4311C4B0393D5F840320293D5F8E9
:104770003C32CDE9008305F51173B26AD5F8E81330
:1047800000F056F904460028DCD105F1F00016F0DF
:1047900023FF0028C5F8F0030ADB022138461EF08B
:1047A000ABFC20460FB0BDE8F08F6FF00B04C9E7FB
:1047B0006FF01504C6E76FF07704F2E7E33002000C
:1047C00068A200209B840300C9300200BD300200B3
:1047D000DD470000753202002931020013B504469E
:1047E00040B100230122CDE90032074BD0E9091284
:1047F00016F020FE236F1B6823B1606F02B0BDE886
:104800001040184702B010BD73AE030013B5044644
:104810000846216901F57B71D1E8AF1F022910D14B
:1048200093B1A0B10121CDE900311346D0E90912BD
:1048300016F000FE074B984208BF6FF00B0002B065
:1048400010BD6FF00F00FAE76FF04C00F7E76FF064
:104850000100F4E72EF8FFFF2DE9F34789461546DE
:10486000066906F57B73D3E8AF3F022B64D113686A
:1048700023B96FF0150002B0BDE8F0871B78002B5C
:10488000F7D0D6F8E8A3BAF1000F36D106F5EC77E9
:104890004FF0FF324FF0FF33384617F03FFB304602
:1048A0002A6801A9FFF7A2FE019C80461CB9384680
:1048B0001EF020FCDDE705F108032367AB6984F8EF
:1048C0006CA06367646460B138461EF013FC214637
:1048D0003046A36E2A68FFF767FE0020C9F8004043
:1048E000C9E71F22296804F1480021F082FA3846FE
:1048F00084F867801EF0FEFBEFE7304610491EF09B
:10490000C7FB04460028B4D0002705F1080303675D
:10491000AB6980F86C70436740641F222968483097
:1049200021F067FA22460121304684F8677000F0D2
:1049300061F80028D1D09CE76FF00F009BE700BF23
:1049400073AE030010B50C46006900F57B73D3E825
:10495000AF3F022B0FD189B10A4900F5307020F02A
:1049600038FF204620F0E3F978220021204621F08C
:1049700016FA002010BD6FF00F00FBE76FF001008A
:10498000F8E700BFE84E00202DE9F04F05460E463F
:1049900090460027D0F8C4A085B0AAF5BE74214681
:1049A0003046FBF7F1FBE0B9114BA4F1480B029341
:1049B000DAF810303246CDE9008329464FF0FF3354
:1049C0005846AAF5E27916F061FD60B97823012214
:1049D00003FB079383F86C20DAF80C300BB15846D0
:1049E0009847783417B105B0BDE8F08F0127D6E7B6
:1049F000A33202001FB5144690B18AB1012912D129
:104A00000A4B00F1F0010293D0F8D43148320193FF
:104A10004FF0FF332046009316F038FD04B010BD70
:104A20006FF01500FAE70020F8E700BFA33202009C
:104A30002DE9F04387B00E46DDE90E811446DDE92D
:104A400010251F4630B329B3DFF850C000F1F0093C
:104A5000002D08BF65469EB9CDE9034400F5E27418
:104A60002046059620F0FBFB03ABCDE900432A4628
:104A70003B464146484616F027FE07B0BDE8F083A6
:104A8000002241460E9248462A4607B0BDE8F04350
:104A900016F06ABF6FF01500EFE700BF894900000C
:104AA000F0B504462B4A87B004AB0E4692E80300EB
:104AB00083E80300002C49D0184616F0C1FB0546D8
:104AC000B0B94FF0FF33E16C04F15407A163CDE9B5
:104AD000010000933846236D04F138021FF0D7FD22
:104AE000A06C1EF00DFCC4F8BC0020B96FF00B05E3
:104AF000284607B0F0BDA06C1EF002FCC4F8C00050
:104B00000028F3D0236CD4F8BC10C4F890300423F0
:104B1000C4F89430C4F8AC300223E3620E4BB4F80E
:104B20004820C4F88C10616C236204F18C03C4F833
:104B3000A070A4F89820C4F8B870C4F8A810A4F81D
:104B4000B020C4F8A400A6612363D1E76FF0150577
:104B5000CEE700BF08680200BC6F02002DE9F047F5
:104B6000044607464FF00109DFF8508014B9384673
:104B7000BDE8F08794FAA4F5B5FA85F509FA05F3CE
:104B80002E0108EB05156FEA030A24EA03042B7BC8
:104B9000002BEBD058F806301B694BB946447368BC
:104BA00004222846196807EA0A071EF011FCDDE70F
:104BB000284698470028D9D1F0E700BFAC6702002B
:104BC00030B5002289B00F490F4820F0CBFF0022FA
:104BD00000230024CDE906230E230C4DCDE9033438
:104BE0004FF440722846CDE90144094B094900942D
:104BF00017F0AAFD0849284617F030FD204609B0F5
:104C000030BD00BF1D4C0000A02F0020A01E0020C2
:104C1000314F000068A60020A7840300014817F068
:104C200077BA00BFE80800202DE9F0478046214808
:104C30000F461EF0B1FB0646002833D0002528465B
:104C4000BDE8F087237B83B12368DB680BB1204686
:104C50009847636883F8069023681B69D3B9636833
:104C60000422204619681EF0B3FB01361034544567
:104C7000E8D3B8F1000FE2D0002DDFD02846FFF7CF
:104C80006DFF0546002FF7D000214FF4A47020F0EF
:104C900095FEF1E7204698470028E0D009FA06F390
:104CA0001D43E2E705464FF00109034CDFF80CA075
:104CB000DDE700BF204F0020AC670200BC670200A8
:104CC000014B53F820007047FC6F020008B5034603
:104CD00008462BB1044A136000F070FC002008BDA8
:104CE0006FF01500FBE700BF6402002010B5044C14
:104CF000237813B9034817F00BFA0123237010BD72
:104D0000FC6B0020E808002010B5044609481EF09E
:104D100043FB3CB1084BD3E8EF1F0139C3E8E21F66
:104D2000002AF8D1054820F029FFBDE810400448CA
:104D300017F0EEB9184F00201C4F0020A02F0020C4
:104D4000E808002000200146034BD3E8EF0FC3E83A
:104D5000E21F002AF9D17047184F002070B5FFF705
:104D6000F1FF0546074C084EB44200D370BD63689E
:104D70005B792BB123685B6813B1294620469847BD
:104D80001034F1E7AC670200BC67020010B5044CB8
:104D9000044920461DF08BFE034B1C6010BD00BF74
:104DA000A0070020E86F0200104F002000230D4AEA
:104DB00010B513700C4A4FF4004113600B4A0C48B5
:104DC0001360FFF783FFFFF7E1FF0A4B0A4918461C
:104DD0008B4200D310BD1A1A5C6812110132227185
:104DE0001033F5E7FD6B0020184F00201C4F00200A
:104DF00095330200AC670200BC6702000146002246
:104E0000002301481DF074BEA007002001481DF0DA
:104E10000DBF00BFA0070020024B014618681DF01F
:104E200059BF00BF104F002001481DF08EBF00BFCA
:104E3000A007002070B5274B1878002849D0FFF74D
:104E4000E5FF0546002841D1234B244C1B68002B6D
:104E500019DD20F040FE4FF47A72A0FB020302FB42
:104E60000131C30B43EA4143D4E900209B1A40F2CD
:104E7000E9324FEAD13161EB0001934271F1000157
:104E800001D3FFF76BFFD4E9003213F57A7342F1D7
:104E90000002C4E90032BDE87040FFF7C5BF636897
:104EA0005B7923B12368294620461B689847103454
:104EB000B442F4D32846FFF7AFFF094BD3E8EF1F06
:104EC0000139C3E8E21F002ABED0F7E7054C064EC1
:104ED000EEE770BDFC6B0020184F0020982F0020DB
:104EE0001C4F0020AC670200BC67020070B50D4D7E
:104EF000297861B90120FFF797FE0B4C0B4EB442A5
:104F000006D3FFF797FF0028FBD101232B7070BD5C
:104F100063685B791BB1236820469B68984710340F
:104F2000EDE700BFFD6B0020AC670200BC6702002C
:104F300000212DE9F0470846FFF776FE044658B3F6
:104F400040F267684FF0000921F02EF91B4B1C4A14
:104F50001B58136033B11B4B1B68092B02DD1A4829
:104F600017F0D6F80025194FDFF85CA044B12046B1
:104F7000FFF7F4FD044618B94FF0FF384FF0FF3942
:104F8000FFF758FF064628B9B5B942464B4650468A
:104F900017F0F8F83546E9E74FF0FF384FF0FF39E2
:104FA000D2E72B689B691BB100222846114698471F
:104FB0001035BD42F5D3E8E7054DFAE708000000DB
:104FC000144F00201C4F0020E8080020BC6702009E
:104FD000AC67020013B518481EF0DEF9174B1B78BA
:104FE00073B1EFF31184202383F31288BFF36F8F23
:104FF000FFF720FF84F31188BFF36F8F02B010BD5D
:105000000F4B1B68002BF9D050B9002200230D482C
:10501000CDE900234FF40042002318F075F9EDE7C5
:105020000928EBD1074820F0A9FD074802B0BDE8E8
:10503000104017F06DB800BF1C4F0020FD6B002022
:10504000144F0020A02F0020E808002010B5064BC8
:1050500004461B6898472146A06004481DF0C7FD20
:10506000BDE81040FFF7B6BF64020020A007002093
:10507000044A054B9B1AB1EBD30F34BF52F83100F1
:1050800000207047CC660200AC6702002DE9F04FAB
:105090008FB0C1F34A2804AF0D469146B8607B60DB
:1050A0000C0DB8F1000F63D000264FF0040B4FF049
:1050B0000A0A07F11403C7F80C80C7E907667E6285
:1050C0000193CDF808B0CDF800A007F11C033246DB
:1050D0004846F968FEF78EFEB0F5006F03461CD314
:1050E0006C468AB0D9F8041004AB26481A46C3E9C6
:1050F000050140F2FF71D9614FF400711984224B10
:1051000042F8103F4FF4125133462048FFF7BEFFDC
:10511000A5462C37BD46BDE8F08FC0F30A0804F160
:105120001700184420F0070080083B60FFF766FE78
:1051300068F35325044690B13B6800F11001C7E9BC
:10514000083607F11403F961CDE900A3CDF808B0E2
:1051500048460F4AF96807F11C03FEF74BFE68F357
:1051600053252A4620467B68B9681EF050F9D0E7DF
:1051700004F1170020F007008008FFF73FFE044607
:10518000EDE700BFBC840300040000014C6702008F
:10519000E33302002DE9F04F87B00446DDE9105AF1
:1051A000DDE91279934698460391BFB13B465246DA
:1051B00010210020CDF80090CDF81490FEF748FCA7
:1051C000B0F5006F06460AD340F2FF730221174A7A
:1051D000174807B0BDE8F04F1EF072B93E4605F122
:1051E0001700304420F007008008FFF707FE04F0A6
:1051F00007040BF0070BE40044EA8B1444EA46244E
:1052000044EA0554054640B13FB13B46524631465B
:10521000CDF800901030FEF71BFC4346224628468E
:10522000039907B0BDE8F04F1EF0F1B8FB8403000E
:105230004C670200406820B1034BC01A40F3CF0016
:1052400070474FF0FF307047CC6602000EB403B5D4
:1052500003AB53F8042B01460448019301F018FDF9
:1052600002B05DF804EB03B0704700BF23350200C5
:10527000CA0605D48B064CBF02490349FFF7E6BFB7
:10528000704700BF72AE030071AE03002DE9F04F0E
:105290008BB09B46169B9DF854A00693179B044623
:1052A0000593189B0D469046199E0493BAF1000F82
:1052B00000F09E8006F00103089306F008030793B0
:1052C00006F4807309931EF081F806F00209024685
:1052D00000283BD020468F49FFF7B8FF0746B9F1B9
:1052E000000F08D016F0440F32D12A4620468A49D2
:1052F000FFF7ACFF0744089B53B1884B204653F897
:105300002A20874B8749002A08BF1A46FFF79EFFCD
:10531000099B002B48D0079B002B62D1B8F1000FEE
:1053200064D0424620468049FFF790FF0546069B21
:105330003D44002B6BD1049B002B71D1F30700F18E
:10534000E28031462046FFF793FFD6E00746C6E7E6
:10535000764B18680028CDD0754B4FF47A791B68CE
:105360004FF03C0CB5FBF3F5B5FBF0F14FF4616386
:1053700000FB115509FB05F5B1FBF3F2B5FBF0FE9F
:1053800003FB121100FB1E55B1FBFCF309FB05F5F5
:10539000B5FBF0F50CFB131120460091CDE901E5BA
:1053A0006449FFF753FFA5E7079BEBB1624B20462B
:1053B00053F82A206149FFF749FF0546B8F1000F6D
:1053C00005D0424620465849FFF740FF0544BBF14F
:1053D000000FACD05A4620465949FFF737FF054425
:1053E000A5E74FF0000BE1E7079DE7E745469EE79D
:1053F000BBF1010F069B06D1002B64D1049B002B4F
:105400007BD000250CE0002BF8D04E485CE04E48E5
:10541000069B22464D491DF0D2F9049B002B68D013
:10542000DFF83881DFF83891049F3146102F20468D
:1054300028BF10274FF0000BFFF71AFF5D4545DC32
:10544000059B494620461A78FFF700FF4FF0010BF5
:105450001BF0070F03D141462046FFF7F7FE5F45DB
:105460003BD9059B4946204613F80B20FFF7EEFE7B
:105470000BF1010BBBF1100FEAD14FF0000B2046EE
:105480003349FFF7E3FE5A46059B20469A5CA2F19A
:1054900020015F2928BF2E222E49FFF7D7FE0BF1EE
:1054A000010BBBF1100F1DD01BF0070F03D14146BC
:1054B0002046FFF7CBFE5F455A46E5D841462046D9
:1054C000FFF7C4FEEBE720485546A1E741462046DA
:1054D000FFF7BCFE0BF1010BB0E720461E49FFF7BA
:1054E000B5FEC5E7059B3B440593049BDB1B04937A
:1054F0009AD1BAF1000F7FF421AF20460BB0BDE87E
:10550000F04F1EF001B82046054A0649FFF79EFEFF
:1055100017E700BF388503003C8503000C700200CC
:1055200033850300CA8E030061850300284F0020E5
:10553000244F00204585030020700200658503008C
:105540006B8503005135020023350200916C000089
:1055500076850300788503003BAE03003DAE030073
:105560007085030042F20F7373B58B4228BF0B4660
:1055700005680446052168460D4A1AF0CBFF064629
:10558000636828460B225B680A491DF0AFFF636819
:105590003246694628465B681DF0A8FF63681B22F7
:1055A00028465B6804491DF0A1FF02B070BD00BF32
:1055B000608C0300978503007B8503000021012395
:1055C000064A904206D8064A01B901231360054BEA
:1055D00018607047012140085B00F2E740420F006D
:1055E000244F0020284F0020F8B50D460446064FF2
:1055F0004618B44201D12846F8BD14F8011BBB6817
:1056000001485B689847F4E72C630200014B036094
:10561000002070476870020008B504481DF029F9A1
:10562000BDE8084002481DF024B900BFDD85030035
:1056300012860300014818F047BA00BF68700200E4
:1056400038B5044618B90F4B0F485B689847616836
:10565000B1F5683F10D0B1F5680F0DD00B4DA942E0
:105660000AD011F46861206807D0014608481FF08D
:10567000AFFE00232360656038BD142220F08FFB4D
:10568000F9E700BF1C070020408603002C5F5CA9DF
:105690005854002008B560B34368B3F5683F0ED096
:1056A000B3F5680F18D0144A934220D000684FF029
:1056B000FF324FF0FF3316F031FC58B115E00122F4
:1056C0000368D3E8EF1F002903D1C3E8E02F0028C7
:1056D000F7D10AD1002008BD0368084A1B7803F5FA
:1056E000807352F82330002BF4D00548F3E70548C7
:1056F000F1E76FF4E040EEE72C5F5CA90000035097
:10570000E98FFFFFEA8FFFFF08B520B34368B3F5C9
:10571000683F09D0B3F5680F13D0114A93421DD0EA
:10572000006816F073FC14E000220368D3E8EF1F52
:10573000012903D1C3E8E02F0028F7D109D0094897
:1057400008BD00210368084A1B7803F5807342F8FE
:1057500023100020F4E76FF4E040F1E70348EFE79F
:105760002C5F5CA9E98FFFFF00000350EA8FFFFF69
:1057700010B5044618B91D4B1D485B68984763680F
:10578000B3F5683F2FD0B3F5680F2CD0194A934278
:1057900019D1236803BB4FF0FF324FF0FF3321468E
:1057A000154816F0C9FA08B923681BB90F4B1348FE
:1057B0005B68984714220021206820F0F0FA4FF42B
:1057C0006863636008E0B3F5683F0DD83A2B03D0F7
:1057D00040F6BA629342DED120681FF094FE6368FF
:1057E00043F03A03636010BD054AF3E71C0700204D
:1057F000408603002C5F5CA9585400206686030095
:105800003A00003A08B506494023142205481FF023
:10581000D1FDBDE808400449044818F019BA00BF9A
:10582000584F00205854002070700200847002000D
:10583000002370B5136086B00593037905461446BE
:10584000032B03D8DFE803F0051A315C012006B012
:1058500070BD2D4B09BA0491196800230422CDE9CB
:10586000013300924E69006805AB04A9B0470028D7
:10587000ECD1059B00201BBA2360E8E70B0C8DF8E8
:1058800011304BBA8268ADF812301F4B090E1B68FD
:105890000192042261F07F0100921E6A8DF81010BF
:1058A00005AB04A90068B047E1E70B0C8DF8113097
:1058B0004BBAADF812300B0E63F07F038DF8103049
:1058C000114BB1F5405F1B6800681E6AAB6801931D
:1058D0000DD202230422009304A905ABB047BDF802
:1058E00014305BBA2380003818BF0120AFE70422D0
:1058F00005AB009204A9B047059B1BBA2360F2E7F1
:1059000022461DF0A2FEEEE7F801002030B5037933
:10591000044685B0032B45D8DFE803F00215254087
:10592000214B12BA03921A6800230093956908224A
:1059300009BA029120680DEB0201A847003818BF90
:10594000012005B030BD12BA174B0392A2681B6844
:1059500001920422009209BA20685D6A029103ABA9
:1059600002A9A847EAE70BBA02930F4BB1F5405FD3
:105970001B6820685D6AA36809D252BA01930223AA
:10598000ADF80C200422009303AB02A9E9E712BA98
:10599000039204220193009203ABF6E720461DF028
:1059A00072FECBE70120CCE7F8010020F0B50C46F1
:1059B00001790546022987B00ED8194824BAE1B109
:1059C0000168A8680594CDE9003013464C6A0422AA
:1059D000286805A9A0471BE003291ED1012023F058
:1059E00003031E19171BB44212D0214628463A5D04
:1059F0001DF049FE60B90434F5E70068CDE90111F6
:105A0000009305941346C4690422286805A9A04799
:105A1000003818BF012007B0F0BD0120FBE700BF30
:105A2000F80100202DE9F84F06460D4617464FF0C5
:105A3000000BDFF89080DFF89090DFF890A0BB4576
:105A400001D3002016E055F82B1005EB8B0C4145D7
:105A5000DCF804004FEA8B0211D0494520D0184BE6
:105A6000994226D1DCE90232014630461DF026FE7D
:105A700010B10120BDE8F88F0BF1040BDFE702F154
:105A800008042B590C3201469B0030462A440BF186
:105A9000030BFFF78BFF0028EBD12C59A344CEE773
:105AA0000022DAF800301146DB6898470BF1020B50
:105AB000C5E702463046FFF729FF0028F6D0D8E7B1
:105AC000010000800200008003000080F801002037
:105AD00070B50D46044608B9012070BD0029FBD001
