:020000040000FA
:1000000088CE00202D6000002BF90200196000004E
:1000100019600000196000001960000019600000FC
:10002000000000000000000000000000D56100009A
:10003000196000000000000031610000196000003C
:10004000F5630000F5630000F5630000F563000050
:10005000F5630000F5630000F5630000F563000040
:10006000F5630000F5630000F5630000F563000030
:10007000F5630000F5630000F5630000F563000020
:10008000F5630000F5630000F5630000F563000010
:10009000F5630000F5630000F5630000F563000000
:1000A000F5630000F5630000F5630000F5630000F0
:1000B000F5630000F5630000F5630000F5630000E0
:1000C000F5630000F5630000F5630000F5630000D0
:1000D000F5630000F5630000F5630000F5630000C0
:1000E000F5630000F5630000F5630000F5630000B0
:1000F000F5630000F5630000F5630000F5630000A0
:10010000F5630000F5630000F5630000F56300008F
:10011000F5630000F5630000F5630000F56300007F
:10012000F5630000F5630000F5630000F56300006F
:10013000F5630000F5630000F5630000F56300005F
:10014000F5630000F5630000F5630000F56300004F
:10015000F563000053B94AB9002908BF00281CBF45
:100160004FF0FF314FF0FF3000F00CB8ADF1080C4C
:100170006DE904CE00F022F8DDF804E0DDE90223A9
:1001800004B07047704700BF10F8012B11F8013B15
:10019000012A28BF9A42F7D0D01A7047034611F8B7
:1001A000012B03F8012B002AF9D17047034613F8FD
:1001B000012B002AFBD1181A013870472DE9F047AE
:1001C00086468C460846089E154674461946002BFE
:1001D00040F0C1808542B2FA82F245D94AB1C2F1FB
:1001E000200300FA02FC954094402EFA03F343EA00
:1001F0000C0C4FEA154EA8B2230CBCFBFEF80EFB0C
:1002000018CC08FB00F943EA0C43994528D9EB18B0
:1002100008F1FF3704D2994502D9A8F102072B440F
:10022000A3EB0903A4B2B3FBFEFC0EFB1C330CFBD7
:1002300000F044EA0344A04214D92C190CF1FF3316
:1002400004D2A04202D9ACF102032C44241A43EA9E
:1002500007401EB1D440002334607360BDE8F087CE
:100260004746DDE76346F1E792BB431B01214FEAB6
:10027000154EAFB2200CB3FBFEFC0EFB1C330CFB87
:1002800007F840EA0343984561D9EB180CF1FF30B9
:1002900004D2984502D9ACF102002B44A3EB080329
:1002A000A4B2B3FBFEFC0EFB1C330CFB07F744EAC5
:1002B0000344A7424DD92C190CF1FF3304D2A742B5
:1002C00002D9ACF102032C44E41B43EA0040C0E72E
:1002D000C2F120039540944020FA03F12EFA03F373
:1002E0004FEA154E9040AFB20343B1FBFEFC0EFB4C
:1002F0001C10190C0CFB07F841EA0041884522D973
:1003000069180CF1FF3004D2884502D9ACF1020023
:100310002944A1EB08019BB2B1FBFEFC0EFB1C11B2
:100320000CFB07F743EA01439F420ED9EB180CF18F
:10033000FF3104D29F4202D9ACF102012B44DB1BF6
:1003400041EA004193E76046E3E76146F7E760462C
:10035000A4E76346B8E7834206D916B900210846E8
:100360007CE7C6E900E0F9E7B3FA83F78FB9834287
:1003700001D3724508D8BEEB020460EB03030120F1
:100380009C461EB9002169E73846FAE7C6E9004CE9
:10039000F8E7C7F1200CBB400EFA07F522FA0CF47F
:1003A0002EFA0CF1BA401C4320FA0CF3B8404FEA85
:1003B000144901431FFA84FEB3FBF9F809FB183016
:1003C0000B0C08FB0EFA43EA00439A4540D9E318A8
:1003D00008F1FF3004D29A4502D9A8F10200234463
:1003E000A3EB0A0389B2B3FBF9F809FB183308FB46
:1003F0000EFE41EA03418E452CD9611808F1FF3306
:1004000004D28E4502D9A8F10203214443EA0040F8
:10041000A1EB0E01A0FB02984145CE46434602D314
:1004200006D14D4504D20138B9EB020E68EB040346
:10043000002EA7D0B5EB0E0261EB030101FA0CFC14
:1004400022FA07F3F9404CEA0303C6E9003199E7C1
:100450004046C5E74346D9E70023064A52F8041B45
:10046000096829B90133DBB2052BF7D101207047A8
:1004700000207047302F002001482DF0E6B900BF62
:100480007007002001464FF4A07270B5044613486F
:1004900031F086FE12482DF0D8F9124A1368591C23
:1004A0001160C822B3FBF2F002FB1033A3B91A4665
:1004B000A51E0E3435F9020F0028B8BF404286B29F
:1004C000B342B8BF3346A54212FA80F2F2D1BDE87A
:1004D000704005482EF069BA70BD00BFB6600020BC
:1004E000E00600202C2F0020AAA10300014811F0F3
:1004F00099BC00BFA82F00201FB501AB07CA83E835
:10050000070006482DF0A3F9024618B91846044919
:1005100006F050FD05B05DF804FB00BFC82F0020B9
:10052000610E000070B50C6892B02378064607ADE6
:10053000032B2ED8DFE803F00227292B1849284681
:10054000FFF72CFEA379059562781E210492A2780C
:100550000AA80392E27802922279019262790092CB
:10056000104A2BF0C1FA304608F0BAFE0AAA01463A
:100570000D482EF01AFA01220C4B0D481A702DF07E
:1005800064F912B070BD0B49D9E70B49D7E70B49A5
:10059000D5E70A2128460A4A2BF0A6FAD2E700BF7F
:1005A000DBA10300FDA1030020A20300866400205C
:1005B00088070020E2A10300E9A10300F3A10300E2
:1005C0009FDB030010B5114B1A68904210D05A6897
:1005D00090420FD1012149B20D4A127853F82230CE
:1005E00083420AD1BDE8104000210A482DF036B9F7
:1005F0000021F0E74FF0FF31EEE707482DF027F933
:10060000BDE81040034605482EF0CFB9302F00203A
:100610002E050020DC2F00201434002050A20300FF
:10062000F7B5054619482DF012F984B2A5420F46D8
:10063000064609D8164800212DF010F9154803B0D8
:10064000BDE8F0402DF00AB92C1BA4B2042C02D155
:1006500021460F48F3E700210D482DF0FFF80D4823
:100660002DF0FCF801220C4BD3E8EF1F002903D139
:10067000C3E8E02F0028F7D106D12A4639460748BB
:100680000094B3B22EF091F903B0F0BD2002002027
:10069000D82F0020D42F0020D02F002086A20300C6
:1006A000F7B54B790F4F052B28BF0523888A3B7080
:1006B0000D4D0B690D4E0C460D492B603080FFF738
:1006C000AFFF0C4B1B683BB93B780B48009333885A
:1006D0002A6861792EF069F9084803B0BDE8F04056
:1006E0002DF0B3B82F05002024020020B2600020B6
:1006F000BCA20300B82F0020C4A2030058070020AA
:1007000030B51A4B0D461B681446834291B02AD16E
:100710003422002103A831F06AFDAB791A0744BFE7
:100720002A680492CCB1258A2C2D16D8DB0714D563
:100730002A46E16805A8ADF80C5031F031FD284695
:100740000B49FFF76DFF002200230A48CDE9002383
:100750004FF48042002312F06DFA00220023064875
:1007600003A910F0ADFF11B030BD00BF302F002045
:1007700006A30300800C00203806002070B5054653
:100780000A460C46014611482EF00FF90021104888
:100790002DF064F80F4B104E1B7856F82330AB4207
:1007A00002D10E482DF05AF83368AB4202D10C4802
:1007B00031F008FC3E2C01D0442C04D10948BDE89E
:1007C00070402DF042B80848F9E700BF0FA30300BE
:1007D000E02F00202E050020302F0020BC2F00200D
:1007E000800C002010070020280700202DE9F04190
:1007F000504E514D8EB030684FF4A472002301A9C1
:1008000010F0BEFF044600283ED0002200234B48D3
:100810002DF022F8EFE70420002131F0F3FA4CF23A
:100820004F3364349C4208D9404629782DF00FF8A4
:10083000024643482EF0B9F8002438462DF007F858
:100840000028E8D13F4B1C78012C38BF0124013C23
:1008500014F0FF04CFD00421684606F0B3FA009BE1
:10086000B3FBF4F204FB1233374A0133DBB252F824
:1008700023802B70B8F1000FBDD0BDF804303BB918
:1008800032482EF092F8B6E7314FDFF8DC80D4E73B
:10089000002200232F482FF0CEF8044698B92E48A6
:1008A0002CF0D5FF0028A6D02C4A1368591C1160E3
:1008B0003222B3FBF2F002FB1033002B9BD128480D
:1008C0002EF073F897E727482CF0C1FF38B9264877
:1008D0002CF0BDFF18B9204606F000F98BE704F1B3
:1008E0000C0738460D212FF0DFF8BDF804203846FC
:1008F00003A91E4F2FF0E9F8012115482CF0AEFF97
:100900003A8829781A482EF050F83A88214640460D
:100910002FF008FB021E04DA414616482EF045F877
:10092000D9E701210C482CF099FF3B880B443B8010
:1009300061E700BFE42F00202E050020A007002063
:100940003FA303002F050020302F00207CA30300CD
:10095000DC2F0020E8070020BC2F0020282F0020DB
:1009600097A303001834002014340020B060002046
:10097000C0A30300DAA303002DE9F0414FF47A7518
:1009800031F0CDFA2F46A0FB050605FB0166C30B2F
:1009900043EA464313F5FA644FEAD636DFF8388067
:1009A00046F10006FFF758FD08B1BDE8F08131F0CF
:1009B000B6FAA0FB070305FB0131C30B43EA414331
:1009C000A3424FEAD131B141EFDA40F6CD420023E4
:1009D00040462CF041FFE5E7280700202DE9F043D1
:1009E000544B554E1D8E554FDFF88881EFB03422A1
:1009F000002111A831F0FBFB4FF0FF324FF0FF3325
:100A000030462CF029FF38462CF021FF0028EED08C
:100A10004FF4A07241461EA831F0C2FB48482CF0AA
:100A200016FF18B1A0211EA801F0B0FF0022134646
:100A30001EA931F9020B0132082A0344F9D14148B9
:100A40000268511C01606420B2FBF0F400FB142228
:100A500032B93D482CF0FBFE02463C482DF0A5FF84
:100A60003B482CF0F4FEA0B12C23009300230DF1A1
:100A7000160906AC4FF4A0711A46CDF808900194FF
:100A80001EA804F011FE014648B132482DF08DFF3A
:100A9000ADE72D482CF0DBFE0028E5D1A7E7B9F83B
:100AA00000108D4203D02A462B482DF07EFF2146B0
:100AB0002A4613A831F074FB28482CF0C8FE10F029
:100AC000FF0407D005F1080011AB224600211844AD
:100AD00031F08DFB224B2C441868ADF844400022C5
:100AE000002311A910F0ECFD68B10A221D4B196812
:100AF00001311960B1FBF2F302FB1313012B02D198
:100B000019482DF052FF194A1468611C1160C8225F
:100B1000B4FBF2F002FB1044002C7FF468AFDFF866
:100B200044901348D9F800202DF03FFFC9F8004049
:100B30005DE700BF28020020E0060020E02F002033
:100B400010340020242F002014340020FDA30300C3
:100B50001834002027A403004EA40300D82F00203F
:100B6000E42F0020202F002083A403001C2F00204E
:100B7000A9A40300B660002013B5014604460F483F
:100B80002DF013FF0E4BD3E8EF1F0131C3E8E21F36
:100B9000002AF8D10B482CF058FE0B4B1B68A342DF
:100BA00009D1002200230948CDE900234FF48042F7
:100BB000002312F03FF802B010BD00BFC3A4030031
:100BC000C02F002010070020302F0020800C0020B4
:100BD0002DE9F04F714DEDB04FF0FF320FA94FF0FE
:100BE000FF336F4810F0CCFD6E482CF030FEBDF89E
:100BF0003C10044600296FD083B2994228BF1946A1
:100C000011A8B0FA80F35B0902931CAE0DF11A0330
:100C100001934FF4A0720023009604F09FFD00287A
:100C200009DA614A002113683046013313604FF43A
:100C3000A07231F0DCFABDF83C20A0B2031D9A424C
:100C40002BD100F108030FAA0FA9084413445A78C6
:100C5000047A5B8844EA022444EA03442146534868
:100C60002CF0FCFD524A1368591C11606422B3FB3E
:100C7000F2F102FB113383B907A8014624FA03F20B
:100C800002F00102013330321E2B00F8012BF5D1A6
:100C9000002348488B772DF088FEDFF830812A88C2
:100CA000B8F8003092B22C889BB29A4237BFA4B2F7
:100CB000B8F80030B8F800301034E41AA4B2204676
:100CC000C4F10F04A4B201F05BFD092C0AD83A4A22
:100CD0001368013313607FE7384A0846136801330D
:100CE00013608EE70020364CB6462B889BB204EB8F
:100CF0008312A2F1040C3C323EF8021B01EB0141CD
:100D00004CF8041F6245F7D10133103003F00F0394
:100D1000A0282B8006F12006E6D12A4A136803F1A9
:100D2000010AC2F800A0C822B3FBF2F102FB1133A2
:100D3000002B7FF451AF2888B8F80010DFF87C90C2
:100D4000194E1D4C80B289B28842D9F800B0336880
:100D5000276818D32988B8F8000089B280B2A1EBBF
:100D60000008059301F0E2F9059BCDE901805A46A0
:100D70005146154800972DF018FE0023C9F80030A1
:100D80003360236028E7B8F80010B5F8008089B216
:100D9000C1F1100111FA88F8E3E700BFF861002003
:100DA0003806002020020020142F0020D42F00201D
:100DB000102F0020DDA403000C2F0020182F00208E
:100DC000E82F0020082F002000A50300F661002076
:100DD00008B50B482DF0E9FD0A4831F0F3F80A4850
:100DE00000212CF03BFD094B186840B109F0A0FB35
:100DF000014620B1BDE8084005482DF0D6BD08BD2C
:100E000039A50300800C0020E02F0020B82F00201F
:100E100069A503000D4A1378B3B94389A3B1012131
:100E2000117001790A4A117040F2E2425343094AB3
:100E300013600268084B116808481960918899800E
:100E400092799A712CF001BD704700BF8764002031
:100E50007E640020CC2F00207F640020400700200B
:100E60002DE9F04F8FB0002800F0F3800378162BA7
:100E700040F0EF804278052A40F2EB8041680BA8F1
:100E80002EF00CFE0BA82EF05AFE41F651039842AC
:100E900040F0DF80BDF83030032B0FD80122714BBA
:100EA000D3E8EF1F002903D1C3E8E02F0028F7D1D2
:100EB00000F0D18000200FB0BDE8F08F0BA82EF01D
:100EC00046FE04460BA82EF032FE05460028E5D06B
:100ED0000246214664482DF068FD4FF00008BDF839
:100EE0003030072BDAD90BA82EF021FE0746002858
:100EF000D4D00BA82EF01BFE07900BA82EF01FFEDF
:100F000008900BA82EF01BFEBDF830300990002B86
:100F1000C4D00BA82EF00BFEBDF83030044683423F
:100F2000BCD301460BA8DDF82CB02EF0F8FDBDF8BF
:100F30003030002BB2D00BA82EF0F9FDBDF83030C8
:100F400006468342AAD301460BA82EF0E8FD0023F3
:100F50009C4256D84FF0000AD146BDF83010012906
:100F60009CD90BA82EF0E3FD83460BA82EF0DFFDE5
:100F70000146BDF83000884290D30BF1FF3B0BA82F
:100F80002EF0CDFD5FFA8BF11F2998BF01230AF1E6
:100F9000010A98BF03FA0BFB5FFA8AF198BF49EA8E
:100FA0000B098F42D9D8079BFF2B4ED14DF6AD636D
:100FB000089A9A424BD14BF6EF602C4B2C49099A78
:100FC000824208BF0B46099A08F101080192089A6B
:100FD00041460092CDE90479CDE90246079A2548B9
:100FE0002DF0E3FC5FFA88F39D423FF678AFBDF841
:100FF0003030002B7FF452AF01211F482CF02EFC23
:1010000058E71BF80320591C002AA3D0501884422B
:10101000A0D31BF80110013A042903F10203D2B254
:1010200011D1022A0FD13BF803104B1E2B2B91D864
:1010300012482CF013FC124B188800288AD0114952
:10104000FFF7EEFA86E7134482E70F4BBBE7074B47
:10105000B9E701202FE76FF015010C482DF0A5FC32
:1010600028E700BFC42F0020B4A50300A1A50300FA
:101070008AA50300E6A50300C82F00202002002057
:10108000B2600020BCA20300FEE5030063A60300DB
:101090002DE9F04FAB4899B02DF087FCAA482DF010
:1010A00084FC0521A9482DF080FC00F0C7FD054611
:1010B00080B10146A6482DF078FCA64800F05CFC03
:1010C000044650B10146A4482DF06FFC204619B0EB
:1010D000BDE8F08F00F0DAFDEFE703211E2208469D
:1010E0009C4B01F005FC014610B19C482DF05DFCC5
:1010F0002CF003FC00F07CFE00229949994830F066
:1011000055FF9949994830F05CFD0022984B994968
:10111000994C9A480532192AC3E9014041F8043B29
:1011200003F11403F6D19649964801F021F80446DC
:1011300010B101469448C7E701F052F8044610B1D7
:1011400001469248C0E701F0F7FA01F03BFB904EF0
:10115000904B21461860B28E204604F03FFB0446B7
:1011600010B101468C48AFE701278C4B00970193E3
:1011700010214FF4FA434FF47A50B28E04F052FB30
:10118000044610B1014686489EE73B4610214FF4C5
:101190007A50B28E04F0D0FB044610B1014681486B
:1011A00092E74FF000084FF000094FF4C052CDE92C
:1011B0000370CDE901000090CDE906897A4B7B49A7
:1011C0007B4810F057FF7B49794810F0DDFE02277D
:1011D0004FF48052CDE90689CDE90247CDE90044BC
:1011E000754B76490494764810F044FF754974486D
:1011F00010F0CAFE4FF48062CDE90689CDE9037490
:10120000CDE90144704B71490094714810F032FFF0
:1012100070496F4810F0B8FE204606F0FDFE044607
:1012200010B101466C484FE76C4808F041F86C4833
:1012300008F080F908946B482CF00CFB6A482CF0FD
:1012400009FB6A482CF006FB69482CF003FB69484F
:101250002CF000FB68482CF0FDFA002167482CF0C8
:10126000FDFA67482CF0FAFA282166482CF0F6FAC5
:10127000002165482CF0F2FA64482CF0EFFA64483B
:101280002CF0ECFA634B089A1A80634B1A7015B96C
:10129000284600F0FBFC61482DF087FB604A0CAB50
:1012A0001068516803C39068002118600CA807F00B
:1012B00093FF044610B101465A4805E75A4B18708F
:1012C0005A482DF072FB4FF0FF324FF0FF33454884
:1012D0002CF0C2FA044610B101465548F4E65548D0
:1012E0002DF063FB07F0C8FF044610B101465248D9
:1012F000EAE6524B119418689A889B790F908DF802
:1013000042304F4B4F481B78ADF840208DF84330AA
:101310004D4BADF848401F6806235F4342F21073FF
:10132000B7FBF3F3ADF84A302DF03FFB0BA90FA844
:1013300008F02AF80446002800F08A800146434855
:10134000C2E600BF7AA6030094A60300B0A603007D
:10135000E7A60300A0070020FCA6030015A70300D2
:10136000ED040000800C0020D10D0000A82F00200B
:10137000442F0020302F0020E00100201802002020
:1013800085040000600200202AA7030041A7030093
:1013900028020020E42F002059A70300B460002099
:1013A00077A7030099A70300D10B0000487C002019
:1013B000880B0020BBA70300DD090000486C00205B
:1013C000900A0020C7A70300ED070000486800202E
:1013D00098090020D3A70300DAA70300D401002056
:1013E000B801002040070020700700208807002077
:1013F000580700201007002028070020C82F0020D1
:10140000C42F002020020020D82F0020D42F00203D
:10141000D02F0020B260002086640020FAA70300CD
:101420007C2D03000DA80300876400202AA8030078
:101430004FA8030067A8030084A803007F6400206E
:101440007E640020A0A80300CC2F0020C7A80300C2
:10145000A4482DF0AAFAA4494FF400408C46214636
:10146000E7FB00C10023A14A6046FEF773FE074672
:1014700002460B469E480C462CF0EEF930B19D48D2
:101480002DF093FA0B9807F037FFD4E69A482DF029
:101490008CFA3A46234699482CF0DEF9014640B1D1
:1014A00097482DF082FA974B1B78002B7FF4C3AE40
:1014B000E8E7954B1A682823726392B2338604F0EA
:1014C0008DF9014630B391482DF06FFA90482DF018
:1014D0006CFA002200238F482CF0BEF9B0B18E4880
:1014E0002DF063FA85482CF0B5F94FF42032002333
:1014F00082482CF0B1F940B388482DF056FA4FF0ED
:10150000FF324FF0FF3383482CF0A6F984482DF0CA
:101510004CFA90E60124834B0094019310214FF480
:10152000FA434FF47A50B28E04F07CF9014608B1C8
:101530007D48C9E7102123464FF47A50B28E04F05B
:10154000FBF9014608B17948BEE7FEF785FF70B99F
:1015500077482DF02AFA4FF480300021FFF70CFA7B
:10156000FEF77AFF18B973482DF01FFAAEE7012293
:10157000714F724C397872488A40013AA2602171E9
:101580002DF013FA00216F482CF068F921466E4ABD
:101590000B9809F061F90446002800F09A80014692
:1015A0006A482DF002FA14F1780F7FF48FAD4FF4F2
:1015B00080300021FFF7E0F988E7484609912DF0D7
:1015C000F4F94FF4A022002350462CF045F908F11D
:1015D0000108002862D1584609992DF0E6F93B78B8
:1015E0005FFA88F18B42E8D856482CF030F99842DF
:1015F00055DB57482DF0D9F9002156482CF02EF92B
:101600000C46DFF838A19AF804205FFA84FB5A45AB
:1016100000F2C680002401F0C7F84F4B21464F4826
:101620001C802CF01BF94E4830F046F94D4B1868E1
:1016300030F042F94C4B21461C804C4B4FF48062F9
:101640004B481C8030F0D3FD00F076FD494C002261
:10165000002320462CF000F90028F8D001213D4855
:101660002CF0FCF815B9084600F010FB4FF000080C
:10167000DFF81491DFF814A1DFF814B13B785FFABA
:1016800088F18B4200F2C5803B482DF08EF9002D89
:101690007FF41CAF284600F0F9FA17E70446294802
:1016A0002CF0D5F8214602463B7834482DF07DF9E0
:1016B000254B186808F03CFF00F11602162A044674
:1016C00004D82F4B1341DB077FF571AF21462D481E
:1016D000FAE48046DFF8BC90DFF8BCA0DFF8BCB0CD
:1016E0007DE700BFEDA803003F420F0040420F001E
:1016F000700700200BA9030022A90300580700204F
:101700003BA9030086640020240200204DA90300A9
:1017100011AC03008807002035AC030053AC030074
:1017200087AC0300B460002073A903009DA90300E7
:10173000C7A90300F4A903002F050020F40100202D
:1017400036AA0300C02F0020B82F002066AA03008D
:10175000ECAA0300E02F0020B0600020BC2F002086
:1017600038060020E42F0020F8610020F6610020F8
:10177000E82F0020E006002001AC0300C1AA03000E
:10178000FEFFBDFF69A50300A5AB030028070020ED
:10179000E9AB030082AA030010070020A3AA0300FC
:1017A000274B14220021BBFA8BF913A853F82B8086
:1017B00030F01DFD0322594622484FEA59198DF891
:1017C0004D202DF0F2F813AA4946404608F05CF986
:1017D00010F10D0F024611D159461B482DF0E5F8C6
:1017E0000121404608F084FA0021404608F080FAC2
:1017F00013AA4946404608F047F9024659460134C3
:101800001AB112482DF0D1F852E711482DF0CDF859
:10181000F9E6484609912DF0C8F84FF0FF324FF035
:10182000FF3350462CF018F808F1010804460999D6
:1018300010B10146074847E458462DF0B6F81DE7B9
:10184000302F002003AB030021AB03005EAB03008D
:101850008DAB0300CBAB0300014810F0E3BA00BF2F
:10186000F4330020014603488368DB690BB1012291
:10187000184770472C27030010B5144BD3E8AF4F1F
:1018800014BB13482CF010F80028124B11DD012274
:10189000D3E8EF1FC3E8E02F0028F9D100F084FF60
:1018A0000D482DF082F80D4B1868BDE8104010F07F
:1018B000C5B8D3E8EF2FC3E8E14F0029F9D1BDE85F
:1018C000104007482DF071B810BD00BF183400203B
:1018D00048300300143400209CAC03001C3400206A
:1018E000ABAC030010B50446164BD3E8AF3F3BBB8F
:1018F000154B98B10124D3E8EF2FC3E8E14F00293D
:10190000F9D1214611482BF0E4FF114821462BF074
:10191000E0FF1048BDE810402DF047B8D3E8EF2FA6
:10192000C3E8E14F0029F9D1214608482BF0D1FF47
:10193000074821462BF0CDFF01F048F80648E9E7BB
:1019400010BD00BF183400201034002058300300B0
:1019500050300300BBAC0300D2AC030008B505480F
:101960002BF0A2FFBDE808400028D4BF00200120D2
:10197000FFF7B8BF6030030038B54D4B18604D4DD0
:1019800028462FF0CEFE30B94B482DF00EF86FF000
:101990001204204638BD4FF4803148482BF065FFD3
:1019A000044620B1014646482CF0FFFFF1E7AB6842
:1019B0009C695CB14FF0C0634FF0A0720A212846C9
:1019C000A047044628B121463E48EDE76FF0570492
:1019D000F9E73D483D4B43604FF480638360FFF778
:1019E00041FF3B482CF0E1FF3A482CF0DEFF3A493A
:1019F0003A4830F0E6F828462FF093FE08B9384808
:101A0000C3E738482FF08DFE0028F8D035482FF076
:101A100088FE0028F3D04FF4803133482BF025FFA7
:101A2000044610B101463148BEE74FF4B0113048CA
:101A30002BF01BFF04460028ABD14FF4B0112D480A
:101A40002BF013FF04460028A3D1AB689C695CB15E
:101A50004FF0C0634FF0A0720C211648A047044617
:101A600028B1214624489FE76FF05704F9E723483F
:101A7000234B43604FF480538360FFF7F3FE1A4813
:101A80002BF012FF0028D4BF00200120FFF72AFF0F
:101A90001C482CF08AFF1C482CF087FF00F07AF8D5
:101AA000044600287FF475AF18482CF07EFF70E7DD
:101AB0001C3400202C270300EAAC0300483003004C
:101AC00005AD030026AD0300E833002079180000BF
:101AD0004AAD030075AD03005D190000F43300202A
:101AE00097AD03000827030060300300B3AD030087
:101AF0005830030050300300DBAD030004340020F5
:101B00005918000007AE03002DAE030054AE0300C9
:101B10000022064BD3E8EF0FC3E8E12F0029F9D1EB
:101B200010B140B22BF027BF704700BF2434002013
:101B300013B5044683684021DB689847002810DB12
:101B4000A3686A46242120461B699847002808DBC1
:101B50000D49009A0B681A44032392FBF3F313B95F
:101B60000A6002B010BDA3EB830002440A60074A7A
:101B7000D2E8EF0FC01AC2E8E10F0029F8D10448FB
:101B800010F050F9EDE700BF20340020243400208D
:101B90002834002013B5164B18680190154C2046C8
:101BA0002FF0BFFD38B914482CF0FFFE6FF012047F
:101BB000204602B010BD1149114830F002F8A36868
:101BC0009B6853B120460F4A01A99847044638B193
:101BD00021460D482CF0E9FEEAE76FF05704F7E7DD
:101BE00001220321094B0A482CF0DFFEE0E700BF89
:101BF000882D0300702803007FAE0300111B000036
:101C000028340020311B000099AE0300BAAE030057
:101C1000C6AE0300084B1A691268D20548BF80F0AF
:101C2000010028B19B68DB684FF4807102481847B7
:101C30009B681B69F8E700BF0827030038B5104D03
:101C40002B78BBB90F4C20462FF06BFDA8B1226951
:101C5000A1681368204643F4807313600B680A4A36
:101C600008219847034630B9FFF7D4FF034610B95F
:101C700001232B700023184638BD6FF01203FAE7DA
:101C8000886400200827030001000A0010B5074BF4
:101C900004461B7823B12046BDE81040FFF7BABFC9
:101CA000FFF7CCFF0028F6D010BD00BF88640020ED
:101CB000F0B589B01422002103A830F098FA02236D
:101CC0000693012304930C23364E8DF81C300596A1
:101CD000354803A985686B689847044600284FD1AA
:101CE000B6F900302A8902A9534302930AF0E8FBAF
:101CF0000446002844D140F6E323029E2B483613C5
:101D000026EAE6765E432BF019FE4FF4FA670546A5
:101D10002748B6FBF7F72BF011FE1DB901282CD18F
:101D2000244D06E0012D244D03D1244B002808BF8B
:101D30001D460922A7F6E44393FBF2F3204A96429C
:101D400003DB642BA8BF64231C464FF47A72B7FBF5
:101D5000F2F1234602FB11721A4800952CF025FE81
:101D600028461449FEF710FA174B1A6912685206F2
:101D70000DD470B19B681B690DE00F4D134BD5E777
:101D80002146134809B0BDE8F0402CF00EBE0028F3
:101D9000F0D09B68DB6840210B4809B0BDE8F040FB
:101DA000184700BFFA6100200428030078300300C0
:101DB0007030030006AF0300FEAE0300F9AE03006F
:101DC00090FB64002FAF0300082703000FAF030050
:101DD00015AF030010B5FFF76BFFBDE810404FF4DF
:101DE00020320023014810F0C9B800BFB80C002011
:101DF00010B5244C20462FF094FC30B922482CF02A
:101E0000D4FD6FF01204204610BD20482FF089FC4D
:101E100008B91F48F3E71D482FF083FC0028F8D0CD
:101E2000A36820461B681B499847044620B1014619
:101E300019482CF0BAFDE6E74FF4803117482BF033
:101E40005EFD04460028DED14FF4803114482BF0AB
:101E500056FD04460028D6D112482FF062FC20B16E
:101E60004FF4B01110482BF04AFD104910482FF0E4
:101E7000F6FEFFF71DFF4FF4203200230C4810F050
:101E80007DF8C0E70428030059AF03002C270300A6
:101E90006FAF0300863003008CAF0300783003007F
:101EA000703003000827030068300300D51D0000D0
:101EB000B80C00202DE9F047DFF86482064698F858
:101EC0000030002B54D0002852D00027B946844C53
:101ED000844D2378021F05EB43153C3052F8041F54
:101EE0000BB2002BB8BF5B429BB209149945B8BF37
:101EF00099460029B8BF494289B28F42B8BF0F4600
:101F00009042EBD1DFF81CA2DAF80030002B0FDA98
:101F1000B9F1400F01DC402F0ADDB945ACBF00210B
:101F200001213B464A467048CAF800102CF03DFD9E
:101F3000DAF80000002803DAB945ACBF0020012020
:101F4000002156F8213002281AB24FEA23436DD1FE
:101F50001A4402EBD27242F34F0325F811300131DB
:101F60001029EED123780133DBB2092B62D823701C
:101F70005E4A5F4F13785F49DFF8AC91002B18BFC2
:101F80000F4683F001031370D9F80030002B00F0E6
:101F90008A809A6814885A68A4B2B2F800A09A8914
:101FA0001FFA8AFA544B544519784CD8AAEB040509
:101FB000ADB200294DD0544575D0DFF85CA1DAF8F8
:101FC000001049B1D9F800302A469B894B482CF0C3
:101FD000ECFC0023CAF80030BC46D9F800504FEAA8
:101FE000841E2B6803EB841303F1400962461868D2
:101FF0005968083303C24B459446F7D128684022FC
:102000000021704430F0F3F8AB890134B4FBF3F1F4
:1020100003FB1144AA68A4B2394B1480D3E8EF1F24
:102020000131C3E8E21F002A1AD0F7E7002808BFF1
:10203000134692E700232370324B1B68002B97D086
:102040002848984794E70AEB02052D1BADB20029FA
:10205000B3D1092D20D840220021384630F0C7F8EE
:1020600098F800303946002B14BF3046002000F0AD
:10207000B3F9014688B3244B1A680132052A1A6065
:1020800005D93220B2FBF0F300FB13232BBBBDE8D4
:10209000F0471E482CF089BC01211D4819702946C3
:1020A0002CF083FC87E740220021384630F09FF86F
:1020B000184BD3E8EF1F0131C3E8E21F002AF8D123
:1020C000154B16481A6801321A60D0E8AF2F19680C
:1020D0009142C5D92BF047FCC2E7BDE8F08700BFAD
:1020E0008B640020FC610020B1AF030089640020F4
:1020F0008C3400204C3400208A6400200BB0030094
:102100004434002050350020383400203BB0030018
:10211000E7AF030048340020403400203C34002066
:102120008C640020700200204C3500200021014802
:102130002BF019BC48340020002108B5074B084893
:102140001970084B19602BF00EFC07482BF00BFCA4
:10215000BDE8084005482BF006BC00BF8A6400209B
:102160004834002040340020443400203C34002017
:1021700037B502466C460B46134903C984E8030091
:102180001046F2B1EBB1114D2A7812B1002003B024
:1021900030BD0F4A10600F4A2046136001F016F957
:1021A0000028F4D19DF800200B4B1A70019B5A1C9B
:1021B000042A28BF4FF0FF33084A136001232B7015
:1021C000E4E76FF01500E2E7202D03008E640020A5
:1021D0004C350020503500208C6400207002002017
:1021E00070B52C4B1B78002B50D02B4E3378002B26
:1021F0004AD12A4800F07AF800F07EF8044628B167
:10220000014627482CF0D1FB204670BD01464022F4
:102210002448254D2FF0EBFF2146402223482FF084
:10222000E6FFFFF789FF2B782148002B08BF00202D
:102230001C4900F0ABF8044610B101461D48E1E727
:102240002B781D48002B08BF0020184900F0C4F867
:10225000044610B101461948D4E701F0F9F80446E4
:1022600030B1014616482CF0A0FB00F0D7F8CBE7C0
:10227000144B2978144A154800290CBF11461946F9
:102280002CF093FB012333700024BDE74FF0FF34A3
:10229000BAE700BF8E6400208D640020B51E0000E8
:1022A00076B003008C3400208C6400204C34002075
:1022B0000C35002091B00300CC340020ADB00300F9
:1022C000D0B0030070B0030073B00300FFB0030090
:1022D000012908D138B1044A126822B1D0E90001BD
:1022E00000B901B11047704754350020014B186008
:1022F000704700BF5435002037B51D4D2B78002B9B
:1023000034D14FF0502449F6A633C4F85C3501238C
:10231000A361D4F8203153B10021164801AA2EF050
:1023200039F8002808DA6FF0040003B030BD00214E
:1023300021202FF067FDECE7019B0F4A19791868FF
:102340000BF0ECFB02460028EDD10121282003F020
:1023500083FF282003F050FF084A094909480CF080
:102360002BFF094B9842DED101232B700020DCE7C4
:102370008F6400209430030000800250D1220000BE
:10238000740200209C0200200000AD0B1FB50F4C12
:102390002378012B13D100B989B11023CDE90101B4
:1023A00000220B4801A9ADF80C300CF0D7FF094B07
:1023B000984207D102230020237004B010BD6FF0B3
:1023C0001500FAE76FF00400F7E700BF8F64002004
:1023D0009C0200200000AD0B1FB50D4B1B78022B9B
:1023E00013D100B989B11023CDE90101094801A930
:1023F000ADF80C300DF026F8074B984214BF6FF083
:102400000400002005B05DF804FB6FF01500F9E74B
:102410008F6400209C0200200000AD0B10B5054C1D
:102420002378022B04D104480DF04EF801232370C9
:1024300010BD00BF8F6400209C020020034648F6B8
:10244000D870834206DD4AF273729342CCBF4AF2DF
:10245000747098B2044B1A8882421EBF18804FF0E5
:102460005023C3F85C0570472C050020F8B50746DB
:102470000446002507F8141B19482BF07EFA0229A0
:1024800065610E467D60E561258415D003291ED067
:10249000012E2946134805D02BF06FFAC4E90255E6
:1024A0002582F8BD2BF069FAC4E9025525820E4851
:1024B000BDE8F8402CF079BA29460A482BF05DFABD
:1024C00061680A482582BDE8F8402CF06EBA012107
:1024D00004482BF052FA064B064819882582F2E789
:1024E000583500205C35002031B1030040B10300B5
:1024F0002C0500205EB103002DE9F0418AB02422B2
:10250000002101A82FF073FE49F6A6324FF05023A8
:102510000292D3F85C357F4E9BB2002B08BF134666
:102520007D4FDFF810827D4D33804FF0FF324FF04A
:10253000FF3338460FF0BCFA002140462BF01DFA5D
:10254000044648B149F6A633284602932BF015FA03
:1025500001A8FFF78BFFE8E7D5E8EF3F012B03D198
:10256000C5E8E24F002AF7D1DFD16D4BD3E8AF2F9A
:102570009DF825009DF824100328089B1FD80DF115
:10258000280C0CEB410C134401302CF8102C089350
:102590008DF82500013101F003018DF824109DF81C
:1025A0002510089B012938BF0121B3FBF1F39DF8E9
:1025B00004100329B9D8DFE801F00E103C760AA810
:1025C00000EB410030F810CC20F8102CA3EB0C03EA
:1025D00013440893DEE70121BAE7039B1A44049BE6
:1025E00003920133092B04939FD992FBF3F30A2240
:1025F000C3F1020353435B1083EAE372A2EBE3727D
:10260000082AC8BF1C4640F24B12464B49F6A6307A
:10261000634393FBF2F3182BA8BF18236FF0170244
:102620009342ACBFC01880180290FFF707FF022149
:102630008EE70A22C3F1020353435B1083EAE3727D
:10264000A2EBE372082AC8BF1C4640F24B12354B7E
:102650006FF01700634393FBF2F3182BA8BF182306
:10266000029A21468342ACBFD0181018FFF7E6FE4D
:1026700032882D482CF099F984EAE473A3EBE473D3
:102680000F2B01DC032163E79DF815300133DBB22A
:10269000092B8DF815307FF648AF214623482CF0E2
:1026A00084F9002154E70A22C3F1020353435B106B
:1026B00083EAE372A2EBE372082AC8BF1C4640F229
:1026C0004B12184B6FF01700634393FBF2F3182B78
:1026D000A8BF1823029A8342ACBFD0181018FFF786
:1026E000ADFE84EAE473A3EBE473202B0DDD9DF8CB
:1026F00014300133DBB2022B8DF814307FF615AFA6
:1027000021460B482CF051F991E700238DF8143045
:102710000BE700BF2C050020980600206435002040
:102720006035002018FCFFFF7AB103009DB1030063
:10273000CCB10300A402002010B588B00022002311
:10274000CDE9062300230122094CCDE90323CDE97D
:10275000013300934FF480622046064B06490FF088
:1027600089FC2046054908B0BDE810400FF00CBCBC
:10277000E80C0020F924000048940020F7B1030081
:1027800010B5074C014620462BF0F7F80121201D1B
:102790002BF0F3F8BDE8104002480FF04FB900BF2E
:1027A000603500209806002008B5012103482BF071
:1027B000E4F8BDE8084002480FF040B9A402002048
:1027C0009806002000487047680600200023084A49
:1027D0001370084A1360084A1360084AD2E8EF1FD2
:1027E000C2E8E03F0028F9D105482CF0DEB800BF70
:1027F000916400206C3500206835002014340020DE
:1028000000B2030038B50A4600EB4105044600213A
:10281000A5420DD1B1F5967F2C4C13DA2378012B0C
:102820003CD0022B46D0002B3DD1294B002239E071
:1028300034F9023B002BB8BF5B421BB29942B8BFD0
:102840001946E5E70146234800F0DAF82378012B22
:1028500022D0022B28D033BB0028E6DD1C491E48BD
:102860000A680068013282420A601CDB01220B60A8
:102870001A4B2270D3E8EF1FC3E8E02F0028F9D1EC
:10288000FFF792FF164B186808B10FF0D7F8BDE8B4
:10289000384014482CF089B8002804DC02230122B7
:1028A0002370114B1A6038BD002803DD012323700B
:1028B0000D4BBBE70C4A1368013313600B4A1268D7
:1028C0009342F0DBBDE83840FFF780BF9164002001
:1028D0006C3500207C350020743500201434002035
:1028E000783500200FB203006835002070350020D5
:1028F0002DE9F3411C4C054620460E4617469846E6
:1029000000F030F968BBC4F8F002294620462BF0ED
:102910003CF828B16FF01504204602B0BDE8F08104
:1029200020464FF47A512BF03AF804460028F1D1B2
:102930000E4B32461E600E4B29461F600D4BC3F8EE
:1029400000800D4B18700D4B18600D4B18600D4B2F
:1029500018704FF496730C4800933B462CF025F802
:10296000DAE76FF00404D7E77C35002074350020E7
:102970007035002078350020916400206C350020EF
:1029800068350020906400201FB203009F29034691
:1029900070B512D80B4C0C4D26784A0001FB06F09E
:1029A000194605EB40002FF0FBFB16B901232370FD
:1029B00070BD0023A02128462370BDE87040FFF7BA
:1029C00021BF00BF906400203C63002010B5084C7C
:1029D0002378013B012B01D8FFF7F8FE0023054ABD
:1029E00023701360044A1360044A137010BD00BFC3
:1029F000916400206C350020683500209064002030
:102A000038B508B92DF003F80A24D0F8F0520D4B70
:102A100053F825305C43A24207D014245C43A24201
:102A200003D01E2463439A4209D1074B53F8253043
:102A300098470028E6DB14BF0120002038BD4FF086
:102A4000FF30FBE7E8300300D8300300032966D8E5
:102A5000DFE801F00220374E324B1A689B88C0F83D
:102A6000C422A0F8C832304B1A689B88C0F8CA222A
:102A7000A0F8CE322D4B1A689B88C0F8D022A0F85F
:102A8000D4322B4B1A689B88C0F8D622A0F8DA32D1
:102A900000207047274B1A689B88C0F8C422A0F812
:102AA000C832254B1A689B88C0F8CA22A0F8CE32DB
:102AB000224B1A689B88C0F8D022A0F8D432204B51
:102AC000E0E7204B1A689B88C0F8C422A0F8C832FF
:102AD0001D4B1A689B88C0F8CA22A0F8CE321B4B47
:102AE0001A689B88C0F8D022A0F8D432184BC9E7E6
:102AF000184B1A689B88C0F8C422A0F8C832164B3D
:102B00001A689B88C0F8CA22A0F8CE32134B1A6804
:102B10009B88C0F8D022A0F8D432114BB2E74FF016
:102B2000FF307047226303001C6303001663030039
:102B3000106303000A63030004630300FE620300E2
:102B4000F8620300F2620300EC620300E662030035
:102B5000E0620300DA620300D4620300CE62030085
:102B6000C862030010B5044610B94FF0FF3010BD25
:102B7000012300210360C0E94511102204302FF029
:102B800036FB04F114002BF09EFA2D4B04F1B40235
:102B900003F1180153F8040B8B4242F8040BF9D1EE
:102BA000284B04F1CC0203F1180153F8040B8B42BB
:102BB00042F8040BF9D1244B04F1E40203F11801AB
:102BC00053F8040B8B4242F8040BF9D11F4B04F16C
:102BD000FC0203F1180153F8040B8B4242F8040B7A
:102BE000F9D142F2107104F5ED7304F29A2223F840
:102BF000021F9342FBD10021C02204F58E702FF0FA
:102C0000F6FA0021124B2046C4E9A733C4F8A812F3
:102C1000C4F8AC12A4F8B012C4F8B212C4F8B612D8
:102C2000A4F8BA12C4F8BC12C4F8C012C4F8A43292
:102C3000FFF70CFF002898D12A23C4F8EC3296E75E
:102C400070630300586303004063030028630300BC
:102C5000400640062DE9F04F00F53777A9B03B4616
:102C6000164604462AF09DFF18220021A4F8E80227
:102C700005461CA82FF0BBFA1822002122A82FF02D
:102C8000B6FA502E22D1B4F9C4320893B4F9CA323C
:102C90000193B4F9D0320693B4F9D6320A2D0793D2
:102CA0002EDD4FF0000B22AB0493AE4B0DF17008FC
:102CB0000993CDF814B0CDF808B00025029B2E463C
:102CC000A7F5377A4FEA4309039529E0A02E0BD1E7
:102CD000B4F9C6320893B4F9CC320193B4F9D232C4
:102CE0000693B4F9D832D9E7B4F9C8320893B4F9E5
:102CF000CE320193B4F9D4320693B4F9DA32CDE787
:102D0000B4F91831002B00F31A8200260023A4F82E
:102D10001A313046266029B0BDE8F08F01230393B5
:102D200010ABBAF9E420BAF9B4104B44B7F900007B
:102D30002AF0F7FF8C4B0CAA33F90930BAF9CC1002
:102D40005843039B064442F8230016ABBAF9FC2013
:102D50004B44B7F900002AF0E4FF844B039A33F99F
:102D600009300AF10C0A58430EAB43F8220005441F
:102D700009F10C09002AD1D0002E40F0DA80002D94
:102D800000F0E58085EAE573B3FA83F31F22013B87
:102D90001BB20999D21A31F9023B0991059902FB3C
:102DA00003130593069B46F30F31B3EB820FB8BFB5
:102DB0004FF0010B002940F3CD800C986C4B03EAD7
:102DC00080002BF002F9A8F80000C0F58040A8F8B8
:102DD0000C0045F30F3100290ADD654B0E9803EA1C
:102DE00080002BF0F2F8049B1880C0F58040988199
:102DF000029B08F1020801330293049B023702335D
:102E00000493029B062B7FF458AF059B079A4FF063
:102E100000089342B4BF5E464BF00106554B36B2F4
:102E20000A93554B04F1B4050993544B07934FF49F
:102E300048534246B5F92812204604932AF0D9FF98
:102E40004FEA48030693484B074603EB48031A46EC
:102E50000021284602932AF0C1FD9A224FF4207ADD
:102E60008011C0EB071010FB02F0C0F34F23059355
:102E7000434BC8EB48270393049BFF01534407F5DA
:102E800010571BB2DDF81890A5F1B40BBFB20B932D
:102E9000BBF9FC30BBF9B400BBF9CCC0BBF9E41002
:102EA0000493002E6ED0059B41F69A1E184400B282
:102EB0005045B8BF50463BB29842A8BF184622AB17
:102EC00039F9031016ABABF8B40039F90300039AD3
:102ED00001FB00F3DB1213FB0EF35B150133B2F9B8
:102EE00000E00CEB63031BB27345B8BF73460B9A4B
:102EF0000CF1040C9342A8BF1346ABF8CC30B5F8E4
:102F00002832BDF81020A3EBEC0313FB00F3DB1019
:102F10008810A3F58053584302EB82010011490049
:102F2000002809B263DC404204922BF04EF8404284
:102F300060E086EAE672B2FA82F2013A12B23DB17C
:102F400085EAE573B3FA83F3013B1BB221E71F2245
:102F50001F231EE74FF48043A8F8003039E74FF4F1
:102F6000407A95E7E0630300A063030088630300F1
:102F700000C0FFFFB8630300C8630300D46303000D
:102F8000C463030040F28F2E1CAB33F90930059A5D
:102F9000049310AB39F903C0049B03FB0CF3DB1261
:102FA00013FB0EF300EBA35313441BB25345B8BFFE
:102FB00053460FFA87FE7345A8BF7346ABF8B4308B
:102FC000B5F82832A3EBE00313FB0CF30498DB10F5
:102FD00002308010A3F5805358438013002800F37B
:102FE0009C80404204912AF0F0FF404298E0049215
:102FF0002AF0EBFF00B2049A803040F3072002442D
:1030000012B2B2F5C07FB8BF4FF4C072ABF8FC206B
:10301000039B80370233BAF5407F0BF10C0BBFB234
:10302000039309F10C099AD10021029A28462AF04B
:10303000D5FC069B454A05F1180A13441A46074673
:10304000002150469B462AF0C9FC079BC0F34F2243
:10305000814633F9020BC7F34F210793531A1BB272
:10306000834215DA0144891A09B201EB410701EBE9
:1030700087015A4641F38F0150462AF0AFFCB91040
:1030800049428146029A284609B22AF0A7FC07461F
:10309000099A32F9023B09924FEAE91249F3CF1932
:1030A0004B4508DA298B9A1A11FA82F12983A98CE7
:1030B00011FA82F2AA840A98F91130F9022B47F327
:1030C000CF1797420A9008DD521A298811FA82F127
:1030D0002980A98911FA82F2AA8108F10108B8F1C0
:1030E000060F05F102057FF4A4AED4F814310133C4
:1030F000C4F81431002E3FF403AEB4F81A31013392
:103100001BB2062BDBBFA4F81A31089BA4F81A8166
:103110000193019BA4F81831FBE504912AF055FFB7
:1031200000B20499203040F38910084400B2B0F591
:10313000C07FB8BF4FF4C070ABF8E40068E79BB243
:103140009E1C013B36B2A4F81831DFE5886303000A
:103150002DE9F04743F6D72C002540F6EA3642F237
:10316000984A49108D4215DB0646002740F2353C4F
:1031700041F2DE7E43F25E088F4234DB002547F6E3
:10318000FF7C3A4E02F1020E8D4200F1100053DB3B
:10319000BDE8F08750F83580D3F804E01F68A8EB4D
:1031A0000E0404F50054A41306FB0474C3F8008055
:1031B000D3F808805C60A4EB08095FEAA93948BF2E
:1031C00009F101090AFB09EEDC68AEEB0404A41363
:1031D00048BF01340CFB0484C3E902E4641040F8E6
:1031E00035400135BEE7D6F804A0D3F81490013776
:1031F000AAEB090404F50054A5131C69C3F810A038
:103200000CFB05449D695C61A4EB050A5FEAAA3AE0
:1032100048BF0AF1010A0EFB0A99DC690836A9EBDE
:103220000404A41348BF013408FB0455C3E9069500
:103230006D1046F8045C9FE750E90234234450E9DE
:1032400004473C44E413B442B8BF3446DB1364453E
:10325000A8BF6446B342B8BF33466345A8BF6346C0
:1032600022F815402EF8153002358DE70080FFFF5B
:103270002DE9F74F8946019240F20A38002240F2C8
:103280003F4C45F6F52143F2672440F2B916DE279C
:10329000DFF894E0234D09F1040A019B9A4202D120
:1032A00003B0BDE8F08F03680C3008FB03FB50F857
:1032B000083C0BF5804B0EFB03BB50F8043C0CFBA9
:1032C00003BB036801FB03BB436804FB03BB8368C8
:1032D00005FB03BBC36806FB03BB036907FB03B322
:1032E00049F8323050F8083C07FB03FB50F8043C27
:1032F0000BF5804B06FB03BB036805FB03BB436870
:1033000004FB03BB836801FB03BBC3680CFB03BB6B
:1033100003690EFB03BB436908FB03B34AF8323071
:103320000132BAE739F1FFFFFEF7FFFF10B588B0B1
:103330000DF10703029301230022CDE90513039346
:1033400007238DF807008DF810208DF81C300748F2
:103350009DF81C30826843F002038DF81C3094689D
:103360001823022202A9A04708B010BD4C28030070
:103370001FB502238DF800008DF80110CDF804D0A0
:1033800002938DF80C3007489DF80C30826843F0AA
:1033900002038DF80C3094681823012201A9A0477C
:1033A00004B010BD4C28030010B50146044610209F
:1033B000FFF7DEFF30B921461120FFF7D9FF08B92A
:1033C000014B1C7010BD00BF3005002037B505460D
:1033D00060B318482EF0A5F938B917482BF0E5FA74
:1033E0006FF01204204603B030BDFF200DF107013D
:1033F000FFF79CFF044620B1014610482BF0D5FA98
:10340000F0E79DF80710422905D00D482BF0CDFAC2
:103410006FF00404E6E701230A4A2B700A4B686048
:103420001870114609482BF0C0FADBE76FF015045D
:10343000D8E700BF4C28030062B203007DB203004E
:103440009FB20300C4B2030093640020C9B203001A
:1034500030B55E4D85B0297819B10024204605B0FD
:1034600030BD17208DF80F10FFF782FF044620B102
:10347000014657482BF099FAF0E710210520FFF795
:1034800077FF044610B101465248F3E78021062039
:10349000FFF76EFF0446014608B14F48EAE70720F0
:1034A000FFF766FF044610B101464C48E2E70021F1
:1034B00040F6CD402EF0A6FC20460DF10F01FFF79F
:1034C00035FF10210820FFF753FF044610B10146D5
:1034D0004348CFE710210920FFF74AFF0446014681
:1034E00008B14048C6E70A20FFF742FF04460146FC
:1034F00008B13D48BEE70B20FFF73AFF044610B184
:1035000001463A48B6E730210C20FFF731FF044668
:1035100010B101463648ADE733210D20FFF728FFF3
:10352000044610B101463348A4E72E211220FFF7CC
:103530001FFF0446014608B12F489BE71320FFF701
:1035400017FF0446014608B12C4893E71520FFF702
:103550000FFF044610B1014629488BE74021142093
:10356000FFF706FF0446014608B1264882E7162009
:10357000FFF7FEFE044610B1014623487AE7234BCD
:103580001878FFF711FF044610B10146204871E793
:103590008F211720FFF7ECFE044610B101461D48AD
:1035A00068E71D4B1D49187040233322CDE9000305
:1035B0002E231B482BF0F9F99DF80F108B0702D42E
:1035C00018482BF0F2F901232B7046E79364002092
:1035D000F7B203001CB303003EB3030066B303005D
:1035E0008FB30300B5B30300DBB3030003B40300E0
:1035F00026B4030048B403006AB403008FB4030088
:10360000B4B40300D9B40300FDB4030030050020B6
:103610001CB503003CB5030092640020C4B2030053
:103620005FB50300BEB50300F8B5002106461527B7
:103630006FF00042114B124D1B7835F8134004EB2C
:10364000400424B235F9023B1B1B002BB8BF5B4280
:103650009342B8BFCFB201F10101B8BF1A46282981
:10366000F0D13846FFF7A0FE044620B93A4631466D
:1036700004482BF09AF92046F8BD00BF3005002021
:10368000EC630300FBB503002DE9F04F91B000930C
:1036900002F004030293C2F3C20301338407054618
:1036A0000E46DDF868800392059340F0BB81041D4F
:1036B00030B1072909D86FF01B0011B0BDE8F08FB9
:1036C00001F007063444C6F10806009B4FF00009DC
:1036D0004FF0040A591E4FF0FF334F460193CB467B
:1036E0005346CDF810900DB1009820600598002841
:1036F00000F3E8809848009A824203D397488242B8
:10370000C0F0E080039AA4EB050E92074FEA9E00FA
:1037100000F103810F2F00F2B180002D00F0058130
:1037200007F140020DEB020C019A0CF8200C0CF88A
:10373000102C049801300490E7E07A285DD84B28DB
:103740000ED8472859D829282DD8252852D054D802
:1037500020287AD02338D0F1000B4BEB000B74E01B
:103760004C382E2849D8DFE800F0704848484848CF
:103770004848484848484B484848484848484859B5
:10378000484B4B595959704B6D487048184B184865
:1037900048827F4B48484B487F0000204FF0000B89
:1037A0004FF0040A38E001222A38C0B202FA00F0D1
:1037B00010EA0E0F49D110F0625C2FD110EA020B13
:1037C00043D06046013C5444B4FBFAF40AFB04F4D1
:1037D000002D61D0A3EB050CA444B4453FF66BAFBC
:1037E000002868D1042B47D158F8043B23600423F8
:1037F00004342AE0019A013A01924FF0000B24E0D0
:1038000011F8010C6C2834D1002011F8023C8346D9
:103810006C2BC5D14FF0080A5346D3E708F10708CF
:1038200028F00708073424F00704F8E802AB35B1A4
:1038300006982044B0423FF63EAFC4E900AB4FF0DB
:10384000000B08344FF0080A534611F8010F002806
:1038500078D0BBF1000F7FF470AF2528F5D14FF081
:10386000010B019B013301934FF0040AECE758462A
:1038700094E700208346A5E7082B02D06FF01500DF
:103880001BE708F1070828F00708B8EC027B84ED75
:10389000007B08230834D8E768B9042B02D108F16B
:1038A0000408A4E7082BE9D108F1070828F0070865
:1038B00008F10808EDE705980138059058F8040B61
:1038C000009010E7039A900720D54FF0010CA4EB6D
:1038D000050E4FEA9E00BEF5007FCFD20F2FCDD848
:1038E000F5B107F140020DEB020E019AC0B20EF8DD
:1038F000200C0EF8102CBCF1000F3FF41AAF60F052
:103900007F000EF8200C09F101090137C5F108020A
:103910004FF6DA7E0434069297E74FF0000CDAE7B0
:10392000BCF1000F01D00136EFE7029A0236002AFF
:10393000EBD10098CDE90631FCF738FCDDE9063122
:103940000644E2E7631BB3F5806F97D245B9A6F151
:103950000804E018B1E600BF0C26030050F0030095
:10396000029A9B0828602B709DF81030C2B1EB7052
:1039700085F80290B9F1000F05D0002208A8C5F122
:10398000010C97420ED14FF0000AC5F101030DF171
:10399000200801930DF1300B574512D1601B8CE6C6
:1039A0006B70E5E710F8013B190608D50CEB040E27
:1039B000B64503F07F033FF67EAE04F8013B0132CB
:1039C000DFE7B9F1000F03D098F90020002A17DBD8
:1039D000029BD3B11AF80B2004F8012B0022019BA3
:1039E00018191044B0423FF666AE98F800000099EE
:1039F00004F8010B204603922EF0D2FB039A1444E4
:103A00000AF1010A08F10108C6E798F8002055F804
:103A100022300093029B009845F82230FCF7C6FB49
:103A2000421CDCE76FF00D0047E600BF2DE9F04FC8
:103A300097B000AFD7F880B03B62CBF3C003044629
:103A4000894690F802A0FA62BB6141B945780078D6
:103A50000AEB800020444D4517D8A0EB0409E37819
:103A6000FB61BAF1000F02D01BF0010F16D1FB6908
:103A700053BBFB6A1BB1494620463A6A98474D46FC
:103A800028465C37BD46BDE8F08F461C3046FCF743
:103A90008DFB0130304409F10109DCE762682378CD
:103AA0007A62FA6A9900796104EB8301002A40F096
:103AB00001810E464FF000084D4601EB0A094E45C4
:103AC0004CD101EB0A0610E01BF0020FD1D0237895
:103AD0009A007A61626804EB83017A62FA6A002ACA
:103AE00077D14D46904601EB0A061BF0050F0CBF3F
:103AF00002230123FB62FB6906EB430A0BF002037E
:103B0000BB625645BCD016F8021B16F8013C54F8AF
:103B10002390994B994502D3984B994536D3BB696D
:103B2000002B40D0786A2AF017FF00283BD0E946E6
:103B30008AB06A46924B53617B6AC2E906314FF400
:103B4000007313848F4B42F8103F00234FF412513F
:103B50008D4801F067F9023DCD46D2E716F8013BEA
:103B6000F96254F82300FCF721FBD7F88430F96A96
:103B700001304BB1D7F8883098453EBFD7F8843034
:103B800023F8180008F10108054498E7BB6923B140
:103B9000786A2AF0E1FE0028C9D11BF0010F05D197
:103BA000FB6AED1AADE7BB6A002BAAD04846FCF7CA
:103BB000FDFAD7F8843053B1D7F8883098453FBF25
:103BC000D7F88420431C22F8183008F10108054476
:103BD00097E7BAF1000F73D01BF0040673D0D046FC
:103BE000002607F1480052463B61B9622EF0D8FA30
:103BF000B96A3B6901EB0A02BA62FA69F9695200D3
:103C0000FA60BA6A02EB41023A610BF00202BA6052
:103C10003A69B96A8A4258D162781BF0020F18BF1C
:103C200000217A6208BF4FEA5801B2181BF0010F59
:103C3000D2B240F09F801BF0040F14BF404600201A
:103C4000BB616270A070E17020463A6A7969FB6AD4
:103C50009847051EFFF614AFBB69414623707B6A87
:103C60003A6A6370FB6984F802A0E37007F14800C8
:103C7000FB6A9847B0F10008C0F2BA807B69A9EBF3
:103C80000A01C91AFB683A6AC91AD7E90A039847B0
:103C90000028C0F2AF804FF0000BA84408EB0005ED
:103CA00007F1380AB34571D300213A6A0846FB6A26
:103CB0009847E5E656464FF0000807F1380092E7CE
:103CC0005646D04696E7B04694E7BA6A12F8021B09
:103CD00012F8015CBA6254F82500274A904202D3D8
:103CE000264A90421ED3BA6932B1786A7B602AF0C4
:103CF00033FE7B6800288BD1BA6802BB08F128022A
:103D000007F1300C08F10100944407F1580208F162
:103D1000020852FA80F00CF8101C5FFA88F800F8DC
:103D2000105C75E7BA693AB1786A7B602AF014FED4
:103D30007B6800287FF46CAF1BF0010F09D006F1FF
:103D4000280207F13000711C161806F8205CCEB26C
:103D50005EE71BF0040F3FF45BAF08F1280207F1A8
:103D6000300008F1010102EB000808F8105C5FFA6E
:103D700081F84DE7002063E70C26030050F00300B4
:103D800017B60300040000010C2C03001BF80A30D6
:103D900054F8239087F83730D7F884302BB3D7F80E
:103DA00088309B4521D2D7F8843033F81B8001211D
:103DB0003A6AFB6A07F13700984700281ADB054486
:103DC000B8F1000F06D14846FCF7F0F900F1010800
:103DD0001FFA88F8414648463A6AFB6A9847002825
:103DE00008DB05440BF1010B5CE74FF00008DEE750
:103DF000454645E6054643E6014B1860704700BF5F
:103E0000A802002080B505460E46174698460EF0DB
:103E1000F7FB03462EF0F0FB0446DFF8189042460D
:103E200049F8003039463046A84754F8090002F0F6
:103E300069F900BF080000002DE9F047058B044632
:103E40002807904611D4022905F0070540F0CC80E0
:103E500020462BF054F878B10138218B042811D872
:103E6000DFE800F0C2106D85950001290CBF45F018
:103E7000100545F02005258388F31188BFF36F8F67
:103E8000BDE8F08701F0070AAA4500F0A5800027E9
:103E9000B9463E46A368002B00F0BC8041F0080103
:103EA000218388F31188BFF36F8FA168002900F088
:103EB000BA800D68002900F0B6803346524620468D
:103EC000D1F80480C047002D76D02B6829461D46C6
:103ED000F0E701F007035A1F012A1BD8002221F046
:103EE0000701062B276889B2C4E9002209D13B46A5
:103EF00003E0628B013262831B68002BF9D141F031
:103F00000201204621832AF0FAFF00287AD041F0EE
:103F1000200176E0042B0AD121F0070189B2204666
:103F200021832AF0ECFF10B141F020012183218B85
:103F300001F0070AAA454FD00027B946AAE723692E
:103F400021F0070141F00601062DD3F800902183EE
:103F50002DD1B9F1000F3FD041F00801218388F342
:103F60001188BFF36F8F20463949C84729E021F0F7
:103F70000701236941F0040189B2042DD3F80490AC
:103F80002183E6D000274FF0040A3E4682E721F065
:103F90000701236941F0050189B2052DD3F8089086
:103FA0002183D6D000274FF0050A3E4672E700274E
:103FB0004FF0060A3E466DE72B4687E7B9F1000F42
:103FC000D1D1EFF31188202383F31288BFF36F8FD1
:103FD000238B23F008032383258BEA062ED525F0B7
:103FE0001003238305F007056669218B002EBFF6B9
:103FF00070AF00232768C4E9003321F0070141F0C6
:1040000001012183218B4FF0000901F0070AAA4525
:104010007FF440AF002F9CD041F00801218388F34A
:104020001188BFF36F8F002FC8D03D6839463346E3
:10403000524620462AF08FFF2F46F4E7AB067FF565
:104040001BAF25F02003238305F0070500E700BF21
:1040500083EF0200036803F01F025B09026004D0D3
:10406000012B034818BF002070470248704700BF6B
:10407000002884500025845008B515482DF051FBC8
:1040800040B14FF4B01113482BF06EF800211148E5
:104090002BF06AF80E482DF044FB40B14FF4B011FC
:1040A0000D482BF061F800210B482BF05DF8084813
:1040B0002DF037FB50B14FF4B01108482BF054F8F5
:1040C000BDE80840002105482BF04EB808BD00BFF0
:1040D000082703000031030008310300F830030013
:1040E00007B50B2168460091FFF7B4FF009B0191D3
:1040F00000EB8300D0F80022164B134043F00C0372
:10410000C0F8003201A8FFF7A5FF019B00EB830078
:10411000D0F8003243F44033C0F800322BF053F8AB
:1041200018B9FFF7A9FF2AF0C5FE4FF4D0110A48CD
:104130002BF01AF8C8202BF036F84FF4B0110648CF
:104140002BF012F801220020044B1A7003B05DF826
:1041500004FB00BFF0F0FCFF083103009464002072
:1041600008B5124C2378C3B12AF0F0FFC8B12BF088
:104170002AF80028FBD04FF4D0110D482AF0F4FFA4
:104180004FF4FA702BF00FF84FF4B01108482AF0F2
:10419000EBFFFFF771FF2AF08DFE64202BF003F890
:1041A000E0E70A202AF0FFFFDEE700BF946400206A
:1041B0000031030010B530B90B480C492BF036F82C
:1041C0006FF0150010BD836833B9074808492BF01C
:1041D0002DF86FF00400F5E71B6813B1BDE810403F
:1041E00018471846EEE700BF2C2C0300DBB603008F
:1041F000ECB6030010B530B90B480C492BF016F89B
:104200006FF0150010BD836833B9074808492BF0DB
:104210000DF86FF00400F5E75B6813B1BDE81040DE
:1042200018471846EEE700BF2C2C0300DBB603004E
:10423000ECB6030070B508B101B132B90B480C49B6
:104240002AF0F4FF6FF0150070BD84680CB1E568CA
:1042500035B9064807492AF0E9FF6FF00400F3E793
:1042600041F8040BE368BDE8704018472C2C0300AC
:104270000AB70300ECB6030010B5044630B9104885
:1042800010492AF0D3FF6FF0150010BD006830B957
:104290000B480D492AF0CAFF6FF00100F5E783686B
:1042A0000BB11B6933B9064808492AF0BFFF6FF00C
:1042B0000400EAE7616898470028E6D12060E4E757
:1042C0002C2C030036B7030047B70300ECB60300FD
:1042D00070B51346044630B9104811492AF0A6FFBC
:1042E0006FF0150070BD006830B90C480D492AF018
:1042F0009DFF6FF00100F5E782680AB1956835B956
:10430000064809492AF092FF6FF00400EAE70A46DE
:10431000AC466168BDE87040604700BF2C2C0300CC
:1043200036B7030047B70300ECB60300034A13682F
:104330000BB9526813600020704700BFAC02002028
:1043400030B50C460E4985B00291D0F8D41105461F
:10435000CDE9003100F1F0014FF0FF3320460CF0C1
:104360002BFD50B9012384F86C30D5F8D03123B13E
:10437000204605B0BDE83040184705B030BD00BF4D
:1043800025F3020038B50C46114605462AF0CCFF4D
:10439000034638B9284604492AF0C6FF03460020E0
:1043A000236038BD0120FBE7FEE503002DE9F04F57
:1043B00001238146056946688FB005F57B77D7E80C
:1043C000EF2F002A03D1C7E8E13F0029F7D10CBF46
:1043D0001A46002240F0BB80B368B16A05F5F87850
:1043E0001C1F10462BF027F8844279D8013A00F0C0
:1043F000A880B2FA82F24FF00044D440726820469E
:10440000073222F00302C5F83C22B16A2BF013F800
:10441000C5F84002B36A40466343033323F0030305
:1044200002EB4302230103EB4403093323F00303AC
:1044300003EBC403C5F834221A440832C5F830220D
:104440007368C5F83842C5F82C32424BC5E9AD63F4
:10445000316800F0F1F9044600283FD1D9F810B0D6
:10446000D9F804A0D9F800300BF5347905900493FD
:104470004846DAE90734012B08BF103C2DF0E8FB71
:10448000DAF82400344904AB009301EB8021234681
:1044900048464FF480620DF0CBFC2021DAF824303E
:1044A0002E4A06A827F020FB06A948460DF06CFD11
:1044B0002B490BF530702DF084FBDAE90501836898
:1044C0005C684CB15B46274AA047044630B9DAE93C
:1044D000050183681B692BB96FF05704002129E09F
:1044E00001327EE70122984704460028F6D11E4B90
:1044F0002846C5F8D0311D4BC5F8D4311C4B039369
:10450000D5F840320293D5F83C32CDE9008305F569
:104510001173B26AD5F8E81300F056F90446002882
:10452000DCD105F1F0000CF0EDFC0028C5F8F0033B
:104530000ADB022138462AF02BFF20460FB0BDE8E7
:10454000F08F6FF00B04C9E76FF01504C6E76FF04A
:104550007704F2E77BF30200489A00206CB703006F
:1045600061F3020055F30200754500000DF50200ED
:10457000C1F3020013B5044640B100230122CDE986
:104580000032074BD0E909120CF0EAFB236F1B68DD
:1045900023B1606F02B0BDE81040184702B010BDF3
:1045A000FEE5030013B504460846216901F57B7159
:1045B000D1E8AF1F022910D193B1A0B10121CDE9FB
:1045C00000311346D0E909120CF0CAFB074B9842A0
:1045D00008BF6FF00B0002B010BD6FF00F00FAE7DC
:1045E0006FF04C00F7E76FF00100F4E72EF8FFFFE3
:1045F0002DE9F34789461546066906F57B73D3E82E
:10460000AF3F022B64D1136823B96FF0150002B0DD
:10461000BDE8F0871B78002BF7D0D6F8E8A3BAF1F5
:10462000000F36D106F5EC774FF0FF324FF0FF3335
:1046300038460DF009F930462A6801A9FFF7A2FEB5
:10464000019C80461CB938462AF0A0FEDDE705F142
:1046500008032367AB6984F86CA06367646460B186
:1046600038462AF093FE21463046A36E2A68FFF7AB
:1046700067FE0020C9F80040C9E71F22296804F13D
:1046800048002DF0DEFD384684F867802AF07EFE73
:10469000EFE7304610492AF047FE04460028B4D020
:1046A000002705F108030367AB6980F86C70436766
:1046B00040641F22296848302DF0C3FD22460121A5
:1046C000304684F8677000F061F80028D1D09CE78C
:1046D0006FF00F009BE700BFFEE5030010B50C462E
:1046E000006900F57B73D3E8AF3F022B0FD189B18E
:1046F0000A4900F530702DF090FA20462CF03BFD71
:104700007822002120462DF072FD002010BD6FF0B0
:104710000F00FBE76FF00100F8E700BF70380020E2
:104720002DE9F04F05460E4690460027D0F8C4A06C
:1047300085B0AAF5BE7421463046FBF725FDE0B9E9
:10474000114BA4F1480B0293DAF810303246CDE950
:10475000008329464FF0FF335846AAF5E2790CF062
:104760002BFB60B97823012203FB079383F86C20AD
:10477000DAF80C300BB158469847783417B105B0C9
:10478000BDE8F08F0127D6E73BF502001FB51446C0
:1047900090B18AB1012912D10A4B00F1F0010293C4
:1047A000D0F8D431483201934FF0FF3320460093C4
:1047B0000CF002FB04B010BD6FF01500FAE700200A
:1047C000F8E700BF3BF502002DE9F04387B00E4645
:1047D000DDE90E811446DDE910251F4630B329B30B
:1047E000DFF850C000F1F009002D08BF65469EB902
:1047F000CDE9034400F5E274204605962CF053FF02
:1048000003ABCDE900432A463B46414648460CF0FF
:10481000F1FB07B0BDE8F083002241460E92484606
:104820002A4607B0BDE8F0430CF034BD6FF0150028
:10483000EFE700BF21470000F0B504462B4A87B0E0
:1048400004AB0E4692E8030083E80300002C49D035
:1048500018460CF08BF90546B0B94FF0FF33E16C08
:1048600004F15407A163CDE9010000933846236D9C
:1048700004F138022CF02FF9A06C2AF08DFEC4F858
:10488000BC0020B96FF00B05284607B0F0BDA06C46
:104890002AF082FEC4F8C0000028F3D0236CD4F8BC
:1048A000BC10C4F890300423C4F89430C4F8AC3081
:1048B0000223E3620E4BB4F84820C4F88C10616CFC
:1048C000236204F18C03C4F8A070A4F89820C4F803
:1048D000B870C4F8A810A4F8B020C4F8A400A66169
:1048E0002363D1E76FF01505CEE700BF282D030045
:1048F0003C3103002DE9F047044607464FF001091B
:10490000DFF8508014B93846BDE8F08794FAA4F572
:10491000B5FA85F509FA05F32E0108EB05156FEADE
:10492000030A24EA03042B7B002BEBD058F8063053
:104930001B694BB94644736804222846196807EA84
:104940000A072AF091FEDDE7284698470028D9D1CA
:10495000F0E700BFC42C030030B5002289B00F4936
:104960000F482DF023FB002200230024CDE906236D
:104970000E230C4DCDE903344FF440722846CDE9A7
:104980000144094B094900940DF074FB084928467D
:104990000DF0FAFA204609B030BD00BFB54900005D
:1049A000D0230020D0120020C94C0000489E0020D7
:1049B00078B7030001480DF041B800BFC8060020D9
:1049C0002DE9F047804621480F462AF031FE064681
:1049D000002833D000252846BDE8F087237B83B12B
:1049E0002368DB680BB120469847636883F806901C
:1049F00023681B69D3B963680422204619682AF02A
:104A000033FE013610345445E8D3B8F1000FE2D03C
:104A1000002DDFD02846FFF76DFF0546002FF7D0A9
:104A200000214FF4A4702DF0EDF9F1E720469847EE
:104A30000028E0D009FA06F31D43E2E705464FF0EF
:104A40000109034CDFF80CA0DDE700BFA838002007
:104A5000C42C0300D42C0300014B53F820007047F2
:104A60007C31030008B5034608462BB1044A1360A5
:104A700000F070FC002008BD6FF01500FBE700BFE0
:104A8000D802002010B5044C237813B903480CF069
:104A9000D5FF0123237010BD95640020C8060020B7
:104AA00010B5044609482AF0C3FD3CB1084BD3E8D1
:104AB000EF1F0139C3E8E21F002AF8D105482DF0A5
:104AC00081FABDE8104004480CF0B8BFA0380020BF
:104AD000A4380020D0230020C80600200020014672
:104AE000034BD3E8EF0FC3E8E21F002AF9D1704768
:104AF000A038002070B5FFF7F1FF0546074C084EBF
:104B0000B44200D370BD63685B792BB123685B68E6
:104B100013B12946204698471034F1E7C42C03000E
:104B2000D42C030010B5044C044920462AF05BF84D
:104B3000034B1C6010BD00BF4C0500206831030012
:104B40009838002000230D4A10B513700C4A4FF41A
:104B5000004113600B4A0C481360FFF783FFFFF717
:104B6000E1FF0A4B0A4918468B4200D310BD1A1ABE
:104B70005C681211013222711033F5E7966400204F
:104B8000A0380020A43800202DF60200C42C030019
:104B9000D42C030001460022002301482AF044B827
:104BA0004C05002001482AF0DDB800BF4C0500206C
:104BB000024B014618682AF029B900BF9838002036
:104BC00001482AF05EB900BF4C05002070B5274BA4
:104BD0001878002849D0FFF7E5FF0546002841D1A5
:104BE000234B244C1B68002B19DD2DF098F94FF452
:104BF0007A72A0FB020302FB0131C30B43EA41437B
:104C0000D4E900209B1A40F2E9324FEAD13161EB3E
:104C10000001934271F1000101D3FFF76BFFD4E96A
:104C2000003213F57A7342F10002C4E90032BDE8A4
:104C30007040FFF7C5BF63685B7923B123682946DD
:104C400020461B6898471034B442F4D32846FFF737
:104C5000AFFF094BD3E8EF1F0139C3E8E21F002A79
:104C6000BED0F7E7054C064EEEE770BD9564002018
:104C7000A0380020C8230020A4380020C42C030042
:104C8000D42C030070B50D4D297861B90120FFF7D0
:104C900097FE0B4C0B4EB44206D3FFF797FF00284C
:104CA000FBD101232B7070BD63685B791BB1236856
:104CB00020469B6898471034EDE700BF96640020BB
:104CC000C42C0300D42C030000212DE9F047084632
:104CD000FFF776FE044658B340F267684FF00009CC
:104CE0002DF08AFC1B4B1C4A1B58136033B11B4B25
:104CF0001B68092B02DD1A480CF0A0FE0025194F95
:104D0000DFF85CA044B12046FFF7F4FD044618B973
:104D10004FF0FF384FF0FF39FFF758FF064628B92C
:104D2000B5B942464B4650460CF0C2FE3546E9E75F
:104D30004FF0FF384FF0FF39D2E72B689B691BB16A
:104D400000222846114698471035BD42F5D3E8E7C2
:104D5000054DFAE7080000009C380020A438002028
:104D6000C8060020D42C0300C42C030013B5184837
:104D70002AF05EFC174B1B7873B1EFF311842023EC
:104D800083F31288BFF36F8FFFF720FF84F311883E
:104D9000BFF36F8F02B010BD0F4B1B68002BF9D013
:104DA00050B9002200230D48CDE900234FF4004202
:104DB00000230DF03FFFEDE70928EBD107482DF068
:104DC00001F9074802B0BDE810400CF037BE00BF43
:104DD000A4380020966400209C380020D0230020B6
:104DE000C806002010B5064B04461B6898472146AC
:104DF000A060044829F097FFBDE81040FFF7B6BF58
:104E0000D80200204C050020044A054B9B1AB1EB48
:104E1000D30F34BF52F8310000207047A42B030099
:104E2000C42C03002DE9F04F8FB0C1F34A2804AF22
:104E30000D469146B8607B600C0DB8F1000F63D051
:104E400000264FF0040B4FF00A0A07F11403C7F8CD
:104E50000C80C7E907667E620193CDF808B0CDF8F3
:104E600000A007F11C0332464846F968FEF7DEFD54
:104E7000B0F5006F03461CD36C468AB0D9F8041015
:104E800004AB26481A46C3E9050140F2FF71D96117
:104E90004FF400711984224B42F8103F4FF4125125
:104EA00033462048FFF7BEFFA5462C37BD46BDE878
:104EB000F08FC0F30A0804F11700184420F007002F
:104EC00080083B60FFF766FE68F35325044690B107
:104ED0003B6800F11001C7E9083607F11403F961D6
:104EE000CDE900A3CDF808B048460F4AF96807F1AC
:104EF0001C03FEF79BFD68F353252A4620467B687A
:104F0000B9682AF0D0FBD0E704F1170020F00700C1
:104F10008008FFF73FFE0446EDE700BF8DB70300B2
:104F200004000001342C03007BF602002DE9F04F51
:104F300087B00446DDE9105ADDE9127993469846B8
:104F40000391BFB13B46524610210020CDF800909E
:104F5000CDF81490FEF798FBB0F5006F06460AD323
:104F600040F2FF730221174A174807B0BDE8F04F1F
:104F70002AF0F2BB3E4605F11700304420F007004E
:104F80008008FFF707FE04F007040BF0070BE400AE
:104F900044EA8B1444EA462444EA0554054640B1E9
:104FA0003FB13B4652463146CDF800901030FEF7F7
:104FB0006BFB434622462846039907B0BDE8F04FF5
:104FC0002AF071BBCCB70300342C0300406820B139
:104FD000034BC01A40F3CF0070474FF0FF307047CB
:104FE000A42B03000EB403B503AB53F8042B014606
:104FF0000448019301F01EFC02B05DF804EB03B01D
:10500000704700BFBBF70200CA0605D48B064CBF31
:1050100002490349FFF7E6BF704700BFFDE5030003
:10502000FCE503002DE9F04F8BB09B46169B9DF8E5
:1050300054A00693179B04460593189B0D46904673
:10504000199E0493BAF1000F00F09E8006F0010350
:10505000089306F00803079306F4807309932AF077
:1050600001FB06F00209024600283BD020468F498A
:10507000FFF7B8FF0746B9F1000F08D016F0440F4C
:1050800032D12A4620468A49FFF7ACFF0744089BE5
:1050900053B1884B204653F82A20874B8749002A72
:1050A00008BF1A46FFF79EFF099B002B48D0079BBD
:1050B000002B62D1B8F1000F64D0424620468049EF
:1050C000FFF790FF0546069B3D44002B6BD1049BE8
:1050D000002B71D1F30700F1E28031462046FFF743
:1050E00093FFD6E00746C6E7764B18680028CDD078
:1050F000754B4FF47A791B684FF03C0CB5FBF3F518
:10510000B5FBF0F14FF4616300FB115509FB05F5A8
:10511000B1FBF3F2B5FBF0FE03FB121100FB1E55D1
:10512000B1FBFCF309FB05F5B5FBF0F50CFB131126
:1051300020460091CDE901E56449FFF753FFA5E75B
:10514000079BEBB1624B204653F82A206149FFF7D9
:1051500049FF0546B8F1000F05D0424620465849A0
:10516000FFF740FF0544BBF1000FACD05A46204684
:105170005949FFF737FF0544A5E74FF0000BE1E77A
:10518000079DE7E745469EE7BBF1010F069B06D169
:10519000002B64D1049B002B7BD000250CE0002B5E
:1051A000F8D04E485CE04E48069B22464D4929F017
:1051B000A2FB049B002B68D0DFF83881DFF8389120
:1051C000049F3146102F204628BF10274FF0000BB8
:1051D000FFF71AFF5D4545DC059B494620461A78D6
:1051E000FFF700FF4FF0010B1BF0070F03D1414603
:1051F0002046FFF7F7FE5F453BD9059B4946204611
:1052000013F80B20FFF7EEFE0BF1010BBBF1100FB3
:10521000EAD14FF0000B20463349FFF7E3FE5A4630
:10522000059B20469A5CA2F120015F2928BF2E220F
:105230002E49FFF7D7FE0BF1010BBBF1100F1DD06C
:105240001BF0070F03D141462046FFF7CBFE5F4519
:105250005A46E5D841462046FFF7C4FEEBE7204812
:105260005546A1E741462046FFF7BCFE0BF1010B76
:10527000B0E720461E49FFF7B5FEC5E7059B3B4456
:105280000593049BDB1B04939AD1BAF1000F7FF4C2
:1052900021AF20460BB0BDE8F04F2AF081BA20467E
:1052A000054A0649FFF79EFE17E700BF09B803004D
:1052B0000DB803008C31030004B803006BC3030076
:1052C00032B80300B0380020AC38002016B8030014
:1052D000A031030036B803003CB80300E9F7020030
:1052E000BBF702003568000047B8030049B8030067
:1052F000C6E50300C8E5030041B8030042F20F739E
:1053000073B58B4228BF0B460568044605216846E5
:105310000D4A26F0E9FB0646636828460B225B68C7
:105320000A492AF02FFA63683246694628465B68C4
:105330002AF028FA63681B2228465B6804492AF091
:1053400021FA02B070BD00BFE9DC030068B80300B9
:105350004CB8030000210123064A904206D8064AB1
:1053600001B901231360054B186070470121400803
:105370005B00F2E740420F00AC380020B03800205C
:105380002DE9F34143680DF107011C681048656879
:105390002AF08DFA30B99DF80710012902D10C4886
:1053A00000F030F801232B7725682F68D5E9013606
:1053B000D3E9004824B96B681C6002B0BDE8F081F5
:1053C000214630464246B847241A0644F2E700BF59
:1053D00098270300F8B50D460446064F4618B44218
:1053E00001D12846F8BD14F8011BBB6801485B6871
:1053F0009847F4E798270300014B036000207047AB
:10540000E831030070B5046A0D469CB31E4A237947
:10541000565CB34231D01D4A525C9A4230D1A368E7
:105420009847002810DA022D0CD0032D0BD110F173
:10543000860F07D0D4E8EF3F43F00203C4E8E23F11
:10544000002AF6E7267170BD022D267101D00020DA
:10545000F9E7D4E8EF3F23F00403C4E8E23F002A71
:10546000F7D1D4E8EF3F23F00203C4E8E23F002A7B
:10547000EDD0F6E76FF05700E5E76FF07700E2E771
:105480006FF08500DFE700BFCAB80300C6B80300AD
:1054900008B5044829F089FABDE80840024829F017
:1054A00084BA00BFF5B803002AB90300014823F00D
:1054B000F5BD00BFE831030038B5044618B90F4BFD
:1054C0000F485B6898476168B1F5683F10D0B1F547
:1054D000680F0DD00B4DA9420AD011F46861206805
:1054E00007D0014608482CF097F900232360656037
:1054F00038BD14222CF07BFEF9E700BFC404002065
:1055000058B903002C5F5CA9E03D002008B560B3EA
:105510004368B3F5683F0ED0B3F5680F18D0144A4E
:10552000934220D000684FF0FF324FF0FF330CF071
:105530008BF958B115E001220368D3E8EF1F002969
:1055400003D1C3E8E02F0028F7D10AD1002008BD1D
:105550000368084A1B7803F5807352F82330002B48
:10556000F4D00548F3E70548F1E76FF4E040EEE7D3
:105570002C5F5CA900000350E98FFFFFEA8FFFFF5B
:1055800008B520B34368B3F5683F09D0B3F5680F99
:1055900013D0114A93421DD000680CF0CDF914E0ED
:1055A00000220368D3E8EF1F012903D1C3E8E02FED
:1055B0000028F7D109D0094808BD00210368084A2E
:1055C0001B7803F5807342F823100020F4E76FF492
:1055D000E040F1E70348EFE72C5F5CA9E98FFFFFAC
:1055E00000000350EA8FFFFF10B5044618B91D4BA9
:1055F0001D485B6898476368B3F5683F2FD0B3F5E3
:10560000680F2CD0194A934219D1236803BB4FF07D
:10561000FF324FF0FF33214615480CF023F808B94C
:1056200023681BB90F4B13485B689847142200216D
:1056300020682CF0DCFD4FF46863636008E0B3F58C
:10564000683F0DD83A2B03D040F6BA629342DED1C0
:1056500020682CF07CF9636843F03A03636010BD66
:10566000054AF3E7C404002058B903002C5F5CA985
:10567000E03D00207EB903003A00003A08B5064933
:105680004023142205482CF0B9F8BDE8084004492D
:10569000044823F0C7BD00BFE0380020E03D0020F3
:1056A000F03103000432030010B5244C88B0248884
:1056B0008C420AD9224A00912346012121482AF02E
:1056C00055F86FF0150008B010BD1F4C24789C42AF
:1056D00005D801211D4A1B482AF035F8F1E70024BE
:1056E0000490CDF81640CDF81A40ADF81E40ADF844
:1056F00014100AB9164A126806920B9A0292BDF863
:105700002820ADF80C200022ADF80E20114A52F8E6
:10571000230038B90B4801210F4A2AF0FEF84FF058
:10572000FF30D0E702AA04A90DF096FD0028CAD1E7
:105730000C9BBDF80E201A80C5E700BF7C640020DA
:10574000ABB90300942C030099640020E9B903006D
:10575000143E0020103E002019BA030030B51A4D47
:1057600087B02D789D4208D818480121184A29F0A1
:10577000EAFF6FF0150007B030BDADF81020002231
:10578000ADF80810ADF812209DF83010ADF81420D7
:10579000104A01908DF80A1052F823000A990391DB
:1057A00038B90A4801210C4A2AF0B7F84FF0FF3007
:1057B000E1E703AA01A918F0A5FD0028DBD10B9BA6
:1057C000BDF812201A80D6E798640020942C0300BC
:1057D000E9B90300FC3D00203ABA0300134607B5BF
:1057E00041F64C5293420DD042F21072934212D0C5
:1057F0000A4801210A4A2AF090F86FF0150003B018
:105800005DF804FB0122CDE900013F210023084699
:1058100017F0C0FCF3E70022F5E700BF942C03006B
:105820005BBA03002DE9F04F1C4641F64C5385B09E
:105830009A4206460F469DF838B00ED042F21073D9
:105840009A4213D0134601212F4A30482AF065F8B6
:105850006FF0150005B0BDE8F08F4FF0010944B9B5
:1058600001212B4A294829F06EFFF1E74FF000098A
:10587000F5E745F6C0539C421DD82346254A022130
:1058800022482AF04AF80DF10C0A53464A46394696
:1058900030461FF06BFC204B18800F9B188080B1A6
:1058A0000025DFF890805D4513D11C4B03981C60E8
:1058B0001B4B1D70CEE71B4B9C42E4D923461A4A72
:1058C000DDE712480121194A29F03DFF4FF0FF3072
:1058D000C0E7D8F8003043B10C482B460121144AE8
:1058E0002AF01BF86FF07700B4E74A463946304695
:1058F000CDE9003A0DF034FA48F8040B039801356D
:105900000028D0D0A6E700BF5BBA0300942C0300A8
:1059100075BA03008ABA03007C640020143E00209C
:1059200099640020FF700200AFBA0300D5BA0300EB
:10593000FFBA0300103E00202DE9FF471D4641F647
:105940004C539A42074688460ED042F210739A4250
:1059500016D0134618480121184A29F0DEFF6FF0CF
:10596000150004B0BDE8F0874FF0010A0024144E82
:105970000DF10C09AC4206D1124B00201C70F0E76F
:105980004FF0000AF2E7336843B10B482346012188
:105990000D4A29F0C2FF6FF07700E2E75246414618
:1059A0003846CDE9003918F003FB46F8040B03989C
:1059B00001340028DED0D4E7942C03005BBA030046
:1059C000FC3D00209864002022BB030038B504464B
:1059D00000F098FFB0B100220D4951F8323001EBD0
:1059E000C20583B941F832001A466C60094C54F87C
:1059F00033100133322B0A44F9D1074B1968914215
:105A000038BF1A6038BD0132322AE6D129F0FFFFD3
:105A10001C3E0020203E0020183E002010B5044609
:105A200000F08AFF5CB10023084A52F8331002EB01
:105A3000C300A14204D1002142F83310416010BDDF
:105A40000133322BF1D129F0E2FF00BF1C3E0020D0
:105A50002DE9F84F80460C4600AF002965D0D1E90A
:105A60000012E9468AB0A3686D464FF0050A2E463B
:105A70003748C5E90723C5E9050146F810AF0023FB
:105A800032464FF421513348FFF7CCF9D4E90312E1
:105A9000CD466369AD463048C5E90723C5E9050130
:105AA000C5F810A0002332464FF421512948FFF7D2
:105AB000B9F9CD46E3690121284A264829F04CFE70
:105AC000264600254FF00A0ADFF8A0B0E946D6E9DD
:105AD00008E0D6E90A138EB06A46C2F81CE005F168
