:020000040000FA
:10000000A8B100202D530000EDCC020019530000D0
:100010001953000019530000195300001953000030
:10002000000000000000000000000000D5540000A7
:100030001953000000000000315400001953000063
:10004000F5560000F5560000F5560000F556000084
:10005000F5560000F5560000F5560000F556000074
:10006000F5560000F5560000F5560000F556000064
:10007000F5560000F5560000F5560000F556000054
:10008000F5560000F5560000F5560000F556000044
:10009000F5560000F5560000F5560000F556000034
:1000A000F5560000F5560000F5560000F556000024
:1000B000F5560000F5560000F5560000F556000014
:1000C000F5560000F5560000F5560000F556000004
:1000D000F5560000F5560000F5560000F5560000F4
:1000E000F5560000F5560000F5560000F5560000E4
:1000F000F5560000F5560000F5560000F5560000D4
:10010000F5560000F5560000F5560000F5560000C3
:10011000F5560000F5560000F5560000F5560000B3
:10012000F5560000F5560000F5560000F5560000A3
:10013000F5560000F5560000F5560000F556000093
:10014000F5560000F5560000F5560000F556000083
:10015000F55600007BB972B90029BEBF00204FF0F0
:10016000004106E008BF00281CBF6FF000414FF0BF
:10017000FF3000F057B8ADF1080C6DE904CE00294E
:1001800009DB002B1ADB00F069F8DDF804E0DDE99B
:10019000022304B07047404261EB4101002B1BDB9E
:1001A00000F05CF8DDF804E0DDE9022304B0404231
:1001B00061EB4101524263EB43037047524263EBF0
:1001C000430300F04BF8DDF804E0DDE9022304B05E
:1001D000404261EB41017047524263EB430300F040
:1001E0003DF8DDF804E0DDE9022304B0524263EBA0
:1001F0004303704753B94AB9002908BF00281CBF00
:100200004FF0FF314FF0FF3000F00CB8ADF1080CAB
:100210006DE904CE00F022F8DDF804E0DDE9022308
:1002200004B07047704700BF10F8012B11F8013B74
:10023000012A28BF9A42F7D0D01A7047034611F816
:10024000012B03F8012B002AF9D17047034613F85C
:10025000012B002AFBD1181A013870472DE9F0470D
:1002600086468C460846089E154674461946002B5D
:1002700040F0C1808542B2FA82F245D94AB1C2F15A
:10028000200300FA02FC954094402EFA03F343EA5F
:100290000C0C4FEA154EA8B2230CBCFBFEF80EFB6B
:1002A00018CC08FB00F943EA0C43994528D9EB1810
:1002B00008F1FF3704D2994502D9A8F102072B446F
:1002C000A3EB0903A4B2B3FBFEFC0EFB1C330CFB37
:1002D00000F044EA0344A04214D92C190CF1FF3376
:1002E00004D2A04202D9ACF102032C44241A43EAFE
:1002F00007401EB1D440002334607360BDE8F0872E
:100300004746DDE76346F1E792BB431B01214FEA15
:10031000154EAFB2200CB3FBFEFC0EFB1C330CFBE6
:1003200007F840EA0343984561D9EB180CF1FF3018
:1003300004D2984502D9ACF102002B44A3EB080388
:10034000A4B2B3FBFEFC0EFB1C330CFB07F744EA24
:100350000344A7424DD92C190CF1FF3304D2A74214
:1003600002D9ACF102032C44E41B43EA0040C0E78D
:10037000C2F120039540944020FA03F12EFA03F3D2
:100380004FEA154E9040AFB20343B1FBFEFC0EFBAB
:100390001C10190C0CFB07F841EA0041884522D9D2
:1003A00069180CF1FF3004D2884502D9ACF1020083
:1003B0002944A1EB08019BB2B1FBFEFC0EFB1C1112
:1003C0000CFB07F743EA01439F420ED9EB180CF1EF
:1003D000FF3104D29F4202D9ACF102012B44DB1B56
:1003E00041EA004193E76046E3E76146F7E760468C
:1003F000A4E76346B8E7834206D916B90021084648
:100400007CE7C6E900E0F9E7B3FA83F78FB98342E6
:1004100001D3724508D8BEEB020460EB0303012050
:100420009C461EB9002169E73846FAE7C6E9004C48
:10043000F8E7C7F1200CBB400EFA07F522FA0CF4DE
:100440002EFA0CF1BA401C4320FA0CF3B8404FEAE4
:10045000144901431FFA84FEB3FBF9F809FB183075
:100460000B0C08FB0EFA43EA00439A4540D9E31807
:1004700008F1FF3004D29A4502D9A8F102002344C2
:10048000A3EB0A0389B2B3FBF9F809FB183308FBA5
:100490000EFE41EA03418E452CD9611808F1FF3365
:1004A00004D28E4502D9A8F10203214443EA004058
:1004B000A1EB0E01A0FB02984145CE46434602D374
:1004C00006D14D4504D20138B9EB020E68EB0403A6
:1004D000002EA7D0B5EB0E0261EB030101FA0CFC74
:1004E00022FA07F3F9404CEA0303C6E9003199E721
:1004F0004046C5E74346D9E70A46014601482BF086
:1005000001BD00BFB27A0300014610B504460C4895
:100510002BF0F8FC00210B4B19800B4B1B68A342FE
:1005200008D10A4B0A4819700A4B19700A4B197006
:100530002AF09FFCBDE8104008482AF0A5BC00BF87
:10054000E27A030048500020C82700208855002088
:100550001C28002087550020865500206C050020AF
:1005600010B504462DF0A4FE094BA0FB0330DB0BB5
:1005700043EA404001F0C2FB21464FF4A072054817
:100580002FF00EFBBDE8104003482AF07DBC00BFF1
:1005900040420F008C5100203C05002008B508485F
:1005A0002BF0B0FC074BD3E8EF1F0331C3E8E21F89
:1005B000002AF8D1BDE8084003480EF0F1BE00BFA4
:1005C000FC7A0300E02B0020E42B002008B500217A
:1005D00004482AF04EFC20B1BDE8084040B22AF0A1
:1005E00075BC08BDE02B0020062110B50F482AF08D
:1005F0002CFC00280BDD00210D482AF03AFCBDE858
:10060000104046F2676200230A480EF075BF0948A1
:100610002FF031F840B906482AF033FC20B9BDE884
:10062000104005480EF0BCBE10BD00BF1C01030009
:10063000A82B0020D0090020AC2B00201FB5124BA6
:1006400004461B68834218D110482AF01DFC10484C
:100650002AF017FC48B90F4A13680133012B1360C5
:1006600003D901210A482AF004FC204601A909F017
:1006700063F920B9019801F033FB04B010BD064ABC
:10068000136801331360F8E7C827002084050020B1
:10069000582800208C270020882700200146034886
:1006A0008368DB690BB10122184770471C01030006
:1006B00010B5012115482AF0DCFB15482AF0E1FBB2
:1006C000044620B11348BDE810402BF01BBC124873
:1006D0002AF0D7FB70B121460F482AF0CAFB0F4819
:1006E0002AF0D4FB0E4821462AF0D0FB01F0BCFDD5
:1006F0000C48E8E708482AF0BCFB08482AF0C6FB8B
:10070000074801212AF0C2FB0748DCE7A82B00209C
:10071000BC2B00200E7B0300A42B0020C809030083
:10072000D0090300357B0300497B030010B5164850
:100730002AF0A7FB38BB15482AF0A3FB044620B1DA
:100740001348BDE810402BF0DDBB12482AF099FB9E
:1007500060B121460F482AF08CFB0F482AF096FB27
:1007600021460E482AF085FB0D48EAE70121094899
:100770002AF07FFB08482AF089FB012107482AF06C
:1007800078FB0848DDE710BDDC2B0020A42B0020FF
:100790005C7B0300BC2B0020D0090300CC2B002085
:1007A0007F7B0300A87B030010B50D482AF069FB8E
:1007B000A8B904210B482AF048FB04460028D4BFFE
:1007C0000021012108482AF054FB0849084B094838
:1007D000002CC8BF1946BDE810402BF093BB10BDDC
:1007E000DC2B00201C010300CC2B0020DC7B030051
:1007F000D47B0300E57B03002DE9F041334D344EFB
:10080000344F8CB04FF0FF324FF0FF3328460EF0DC
:100810004DFC0022002330462CF0EEFA044618B9B5
:100820002D482BF06FFBEDE700F10C080D21404641
:100830002CF015FB002138462AF01BFB38B3274B60
:100840000DF1040C03F1280E62461868596808334C
:1008500003C273459446F7D121482AF012FB2C229B
:100860000B9001A940462CF00BFBDFF88C801D4B50
:100870002146B8F8002018682CF061FF011E12DA3A
:1008800019482BF03FFB204605F0A8FABAE72822CA
:1008900001A82FF0ACF9154B154819680131196002
:1008A0002BF030FBD8E7B8F80030124A0133A8F833
:1008B0000030136801331360C822B3FBF2F102FB6E
:1008C0001133002B9ED1094A13609BE78405002059
:1008D000B405002060280020EF7B0300895500202C
:1008E0001C280020C82700203E7C03009C270020F5
:1008F000127C030098270020485000202DE9F04783
:100900000027444B444E9D8FD6B04FF0FF324FF03E
:10091000FF3330460EF0CAFB4FF4A0723F4906A8E1
:100920002FF03EF93E482AF0ACFA18B1A02106A8F3
:1009300001F07AFC3B482AF0A4FA48B93A482AF078
:10094000A0FA014620B94FF4A07206A82FF04FF983
:10095000002136482AF08DFA88B1354C06A834F9C2
:10096000023BB0F9002003EBD37302EBD2725B10B1
:10097000013103EB6203A02920F8023BEFD12DF0F7
:1009800097FC2C4B0DF1160A0193282300930023AA
:100990004FF4A0711A468146CDF808A006A804F0CD
:1009A00003F880462DF084FC0446B8F1000F04D013
:1009B000414621482BF0A6FAA7E7BAF800108D426D
:1009C00003D02A461D482BF09DFADFF888800121CC
:1009D0001B482AF04EFA98F8003023B119482AF043
:1009E00053FA88F80070184A1368591C1160642281
:1009F000B3FBF2F002FB1033002B86D1134AA4EBB9
:100A00000900A0FB0202C00B40EA424210482BF052
:100A100079FA7AE758010020F40400208C51002074
:100A2000A42B0020DC2B0020CC2B00205C280020F5
:100A30004C500020895500205C7C03007D7C030025
:100A400060280020840500209427002040420F00E9
:100A5000AC7C0300F00300202DE9F04F4FF00008BC
:100A6000514DD7B04FF0FF324FF0FF334F480EF0EB
:100A70001DFB00214E482AF0FCF995F82F300DF1AE
:100A8000160206AC002B4FD0288800284CD028280E
:100A9000CDE901210B464FF4A0720146009428BF16
:100AA0002821444803F0DAFF0126024622B1002142
:100AB00041482BF027FA00266422404FA5F8008019
:100AC0003968A5F82E80B1FBF2F302FB1313D3B9FA
:100AD0003B482BF017FA3B4B93F8332092BB93F82B
:100AE000321000231A46374899422DDC642312FB4A
:100AF00003F2B2FBF1F234480021D2B22BF002FA39
:100B000032482BF0FFF90020DFF8CCC0DFF8CC90A2
:100B1000E24600212E4BD9F800201B889BB202EB45
:100B2000831BBEB9324617E00123CDE90123002320
:100B30004FF4A07219461846009403F08FFF002668
:100B40000246B3E73221CCE710F801CB013362440F
:100B5000D2B2C9E734F911204FEA024E01311EFA30
:100B600082FE10294BF804EB2AF8022BD9D1B9F8F0
:100B70000C200133B3FBF2F102FB11331030144AA5
:100B80009BB2A02813800CF1200C04F12004BFD1EB
:100B9000012107482AF06DF90E482AF075F93B68E3
:100BA00001333B605EE700BF242800200C050020D5
:100BB0005C28002026280020C97C03009027002004
:100BC000F47C030052550020037D030015B7030099
:100BD000CE520020F40400204C5000204801002098
:100BE000F8B5334B14465B68834260D131482AF034
:100BF00048F900285BD0002A4CD0138A23B18B79A6
:100C000083F00203C3F340030126002232272A485F
:100C10001D4680F82E6080F82F3002808A8802639B
:100C2000264A92F8321053543144B1FBF7FC07FBCB
:100C30001C1182F8321009B982F8336043B1228A5C
:100C4000E1682C2A28BF2C2202801D482EF0A8FF24
:100C50001C4C1D4823781D432570D0E8EF3F01331D
:100C6000C0E8E23F002AF8D10BB300212AF001F9D5
:100C70002078164B80B1164A117001221A7000229A
:100C80001978144822702AF0F4F8BDE8F8401248A8
:100C90002AF0FAB81346B7E71A78002AEFD00C49C1
:100CA0000A78052A96BF013218700A70E7E7F8BD86
:100CB000C827002058280020242800205255002052
:100CC0002628002088550020202800208655002056
:100CD000875500201C2800200C05002008B5084876
:100CE0002BF010F9074BD3E8EF1F0339C3E8E21FDD
:100CF000002AF8D1BDE8084003480EF051BB00BF00
:100D0000107D0300E02B0020E42B00202DE9F04FA4
:100D100000210120BBB00BF049FF00F1744404F541
:100D2000A6043CB1214693482BF0ECF820463BB09A
:100D3000BDE8F08F90482BF0E5F890482BF0E2F8F2
:100D40008F4990482BF0DEF800F06AFB014650B165
:100D50008D482BF0D7F88D482AF0ACF830B98C4884
:100D60002BF0D0F80CE000F083FBF4E74FF4803177
:100D700088482AF04BF8014690B187482BF0C2F81A
:100D8000864987482EF01DFC864887492EF067FC6F
:100D90007E482AF08FF8D0B984482BF0B3F825E0CC
:100DA0004FF0E8617B482AF00EF8044610B1014686
:100DB0007F48E3E77F48804B436010238360FFF761
:100DC0006DFC21467D482AF054F87D48C8E77D48EF
:100DD0002AF070F80028DFD04FF480317A482AF0EA
:100DE00015F80146C0B179482BF08CF80321002397
:100DF00008461E2201F0CAF9014610B174482BF0D2
:100E000081F82AF059F87349734800F08DFC0446C4
:100E100060B30146714887E74FF4B011704829F07C
:100E2000F5FF014608B16F48DEE766482AF042F850
:100E300008B96D48B1E74FF4B0116C4829F0E6FFEE
:100E4000014608B16A48CFE74FF0E8615E4829F0F3
:100E5000BAFF014608B16748C6E76748674B436079
:100E600040238360FFF71AFC654896E700F094FC86
:100E7000044610B10146634856E7634D00F03EFC5E
:100E800062482BF03FF8286C00F0E4FE044610B1F5
:100E900001465F4848E75F485F492EF092FB3B48B8
:100EA0002AF008F870B95D482BF02CF80021B5F84D
:100EB0004020084603F012FE0446002837D00146C1
:100EC000574831E7314829F0F5FF0028EBD04FF4BF
:100ED0008031544829F09AFF0028E7D14FF480313F
:100EE000514829F093FF0028E0D14FF0B8614D48F8
:100EF00029F069FF0028D9D14FF0B8614A4829F09C
:100F000062FF0028D2D14948494B4A4C4360042330
:100F10008360494B63600823A360FFF7BFFB204653
:100F2000FFF7BCFB032145482AF0ECFFBEE74FF07A
:100F30000108434BCDF80080019310214FF4FA4390
:100F40004FF47A50B5F8402003F0ECFD044610B1A0
:100F500001463C48E8E6434610214FF47A50B5F884
:100F6000402003F069FE044600286FD00146364851
:100F7000DAE600BF247D03004A7D0300647D0300A0
:100F8000817D0300937D0300A37D03001C0103000A
:100F9000B87D0300E0090300D37D03002D070000A6
:100FA000AC2B0020D0090020B1060000497E0300D0
:100FB000F47D0300D02B0020A9070000CC2B0020DB
:100FC000187E0300FC000300D80903006D7E0300B7
:100FD000507F03006105000048010020657F030089
:100FE000D0090300937E0300B67E0300C809030006
:100FF000D27E0300F47E0300C02B0020E905000030
:101000001D7F03007C7F030058010020947F0300B4
:10101000C47F0300E42B0020CD050000DE7F030029
:1010200037800300F0090300E8090300002C0020CA
:10103000DD0C0000F42B00209D050000FC7F030068
:101040004A5000205580030077800300A9482AF009
:1010500059FFA9482AF056FF0026002703234FF422
:101060008052CDE90243CDE90667CDE90044A34BA8
:10107000A3490494A3480EF0BBFAA349A1480EF07B
:1010800041FA4FF0020B4FF48052CDE90667CDE9EB
:10109000024BCDE900449D4B9D4904949D480EF0C0
:1010A000A7FA9D499B480EF02DFA9C4821464246DE
:1010B0002EF003FA204606F095F8044610B10146DA
:1010C000974831E6DFF8B8921AAE4F460FCF0FC6F9
:1010D0003B68214633600AAA1AA806F095FE04462A
:1010E00010B101468F481FE64FF4A02311AE41F620
:1010F000520130460FAFCDE9123711972BF0D1FED8
:10110000304689492BF0D7FE4FF016038DF850304A
:10111000BDF848300DF1500A8DF85130119B009404
:10112000159341F20923ADF85830804B5A46179376
:10113000514623460A982CF02AFA044610B101467B
:101140007B48F1E50A9B394609934FF03013CDE90E
:101150000F30099806F0DAFE044610B101467548D2
:10116000E2E5014614221DA82EF041FD0BAA1692BD
:101170000622B9F81830D9F81400ADF83030B9F8B3
:101180001E300B90ADF838306B4BD9F81A00149321
:1011900024331793694F0DABCDE91823684B0D909D
:1011A00039461AA8CDE911BACDE91A8615921395D8
:1011B0001C9309F097FD044610B101466148B3E560
:1011C0001AAB14934FF400035146159338681AABC9
:1011D00016932CF063FD044610B101465A48A3E56E
:1011E0004FF016038DF84430BDF8543042468DF868
:1011F0004530149B31460998129306F0F5FE0446DB
:1012000010B1014651488FE50A982CF0F2F90446D6
:1012100010B101464E4887E5ADF850008DF85200F8
:1012200014A90A9806F020FE044610B10146494868
:101230007AE5494B494A4A4C4A495C609960C3E99E
:101240000641136014335360496895F83A300A98A0
:10125000CB70516889684968CB702B6C42498B60B0
:10126000EB8F0A6032468B8108F0D0FB044610B148
:1012700001463E4858E506463D4FDFF808813D4DA2
:10128000314638462AF03EFE4FF0FF324FF0FF3332
:1012900040460DF00BFF044620B10146364843E5B9
:1012A0000126EDE7314628462AF02CFE002EF7D025
:1012B00000F02AFD2546284FDFF8CC90DFF8CC80DF
:1012C000294648462AF01EFE142200211AA82EF0B4
:1012D0008EFC032338461AAAE9B28DF8693007F06C
:1012E0007BFF0446002853D0014624481CE53546C0
:1012F000E6E700BF99800300B5800300590A0000AB
:10130000685D0020E0070020E7800300FD08000082
:10131000686D0020D8080020F3800300F40400204A
:10132000FF8003001F810300563412004A8103002E
:101330005D81030086810300D0270020182800204B
:101340008C010020BE810300E1810300F6810300CF
:101350001382030043820300A0270020C827002037
:10136000080100201C0100202401002072820300DB
:1013700091820300B68203000E810300F282030013
:10138000900603006C050020D4820300158303003F
:10139000294640462AF0B6FD1437002DA7D000227A
:1013A0000023CDE9062302234FF48062CDE90243F6
:1013B000CDE900440A4B0B4904940B480EF018F990
:1013C0000A4909480EF09EF8094829F05DFD012000
:1013D00000F04EF8014600283FF4A8AC0548A3E40D
:1013E000F907000068590020E80600203A8303004E
:1013F0008405002041830300084B1A691268002A03
:10140000B8BF80F0010028B19B68DB684FF0004155
:10141000024818479B681B69F8E700BF1C010300DE
:1014200038B5104D2B78BBB90F4C20462DF0C9FEB6
:10143000A8B12269A1681368204643F000431360F5
:101440000B680A4A1F219847034630B9FFF7D4FFBB
:10145000034610B901232B700023184638BD6FF0E6
:101460001203FAE7B15500201C01030001000A0035
:1014700010B5074B04461B7823B12046BDE8104049
:10148000FFF7BABFFFF7CCFF0028F6D010BD00BFB2
:10149000B15500202DE9F047854F06463B78002BDB
:1014A0004BD0002849D04FF000094C46814D824B6B
:1014B0002A78011F03EB42183C3051F8042F13B275
:1014C000002BB8BF5B429BB212149C42B8BF1C46B3
:1014D000002AB8BF524292B29145B8BF91468842A5
:1014E000EBD1DFF810A2DAF80030002B0FDA402C35
:1014F00002DCB9F1400F0ADD4C45ACBF00210121EF
:101500004B4622466D48CAF800102AF0FBFCDAF878
:101510000030002B70DBDCB2002356F82320002CB7
:101520006FD112B228F813200133102BF5D12B788C
:101530000133DBB2092B66D82B70614A61481378FE
:101540006149DFF8B491002B0CBF8046884683F0D8
:1015500001031370D9F80030002B00F08C809A68DA
:1015600014885A68A4B2B2F800A09A891FFA8AFABD
:10157000564B544519784FD8AAEB0405ADB2002953
:1015800050D0544577D0DFF864A1DAF8001049B1A3
:10159000D9F800302A469B894D482AF0B3FC002335
:1015A000CAF80030C446D9F800504FEA841E2B68B0
:1015B00003EB841303F14009624618685968083345
:1015C00003C24B459446F7D128684022002170445D
:1015D0002EF00DFBAB890134B4FBF3F103FB114496
:1015E000AA68A4B23B4B1480D3E8EF1F0131C3E8D3
:1015F000E21F002A1DD0F7E74C45ACBF00240124B0
:101600008AE712148EE700232B70334B1B68002BE4
:1016100093D02948984790E70AEB02052D1BADB2FD
:101620000029B0D1092D1FD84022002140462EF0BC
:10163000DEFA3B784146002B14BF3046002000F014
:10164000BDF9014688B3254B1A680132052A1A6094
:1016500005D93220B2FBF0F300FB13232BBBBDE80E
:10166000F0471F482AF04EBC01211E481970294638
:101670002AF048FC85E74022002140462EF0B7FAC8
:10168000194BD3E8EF1F0131C3E8E21F002AF8D15C
:10169000164B17481A6801321A60D0E8AF2F196844
:1016A0009142C6D929F00AFCC3E7BDE8F08700BF24
:1016B000B5550020B4550020D052002067830300A8
:1016C000B2550020602C0020202C0020B3550020B3
:1016D000C1830300182C0020242D00200C2C002096
:1016E000F18303009D8303001C2C0020142C002098
:1016F000102C00209C010020202D00204FF0FF33F3
:1017000007B501A9019329F0EAFB38B9019B5A1CDE
:10171000032A28BF4FF0FF33024A136003B05DF87D
:1017200004FB00BF9C01002037B502466C460B4607
:10173000134903C984E803001046F2B1EBB1114D1F
:101740002A7812B1002003B030BD0F4A10600F4A52
:101750002046136000F036FB0028F4D19DF80020ED
:101760000B4B1A70019B5A1C032A28BF4FF0FF3302
:10177000084A136001232B70E4E76FF01500E2E7DD
:10178000B0060300B7550020202D0020242D002096
:10179000B55500209C01002070B5324B1B78002B02
:1017A0005CD0314E3378002B56D1304800F090F8A1
:1017B00000F094F8044628B101462D482AF0A2FB17
:1017C000204670BD014640222A482EF010FA4022E1
:1017D000214629482EF00BFA284B21461C70284B35
:1017E00028481C60284D29F069FB284829F066FB31
:1017F000274829F063FB2B782648002B08BF0020E0
:101800001C4900F0B5F8044610B101462248D5E75E
:101810002B782248002B08BF0020174900F0CEF893
:10182000044610B101461E48C8E700F009FB044613
:1018300030B101461B482AF065FB00F0E1F8BFE734
:10184000194B2978194A1A4800290CBF1146194624
:101850002AF058FB012333700024B1E74FF0FF3426
:10186000AEE700BFB7550020B65500209514000024
:101870002C840300602C0020202C0020B355002075
:10188000142C00201C2C0020B5550020182C002002
:10189000102C0020E02C002047840300A02C002006
:1018A00063840300868403002684030029840300E4
:1018B000B5840300012908D138B1044A126822B165
:1018C000D0E9000100B901B110477047282D002070
:1018D000014B1860704700BF282D002037B51D4D03
:1018E0002B78002B34D14FF0502449F6A633C4F89E
:1018F0005C350123A361D4F8203153B1002116488F
:1019000001AA2CF0FBFB002808DA6FF0040003B0FA
:1019100030BD002121202DF075FFECE7019B0F4A1F
:10192000197918680AF0E6FA02460028EDD101217B
:10193000282003F011FE282003F0DEFD084A0949A3
:1019400009480BF0F7FD094B9842DED101232B70BB
:101950000020DCE7B8550020F809030000800250A1
:10196000B5180000A0010020C80100200000AD0B48
:101970001FB50F4C2378012B13D100B989B1102367
:10198000CDE9010100220B4801A9ADF80C300BF0A4
:10199000A3FE094B984207D102230020237004B014
:1019A00010BD6FF01500FAE76FF00400F7E700BF15
:1019B000B8550020C80100200000AD0B1FB50D4B2D
:1019C0001B78022B13D100B989B11023CDE9010195
:1019D000094801A9ADF80C300BF0F2FE074B984214
:1019E00014BF6FF00400002005B05DF804FB6FF039
:1019F0001500F9E7B8550020C80100200000AD0B24
:101A000010B5054C2378022B04D104480BF01AFFC3
:101A10000123237010BD00BFB8550020C80100206D
:101A20004FF050232DE9F74FD3F85C6549F6A63304
:101A3000B6B2002E08BF1E464FF00008C24645460B
:101A400000244FF0FF324FF0FF336F480DF02EFBB4
:101A50006E4AD2E8EF3F012B03D1C2E8E14F0029E3
:101A6000F7D10CBF012727460BD12146684829F042
:101A70002FFA684B68481A68684B19682AF042FACE
:101A8000DAE7674BD3E8AF4F012D11D004D9AB1E75
:101A9000012B3CD9474609E05E4B604A21461B6852
:101AA000126860482AF02EFAA2460125B846C7E718
:101AB000584B08F101081B684345EBD840F24B1323
:101AC000A4EB0A01C1F5C332574DA032554395FB33
:101AD000F3F505F51B442B46A63405F5DD555348B3
:101AE000009406352AF00EFAB5F5804F04D350481D
:101AF0002AF008FA0025D9E74FF0502321464D4837
:101B0000C3F85C452AF0FEF90225A6B2CEE7414BA8
:101B100008F101081B684345BCD8474BD3E8AF8F99
:101B20003E4BB4EB0800D3F8009061EB01010029B3
:101B30004FEA590B21DB4A463B46FEF70BFB934528
:101B400001DAA2EB09023D4802EBD2723C494FEAAE
:101B50006209032D08BF0146434622463948CDF8A5
:101B600000902AF0CFF909F5FA73B3F57A7F12D90C
:101B7000494635482AF0C6F998E7B8EB040061EB0E
:101B800001014A463B46FEF7E5FA5A45C8BFA2EBBB
:101B900009025242D7E740F24B13234C04FB09F4ED
:101BA00094FBF3F43444B4F5004F1BDD4BF6FE73A5
:101BB0009C421ADCA4B24FF05023022DC3F85C45BE
:101BC00089EAE973A3EBE97312D10F2B3FF76EAFEC
:101BD00001210F4829F07CF921461C482AF092F98E
:101BE000032563E74FF40044E5E74BF6FF74E2E7B3
:101BF000202BF5DD0021064829F06AF949461448F2
:101C00002AF080F976E700BFDC040020D80100202C
:101C10002C2D0020D0010020F5840300D4010020E9
:101C2000342D00201F85030018FCFFFF4C850300A6
:101C30007D850300A0850300302D0020E78403008C
:101C4000EE840300C2850300E585030004860300DB
:101C50001E86030010B5184B421E9A42014688B0FA
:101C600005D8164CB4FBF0F200FB124434B1144812
:101C70002AF048F96FF0150008B010BD114B18603C
:101C8000114B12481A602AF03DF900220023CDE9D9
:101C9000062301234FF48062CDE90243CDE90044DD
:101CA0000B4B0C4904940C480DF0A2FC0B490A485C
:101CB0000DF028FC2046DFE79F860100A08601008A
:101CC0003C860300D4010020D00100205A86030086
:101CD000211A0000687D0020000A00207A86030097
:101CE000014608B5034829F0F3F8BDE8084002486A
:101CF0000DF0A2B9342D0020DC040020014601487B
:101D000029F0E6B8302D002008B50121034829F05C
:101D1000DFF8BDE8084002480DF08EB9D801002078
:101D2000DC04002010B588B00DF1070302930123F5
:101D30000022CDE90513039307238DF807008DF8E2
:101D400010208DF81C3007489DF81C30826843F045
:101D500002038DF81C3094681823022202A9A047C0
:101D600008B010BDFC0103001FB502238DF8000070
:101D70008DF80110CDF804D002938DF80C3007488F
:101D80009DF80C30826843F002038DF80C309468A3
:101D90001823012201A9A04704B010BDFC010300D3
:101DA00010B5014604461020FFF7DEFF30B921468A
:101DB0001120FFF7D9FF08B9014B1C7010BD00BFFF
:101DC000F103002037B5054650B317482DF0F9F957
:101DD00038B916482AF096F86FF01204204603B07E
:101DE00030BDFF200DF10701FFF79CFF044620B135
:101DF00001460F482AF086F8F0E79DF807104229BF
:101E000005D00C482AF07EF86FF00404E6E70123C1
:101E10002B706B60084B187008482AF073F8DDE7E8
:101E20006FF01504DAE700BFFC01030083860300AE
:101E30009E860300C0860300B9550020E586030096
:101E400037B55C4D297819B10024204603B030BD68
:101E500017208DF80710FFF787FF044620B10146D1
:101E600055482AF04FF8F0E710210520FFF77CFFD6
:101E7000044610B101465148F3E780210620FFF7E0
:101E800073FF0446014608B14D48EAE70720FFF713
:101E90006BFF044610B101464A48E2E7002140F6D4
:101EA000CD402DF0AFFC20460DF10701FFF73AFFC2
:101EB00010210820FFF758FF044610B101464248A0
:101EC000CFE710210920FFF74FFF0446014608B174
:101ED0003E48C6E70A20FFF747FF0446014608B11F
:101EE0003B48BEE70B20FFF73FFF044610B1014619
:101EF0003848B6E730210C20FFF736FF044610B112
:101F000001463548ADE733210D20FFF72DFF04468C
:101F100010B101463148A4E734211220FFF724FF15
:101F2000044610B101462E489BE72E211320FFF7EF
:101F30001BFF0446014608B12A4892E71520FFF727
:101F400013FF044610B1014627488AE710211420E8
:101F5000FFF70AFF044610B10146244881E7022139
:101F60001620FFF701FF044610B10146204878E72C
:101F7000204B1878FFF714FF044610B101461E48A5
:101F80006FE78F211720FFF7EFFE044610B10146DF
:101F90001A4866E72E2333213422194829F0B2FF6C
:101FA0009DF807108B0702D4164829F0ABFF0123D8
:101FB0002B7049E7B9550020178703003C870300C1
:101FC0005E87030086870300AF870300D587030081
:101FD000FB8703002388030046880300688803000A
:101FE0008A880300AF880300D4880300F9880300BF
:101FF0001D890300F10300203C8903005C89030074
:102000007F890300EB890300F8B5002106461527F8
:102010006FF00042114B124D1B7835F8134004EB62
:10202000400424B235F9023B1B1B002BB8BF5B42B6
:102030009342B8BFCFB201F10101B8BF1A462829B7
:10204000F0D13846FFF7ACFE044620B93A46314697
:10205000044829F057FF2046F8BD00BFF1030020D7
:10206000D03B0300288A03000023084A1370084A63
:102070001360084A1360084AD2E8EF1FC2E8E03F45
:102080000028F9D1054829F03DBF00BFBB5500200D
:102090003C2D0020382D0020CC2B0020448A03004A
:1020A00038B50A4600EB410504460021A5420DD192
:1020B000B1F5FA7F2C4C13DA2378012B3CD0022B9C
:1020C00046D0002B3DD1294B002239E034F9023BA8
:1020D000002BB8BF5B421BB29942B8BF1946E5E777
:1020E0000146234800F0DAF82378012B22D0022B96
:1020F00028D033BB0028E6DD1C491E480A6800686A
:10210000013282420A601CDB01220B601A4B2270F2
:10211000D3E8EF1FC3E8E02F0028F9D1FFF7F4FD63
:10212000164B186808B10CF087FFBDE8384014481A
:1021300029F0E8BE002804DC022301222370114BA1
:102140001A6038BD002803DD012323700D4BBBE767
:102150000C4A1368013313600B4A12689342F0DB98
:10216000BDE83840FFF780BFBB5500203C2D002064
:102170004C2D0020442D0020CC2B0020482D002089
:10218000538A0300382D0020402D00202DE9F34113
:102190001C4C054620460E461746984600F030F97E
:1021A00068BBC4F8F0022946204628F09BFE28B1FF
:1021B0006FF01504204602B0BDE8F08120464FF4D0
:1021C0007A5128F099FE04460028F1D10E4B324690
:1021D0001E600E4B29461F600D4BC3F800800D4B4F
:1021E00018700D4B18600D4B18600D4B18704FF4A4
:1021F000FA730C4800933B4629F084FEDAE76FF04F
:102200000404D7E74C2D0020442D0020402D002051
:10221000482D0020BB5500203C2D0020382D0020EB
:10222000BA550020638A03009F29034670B512D86F
:102230000B4C0C4D26784A0001FB06F0194605EBC5
:1022400040002DF0ADFC16B90123237070BD0023B2
:10225000A02128462370BDE87040FFF721BF00BFD2
:10226000BA5500201054002010B5084C2378013BCB
:10227000012B01D8FFF7F8FE0023054A23701360F5
:10228000044A1360044A137010BD00BFBB55002000
:102290003C2D0020382D0020BA55002038B508B953
:1022A0002AF096FD0A24D0F8F0520D4B53F8253051
:1022B0005C43A24207D014245C43A24203D01E24F4
:1022C00063439A4209D1074B53F8253098470028B9
:1022D000E6DB14BF0120002038BD4FF0FF30FBE7E4
:1022E000300A0300200A0300032966D8DFE801F062
:1022F0000220374E324B1A689B88C0F8C422A0F8DF
:10230000C832304B1A689B88C0F8CA22A0F8CE3277
:102310002D4B1A689B88C0F8D022A0F8D4322B4BE2
:102320001A689B88C0F8D622A0F8DA3200207047DD
:10233000274B1A689B88C0F8C422A0F8C832254BE6
:102340001A689B88C0F8CA22A0F8CE32224B1A68BD
:102350009B88C0F8D022A0F8D432204BE0E7204B75
:102360001A689B88C0F8C422A0F8C8321D4B1A68AE
:102370009B88C0F8CA22A0F8CE321B4B1A689B88F3
:10238000C0F8D022A0F8D432184BC9E7184B1A680D
:102390009B88C0F8C422A0F8C832164B1A689B88E4
:1023A000C0F8CA22A0F8CE32134B1A689B88C0F836
:1023B000D022A0F8D432114BB2E74FF0FF30704773
:1023C0007A3C0300743C03006E3C0300683C03004D
:1023D000623C03005C3C0300563C0300503C03009D
:1023E0004A3C0300443C03003E3C0300383C0300ED
:1023F000323C03002C3C0300263C0300203C03003D
:1024000010B5044610B94FF0FF3010BD0123002174
:102410000360C0E94511102204302DF0E8FB04F1FF
:10242000140029F0FDF82D4B04F1B40203F118015A
:1024300053F8040B8B4242F8040BF9D1284B04F1FA
:10244000CC0203F1180153F8040B8B4242F8040B41
:10245000F9D1244B04F1E40203F1180153F8040B01
:102460008B4242F8040BF9D11F4B04F1FC0203F13B
:10247000180153F8040B8B4242F8040BF9D142F2D5
:10248000107104F5ED7304F29A2223F8021F9342AF
:10249000FBD10021C02204F58E702DF0A8FB002195
:1024A000124B2046C4E9A733C4F8A812C4F8AC12F2
:1024B000A4F8B012C4F8B212C4F8B612A4F8BA1252
:1024C000C4F8BC12C4F8C012C4F8A432FFF70CFF61
:1024D000002898D12A23C4F8EC3296E7C83C0300C0
:1024E000B03C0300983C0300803C030040064006DB
:1024F0002DE9F04F00F53777A9B03B461646044664
:1025000028F0FCFD18220021A4F8E80205461CA8CA
:102510002DF06DFB1822002122A82DF068FB502E13
:1025200022D1B4F9C4320893B4F9CA320193B4F990
:10253000D0320693B4F9D6320A2D07932EDD4FF030
:10254000000B22AB0493AE4B0DF170080993CDF84C
:1025500014B0CDF808B00025029B2E46A7F5377AB7
:102560004FEA4309039529E0A02E0BD1B4F9C632F6
:102570000893B4F9CC320193B4F9D2320693B4F98A
:10258000D832D9E7B4F9C8320893B4F9CE320193FE
:10259000B4F9D4320693B4F9DA32CDE7B4F918318C
:1025A000002B00F31A8200260023A4F81A313046CB
:1025B000266029B0BDE8F08F0123039310ABBAF970
:1025C000E420BAF9B4104B44B7F9000028F056FEE5
:1025D0008C4B0CAA33F90930BAF9CC105843039B41
:1025E000064442F8230016ABBAF9FC204B44B7F975
:1025F000000028F043FE844B039A33F909300AF1B6
:102600000C0A58430EAB43F82200054409F10C09AB
:10261000002AD1D0002E40F0DA80002D00F0E580B5
:1026200085EAE573B3FA83F31F22013B1BB20999D4
:10263000D21A31F9023B0991059902FB0313059364
:10264000069B46F30F31B3EB820FB8BF4FF0010B7F
:10265000002940F3CD800C986C4B03EA800028F0F1
:1026600061FFA8F80000C0F58040A8F80C0045F311
:102670000F3100290ADD654B0E9803EA800028F02F
:1026800051FF049B1880C0F580409881029B08F19F
:10269000020801330293049B023702330493029B26
:1026A000062B7FF458AF059B079A4FF00008934222
:1026B000B4BF5E464BF00106554B36B20A93554BFC
:1026C00004F1B4050993544B07934FF44853424621
:1026D000B5F928122046049328F038FE4FEA480343
:1026E0000693484B074603EB48031A460021284649
:1026F000029328F020FC9A224FF4207A8011C0EB3C
:10270000071010FB02F0C0F34F230593434BC8EBB7
:1027100048270393049BFF01534407F510571BB24E
:10272000DDF81890A5F1B40BBFB20B93BBF9FC30E8
:10273000BBF9B400BBF9CCC0BBF9E4100493002E84
:102740006ED0059B41F69A1E184400B25045B8BFA2
:1027500050463BB29842A8BF184622AB39F9031045
:1027600016ABABF8B40039F90300039A01FB00F390
:10277000DB1213FB0EF35B150133B2F900E00CEB37
:1027800063031BB27345B8BF73460B9A0CF1040C7C
:102790009342A8BF1346ABF8CC30B5F82832BDF849
:1027A0001020A3EBEC0313FB00F3DB108810A3F560
:1027B0008053584302EB820100114900002809B2FE
:1027C00063DC4042049228F0ADFE404260E086EABD
:1027D000E672B2FA82F2013A12B23DB185EAE573CD
:1027E000B3FA83F3013B1BB221E71F221F231EE72D
:1027F0004FF48043A8F8003039E74FF4407A95E76A
:10280000383D0300F83C0300E03C030000C0FFFF3C
:10281000103D0300203D03002C3D03001C3D030040
:1028200040F28F2E1CAB33F90930059A049310AB9C
:1028300039F903C0049B03FB0CF3DB1213FB0EF30B
:1028400000EBA35313441BB25345B8BF53460FFAD2
:1028500087FE7345A8BF7346ABF8B430B5F828328D
:10286000A3EBE00313FB0CF30498DB1002308010A1
:10287000A3F5805358438013002800F39C80404206
:10288000049128F04FFE404298E0049228F04AFE5E
:1028900000B2049A803040F30720024412B2B2F52D
:1028A000C07FB8BF4FF4C072ABF8FC20039B8037E9
:1028B0000233BAF5407F0BF10C0BBFB2039309F161
:1028C0000C099AD10021029A284628F034FB069B75
:1028D000454A05F1180A13441A4607460021504696
:1028E0009B4628F028FB079BC0F34F22814633F913
:1028F000020BC7F34F210793531A1BB2834215DA19
:102900000144891A09B201EB410701EB87015A46DC
:1029100041F38F01504628F00EFBB9104942814621
:10292000029A284609B228F006FB0746099A32F9AE
:10293000023B09924FEAE91249F3CF194B4508DAF5
:10294000298B9A1A11FA82F12983A98C11FA82F241
:10295000AA840A98F91130F9022B47F3CF1797424E
:102960000A9008DD521A298811FA82F12980A98972
:1029700011FA82F2AA8108F10108B8F1060F05F1F7
:1029800002057FF4A4AED4F814310133C4F8143135
:10299000002E3FF403AEB4F81A3101331BB2062BFC
:1029A000DBBFA4F81A31089BA4F81A810193019B9C
:1029B000A4F81831FBE5049128F0B4FD00B20499A5
:1029C000203040F38910084400B2B0F5C07FB8BF92
:1029D0004FF4C070ABF8E40068E79BB29E1C013B6B
:1029E00036B2A4F81831DFE5E03C03002DE9F047EA
:1029F00043F6D72C002540F6EA3642F2984A4910B1
:102A00008D4215DB0646002740F2353C41F2DE7E62
:102A100043F25E088F4234DB002547F6FF7C3A4ED6
:102A200002F1020E8D4200F1100053DBBDE8F08789
:102A300050F83580D3F804E01F68A8EB0E0404F5C5
:102A40000054A41306FB0474C3F80080D3F8088074
:102A50005C60A4EB08095FEAA93948BF09F10109E4
:102A60000AFB09EEDC68AEEB0404A41348BF013492
:102A70000CFB0484C3E902E4641040F835400135DE
:102A8000BEE7D6F804A0D3F814900137AAEB0904E6
:102A900004F50054A5131C69C3F810A00CFB0544F1
:102AA0009D695C61A4EB050A5FEAAA3A48BF0AF196
:102AB000010A0EFB0A99DC690836A9EB0404A41389
:102AC00048BF013408FB0455C3E906956D1046F86C
:102AD000045C9FE750E90234234450E904473C4436
:102AE000E413B442B8BF3446DB136445A8BF644660
:102AF000B342B8BF33466345A8BF634622F81540CA
:102B00002EF8153002358DE70080FFFF2DE9F74FD5
:102B10008946019240F20A38002240F23F4C45F6C5
:102B2000F52143F2672440F2B916DE27DFF894E07E
:102B3000234D09F1040A019B9A4202D103B0BDE87A
:102B4000F08F03680C3008FB03FB50F8083C0BF5D2
:102B5000804B0EFB03BB50F8043C0CFB03BB03682B
:102B600001FB03BB436804FB03BB836805FB03BB9A
:102B7000C36806FB03BB036907FB03B349F83230A4
:102B800050F8083C07FB03FB50F8043C0BF5804B66
:102B900006FB03BB036805FB03BB436804FB03BBE5
:102BA000836801FB03BBC3680CFB03BB03690EFB1B
:102BB00003BB436908FB03B34AF832300132BAE77A
:102BC00039F1FFFFFEF7FFFF2DE9F04F91B00093C1
:102BD00002F004030293C2F3C203013384070546E3
:102BE0000E46DDF868800392059340F0BB81041D1A
:102BF00030B1072909D86FF01B0011B0BDE8F08F84
:102C000001F007063444C6F10806009B4FF00009A6
:102C10004FF0040A591E4FF0FF334F460193CB4645
:102C20005346CDF810900DB100982060059800280B
:102C300000F3E8809848009A824203D39748824282
:102C4000C0F0E080039AA4EB050E92074FEA9E00C5
:102C500000F103810F2F00F2B180002D00F00581FB
:102C600007F140020DEB020C019A0CF8200C0CF855
:102C7000102C049801300490E7E07A285DD84B28A6
:102C80000ED8472859D829282DD8252852D054D8CD
:102C900020287AD02338D0F1000B4BEB000B74E0E6
:102CA0004C382E2849D8DFE800F07048484848489A
:102CB0004848484848484B48484848484848485980
:102CC000484B4B595959704B6D487048184B184830
:102CD00048827F4B48484B487F0000204FF0000B54
:102CE0004FF0040A38E001222A38C0B202FA00F09C
:102CF00010EA0E0F49D110F0625C2FD110EA020BDE
:102D000043D06046013C5444B4FBFAF40AFB04F49B
:102D1000002D61D0A3EB050CA444B4453FF66BAF86
:102D2000002868D1042B47D158F8043B23600423C2
:102D300004342AE0019A013A01924FF0000B24E09A
:102D400011F8010C6C2834D1002011F8023C8346A4
:102D50006C2BC5D14FF0080A5346D3E708F107089A
:102D600028F00708073424F00704F8E802AB35B16F
:102D700006982044B0423FF63EAFC4E900AB4FF0A6
:102D8000000B08344FF0080A534611F8010F0028D1
:102D900078D0BBF1000F7FF470AF2528F5D14FF04C
:102DA000010B019B013301934FF0040AECE75846F5
:102DB00094E700208346A5E7082B02D06FF01500AA
:102DC0001BE708F1070828F00708B8EC027B84ED40
:102DD000007B08230834D8E768B9042B02D108F136
:102DE0000408A4E7082BE9D108F1070828F0070830
:102DF00008F10808EDE705980138059058F8040B2C
:102E0000009010E7039A900720D54FF0010CA4EB37
:102E1000050E4FEA9E00BEF5007FCFD20F2FCDD812
:102E2000F5B107F140020DEB020E019AC0B20EF8A7
:102E3000200C0EF8102CBCF1000F3FF41AAF60F01C
:102E40007F000EF8200C09F101090137C5F10802D5
:102E50004FF6DA7E0434069297E74FF0000CDAE77B
:102E6000BCF1000F01D00136EFE7029A0236002ACA
:102E7000EBD10098CDE90631FDF7E8F9DDE906313F
:102E80000644E2E7631BB3F5806F97D245B9A6F11C
:102E90000804E018B1E600BF0C00030064C10300A1
:102EA000029A9B0828602B709DF81030C2B1EB701D
:102EB00085F80290B9F1000F05D0002208A8C5F1ED
:102EC000010C97420ED14FF0000AC5F101030DF13C
:102ED000200801930DF1300B574512D1601B8CE691
:102EE0006B70E5E710F8013B190608D50CEB040EF2
:102EF000B64503F07F033FF67EAE04F8013B013296
:102F0000DFE7B9F1000F03D098F90020002A17DBA2
:102F1000029BD3B11AF80B2004F8012B0022019B6D
:102F200018191044B0423FF666AE98F800000099B8
:102F300004F8010B204603922CF032FE039A14444D
:102F40000AF1010A08F10108C6E798F8002055F8CF
:102F500022300093029B009845F82230FDF776F965
:102F6000421CDCE76FF00D0047E600BF2DE9F04F93
:102F700097B000AFD7F880B03B62CBF3C0030446F4
:102F8000894690F802A0FA62BB6141B945780078A1
:102F90000AEB800020444D4517D8A0EB0409E378E4
:102FA000FB61BAF1000F02D01BF0010F16D1FB69D3
:102FB00053BBFB6A1BB1494620463A6A98474D46C7
:102FC00028465C37BD46BDE8F08F461C3046FDF70D
:102FD0003DF90130304409F10109DCE762682378EA
:102FE0007A62FA6A9900796104EB8301002A40F061
:102FF00001810E464FF000084D4601EB0A094E458F
:103000004CD101EB0A0610E01BF0020FD1D023785F
:103010009A007A61626804EB83017A62FA6A002A94
:1030200077D14D46904601EB0A061BF0050F0CBF09
:1030300002230123FB62FB6906EB430A0BF0020348
:10304000BB625645BCD016F8021B16F8013C54F87A
:103050002390994B994502D3984B994536D3BB6938
:10306000002B40D0786A28F024FF00283BD0E946A6
:103070008AB06A46924B53617B6AC2E906314FF4CB
:10308000007313848F4B42F8103F00234FF412510A
:103090008D4801F0B7F8023DCD46D2E716F8013B66
:1030A000F96254F82300FDF7D1F8D7F88430F96AB3
:1030B00001304BB1D7F8883098453EBFD7F88430FF
:1030C00023F8180008F10108054498E7BB6923B10B
:1030D000786A28F0EEFE0028C9D11BF0010F05D157
:1030E000FB6AED1AADE7BB6A002BAAD04846FDF794
:1030F000ADF8D7F8843053B1D7F8883098453FBF42
:10310000D7F88420431C22F8183008F10108054440
:1031100097E7BAF1000F73D01BF0040673D0D046C6
:10312000002607F1480052463B61B9622CF038FD99
:10313000B96A3B6901EB0A02BA62FA69F96952009D
:10314000FA60BA6A02EB41023A610BF00202BA601D
:103150003A69B96A8A4258D162781BF0020F18BFE7
:1031600000217A6208BF4FEA5801B2181BF0010F24
:10317000D2B240F09F801BF0040F14BF40460020E5
:10318000BB616270A070E17020463A6A7969FB6A9F
:103190009847051EFFF614AFBB69414623707B6A52
:1031A0003A6A6370FB6984F802A0E37007F1480093
:1031B000FB6A9847B0F10008C0F2BA807B69A9EBBE
:1031C0000A01C91AFB683A6AC91AD7E90A0398477B
:1031D0000028C0F2AF804FF0000BA84408EB0005B8
:1031E00007F1380AB34571D300213A6A0846FB6AF1
:1031F0009847E5E656464FF0000807F1380092E799
:103200005646D04696E7B04694E7BA6A12F8021BD3
:1032100012F8015CBA6254F82500274A904202D3A2
:10322000264A90421ED3BA6932B1786A7B6028F090
:1032300040FE7B6800288BD1BA6802BB08F12802E7
:1032400007F1300C08F10100944407F1580208F12D
:10325000020852FA80F00CF8101C5FFA88F800F8A7
:10326000105C75E7BA693AB1786A7B6028F021FE94
:103270007B6800287FF46CAF1BF0010F09D006F1CA
:10328000280207F13000711C161806F8205CCEB237
:103290005EE71BF0040F3FF45BAF08F1280207F173
:1032A000300008F1010102EB000808F8105C5FFA39
:1032B00081F84DE7002063E70C00030064C10300C0
:1032C000A68A030004000001AC0503001BF80A30C5
:1032D00054F8239087F83730D7F884302BB3D7F8D9
:1032E00088309B4521D2D7F8843033F81B800121E8
:1032F0003A6AFB6A07F13700984700281ADB054451
:10330000B8F1000F06D14846FCF7A0FF00F1010814
:103310001FFA88F8414648463A6AFB6A98470028EF
:1033200008DB05440BF1010B5CE74FF00008DEE71A
:10333000454645E6054643E6014B1860704700BF29
:10334000DC01002080B505460E46174698460CF075
:1033500015FC03462CF050FE0446DFF81890424658
:1033600049F8003039463046A84754F8090002F0C1
:1033700049F800BF080000002DE9F047058B04461E
:103380002807904611D4022905F0070540F0CC80AB
:10339000204629F03CF878B10138218B042811D857
:1033A000DFE800F0C2106D85950001290CBF45F0E3
:1033B000100545F02005258388F31188BFF36F8F32
:1033C000BDE8F08701F0070AAA4500F0A5800027B4
:1033D000B9463E46A368002B00F0BC8041F00801CE
:1033E000218388F31188BFF36F8FA168002900F053
:1033F000BA800D68002900F0B68033465246204658
:10340000D1F80480C047002D76D02B6829461D4690
:10341000F0E701F007035A1F012A1BD8002221F010
:103420000701062B276889B2C4E9002209D13B466F
:1034300003E0628B013262831B68002BF9D141F0FB
:1034400002012046218328F0E2FF00287AD041F0D3
:10345000200176E0042B0AD121F0070189B2204631
:10346000218328F0D4FF10B141F020012183218B6A
:1034700001F0070AAA454FD00027B946AAE72369F9
:1034800021F0070141F00601062DD3F800902183B9
:103490002DD1B9F1000F3FD041F00801218388F30D
:1034A0001188BFF36F8F20463949C84729E021F0C2
:1034B0000701236941F0040189B2042DD3F8049077
:1034C0002183E6D000274FF0040A3E4682E721F030
:1034D0000701236941F0050189B2052DD3F8089051
:1034E0002183D6D000274FF0050A3E4672E7002719
:1034F0004FF0060A3E466DE72B4687E7B9F1000F0D
:10350000D1D1EFF31188202383F31288BFF36F8F9B
:10351000238B23F008032383258BEA062ED525F081
:103520001003238305F007056669218B002EBFF683
:1035300070AF00232768C4E9003321F0070141F090
:1035400001012183218B4FF0000901F0070AAA45F0
:103550007FF440AF002F9CD041F00801218388F315
:103560001188BFF36F8F002FC8D03D6839463346AE
:103570005246204628F077FF2F46F4E7AB067FF54A
:103580001BAF25F02003238305F0070500E700BFEC
:1035900093C4020010B530B90B480C4929F043F828
:1035A0006FF0150010BD836833B90748084929F04A
:1035B0003AF86FF00400F5E71B6813B1BDE810405E
:1035C00018471846EEE700BFD40503005A8B0300E6
:1035D0006B8B030010B530B90B480C4929F023F868
:1035E0006FF0150010BD836833B90748084929F00A
:1035F0001AF86FF00400F5E75B6813B1BDE81040FE
:1036000018471846EEE700BFD40503005A8B0300A5
:103610006B8B030070B508B101B132B90B480C498E
:1036200029F001F86FF0150070BD84680CB1E568F1
:1036300035B90648074928F0F6FF6FF00400F3E7B4
:1036400041F8040BE368BDE870401847D405030057
:10365000898B03006B8B030010B5044630B910480A
:10366000104928F0E0FF6FF0150010BD006830B978
:103670000B480D4928F0D7FF6FF00100F5E783688C
:103680000BB11B6933B90648084928F0CCFF6FF02D
:103690000400EAE7616898470028E6D12060E4E783
:1036A000D4050300B58B0300C68B03006B8B0300AE
:1036B00070B51346044630B91048114928F0B3FFDD
:1036C0006FF0150070BD006830B90C480D4928F046
:1036D000AAFF6FF00100F5E782680AB1956835B975
:1036E0000648094928F09FFF6FF00400EAE70A4600
:1036F000AC466168BDE87040604700BFD405030078
:10370000B58B0300C68B03006B8B0300034A136861
:103710000BB9526813600020704700BFE001002021
:1037200030B50C460E4985B00291D0F8D41105464B
:10373000CDE9003100F1F0014FF0FF3320460AF0EF
:10374000FDFE50B9012384F86C30D5F8D03123B197
:10375000204605B0BDE83040184705B030BD00BF79
:103760001FC7020038B50C461146054628F0D9FFA0
:10377000034638B92846044928F0D3FF0346002001
:10378000236038BD0120FBE716B703002DE9F04F99
:1037900001238146056946688FB005F57B77D7E838
:1037A000EF2F002A03D1C7E8E13F0029F7D10CBF72
:1037B0001A46002240F0BB80B368B16A05F5F8787C
:1037C0001C1F104629F034F8844279D8013A00F0E1
:1037D000A880B2FA82F24FF00044D44072682046CA
:1037E000073222F00302C5F83C22B16A29F020F822
:1037F000C5F84002B36A40466343033323F0030332
:1038000002EB4302230103EB4403093323F00303D8
:1038100003EBC403C5F834221A440832C5F8302239
:103820007368C5F83842C5F82C32424BC5E9AD6320
:10383000316800F0F1F9044600283FD1D9F810B002
:10384000D9F804A0D9F800300BF534790590049329
:103850004846DAE90734012B08BF103C2BF0F8FE8C
:10386000DAF82400344904AB009301EB80212346AD
:1038700048464FF480620BF099FD2021DAF824309D
:103880002E4A06A825F0EEFB06A948460BF03AFEA4
:103890002B490BF530702BF094FEDAE905018368B3
:1038A0005C684CB15B46274AA047044630B9DAE968
:1038B000050183681B692BB96FF05704002129E0CB
:1038C00001327EE70122984704460028F6D11E4BBC
:1038D0002846C5F8D0311D4BC5F8D4311C4B039395
:1038E000D5F840320293D5F83C32CDE9008305F596
:1038F0001173B26AD5F8E81300F056F904460028AF
:10390000DCD105F1F0000AF0BFFE0028C5F8F00395
:103910000ADB0221384628F038FF20460FB0BDE808
:10392000F08F6FF00B04C9E76FF01504C6E76FF076
:103930007704F2E775C7020068810020EB8B030073
:103940005BC702004FC702005539000007C90200DB
:10395000BBC7020013B5044640B100230122CDE9E4
:103960000032074BD0E909120AF0BCFD236F1B6837
:1039700023B1606F02B0BDE81040184702B010BD1F
:1039800016B7030013B504460846216901F57B719B
:10399000D1E8AF1F022910D193B1A0B10121CDE927
:1039A00000311346D0E909120AF09CFD074B9842FA
:1039B00008BF6FF00B0002B010BD6FF00F00FAE708
:1039C0006FF04C00F7E76FF00100F4E72EF8FFFF0F
:1039D0002DE9F34789461546066906F57B73D3E85A
:1039E000AF3F022B64D1136823B96FF0150002B00A
:1039F000BDE8F0871B78002BF7D0D6F8E8A3BAF122
:103A0000000F36D106F5EC774FF0FF324FF0FF3361
:103A100038460BF017FA30462A6801A9FFF7A2FED4
:103A2000019C80461CB9384628F0ADFEDDE705F163
:103A300008032367AB6984F86CA06367646460B1B2
:103A4000384628F0A0FE21463046A36E2A68FFF7CC
:103A500067FE0020C9F80040C9E71F22296804F169
:103A600048002CF0EEF8384684F8678028F08BFE8A
:103A7000EFE73046104928F054FE04460028B4D041
:103A8000002705F108030367AB6980F86C70436792
:103A900040641F22296848302CF0D3F822460121C7
:103AA000304684F8677000F061F80028D1D09CE7B8
:103AB0006FF00F009BE700BF16B7030010B50C4670
:103AC000006900F57B73D3E8AF3F022B0FD189B1BA
:103AD0000A4900F530702BF0A0FD20462BF09BF832
:103AE0007822002120462CF082F8002010BD6FF0D3
:103AF0000F00FBE76FF00100F8E700BF4030002047
:103B00002DE9F04F05460E4690460027D0F8C4A098
:103B100085B0AAF5BE7421463046FCF785FBE0B9B6
:103B2000114BA4F1480B0293DAF810303246CDE97C
:103B3000008329464FF0FF335846AAF5E2790AF090
:103B4000FDFC60B97823012203FB079383F86C2006
:103B5000DAF80C300BB158469847783417B105B0F5
:103B6000BDE8F08F0127D6E735C902001FB514461E
:103B700090B18AB1012912D10A4B00F1F0010293F0
:103B8000D0F8D431483201934FF0FF3320460093F0
:103B90000AF0D4FC04B010BD6FF01500FAE7002065
:103BA000F8E700BF35C902002DE9F04387B00E46A3
:103BB000DDE90E811446DDE910251F4630B329B337
:103BC000DFF850C000F1F009002D08BF65469EB92E
:103BD000CDE9034400F5E274204605962BF0B3FAD4
:103BE00003ABCDE900432A463B46414648460AF02E
:103BF000C3FD07B0BDE8F083002241460E9248465F
:103C00002A4607B0BDE8F0430AF006BF6FF0150082
:103C1000EFE700BF013B0000F0B504462B4A87B038
:103C200004AB0E4692E8030083E80300002C49D061
:103C300018460AF05DFB0546B0B94FF0FF33E16C62
:103C400004F15407A163CDE9010000933846236DC8
:103C500004F138022AF08FFCA06C28F09AFEC4F818
:103C6000BC0020B96FF00B05284607B0F0BDA06C72
:103C700028F08FFEC4F8C0000028F3D0236CD4F8DD
:103C8000BC10C4F890300423C4F89430C4F8AC30AD
:103C90000223E3620E4BB4F84820C4F88C10616C28
:103CA000236204F18C03C4F8A070A4F89820C4F82F
:103CB000B870C4F8A810A4F8B020C4F8A400A66195
:103CC0002363D1E76FF01505CEE700BFB806030008
:103CD0006C0A03002DE9F047044607464FF001093E
:103CE000DFF8508014B93846BDE8F08794FAA4F59F
:103CF000B5FA85F509FA05F32E0108EB05156FEA0B
:103D0000030A24EA03042B7B002BEBD058F806307F
:103D10001B694BB94644736804222846196807EAB0
:103D20000A0728F09EFEDDE7284698470028D9D1EB
:103D3000F0E700BF3C06030030B5002289B00F4910
:103D40000F482BF033FE002200230024CDE9062388
:103D50000E230C4DCDE903344FF440722846CDE9D3
:103D60000144094B094900940BF042FC08492846DC
:103D70000BF0C8FB204609B030BD00BF953D0000E8
:103D8000F01F0020F00E0020A940000068850020F0
:103D9000F78B030001480BF04FB900BF240500204A
:103DA0002DE9F047804621480F4628F03EFE0646A2
:103DB000002833D000252846BDE8F087237B83B157
:103DC0002368DB680BB120469847636883F8069048
:103DD00023681B69D3B9636804222046196828F058
:103DE00040FE013610345445E8D3B8F1000FE2D05C
:103DF000002DDFD02846FFF76DFF0546002FF7D0D6
:103E000000214FF4A4702BF0FDFCF1E72046984709
:103E10000028E0D009FA06F31D43E2E705464FF01B
:103E20000109034CDFF80CA0DDE700BF783000206B
:103E30003C0603004C060300014B53F8200070477A
:103E4000AC0A030008B5034608462BB1044A1360C8
:103E500000F070FC002008BD6FF01500FBE700BF0C
:103E60000C02002010B5044C237813B903480BF062
:103E7000E3F80123237010BDBC5500202405002069
:103E800010B50446094828F0D0FD3CB1084BD3E8F2
:103E9000EF1F0139C3E8E21F002AF8D105482BF0D3
:103EA00091FDBDE8104004480BF0C6B8703000200A
:103EB00074300020F01F002024050020002001465F
:103EC000034BD3E8EF0FC3E8E21F002AF9D1704794
:103ED0007030002070B5FFF7F1FF0546074C084E23
:103EE000B44200D370BD63685B792BB123685B6813
:103EF00013B12946204698471034F1E73C060300E9
:103F00004C06030010B5044C0449204628F018F96B
:103F1000034B1C6010BD00BF0C040020980A030076
:103F20006830002000230D4A10B513700C4A4FF47E
:103F3000004113600B4A0C481360FFF783FFFFF743
:103F4000E1FF0A4B0A4918468B4200D310BD1A1AEA
:103F50005C681211013222711033F5E7BD55002063
:103F6000703000207430002027CA02003C06030095
:103F70004C060300014600220023014828F001B945
:103F80000C040020014828F09AB900BF0C0400205E
:103F9000024B0146186828F0E6B900BF68300020DF
:103FA000014828F01BBA00BF0C04002070B5274B55
:103FB0001878002849D0FFF7E5FF0546002841D1D1
:103FC000234B244C1B68002B19DD2BF0A8FC4FF46D
:103FD0007A72A0FB020302FB0131C30B43EA4143A7
:103FE000D4E900209B1A40F2E9324FEAD13161EB6B
:103FF0000001934271F1000101D3FFF76BFFD4E997
:10400000003213F57A7342F10002C4E90032BDE8D0
:104010007040FFF7C5BF63685B7923B12368294609
:1040200020461B6898471034B442F4D32846FFF763
:10403000AFFF094BD3E8EF1F0139C3E8E21F002AA5
:10404000BED0F7E7054C064EEEE770BDBC5500202C
:1040500070300020E81F0020743000203C06030070
:104060004C06030070B50D4D297861B90120FFF7AA
:1040700097FE0B4C0B4EB44206D3FFF797FF002878
:10408000FBD101232B7070BD63685B791BB1236882
:1040900020469B6898471034EDE700BFBD550020CF
:1040A0003C0603004C06030000212DE9F0470846BA
:1040B000FFF776FE044658B340F267684FF00009F8
:1040C0002BF09AFF1B4B1C4A1B58136033B11B4B40
:1040D0001B68092B02DD1A480AF0AEFF0025194FB4
:1040E000DFF85CA044B12046FFF7F4FD044618B9A0
:1040F0004FF0FF384FF0FF39FFF758FF064628B959
:10410000B5B942464B4650460AF0D0FF3546E9E77E
:104110004FF0FF384FF0FF39D2E72B689B691BB196
:1041200000222846114698471035BD42F5D3E8E7EE
:10413000054DFAE7080000006C30002074300020C4
:10414000240500204C0603003C06030013B5184864
:1041500028F06BFC174B1B7873B1EFF3118420230D
:1041600083F31288BFF36F8FFFF720FF84F311886A
:10417000BFF36F8F02B010BD0F4B1B68002BF9D03F
:1041800050B9002200230D48CDE900234FF400422E
:1041900000230CF00DF8EDE70928EBD107482BF0D0
:1041A00011FC074802B0BDE810400AF045BF00BF4F
:1041B00074300020BD5500206C300020F01F00201E
:1041C0002405002010B5064B04461B68984721467D
:1041D000A060044828F054F8BDE81040FFF7B6BFCF
:1041E0000C0200200C040020044A054B9B1AB1EB82
:1041F000D30F34BF52F83100002070472C05030064
:104200003C0603002DE9F04F8FB0C1F34A2804AFFC
:104210000D469146B8607B600C0DB8F1000F63D07D
:1042200000264FF0040B4FF00A0A07F11403C7F8F9
:104230000C80C7E907667E620193CDF808B0CDF81F
:1042400000A007F11C0332464846F968FEF78EFECF
:10425000B0F5006F03461CD36C468AB0D9F8041041
:1042600004AB26481A46C3E9050140F2FF71D96143
:104270004FF400711984224B42F8103F4FF4125151
:1042800033462048FFF7BEFFA5462C37BD46BDE8A4
:10429000F08FC0F30A0804F11700184420F007005B
:1042A00080083B60FFF766FE68F35325044690B133
:1042B0003B6800F11001C7E9083607F11403F96102
:1042C000CDE900A3CDF808B048460F4AF96807F1D8
:1042D0001C03FEF74BFE68F353252A4620467B68F5
:1042E000B96828F0DDFBD0E704F1170020F00700E3
:1042F0008008FFF73FFE0446EDE700BF0C8C03008B
:1043000004000001DC05030075CA02002DE9F04F2E
:1043100087B00446DDE9105ADDE9127993469846E4
:104320000391BFB13B46524610210020CDF80090CA
:10433000CDF81490FEF748FCB0F5006F06460AD39E
:1043400040F2FF730221174A174807B0BDE8F04F4B
:1043500028F0FFBB3E4605F11700304420F007006F
:104360008008FFF707FE04F007040BF0070BE400DA
:1043700044EA8B1444EA462444EA0554054640B115
:104380003FB13B4652463146CDF800901030FEF723
:104390001BFC434622462846039907B0BDE8F04F70
:1043A00028F07EBB4B8C0300DC050300406820B185
:1043B000034BC01A40F3CF0070474FF0FF307047F7
:1043C0002C0503000EB403B503AB53F8042B0146D0
:1043D0000448019301F0AEFB02B05DF804EB03B0BA
:1043E000704700BFB5CB0200CA0605D48B064CBF90
:1043F00002490349FFF7E6BF704700BF15B7030046
:1044000014B703002DE9F04F8BB09B46169B9DF827
:1044100054A00693179B04460593189B0D4690469F
:10442000199E0493BAF1000F00F09E8006F001037C
:10443000089306F00803079306F48073099328F0A5
:104440000EFB06F00209024600283BD020468F49A9
:10445000FFF7B8FF0746B9F1000F08D016F0440F78
:1044600032D12A4620468A49FFF7ACFF0744089B11
:1044700053B1884B204653F82A20874B8749002A9E
:1044800008BF1A46FFF79EFF099B002B48D0079BE9
:10449000002B62D1B8F1000F64D04246204680491B
:1044A000FFF790FF0546069B3D44002B6BD1049B14
:1044B000002B71D1F30700F1E28031462046FFF76F
:1044C00093FFD6E00746C6E7764B18680028CDD0A4
:1044D000754B4FF47A791B684FF03C0CB5FBF3F544
:1044E000B5FBF0F14FF4616300FB115509FB05F5D5
:1044F000B1FBF3F2B5FBF0FE03FB121100FB1E55FE
:10450000B1FBFCF309FB05F5B5FBF0F50CFB131152
:1045100020460091CDE901E56449FFF753FFA5E787
:10452000079BEBB1624B204653F82A206149FFF705
:1045300049FF0546B8F1000F05D0424620465849CC
:10454000FFF740FF0544BBF1000FACD05A462046B0
:104550005949FFF737FF0544A5E74FF0000BE1E7A6
:10456000079DE7E745469EE7BBF1010F069B06D195
:10457000002B64D1049B002B7BD000250CE0002B8A
:10458000F8D04E485CE04E48069B22464D4927F045
:104590005FFC049B002B68D0DFF83881DFF838918E
:1045A000049F3146102F204628BF10274FF0000BE4
:1045B000FFF71AFF5D4545DC059B494620461A7802
:1045C000FFF700FF4FF0010B1BF0070F03D141462F
:1045D0002046FFF7F7FE5F453BD9059B494620463D
:1045E00013F80B20FFF7EEFE0BF1010BBBF1100FE0
:1045F000EAD14FF0000B20463349FFF7E3FE5A465D
:10460000059B20469A5CA2F120015F2928BF2E223B
:104610002E49FFF7D7FE0BF1010BBBF1100F1DD098
:104620001BF0070F03D141462046FFF7CBFE5F4545
:104630005A46E5D841462046FFF7C4FEEBE720483E
:104640005546A1E741462046FFF7BCFE0BF1010BA2
:10465000B0E720461E49FFF7B5FEC5E7059B3B4482
:104660000593049BDB1B04939AD1BAF1000F7FF4EE
:1046700021AF20460BB0BDE8F04F28F08EBA20469F
:10468000054A0649FFF79EFE17E700BF888C030026
:104690008C8C0300BC0A0300838C0300E3970300A7
:1046A000B18C0300803000207C300020958C03000A
:1046B000D00A0300B58C0300BB8C0300E3CB0200DF
:1046C000B5CB0200355B0000C68C0300C88C03002C
:1046D000DEB60300E0B60300C08C030042F20F73A5
:1046E00073B58B4228BF0B46056804460521684612
:1046F0000D4A24F0B7FC0646636828460B225B6827
:104700000A4928F03CFA63683246694628465B68E5
:1047100028F035FA63681B2228465B68044928F0B4
:104720002EFA02B070BD00BF79950300E78C03003C
:10473000CB8C030000210123064A904206D8064A8A
:1047400001B901231360054B18607047012140082F
:104750005B00F2E740420F007C30002080300020F8
:10476000F8B50D460446064F4618B44201D1284616
:10477000F8BD14F8011BBB6801485B689847F4E773
:104780007C010300014B036000207047180B0300FD
:1047900008B5044827F0B6FBBDE80840024827F0FA
:1047A000B1BB00BF2D8D0300628D0300014821F0D5
:1047B00033BF00BF180B030038B5044618B90F4BC0
:1047C0000F485B6898476168B1F5683F10D0B1F554
:1047D000680F0DD00B4DA9420AD011F46861206812
:1047E00007D0014608482AF067FD00232360656072
:1047F00038BD14222BF0FBF9F9E700BF8803002035
:10480000908D03002C5F5CA9B035002008B560B323
:104810004368B3F5683F0ED0B3F5680F18D0144A5B
:10482000934220D000684FF0FF324FF0FF330AF080
:1048300009FB58B115E001220368D3E8EF1F0029F6
:1048400003D1C3E8E02F0028F7D10AD1002008BD2A
:104850000368084A1B7803F5807352F82330002B55
:10486000F4D00548F3E70548F1E76FF4E040EEE7E0
:104870002C5F5CA900000350E98FFFFFEA8FFFFF68
:1048800008B520B34368B3F5683F09D0B3F5680FA6
:1048900013D0114A93421DD000680AF04BFB14E07C
:1048A00000220368D3E8EF1F012903D1C3E8E02FFA
:1048B0000028F7D109D0094808BD00210368084A3B
:1048C0001B7803F5807342F823100020F4E76FF49F
:1048D000E040F1E70348EFE72C5F5CA9E98FFFFFB9
:1048E00000000350EA8FFFFF10B5044618B91D4BB6
:1048F0001D485B6898476368B3F5683F2FD0B3F5F0
:10490000680F2CD0194A934219D1236803BB4FF08A
:10491000FF324FF0FF33214615480AF065FA08B917
:1049200023681BB90F4B13485B689847142200217A
:1049300020682BF05CF94FF46863636008E0B3F51E
:10494000683F0DD83A2B03D040F6BA629342DED1CD
:1049500020682AF0FCFC636843F03A03636010BDF2
:10496000054AF3E788030020908D03002C5F5CA9C3
:10497000B0350020B68D03003A00003A08B506496C
:104980004023142205482AF089FCBDE80840044968
:10499000044821F005BF00BFB0300020B035002032
:1049A000200B0300340B030010B5244C88B024887E
:1049B0008C420AD9224A009123460121214828F03D
:1049C000D2F86FF0150008B010BD1F4C24789C423F
:1049D00005D801211D4A1B4828F0B2F8F1E7002450
:1049E0000490CDF81640CDF81A40ADF81E40ADF851
:1049F00014100AB9164A126806920B9A0292BDF870
:104A00002820ADF80C200022ADF80E20114A52F8F3
:104A1000230038B90B4801210F4A28F05FF94FF005
:104A2000FF30D0E702AA04A90BF0D4FE0028CAD1B7
:104A30000C9BBDF80E201A80C5E700BF5055002022
:104A4000E38D03002C060300C0550020218E0300D7
:104A5000D8350020D4350020518E030030B51A4DD2
:104A600087B02D789D4208D818480121184A28F0AF
:104A700067F86FF0150007B030BDADF810200022C8
:104A8000ADF80810ADF812209DF83010ADF81420E4
:104A9000104A01908DF80A1052F823000A990391E8
:104AA00038B90A4801210C4A28F018F94FF0FF30B4
:104AB000E1E703AA01A916F0E3FE0028DBD10B9B76
:104AC000BDF812201A80D6E7BF5500202C0603003F
:104AD000218E0300CC350020728E0300134607B5EB
:104AE00041F64C5293420DD042F21072934212D0D2
:104AF0000A4801210A4A28F0F1F86FF0150003B0C6
:104B00005DF804FB0122CDE900013F2100230846A6
:104B100015F0FEFDF3E70022F5E700BF2C060300C9
:104B2000938E03002DE9F04F1C4641F64C5385B09F
:104B30009A4206460F469DF838B00ED042F21073E6
:104B40009A4213D0134601212F4A304828F0C6F864
:104B50006FF0150005B0BDE8F08F4FF0010944B9C2
:104B600001212B4A294827F0EBFFF1E74FF000091C
:104B7000F5E745F6C0539C421DD82346254A02213D
:104B8000224828F0ABF80DF10C0A53464A46394644
:104B900030461DF0A9FD204B18800F9B188080B176
:104BA0000025DFF890805D4513D11C4B03981C60F5
:104BB0001B4B1D70CEE71B4B9C42E4D923461A4A7F
:104BC000DDE712480121194A27F0BAFF4FF0FF3004
:104BD000C0E7D8F8003043B10C482B460121144AF5
:104BE00028F07CF86FF07700B4E74A463946304643
:104BF000CDE9003A0BF072FB48F8040B039801353D
:104C00000028D0D0A6E700BF938E03002C06030037
:104C1000AD8E0300C28E030050550020D835002011
:104C2000C0550020FF700200E78E03000D8F0300C7
:104C3000378F0300D43500202DE9FF471D4641F68C
:104C40004C539A42074688460ED042F210739A425D
:104C500016D0134618480121184A28F03FF86FF083
:104C6000150004B0BDE8F0874FF0010A0024144E8F
:104C70000DF10C09AC4206D1124B00201C70F0E77C
:104C80004FF0000AF2E7336843B10B482346012195
:104C90000D4A28F023F86FF07700E2E752464146CC
:104CA0003846CDE9003916F041FC46F8040B03986C
:104CB00001340028DED0D4E72C060300938E0300D5
:104CC000CC350020BF5500205A8F030038B504466C
:104CD00000F098FFB0B100220D4951F8323001EBDD
:104CE000C20583B941F832001A466C60094C54F889
:104CF00033100133322B0A44F9D1074B1968914222
:104D000038BF1A6038BD0132322AE6D128F060F887
:104D1000E0350020E4350020DC35002010B50446E5
:104D200000F08AFF5CB10023084A52F8331002EB0E
:104D3000C300A14204D1002142F83310416010BDEC
:104D40000133322BF1D128F043F800BFE0350020C9
:104D50002DE9F84F80460C4600AF002965D0D1E917
:104D60000012E9468AB0A3686D464FF0050A2E4648
:104D70003748C5E90723C5E9050146F810AF002308
:104D800032464FF421513348FFF73CFAD4E903127D
:104D9000CD466369AD463048C5E90723C5E905013D
:104DA000C5F810A0002332464FF421512948FFF7DF
:104DB00029FACD46E3690121284A264827F0C9FE91
:104DC000264600254FF00A0ADFF8A0B0E946D6E9EA
:104DD00008E0D6E90A138EB06A46C2F81CE005F175
:104DE000010EC2E908E0A81CC2E90A01E91CC2E9F7
:104DF00005B5C2E90C1342F810AF002345F240019B
:104E000014480435FFF7FEF9102DCD4606F11006C3
:104E1000DCD1236E0121124A0E4827F09AFEA369C5
:104E20000121104A0B4827F094FEB8F1010F07D179
:104E3000EFF305830C4A41460648103B27F089FEF4
:104E40002146404609F00EFEBD46BDE8F88F00BF82
:104E50008A8F03001C060300B98F0300E88F03004C
:104E60003A9003004990030077900300F78F030006
:104E700030BFFFF7FDBF00BF2DE9F04105460B4EE7
:104E8000DFF83080324606EB0807CC1B2046084985
:104E90002AF086FEA01942460021083C2AF0A7FE0F
:104EA000C5F8A84007F10800BDE8F0810000000047
:104EB0009006030008000000054B9A699B689A421F
:104EC0001FBF044A536843F080535360704700BFCC
:104ED000A83E002000ED00E070B52A4C06460D46C5
:104EE00029482A4927F009FFA36ADB0647D5264847
:104EF000274927F002FF1120A36A1C0704D5224886
:104F0000244927F0FAFE12201E4CA36A990712D5F5
:104F100021491D4827F0F1FE636BA26A120609D5EC
:104F200001211E4A184827F014FE1EB1A36A23F07F
:104F30008003A3621320134CA36ADE0704D5124832
:104F4000174927F0DAFE1420A36A9C0604D50E4800
:104F5000144927F0D2FE15200A4B9A6AD10658BF91
:104F60009A6A9A6A920642BF5A6A22F400525A62B8
:104F70009A6A42F0FF029A6200232B7070BD1020E3
:104F8000BAE700BF00ED00E01C0603008A900300B2
:104F9000A0900300D3900300E6900300FE9003006E
:104FA000149103003391030010B5244C2449254883
:104FB00027F0A3FEA36A99013ED52248224927F093
:104FC0009CFE1E20A36ADA0104D51E481F4927F063
:104FD00094FE1F20194CA36ADB0204D519481C4912
:104FE00027F08BFE0220A36A1C0304D5154819493B
:104FF00027F083FE2120114CA36A590304D51148E0
:10500000154927F07AFE2220A36A9A0304D50D4899
:10501000124927F072FE2320084CA36ADB0304D553
:1050200008480F4927F069FE2420A36A6FEA03436A
:105030006FEA1343A36210BD1D20C3E700ED00E03B
:10504000629103001C0603007A9103008D91030016
:10505000A7910300D1910300EF9103001492030084
:105060002E92030070B5294C06460D462848294962
:1050700027F043FEA36AD9043CD52548264927F0EA
:105080003CFE1720A36A1A0504D52148234927F0BE
:1050900034FE18201D4CA36A9B0512D51C482049DC
:1050A00027F02BFEA36BA26A100409D501211D4A2B
:1050B000174827F04EFD1EB1A36A23F40043A362F4
:1050C0001920124CA36A590504D51148164927F036
:1050D00014FE1A20A36ADA050ED50D48134927F0ED
:1050E0000CFE1B20094A936A43F47F43936200231A
:1050F0002B7070BD1620C5E7A36A9B04F2D5044847
:105100000B4927F0FAFD1C20ECE700BF00ED00E0A2
:105110001C060300599203006F920300D390030012
:105120008092030099920300AE920300C99203009B
:10513000339103002DE9F0419CB0624B0546D3F852
:105140000480002600AFC8F3080486F31188BFF37B
:105150006F8F02F07F43B3F17F4F07D102F00C0352
:10516000082B12D15849594827F0C7FD002635466B
:105170000023FB71E31E092B00F28380DFE803F0BC
:105180000A797C7581818181817F10074CBF0D4632
:105190000126EDE74E494D4827F0AFFD0023494C6D
:1051A000FB71E36A9A0705D54A49484827F0A5FDEF
:1051B000002431E0E36A002B01DA4749F5E7E36AAE
:1051C0005B00F5D54549414827F097FD6369AA6919
:1051D00043F480736361BFF34F8FBFF36F8F6369D5
:1051E00032F8022C23F480736361BFF34F8FBFF357
:1051F0006F8F4DF602739A4207D0A36ADBB23BB3BE
:105200000120F91DFFF768FE31E02B680121344AC7
:105210002E4827F09EFC2C68FB79ABB96822294602
:1052200007F108002AF0BCFC7B6A002E45D0C3F3CE
:10523000080222B96FEA53236FEA43237B622046B8
:1052400007F10801FFF784FD7037BD46BDE8F08126
:10525000A36A13F47F4F04D00120F91DFFF702FF6A
:1052600005E0A36AB3F5803FA2D3FFF79DFE044695
:10527000D2E70020F91DC5E70020F91DEEE7194926
:1052800093E7194A18F4F87FE8468AB0174B18BF1D
:1052900013466A461649103CC2E905134FF40073E1
:1052A0001384144BD46142F8103F00234FF4115182
:1052B0000648FEF7A7FFC5467AE723F4FF7323F0FD
:1052C0000103BBE700ED00E00F9303001C060300A1
:1052D0003A930300519303007293030080930300F9
:1052E0009F930300BB930300F6920300E192030037
:1052F000DF93030004000001064B5A6942F01002DC
:105300005A615A6942F480625A615A6922F008026D
:105310005A61704700ED00E0EFF30880EFF3098178
:1053200001B57246FFF706FF01BD00BF002080F304
:105330001488BFF36F8F002080F30A8880F30B88F6
:10534000104880F3088800200F49087007F0B4F96E
:1053500000200E490860BFF34F8F00F02DF8202089
:1053600080F311880A484FF40061401880F30988DF
:10537000EFF314800221084380F31488BFF36F8F8A
:1053800000F00EF9A8B100206359002094ED00E070
:1053900068980020002318460649D1F89020C2F3EF
:1053A0000722934200DB7047C1F89830C1F8A00093
:1053B0000133F6E700ED00E010B572B6002484F387
:1053C0001388FFF7E7FF23464FF0FF300C4A03F145
:1053D00020010133102B42F82100F8D100234FF0B7
:1053E000FF30074A03F160010133102B42F821001E
:1053F000F8D162B6BFF34F8FBFF36F8F10BD00BF00
:1054000000E100E0084B9B6883420BD1EFF305837A
:1054100043B1064B5A6842F080525A605A6A22F4ED
:1054200000425A620AF0B0BBA83E002000ED00E046
:1054300025498A6882F8F5E04FF030001044EFF318
:10544000098C80E8F01F1EF0100F03D102F1B400A8
:1054500080EC108A202080F31288BFF36F8F1B4FDF
:105460004FF000668A698A603E60D2F8A800184C46
:10547000206092F9F5E0D2F8AC000023C2F8AC301D
:1054800080F311881EF0100F03D00023E1EE103AD4
:1054900003E002F1B40090EC108AEFF3148323F0E0
:1054A000040383F31488BFF36F8F02F1300090E898
:1054B000F01F8CF3098802F1000004B527F025FCE9
:1054C000BDE8044070470000A83E002004ED00E065
:1054D000703700201EF0040F0CBFEFF30880EFF3CD
:1054E0000980816911F8021C0229FFD001B57246BA
:1054F00027F0F8FB01BD00BF40B2002807DB012305
:105500004109034A00F01F00834042F821307047F0
:1055100000E100E040B200280CDB0122064943090B
:1055200000F01F008240203341F82320BFF34F8F4B
:10553000BFF36F8F704700BF00E100E0054B4209E9
:1055400053F82220012300F01F0003FA00F010405E
:10555000704700BF00E100E040B2002801F1010106
:10556000ACBF00F16040064B4FEA4111C9B2ABBF7E
:1055700000F5614000F00F0080F8001319547047E7
:1055800014ED00E0044B054A23F07F039360BFF362
:105590004F8FBFF36F8F70470000000000ED00E0F9
:1055A00008B5FFF7EFFF104BD3F8882022F4700204
:1055B000C3F88820D3F8882042F4A002C3F88820DA
:1055C0004FF04042C3F83422BFF34F8FBFF36F8FC9
:1055D0000023E1EE103A09F033FB0AF02DFC00F055
:1055E0007DF809F071FB00BF00ED00E042F8203CBF
:1055F000009B0D4942F81C3C019B21F0010142F83F
:10560000183C029B42F8081C42F8143C4FF080738F
:1056100042F8043C0023C0F8AC304FF47D43203AFC
:105620000265C0F8F430704745330000104B9B68AA
:1056300083421AD1EFF30580B8B9EFF3118120222C
:1056400082F31288BFF36F8F1A7B22F002021A7363
:10565000EFF3148323F0040383F31488BFF36F8FF5
:1056600081F31188BFF36F8F70476FF0150070479B
:10567000A83E00200E461546002300B5E1EE103A84
:10568000EFF3148323F0040383F31488BFF36F8FC5
:10569000BFF36F8F0A4BD0F8A8209860094B1A60AF
:1056A000D0F8983083F30B882C4686F309880020C5
:1056B000054B98472046002100220023034C204739
:1056C000A83E00207037002015CD020045330000B1
:1056D0001022014B1A61704700ED00E000232021E9
:1056E0000348C2180133452B82F80013F9D17047E3
:1056F00000E100E008B5EFF30583064A103B02EB3A
:10570000C30152F8330049688847BDE80840FFF7F5
:10571000D3BB00BF3C0203001FB5094C094A234616
:105720000121094800F012F900230393074B0121DE
:10573000E41A01A80193029400F012F904B010BD1C
:105740000000072000000020440B0300E8060020B2
:1057500010B50C7A0B6804F01F0223F01F031A43E4
:10576000CB68640923F01F03054943EA440343F06F
:105770000103C1F89800C1F89C20C1F8A03010BD09
:1057800000ED00E010B50A4BD3F89030C3F30723C7
:10579000013B984208D901210346064A064827F0F2
:1057A000D8F96FF0150010BDFFF7D2FFFBE700BF7F
:1057B00000ED00E0F6930300FC0503002DE9F04F37
:1057C0008946144606464FF00008514D85B0C8453D
:1057D00027DAD6F804A0BAF1000F44D0BAF11F0FAF
:1057E00017D91AF01F0F14D1D6F800B01BF01F0FF5
:1057F0000FD1584627F0CAFA07460AEB0B000138CA
:1058000027F0C4FA874210D06FF01507414A3B4693
:1058100001E04346404A0121404827F09AF96FF0E1
:105820001504204605B0BDE8F08F17F1160FEDD036
:10583000BC42EBDDC5F89870D5F89C10C5F898709F
:10584000D5F8A03021F01F0143F01F0BD6E900323C
:105850001A44994202F1FF3A1DD1D34507D131468E
:10586000F8B227F09CFA08F101080C36AFE7314690
:10587000C5F89870D5F89C3022F01F0203F01F0382
:105880001343C5F89C30E0B227F089FA10F1160FE7
:10589000C5D0441CE7E7C5F89870D5F8A020013BB7
:1058A00023F01F0302F01F021343D3453146E0B239
:1058B000C5F8A030E8D027F072FA10F1160FAED07C
:1058C000C5F89870D5F89C209DF808300BF1FF3B87
:1058D00062F304038DF80830D5F8A0309DF8082055
:1058E0005B0863F347128DF80820D6E900321344B1
:1058F000009323F01F035B44A3EB0A03013023F062
:105900001F036946C0B20393FFF73CFFBEE700BF29
:1059100000ED00E03F9403001C940300FC0503002D
:105920000522044BC3F89420BFF34F8FBFF36F8F52
:10593000704700BF00ED00E0BFF35F8F0022024B15
:10594000C3F89420704700BF00ED00E010B5034C91
:105950002278FFF733FF207010BD00BFC155002033
:105960002DE9F74F294D8A4606464FF00008AB4611
:10597000274FD0451BDAD6F80490B9F1000F3FD07D
:1059800031680846019127F001FA0199044609EBB4
:105990000100013827F0FAF984424FF014021D4B40
:1059A00008D002FB08F36FF015024BF8032003B098
:1059B000BDE8F08F14F1160F2C60F8D01978A142D1
:1059C000F5DD02FB08B0C7F89840C7F89840D7F853
:1059D0009C4000F10801007B64F304000871D7F8D3
:1059E000A0000C79400860F347140C71D7F89C10A4
:1059F00021F01F016960D7F8A01021F01F01296173
:105A000008F1010814350C36B3E700BF74370020E5
:105A100000ED00E0C1550020F0B54149414CD1F8FE
:105A200090302568C3F307239D4287B075D80020C6
:105A3000FFF782FF3C4BC1F8C030854216D13B4C8A
:105A400001A82570FEF79EFE00250646384FAE429F
:105A500013D1002023783249D1F89020C2F30722D5
:105A6000934254DBFFF75CFF00202FE0616801EBFD
:105A70000011FFF76DFE0130DFE70199280101EB0E
:105A80000513DA683A40B2F5001F21D0B2F5800F55
:105A90002BD0B2F5801F38D15A689B680958013B5A
:105AA00022F01F0003440120844623F01F0340EA34
:105AB0004C10CDE902218DF8100002A92078059341
:105AC000FFF760FE00281DDA6FF0150007B0F0BD8B
:105AD0005A689B680958013B22F01F0003444FF0AD
