:020000040000FA
:10000000D0C40020654F00001D260200514F0000A3
:10001000514F0000514F0000514F0000514F000060
:100020000000000000000000000000000D51000072
:10003000514F00000000000069500000514F0000C7
:100040002D5300002D5300002D5300002D530000B0
:100050002D5300002D5300002D5300002D530000A0
:100060002D5300002D5300002D5300002D53000090
:100070002D5300002D5300002D5300002D53000080
:100080002D5300002D5300002D5300002D53000070
:100090002D5300002D5300002D5300002D53000060
:1000A0002D5300002D5300002D5300002D53000050
:1000B0002D5300002D5300002D5300002D53000040
:1000C0002D5300002D5300002D5300002D53000030
:1000D0002D5300002D5300002D5300002D53000020
:1000E0002D5300002D5300002D5300002D53000010
:1000F0002D5300002D5300002D5300002D53000000
:100100002D5300002D5300002D5300002D530000EF
:100110002D5300002D5300002D5300002D530000DF
:100120002D5300002D5300002D5300002D530000CF
:100130002D5300002D5300002D5300002D530000BF
:100140002D5300002D5300002D5300002D530000AF
:100150002D5300007BB972B90029BEBF00204FF0BB
:10016000004106E008BF00281CBF6FF000414FF0BF
:10017000FF3000F057B8ADF1080C6DE904CE00294E
:1001800009DB002B1ADB00F069F8DDF804E0DDE99B
:10019000022304B07047404261EB4101002B1BDB9E
:1001A00000F05CF8DDF804E0DDE9022304B0404231
:1001B00061EB4101524263EB43037047524263EBF0
:1001C000430300F04BF8DDF804E0DDE9022304B05E
:1001D000404261EB41017047524263EB430300F040
:1001E0003DF8DDF804E0DDE9022304B0524263EBA0
:1001F0004303704753B94AB9002908BF00281CBF00
:100200004FF0FF314FF0FF3000F00CB8ADF1080CAB
:100210006DE904CE00F022F8DDF804E0DDE9022308
:1002200004B07047704700BF10F8012B11F8013B74
:10023000012A28BF9A42F7D0D01A7047034611F816
:10024000012B03F8012B002AF9D17047034613F85C
:10025000012B002AFBD1181A013870472DE9F0470D
:1002600086468C460846089E154674461946002B5D
:1002700040F0C1808542B2FA82F245D94AB1C2F15A
:10028000200300FA02FC954094402EFA03F343EA5F
:100290000C0C4FEA154EA8B2230CBCFBFEF80EFB6B
:1002A00018CC08FB00F943EA0C43994528D9EB1810
:1002B00008F1FF3704D2994502D9A8F102072B446F
:1002C000A3EB0903A4B2B3FBFEFC0EFB1C330CFB37
:1002D00000F044EA0344A04214D92C190CF1FF3376
:1002E00004D2A04202D9ACF102032C44241A43EAFE
:1002F00007401EB1D440002334607360BDE8F0872E
:100300004746DDE76346F1E792BB431B01214FEA15
:10031000154EAFB2200CB3FBFEFC0EFB1C330CFBE6
:1003200007F840EA0343984561D9EB180CF1FF3018
:1003300004D2984502D9ACF102002B44A3EB080388
:10034000A4B2B3FBFEFC0EFB1C330CFB07F744EA24
:100350000344A7424DD92C190CF1FF3304D2A74214
:1003600002D9ACF102032C44E41B43EA0040C0E78D
:10037000C2F120039540944020FA03F12EFA03F3D2
:100380004FEA154E9040AFB20343B1FBFEFC0EFBAB
:100390001C10190C0CFB07F841EA0041884522D9D2
:1003A00069180CF1FF3004D2884502D9ACF1020083
:1003B0002944A1EB08019BB2B1FBFEFC0EFB1C1112
:1003C0000CFB07F743EA01439F420ED9EB180CF1EF
:1003D000FF3104D29F4202D9ACF102012B44DB1B56
:1003E00041EA004193E76046E3E76146F7E760468C
:1003F000A4E76346B8E7834206D916B90021084648
:100400007CE7C6E900E0F9E7B3FA83F78FB98342E6
:1004100001D3724508D8BEEB020460EB0303012050
:100420009C461EB9002169E73846FAE7C6E9004C48
:10043000F8E7C7F1200CBB400EFA07F522FA0CF4DE
:100440002EFA0CF1BA401C4320FA0CF3B8404FEAE4
:10045000144901431FFA84FEB3FBF9F809FB183075
:100460000B0C08FB0EFA43EA00439A4540D9E31807
:1004700008F1FF3004D29A4502D9A8F102002344C2
:10048000A3EB0A0389B2B3FBF9F809FB183308FBA5
:100490000EFE41EA03418E452CD9611808F1FF3365
:1004A00004D28E4502D9A8F10203214443EA004058
:1004B000A1EB0E01A0FB02984145CE46434602D374
:1004C00006D14D4504D20138B9EB020E68EB0403A6
:1004D000002EA7D0B5EB0E0261EB030101FA0CFC74
:1004E00022FA07F3F9404CEA0303C6E9003199E721
:1004F0004046C5E74346D9E70A460146014821F090
:100500009DB900BF90610300014610B504460C4838
:1005100021F094F900210B4B19800B4B1B68A3426F
:1005200008D10A4B0A4819700A4B19700A4B197006
:1005300020F0AFF9BDE81040084820F0B5B900BF81
:10054000C06103003865002050340020C6680020D8
:10055000A4340020C5680020C4680020CC07002017
:1005600010B5044623F03CFB084BA0FB0330DB0B2B
:1005700043EA404001F0B2FB2146A022044824F0A7
:10058000A3FFBDE81040034820F08EB940420F00A1
:10059000DA6500209C07002008B5084821F04EF9D4
:1005A000074BD3E8EF1F0331C3E8E21F002AF8D15D
:1005B000BDE8084003481AF0D1BF00BFDA6103006C
:1005C000644300206843002008B50021044820F05F
:1005D00060F920B1BDE8084040B220F087B908BDFD
:1005E00064430020062110B50F4820F03EF9002892
:1005F0000BDD00210D4820F04CF9BDE8104046F21B
:10060000676200230A481BF055B8094824F0CBFC68
:1006100040B9064820F045F920B9BDE8104005482A
:100620001AF09CBF10BD00BF445A02002C430020AA
:1006300058160020304300201FB5124B04461B689B
:10064000834218D1104820F02FF9104820F029F9E2
:1006500048B90F4A13680133012B136003D90121F4
:100660000A4820F016F9204601A908F049FF20B9F0
:10067000019801F025FB04B010BD064A1368013350
:100680001360F8E750340020E4070020CC34002049
:100690001434002010340020014603488368DB69CD
:1006A0000BB1012218477047445A020010B50121CE
:1006B000154820F0EEF8154820F0F3F8044620B174
:1006C0001348BDE8104021F0B9B8124820F0E9F80D
:1006D00070B121460F4820F0DCF80F4820F0E6F812
:1006E0000E48214620F0E2F801F0AEFD0C48E8E7A4
:1006F000084820F0CEF8084820F0D8F80748012133
:1007000020F0D4F80748DCE72C43002040430020C9
:10071000EC6103002843002068630200706302005C
:10072000136203002762030010B5164820F0B9F8E1
:1007300038BB154820F0B5F8044620B11348BDE891
:10074000104021F07BB8124820F0ABF860B1214690
:100750000F4820F09EF80F4820F0A8F821460E48D8
:1007600020F097F80D48EAE70121094820F091F8B8
:10077000084820F09BF80121074820F08AF8084833
:10078000DDE710BD60430020284300203A620300EB
:100790004043002070630200504300205D6203006C
:1007A0008662030010B50D4820F07BF8A8B904213B
:1007B0000B4820F05AF804460028D4BF002101213C
:1007C000084820F066F80849084B0948002CC8BFC3
:1007D0001946BDE8104021F031B810BD604300203B
:1007E000445A020050430020BA620300B262030080
:1007F000C36203002DE9F041354D364E364F86B0C9
:100800004FF0FF324FF0FF3328461AF02DFD002243
:100810000023304621F088FF044618B92F4821F004
:100820000DF8EDE700F10C080D21404621F0AFFF77
:100830000021384620F02DF850B36A46284B03F1CA
:10084000100E9446186859680833ACE803007345E5
:100850006246F6D11868CCF80000224820F021F852
:10086000182269460590404621F0A2FFDFF88C80EF
:100870001D4B2146B8F80020186822F0F8FB011E35
:1008800012DA1A4820F0DAFF204605F08BF8B7E7B5
:100890001422684624F03FFE154B164819680131B2
:1008A000196020F0CBFFD8E7B8F80030124A0133C6
:1008B000A8F80030136801331360C822B3FBF2F1CB
:1008C00002FB1133002B9BD1094A136098E700BF4C
:1008D000E40700201408002024410020CD6203001A
:1008E000C7680020A4340020503400201C6303009B
:1008F00024340020F06203002034002038650020FA
:100900002DE9F0474FF000083C4B3D4E9D8F3D4F89
:10091000AAB04FF0FF324FF0FF3330461AF0A4FC7C
:10092000A022394602A824F0CFFD37481FF0B9FFB6
:1009300018B1502102A801F067FC34481FF0B1FF44
:1009400040B933481FF0ADFF014618B9A02202A8F4
:1009500024F0E1FD00212F481FF09BFF88B12E4CB1
:1009600002A834F9023BB0F9002003EBD37302EB89
:10097000D2725B10013103EB6203502920F8023B75
:10098000EFD123F02DF9254B8146CDE900532448C2
:100990000123002102AA00680EF050FC824623F0D9
:1009A0001FF9BAF1FF3F044603D11E4820F046FF6D
:1009B000AFE7DFF888A001211B481FF06AFF9AF813
:1009C000003023B119481FF06FFF8AF80080184AE1
:1009D0001368591C11606422B3FBF2F002FB103360
:1009E000002B96D1134AA4EB0900A0FB0202C00B16
:1009F00040EA4242104820F021FF8AE758010020D7
:100A000054070020DA6500202843002060430020BE
:100A100050430020204100203A650020C768002094
:100A20001C4100203A63030024410020E407002019
:100A30001C34002040420F004D630300500600208C
:100A40002DE9F04F4B4EABB04FF0FF334FF0FF327C
:100A500049481AF009FC002148481FF01AFFF37EAC
:100A6000474D02AC002B4BD032882868002A47D073
:100A70000123142ACDE9004328BF14220B46414923
:100A80000EF048FEB0FA80F56D094FF000034FF00C
:100A900064083D4F338039687383B1FBF8F308FB7A
:100AA0001313D3B9394820F0C9FE394B93F86520A8
:100AB0000AB993F8648000231A46354998452ADC20
:100AC000642312FB03F2B2FBF8F232480021D2B2E7
:100AD00020F0B4FE304820F0B1FE0020DFF8C0C0A6
:100AE000DFF8C080DFF8C090E2460021B8F800309F
:100AF000D9F800209BB202EB831B95B92A4612E07D
:100B00000123CDE90043002328681A4619460EF058
:100B100001FE0025B9E711F8010B01330244D2B2FE
:100B2000CCE734F911204FEA024E01311EFA82FE61
:100B300010294BF804EB2AF8022BDED1B9F80C206F
:100B40000133B3FBF2F102FB113310309BB250289A
:100B5000A8F800300CF1200C04F12004C4D10121CC
:100B600006481FF096FE0D481FF09EFE3B680133BD
:100B70003B6069E7AC3400206C0700202041002076
:100B800018410020AE340020183400206A630300AE
:100B90005E68002079630300C29B030054070020B5
:100BA0003A6500207C66002048010020F8B5324BF1
:100BB00014465B6883425ED130481FF072FE002805
:100BC00059D0002A4AD0138A23B18B7983F00203CB
:100BD000C3F3400301260022642729481D46867678
:100BE000C37602808A88C261264A92F86410535400
:100BF0003144B1FBF7FC07FB1C1182F8641009B902
:100C000082F8656043B1228AE168182A28BF182259
:100C100002801D4824F058FC1C4C1D4823781D43BD
:100C20002570D0E8EF3F0133C0E8E23F002AF8D159
:100C30000BB300211FF02DFE2078164B80B1164A11
:100C4000117001221A7000221978144822701FF0C6
:100C500020FEBDE8F84012481FF026BE1346B9E753
:100C60001A78002AEFD00C490A78052A96BF01327B
:100C700018700A70E7E7F8BD50340020CC3400202B
:100C8000AC3400205E680020AE340020C66800202E
:100C9000A8340020C4680020C5680020A4340020C7
:100CA0006C07002008B5084820F0C8FD074BD3E8C2
:100CB000EF1F0339C3E8E21F002AF8D1BDE808405E
:100CC00003481AF04BBC00BF866303006443002056
:100CD0006843002041F288332DE9F04F914A924D4C
:100CE0000021C5E90F23022385F83A30FF23AB70BA
:100CF0008E4B0120BBB0C5E901310BF03BFD00F18B
:100D0000744404F5A6043CB12146894820F096FDC0
:100D100020463BB0BDE8F08F864820F08FFD864826
:100D200020F08CFD8549864820F088FD00F068FBA6
:100D3000014650B1834820F081FD83481FF0CAFD71
:100D400030B9824820F07AFD0CE000F081FBF4E736
:100D50004FF480317E481FF069FD014690B17D4817
:100D600020F06CFD7C497D4824F0C3F87C487D4927
:100D700024F00DF974481FF0ADFDD0B97A4820F089
:100D80005DFD25E04FF0E86171481FF02CFD044641
:100D900010B101467548E3E77548764B4360102370
:100DA0008360FFF779FC214673481FF072FD73489A
:100DB000C8E773481FF08EFD0028DFD04FF4803164
:100DC00070481FF033FD0146C0B16F4820F036FD7A
:100DD0000321002308461E2201F0C8F9014610B184
:100DE0006A4820F02BFD1FF077FD6949694800F043
:100DF0008BFC044660B30146674887E74FF4B011A7
:100E000066481FF013FD014608B16548DEE75C48FF
:100E10001FF060FD08B96348B1E74FF4B0116248B4
:100E20001FF004FD014608B16048CFE74FF0E861CC
:100E300054481FF0D8FC014608B15D48C6E75D483C
:100E40005D4B436040238360FFF726FC5B4896E7D9
:100E500000F092FC044610B10146594856E700F0F4
:100E60003DFC584820F0EAFC286C00F0E3FE044604
:100E700010B10146544849E75448554924F039F81F
:100E800031481FF027FDA0B9524820F0D7FC524B43
:100E900000224FF47A51286C0EF05CF84F4B18602A
:100EA000002840F0AF804E4820F0C8FC6FF00404EA
:100EB0002EE725481FF00EFD0028E5D04FF48031C5
:100EC00048481FF0B3FC0028E1D14FF48031464878
:100ED0001FF0ACFC0028DAD14FF0B86141481FF098
:100EE00082FC0028D3D14FF0B8613F481FF07BFC53
:100EF0000028CCD13D483E4B3E4C436004238360E8
:100F00003D4B63600823A360FFF7C6FB2046FFF755
:100F1000C3FB0321394820F091FCB8E7384820F0A2
:100F20008DFCC3E71400050058010020ADDEEFBEC4
:100F30009A630300C0630300DA630300F7630300EE
:100F40000964030019640300445A02002E6403007C
:100F50008063020049640300290700003043002039
:100F600058160020AD060000BF6403006A64030049
:100F700054430020A5070000504300208E64030066
:100F8000245A020078630200E3640300C66503008C
:100F90006105000048010020DB650300706302006A
:100FA000096503002C6503006863020048650300BF
:100FB0006A65030044430020E505000093650300D3
:100FC000F26503000A6603003A66030068430020E6
:100FD000C905000054660300300C00201C410020AD
:100FE000AD66030090630200886302008443002022
:100FF000A50C0000784300209905000072660300EC
:10100000CA6603004FF47A51B04B0022286C0EF0F0
:10101000FBF9AF4B0146186000283FF47FAFAD48A5
:1010200020F00CFCAC4820F009FC0026002700242E
:1010300003234FF48052CDE90334CDE90667CDE9AF
:101040000144A64BA6490094A6481AF0AFFBA64956
:10105000A4481AF035FB4FF0020A4FF48052CDE954
:101060000667CDE9024ACDE90044A04BA0490494AB
:10107000A0481AF09BFBA0499E481AF021FB0122D0
:1010800021469E4823F0B1FE204605F08FFE04461F
:1010900010B101469A4839E6DFF8C0821AAE4746D9
:1010A0000FCF0FC63B68214633600AAA1AA806F084
:1010B0008FFC044610B10146924827E64FF4A02366
:1010C00011AE41F6520130460FAFCDE912371197FC
:1010D00021F07FFB30468C4921F085FBBDF848307C
:1010E0004FF0160B8DF85130119B0DF150091593EF
:1010F00041F20923ADF85830844B009417935246BF
:10110000234649460A988DF850B021F0D8FE04468F
:1011100010B101467E48F9E50A9B394609934FF024
:101120003013CDE90F30099806F0D4FC044610B115
:1011300001467848EAE5014614221DA824F0EBF99F
:101140000BAA169206220127B8F81830D8F8140016
:10115000ADF83030B8F81E300B90ADF838306E4B2B
:10116000D8F81A00149324331793DFF8F4810DABE9
:10117000CDE91823694B0D9041461AA8CDE911A974
:10118000CDE91A76159213951C9309F08FFB04464E
:1011900010B101466248B9E51AAB14934FF400034D
:1011A00049461593D8F800001AAB169322F00EFAB0
:1011B000044610B101465B48A8E5BDF854303A46F4
:1011C0008DF84530149B314609988DF844B0129340
:1011D00006F0EEFC044610B10146534896E50A9825
:1011E00021F09FFE044610B1014650488EE50023D1
:1011F0000A9814A9ADF850308DF8523006F018FC5A
:10120000044610B101464A4880E54A4B4A4A4B4CD5
:101210004B495C609960C3E9064113601433536025
:10122000496895F83A300A98CB70516889684968DE
:10123000CB702B6C43498B60EB8F0A6032468B81FD
:1012400008F0C8F9044610B101463F485EE506467D
:101250003E4FDFF810813E4D3146384620F0EEFA21
:101260004FF0FF324FF0FF33404619F0FDFF0446C8
:1012700020B10146374849E50126EDE731462846C9
:1012800020F0DCFA002EF7D000F02EFD2546294F85
:10129000DFF8D490DFF8D4802946484620F0CEFA13
:1012A000142200211AA824F036F9032338461AAA7A
:1012B000E9B28DF8693007F073FD0446002857D075
:1012C0000146254822E53546E6E700BFD034002038
:1012D00018410020EA66030009670300410A000084
:1012E00090700020400A00203B67030001090000C5
:1012F00090800020380B002047670300540700202F
:101300005367030073670300563412009E6703009F
:10131000B1670300DA670300583400208C01002015
:1013200012680300356803004A6803006768030019
:101330009768030028340020503400200801002062
:101340001C01002024010020C6680300E56803009A
:101350000A6903006267030046690300B05F020088
:10136000A0340020CC07002028690300696903002D
:101370002946404620F062FA1437002DA3D00022FF
:101380000023CDE9062302234FF48062CDE9024316
:10139000CDE900440A4B0B4904940B481AF006FAB5
:1013A0000A4909481AF08CF909481FF07DFA012012
:1013B00000F04EF8014600283FF4AAAC0548A5E429
:1013C000F5070000906C0020480900208E6903009A
:1013D000E407002095690300084B1A691268002A87
:1013E000B8BF80F0010028B19B68DB684FF0004176
:1013F000024818479B681B69F8E700BF445A02007F
:1014000038B5104D2B78BBB90F4C204623F071FB3B
:10141000A8B12269A1681368204643F00043136015
:101420000B680A4A1F219847034630B9FFF7D4FFDB
:10143000034610B901232B700023184638BD6FF006
:101440001203FAE7DB680020445A020001000A0098
:1014500010B5074B04461B7823B12046BDE8104069
:10146000FFF7BABFFFF7CCFF0028F6D010BD00BFD2
:10147000DB6800202DE9F047854F06463B78002BBE
:101480004BD0002849D04FF000094C46814D824B8B
:101490002A78011F03EB42183C3051F8042F13B295
:1014A000002BB8BF5B429BB212149C42B8BF1C46D3
:1014B000002AB8BF524292B29145B8BF91468842C5
:1014C000EBD1DFF810A2DAF80030002B0FDA402C55
:1014D00002DCB9F1400F0ADD4C45ACBF002101210F
:1014E0004B4622466D48CAF8001020F0A7F9DAF8FA
:1014F0000030002B70DBDCB2002356F82320002CD8
:101500006FD112B228F813200133102BF5D12B78AC
:101510000133DBB2042B66D82B70614A6148137823
:101520006149DFF8B491002B0CBF8046884683F0F8
:1015300001031370D9F80030002B00F08C809A68FA
:1015400014885A68A4B2B2F800A09A891FFA8AFADD
:10155000564B544519784FD8AAEB0405ADB2002973
:1015600050D0544577D0DFF864A1DAF8001049B1C3
:10157000D9F800302A469B894D4820F05FF90023B6
:10158000CAF80030C446D9F800504FEA841E2B68D0
:1015900003EB841303F14009624618685968083365
:1015A00003C24B459446F7D128684022002170447D
:1015B00023F0B1FFAB890134B4FBF3F103FB114419
:1015C000AA68A4B23B4B1480D3E8EF1F0131C3E8F3
:1015D000E21F002A1DD0F7E74C45ACBF00240124D0
:1015E0008AE712148EE700232B70334B1B68002B05
:1015F00093D02948984790E70AEB02052D1BADB21E
:101600000029B0D1042D1FD840220021404623F0EC
:1016100082FF3B784146002B14BF3046002000F08B
:10162000BDF9014688B3254B1A680132052A1A60B4
:1016300005D93220B2FBF0F300FB13232BBBBDE82E
:10164000F0471F4820F0FAB801211E4819702946BA
:1016500020F0F4F885E740220021404623F05BFFAC
:10166000194BD3E8EF1F0131C3E8E21F002AF8D17C
:10167000164B17481A6801321A60D0E8AF2F196864
:101680009142C6D91FF02AF9C3E7BDE8F08700BF31
:10169000DF680020DE6800207E660020BB69030052
:1016A000DC680020E4430020A4430020DD68002023
:1016B000156A03009C430020A844002090430020AA
:1016C000456A0300F1690300A0430020984300200D
:1016D000944300209C010020A44400204FF0FF33DD
:1016E00007B501A901931FF00AF938B9019B5A1CEB
:1016F000032A28BF4FF0FF33024A136003B05DF89E
:1017000004FB00BF9C01002037B502466C460B4627
:10171000134903C984E803001046F2B1EBB1114D3F
:101720002A7812B1002003B030BD0F4A10600F4A72
:101730002046136000F036FB0028F4D19DF800200D
:101740000B4B1A70019B5A1C032A28BF4FF0FF3322
:10175000084A136001232B70E4E76FF01500E2E7FD
:10176000D05F0200E1680020A4440020A8440020CB
:10177000DF6800209C01002070B5324B1B78002BE5
:101780005CD0314E3378002B56D1304800F090F8C1
:1017900000F094F8044628B101462D4820F04EF898
:1017A000204670BD014640222A4823F0B4FE402264
:1017B0002146294823F0AFFE284B21461C70284BB8
:1017C00028481C60284D1FF089F828481FF086F82B
:1017D00027481FF083F82B782648002B08BF0020ED
:1017E0001C4900F0B5F8044610B101462248D5E77F
:1017F0002B782248002B08BF0020174900F0CEF8B4
:10180000044610B101461E48C8E700F009FB044633
:1018100030B101461B4820F011F800F0E1F8BFE7B5
:10182000194B2978194A1A4800290CBF1146194644
:1018300020F004F8012333700024B1E74FF0FF34A7
:10184000AEE700BFE1680020E068002075140000EA
:10185000806A0300E4430020A4430020DD680020E8
:1018600098430020A0430020DF6800209C43002014
:1018700094430020644400209B6A03002444002019
:10188000B76A0300DA6A03007A6A03007D6A03001C
:10189000096B0300012908D138B1044A126822B14A
:1018A000D0E9000100B901B110477047AC440020F5
:1018B000014B1860704700BFAC44002037B51D4D88
:1018C0002B78002B34D14FF0502449F6A633C4F8BE
:1018D0005C350123A361D4F8203153B100211648AF
:1018E00001AA22F0A3F8002808DA6FF0040003B080
:1018F00030BD0021212023F01DFCECE7019B0F4AA5
:10190000197918680AF0DAF802460028EDD10121A9
:10191000282003F03DFC282003F00AFC084A09496E
:1019200009480BF0EBFB094B9842DED101232B70E9
:101930000020DCE7E268002098630200008002508B
:1019400095180000A0010020C80100200000AD0B88
:101950001FB50F4C2378012B13D100B989B1102387
:10196000CDE9010100220B4801A9ADF80C300BF0C4
:1019700097FC094B984207D102230020237004B042
:1019800010BD6FF01500FAE76FF00400F7E700BF35
:10199000E2680020C80100200000AD0B1FB50D4B10
:1019A0001B78022B13D100B989B11023CDE90101B5
:1019B000094801A9ADF80C300BF0E6FC074B984242
:1019C00014BF6FF00400002005B05DF804FB6FF059
:1019D0001500F9E7E2680020C80100200000AD0B07
:1019E00010B5054C2378022B04D104480BF00EFDF2
:1019F0000123237010BD00BFE2680020C801002051
:101A00004FF050232DE9F74FD3F85C6549F6A63324
:101A1000B6B2002E08BF1E464FF00008C24645462B
:101A200000244FF0FF324FF0FF336F4819F01CFCD9
:101A30006E4AD2E8EF3F012B03D1C2E8E14F002903
:101A4000F7D10CBF012727460BD1214668481EF06D
:101A50004FFF684B68481A68684B19681FF0EEFE24
:101A6000DAE7674BD3E8AF4F012D11D004D9AB1E95
:101A7000012B3CD9474609E05E4B604A21461B6872
:101A8000126860481FF0DAFEA2460125B846C7E793
:101A9000584B08F101081B684345EBD840F24B1343
:101AA000A4EB0A01C1F5C332574DA032554395FB53
:101AB000F3F505F51B442B46A63405F5DD555348D3
:101AC000009406351FF0BAFEB5F5804F04D3504898
:101AD0001FF0B4FE0025D9E74FF0502321464D48B2
:101AE000C3F85C451FF0AAFE0225A6B2CEE7414B23
:101AF00008F101081B684345BCD8474BD3E8AF8FBA
:101B00003E4BB4EB0800D3F8009061EB01010029D3
:101B10004FEA590B21DB4A463B46FEF71BFB934538
:101B200001DAA2EB09023D4802EBD2723C494FEACE
:101B30006209032D08BF0146434622463948CDF8C5
:101B400000901FF07BFE09F5FA73B3F57A7F12D986
:101B5000494635481FF072FE98E7B8EB040061EB88
:101B600001014A463B46FEF7F5FA5A45C8BFA2EBCB
:101B700009025242D7E740F24B13234C04FB09F40D
:101B800094FBF3F43444B4F5004F1BDD4BF6FE73C5
:101B90009C421ADCA4B24FF05023022DC3F85C45DE
:101BA00089EAE973A3EBE97312D10F2B3FF76EAF0C
:101BB00001210F481EF09CFE21461C481FF03EFEEE
:101BC000032563E74FF40044E5E74BF6FF74E2E7D3
:101BD000202BF5DD002106481EF08AFE49461448F8
:101BE0001FF02CFE76E700BF3C070020D801002044
:101BF000B0440020D0010020496B0300D401002034
:101C0000B8440020736B030018FCFFFFA06B0300B7
:101C1000D16B0300F46B0300B44400203B6B030062
:101C2000426B0300166C0300396C0300586C030010
:101C3000726C030010B5184B421E9A42014688B0E0
:101C400005D8164CB4FBF0F200FB124434B1144832
:101C50001FF0F4FD6FF0150008B010BD114B1860B7
:101C6000114B12481A601FF0E9FD00220023CDE954
:101C7000062301234FF48062CDE90243CDE90044FD
:101C80000B4B0C4904940C4819F090FD0B490A4881
:101C900019F016FD2046DFE79F860100A0860100AF
:101CA000906C0300D4010020D0010020AE6C030032
:101CB000011A00009090002088160020CE6C0300CE
:101CC000014608B503481EF013FEBDE8084002486F
:101CD00019F090BAB84400203C07002001460148A2
:101CE0001EF006BEB444002008B5012103481EF0D2
:101CF000FFFDBDE80840024819F07CBAD801002079
:101D00003C07002010B588B00DF1070302930123B2
:101D10000022CDE90513039307238DF807008DF802
:101D200010208DF81C3007489DF81C30826843F065
:101D300002038DF81C3094681823022202A9A047E0
:101D400008B010BD245B02001FB502238DF800000F
:101D50008DF80110CDF804D002938DF80C300748AF
:101D60009DF80C30826843F002038DF80C309468C3
:101D70001823012201A9A04704B010BD245B020072
:101D800010B5014604461020FFF7DEFF30B92146AA
:101D90001120FFF7D9FF08B9014B1C7010BD00BF1F
:101DA0005106002037B5054650B3174822F0A1FE72
:101DB00038B916481FF042FD6FF01204204603B0F8
:101DC00030BDFF200DF10701FFF79CFF044620B155
:101DD00001460F481FF032FDF0E79DF80710422939
:101DE00005D00C481FF02AFD6FF00404E6E701233C
:101DF0002B706B60084B187008481FF01FFDDDE763
:101E00006FF01504DAE700BF245B0200D76C030013
:101E1000F26C0300146D0300E3680020396D0300C9
:101E200037B55C4D297819B10024204603B030BD88
:101E300017208DF80710FFF787FF044620B10146F1
:101E400055481FF0FBFCF0E710210520FFF77CFF51
:101E5000044610B101465148F3E780210620FFF700
:101E600073FF0446014608B14D48EAE70720FFF733
:101E70006BFF044610B101464A48E2E7002140F6F4
:101E8000CD4023F057F920460DF10701FFF73AFF47
:101E900010210820FFF758FF044610B101464248C0
:101EA000CFE710210920FFF74FFF0446014608B194
:101EB0003E48C6E70A20FFF747FF0446014608B13F
:101EC0003B48BEE70B20FFF73FFF044610B1014639
:101ED0003848B6E730210C20FFF736FF044610B132
:101EE00001463548ADE733210D20FFF72DFF0446AD
:101EF00010B101463148A4E734211220FFF724FF36
:101F0000044610B101462E489BE72E211320FFF70F
:101F10001BFF0446014608B12A4892E71520FFF747
:101F200013FF044610B1014627488AE71021142008
:101F3000FFF70AFF044610B10146244881E7022159
:101F40001620FFF701FF044610B10146204878E74C
:101F5000204B1878FFF714FF044610B101461E48C5
:101F60006FE78F211720FFF7EFFE044610B10146FF
:101F70001A4866E72E233321342219481FF05EFCED
:101F80009DF807108B0702D416481FF057FC012359
:101F90002B7049E7E36800206B6D0300906D030030
:101FA000B26D0300DA6D0300036E0300296E0300B7
:101FB0004F6E0300776E03009A6E0300BC6E030041
:101FC000DE6E0300036F0300286F03004D6F0300F4
:101FD000716F030051060020906F0300B06F030083
:101FE000D36F03003F700300F8B5002106461527A4
:101FF0006FF00042114B124D1B7835F8134004EB83
:10200000400424B235F9023B1B1B002BB8BF5B42D6
:102010009342B8BFCFB201F10101B8BF1A462829D7
:10202000F0D13846FFF7ACFE044620B93A463146B7
:1020300004481FF003FC2046F8BD00BF51060020F5
:102040000C6003007C7003000023084A1370084AE8
:102050001360084A1360084AD2E8EF1FC2E8E03F65
:102060000028F9D105481FF0E9BB00BFE568002052
:10207000C0440020BC44002050430020987003005E
:1020800038B50A4600EB410504460021A5420DD1B2
:10209000B1F5FA7F2C4C13DA2378012B3CD0022BBC
:1020A00046D0002B3DD1294B002239E034F9023BC8
:1020B000002BB8BF5B421BB29942B8BF1946E5E797
:1020C0000146234800F0DAF82378012B22D0022BB6
:1020D00028D033BB0028E6DD1C491E480A6800688A
:1020E000013282420A601CDB01220B601A4B227013
:1020F000D3E8EF1FC3E8E02F0028F9D1FFF7F4FD84
:10210000164B186808B119F075F8BDE83840144846
:102110001FF094BB002804DC022301222370114B22
:102120001A6038BD002803DD012323700D4BBBE787
:102130000C4A1368013313600B4A12689342F0DBB8
:10214000BDE83840FFF780BFE5680020C0440020AC
:10215000D0440020C844002050430020CC4400203C
:10216000A7700300BC440020C44400202DE9F341C3
:102170001C4C054620460E461746984600F030F99E
:1021800068BBC4F8F002294620461EF0BBFB28B10C
:102190006FF01504204602B0BDE8F08120464FF4F0
:1021A0007A511EF0B9FB04460028F1D10E4B32469D
:1021B0001E600E4B29461F600D4BC3F800800D4B6F
:1021C00018700D4B18600D4B18600D4B18704FF4C4
:1021D000FA730C4800933B461FF030FBDAE76FF0D0
:1021E0000404D7E7D0440020C8440020C4440020A1
:1021F000CC440020E5680020C0440020BC440020FE
:10220000E4680020B77003009F29034670B512D818
:102210000B4C0C4D26784A0001FB06F0194605EBE5
:10222000400023F051F916B90123237070BD00233B
:10223000A02128462370BDE87040FFF721BF00BFF2
:10224000E46800201E67002010B5084C2378013B8D
:10225000012B01D8FFF7F8FE0023054A2370136015
:10226000044A1360044A137010BD00BFE5680020E3
:10227000C0440020BC440020E468002038B508B900
:1022800020F03EFA0A24D0F8F0520D4B53F82530D6
:102290005C43A24207D014245C43A24203D01E2414
:1022A00063439A4209D1074B53F8253098470028D9
:1022B000E6DB14BF0120002038BD4FF0FF30FBE704
:1022C000D0630200C0630200032966D8DFE801F092
:1022D0000220374E324B1A689B88C0F8C422A0F8FF
:1022E000C832304B1A689B88C0F8CA22A0F8CE3298
:1022F0002D4B1A689B88C0F8D022A0F8D4322B4B03
:102300001A689B88C0F8D622A0F8DA3200207047FD
:10231000274B1A689B88C0F8C422A0F8C832254B06
:102320001A689B88C0F8CA22A0F8CE32224B1A68DD
:102330009B88C0F8D022A0F8D432204BE0E7204B95
:102340001A689B88C0F8C422A0F8C8321D4B1A68CE
:102350009B88C0F8CA22A0F8CE321B4B1A689B8813
:10236000C0F8D022A0F8D432184BC9E7184B1A682D
:102370009B88C0F8C422A0F8C832164B1A689B8804
:10238000C0F8CA22A0F8CE32134B1A689B88C0F856
:10239000D022A0F8D432114BB2E74FF0FF30704793
:1023A000B6600300B0600300AA600300A4600300ED
:1023B0009E60030098600300926003008C6003003D
:1023C00086600300806003007A600300746003008D
:1023D0006E60030068600300626003005C600300DD
:1023E00010B5044610B94FF0FF3010BD0123002195
:1023F0000360C0E945111022043023F08CF804F189
:1024000014001EF01DFE2D4B04F1B40203F118015F
:1024100053F8040B8B4242F8040BF9D1284B04F11A
:10242000CC0203F1180153F8040B8B4242F8040B61
:10243000F9D1244B04F1E40203F1180153F8040B21
:102440008B4242F8040BF9D11F4B04F1FC0203F15B
:10245000180153F8040B8B4242F8040BF9D142F2F5
:10246000107104F5ED7304F29A2223F8021F9342CF
:10247000FBD10021C02204F58E7023F04CF800211E
:10248000124B2046C4E9A733C4F8A812C4F8AC1212
:10249000A4F8B012C4F8B212C4F8B612A4F8BA1272
:1024A000C4F8BC12C4F8C012C4F8A432FFF70CFF81
:1024B000002898D12A23C4F8EC3296E7046103007F
:1024C000EC600300D4600300BC60030040064006DB
:1024D0002DE9F04F00F53777A9B03B461646044684
:1024E0001EF01CFB18220021A4F8E80205461CA8D7
:1024F00023F011F81822002122A823F00CF8502E06
:1025000022D1B4F9C4320893B4F9CA320193B4F9B0
:10251000D0320693B4F9D6320A2D07932EDD4FF050
:10252000000B22AB0493AE4B0DF170080993CDF86C
:1025300014B0CDF808B00025029B2E46A7F5377AD7
:102540004FEA4309039529E0A02E0BD1B4F9C63216
:102550000893B4F9CC320193B4F9D2320693B4F9AA
:10256000D832D9E7B4F9C8320893B4F9CE3201931E
:10257000B4F9D4320693B4F9DA32CDE7B4F91831AC
:10258000002B00F31A8200260023A4F81A313046EB
:10259000266029B0BDE8F08F0123039310ABBAF990
:1025A000E420BAF9B4104B44B7F900001EF076FBF2
:1025B0008C4B0CAA33F90930BAF9CC105843039B61
:1025C000064442F8230016ABBAF9FC204B44B7F995
:1025D00000001EF063FB844B039A33F909300AF1C3
:1025E0000C0A58430EAB43F82200054409F10C09CC
:1025F000002AD1D0002E40F0DA80002D00F0E580D6
:1026000085EAE573B3FA83F31F22013B1BB20999F4
:10261000D21A31F9023B0991059902FB0313059384
:10262000069B46F30F31B3EB820FB8BF4FF0010B9F
:10263000002940F3CD800C986C4B03EA80001EF01B
:1026400081FCA8F80000C0F58040A8F80C0045F314
:102650000F3100290ADD654B0E9803EA80001EF059
:1026600071FC049B1880C0F580409881029B08F1A2
:10267000020801330293049B023702330493029B46
:10268000062B7FF458AF059B079A4FF00008934242
:10269000B4BF5E464BF00106554B36B20A93554B1C
:1026A00004F1B4050993544B07934FF44853424641
:1026B000B5F92812204604931EF058FB4FEA480350
:1026C0000693484B074603EB48031A460021284669
:1026D00002931EF040F99A224FF4207A8011C0EB49
:1026E000071010FB02F0C0F34F230593434BC8EBD8
:1026F00048270393049BFF01534407F510571BB26F
:10270000DDF81890A5F1B40BBFB20B93BBF9FC3008
:10271000BBF9B400BBF9CCC0BBF9E4100493002EA4
:102720006ED0059B41F69A1E184400B25045B8BFC2
:1027300050463BB29842A8BF184622AB39F9031065
:1027400016ABABF8B40039F90300039A01FB00F3B0
:10275000DB1213FB0EF35B150133B2F900E00CEB57
:1027600063031BB27345B8BF73460B9A0CF1040C9C
:102770009342A8BF1346ABF8CC30B5F82832BDF869
:102780001020A3EBEC0313FB00F3DB108810A3F580
:102790008053584302EB820100114900002809B21E
:1027A00063DC404204921EF0CDFB404260E086EACA
:1027B000E672B2FA82F2013A12B23DB185EAE573ED
:1027C000B3FA83F3013B1BB221E71F221F231EE74D
:1027D0004FF48043A8F8003039E74FF4407A95E78A
:1027E00074610300346103001C61030000C0FFFF3B
:1027F0004C6103005C6103006861030058610300E1
:1028000040F28F2E1CAB33F90930059A049310ABBC
:1028100039F903C0049B03FB0CF3DB1213FB0EF32B
:1028200000EBA35313441BB25345B8BF53460FFAF2
:1028300087FE7345A8BF7346ABF8B430B5F82832AD
:10284000A3EBE00313FB0CF30498DB1002308010C1
:10285000A3F5805358438013002800F39C80404226
:1028600004911EF06FFB404298E004921EF06AFB58
:1028700000B2049A803040F30720024412B2B2F54D
:10288000C07FB8BF4FF4C072ABF8FC20039B803709
:102890000233BAF5407F0BF10C0BBFB2039309F181
:1028A0000C099AD10021029A28461EF054F8069B82
:1028B000454A05F1180A13441A46074600215046B6
:1028C0009B461EF048F8079BC0F34F22814633F920
:1028D000020BC7F34F210793531A1BB2834215DA39
:1028E0000144891A09B201EB410701EB87015A46FD
:1028F00041F38F0150461EF02EF8B910494281462F
:10290000029A284609B21EF026F80746099A32F9BB
:10291000023B09924FEAE91249F3CF194B4508DA15
:10292000298B9A1A11FA82F12983A98C11FA82F261
:10293000AA840A98F91130F9022B47F3CF1797426E
:102940000A9008DD521A298811FA82F12980A98992
:1029500011FA82F2AA8108F10108B8F1060F05F117
:1029600002057FF4A4AED4F814310133C4F8143155
:10297000002E3FF403AEB4F81A3101331BB2062B1C
:10298000DBBFA4F81A31089BA4F81A810193019BBC
:10299000A4F81831FBE504911EF0D4FA00B20499B2
:1029A000203040F38910084400B2B0F5C07FB8BFB2
:1029B0004FF4C070ABF8E40068E79BB29E1C013B8B
:1029C00036B2A4F81831DFE51C6103002DE9F047A9
:1029D00043F6D72C002540F6EA3642F2984A4910D1
:1029E0008D4215DB0646002740F2353C41F2DE7E83
:1029F00043F25E088F4234DB002547F6FF7C3A4EF7
:102A000002F1020E8D4200F1100053DBBDE8F087A9
:102A100050F83580D3F804E01F68A8EB0E0404F5E5
:102A20000054A41306FB0474C3F80080D3F8088094
:102A30005C60A4EB08095FEAA93948BF09F1010904
:102A40000AFB09EEDC68AEEB0404A41348BF0134B2
:102A50000CFB0484C3E902E4641040F835400135FE
:102A6000BEE7D6F804A0D3F814900137AAEB090406
:102A700004F50054A5131C69C3F810A00CFB054411
:102A80009D695C61A4EB050A5FEAAA3A48BF0AF1B6
:102A9000010A0EFB0A99DC690836A9EB0404A413A9
:102AA00048BF013408FB0455C3E906956D1046F88C
:102AB000045C9FE750E90234234450E904473C4456
:102AC000E413B442B8BF3446DB136445A8BF644680
:102AD000B342B8BF33466345A8BF634622F81540EA
:102AE0002EF8153002358DE70080FFFF2DE9F74FF6
:102AF0008946019240F20A38002240F23F4C45F6E6
:102B0000F52143F2672440F2B916DE27DFF894E09E
:102B1000234D09F1040A019B9A4202D103B0BDE89A
:102B2000F08F03680C3008FB03FB50F8083C0BF5F2
:102B3000804B0EFB03BB50F8043C0CFB03BB03684B
:102B400001FB03BB436804FB03BB836805FB03BBBA
:102B5000C36806FB03BB036907FB03B349F83230C4
:102B600050F8083C07FB03FB50F8043C0BF5804B86
:102B700006FB03BB036805FB03BB436804FB03BB05
:102B8000836801FB03BBC3680CFB03BB03690EFB3B
:102B900003BB436908FB03B34AF832300132BAE79A
:102BA00039F1FFFFFEF7FFFF2DE9F04F91B00093E1
:102BB00002F004030293C2F3C20301338407054603
:102BC0000E46DDF868800392059340F0BB81041D3A
:102BD00030B1072909D86FF01B0011B0BDE8F08FA4
:102BE00001F007063444C6F10806009B4FF00009C7
:102BF0004FF0040A591E4FF0FF334F460193CB4666
:102C00005346CDF810900DB100982060059800282B
:102C100000F3E8809848009A824203D397488242A2
:102C2000C0F0E080039AA4EB050E92074FEA9E00E5
:102C300000F103810F2F00F2B180002D00F005811B
:102C400007F140020DEB020C019A0CF8200C0CF875
:102C5000102C049801300490E7E07A285DD84B28C6
:102C60000ED8472859D829282DD8252852D054D8ED
:102C700020287AD02338D0F1000B4BEB000B74E006
:102C80004C382E2849D8DFE800F0704848484848BA
:102C90004848484848484B484848484848484859A0
:102CA000484B4B595959704B6D487048184B184850
:102CB00048827F4B48484B487F0000204FF0000B74
:102CC0004FF0040A38E001222A38C0B202FA00F0BC
:102CD00010EA0E0F49D110F0625C2FD110EA020BFE
:102CE00043D06046013C5444B4FBFAF40AFB04F4BC
:102CF000002D61D0A3EB050CA444B4453FF66BAFA7
:102D0000002868D1042B47D158F8043B23600423E2
:102D100004342AE0019A013A01924FF0000B24E0BA
:102D200011F8010C6C2834D1002011F8023C8346C4
:102D30006C2BC5D14FF0080A5346D3E708F10708BA
:102D400028F00708073424F00704F8E802AB35B18F
:102D500006982044B0423FF63EAFC4E900AB4FF0C6
:102D6000000B08344FF0080A534611F8010F0028F1
:102D700078D0BBF1000F7FF470AF2528F5D14FF06C
:102D8000010B019B013301934FF0040AECE7584615
:102D900094E700208346A5E7082B02D06FF01500CA
:102DA0001BE708F1070828F00708B8EC027B84ED60
:102DB000007B08230834D8E768B9042B02D108F156
:102DC0000408A4E7082BE9D108F1070828F0070850
:102DD00008F10808EDE705980138059058F8040B4C
:102DE000009010E7039A900720D54FF0010CA4EB58
:102DF000050E4FEA9E00BEF5007FCFD20F2FCDD833
:102E0000F5B107F140020DEB020E019AC0B20EF8C7
:102E1000200C0EF8102CBCF1000F3FF41AAF60F03C
:102E20007F000EF8200C09F101090137C5F10802F5
:102E30004FF6DA7E0434069297E74FF0000CDAE79B
:102E4000BCF1000F01D00136EFE7029A0236002AEA
:102E5000EBD10098CDE90631FDF7F8F9DDE906314F
:102E60000644E2E7631BB3F5806F97D245B9A6F13C
:102E70000804E018B1E600BF34590200D89C0300F2
:102E8000029A9B0828602B709DF81030C2B1EB703D
:102E900085F80290B9F1000F05D0002208A8C5F10D
:102EA000010C97420ED14FF0000AC5F101030DF15C
:102EB000200801930DF1300B574512D1601B8CE6B1
:102EC0006B70E5E710F8013B190608D50CEB040E12
:102ED000B64503F07F033FF67EAE04F8013B0132B6
:102EE000DFE7B9F1000F03D098F90020002A17DBC3
:102EF000029BD3B11AF80B2004F8012B0022019B8E
:102F000018191044B0423FF666AE98F800000099D8
:102F100004F8010B2046039222F0D6FA039A1444D7
:102F20000AF1010A08F10108C6E798F8002055F8EF
:102F300022300093029B009845F82230FDF786F975
:102F4000421CDCE76FF00D0047E600BF2DE9F04FB3
:102F500097B000AFD7F880B03B62CBF3C003044614
:102F6000894690F802A0FA62BB6141B945780078C1
:102F70000AEB800020444D4517D8A0EB0409E37804
:102F8000FB61BAF1000F02D01BF0010F16D1FB69F3
:102F900053BBFB6A1BB1494620463A6A98474D46E7
:102FA00028465C37BD46BDE8F08F461C3046FDF72D
:102FB0004DF90130304409F10109DCE762682378FA
:102FC0007A62FA6A9900796104EB8301002A40F081
:102FD00001810E464FF000084D4601EB0A094E45AF
:102FE0004CD101EB0A0610E01BF0020FD1D0237880
:102FF0009A007A61626804EB83017A62FA6A002AB5
:1030000077D14D46904601EB0A061BF0050F0CBF29
:1030100002230123FB62FB6906EB430A0BF0020368
:10302000BB625645BCD016F8021B16F8013C54F89A
:103030002390994B994502D3984B994536D3BB6958
:10304000002B40D0786A1EF0D0FB00283BD0E94628
:103050008AB06A46924B53617B6AC2E906314FF4EB
:10306000007313848F4B42F8103F00234FF412512A
:103070008D4801F0B7F8023DCD46D2E716F8013B86
:10308000F96254F82300FDF7E1F8D7F88430F96AC3
:1030900001304BB1D7F8883098453EBFD7F884301F
:1030A00023F8180008F10108054498E7BB6923B12B
:1030B000786A1EF09AFB0028C9D11BF0010F05D1D8
:1030C000FB6AED1AADE7BB6A002BAAD04846FDF7B4
:1030D000BDF8D7F8843053B1D7F8883098453FBF52
:1030E000D7F88420431C22F8183008F10108054461
:1030F00097E7BAF1000F73D01BF0040673D0D046E7
:10310000002607F1480052463B61B96222F0DCF923
:10311000B96A3B6901EB0A02BA62FA69F9695200BD
:10312000FA60BA6A02EB41023A610BF00202BA603D
:103130003A69B96A8A4258D162781BF0020F18BF07
:1031400000217A6208BF4FEA5801B2181BF0010F44
:10315000D2B240F09F801BF0040F14BF4046002005
:10316000BB616270A070E17020463A6A7969FB6ABF
:103170009847051EFFF614AFBB69414623707B6A72
:103180003A6A6370FB6984F802A0E37007F14800B3
:10319000FB6A9847B0F10008C0F2BA807B69A9EBDE
:1031A0000A01C91AFB683A6AC91AD7E90A0398479B
:1031B0000028C0F2AF804FF0000BA84408EB0005D8
:1031C00007F1380AB34571D300213A6A0846FB6A11
:1031D0009847E5E656464FF0000807F1380092E7B9
:1031E0005646D04696E7B04694E7BA6A12F8021BF4
:1031F00012F8015CBA6254F82500274A904202D3C3
:10320000264A90421ED3BA6932B1786A7B601EF0BA
:10321000ECFA7B6800288BD1BA6802BB08F128025F
:1032200007F1300C08F10100944407F1580208F14D
:10323000020852FA80F00CF8101C5FFA88F800F8C7
:10324000105C75E7BA693AB1786A7B601EF0CDFA16
:103250007B6800287FF46CAF1BF0010F09D006F1EA
:10326000280207F13000711C161806F8205CCEB257
:103270005EE71BF0040F3FF45BAF08F1280207F193
:10328000300008F1010102EB000808F8105C5FFA59
:1032900081F84DE7002063E734590200D89C030011
:1032A000FA70030004000001D45E02001BF80A302B
:1032B00054F8239087F83730D7F884302BB3D7F8F9
:1032C00088309B4521D2D7F8843033F81B80012108
:1032D0003A6AFB6A07F13700984700281ADB054471
:1032E000B8F1000F06D14846FCF7B0FF00F1010825
:1032F0001FFA88F8414648463A6AFB6A9847002810
:1033000008DB05440BF1010B5CE74FF00008DEE73A
:10331000454645E6054643E6014B1860704700BF49
:10332000DC01002080B505460E461746984618F089
:1033300003FD034622F0F4FA0446DFF818904246F3
:1033400049F8003039463046A84754F8090001F0E2
:1033500075FE00BF080000002DE9F047058B04460C
:103360002807904611D4022905F0070540F0CC80CB
:1033700020461EF0E8FC78B10138218B042811D8D2
:10338000DFE800F0C2106D85950001290CBF45F003
:10339000100545F02005258388F31188BFF36F8F52
:1033A000BDE8F08701F0070AAA4500F0A5800027D4
:1033B000B9463E46A368002B00F0BC8041F00801EE
:1033C000218388F31188BFF36F8FA168002900F073
:1033D000BA800D68002900F0B68033465246204678
:1033E000D1F80480C047002D76D02B6829461D46B1
:1033F000F0E701F007035A1F012A1BD8002221F031
:103400000701062B276889B2C4E9002209D13B468F
:1034100003E0628B013262831B68002BF9D141F01B
:103420000201204621831EF08EFC00287AD041F054
:10343000200176E0042B0AD121F0070189B2204651
:1034400021831EF080FC10B141F020012183218BEB
:1034500001F0070AAA454FD00027B946AAE7236919
:1034600021F0070141F00601062DD3F800902183D9
:103470002DD1B9F1000F3FD041F00801218388F32D
:103480001188BFF36F8F20463949C84729E021F0E2
:103490000701236941F0040189B2042DD3F8049097
:1034A0002183E6D000274FF0040A3E4682E721F050
:1034B0000701236941F0050189B2052DD3F8089071
:1034C0002183D6D000274FF0050A3E4672E7002739
:1034D0004FF0060A3E466DE72B4687E7B9F1000F2D
:1034E000D1D1EFF31188202383F31288BFF36F8FBC
:1034F000238B23F008032383258BEA062ED525F0A2
:103500001003238305F007056669218B002EBFF6A3
:1035100070AF00232768C4E9003321F0070141F0B0
:1035200001012183218B4FF0000901F0070AAA4510
:103530007FF440AF002F9CD041F00801218388F335
:103540001188BFF36F8F002FC8D03D6839463346CE
:10355000524620461EF023FC2F46F4E7AB067FF5CB
:103560001BAF25F02003238305F0070500E700BF0C
:10357000CB1D020010B530B90B480C491EF0EFFC12
:103580006FF0150010BD836833B9074808491EF075
:10359000E6FC6FF00400F5E71B6813B1BDE81040CE
:1035A00018471846EEE700BFFC5E0200AE7103004C
:1035B000BF71030010B530B90B480C491EF0CFFCA9
:1035C0006FF0150010BD836833B9074808491EF035
:1035D000C6FC6FF00400F5E75B6813B1BDE810406E
:1035E00018471846EEE700BFFC5E0200AE7103000C
:1035F000BF71030070B508B101B132B90B480C4975
:103600001EF0ADFC6FF0150070BD84680CB1E5686C
:1036100035B9064807491EF0A2FC6FF00400F3E735
:1036200041F8040BE368BDE870401847FC5E0200F7
:10363000DD710300BF71030010B5044630B91048B6
:1036400010491EF08CFC6FF0150010BD006830B9F9
:103650000B480D491EF083FC6FF00100F5E783680D
:103660000BB11B6933B9064808491EF078FC6FF0AE
:103670000400EAE7616898470028E6D12060E4E7A3
:10368000FC5E0200097203001A720300BF7103009E
:1036900070B51346044630B9104811491EF05FFC5E
:1036A0006FF0150070BD006830B90C480D491EF070
:1036B00056FC6FF00100F5E782680AB1956835B9EC
:1036C000064809491EF04BFC6FF00400EAE70A4681
:1036D000AC466168BDE87040604700BFFC5E020018
:1036E000097203001A720300BF710300034A1368D2
:1036F0000BB9526813600020704700BFE001002042
:1037000030B50C460E4985B00291D0F8D41105466B
:10371000CDE9003100F1F0014FF0FF33204616F003
:10372000EBFF50B9012384F86C30D5F8D03123B1C8
:10373000204605B0BDE83040184705B030BD00BF99
:103740005720020038B50C46114605461EF085FC90
:10375000034638B9284604491EF07FFC0346002082
:10376000236038BD0120FBE7C39B03002DE9F04F28
:1037700001238146056946688FB005F57B77D7E858
:10378000EF2F002A03D1C7E8E13F0029F7D10CBF92
:103790001A46002240F0BB80B368B16A05F5F8789C
:1037A0001C1F10461EF0E0FC844279D8013A00F05C
:1037B000A880B2FA82F24FF00044D44072682046EA
:1037C000073222F00302C5F83C22B16A1EF0CCFC9D
:1037D000C5F84002B36A40466343033323F0030352
:1037E00002EB4302230103EB4403093323F00303F9
:1037F00003EBC403C5F834221A440832C5F830225A
:103800007368C5F83842C5F82C32424BC5E9AD6340
:10381000316800F0F1F9044600283FD1D9F810B022
:10382000D9F804A0D9F800300BF534790590049349
:103830004846DAE90734012B08BF103C21F0A0FB11
:10384000DAF82400344904AB009301EB80212346CD
:1038500048464FF4806217F087FE2021DAF82430C2
:103860002E4A06A81BF088FE06A9484617F028FF36
:103870002B490BF5307021F03CFBDAE90501836838
:103880005C684CB15B46274AA047044630B9DAE988
:10389000050183681B692BB96FF05704002129E0EB
:1038A00001327EE70122984704460028F6D11E4BDC
:1038B0002846C5F8D0311D4BC5F8D4311C4B0393B5
:1038C000D5F840320293D5F83C32CDE9008305F5B6
:1038D0001173B26AD5F8E81300F056F904460028CF
:1038E000DCD105F1F00016F0ADFF0028C5F8F003BB
:1038F0000ADB022138461EF0E4FB20460FB0BDE88B
:10390000F08F6FF00B04C9E76FF01504C6E76FF096
:103910007704F2E7AD200200909400203F7203008C
:103920009320020087200200353900003F22020068
:10393000F320020013B5044640B100230122CDE973
:103940000032074BD0E9091216F0AAFE236F1B685C
:1039500023B1606F02B0BDE81040184702B010BD3F
:10396000C39B030013B504460846216901F57B712A
:10397000D1E8AF1F022910D193B1A0B10121CDE947
:1039800000311346D0E9091216F08AFE074B98421F
:1039900008BF6FF00B0002B010BD6FF00F00FAE728
:1039A0006FF04C00F7E76FF00100F4E72EF8FFFF2F
:1039B0002DE9F34789461546066906F57B73D3E87A
:1039C000AF3F022B64D1136823B96FF0150002B02A
:1039D000BDE8F0871B78002BF7D0D6F8E8A3BAF142
:1039E000000F36D106F5EC774FF0FF324FF0FF3382
:1039F000384617F005FB30462A6801A9FFF7A2FEFA
:103A0000019C80461CB938461EF059FBDDE705F1E4
:103A100008032367AB6984F86CA06367646460B1D2
:103A200038461EF04CFB21463046A36E2A68FFF74D
:103A300067FE0020C9F80040C9E71F22296804F189
:103A4000480021F092FD384684F867801EF037FB6D
:103A5000EFE7304610491EF000FB04460028B4D0C2
:103A6000002705F108030367AB6980F86C704367B2
:103A700040641F222968483021F077FD2246012149
:103A8000304684F8677000F061F80028D1D09CE7D8
:103A90006FF00F009BE700BFC39B030010B50C46FF
:103AA000006900F57B73D3E8AF3F022B0FD189B1DA
:103AB0000A4900F5307021F048FA204620F043FD15
:103AC00078220021204621F026FD002010BD6FF055
:103AD0000F00FBE76FF00100F8E700BFC4470020CC
:103AE0002DE9F04F05460E4690460027D0F8C4A0B9
:103AF00085B0AAF5BE7421463046FCF795FBE0B9C7
:103B0000114BA4F1480B0293DAF810303246CDE99C
:103B1000008329464FF0FF335846AAF5E27916F0A4
:103B2000EBFD60B97823012203FB079383F86C2037
:103B3000DAF80C300BB158469847783417B105B015
:103B4000BDE8F08F0127D6E76D2202001FB51446AD
:103B500090B18AB1012912D10A4B00F1F001029310
:103B6000D0F8D431483201934FF0FF332046009310
:103B700016F0C2FD04B010BD6FF01500FAE700208A
:103B8000F8E700BF6D2202002DE9F04387B00E4632
:103B9000DDE90E811446DDE910251F4630B329B357
:103BA000DFF850C000F1F009002D08BF65469EB94E
:103BB000CDE9034400F5E2742046059620F05BFF52
:103BC00003ABCDE900432A463B464146484616F042
:103BD000B1FE07B0BDE8F083002241460E92484690
:103BE0002A4607B0BDE8F04316F0F4BF6FF01500A9
:103BF000EFE700BFE13A0000F0B504462B4A87B07A
:103C000004AB0E4692E8030083E80300002C49D081
:103C1000184616F04BFC0546B0B94FF0FF33E16C87
:103C200004F15407A163CDE9010000933846236DE8
:103C300004F1380220F037F9A06C1EF046FBC4F8FE
:103C4000BC0020B96FF00B05284607B0F0BDA06C92
:103C50001EF03BFBC4F8C0000028F3D0236CD4F85E
:103C6000BC10C4F890300423C4F89430C4F8AC30CD
:103C70000223E3620E4BB4F84820C4F88C10616C48
:103C8000236204F18C03C4F8A070A4F89820C4F84F
:103C9000B870C4F8A810A4F8B020C4F8A400A661B5
:103CA0002363D1E76FF01505CEE700BFD85F0200B0
:103CB0000C6402002DE9F047044607464FF0010965
:103CC000DFF8508014B93846BDE8F08794FAA4F5BF
:103CD000B5FA85F509FA05F32E0108EB05156FEA2B
:103CE000030A24EA03042B7B002BEBD058F80630A0
:103CF0001B694BB94644736804222846196807EAD1
:103D00000A071EF04AFBDDE7284698470028D9D16C
:103D1000F0E700BF5C5F020030B5002289B00F49B8
:103D20000F4821F0DBFA002200230024CDE906230E
:103D30000E230C4DCDE903344FF440722846CDE9F3
:103D40000144094B0949009417F030FD0849284601
:103D500017F0B6FC204609B030BD00BF753D00002D
:103D6000782C0020781B00208940000090980020CB
:103D70004B720300014817F03DBA00BF84070020D2
:103D80002DE9F047804621480F461EF0EAFA064624
:103D9000002833D000252846BDE8F087237B83B177
:103DA0002368DB680BB120469847636883F8069068
:103DB00023681B69D3B963680422204619681EF082
:103DC000ECFA013610345445E8D3B8F1000FE2D0D4
:103DD000002DDFD02846FFF76DFF0546002FF7D0F6
:103DE00000214FF4A47021F0A5F9F1E7204698478F
:103DF0000028E0D009FA06F31D43E2E705464FF03C
:103E00000109034CDFF80CA0DDE700BFFC470020F0
:103E10005C5F02006C5F0200014B53F820007047AA
:103E20004C64020008B5034608462BB1044A1360EF
:103E300000F070FC002008BD6FF01500FBE700BF2C
:103E40000C02002010B5044C237813B9034817F076
:103E5000D1F90123237010BDE668002084070020FB
:103E600010B5044609481EF07CFA3CB1084BD3E873
:103E7000EF1F0139C3E8E21F002AF8D1054821F0FD
:103E800039FABDE81040044817F0B4B9F4470020EF
:103E9000F8470020782C00208407002000200146ED
:103EA000034BD3E8EF0FC3E8E21F002AF9D17047B4
:103EB000F447002070B5FFF7F1FF0546074C084EA8
:103EC000B44200D370BD63685B792BB123685B6833
:103ED00013B12946204698471034F1E75C5F020091
:103EE0006C5F020010B5044C044920461DF0C4FD6F
:103EF000034B1C6010BD00BF6C060020386402003C
:103F0000EC47002000230D4A10B513700C4A4FF403
:103F1000004113600B4A0C481360FFF783FFFFF763
:103F2000E1FF0A4B0A4918468B4200D310BD1A1A0A
:103F30005C681211013222711033F5E7E768002046
:103F4000F4470020F84700205F2302005C5F020076
:103F50006C5F020001460022002301481DF0ADBD48
:103F60006C06002001481DF046BE00BF6C06002014
:103F7000024B014618681DF092BE00BFEC470020BE
:103F800001481DF0C7BE00BF6C06002070B5274B6E
:103F90001878002849D0FFF7E5FF0546002841D1F1
:103FA000234B244C1B68002B19DD21F050F94FF4F2
:103FB0007A72A0FB020302FB0131C30B43EA4143C7
:103FC000D4E900209B1A40F2E9324FEAD13161EB8B
:103FD0000001934271F1000101D3FFF76BFFD4E9B7
:103FE000003213F57A7342F10002C4E90032BDE8F1
:103FF0007040FFF7C5BF63685B7923B1236829462A
:1040000020461B6898471034B442F4D32846FFF783
:10401000AFFF094BD3E8EF1F0139C3E8E21F002AC5
:10402000BED0F7E7054C064EEEE770BDE66800200F
:10403000F4470020702C0020F84700205C5F02004D
:104040006C5F020070B50D4D297861B90120FFF752
:1040500097FE0B4C0B4EB44206D3FFF797FF002898
:10406000FBD101232B7070BD63685B791BB12368A2
:1040700020469B6898471034EDE700BFE7680020B2
:104080005C5F02006C5F020000212DE9F0470846EA
:10409000FFF776FE044658B340F267684FF0000918
:1040A00021F03EFC1B4B1C4A1B58136033B11B4BC9
:1040B0001B68092B02DD1A4817F09CF80025194FE0
:1040C000DFF85CA044B12046FFF7F4FD044618B9C0
:1040D0004FF0FF384FF0FF39FFF758FF064628B979
:1040E000B5B942464B46504617F0BEF83546E9E7AB
:1040F0004FF0FF384FF0FF39D2E72B689B691BB1B7
:1041000000222846114698471035BD42F5D3E8E70E
:10411000054DFAE708000000F0470020F8470020AE
:10412000840700206C5F02005C5F020013B5184832
:104130001EF017F9174B1B7873B1EFF3118420238E
:1041400083F31288BFF36F8FFFF720FF84F311888A
:10415000BFF36F8F02B010BD0F4B1B68002BF9D05F
:1041600050B9002200230D48CDE900234FF400424E
:10417000002318F0FBF8EDE70928EBD1074821F000
:10418000B9F8074802B0BDE8104017F033B800BFD7
:10419000F8470020E7680020F0470020782C002036
:1041A0008407002010B5064B04461B68984721463B
:1041B000A06004481DF000FDBDE81040FFF7B6BF49
:1041C0000C0200206C060020044A054B9B1AB1EB40
:1041D000D30F34BF52F8310000207047545E020004
:1041E0005C5F02002DE9F04F8FB0C1F34A2804AFA5
:1041F0000D469146B8607B600C0DB8F1000F63D09E
:1042000000264FF0040B4FF00A0A07F11403C7F819
:104210000C80C7E907667E620193CDF808B0CDF83F
:1042200000A007F11C0332464846F968FEF78EFEEF
:10423000B0F5006F03461CD36C468AB0D9F8041061
:1042400004AB26481A46C3E9050140F2FF71D96163
:104250004FF400711984224B42F8103F4FF4125171
:1042600033462048FFF7BEFFA5462C37BD46BDE8C4
:10427000F08FC0F30A0804F11700184420F007007B
:1042800080083B60FFF766FE68F35325044690B153
:104290003B6800F11001C7E9083607F11403F96122
:1042A000CDE900A3CDF808B048460F4AF96807F1F8
:1042B0001C03FEF74BFE68F353252A4620467B6815
:1042C000B9681EF089F8D0E704F1170020F0070064
:1042D0008008FFF73FFE0446EDE700BF6072030071
:1042E00004000001045F0200AD2302002DE9F04F3D
:1042F00087B00446DDE9105ADDE912799346984605
:104300000391BFB13B46524610210020CDF80090EA
:10431000CDF81490FEF748FCB0F5006F06460AD3BE
:1043200040F2FF730221174A174807B0BDE8F04F6B
:104330001EF0ABB83E4605F11700304420F00700F0
:104340008008FFF707FE04F007040BF0070BE400FA
:1043500044EA8B1444EA462444EA0554054640B135
:104360003FB13B4652463146CDF800901030FEF743
:104370001BFC434622462846039907B0BDE8F04F90
:104380001EF02AB89F720300045F0200406820B14B
:10439000034BC01A40F3CF0070474FF0FF30704717
:1043A000545E02000EB403B503AB53F8042B014670
:1043B0000448019301F0DAF902B05DF804EB03B0B0
:1043C000704700BFED240200CA0605D48B064CBF1F
:1043D00002490349FFF7E6BF704700BFC29B0300D5
:1043E000C19B03002DE9F04F8BB09B46169B9DF8B7
:1043F00054A00693179B04460593189B0D469046C0
:10440000199E0493BAF1000F00F09E8006F001039C
:10441000089306F00803079306F4807309931DF0D0
:10442000BAFF06F00209024600283BD020468F4919
:10443000FFF7B8FF0746B9F1000F08D016F0440F98
:1044400032D12A4620468A49FFF7ACFF0744089B31
:1044500053B1884B204653F82A20874B8749002ABE
:1044600008BF1A46FFF79EFF099B002B48D0079B09
:10447000002B62D1B8F1000F64D04246204680493B
:10448000FFF790FF0546069B3D44002B6BD1049B34
:10449000002B71D1F30700F1E28031462046FFF78F
:1044A00093FFD6E00746C6E7764B18680028CDD0C4
:1044B000754B4FF47A791B684FF03C0CB5FBF3F564
:1044C000B5FBF0F14FF4616300FB115509FB05F5F5
:1044D000B1FBF3F2B5FBF0FE03FB121100FB1E551E
:1044E000B1FBFCF309FB05F5B5FBF0F50CFB131173
:1044F00020460091CDE901E56449FFF753FFA5E7A8
:10450000079BEBB1624B204653F82A206149FFF725
:1045100049FF0546B8F1000F05D0424620465849EC
:10452000FFF740FF0544BBF1000FACD05A462046D0
:104530005949FFF737FF0544A5E74FF0000BE1E7C6
:10454000079DE7E745469EE7BBF1010F069B06D1B5
:10455000002B64D1049B002B7BD000250CE0002BAA
:10456000F8D04E485CE04E48069B22464D491DF06F
:104570000BF9049B002B68D0DFF83881DFF8389105
:10458000049F3146102F204628BF10274FF0000B04
:10459000FFF71AFF5D4545DC059B494620461A7822
:1045A000FFF700FF4FF0010B1BF0070F03D141464F
:1045B0002046FFF7F7FE5F453BD9059B494620465D
:1045C00013F80B20FFF7EEFE0BF1010BBBF1100F00
:1045D000EAD14FF0000B20463349FFF7E3FE5A467D
:1045E000059B20469A5CA2F120015F2928BF2E225C
:1045F0002E49FFF7D7FE0BF1010BBBF1100F1DD0B9
:104600001BF0070F03D141462046FFF7CBFE5F4565
:104610005A46E5D841462046FFF7C4FEEBE720485E
:104620005546A1E741462046FFF7BCFE0BF1010BC2
:10463000B0E720461E49FFF7B5FEC5E7059B3B44A2
:104640000593049BDB1B04939AD1BAF1000F7FF40E
:1046500021AF20460BB0BDE8F04F1DF03ABF204619
:10466000054A0649FFF79EFE17E700BFDC7203000C
:10467000E07203005C640200D7720300907C0300C8
:10468000057303000448002000480020E97203007D
:1046900070640200097303000F7303001B250200FE
:1046A000ED2402006D5700001A7303001C73030011
:1046B0008B9B03008D9B03001473030042F20F7366
:1046C00073B58B4228BF0B46056804460521684632
:1046D0000D4A1AF051FF0646636828460B225B68B4
:1046E0000A491DF0E8FE63683246694628465B6861
:1046F0001DF0E1FE63681B2228465B6804491DF03B
:10470000DAFE02B070BD00BF267A03003B730300DF
:104710001F73030000210123064A904206D8064A6F
:1047200001B901231360054B18607047012140084F
:104730005B00F2E740420F000048002004480020E0
:10474000F8B50D460446064F4618B44201D1284636
:10475000F8BD14F8011BBB6801485B689847F4E793
:10476000A45A0200014B036000207047B8640200A5
:1047700008B504481DF062F8BDE8084002481DF085
:104780005DB800BF81730300B6730300014818F0E1
:10479000CDB900BFB864020038B5044618B90F4B54
:1047A0000F485B6898476168B1F5683F10D0B1F574
:1047B000680F0DD00B4DA9420AD011F46861206832
:1047C00007D00146084820F00FFA002323606560F7
:1047D00038BD142220F09FFEF9E700BFE805002055
:1047E000E47303002C5F5CA9344D002008B560B36E
:1047F0004368B3F5683F0ED0B3F5680F18D0144A7C
:10480000934220D000684FF0FF324FF0FF3316F094
:10481000F7FB58B115E001220368D3E8EF1F002928
:1048200003D1C3E8E02F0028F7D10AD1002008BD4A
:104830000368084A1B7803F5807352F82330002B75
:10484000F4D00548F3E70548F1E76FF4E040EEE700
:104850002C5F5CA900000350E98FFFFFEA8FFFFF88
:1048600008B520B34368B3F5683F09D0B3F5680FC6
:1048700013D0114A93421DD0006816F039FC14E0A1
:1048800000220368D3E8EF1F012903D1C3E8E02F1A
:104890000028F7D109D0094808BD00210368084A5B
:1048A0001B7803F5807342F823100020F4E76FF4BF
:1048B000E040F1E70348EFE72C5F5CA9E98FFFFFD9
:1048C00000000350EA8FFFFF10B5044618B91D4BD6
:1048D0001D485B6898476368B3F5683F2FD0B3F510
:1048E000680F2CD0194A934219D1236803BB4FF0AB
:1048F000FF324FF0FF332146154816F053FB08B93D
:1049000023681BB90F4B13485B689847142200219A
:10491000206820F000FE4FF46863636008E0B3F5A0
:10492000683F0DD83A2B03D040F6BA629342DED1ED
:10493000206820F0A4F9636843F03A03636010BD77
:10494000054AF3E7E8050020E47303002C5F5CA947
:10495000344D00200A7403003A00003A08B50649B5
:1049600040231422054820F031F9BDE808400449ED
:10497000044818F09FB900BF34480020344D00208F
:10498000C0640200D46402002DE9F84F80460C4652
:1049900000AF002965D0D1E90012E9468AB0A368CA
:1049A0006D464FF0050A2E463748C5E90723C5E98D
:1049B000050146F810AF002332464FF42151334829
:1049C000FFF710FCD4E90312CD466369AD463048C9
:1049D000C5E90723C5E90501C5F810A00023324643
:1049E0004FF421512948FFF7FDFBCD46E369012132
:1049F000284A26481DF049FD264600254FF00A0AA0
:104A0000DFF8A0B0E946D6E908E0D6E90A138EB08F
:104A10006A46C2F81CE005F1010EC2E908E0A81CD4
:104A2000C2E90A01E91CC2E905B5C2E90C1342F862
:104A300010AF002345F2400114480435FFF7D2FBC4
:104A4000102DCD4606F11006DCD1236E0121124A4D
:104A50000E481DF01AFDA3690121104A0B481DF0F4
:104A600014FDB8F1010F07D1EFF305830C4A41465D
:104A70000648103B1DF009FD2146404616F0D0F8CF
:104A8000BD46BDE8F88F00BF37740300445F0200E5
:104A90006674030095740300E7740300F674030062
:104AA00024750300A474030030BFFFF7FDBF00BFEF
:104AB0002DE9F04105460B4EDFF83080324606EB1B
:104AC0000807CC1B2046084920F0FEFCA0194246EE
:104AD0000021083C20F01FFDC5F8A84007F10800A0
:104AE000BDE8F08100000000B05F0200040000009B
:104AF000054B9A699B689A421FBF044A536843F06A
:104B000080535360704700BF8854002000ED00E0E0
:104B100070B52A4C06460D4629482A491DF085FDE8
:104B2000A36ADB0647D5264827491DF07EFD1120E4
:104B3000A36A1C0704D5224824491DF076FD1220E3
:104B40001E4CA36A990712D521491D481DF06DFD21
:104B5000636BA26A120609D501211E4A18481DF08E
:104B600094FC1EB1A36A23F08003A3621320134CAC
:104B7000A36ADE0704D5124817491DF056FD14201C
:104B8000A36A9C0604D50E4814491DF04EFD15205D
:104B90000A4B9A6AD10658BF9A6A9A6A920642BF2D
:104BA0005A6A22F400525A629A6A42F0FF029A62EA
:104BB00000232B7070BD1020BAE700BF00ED00E0AD
:104BC000445F0200377503004D75030080750300D4
:104BD00093750300AB750300C1750300E075030016
:104BE00010B5244C244925481DF01FFDA36A9901E6
:104BF0003ED5224822491DF018FD1E20A36ADA0185
:104C000004D51E481F491DF010FD1F20194CA36A32
:104C1000DB0204D519481C491DF007FD0220A36AD8
:104C20001C0304D5154819491DF0FFFC2120114C27
:104C3000A36A590304D5114815491DF0F6FC22203A
:104C4000A36A9A0304D50D4812491DF0EEFC2320F7
:104C5000084CA36ADB0304D508480F491DF0E5FCA6
:104C60002420A36A6FEA03436FEA1343A36210BDD3
:104C70001D20C3E700ED00E00F760300445F020053
:104C8000277603003A760300547603007E7603000D
:104C90009C760300C1760300DB76030070B5294CD7
:104CA00006460D46284829491DF0BFFCA36AD904D1
:104CB0003CD5254826491DF0B8FC1720A36A1A05E3
:104CC00004D5214823491DF0B0FC18201D4CA36ACF
:104CD0009B0512D51C4820491DF0A7FCA36BA26AB6
:104CE000100409D501211D4A17481DF0CEFB1EB145
:104CF000A36A23F40043A3621920124CA36A590546
:104D000004D5114816491DF090FC1A20A36ADA0553
:104D10000ED50D4813491DF088FC1B20094A936AE3
:104D200043F47F43936200232B7070BD1620C5E7C8
:104D3000A36A9B04F2D504480B491DF076FC1C20A5
:104D4000ECE700BF00ED00E0445F020006770300DF
:104D50001C770300807503002D770300467703005E
:104D60005B77030076770300E07503002DE9F041DF
:104D70009CB0624B0546D3F80480002600AFC8F310
:104D8000080486F31188BFF36F8F02F07F43B3F1FD
:104D90007F4F07D102F00C03082B12D15849594814
:104DA0001DF043FC002635460023FB71E31E092B52
:104DB00000F28380DFE803F00A797C7581818181CC
:104DC000817F10074CBF0D460126EDE74E494D4847
:104DD0001DF02BFC0023494CFB71E36A9A0705D5B3
:104DE0004A4948481DF021FC002431E0E36A002BC9
:104DF00001DA4749F5E7E36A5B00F5D545494148E3
:104E00001DF013FC6369AA6943F480736361BFF307
:104E10004F8FBFF36F8F636932F8022C23F48073D6
:104E20006361BFF34F8FBFF36F8F4DF602739A42EA
:104E300007D0A36ADBB23BB30120F91DFFF768FE80
:104E400031E02B680121344A2E481DF01EFB2C68EE
:104E5000FB79ABB96822294607F1080020F034FB42
:104E60007B6A002E45D0C3F3080222B96FEA5323B0
:104E70006FEA43237B62204607F10801FFF784FDB8
:104E80007037BD46BDE8F081A36A13F47F4F04D0AC
:104E90000120F91DFFF702FF05E0A36AB3F5803F8B
:104EA000A2D3FFF79DFE0446D2E70020F91DC5E717
:104EB0000020F91DEEE7194993E7194A18F4F87F25
:104EC000E8468AB0174B18BF13466A461649103C8D
:104ED000C2E905134FF400731384144BD46142F8F4
:104EE000103F00234FF411510648FFF77BF9C546E8
:104EF0007AE723F4FF7323F00103BBE700ED00E042
:104F0000BC770300445F0200E7770300FE770300ED
:104F10001F7803002D7803004C78030068780300A5
:104F2000A37703008E7703008C7803000400000150
:104F3000064B5A6942F010025A615A6942F4806283
:104F40005A615A6922F008025A61704700ED00E088
:104F5000EFF30880EFF3098101B57246FFF706FF12
:104F600001BD00BF002080F31488BFF36F8F0020C5
:104F700080F30A8880F30B88104880F308880020AB
:104F80000F49087007F07CF900200E490860BFF354
:104F90004F8F00F02DF8202080F311880A484FF43D
:104FA0000061401880F30988EFF314800221084360
:104FB00080F31488BFF36F8F00F00EF9D0C4002087
:104FC0008B6C002094ED00E090AB0020002318468D
:104FD0000649D1F89020C2F30722934200DB7047C4
:104FE000C1F89830C1F8A0000133F6E700ED00E009
:104FF00010B572B6002484F31388FFF7E7FF234649
:105000004FF0FF300C4A03F120010133102B42F81E
:105010002100F8D100234FF0FF30074A03F160016F
:105020000133102B42F82100F8D162B6BFF34F8F45
:10503000BFF36F8F10BD00BF00E100E0084B9B681D
:1050400083420BD1EFF3058343B1064B5A6842F01C
:1050500080525A605A6A22F400425A6216F072BEB6
:105060008854002000ED00E025498A6882F8F5E0C8
:105070004FF030001044EFF3098C80E8F01F1EF071
:10508000100F03D102F1B40080EC108A202080F3CD
:105090001288BFF36F8F1B4F4FF000668A698A60DA
:1050A0003E60D2F8A800184C206092F9F5E0D2F8E2
:1050B000AC000023C2F8AC3080F311881EF0100F52
:1050C00003D00023E1EE103A03E002F1B40090ECCB
:1050D000108AEFF3148323F0040383F31488BFF3DF
:1050E0006F8F02F1300090E8F01F8CF3098802F115
:1050F000000004B51DF0A1FABDE8044070470000AF
:105100008854002004ED00E0504D00201EF0040FF4
:105110000CBFEFF30880EFF30980816911F8021CDE
:105120000229FFD001B572461DF074FA01BD00BF1F
:1051300040B2002807DB01234109034A00F01F00A9
:10514000834042F82130704700E100E040B200287F
:105150000CDB01220649430900F01F008240203386
:1051600041F82320BFF34F8FBFF36F8F704700BF0D
:1051700000E100E0054B420953F82220012300F032
:105180001F0003FA00F01040704700BF00E100E08C
:1051900040B2002801F10101ACBF00F16040064BB4
:1051A0004FEA4111C9B2ABBF00F5614000F00F00FA
:1051B00080F800131954704714ED00E0044B054AC1
:1051C00023F07F039360BFF34F8FBFF36F8F704760
:1051D0000000000000ED00E008B5FFF7EFFF104B06
:1051E000D3F8882022F47002C3F88820D3F88820EE
:1051F00042F4A002C3F888204FF04042C3F83422A2
:10520000BFF34F8FBFF36F8F0023E1EE103A15F01D
:10521000F5FD16F0EFFE00F07DF815F033FE00BF4F
:1052200000ED00E042F8203C009B0D4942F81C3C98
:10523000019B21F0010142F8183C029B42F8081C36
:1052400042F8143C4FF0807342F8043C0023C0F84D
:10525000AC304FF47D43203A0265C0F8F43070471B
:1052600025330000104B9B6883421AD1EFF3058071
:10527000B8B9EFF31181202282F31288BFF36F8F48
:105280001A7B22F002021A73EFF3148323F0040353
:1052900083F31488BFF36F8F81F31188BFF36F8F8F
:1052A00070476FF015007047885400200E46154671
:1052B000002300B5E1EE103AEFF3148323F004036A
:1052C00083F31488BFF36F8FBFF36F8F0A4BD0F84F
:1052D000A8209860094B1A60D0F8983083F30B88A7
:1052E0002C4686F309880020054B9847204600216C
:1052F00000220023034C204788540020504D0020FA
:1053000045260200253300001022014B1A61704728
:1053100000ED00E0002320210348C2180133452B93
:1053200082F80013F9D1704700E100E008B5EFF30F
:105330000583064A103B02EBC30152F8330049686B
:105340008847BDE80840FFF7D3BB00BF645B02009D
:105350001FB5094C094A23460121094800F012F9FA
:1053600000230393074B0121E41A01A8019302943F
:1053700000F012F904B010BD00000720000000206A
:10538000E46402004809002010B50C7A0B6804F0B0
:105390001F0223F01F031A43CB68640923F01F0385
:1053A000054943EA440343F00103C1F89800C1F8FA
:1053B0009C20C1F8A03010BD00ED00E010B50A4BF4
:1053C000D3F89030C3F30723013B984208D9012159
:1053D0000346064A06481DF058F86FF0150010BD48
:1053E000FFF7D2FFFBE700BF00ED00E0A37803006A
:1053F000245F02002DE9F04F8946144606464FF01F
:105400000008514D85B0C84527DAD6F804A0BAF196
:10541000000F44D0BAF11F0F17D91AF01F0F14D183
:10542000D6F800B01BF01F0F0FD158461DF046F9FB
:1054300007460AEB0B0001381DF040F9874210D0F7
:105440006FF01507414A3B4601E04346404A0121BF
:1054500040481DF01AF86FF01504204605B0BDE86D
:10546000F08F17F1160FEDD0BC42EBDDC5F8987048
:10547000D5F89C10C5F89870D5F8A03021F01F0120
:1054800043F01F0BD6E900321A44994202F1FF3A69
:105490001DD1D34507D13146F8B21DF018F908F1F6
:1054A00001080C36AFE73146C5F89870D5F89C3046
:1054B00022F01F0203F01F031343C5F89C30E0B233
:1054C0001DF005F910F1160FC5D0441CE7E7C5F82B
:1054D0009870D5F8A020013B23F01F0302F01F02B3
:1054E0001343D3453146E0B2C5F8A030E8D01DF0F3
:1054F000EEF810F1160FAED0C5F89870D5F89C20D4
:105500009DF808300BF1FF3B62F304038DF808307F
:10551000D5F8A0309DF808205B0863F347128DF89A
:105520000820D6E900321344009323F01F035B44A4
:10553000A3EB0A03013023F01F036946C0B20393B3
:10554000FFF73CFFBEE700BF00ED00E0EC78030092
:10555000C9780300245F02000522044BC3F894209D
:10556000BFF34F8FBFF36F8F704700BF00ED00E0B8
:10557000BFF35F8F0022024BC3F89420704700BF37
:1055800000ED00E010B5034C2278FFF733FF2070E8
:1055900010BD00BFE96800202DE9F74F294D8A466C
:1055A00006464FF00008AB46274FD0451BDAD6F829
:1055B0000490B9F1000F3FD03168084601911DF009
:1055C0007DF80199044609EB010001381DF076F8D9
:1055D00084424FF014021D4B08D002FB08F36FF019
:1055E00015024BF8032003B0BDE8F08F14F1160F3D
:1055F0002C60F8D01978A142F5DD02FB08B0C7F89D
:105600009840C7F89840D7F89C4000F10801007B0B
:1056100064F304000871D7F8A0000C79400860F327
:1056200047140C71D7F89C1021F01F016960D7F85E
:10563000A01021F01F01296108F1010814350C3672
:10564000B3E700BF544D002000ED00E0E968002002
:10565000F0B54149414CD1F890302568C3F3072398
:105660009D4287B075D80020FFF782FF3C4BC1F800
:10567000C030854216D13B4C01A82570FFF772F867
:1056800000250646384FAE4213D100202378324918
:10569000D1F89020C2F30722934254DBFFF75CFF5E
:1056A00000202FE0616801EB0011FFF76DFE013073
:1056B000DFE70199280101EB0513DA683A40B2F5FA
:1056C000001F21D0B2F5800F2BD0B2F5801F38D14A
:1056D0005A689B680958013B22F01F0003440120CF
:1056E000844623F01F0340EA4C10CDE902218DF8D7
:1056F000100002A920780593FFF760FE00281DDA4C
:105700006FF0150007B0F0BD5A689B680958013B5F
:1057100022F01F0003444FF0020C012023F01F036E
:10572000E1E75A689B680958013B22F01F000344D7
:105730004FF0000C062023F01F03D4E72378013339
:10574000237001359FE7C1F89830C1F8A0000133FC
:105750009EE74FF0FF30D5E700ED00E0F064020077
:10576000AAFF4400E96800200000F0FFF0B587B010
:1057700007460E4614460021102268461D461FF0BB
:10578000CAFE02238DF80230054B2A4621466846A0
:10579000CDE90476019319F0B5FF07B0F0BD00BF65
:1057A0000727020008B5024819F0C6FEFEE700BF51
:1057B0001E79030008B5024B1B689847002008BDFE
:1057C000684D0020034B044A1860937843F00203AD
:1057D00093707047684D00204802002008B50548C6
:1057E0001CF02CF8002383F31188BFF36F8F042380
:1057F000184602DF2379030008B50649064821F060
:105800000701C1F1005202F5E0221BF065FF002004
:1058100008BD00BFA30E01206C4D002070B541698A
:105820000446867A0A4D59B1437ADB0706D42C2305
:1058300003FB06535B6A1B689B6898470023636100
:105840002C20214606FB0050BDE870401FF0BFBA77
:10585000140800202C22024B02FB0030704700BFCE
:10586000140800202C21827A054B01FB02339A6A2E
:105870001B7F801A1B3323F00303B0FBF3F0704748
:105880001408002038B52C24827A064B04FB02331E
:105890005B6AD3E901240C601568FFF7E3FF04FBA2
:1058A000005038BD140800202DE9F04385B00546AE
:1058B000684690461C4603911FF0CBFCDDE900676B
:1058C000EFF31189202383F31288BFF36F8F6B8B63
:1058D000002B41D02A8B9A4225D90022002328464A
:1058E00015F056FC0446F0B189F31188BFF36F8FB1
:1058F000039B002B41D032463B4668461FF0CDFC4F
:105900002C21A27A254B204601FB02335B6A03A9B6
:105910001B681D68DDE90023A847606170BB204655
:10592000FFF77CFF24E0698B4B1E6B8389F31188A2
:10593000BFF36F8F2B7F2A8BAC6A1B3323F00303DB
:10594000521A02FB0344154B154AEB1A9B105343A2
:10595000A3722B7FE372CBE789F31188BFF36F8FBC
:1059600023464246284615F013FC04460028BFD1C2
:105970000024204605B0BDE8F083636101230025C3
:105980002381039B29466382E27A656004F1180053
:105990001FF0C1FD63692582E360EAE71408002077
:1059A000A38B2EBA70B52C250B4C00B970BD037AB1
:1059B0004668013BDBB20372002BF7D1C360436042
:1059C000837A05FB03431B6A13B198473046ECE723
:1059D000FFF724FFFAE700BF14080020054B03EB94
:1059E0008000D0F8003223F0E04343F04053C0F889
:1059F0000032704700258450052370B5144D154EB4
:105A00002C780134B4FBF3F303EB8303E41A1EF0A8
:105A1000E7F8114A137823B156F82430C01A072842
:105A200014D94FF05023D3F8141141B10021C3F819
:105A30001411D3F814312C700CB9012313702C7885
:105A40001EF0CEF846F82400012070BD0020FCE7CF
:105A5000EB680020784D0020EA680020012208B59C
:105A60000B4B0C49C3F8002502230020C1F8D036A7
:105A7000FFF7B4FF1046FFF7B1FFC1F80427C1F8E4
:105A80000429C1F8002BBDE8084000F0A5B800BF0C
:105A9000001000500040005007B50DF1070006F05F
:105AA00047FD0F4B984218D14FF480620D4B0E49C1
:105AB000C3F8B8254FF40062C3F83C259DF80700F1
:105AC0001EF0B9F89DF8070008491EF0AFF8012054
:105AD0009DF80730984006F025FD03B05DF804FB03
