:020000040000FA
:10000000B0BA0020255B000087C60200115B00002B
:10001000115B0000115B0000115B0000115B000030
:10002000000000000000000000000000CD5C0000A7
:10003000115B000000000000295C0000115B000063
:10004000ED5E0000ED5E0000ED5E0000ED5E000084
:10005000ED5E0000ED5E0000ED5E0000ED5E000074
:10006000ED5E0000ED5E0000ED5E0000ED5E000064
:10007000ED5E0000ED5E0000ED5E0000ED5E000054
:10008000ED5E0000ED5E0000ED5E0000ED5E000044
:10009000ED5E0000ED5E0000ED5E0000ED5E000034
:1000A000ED5E0000ED5E0000ED5E0000ED5E000024
:1000B000ED5E0000ED5E0000ED5E0000ED5E000014
:1000C000ED5E0000ED5E0000ED5E0000ED5E000004
:1000D000ED5E0000ED5E0000ED5E0000ED5E0000F4
:1000E000ED5E0000ED5E0000ED5E0000ED5E0000E4
:1000F000ED5E0000ED5E0000ED5E0000ED5E0000D4
:10010000ED5E0000ED5E0000ED5E0000ED5E0000C3
:10011000ED5E0000ED5E0000ED5E0000ED5E0000B3
:10012000ED5E0000ED5E0000ED5E0000ED5E0000A3
:10013000ED5E0000ED5E0000ED5E0000ED5E000093
:10014000ED5E0000ED5E0000ED5E0000ED5E000083
:10015000ED5E000053B94AB9002908BF00281CBF52
:100160004FF0FF314FF0FF3000F00CB8ADF1080C4C
:100170006DE904CE00F022F8DDF804E0DDE90223A9
:1001800004B07047704700BF10F8012B11F8013B15
:10019000012A28BF9A42F7D0D01A7047034611F8B7
:1001A000012B03F8012B002AF9D17047034613F8FD
:1001B000012B002AFBD1181A013870472DE9F047AE
:1001C00086468C460846089E154674461946002BFE
:1001D00040F0C1808542B2FA82F245D94AB1C2F1FB
:1001E000200300FA02FC954094402EFA03F343EA00
:1001F0000C0C4FEA154EA8B2230CBCFBFEF80EFB0C
:1002000018CC08FB00F943EA0C43994528D9EB18B0
:1002100008F1FF3704D2994502D9A8F102072B440F
:10022000A3EB0903A4B2B3FBFEFC0EFB1C330CFBD7
:1002300000F044EA0344A04214D92C190CF1FF3316
:1002400004D2A04202D9ACF102032C44241A43EA9E
:1002500007401EB1D440002334607360BDE8F087CE
:100260004746DDE76346F1E792BB431B01214FEAB6
:10027000154EAFB2200CB3FBFEFC0EFB1C330CFB87
:1002800007F840EA0343984561D9EB180CF1FF30B9
:1002900004D2984502D9ACF102002B44A3EB080329
:1002A000A4B2B3FBFEFC0EFB1C330CFB07F744EAC5
:1002B0000344A7424DD92C190CF1FF3304D2A742B5
:1002C00002D9ACF102032C44E41B43EA0040C0E72E
:1002D000C2F120039540944020FA03F12EFA03F373
:1002E0004FEA154E9040AFB20343B1FBFEFC0EFB4C
:1002F0001C10190C0CFB07F841EA0041884522D973
:1003000069180CF1FF3004D2884502D9ACF1020023
:100310002944A1EB08019BB2B1FBFEFC0EFB1C11B2
:100320000CFB07F743EA01439F420ED9EB180CF18F
:10033000FF3104D29F4202D9ACF102012B44DB1BF6
:1003400041EA004193E76046E3E76146F7E760462C
:10035000A4E76346B8E7834206D916B900210846E8
:100360007CE7C6E900E0F9E7B3FA83F78FB9834287
:1003700001D3724508D8BEEB020460EB03030120F1
:100380009C461EB9002169E73846FAE7C6E9004CE9
:10039000F8E7C7F1200CBB400EFA07F522FA0CF47F
:1003A0002EFA0CF1BA401C4320FA0CF3B8404FEA85
:1003B000144901431FFA84FEB3FBF9F809FB183016
:1003C0000B0C08FB0EFA43EA00439A4540D9E318A8
:1003D00008F1FF3004D29A4502D9A8F10200234463
:1003E000A3EB0A0389B2B3FBF9F809FB183308FB46
:1003F0000EFE41EA03418E452CD9611808F1FF3306
:1004000004D28E4502D9A8F10203214443EA0040F8
:10041000A1EB0E01A0FB02984145CE46434602D314
:1004200006D14D4504D20138B9EB020E68EB040346
:10043000002EA7D0B5EB0E0261EB030101FA0CFC14
:1004400022FA07F3F9404CEA0303C6E9003199E7C1
:100450004046C5E74346D9E70023064A52F8041B45
:10046000096829B90133DBB2052BF7D101207047A8
:1004700000207047302D002001482AF0ACBD00BF9D
:100480004807002001464FF4A07270B50446134897
:100490002EF0CFFB12482AF09EFD124A1368591C19
:1004A0001160C822B3FBF2F002FB1033A3B91A4665
:1004B000A51E0E3435F9020F0028B8BF404286B29F
:1004C000B342B8BF3346A54212FA80F2F2D1BDE87A
:1004D000704005482BF060B970BD00BF6E51002020
:1004E000A00600202C2D00207A6D030001480FF09B
:1004F0008FB800BFA82D00201FB501AB07CA83E845
:10050000070006482AF069FD024618B91846044952
:1005100006F0C8FA05B05DF804FB00BFC82D002046
:10052000AD0C000070B50C6892B02378064607AD9C
:10053000032B2ED8DFE803F00227292B1849284681
:10054000FFF72CFEA379059562781E210492A2780C
:100550000AA80392E27802922279019262790092CB
:10056000104A28F087FE304608F032FC0AAA0146FD
:100570000D482BF011F901220C4B0D481A702AF08E
:100580002AFD12B070BD0B49D9E70B49D7E70B49DB
:10059000D5E70A2128460A4A28F06CFED2E700BFB8
:1005A000AB6D0300CD6D0300F06D0300FC53002024
:1005B00060070020B26D0300B96D0300C36D030036
:1005C000A7A20300F7B5054619482AF006FD84B234
:1005D000A5420F46064609D8164800212AF018FD04
:1005E000154803B0BDE8F0402AF012BD2C1BA4B2A0
:1005F000042C02D121460F48F3E700210D482AF0D0
:1006000007FD0D482AF004FD01220C4BD3E8EF1F33
:10061000002903D1C3E8E02F0028F7D106D12A46EC
:10062000394607480094B3B22BF0B6F803B0F0BDDA
:1006300070010020D82D0020D42D0020D02D0020C6
:10064000206E0300F7B54B790F4F052B28BF05230C
:10065000888A3B700D4D0B690D4E0C460D492B6081
:100660003080FFF7AFFF0C4B1B683BB93B780B4862
:10067000009333882A6861792BF08EF8084803B01C
:10068000BDE8F0402AF0A7BC270500207401002037
:100690006A510020566E0300B82D00205E6E0300E4
:1006A0003007002070B505460A460C460146114841
:1006B0002BF072F8002110482AF0AAFC0F4B104EC4
:1006C0001B7856F82330AB4202D10E482AF0A0FC2A
:1006D0003368AB4202D10C482EF0BDF93E2C01D05C
:1006E000442C04D10948BDE870402AF074BC084885
:1006F000F9E700BFA06E0300E02D002026050020D2
:10070000302D0020BC2D0020C80B0020D00600207A
:10071000E80600202DE9F043464E474F474D8FB085
:1007200030684FF4A472002301A90EF01FFC48B1F9
:100730000022002338462AF055FCF1E7042000216E
:100740002EF0A9F828462AF048FC0028F6D13C4BA8
:100750001C78012C38BF0124013C14F0FF04DFD0C9
:100760000421684606F0A6F8009BB3FBF4F204FBF4
:100770001233344A0133DBB21370334A52F82390F8
:10078000B9F1000FCCD0BDF804301BB92F482BF0C5
:1007900003F8C5E7002200232D482BF0FAFF04469A
:1007A00098B92C482AF019FC0028B9D02A4A1368B5
:1007B000591C11603222B3FBF2F002FB1033002B04
:1007C000AED126482AF0E8FFAAE725482AF005FC22
:1007D00038B924482AF001FC18B9204605F0FAFE81
:1007E0009EE704F10C0840460D212CF00BF8BDF8F3
:1007F0000420404603A9DFF874802CF014F801218E
:1008000028462AF005FCB8F80020214648462CF07E
:1008100037FA021E04DA494613482AF0BDFFDCE726
:1008200001210C482AF0F4FBB8F800300B44A8F87A
:10083000003075E7E42D002078070020DC2D002033
:100840002705002026050020302D0020D06E030053
:10085000A8070020BC2D0020282D0020EB6E0300EF
:10086000603200205C320020146F030068510020C9
:100870002DE9F0414FF47A752EF09AF82F46A0FB3F
:10088000050605FB0166C30B43EA464313F5FA640C
:100890004FEAD636DFF8388046F10006FFF7DCFD78
:1008A00008B1BDE8F0812EF083F8A0FB070305FB3B
:1008B0000131C30B43EA4143A3424FEAD131B14175
:1008C000EFDA40F6CD42002340462AF08BFBE5E705
:1008D000E806002013B5014604460F482AF05CFFE5
:1008E0000E4BD3E8EF1F0131C3E8E21F002AF8D115
:1008F0000B482AF070FB0B4B1B68A34209D1002266
:1009000000230948CDE900234FF4804200230FF073
:1009100057FD02B010BD00BF376F0300C02D00208F
:10092000D0060020302D0020C80B00202DE9F04F0C
:100930000025DFF80CA2EFB04FF0FF324FF0FF338D
:1009400011A973480EF012FB72482AF046FB0121F0
:10095000044650462AF048FBBDF84410002973D0E5
:10096000A3B2994228BF194613A8B0FA80F35B09D5
:1009700002931EAF0DF1220301934FF4A0720023E6
:10098000009704F067FC002809DA634A0021136825
:100990003846013313604FF4A0722EF071F95046BF
:1009A00000212AF021FBBDF84420A0B2031D9A4289
:1009B0002AD100F1080311AA11A9084413445A7856
:1009C000047A5B8844EA022444EA034421465348FB
:1009D0002AF01EFB524A1368591C11606422B3FBB3
:1009E000F2F102FB11337BB909A8014624FA03F2A4
:1009F00002F00102013330321E2B00F8012BF5D139
:100A000048488D772AF0C8FEDFF838B1464C218877
:100A1000BBF8003089B226889BB2994237BFB6B284
:100A2000BBF80030BBF800301036F61AB6B23046CC
:100A3000C6F10F06B6B201F043FE092E0AD83B4AB2
:100A400013680133136077E7394A084613680133A6
:100A500013608AE70026374AB84623889BB202EB28
:100A60008311A1F1040E3C3138F8020B00EB004079
:100A70004EF8040F7145F7D10133103603F00F0320
:100A8000A02E238007F12007E6D12B490B6803F144
:100A90000109C1F80090C821B3FBF1F001FB10334C
:100AA000002B7FF449AFB4F800C0DFF88480BBF8B6
:100AB0000000D8F80030184F1C4E1FFA8CFC80B292
:100AC0008445059331683B6818D32488BBF800201F
:100AD000A4B292B2A41ACDE9063101F0B1FADDE96F
:100AE00005230799CDE901400091144849462AF0B1
:100AF00053FEC8F800503D6035601DE7BBF800208C
:100B0000248892B2C2F1100212FA84F4E3E700BF23
:100B10001006002070010020142D0020D42D00208C
:100B2000102D0020516F0300B05200200C2D00202A
:100B3000182D0020E82D0020082D0020746F0300E0
:100B400098FB0200AE52002010B5044601210A486D
:100B50002AF04AFA094B1A78094B53F82230A3427B
:100B600003D1002107482AF053FABDE810400021C4
:100B700001482AF039BA00BFA8FB02002605002070
:100B8000302D0020DC2D002008B50B482AF004FE93
:100B90000A482DF060FF0A4800212AF039FA094B73
:100BA000186840B109F03CFA014620B1BDE80840A0
:100BB00005482AF0F1BD08BDAD6F0300C80B002049
:100BC000E02D0020B82D0020DD6F03000D4A1378C2
:100BD000B3B94389A3B10121117001790A4A117097
:100BE00040F2E2425343094A13600268084B11681D
:100BF000084819609188998092799A712AF0EBB926
:100C0000704700BFFD530020F4530020CC2D00207E
:100C1000F55300201807002030B51F4B0D461B6808
:100C20001446834291B035D101211C482AF0DCF9E9
:100C30003422002103A82EF023F8AB791A0744BF11
:100C40002A680492CCB1258A2C2D16D8DB0714D53E
:100C50002A46E16805A8ADF80C502DF0EAFF2846B9
:100C60000F49FFF7AFFC002200230E48CDE9002317
:100C70004FF4804200230FF0A3FB002203A90023BE
:100C800009480EF013F90021044811B0BDE83040C6
:100C90002AF0AAB911B030BD302D0020A0FB02000F
:100CA000FE6F0300C80B0020100600202DE9F04F56
:100CB0008FB0002800F0F3800378162B40F0EF800F
:100CC0004278052A40F2EB8041680BA82BF094FD96
:100CD0000BA82BF0E2FD41F65103984240F0DF8073
:100CE000BDF83030032B0FD80122714BD3E8EF1F32
:100CF000002903D1C3E8E02F0028F7D100F0D1800C
:100D000000200FB0BDE8F08F0BA82BF0CEFD0446FD
:100D10000BA82BF0BAFD05460028E5D00246214677
:100D200064482AF039FD4FF00008BDF83030072B39
:100D3000DAD90BA82BF0A9FD07460028D4D00BA8C0
:100D40002BF0A3FD07900BA82BF0A7FD08900BA894
:100D50002BF0A3FDBDF830300990002BC4D00BA8B8
:100D60002BF093FDBDF8303004468342BCD30146DE
:100D70000BA8DDF82CB02BF080FDBDF83030002B37
:100D8000B2D00BA82BF081FDBDF83030064683426F
:100D9000AAD301460BA82BF070FD00239C4256D825
:100DA0004FF0000AD146BDF8301001299CD90BA89C
:100DB0002BF06BFD83460BA82BF067FD0146BDF8B9
:100DC0003000884290D30BF1FF3B0BA82BF055FD70
:100DD0005FFA8BF11F2998BF01230AF1010A98BF1E
:100DE00003FA0BFB5FFA8AF198BF49EA0B098F42BD
:100DF000D9D8079BFF2B4ED14DF6AD63089A9A4286
:100E00004BD14BF6EF602C4B2C49099A824208BF1C
:100E10000B46099A08F101080192089A414600928E
:100E2000CDE90479CDE90246079A25482AF0B4FCB9
:100E30005FFA88F39D423FF678AFBDF83030002B63
:100E40007FF452AF01211F482AF0E2F858E71BF85F
:100E50000320591C002AA3D050188442A0D31BF8A9
:100E60000110013A042903F10203D2B211D1022A7E
:100E70000FD13BF803104B1E2B2B91D812482AF0B0
:100E8000C7F8124B188800288AD01149FFF79AFB3F
:100E900086E7134482E70F4BBBE7074BB9E7012016
:100EA0002FE76FF015010C482AF076FC28E700BF09
:100EB000C42D0020317003001E7003000770030072
:100EC00063700300C82D0020700100206A510020CB
:100ED000566E03009DAE0300E07003002DE9F04361
:100EE000564B574E1D8E574FDFF89081EFB034228E
:100EF000002111A82DF0C4FE4FF0FF324FF0FF3358
:100F000030462AF06FF838462AF067F80028EED00D
:100F10004FF4A07241461EA82DF08BFE002213460E
:100F20001EA931F9020B0132082A0344F9D14648BF
:100F30000268511C01606420B2FBF0F400FB142233
:100F400032B942482AF049F8024641482AF024FCC6
:100F500040482AF042F8E0B101213F482AF044F825
:100F60002C23009300230DF1160906AC4FF4A07159
:100F70001A46CDF8089001941EA804F011F9014614
:100F800068B136482AF008FC002133482AF02CF8D2
:100F9000ADE72E482AF021F80028DDD1A7E7B9F8FF
:100FA00000108D4203D02A462D482AF0F5FB214639
:100FB0002A4613A82DF03DFE2A482AF00EF810F01C
:100FC000FF0407D005F1080011AB224600211844A8
:100FD0002DF056FE244B2C441868ADF844400022F6
:100FE000002311A90DF062FF68B10A221F4B196896
:100FF00001311960B1FBF2F302FB1313012B02D193
:101000001B482AF0C9FB0021134829F0EDFF194ABB
:101010001468611C1160C822B4FBF2F002FB10449A
:10102000002C7FF464AFDFF844901348D9F8002017
:101030002AF0B2FBC9F8004059E700BF7801002050
:10104000A0060020E02D0020242D00205C3200208E
:10105000F77003006032002090FB02002171030052
:1010600048710300D82D0020E42D0020202D002001
:101070007D7103001C2D0020A37103006E51002020
:101080002DE9F04FA44899B02AF086FBA3482AF036
:1010900083FB0521A2482AF07FFB00F001FE0546F4
:1010A00080B101469F482AF077FB9F4800F0BCFCC6
:1010B000044650B101469D482AF06EFB204619B007
:1010C000BDE8F08F00F014FEEFE700F023FE2246AB
:1010D000974998482DF0B3FC974998482DF0C6FAE7
:1010E000974B984A984899490534192CC3E901014E
:1010F00042F8043B03F11403F6D19549954800F0FA
:10110000D7FF044610B101469348D5E701F008F82F
:10111000044610B101469148CEE701F0ADFA01F066
:10112000F1FA8F4E8F4B21461860B28E204604F0A4
:10113000D1F8044610B101468B48BDE701278B4B1F
:101140000097019310214FF4FA434FF47A50B28E76
:1011500004F0E4F8044610B101468548ACE73B468C
:1011600010214FF47A50B28E04F062F9044610B1A7
:1011700001468048A0E74FF000084FF000094FF407
:10118000C052CDE90370CDE901000090CDE9068998
:10119000794B7A497A480EF033FB7A4978480EF059
:1011A000B9FA02274FF48052CDE90689CDE902470A
:1011B000CDE90044744B7549049475480EF020FB4A
:1011C000744973480EF0A6FA4FF48062CDE906899F
:1011D000CDE90374CDE901446F4B70490094704828
:1011E0000EF00EFB6F496E480EF094FA204606F0A2
:1011F0008BFC044610B101466B485DE76B4807F075
:10120000CFFD6B4807F00EFF08946A4829F0E8FE0E
:10121000694829F0E5FE694829F0E2FE684829F0AE
:10122000DFFE684829F0DCFE674829F0D9FE00217E
:10123000664829F0EDFE664829F0EAFE2821654857
:1012400029F0E6FE0021644829F0E2FE634829F017
:10125000DFFE634829F0DCFE624B089A1A80624B7D
:101260001A7015B9284600F043FD60482AF094FA38
:101270005F4A0CAB1068516803C390680021186086
:101280000CA807F021FD044610B10146594813E7A8
:10129000594B187059482AF07FFA4FF0FF324FF03F
:1012A000FF33444829F09EFE044610B101465448DD
:1012B00002E754482AF070FA07F056FD044610B1D0
:1012C00001465148F8E6514B119418689A889B7969
:1012D0000F908DF842304E4B4E481B78ADF84020B1
:1012E0008DF843304C4BADF848401F6806235F43F0
:1012F00042F21073B7FBF3F3ADF84A302AF04CFA20
:101300000BA90FA807F0B8FD0446002800F088805C
:1013100001464248D0E600BFBD710300D77103000B
:10132000F37103002A720300780700203F72030064
:10133000ED040000C80B0020890B0000A82D002040
:10134000442D0020302D00203001002068010020B5
:1013500085040000B0010020587203006F72030082
:1013600078010020E42D0020877203006C510020DA
:10137000A5720300C77203002D090000B06B0020A6
:10138000D00A0020E9720300DD0E0000B05B0020EF
:10139000D8090020F572030015070000B05700209F
:1013A000E0080020017303000873030024010020FB
:1013B00008010020180700204807002060070020CF
:1013C00030070020D0060020E8060020C82D0020AD
:1013D000C42D002070010020D82D0020D42D002025
:1013E000D02D00206A510020FC53002028730300F8
:1013F0004CF702003B730300FD53002058730300B9
:101400007D73030095730300B2730300F55300204E
:10141000F4530020CE730300CC2D0020F57303009D
:10142000A4482AF0B9F9A4494FF400408C4621465B
:10143000E7FB00C10023A14A6046FEF78BFE07468A
:1014400002460B469E480C4629F0CCFD30B19D4823
:101450002AF0A2F90B9807F0C7FCD6E69A482AF0C2
:101460009BF93A462346994829F0BCFD014640B114
:1014700097482AF091F9974B1B78002B7FF4C5AE63
:10148000E8E7954B1A682823726392B2338603F01B
:1014900021FF014630B391482AF07EF990482AF0A6
:1014A0007BF9002200238F4829F09CFDB0B18E48C3
:1014B0002AF072F9854829F093FD4FF42032002379
:1014C000824829F08FFD40B388482AF065F94FF033
:1014D000FF324FF0FF33834829F084FD84482AF01F
:1014E0005BF992E60124834B0094019310214FF4A1
:1014F000FA434FF47A50B28E03F010FF014608B160
:101500007D48C9E7102123464FF47A50B28E03F08C
:101510008FFF014608B17948BEE7FEF79DFF70B91D
:1015200077482AF039F94FF480300021FFF7A0F90D
:10153000FEF792FF18B973482AF02EF9AEE70122A0
:10154000714F724C397872488A40013AA260217119
:101550002AF022F900216F4829F05AFD21466E4AEF
:101560000B9808F0F1FE0446002800F09A8001462E
:101570006A482AF011F914F1780F7FF49FAD4FF407
:1015800080300021FFF774F988E7484609912AF076
:1015900003F94FF4A0220023504629F023FD08F15F
:1015A0000108002862D1584609992AF0F5F83B78DD
:1015B0005FFA88F18B42E8D8564829F00EFD984230
:1015C00055DB57482AF0E8F80021564829F020FD5D
:1015D0000C46DFF838A19AF804205FFA84FB5A45DC
:1015E00000F2C680002401F07FF84F4B21464F489F
:1015F0001C8029F00DFD4E482CF0D1FE4D4B186893
:101600002CF0CDFE4C4B21461C804C4B4FF480629D
:101610004B481C802DF034FB00F018FD494C002293
:101620000023204629F0DEFC0028F8D001213D48A7
:1016300029F0EEFC15B9084600F05AFB4FF00008FF
:10164000DFF81491DFF814A1DFF814B13B785FFAEA
:1016500088F18B4200F2C5803B482AF09DF8002DAE
:101660007FF41CAF284600F043FB17E704462948E7
:1016700029F0B3FC214602463B7834482AF08CF826
:10168000254B186808F0CCFC00F11602162A044617
:1016900004D82F4B1341DB077FF571AF21462D484E
:1016A0000AE58046DFF8BC90DFF8BCA0DFF8BCB0EC
:1016B0007DE700BF1B7403003F420F0040420F0054
:1016C00048070020397403005074030030070020DD
:1016D00069740300FC530020740100207B74030034
:1016E0003F770300600700206377030081770300E2
:1016F000B57703006C510020A1740300CB74030084
:10170000F574030022750300270500204401002022
:1017100064750300C02D0020B82D002094750300CF
:101720001A760300E02D002068510020BC2D002017
:1017300010060020E42D0020B0520020AE52002000
:10174000E82D0020A00600202F770300EF7503008E
:10175000FEFFBDFFDD6F0300D3760300E806002027
:1017600017770300B0750300D0060020D175030081
:10177000274B14220021BBFA8BF913A853F82B80B6
:101780002DF07EFA0322594622484FEA59198DF866
:101790004D202AF001F813AA4946404607F0ECFE16
:1017A00010F10D0F024611D159461B4829F0F4FFE4
:1017B0000121404608F014F80021404608F010F8D6
:1017C00013AA4946404607F0D7FE0246594601345F
:1017D0001AB1124829F0E0FF52E7114829F0DCFF66
:1017E000F9E64846099129F0D7FF4FF0FF324FF054
:1017F000FF33504629F0F6FB08F101080446099929
:1018000010B10146074857E4584629F0C5FF1DE7C7
:10181000302D0020317603004F7603008C760300D4
:10182000BB760300F976030001480DF0F1BE00BF5E
:10183000E831002008B50021044829F046FC20B119
:10184000BDE8084040B229F07CBC08BD043200204D
:1018500008B5084829F0A0FF074BD3E8EF1F033174
:10186000C3E8E21F002AF8D1BDE8084003480DF0A4
:10187000CFBE00BFCA770300043200200832002028
:10188000014603488368DB690BB1012218477047A2
:10189000B0F10200062108B5054829F002FC002835
:1018A00004DDBDE8084003480DF0B2BE08BD00BF2E
:1018B000B0F102003C32002008B5084829F06CFF66
:1018C000074BD3E8EF1F0339C3E8E21F002AF8D122
:1018D000BDE8084003480DF09BBE00BFD47703006D
:1018E000043200200832002010B51248D0E8AF4F73
:1018F00054B1002129F0E9FB0F4829F0EEFB00204C
:10190000BDE8104000F0BEBB012129F0DEFB0A4813
:1019100029F0E3FB2146094829F0D7FB0848D0E825
:10192000AF3F23B129F0D1FB064829F0D6FB0120B7
:10193000E6E700BF6032002058FB02005C32002066
:101940004C32002080FB020010B5154BD3E8AF4F9E
:1019500024BB1448D0E8AF3F73B1214629F0B5FB52
:10196000114829F0BAFB2146104829F0AEFB104877
:10197000BDE8104029F010BF012129F0A6FB0A485C
:1019800029F0ABFB0121094829F09FFB00F0ACFED8
:10199000084B18680DF048FC0748E9E710BD00BF88
:1019A000603200204C32002080FB02005C320020BC
:1019B000E077030064320020F577030010B5134B85
:1019C000D3E8AF3F0BBB124BD3E8AF4FECB90421C8
:1019D000104829F066FB00280EDD01210E4829F091
:1019E00074FB00F081FE0D4829F0D6FE0C4B186800
:1019F000BDE810400DF018BC2146074829F065FBF2
:101A0000BDE81040074829F0C7BE10BD6032002075
:101A10004C320020B0F102005C3200200978030053
:101A200064320020187803006D4B10B518606D48C3
:101A300029F067FB28B96C4829F0AEFE6FF012045C
:101A40000AE04FF48031694829F00CFB044628B1C4
:101A50000146674829F0A0FE204610BD4FF0E8611E
:101A6000624829F0DCFA044610B101466148F1E70A
:101A70006148624B436010238360FFF701FF6048B9
:101A800029F08AFE5F4860492CF0F0FD554829F0A6
:101A900038FB08B95D48CFE7524829F032FB0028EF
:101AA000F8D04FF480315A4829F0DCFA044610B1DE
:101AB00001465848CEE74FF4B011574829F0D2FA02
:101AC000044610B101465548C4E74FF0E86150485C
:101AD00029F0A5FA044610B101465148BAE7514829
:101AE000514B436040238360FFF7CAFE4F4829F003
:101AF00053FE4F484F492CF0B9FD3A4829F001FBFD
:101B000008B94D4898E7374829F0FBFA0028F8D083
:101B10004FF48031494829F0A5FA044600289BD1AA
:101B20004FF48031464829F09DFA0446002893D1AD
:101B30004FF0B861414829F072FA044600288BD171
:101B40004FF0B8613E4829F06AFA0446002883D174
:101B50003C483D4B3D4C4360042383603C4B6360F9
:101B60000823A360FFF78CFE2046FFF789FE0321C0
:101B7000384829F011FE384838492CF077FD1948CB
:101B800029F0BFFA08B9364856E7164829F0B9FADD
:101B90000028F8D04FF48031324829F063FA044627
:101BA00000287FF459AF4FF4B0112F4829F05AFAAA
:101BB000044600287FF450AF4FF0B861294829F05F
:101BC0002EFA044600287FF447AF2848284B43608C
:101BD00020238360FFF754FE264829F0DDFD3BE714
:101BE00064320020B0F102002878030078FB020084
:101BF000437803006478030030320020BD190000F0
:101C0000887803003C32002049190000B3780300B3
:101C100088FB0200CC78030080FB0200F27803000E
:101C20001579030050320020951800003E7903001A
:101C300008320020351800006179030070FB0200B3
:101C400068FB020024320020B9180000183200207E
:101C5000511800007F790300E8310020E9180000E6
:101C6000A579030060FB020058FB0200F831002058
:101C700029180000C0790300084B1A691268520144
:101C800048BF80F0010028B19B68DB684FF080619D
:101C9000024818479B681B69F8E700BFB0F10200D3
:101CA00038B5114D2B78C3B9104C20462CF0ACFA46
:101CB000B0B12269A1681368204623F080631360E5
:101CC0000B684FF4C0221A219847034630B9FFF73A
:101CD000D3FF034610B901232B700023184638BDEB
:101CE0006FF01203FAE700BFFE530020B0F10200CC
:101CF00010B5074B04461B7823B12046BDE81040C1
:101D0000FFF7BABFFFF7CCFF0028F6D010BD00BF29
:101D1000FE53002010B521482CF076FA30B9204847
:101D200029F03AFD6FF01204204610BD1D4829F03D
:101D3000EAF9044620B101461B4829F02DFDF3E7DE
:101D400016482CF061FA08B91848E9E7184829F054
:101D5000DAF9044610B101461648EEE70F482CF0B8
:101D600053FA08B91448DBE7144829F0CCF90446C3
:101D700010B101461248E0E712482CF045FA08B9C4
:101D80001148CDE7114829F0BEF9044610B10146CB
:101D90000F48D2E70F4829F0FFFCC5E790F1020099
:101DA000F0790300A0FB02000F7A0300397A0300E8
:101DB00098FB02005A7A0300867A030090FB020027
:101DC000A77A0300B0F10200D37A0300A8FB020057
:101DD000F27A03001C7B03002DE9F047854F06468D
:101DE0003B78002B4BD0002849D04FF000094C46DF
:101DF000814D824B2A78011F03EB42183C3051F889
:101E0000042F1314002BB8BF5B429BB212B29C424A
:101E1000B8BF1C46002AB8BF524292B29145B8BF23
:101E200091468842EBD1DFF810A2DAF80030002B9F
:101E30000FDA402C02DCB9F1400F0ADD4C45ACBF93
:101E4000002101214B4622466D48CAF8001029F0B6
:101E5000A3FCDAF80030002B70DBDCB2002356F86C
:101E60002320002C6FD1121428F813200133102BDB
:101E7000F5D12B780133DBB2092B66D82B70614A80
:101E8000614813786149DFF8B491002B0CBF80469C
:101E9000884683F001031370D9F80030002B00F05E
:101EA0008C809A6814885A68A4B2B2F800A09A8903
:101EB0001FFA8AFA564B544519784FD8AAEB0405F5
:101EC000ADB2002950D0544577D0DFF864A1DAF8DC
:101ED000001049B1D9F800302A469B894D4829F0B5
:101EE0005BFC0023CAF80030C446D9F800504FEA22
:101EF000841E2B6803EB841303F1400962461868C3
:101F00005968083303C24B459446F7D128684022EC
:101F1000002170442CF0B4FEAB890134B4FBF3F122
:101F200003FB1144AA68A4B23B4B1480D3E8EF1F13
:101F30000131C3E8E21F002A1DD0F7E74C45ACBFD2
:101F4000002401248AE712B28EE700232B70334B62
:101F50001B68002B93D02948984790E70AEB0205AD
:101F60002D1BADB20029B0D1092D1FD84022002170
:101F700040462CF085FE3B784146002B14BF30468E
:101F8000002000F0C9F9014688B3254B1A680132D8
:101F9000052A1A6005D93220B2FBF0F300FB1323A7
:101FA0002BBBBDE8F0471F4829F0F6BB01211E48B6
:101FB0001970294629F0F0FB85E7402200214046B0
:101FC0002CF05EFE194BD3E8EF1F0131C3E8E21F8E
:101FD000002AF8D1164B17481A6801321A60D0E867
:101FE000AF2F19689142C6D929F0A3F8C3E7BDE81D
:101FF000F08700BF0254002001540020B25200209C
:10200000697B0300FF530020BC3200207C3200209B
:1020100000540020C37B0300743200208033002072
:1020200068320020F37B03009F7B0300783200209E
:10203000703200206C320020C00100207C33002070
:102040000021014829F075B878320020002108B538
:10205000074B08481970084B196029F06AF80748BF
:1020600029F067F8BDE80840054829F062B800BFCC
:10207000005400207832002070320020743200209A
:102080006C3200204FF0FF3307B501A9019300F037
:102090000FFC38B9019B5A1C032A28BF4FF0FF33AD
:1020A000024A136003B05DF804FB00BFC0010020CA
:1020B00037B502466C460B46134903C984E8030052
:1020C0001046F2B1EBB1114D2A7812B1002003B0E5
:1020D00030BD0F4A10600F4A2046136000F040FBED
:1020E0000028F4D19DF800200B4B1A70019B5A1C5C
:1020F000032A28BF4FF0FF33084A136001232B70D7
:10210000E4E76FF01500E2E7F0F602000454002067
:102110007C3300208033002002540020C0010020C6
:1021200070B52C4B1B78002B50D02B4E3378002BE6
:102130004AD12A4800F07AF800F07EF8044628B127
:102140000146274829F028FB204670BD0146402261
:102150002448254D2CF094FD2146402223482CF0A4
:102160008FFDFFF773FF2B782148002B08BF00205D
:102170001C4900F0ABF8044610B101461D48E1E7E8
:102180002B781D48002B08BF0020184900F0C4F828
:10219000044610B101461948D4E700F049FB044653
:1021A00030B10146164829F0F7FA00F0D7F8CBE72E
:1021B000144B2978144A154800290CBF11461946BA
:1021C00029F0EAFA012333700024BDE74FF0FF3411
:1021D000BAE700BF0454002003540020D91D0000BA
:1021E0002E7C0300BC320020025400207C320020F0
:1021F0003C330020497C0300FC320020657C030056
:10220000887C0300287C03002B7C0300B77C030040
:10221000012908D138B1044A126822B1D0E900017D
:1022200000B901B11047704784330020014B18609A
:10223000704700BF8433002037B51D4D2B78002B2D
:1022400034D14FF0502449F6A633C4F85C3501234D
:10225000A361D4F8203153B10021164801AA2AF015
:10226000B0FE002808DA6FF0040003B030BD002192
:1022700021202CF010FBECE7019B0F4A197918681C
:1022800009F0EAFB02460028EDD10121282003F0E5
:102290005FFD282003F02CFD084A094909480BF08E
:1022A00013FA094B9842DED101232B700020DCE7A2
:1022B00005540020B0FB02000080025011220000F3
:1022C000C4010020EC0100200000AD0B1FB50F4C35
:1022D0002378012B13D100B989B11023CDE9010175
:1022E00000220B4801A9ADF80C300BF0BFFA094BE6
:1022F000984207D102230020237004B010BD6FF074
:102300001500FAE76FF00400F7E700BF055400205E
:10231000EC0100200000AD0B1FB50D4B1B78022B0C
:1023200013D100B989B11023CDE90101094801A9F0
:10233000ADF80C300BF00EFB074B984214BF6FF05A
:102340000400002005B05DF804FB6FF01500F9E70C
:1023500005540020EC0100200000AD0B10B5054C29
:102360002378022B04D104480BF036FB01232370A1
:1023700010BD00BF05540020EC010020034648F6C4
:10238000D870834206DD4AF273729342CCBF4AF2A0
:10239000747098B2044B1A8882421EBF18804FF0A6
:1023A0005023C3F85C05704724050020F8B50746A4
:1023B0000446002507F8141B194828F0C4FE02291A
:1023C00065610E467D60E561258415D003291ED028
:1023D000012E2946134805D028F0B5FEC4E9025560
:1023E0002582F8BD28F0AFFEC4E9025525820E48CB
:1023F000BDE8F84029F0D0B929460A4828F0A3FEE4
:1024000061680A482582BDE8F84029F0C5B9012174
:10241000044828F098FE064B064819882582F2E702
:10242000883300208C330020E97C0300F87C030013
:1024300024050020167D03002DE9F0418AB02422F6
:10244000002101A82CF01CFC49F6A6324FF05023C5
:102450000292D3F85C357F4E9BB2002B08BF134627
:102460007D4FDFF810827D4D33804FF0FF324FF00B
:10247000FF3338460CF012FF0021404628F063FE7F
:10248000044648B149F6A6332846029328F05BFE7D
:1024900001A8FFF78BFFE8E7D5E8EF3F012B03D159
:1024A000C5E8E24F002AF7D1DFD16D4BD3E8AF2F5B
:1024B0009DF825009DF824100328089B1FD80DF1D6
:1024C000280C0CEB410C134401302CF8102C089311
:1024D0008DF82500013101F003018DF824109DF8DD
:1024E0002510089B012938BF0121B3FBF1F39DF8AA
:1024F00004100329B9D8DFE801F00E103C760AA8D1
:1025000000EB410030F810CC20F8102CA3EB0C03AA
:1025100013440893DEE70121BAE7039B1A44049BA6
:1025200003920133092B04939FD992FBF3F30A2200
:10253000C3F1020353435B1083EAE372A2EBE3723D
:10254000082AC8BF1C4640F24B12464B49F6A6303B
:10255000634393FBF2F3182BA8BF18236FF0170205
:102560009342ACBFC01880180290FFF707FF02210A
:102570008EE70A22C3F1020353435B1083EAE3723E
:10258000A2EBE372082AC8BF1C4640F24B12354B3F
:102590006FF01700634393FBF2F3182BA8BF1823C7
:1025A000029A21468342ACBFD0181018FFF7E6FE0E
:1025B00032882D4829F0F0F884EAE473A3EBE47341
:1025C0000F2B01DC032163E79DF815300133DBB2EB
:1025D000092B8DF815307FF648AF2146234829F0A6
:1025E000DBF8002154E70A22C3F1020353435B10D6
:1025F00083EAE372A2EBE372082AC8BF1C4640F2EA
:102600004B12184B6FF01700634393FBF2F3182B38
:10261000A8BF1823029A8342ACBFD0181018FFF746
:10262000ADFE84EAE473A3EBE473202B0DDD9DF88B
:1026300014300133DBB2022B8DF814307FF615AF66
:1026400021460B4829F0A8F891E700238DF81430B3
:102650000BE700BF24050020700600209433002003
:102660009033002018FCFFFF327D0300557D0300EE
:10267000847D0300F401002010B588B000220023FF
:10268000CDE9062300230122094CCDE90323CDE93E
:10269000013300934FF480622046064B06490DF04B
:1026A000AFF82046054908B0BDE810400DF032B83B
:1026B000000C002039240000B0830020AF7D03000F
:1026C00010B5074C0146204628F03DFD0121201D94
:1026D00028F039FDBDE8104002480CF0A5BD00BF50
:1026E000903300207006002008B50121034828F02F
:1026F0002AFDBDE8084002480CF096BDF401002018
:102700007006002000487047400600202DE9F04187
:102710000446DFF8488000EBC105AC4201D100203F
:1027200017E0D4E90067012E04D138462BF067FD8D
:102730000834F2E73A463146404629F073FF034633
:102740000028F5D004483A46314629F025F86FF0C4
:102750000400BDE8F08100BFB87D0300983300207D
:1027600038B5054600284BD0274800F03FFA04460C
:1027700028B10146254829F00FF8204638BD02212E
:102780002348FFF7C3FF04460028F6D1092121485A
:10279000FFF7BCFF04460028EFD104211E48FFF7D5
:1027A000B5FF04460028E8D10E211C48FFF7AEFF14
:1027B00004460028E1D10A211948FFF7A7FF044683
:1027C0000028DAD103211748FFF7A0FF04460028AC
:1027D000D3D140F2622244F618010B4829F022FFBF
:1027E000044630B10146104828F0D6FF6FF00404CB
:1027F000C3E7012368602B700C4828F0CDFFBCE7CD
:102800006FF01504B9E700BF98330020EC7D03009A
:10281000D8FB020040FD020020FD020000FC020087
:10282000D0FC020070FC02000A7E0300307E030030
:1028300010B503210548FFF769FF044618B10146AA
:10284000034828F0A9FF204610BD00BFE8FB0200A6
:10285000527E030073B5064644F61801124801AAD9
:1028600029F0D8FE18B16FF0040002B070BD9DF8D9
:10287000044044F6180104EB4604802CA8BF8024D1
:1028800024EAE474084844F4007229F0CBFE0546BB
:102890000028E8D16310054822463146403B28F025
:1028A0007BFF2846E1E700BF983300206F7E0300DE
:1028B00010B50C46B1B150B109210C48FFF726FF05
:1028C00020B920600A4828F067FF002010BD0A21C7
:1028D0000848FFF71BFF0028F8D14FF0FF330648E8
:1028E0002360F0E76FF01500F0E700BF88FC0200FE
:1028F000937E0300D0FC0200307E030001460148B5
:1029000028F04ABFB97E030008B5024828F044FF0A
:10291000012008BDDF7E030008B5024828F03CFF17
:10292000012008BD0A7F030008B5024828F034FFE3
:10293000012008BD367F030008B5024828F02CFFAF
:10294000012008BD5B7F030008B5024828F024FF82
:10295000012008BD7F7F030008B5024828F01CFF56
:10296000012008BDB27F030008B5024828F014FF1B
:10297000012008BDD77F030008B5024828F00CFFEE
:10298000012008BD088003000A4608B50123C0B233
:1029900003FA00F107484AB18368DB68984720B121
:1029A0000146054828F0F8FE012008BD83681B6930
:1029B000F4E700BFB0F102002B800300F8B5012559
:1029C000154B164E1960164B16491A60164BB76810
:1029D0004B6005FA00F38B60FB6904460BB90120DC
:1029E000F8BD2A46304698470028F8D1E1B2BC69C4
:1029F0003369002CF3D01B688D401D4214BF4FF08B
:102A000080634FF000734FF0A0723046A04700384B
:102A100018BF0120E4E700BF4C340020B0F10200F1
:102A2000483400203C3400202D2A0000B2F5002F4D
:102A300008B50AD1054A064B00201B681168984763
:102A4000BDE8084003480CF0EFBB08BD4834002047
:102A50004C3400200007002010B505480CF062FB44
:102A6000044618B10146034828F096FE204610BDE2
:102A7000283400204E80030010B54FF0FF324FF095
:102A8000FF3305480CF0D6FA044618B10146034856
:102A900028F082FE204610BD283400206A80030002
:102AA00010B58AB008460D99042903D0144828F0BF
:102AB00073FE10E008930C9B0024099304AB02936F
:102AC0000323CDE9040201AACDE906210194039371
:102AD000FFF7D2FF10B101200AB010BD09480A4922
:102AE00083681C6802AB1A46A047014608B1074834
:102AF000DDE7FFF7B1FF003818BF0120ECE700BFAA
:102B000084800300B0F20200ACFD0200A980030043
:102B100070B50446084E094D4FF0FF324FF0FF33B9
:102B200030460CF0BBFB204602F094F90028F3D0AD
:102B3000284628F031FEEFE700070020CA80030096
:102B400070B5144601B922B10B4828F025FE0120CA
:102B500070BD20EAE0754FF40046214640F2E730B0
:102B60004FF47A720023C5FB0601FDF7F3FA2BF050
:102B700092FE2046ECE700BFEB80030010B58AB060
:102B800008460D99042903D0144828F005FE11E0E9
:102B900008930C9B0024099304AB02930323CDE913
:102BA000040201AA0393CDE906210194FFF764FF13
:102BB000034610B101200AB010BD094809498268D6
:102BC000146802AAA047014608B10748DDE7FFF7ED
:102BD00043FF003818BF0120EDE700BF84800300E9
:102BE000B0F20200ACFD02000E810300F0B593B01C
:102BF00007462822002108A82CF042F83E482BF076
:102C000019FC3E482BF000FB48B13D482BF0FCFA84
:102C100028B13B482BF0F8FA48B93A4800E03A4866
:102C200028F0BAFD6FF00504204613B0F0BD4FF454
:102C30008031364828F08FFA04460028F4D1304815
:102C40002BF0E2FA0028E8D04FF48031304828F029
:102C500082FA04460028E7D129482BF0D5FA00284B
:102C6000DBD04FF400312B4828F075FA04460028D9
:102C7000DAD14FF4A4720023CDE906230523CDE970
:102C80000070CDE9020304904FF42F72224B2349C8
:102C900023480CF0B5FD234921480CF03BFD0446C8
:102CA0000028C1D1384629F0CDFC08B11E48B7E74D
:102CB0001E4E08AD0FCE0FC596E80F0085E80F0039
:102CC0001B4B384610931E2308A9119302F07AF883
:102CD00008B11848A4E7384602F094F908B116483C
:102CE0009EE7B968154A91429ED0154828F054FDD8
:102CF0006FF0040498E700BF28340020B0F202000F
:102D0000B0F102003E81030027810300D0FD0200E4
:102D1000C8FD0200C0FD0200112B0000B08700209A
:102D2000F80C0020528103005A81030088FD020044
:102D3000A00200207881030095810300637A0400DB
:102D4000AE8103002DE9F04F91B0009302F004032F
:102D50000293C2F3C2030133840705460E46DDF831
:102D600068800392059340F0BB81041D30B10729B0
:102D700009D86FF01B0011B0BDE8F08F01F0070615
:102D80003444C6F10806009B4FF000094FF0040AD6
:102D9000591E4FF0FF334F460193CB465346CDF8B3
:102DA00010900DB1009820600598002800F3E8808D
:102DB0009848009A824203D397488242C0F0E0804C
:102DC000039AA4EB050E92074FEA9E0000F10381DF
:102DD0000F2F00F2B180002D00F0058107F14002B5
:102DE0000DEB020C019A0CF8200C0CF8102C049836
:102DF00001300490E7E07A285DD84B280ED84728A8
:102E000059D829282DD8252852D054D820287AD00E
:102E10002338D0F1000B4BEB000B74E04C382E281C
:102E200049D8DFE800F070484848484848484848D2
:102E300048484B484848484848484859484B4B59E7
:102E40005959704B6D487048184B184848827F4B51
:102E500048484B487F0000204FF0000B4FF0040A19
:102E600038E001222A38C0B202FA00F010EA0E0F50
:102E700049D110F0625C2FD110EA020B43D06046BA
:102E8000013C5444B4FBFAF40AFB04F4002D61D075
:102E9000A3EB050CA444B4453FF66BAF002868D102
:102EA000042B47D158F8043B2360042304342AE060
:102EB000019A013A01924FF0000B24E011F8010C45
:102EC0006C2834D1002011F8023C83466C2BC5D10C
:102ED0004FF0080A5346D3E708F1070828F007081F
:102EE000073424F00704F8E802AB35B10698204413
:102EF000B0423FF63EAFC4E900AB4FF0000B0834E0
:102F00004FF0080A534611F8010F002878D0BBF1A2
:102F1000000F7FF470AF2528F5D14FF0010B019B16
:102F2000013301934FF0040AECE7584694E7002080
:102F30008346A5E7082B02D06FF015001BE708F1C8
:102F4000070828F00708B8EC027B84ED007B082313
:102F50000834D8E768B9042B02D108F10408A4E7C3
:102F6000082BE9D108F1070828F0070808F108083C
:102F7000EDE705980138059058F8040B009010E72C
:102F8000039A900720D54FF0010CA4EB050E4FEAF1
:102F90009E00BEF5007FCFD20F2FCDD8F5B107F13F
:102FA00040020DEB020E019AC0B20EF8200C0EF892
:102FB000102CBCF1000F3FF41AAF60F07F000EF848
:102FC000200C09F101090137C5F108024FF6DA7E3C
:102FD0000434069297E74FF0000CDAE7BCF1000FDB
:102FE00001D00136EFE7029A0236002AEBD10098B1
:102FF000CDE90631FDF7DAF8DDE906310644E2E70E
:10300000631BB3F5806F97D245B9A6F10804E018A9
:10301000B1E600BFA0F00200F0B80300029A9B08DE
:1030200028602B709DF81030C2B1EB7085F80290CB
:10303000B9F1000F05D0002208A8C5F1010C974294
:103040000ED14FF0000AC5F101030DF120080193E4
:103050000DF1300B574512D1601B8CE66B70E5E724
:1030600010F8013B190608D50CEB040EB64503F029
:103070007F033FF67EAE04F8013B0132DFE7B9F192
:10308000000F03D098F90020002A17DB029BD3B170
:103090001AF80B2004F8012B0022019B1819104488
:1030A000B0423FF666AE98F80000009904F8010BB4
:1030B000204603922BF0BDFD039A14440AF1010A45
:1030C00008F10108C6E798F8002055F8223000936F
:1030D000029B009845F82230FDF768F8421CDCE7B7
:1030E0006FF00D0047E600BF2DE9F04F97B000AF3D
:1030F000D7F880B03B62CBF3C0030446894690F812
:1031000002A0FA62BB6141B9457800780AEB800001
:1031100020444D4517D8A0EB0409E378FB61BAF1D0
:10312000000F02D01BF0010F16D1FB6953BBFB6AE5
:103130001BB1494620463A6A98474D4628465C37B7
:10314000BD46BDE8F08F461C3046FDF72FF8013034
:10315000304409F10109DCE7626823787A62FA6A8F
:103160009900796104EB8301002A40F001810E4649
:103170004FF000084D4601EB0A094E454CD101EBDA
:103180000A0610E01BF0020FD1D023789A007A6172
:10319000626804EB83017A62FA6A002A77D14D46AD
:1031A000904601EB0A061BF0050F0CBF022301231A
:1031B000FB62FB6906EB430A0BF00203BB62564558
:1031C000BCD016F8021B16F8013C54F82390994B1A
:1031D000994502D3984B994536D3BB69002B40D013
:1031E000786A28F0B0FA00283BD0E9468AB06A46EF
:1031F000924B53617B6AC2E906314FF4007313842A
:103200008F4B42F8103F00234FF412518D4801F0CC
:10321000B7F8023DCD46D2E716F8013BF96254F803
:103220002300FCF7C3FFD7F88430F96A01304BB1B3
:10323000D7F8883098453EBFD7F8843023F8180077
:1032400008F10108054498E7BB6923B1786A28F0C2
:103250007AFA0028C9D11BF0010F05D1FB6AED1ADB
:10326000ADE7BB6A002BAAD04846FCF79FFFD7F812
:10327000843053B1D7F8883098453FBFD7F88420C1
:10328000431C22F8183008F10108054497E7BAF109
:10329000000F73D01BF0040673D0D046002607F150
:1032A000480052463B61B9622BF0C3FCB96A3B69E6
:1032B00001EB0A02BA62FA69F9695200FA60BA6A65
:1032C00002EB41023A610BF00202BA603A69B96A54
:1032D0008A4258D162781BF0020F18BF00217A622F
:1032E00008BF4FEA5801B2181BF0010FD2B240F0EC
:1032F0009F801BF0040F14BF40460020BB6162702A
:10330000A070E17020463A6A7969FB6A9847051E09
:10331000FFF614AFBB69414623707B6A3A6A63705B
:10332000FB6984F802A0E37007F14800FB6A984744
:10333000B0F10008C0F2BA807B69A9EB0A01C91A92
:10334000FB683A6AC91AD7E90A0398470028C0F20D
:10335000AF804FF0000BA84408EB000507F1380AD6
:10336000B34571D300213A6A0846FB6A9847E5E6FF
:1033700056464FF0000807F1380092E75646D0460F
:1033800096E7B04694E7BA6A12F8021B12F8015C9D
:10339000BA6254F82500274A904202D3264A904246
:1033A0001ED3BA6932B1786A7B6028F0CCF97B68A9
:1033B00000288BD1BA6802BB08F1280207F1300C53
:1033C00008F10100944407F1580208F1020852FA8A
:1033D00080F00CF8101C5FFA88F800F8105C75E7B4
:1033E000BA693AB1786A7B6028F0ADF97B68002849
:1033F0007FF46CAF1BF0010F09D006F1280207F132
:103400003000711C161806F8205CCEB25EE71BF087
:10341000040F3FF45BAF08F1280207F1300008F118
:10342000010102EB000808F8105C5FFA81F84DE733
:10343000002063E7A0F00200F0B80300D981030088
:103440000400000110F602001BF80A3054F8239023
:1034500087F83730D7F884302BB3D7F888309B45BE
:1034600021D2D7F8843033F81B8001213A6AFB6AF5
:1034700007F13700984700281ADB0544B8F1000F20
:1034800006D14846FCF792FE00F101081FFA88F8C1
:10349000414648463A6AFB6A9847002808DB0544DB
:1034A0000BF1010B5CE74FF00008DEE7454645E60F
:1034B000054643E6014B1860704700BF3402002008
:1034C00080B505460E46174698460CF05FFC03464D
:1034D0002BF0DCFD0446DFF81890424649F8003036
:1034E00039463046A84754F8090002F087FB00BF70
:1034F000080000002DE9F047058B04462807904698
:1035000011D4022905F0070540F0CC80204628F0B0
:10351000C8FB78B10138218B042811D8DFE800F00E
:10352000C2106D85950001290CBF45F0100545F0CE
:103530002005258388F31188BFF36F8FBDE8F087DE
:1035400001F0070AAA4500F0A5800027B9463E46CB
:10355000A368002B00F0BC8041F00801218388F3B0
:103560001188BFF36F8FA168002900F0BA800D6841
:10357000002900F0B680334652462046D1F8048038
:10358000C047002D76D02B6829461D46F0E701F094
:1035900007035A1F012A1BD8002221F00701062B1E
:1035A000276889B2C4E9002209D13B4603E0628B57
:1035B000013262831B68002BF9D141F002012046E1
:1035C000218328F06EFB00287AD041F0200176E0BC
:1035D000042B0AD121F0070189B22046218328F06B
:1035E00060FB10B141F020012183218B01F0070A1B
:1035F000AA454FD00027B946AAE7236921F0070161
:1036000041F00601062DD3F8009021832DD1B9F1A8
:10361000000F3FD041F00801218388F31188BFF3E8
:103620006F8F20463949C84729E021F007012369F7
:1036300041F0040189B2042DD3F804902183E6D02F
:1036400000274FF0040A3E4682E721F00701236974
:1036500041F0050189B2052DD3F808902183D6D019
:1036600000274FF0050A3E4672E700274FF0060A92
:103670003E466DE72B4687E7B9F1000FD1D1EFF356
:103680001188202383F31288BFF36F8F238B23F0DD
:1036900008032383258BEA062ED525F01003238308
:1036A00005F007056669218B002EBFF670AF002379
:1036B0002768C4E9003321F0070141F001012183AB
:1036C000218B4FF0000901F0070AAA457FF440AFB3
:1036D000002F9CD041F00801218388F31188BFF3AB
:1036E0006F8F002FC8D03D6839463346524620467A
:1036F00028F003FB2F46F4E7AB067FF51BAF25F060
:103700002003238305F0070500E700BF27BD020063
:1037100010B530B90B480C4928F0CFFB6FF01500FD
:1037200010BD836833B90748084928F0C6FB6FF01D
:103730000400F5E71B6813B1BDE8104018471846B0
:10374000EEE700BF28F602008D8203009E82030090
:1037500010B530B90B480C4928F0AFFB6FF01500DD
:1037600010BD836833B90748084928F0A6FB6FF0FD
:103770000400F5E75B6813B1BDE810401847184630
:10378000EEE700BF28F602008D8203009E82030050
:1037900070B508B101B132B90B480C4928F08DFB66
:1037A0006FF0150070BD84680CB1E56835B9064846
:1037B000074928F082FB6FF00400F3E741F8040B9F
:1037C000E368BDE87040184728F60200BC82030099
:1037D0009E82030010B5044630B91048104928F005
:1037E0006CFB6FF0150010BD006830B90B480D4937
:1037F00028F063FB6FF00100F5E783680BB11B69EC
:1038000033B90648084928F058FB6FF00400EAE78E
:10381000616898470028E6D12060E4E728F60200B6
:10382000E8820300F98203009E82030070B513460C
:10383000044630B91048114928F03FFB6FF01500DD
:1038400070BD006830B90C480D4928F036FB6FF0A8
:103850000100F5E782680AB1956835B9064809495B
:1038600028F02BFB6FF00400EAE70A46AC466168DB
:10387000BDE87040604700BF28F60200E882030000
:10388000F98203009E820300034A13680BB9526851
:1038900013600020704700BF3802002030B50C468E
:1038A0000E4985B00291D0F8D4110546CDE900311A
:1038B00000F1F0014FF0FF3320460AF073FE50B9DB
:1038C000012384F86C30D5F8D03123B1204605B0FF
:1038D000BDE83040184705B030BD00BFB3BF02009F
:1038E00038B50C461146054628F065FB034638B945
:1038F0002846044928F05FFB03460020236038BDBA
:103900000120FBE79DAE03002DE9F04F0123814626
:10391000056946688FB005F57B77D7E8EF2F002A59
:1039200003D1C7E8E13F0029F7D10CBF1A460022B6
:1039300040F0BB80B368B16A05F5F8781C1F1046EB
:1039400028F0C0FB844279D8013A00F0A880B2FA8E
:1039500082F24FF00044D44072682046073222F0D1
:103960000302C5F83C22B16A28F0ACFBC5F840025E
:10397000B36A40466343033323F0030302EB43027D
:10398000230103EB4403093323F0030303EBC403D4
:10399000C5F834221A440832C5F830227368C5F8D5
:1039A0003842C5F82C32424BC5E9AD63316800F0AE
:1039B000F1F9044600283FD1D9F810B0D9F804A095
:1039C000D9F800300BF53479059004934846DAE9CC
:1039D0000734012B08BF103C2AF08FFEDAF82400D0
:1039E000344904AB009301EB8021234648464FF451
:1039F00080620BF013FE2021DAF824302E4A06A84C
:103A000025F038FC06A948460BF084FE2B490BF53F
:103A100030702AF02BFEDAE9050183685C684CB14E
:103A20005B46274AA047044630B9DAE905018368B6
:103A30001B692BB96FF05704002129E001327EE7A2
:103A40000122984704460028F6D11E4B2846C5F8A7
:103A5000D0311D4BC5F8D4311C4B0393D5F84032FF
:103A60000293D5F83C32CDE9008305F51173B26AB3
:103A7000D5F8E81300F056F904460028DCD105F12A
:103A8000F0000AF035FE0028C5F8F0030ADB022139
:103A9000384628F0C4FA20460FB0BDE8F08F6FF02A
:103AA0000B04C9E76FF01504C6E76FF07704F2E77F
:103AB00009C00200708A00201E830300EFBF0200CD
:103AC000E3BF0200D13A00009BC102004FC00200D8
:103AD00013B5044640B100230122CDE90032074B63
:103AE000D0E909120AF032FD236F1B6823B1606F21
:103AF00002B0BDE81040184702B010BD9DAE0300F3
:103B000013B504460846216901F57B71D1E8AF1F62
:103B1000022910D193B1A0B10121CDE900311346A2
:103B2000D0E909120AF012FD074B984208BF6FF066
:103B30000B0002B010BD6FF00F00FAE76FF04C0001
:103B4000F7E76FF00100F4E72EF8FFFF2DE9F347E8
:103B500089461546066906F57B73D3E8AF3F022B0D
:103B600064D1136823B96FF0150002B0BDE8F08787
:103B70001B78002BF7D0D6F8E8A3BAF1000F36D1A6
:103B800006F5EC774FF0FF324FF0FF3338460BF07D
:103B900051FA30462A6801A9FFF7A2FE019C80462F
:103BA0001CB9384628F039FADDE705F10803236728
:103BB000AB6984F86CA06367646460B1384628F030
:103BC0002CFA21463046A36E2A68FFF767FE0020D4
:103BD000C9F80040C9E71F22296804F148002BF00A
:103BE00079F8384684F8678028F017FAEFE730460E
:103BF000104928F0E0F904460028B4D0002705F168
:103C000008030367AB6980F86C70436740641F2248
:103C1000296848302BF05EF822460121304684F8AE
:103C2000677000F061F80028D1D09CE76FF00F00BA
:103C30009BE700BF9DAE030010B50C46006900F580
:103C40007B73D3E8AF3F022B0FD189B10A4900F54E
:103C500030702AF037FD20462AF000F87822002143
:103C600020462BF00DF8002010BD6FF00F00FBE791
:103C70006FF00100F8E700BF503400202DE9F04F4D
:103C800005460E4690460027D0F8C4A085B0AAF598
:103C9000BE7421463046FCF777FAE0B9114BA4F127
:103CA000480B0293DAF810303246CDE900832946FA
:103CB0004FF0FF335846AAF5E2790AF073FC60B979
:103CC0007823012203FB079383F86C20DAF80C3089
:103CD0000BB158469847783417B105B0BDE8F08F5E
:103CE0000127D6E7C9C102001FB5144690B18AB1B9
:103CF000012912D10A4B00F1F0010293D0F8D4311E
:103D0000483201934FF0FF33204600930AF04AFCFB
:103D100004B010BD6FF01500FAE70020F8E700BF0F
:103D2000C9C102002DE9F04387B00E46DDE90E81DE
:103D30001446DDE910251F4630B329B3DFF850C023
:103D400000F1F009002D08BF65469EB9CDE9034496
:103D500000F5E274204605962AF018FA03ABCDE987
:103D600000432A463B46414648460AF039FD07B023
:103D7000BDE8F083002241460E9248462A4607B02D
:103D8000BDE8F0430AF07CBE6FF01500EFE700BF1E
:103D90007D3C0000F0B504462B4A87B004AB0E46CC
:103DA00092E8030083E80300002C49D018460AF08B
:103DB000D3FA0546B0B94FF0FF33E16C04F1540774
:103DC000A163CDE9010000933846236D04F1380268
:103DD00029F0F4FBA06C28F026FAC4F8BC0020B946
:103DE0006FF00B05284607B0F0BDA06C28F01BFA59
:103DF000C4F8C0000028F3D0236CD4F8BC10C4F879
:103E000090300423C4F89430C4F8AC300223E36249
:103E10000E4BB4F84820C4F88C10616C236204F196
:103E20008C03C4F8A070A4F89820C4F8B870C4F843
:103E3000A810A4F8B020C4F8A400A6612363D1E7B9
:103E40006FF01505CEE700BFF8F6020004FE020091
:103E50002DE9F047044607464FF00109DFF850808E
:103E600014B93846BDE8F08794FAA4F5B5FA85F59B
:103E700009FA05F32E0108EB05156FEA030A24EA97
:103E800003042B7B002BEBD058F806301B694BB991
:103E90004644736804222846196807EA0A0728F08E
:103EA0002AFADDE7284698470028D9D1F0E700BF75
:103EB00098F6020030B5002289B00F490F482AF069
:103EC000BEFD002200230024CDE906230E230C4D65
:103ED000CDE903344FF440722846CDE90144094B43
:103EE000094900940BF08CFC084928460BF012FCA1
:103EF000204609B030BD00BF113F0000E82200207D
:103F0000E811002025420000708E00202A83030063
:103F100001480BF089B900BF880600202DE9F04761
:103F2000804621480F4628F0CAF90646002833D0BB
:103F300000252846BDE8F087237B83B12368DB6832
:103F40000BB120469847636883F8069023681B6985
:103F5000D3B9636804222046196828F0CCF90136E9
:103F600010345445E8D3B8F1000FE2D0002DDFD073
:103F70002846FFF76DFF0546002FF7D000214FF4CC
:103F8000A4702AF088FCF1E7204698470028E0D08A
:103F900009FA06F31D43E2E705464FF00109034C19
:103FA000DFF80CA0DDE700BF8834002098F602009F
:103FB000A8F60200014B53F82000704744FE0200AF
:103FC00008B5034608462BB1044A136000F070FCA4
:103FD000002008BD6FF01500FBE700BF6402002061
:103FE00010B5044C237813B903480BF01DF90123D5
:103FF000237010BD065400208806002010B504462A
:10400000094828F05CF93CB1084BD3E8EF1F0139AF
:10401000C3E8E21F002AF8D105482AF01CFDBDE8DC
:10402000104004480BF000B9803400208434002094
:10403000E82200208806002000200146034BD3E838
:10404000EF0FC3E8E21F002AF9D170478034002047
:1040500070B5FFF7F1FF0546074C084EB44200D398
:1040600070BD63685B792BB123685B6813B1294627
:10407000204698471034F1E798F60200A8F60200AF
:1040800010B5044C0449204627F0A4FC034B1C60E7
:1040900010BD00BF4005002030FE02007834002033
:1040A00000230D4A10B513700C4A4FF40041136001
:1040B0000B4A0C481360FFF783FFFFF7E1FF0A4B41
:1040C0000A4918468B4200D310BD1A1A5C681211B7
:1040D000013222711033F5E70754002080340020AC
:1040E00084340020BBC2020098F60200A8F6020049
:1040F000014600220023014827F08DBC4005002026
:10410000014827F026BD00BF40050020024B0146B4
:10411000186827F072BD00BF78340020014827F0EE
:10412000A7BD00BF4005002070B5274B18780028B8
:1041300049D0FFF7E5FF0546002841D1234B244C29
:104140001B68002B19DD2AF033FC4FF47A72A0FBB8
:10415000020302FB0131C30B43EA4143D4E90020CF
:104160009B1A40F2E9324FEAD13161EB00019342F0
:1041700071F1000101D3FFF76BFFD4E9003213F5B1
:104180007A7342F10002C4E90032BDE87040FFF7E3
:10419000C5BF63685B7923B12368294620461B6845
:1041A00098471034B442F4D32846FFF7AFFF094BC9
:1041B000D3E8EF1F0139C3E8E21F002ABED0F7E7BA
:1041C000054C064EEEE770BD0654002080340020FA
:1041D000E02200208434002098F60200A8F60200B5
:1041E00070B50D4D297861B90120FFF797FE0B4C92
:1041F0000B4EB44206D3FFF797FF0028FBD10123F3
:104200002B7070BD63685B791BB1236820469B6887
:1042100098471034EDE700BF0754002098F60200DD
:10422000A8F6020000212DE9F0470846FFF776FEC8
:10423000044658B340F267684FF000092AF026FFA1
:104240001B4B1C4A1B58136033B11B4B1B68092BBB
:1042500002DD1A480AF0E8FF0025194FDFF85CA0DC
:1042600044B12046FFF7F4FD044618B94FF0FF387B
:104270004FF0FF39FFF758FF064628B9B5B9424657
:104280004B4650460BF00AF83546E9E74FF0FF3849
:104290004FF0FF39D2E72B689B691BB100222846FB
:1042A000114698471035BD42F5D3E8E7054DFAE7CA
:1042B000080000007C3400208434002088060020A0
:1042C000A8F6020098F6020013B5184827F0F7FF89
:1042D000174B1B7873B1EFF31184202383F31288FB
:1042E000BFF36F8FFFF720FF84F31188BFF36F8F49
:1042F00002B010BD0F4B1B68002BF9D050B9002243
:1043000000230D48CDE900234FF4004200230CF0B8
:1043100057F8EDE70928EBD107482AF09CFB07483E
:1043200002B0BDE810400AF07FBF00BF8434002017
:10433000075400207C340020E8220020880600205A
:1043400010B5064B04461B6898472146A0600448F8
:1043500027F0E0FBBDE81040FFF7B6BF6402002085
:1043600040050020044A054B9B1AB1EBD30F34BF24
:1043700052F8310000207047B0F5020098F60200B4
:104380002DE9F04F8FB0C1F34A2804AF0D46914696
:10439000B8607B600C0DB8F1000F63D000264FF0C1
:1043A000040B4FF00A0A07F11403C7F80C80C7E9A1
:1043B00007667E620193CDF808B0CDF800A007F142
:1043C0001C0332464846F968FEF78EFEB0F5006FD2
:1043D00003461CD36C468AB0D9F8041004AB2648B7
:1043E0001A46C3E9050140F2FF71D9614FF400712B
:1043F0001984224B42F8103F4FF4125133462048A3
:10440000FFF7BEFFA5462C37BD46BDE8F08FC0F3D1
:104410000A0804F11700184420F0070080083B60E8
:10442000FFF766FE68F35325044690B13B6800F140
:104430001001C7E9083607F11403F961CDE900A3BB
:10444000CDF808B048460F4AF96807F11C03FEF79B
:104450004BFE68F353252A4620467B68B96827F04F
:1044600069FFD0E704F1170020F007008008FFF78C
:104470003FFE0446EDE700BF3F8303000400000158
:1044800030F6020009C302002DE9F04F87B0044660
:10449000DDE9105ADDE91279934698460391BFB1E0
:1044A0003B46524610210020CDF80090CDF81490E4
:1044B000FEF748FCB0F5006F06460AD340F2FF73E2
:1044C0000221174A174807B0BDE8F04F27F08BBF0D
:1044D0003E4605F11700304420F007008008FFF742
:1044E00007FE04F007040BF0070BE40044EA8B140A
:1044F00044EA462444EA0554054640B13FB13B46F0
:1045000052463146CDF800901030FEF71BFC434672
:1045100022462846039907B0BDE8F04F27F00ABFAE
:104520007E83030030F60200406820B1034BC01ABE
:1045300040F3CF0070474FF0FF307047B0F50200F6
:104540000EB403B503AB53F8042B014604480193A2
:1045500001F0ECFE02B05DF804EB03B0704700BF61
:1045600049C40200CA0605D48B064CBF0249034960
:10457000FFF7E6BF704700BF9CAE03009BAE030091
:104580002DE9F04F8BB09B46169B9DF854A00693E7
:10459000179B04460593189B0D469046199E04935D
:1045A000BAF1000F00F09E8006F00103089306F0B8
:1045B0000803079306F48073099327F09AFE06F028
:1045C0000209024600283BD020468F49FFF7B8FF7A
:1045D0000746B9F1000F08D016F0440F32D12A4631
:1045E00020468A49FFF7ACFF0744089B53B1884B2C
:1045F000204653F82A20874B8749002A08BF1A46CD
:10460000FFF79EFF099B002B48D0079B002B62D130
:10461000B8F1000F64D0424620468049FFF790FF72
:104620000546069B3D44002B6BD1049B002B71D1AA
:10463000F30700F1E28031462046FFF793FFD6E012
:104640000746C6E7764B18680028CDD0754B4FF467
:104650007A791B684FF03C0CB5FBF3F5B5FBF0F134
:104660004FF4616300FB115509FB05F5B1FBF3F253
:10467000B5FBF0FE03FB121100FB1E55B1FBFCF372
:1046800009FB05F5B5FBF0F50CFB13112046009175
:10469000CDE901E56449FFF753FFA5E7079BEBB1BF
:1046A000624B204653F82A206149FFF749FF05462F
:1046B000B8F1000F05D0424620465849FFF740FFA9
:1046C0000544BBF1000FACD05A4620465949FFF7CC
:1046D00037FF0544A5E74FF0000BE1E7079DE7E74B
:1046E00045469EE7BBF1010F069B06D1002B64D126
:1046F000049B002B7BD000250CE0002BF8D04E480B
:104700005CE04E48069B22464D4926F0EBFF049B99
:10471000002B68D0DFF83881DFF83891049F3146EC
:10472000102F204628BF10274FF0000BFFF71AFF6D
:104730005D4545DC059B494620461A78FFF700FF9A
:104740004FF0010B1BF0070F03D141462046FFF746
:10475000F7FE5F453BD9059B4946204613F80B20E1
:10476000FFF7EEFE0BF1010BBBF1100FEAD14FF09A
:10477000000B20463349FFF7E3FE5A46059B2046CF
:104780009A5CA2F120015F2928BF2E222E49FFF753
:10479000D7FE0BF1010BBBF1100F1DD01BF0070F63
:1047A00003D141462046FFF7CBFE5F455A46E5D888
:1047B00041462046FFF7C4FEEBE720485546A1E7F7
:1047C00041462046FFF7BCFE0BF1010BB0E7204647
:1047D0001E49FFF7B5FEC5E7059B3B440593049BC7
:1047E000DB1B04939AD1BAF1000F7FF421AF20466E
:1047F0000BB0BDE8F04F27F01ABE2046054A064927
:10480000FFF79EFE17E700BFBB830300BF830300D3
:1048100054FE0200B6830300F48E0300E483030019
:10482000903400208C340020C883030068FE02000E
:10483000E8830300EE83030077C4020049C402004A
:104840002D630000F9830300FB83030065AE0300C2
:1048500067AE0300F383030042F20F7373B58B421C
:1048600028BF0B4605680446052168460D4A24F01A
:1048700001FD0646636828460B225B680A4927F05B
:10488000C8FD63683246694628465B6827F0C1FD6B
:1048900063681B2228465B68044927F0BAFD02B012
:1048A00070BD00BF8A8C03001A840300FE830300DE
:1048B00000210123064A904206D8064A01B9012385
:1048C0001360054B18607047012140085B00F2E758
:1048D00040420F008C34002090340020F8B50D4683
:1048E0000446064F4618B44201D12846F8BD14F8D4
:1048F000011BBB6801485B689847F4E710F20200AF
:10490000014B036000207047B0FE020008B5044868
:1049100026F042FFBDE80840024826F03DBF00BF38
:104920006084030095840300014821F07DBF00BF2F
:10493000B0FE020038B5044618B90F4B0F485B684B
:1049400098476168B1F5683F10D0B1F5680F0DD098
:104950000B4DA9420AD011F46861206807D00146C6
:10496000084829F0CCFC00232360656038BD142280
:104970002AF086F9F9E700BFBC040020C3840300D5
:104980002C5F5CA9C039002008B560B34368B3F55B
:10499000683F0ED0B3F5680F18D0144A934220D068
:1049A00000684FF0FF324FF0FF330AF043FB58B17D
:1049B00015E001220368D3E8EF1F002903D1C3E803
:1049C000E02F0028F7D10AD1002008BD0368084A6B
:1049D0001B7803F5807352F82330002BF4D0054880
:1049E000F3E70548F1E76FF4E040EEE72C5F5CA9E0
:1049F00000000350E98FFFFFEA8FFFFF08B520B3E7
:104A00004368B3F5683F09D0B3F5680F13D0114A76
:104A100093421DD000680AF085FB14E00022036871
:104A2000D3E8EF1F012903D1C3E8E02F0028F7D115
:104A300009D0094808BD00210368084A1B7803F51E
:104A4000807342F823100020F4E76FF4E040F1E7B0
:104A50000348EFE72C5F5CA9E98FFFFF00000350DC
:104A6000EA8FFFFF10B5044618B91D4B1D485B685F
:104A700098476368B3F5683F2FD0B3F5680F2CD023
:104A8000194A934219D1236803BB4FF0FF324FF00C
:104A9000FF33214615480AF0DBF908B923681BB932
:104AA0000F4B13485B6898471422002120682AF0B6
:104AB000E7F84FF46863636008E0B3F5683F0DD82A
:104AC0003A2B03D040F6BA629342DED1206829F037
:104AD000B1FC636843F03A03636010BD054AF3E735
:104AE000BC040020C38403002C5F5CA9C0390020F3
:104AF000E98403003A00003A08B50649402314222D
:104B0000054829F0EEFBBDE808400449044821F0BF
:104B10004FBF00BFC0340020C0390020B8FE0200E3
:104B2000CCFE0200002370B5136086B005930379B4
:104B300005461446032B03D8DFE803F0051A315C61
:104B4000012006B070BD2D4B09BA049119680023ED
:104B50000422CDE9013300924E69006805AB04A937
:104B6000B0470028ECD1059B00201BBA2360E8E782
:104B70000B0C8DF811304BBA8268ADF812301F4B18
:104B8000090E1B680192042261F07F0100921E6AE7
:104B90008DF8101005AB04A90068B047E1E70B0CD5
:104BA0008DF811304BBAADF812300B0E63F07F0365
:104BB0008DF81030114BB1F5405F1B6800681E6A1C
:104BC000AB6801930DD202230422009304A905AB24
:104BD000B047BDF814305BBA2380003818BF0120FD
:104BE000AFE7042205AB009204A9B047059B1BBAAE
:104BF0002360F2E7224627F0BBFCEEE7F801002035
:104C000030B50379044685B0032B45D8DFE803F0BF
:104C100002152540214B12BA03921A680023009313
:104C20009569082209BA029120680DEB0201A84794
:104C3000003818BF012005B030BD12BA174B0392DF
:104C4000A2681B6801920422009209BA20685D6A7A
:104C5000029103AB02A9A847EAE70BBA02930F4BF4
:104C6000B1F5405F1B6820685D6AA36809D252BA3B
:104C700001930223ADF80C200422009303AB02A998
:104C8000E9E712BA039204220193009203ABF6E71C
:104C9000204627F08BFCCBE70120CCE7F801002071
:104CA000F0B50C4601790546022987B00ED819489F
:104CB00024BAE1B10168A8680594CDE90030134633
:104CC0004C6A0422286805A9A0471BE003291ED1CD
:104CD000012023F003031E19171BB44212D02146F2
:104CE00028463A5D27F062FC60B90434F5E70068B5
:104CF000CDE90111009305941346C4690422286884
:104D000005A9A047003818BF012007B0F0BD012059
:104D1000FBE700BFF80100202DE9F84F06460D46DD
:104D200017464FF0000BDFF89080DFF89090DFF827
:104D300090A0BB4501D3002016E055F82B1005EBE1
:104D40008B0C4145DCF804004FEA8B0211D0494539
:104D500020D0184B994226D1DCE902320146304678
:104D600027F03FFC10B10120BDE8F88F0BF1040BD8
:104D7000DFE702F108042B590C3201469B00304654
:104D80002A440BF1030BFFF78BFF0028EBD12C59C2
:104D9000A344CEE70022DAF800301146DB689847DA
:104DA0000BF1020BC5E702463046FFF729FF00284A
:104DB000F6D0D8E7010000800200008003000080E8
:104DC000F801002070B50D46044608B9012070BDF9
:104DD0000029FBD000F110060FCD0FC60FCD0FC676
:104DE000184B95E8030086E803001B6822469B6881
:104DF0001549A06998470128E8D001234FF02E7289
:104E0000C4E90F32114A0020A2640322C4E913202E
:104E10006266C4F884204FF4E8524FF4E0556267AC
:104E200004220B49E365C4E91551A4F86C0084F829
:104E30006E302367A167E267A4F88C0084F88E00C7
:104E40002360C4E7F80100200DC6020048FF0200FD
:104E5000A48001002DE9F3410368044633F0040205
:104E600004D10027384602B0BDE8F0814768012F21
:104E700021D1022B1DD10025A846184E85632B4653
:104E8000356805F5C03510359D421ED17268019B0D
:104E90001A4207D0B168A36B20460B43A36329468F
:104EA00027F0C0FB08F10108B8F1090F06F10C0664
:104EB000E5D100236360A06B0028D2D0E3690BB179
:104EC000216A98470023A363CBE72946204601AA1D
:104ED00027F0A0FB0028D9D0C4E700BFDCFE020009
:104EE000F0B5022240F60801D5B00446152627F099
:104EF00099FB3A4F00223B681146DB680520984732
:104F00006A4640F60401204627F084FB0546002847
:104F100062D1013E60D0009B9B07EBD5032240F697
:104F20000801204627F07EFB082320462C4901AAD1
:104F3000CDE9015527F090FB2A4B06AE1F4603F141
:104F4000280C324618685968083303C26345164670
:104F5000F7D1282306AA2046234927F07DFB234BBF
:104F600010AA03F1300C164618685968083303C6B6
:104F700063453246F7D118681D493423306010AAC2
:104F8000204627F069FBDC221A491DA829F051FEB2
:104F9000DC2319491DAA204627F05EFB174AD7F8E3
:104FA0003801516803AB03C39068154918600C239E
:104FB00020460DEB030227F04FFB022240F60801CA
:104FC000204627F02FFB002240F60801204627F05C
:104FD00029FB284655B0F0BD0125FAE7F80100206D
:104FE000AC10040064F70200A0C804008CF70200B3
:104FF000D0C80400C0F7020010C904009CF80200E9
:105000008C100400F7B5604D04462B6800211B6826
:105010000069984700222B681146DB6802209847F8
:105020002B6801215B686069984700222B68114654
:10503000DB68022098472B6801211B68206998478C
:105040001526524F00222B681146DB680A2098472C
:1050500039466A46204627F0DDFA0146D0B9013EBE
:1050600018D0009B1B07EDD56A46204627F0D2FAE0
:1050700080B9009B6A4604212046A36027F0CAFA43
:1050800040B9009B10212046E36001AA27F0C2FA34
:10509000012802D1012003B0F0BD019B002B55D0A7
:1050A000082B4ED155223021204627F0BBFAAA22E8
:1050B0003021204627F0B6FA55223421204627F029
:1050C000B1FAAA223421204627F0ACFA44F66851FE
:1050D0002F4A204627F0A6FA44F670512D4A204662
:1050E00027F0A0FA4FF4803242F2AC41204627F07C
:1050F00099FA40F2FF5242F2B441204627F092FA68
:1051000042F22041244A204627F08CFA40F2154210
:1051100042F22441204627F085FACC223021204655
:1051200027F080FA33223021204627F07BFACC2268
:105130003421204627F076FA33223421204627F006
:1051400071FA2046FFF7CCFE0128A3D0D4E90C1257
:1051500004F12400FFF7E0FD00289BD101260F4D4C
:10516000E968002301F5C03120462A6901F58871FC
:1051700027F060FA00288DD10136092E05F10C05C3
:10518000EED10223236086E7F8010020148001009D
:105190000000B11DB849027015041504DCFE0200C0
:1051A00010B5244C88B024888C420AD9224A009138
:1051B00023460121214827F020F96FF0150008B09F
:1051C00010BD1F4C24789C4205D801211D4A1B4864
:1051D00027F000F9F1E700240490CDF81640CDF84F
:1051E0001A40ADF81E40ADF814100AB9164A1268FC
:1051F00006920B9A0292BDF82820ADF80C200022EE
:10520000ADF80E20114A52F8230038B90B4801219D
:105210000F4A27F030FA4FF0FF30D0E702AA04A976
:105220000BF0E0FB0028CAD10C9BBDF80E201A80C1
:10523000C5E700BFF25300201685030088F6020080
:105240000A54002054850300F4390020F03900206E
:105250008485030030B51A4D87B02D789D4208D85B
:1052600018480121184A27F0B5F86FF0150007B06B
:1052700030BDADF810200022ADF80810ADF81220B6
:105280009DF83010ADF81420104A01908DF80A10E6
:1052900052F823000A99039138B90A4801210C4AAF
:1052A00027F0E9F94FF0FF30E1E703AA01A916F072
:1052B000EFFB0028DBD10B9BBDF812201A80D6E74C
:1052C0000954002088F6020054850300DC390020D0
:1052D000A5850300134607B541F64C5293420DD005
:1052E00042F21072934212D00A4801210A4A27F072
:1052F000C2F96FF0150003B05DF804FB0122CDE99F
:1053000000013F210023084615F00AFBF3E70022C5
:10531000F5E700BF88F60200C68503002DE9F04FCF
:105320001C4641F64C5385B09A4206460F469DF8FE
:1053300038B00ED042F210739A4213D013460121B6
:105340002F4A304827F097F96FF0150005B0BDE8F7
:10535000F08F4FF0010944B901212B4A294827F069
:1053600039F8F1E74FF00009F5E745F6C0539C42E4
:105370001DD82346254A0221224827F07CF90DF149
:105380000C0A53464A46394630461DF0B5FA204BC2
:1053900018800F9B188080B10025DFF890805D4554
:1053A00013D11C4B03981C601B4B1D70CEE71B4B8D
:1053B0009C42E4D923461A4ADDE712480121194AE2
:1053C00027F008F84FF0FF30C0E7D8F8003043B1BD
:1053D0000C482B460121144A27F04DF96FF0770055
:1053E000B4E74A4639463046CDE9003A0BF07EF83C
:1053F00048F8040B039801350028D0D0A6E700BF79
:10540000C685030088F60200E0850300F5850300E9
:10541000F2530020F43900200A540020FF700200EB
:105420001A860300408603006A860300F0390020D4
:105430002DE9FF471D4641F64C539A4207468846E0
:105440000ED042F210739A4216D01346184801212A
:10545000184A27F010F96FF0150004B0BDE8F08786
:105460004FF0010A0024144E0DF10C09AC4206D194
:10547000124B00201C70F0E74FF0000AF2E733688F
:1054800043B10B48234601210D4A27F0F4F86FF091
:105490007700E2E7524641463846CDE9003916F03A
:1054A0004DF946F8040B039801340028DED0D4E708
:1054B00088F60200C6850300DC390020095400206C
:1054C0008D86030038B5044600F098FFB0B1002285
:1054D0000D4951F8323001EBC20583B941F8320071
:1054E0001A466C60094C54F833100133322B0A44CD
:1054F000F9D1074B1968914238BF1A6038BD0132A3
:10550000322AE6D127F031F9FC390020003A002098
:10551000F839002010B5044600F08AFF5CB1002382
:10552000084A52F8331002EBC300A14204D1002113
:1055300042F83310416010BD0133322BF1D127F016
:1055400014F900BFFC3900202DE9F84F80460C46C5
:1055500000AF002965D0D1E90012E9468AB0A368FE
:105560006D464FF0050A2E463748C5E90723C5E9C1
:10557000050146F810AF002332464FF4215133485D
:10558000FEF7FEFED4E90312CD466369AD4630480E
:10559000C5E90723C5E90501C5F810A00023324677
:1055A0004FF421512948FEF7EBFECD46E369012176
:1055B000284A264826F017FF264600254FF00A0AFB
:1055C000DFF8A0B0E946D6E908E0D6E90A138EB0C4
:1055D0006A46C2F81CE005F1010EC2E908E0A81C09
:1055E000C2E90A01E91CC2E905B5C2E90C1342F897
:1055F00010AF002345F2400114480435FEF7C0FE09
:10560000102DCD4606F11006DCD1236E0121124A81
:105610000E4826F0E8FEA3690121104A0B4826F047
:10562000E2FEB8F1010F07D1EFF305830C4A4146C2
:105630000648103B26F0D7FE2146404609F046FAC0
:10564000BD46BDE8F88F00BFBD86030070F60200BE
:10565000EC8603001B8703006D8703007C87030033
:10566000AA8703002A87030030BFFFF7FDBF00BFF2
:105670002DE9F04105460B4EDFF83080324606EB4F
:105680000807CC1B2046084929F0D3FAA019424646
:105690000021083C29F0F4FAC5F8A84007F10800F9
:1056A000BDE8F08100000000ECF6020008000000F8
:1056B000054B9A699B689A421FBF044A536843F09E
:1056C00080535360704700BFC83F002000ED00E0EA
:1056D00070B52A4C06460D4629482A4926F0DAFFBD
:1056E000A36ADB0647D52648274926F0D3FF1120B9
:1056F000A36A1C0704D52248244926F0CBFF1220B8
:105700001E4CA36A990712D521491D4826F0C2FFF5
:10571000636BA26A120609D501211E4A184826F0B9
:1057200062FE1EB1A36A23F08003A3621320134C10
:10573000A36ADE0704D51248174926F0ABFF1420F0
:10574000A36A9C0604D50E48144926F0A3FF152031
:105750000A4B9A6AD10658BF9A6A9A6A920642BF61
:105760005A6A22F400525A629A6A42F0FF029A621E
:1057700000232B7070BD1020BAE700BF00ED00E0E1
:1057800070F60200BD870300D3870300068803007C
:1057900019880300318803004788030066880300E6
:1057A00010B5244C2449254826F074FFA36A9901BA
:1057B0003ED52248224926F06DFF1E20A36ADA0159
:1057C00004D51E481F4926F065FF1F20194CA36A07
:1057D000DB0204D519481C4926F05CFF0220A36AAD
:1057E0001C0304D51548194926F054FF2120114CFB
:1057F000A36A590304D51148154926F04BFF22200E
:10580000A36A9A0304D50D48124926F043FF2320CA
:10581000084CA36ADB0304D508480F4926F03AFF79
:105820002420A36A6FEA03436FEA1343A36210BD07
:105830001D20C3E700ED00E09588030070F602002C
:10584000AD880300C0880300DA88030004890300E0
:1058500022890300478903006189030070B5294C40
:1058600006460D462848294926F014FFA36AD904A4
:105870003CD52548264926F00DFF1720A36A1A05B6
:1058800004D52148234926F005FF18201D4CA36AA2
:105890009B0512D51C48204926F0FCFEA36BA26A8A
:1058A000100409D501211D4A174826F09CFD1EB1A0
:1058B000A36A23F40043A3621920124CA36A59057A
:1058C00004D51148164926F0E5FE1A20A36ADA0528
:1058D0000ED50D48134926F0DDFE1B20094A936AB8
:1058E00043F47F43936200232B7070BD1620C5E7FD
:1058F000A36A9B04F2D504480B4926F0CBFE1C207A
:10590000ECE700BF00ED00E070F602008C890300B8
:10591000A289030006880300B3890300CC89030031
:10592000E1890300FC890300668803002DE9F0414A
:105930009CB0624B0546D3F80480002600AFC8F344
:10594000080486F31188BFF36F8F02F07F43B3F131
:105950007F4F07D102F00C03082B12D15849594848
:1059600026F098FE002635460023FB71E31E092B26
:1059700000F28380DFE803F00A797C758181818100
:10598000817F10074CBF0D460126EDE74E494D487B
:1059900026F080FE0023494CFB71E36A9A0705D587
:1059A0004A49484826F076FE002431E0E36A002B9D
:1059B00001DA4749F5E7E36A5B00F5D54549414817
:1059C00026F068FE6369AA6943F480736361BFF3DC
:1059D0004F8FBFF36F8F636932F8022C23F480730B
:1059E0006361BFF34F8FBFF36F8F4DF602739A421F
:1059F00007D0A36ADBB23BB30120F91DFFF768FEB5
:105A000031E02B680121344A2E4826F0ECFC2C684A
:105A1000FB79ABB96822294607F1080029F009F99A
:105A20007B6A002E45D0C3F3080222B96FEA5323E4
:105A30006FEA43237B62204607F10801FFF784FDEC
:105A40007037BD46BDE8F081A36A13F47F4F04D0E0
:105A50000120F91DFFF702FF05E0A36AB3F5803FBF
:105A6000A2D3FFF79DFE0446D2E70020F91DC5E74B
:105A70000020F91DEEE7194993E7194A18F4F87F59
:105A8000E8468AB0174B18BF13466A461649103CC1
:105A9000C2E905134FF400731384144BD46142F828
:105AA000103F00234FF411510648FEF769FCC5462C
:105AB0007AE723F4FF7323F00103BBE700ED00E076
:105AC000428A030070F602006D8A0300848A030094
:105AD000A58A0300B38A0300D28A0300EE8A03007A
