:020000040000FA
:1000000098F30020A54D0000471E0200914D00000E
:10001000914D0000914D0000914D0000914D000068
:100020000000000000000000000000004D4F000034
:10003000914D000000000000A94E0000914D00000D
:100040006D5100006D5100006D5100006D510000B8
:100050006D5100006D5100006D5100006D510000A8
:100060006D5100006D5100006D5100006D51000098
:100070006D5100006D5100006D5100006D51000088
:100080006D5100006D5100006D5100006D51000078
:100090006D5100006D5100006D5100006D51000068
:1000A0006D5100006D5100006D5100006D51000058
:1000B0006D5100006D5100006D5100006D51000048
:1000C0006D5100006D5100006D5100006D51000038
:1000D0006D5100006D5100006D5100006D51000028
:1000E0006D5100006D5100006D5100006D51000018
:1000F0006D5100006D5100006D5100006D51000008
:100100006D5100006D5100006D5100006D510000F7
:100110006D5100006D5100006D5100006D510000E7
:100120006D5100006D5100006D5100006D510000D7
:100130006D5100006D5100006D5100006D510000C7
:100140006D5100006D5100006D5100006D510000B7
:100150006D5100007BB972B90029BEBF00204FF07D
:10016000004106E008BF00281CBF6FF000414FF0BF
:10017000FF3000F057B8ADF1080C6DE904CE00294E
:1001800009DB002B1ADB00F069F8DDF804E0DDE99B
:10019000022304B07047404261EB4101002B1BDB9E
:1001A00000F05CF8DDF804E0DDE9022304B0404231
:1001B00061EB4101524263EB43037047524263EBF0
:1001C000430300F04BF8DDF804E0DDE9022304B05E
:1001D000404261EB41017047524263EB430300F040
:1001E0003DF8DDF804E0DDE9022304B0524263EBA0
:1001F0004303704753B94AB9002908BF00281CBF00
:100200004FF0FF314FF0FF3000F00CB8ADF1080CAB
:100210006DE904CE00F022F8DDF804E0DDE9022308
:1002200004B07047704700BF10F8012B11F8013B74
:10023000012A28BF9A42F7D0D01A7047034611F816
:10024000012B03F8012B002AF9D17047034613F85C
:10025000012B002AFBD1181A013870472DE9F0470D
:1002600086468C460846089E154674461946002B5D
:1002700040F0C1808542B2FA82F245D94AB1C2F15A
:10028000200300FA02FC954094402EFA03F343EA5F
:100290000C0C4FEA154EA8B2230CBCFBFEF80EFB6B
:1002A00018CC08FB00F943EA0C43994528D9EB1810
:1002B00008F1FF3704D2994502D9A8F102072B446F
:1002C000A3EB0903A4B2B3FBFEFC0EFB1C330CFB37
:1002D00000F044EA0344A04214D92C190CF1FF3376
:1002E00004D2A04202D9ACF102032C44241A43EAFE
:1002F00007401EB1D440002334607360BDE8F0872E
:100300004746DDE76346F1E792BB431B01214FEA15
:10031000154EAFB2200CB3FBFEFC0EFB1C330CFBE6
:1003200007F840EA0343984561D9EB180CF1FF3018
:1003300004D2984502D9ACF102002B44A3EB080388
:10034000A4B2B3FBFEFC0EFB1C330CFB07F744EA24
:100350000344A7424DD92C190CF1FF3304D2A74214
:1003600002D9ACF102032C44E41B43EA0040C0E78D
:10037000C2F120039540944020FA03F12EFA03F3D2
:100380004FEA154E9040AFB20343B1FBFEFC0EFBAB
:100390001C10190C0CFB07F841EA0041884522D9D2
:1003A00069180CF1FF3004D2884502D9ACF1020083
:1003B0002944A1EB08019BB2B1FBFEFC0EFB1C1112
:1003C0000CFB07F743EA01439F420ED9EB180CF1EF
:1003D000FF3104D29F4202D9ACF102012B44DB1B56
:1003E00041EA004193E76046E3E76146F7E760468C
:1003F000A4E76346B8E7834206D916B90021084648
:100400007CE7C6E900E0F9E7B3FA83F78FB98342E6
:1004100001D3724508D8BEEB020460EB0303012050
:100420009C461EB9002169E73846FAE7C6E9004C48
:10043000F8E7C7F1200CBB400EFA07F522FA0CF4DE
:100440002EFA0CF1BA401C4320FA0CF3B8404FEAE4
:10045000144901431FFA84FEB3FBF9F809FB183075
:100460000B0C08FB0EFA43EA00439A4540D9E31807
:1004700008F1FF3004D29A4502D9A8F102002344C2
:10048000A3EB0A0389B2B3FBF9F809FB183308FBA5
:100490000EFE41EA03418E452CD9611808F1FF3365
:1004A00004D28E4502D9A8F10203214443EA004058
:1004B000A1EB0E01A0FB02984145CE46434602D374
:1004C00006D14D4504D20138B9EB020E68EB0403A6
:1004D000002EA7D0B5EB0E0261EB030101FA0CFC74
:1004E00022FA07F3F9404CEA0303C6E9003199E721
:1004F0004046C5E74346D9E70A460146014820F091
:100500002FBD00BFC45C030008B50146054820F0BC
:1005100027FD0022044B05481A80BDE8084020F062
:100520003DBA00BFF45C030054910020F80800209D
:1005300010B5044622F0E3FF084BA0FB0330DB0BB1
:1005400043EA404001F0FEFE2146A022044824F088
:1005500016FCBDE81040034820F020BA40420F00CE
:10056000F6910020C808002001481BF0A1B800BF88
:10057000A46D002008B5084820F0F2FC074BD3E832
:10058000EF1F0331C3E8E21F002AF8D1BDE808409D
:1005900003481BF08DB800BF0E5D0300F46D002012
:1005A000F86D002008B50021044820F0ECF920B1D6
:1005B000BDE8084040B201F05BB908BDF46D002011
:1005C00010B50D4820F0E7F9A8B904210B4820F038
:1005D000C6F904460028D4BF00210121084820F0B4
:1005E000D2F90849084B0948002CC8BF1946BDE894
:1005F000104020F0B5BC10BDF06D0020FC52020090
:10060000E06D0020285D0300205D0300315D0300E4
:100610002DE9F0430646B3B0394D05AB95E803002C
:1006200083E803001946304607F066F9044638B1FE
:100630000146344820F094FC204633B0BDE8F083F6
:10064000014614220DA824F0C1FBA86801210190E5
:10065000D5F80E00AB8903900620ADF808306B8A00
:1006600001AAADF81030284B12AD129303ACAA606A
:100670006860243315AA013105291360C2E9010419
:1006800003F1240302F10C02F5D14FF001081F4BD6
:10069000DFF88890CDE9071509934946343307AF51
:1006A0000AA8CDF828800B970C930AF00BF80446A3
:1006B00010B101461648BDE74FF40003D9F8000019
:1006C0000AA9CDE90B350A9522F093FB044610B137
:1006D00001461048AEE716238DF81C30BDF82C30CB
:1006E00042468DF81D300A9B39463046089307F084
:1006F00071F9044600289FD0014607489AE700BFD9
:10070000505802003B5D030038390020580100209A
:10071000735D0300965D0300AB5D0300EC390020C0
:10072000014603488368DB690BB101221847704713
:10073000FC52020010B5144820F02DF9044658B1BF
:100740000021114820F01FF9104820F029F900205D
:10075000BDE8104001F0BAB801210B4820F013F9B0
:100760000A4820F01DF92146094820F00CF90948F3
:1007700020F011F928B1074820F005F9064820F0CB
:100780000FF90120E4E700BFF06D0020485D020092
:10079000E06D0020D06D0020585D020010B51348B8
:1007A00020F0F9F8044600BB114820F0F4F878B1C5
:1007B00021460F4820F0E7F80E4820F0F1F82146D6
:1007C0000D4820F0E0F80D48BDE8104020F0C8BB0F
:1007D0000121074820F0D7F8064820F0E1F8012170
:1007E000054820F0D0F80648EEE710BDF06D002077
:1007F000D06D0020585D0200E06D0020C85D030050
:10080000F15D0300062108B5054820F0A8F800288E
:1008100004DDBDE8084003481AF04ABF08BD00BF28
:10082000FC520200C06D00201FB5164B04461B6829
:10083000834220D10121144820F0B2F8134820F05F
:10084000ADF81148002120F0ABF8114820F0A3F8D2
:1008500048B9104A13680133012B136003D90121F1
:100860000B4820F090F8204601A908F05BFD20B964
:10087000019801F059FD04B010BD074A1368013317
:100880001360F8E724390020985D02002809002051
:10089000643A0020AC380020A83800202DE9F0414F
:1008A000334D344E344F86B04FF0FF324FF0FF33AC
:1008B00028461AF043FD00220023304621F046FB73
:1008C000044618B92D4820F04BFBEDE700F10C0869
:1008D0000D21404621F06DFB0021384620F053F8F1
:1008E00030B3274B01AA03F1100E944618685968DB
:1008F0000833ACE8030073456246F6D11868CCF8BB
:1009000000001422404601A921F064FBDFF8888032
:100910001C4B2146B8F80020186821F0BAFF011ED0
:1009200012DA194820F01CFB204604F04DFFBBE70B
:10093000142201A824F04AFA144B15481968013111
:10094000196020F00DFBDCE7B8F80030114A0133E4
:10095000A8F80030136801331360C822B3FBF2F12A
:1009600002FB1133002B9FD1084A13609CE700BFA4
:100970002809002058090020A06B00201D5E0300FC
:10098000D2940020243900206C5E0300BC38002083
:10099000405E0300B8380020549100202DE9F04F4C
:1009A000ADF5277D4FF0FF324FF0FF3377481AF057
:1009B000C5FC012176481FF0F3FF002106AC0E466E
:1009C000A0468A46734805AD734FDFF8F4B11FF0B7
:1009D000DAFF29607B7DEBB137F8023CD3B1142BF1
:1009E00028BF1423994640F648436C4A4FF47A5185
:1009F00003FB0623DBF8400000220EF06FFD684A7F
:100A000042F82600002840F0AB800290B11C6548F7
:100A100020F0A6FAA0220021404624F0D7F90136A2
:100A2000042E27F802AC87F814A087F815A008F167
:100A3000A00807F11C07CDD14FF064095A4F39685F
:100A4000B1FBF9F609FB161626BB584820F088FAC8
:100A5000DFF87081DFF870A198F86530002B40F066
:100A60008C8098F86410002340461A46994200F39F
:100A7000868012FB09F2B2FBF1F250463146D2B247
:100A8000013620F06DFA042E08F16608E4D14848DA
:100A900020F066FA00232A46194612F8010B00B12D
:100AA00001310133042BF8D14FF0000CDFF81CE1C9
:100AB000DFF81C8100263F4BD8F800201B88CDF8BA
:100AC0000CE09BB2029302EB831A0020A946024677
:100AD000A31919F801BBBBF1000F02D033F910B014
:100AE0005A445030B0F5A07FF3D1334B02369A42CE
:100AF000B8BF1A4647F6FF739A42A8BF1A461004B9
:100B000010FA82F04AF8040B0398202E20F8022BEA
:100B10000390DAD1029BB8F80C200133B3FBF2F05A
:100B200002FB10330CF1100C224A9BB2BCF1500FA7
:100B3000138004F120040EF1200EBBD10029D4BF94
:100B40000021012113481FF01EFF002110481FF053
:100B500027FF1A481FF022FF3B6801333B6021E763
:100B600001234A46CDE90083394600230EF03CFEBE
:100B7000B0FA80F04009A85551E7642173E710F8F6
:100B800001CB01336244D2B270E700BF9808002065
:100B9000885D02009C6B0020F6390020683A002036
:100BA000886B00208A5E0300B0380020C35E03001B
:100BB00078980300989200200080FFFF80080020B2
:100BC000580100203A930020D25E03005691002085
:100BD000480100202DE9F04300273E4B3E4E9D8FFB
:100BE000ABB04FF0FF324FF0FF3330461AF0A6FBA8
:100BF00001213A481FF0D4FEA022394902A824F06E
:100C0000BEF838481FF0C7FE40B937481FF0C3FE92
:100C1000014618B9A02202A824F0D8F800213348D0
:100C20001FF0B1FE88B1324C02A834F9023BB0F992
:100C3000002003EBD37302EBD2725B10013103EBA4
:100C40006203502920F8023BEFD122F058FC294BD7
:100C50008046CDE9005328480123002102AA0068FC
:100C60000EF056FB814622F04AFCB9F1FF3F0446E4
:100C700007D1224820F074F9002118481FF090FE97
:100C8000AFE701211E48DFF88C901FF07CFE0021A9
:100C900012481FF085FE99F8003023B119481FF063
:100CA0007DFE89F80070184A1368591C116064228F
:100CB000B3FBF2F002FB1033002B92D1134AA4EBEA
:100CC0000800A0FB0202C00B40EA4242104820F09C
:100CD00047F986E75801002080080020805D020067
:100CE000F6910020F06D0020E06D00209C6B00204C
:100CF00056910020D2940020986B0020DF5E030004
:100D0000A06B002028090020B438002040420F00CA
:100D1000F25E03007C070020F8B50E46144601255C
:100D20002E4B53F8042F904252D12D481FF033FE22
:100D3000002850D001212B481FF032FE002C4BD050
:100D4000238A23B1B37983F00203C3F340031C2247
:100D50000027013D6A4324488752012781188F7577
:100D6000CB75B28864268A616621204A01FB052280
:100D700092F8641053543944B1FBF6FC06FB1C1185
:100D800082F8641009B982F865705BB11C23228A6D
:100D90006B43142A28BF1422C2520233E16818445C
:100DA00023F0EDFF1248D0E8EF3F0133C0E8E23F07
:100DB000002AF8D1032B05D900211FF0E4FD0D48CE
:100DC0001FF0ECFDBDE8F840002106481FF0E8BD2B
:100DD0000135052DA5D1F8BD2346B8E724390020FB
:100DE000643A0020905D0200F43900203A9300201C
:100DF000F03900209808002008B5084820F0B0F825
:100E0000074BD3E8EF1F0339C3E8E21F002AF8D1EC
:100E1000BDE8084003481AF04BBC00BF0F5F030059
:100E2000F46D0020F86D002041F288332DE9F04385
:100E30009C4A9D4D0021C5E90F23022385F83A30D5
:100E4000FF23AB70994B012099B0C5E901310BF03C
:100E5000A3FD00F1744404F5A6043CB12146944876
:100E600020F07EF8204619B0BDE8F083914820F0CC
:100E700077F8914820F074F800F02CFB014650B14F
:100E80008E4820F06DF88E481FF09EFD30B98D48D9
:100E900020F066F80CE000F045FBF4E74FF48031F9
:100EA00089481FF03DFD014670B1884820F058F890
:100EB0008748884923F084FC81481FF085FDD0B91C
:100EC000854820F04DF825E04FF0E8617E481FF09E
:100ED00004FD044610B101468048E7E78048814B95
:100EE000436010238360FFF71BFC21467E481FF000
:100EF0004AFD7E48CCE772481FF066FD0028DFD02F
:100F00004FF480317A481FF00BFD014668B17948F3
:100F100020F026F800F018FB7749784800F006FD2D
:100F20000446E8B1014676489AE74FF4B011754897
:100F30001FF0F6FC014608B17348E9E74FF0E8619D
:100F40006B481FF0CAFC014608B17048E0E77048E2
:100F5000704B436040238360FFF7E2FB6E48B0E7CD
:100F600000F058FD044610B101466C4878E700F0E7
:100F7000ADFC6B486B4923F023FC51481FF024FD66
:100F800058B969481FF0ECFF286C01F087F9044656
:100F9000002835D00146654862E749481FF014FD36
:100FA0000028EED04FF4803161481FF0B9FC0146B3
:100FB00018B160481FF0D4FFE6E74FF4B0115E4867
:100FC0001FF0AEFC014608B15C48F3E74FF0B86192
:100FD00057481FF082FC014608B15948EAE75948D2
:100FE000594B436020238360FFF79AFB574B584AC5
:100FF0001968584B584800290CBF11461946D9E7C3
:101000005648574923F0DCFB2D481FF0DDFCA0B902
:1010100054481FF0A5FF544B00224FF47A51286C1E
:101020000EF002F8514B1860002840F0B180504893
:101030001FF096FF6FF0040414E721481FF0C4FC72
:101040000028E5D04FF480314A481FF069FC0028A1
:10105000E1D14FF4803148481FF062FC0028DAD11A
:101060004FF0B86143481FF038FC0028D3D14FF04F
:10107000B86141481FF031FC0028CCD13F48404BBB
:10108000404E4360042383603F4B73600823B3608A
:10109000FFF746FB3046FFF743FB03213B481FF0B9
:1010A0005FFFB8E714000A0058010020ADDEEFBE74
:1010B0002F5F0300555F03006F5F03008C5F030029
:1010C000FC520200A15F0300685D0200BC5F0300E8
:1010D000C06D00209D07000032600300DD5F03004B
:1010E000E46D0020C1050000E06D002001600300F8
:1010F000605D0200566003003105000048010020D9
:10110000FB600300585D02007C6003009F600300E9
:10111000D46D002005080000C860030012610300C0
:10112000A46D0020350700002A610300036203005C
:10113000505D020053610300485D02007E610300C0
:101140009F610300B46D002069050000F06D002070
:101150002B5F0300235F0300CD610300F86D0020C7
:10116000A50500001D620300780D0020986B00208B
:1011700076620300785D0200705D0200146E00204C
:10118000F90D0000086E0020750500003B620300A9
:101190009D4E9E4F334600224FF47A51286C0EF03C
:1011A0009DF947F8040B20B9214699481FF0D8FE55
:1011B00040E70134042C06F64846EBD195481FF071
:1011C000CFFE95481FF0CCFE002600270024032305
:1011D0004FF48052CDE90334CDE90667CDE90144EF
:1011E0008E4B8F4900948F481AF05AFB8E498D48D8
:1011F0001AF0E0FA4FF002084FF48052CDE906678A
:10120000CDE90248CDE90044884B894904948948D6
:101210001AF046FB884987481AF0CCFA0122214689
:10122000864823F067FA204605F0D2FC044610B148
:101230000146834814E6834F13AE0FCF0FC63B68B9
:101240002146336009AA13A806F0D4FA044610B167
:1012500001467D4804E64FF4A0220AAB41F6520154
:101260000CA8CDE90D230C9320F0C5FE77490CA8FE
:1012700020F0CBFE16238DF83C30BDF834300094BE
:101280008DF83D300C9B4246109341F20923ADF896
:1012900044306F4B099812930FA9234621F021FA8D
:1012A000044610B101466B48DAE50998FFF7B0F93A
:1012B000044600287FF4D6AD099821F044FA04468C
:1012C00010B101466448CBE5ADF83C008DF83E0016
:1012D0000FA9099806F0BEFA044610B101465F480E
:1012E000BEE55F4A5F4E1146334617460998DFF860
:1012F000A8E1DFF8A8C10134052CC3E901EC41F8ED
:10130000043B03F11403F6D1002352F8041B01330C
:10131000896895F83A404968DBB2052BCC70F4D166
:1013200051492B6C0CAA8B60EB8F0F608B8108F0FE
:1013300063F8044610B101464C4891E50546DFF8D4
:101340006081DFF860914A4F294640461FF008FE51
:101350004FF0FF324FF0FF33484619F0EFFF0446DD
:1013600010B1014643487BE52946384601351FF058
:10137000F7FD052DE8D100F0EBFF2546DFF82881C9
:101380003D4F294640461FF0EBFD1422002113A8D3
:1013900023F01CFD0323E9B2003918BF01213046B8
:1013A00013AA8DF84D3007F00DFC044610B101462C
:1013B000324855E52946384601351FF0D1FD052D47
:1013C00006F11406DDD100220023CDE90623022315
:1013D0004FF48062CDE90243CDE90044284B29490E
:1013E000049429481AF05CFA284927481AF0E2F9CF
:1013F00027481FF0D3FA012000F094F80146002896
:101400003FF430AD23482BE5683A0020886B00207C
:1014100093620300B3620300D26203009D090000DF
:10142000989C0020880B002022630300D50B00004D
:1014300098AC0020800C00202E6303008008002060
:101440003A630300645802005A63030056341200E2
:101450008563030098630300C1630300F163030025
:1014600024390020C038002024010020206403001B
:101470006464030049630300C3640300A0640300C1
:101480009D08000098980020900A0020E86403005E
:1014900028090020EF640300080100201C0100203F
:1014A0003F640300F808002082640300084B1A69B7
:1014B0001268520148BF80F0010028B19B68DB68C8
:1014C0004FF08061024818479B681B69F8E700BF2E
:1014D000FC52020038B5114D2B78C3B9104C204690
:1014E00022F08CFFB0B12269A1681368204623F076
:1014F000806313600B684FF4C0221A21984703469B
:1015000030B9FFF7D3FF034610B901232B70002336
:10151000184638BD6FF01203FAE700BFE6940020CA
:10152000FC52020010B5074B04461B7823B120463D
:10153000BDE81040FFF7BABFFFF7CCFF0028F6D098
:1015400010BD00BFE694002010B5214822F056FFE0
:1015500030B920481FF004FD6FF01204204610BD82
:101560001D481FF033FA044620B101461B481FF006
:10157000F7FCF3E7164822F041FF08B91848E9E7FD
:1015800018481FF023FA044610B101461648EEE74A
:101590000F4822F033FF08B91448DBE714481FF066
:1015A00015FA044610B101461248E0E7124822F04D
:1015B00025FF08B91148CDE711481FF007FA044686
:1015C00010B101460F48D2E70F481FF0C9FCC5E72C
:1015D000DC52020015650300905D020034650300D3
:1015E0005E650300885D02007F650300AB65030054
:1015F000805D0200CC650300FC520200F865030028
:10160000985D020017660300416603002DE9F04172
:101610000446DFF8488000EBC105AC4201D1002050
:1016200017E0D4E90067012E04D1384622F0E1FE2C
:101630000834F2E73A463146404620F0D7FB0346ED
:101640000028F5D004483A4631461FF089FC6FF077
:101650000400BDE8F08100BF8E660300346E0020F8
:101660002DE9F8430546002849D04FF000084446CC
:101670006F4E704F3378011F07EB43173C3051F822
:10168000042F1314002BB8BF5B429BB212B29C42D2
:10169000B8BF1C46002AB8BF524292B29045B8BFAC
:1016A00090468842EBD1DFF8C091D9F80030002B8A
:1016B0000FDA402C02DCB8F1400F0ADD4445ACBF24
:1016C00000210121434622465B48C9F800101FF063
:1016D00047FCD9F80030002B7BDBDCB2002355F847
:1016E0002320002C7AD1121427F813200133102B59
:1016F000F5D133780133DBB2042B71D833704F4A04
:101700004F4E13784F49DFF86481002B18BF0E4607
:1017100083F001031370D8F800304B4F002B68D0D2
:101720009A6814885A68A4B2128892B2944260D01F
:10173000396861B19B89121B1A4492FBF3F003FBD9
:101740001022424892B21FF00BFC00233B60B446CB
:10175000D8F800704FEA841E3B6803EB841303F152
:101760004008624618685968083303C243459446E6
:10177000F7D1386840220021704423F027FBBB8951
:101780000134B4FBF3F103FB1144BA68A4B2304B4B
:101790001480D3E8EF1F0131C3E8E21F002AF8D11B
:1017A0003146284600F01AFA014600283ED0294B5F
:1017B0001A680132052A1A6006D93220B2FBF0F30A
:1017C00000FB1323002B31D1BDE8F84322481FF062
:1017D000C7BB4445ACBF002401247FE712B283E7B6
:1017E000002333701D4B1B68002B88D0114898478D
:1017F00085E740220021304623F0E8FA184BD3E871
:10180000EF1F0131C3E8E21F002AF8D13B68013322
:101810003B60144BD3E8AF1F3A688A42C0D9D3E883
:10182000EF1FC3E8E02F0028BAD0F8E7BDE8F8833F
:10183000E89400209A920020C2660300E7940020FA
:10184000046F0020C46E0020286E0020F86603009C
:101850002C6E0020206E002028670300C86F002037
:10186000306E0020246E00209C010020C46F0020F8
:1018700073B5064644F61801124801AA20F0AEFAE4
:1018800018B16FF0040002B070BD9DF8044044F63A
:10189000180104EB4604802CA8BF802424EAE474D9
:1018A000084844F4007220F0A1FA05460028E8D167
:1018B0006310054822463146403B1FF051FB284645
:1018C000E1E700BF346E00205F67030010B5104BE6
:1018D0001B78D3B10F4C38B109210F48FFF796FEA2
:1018E0000023236078B110BD0A210C48FFF78EFE5B
:1018F0004FF0FF3323600028F5D1094909481FF054
:101900002FFB0020EFE70849F8E74FF0FF30EAE748
:10191000E99400209C010020505E0200985E0200C5
:101920002B5F030083670300235F030038B50028A3
:1019300053D0002951D02A4D2B78002B4BD1294A66
:101940001060294A29481160294A136000F0E0FA22
:10195000044628B1014627481FF002FB204638BD47
:1019600002212548FFF752FE04460028F6D109213E
:101970002248FFF74BFE04460028EFD104212048FF
:10198000FFF744FE04460028E8D10E211D48FFF76A
:101990003DFE04460028E1D109211B48FFF736FE31
:1019A00004460028DAD103211848FFF72FFE044629
:1019B0000028D3D144F6180140F262220B4820F0EF
:1019C00015FA014628B112481FF0CAFA6FF0040454
:1019D000C4E701232B700024C0E76FF01504BDE7B6
:1019E000EA940020C46F0020C86F0020346E0020ED
:1019F0009C01002099670300A05D0200085F0200BF
:101A0000E85E0200C85D0200505E0200385E02001F
:101A1000B767030038B5224B1B78002B3CD0214D13
:101A20002B78002B36D103211F48FFF7EFFD04462A
:101A300028B101461D481FF093FA204638BD1C48C6
:101A400000F056F800F05AF8044610B10146194863
:101A5000F1E701464022184823F0B8F92146402218
:101A6000164823F0B3F91449154800F091F80446DC
:101A700010B101461348DEE71049134800F0AEF8F4
:101A8000044610B101461148D5E711481FF068FA25
:101A900001232B700024D0E74FF0FF34CDE700BFC7
:101AA000EA940020E9940020B05D0200DD670300A5
:101AB00061160000FA670300046F0020C46E002066
:101AC000846F002015680300446F00203168030014
:101AD00054680300012908D138B1044A126822B1C0
:101AE000D0E9000100B901B110477047CC6F002068
:101AF000014B1860704700BFCC6F002037B51D4DFB
:101B00002B78002B34D14FF0502449F6A633C4F87B
:101B10005C350123A361D4F8203153B1002116486C
:101B200001AA21F048FB002808DA6FF0040003B096
:101B300030BD0021212022F058FFECE7019B0F4A25
:101B40001979186809F024FD02460028EDD1012119
:101B5000282003F03DFA282003F00AFA084A094930
:101B600009480BF0DDFB094B9842DED101232B70B5
:101B70000020DCE7EB940020505F02000080025060
:101B8000D51A0000A0010020C80100200000AD0B04
:101B90001FB50F4C2378012B13D100B989B1102345
:101BA000CDE9010100220B4801A9ADF80C300BF082
:101BB00089FC094B984207D102230020237004B00E
:101BC00010BD6FF01500FAE76FF00400F7E700BFF3
:101BD000EB940020C80100200000AD0B1FB50D4B99
:101BE0001B78022B13D100B989B11023CDE9010173
:101BF000094801A9ADF80C300BF0D8FC074B98420E
:101C000014BF6FF00400002005B05DF804FB6FF016
:101C10001500F9E7EB940020C80100200000AD0B8F
:101C2000014601481FF09CB98968030008B50248C5
:101C30001FF096F9012008BDAF68030008B50248FF
:101C40001FF08EF9012008BDDA68030008B50248CC
:101C50001FF086F9012008BD0669030008B5024897
:101C60001FF07EF9012008BD2B69030008B502486A
:101C70001FF076F9012008BD4F69030008B502483E
:101C80001FF06EF9012008BD8269030008B5024803
:101C90001FF066F9012008BDA769030008B50248D6
:101CA0001FF05EF9012008BDD86903000A4608B597
:101CB0000123C0B203FA00F107484AB18368DB6828
:101CC000984720B1014605481FF04AF9012008BD98
:101CD00083681B69F4E700BFFC520200FB69030044
:101CE000F8B50125154B164E1960164B16491A60AA
:101CF000164BB7684B6005FA00F38B60FB6904462E
:101D00000BB90120F8BD2A46304698470028F8D183
:101D1000E1B2BC693369002CF3D01B688D401D42D1
:101D200014BF4FF080634FF000734FF0A072304645
:101D3000A047003818BF0120E4E700BFF46F00207F
:101D4000FC520200F06F0020E46F0020511D0000E3
:101D5000B2F5002F08B50AD1054A064B00201B68D2
:101D600011689847BDE80840034819F0ADBA08BDAE
:101D7000F06F0020F46F00201009002010B5054816
:101D800019F020FA044618B1014603481FF0E8F89C
:101D9000204610BDD06F00201E6A030010B54FF022
:101DA000FF324FF0FF33054819F094F9044618B19B
:101DB000014603481FF0D4F8204610BDD06F002024
:101DC0003A6A030010B58AB008460D99042903D079
:101DD00014481FF0C5F810E008930C9B00240993E9
:101DE00004AB02930323CDE9040201AACDE9062145
:101DF00001940393FFF7D2FF10B101200AB010BD88
:101E000009480A4983681C6802AB1A46A047014684
:101E100008B10748DDE7FFF7B1FF003818BF012020
:101E2000ECE700BF546A0300FC5302009C5F020011
:101E3000796A030070B50446084E094D4FF0FF3231
:101E40004FF0FF33304619F079FA204602F016FBC6
:101E50000028F3D028461FF083F8EFE71009002090
:101E60009A6A030070B5144601B922B10B481FF0FD
:101E700077F8012070BD20EAE0754FF40046214656
:101E800040F2E7304FF47A720023C5FB0601FEF7FB
:101E9000B1F922F0AAFD2046ECE700BFBB6A0300BF
:101EA00010B58AB008460D99042903D014481FF0D4
:101EB00057F811E008930C9B0024099304AB02939C
:101EC0000323CDE9040201AA0393CDE9062101947D
:101ED000FFF764FF034610B101200AB010BD0948A6
:101EE00009498268146802AAA047014608B1074858
:101EF000DDE7FFF743FF003818BF0120EDE700BF23
:101F0000546A0300FC5302009C5F0200DE6A030077
:101F1000F0B593B007462822002108A822F056FF0A
:101F20003E4822F031FB3E4822F068FA48B13D4875
:101F300022F064FA28B13B4822F060FA48B93A48E6
:101F400000E03A481FF00CF86FF00504204613B08B
:101F5000F0BD4FF4803136481EF04EFD0446002897
:101F6000F4D1304822F04AFA0028E8D04FF480310A
:101F700030481EF041FD04460028E7D1294822F0F0
:101F80003DFA0028DBD04FF400312B481EF034FD21
:101F900004460028DAD14FF4A4720023CDE90623C9
:101FA0000523CDE90070CDE9020304904FF42F72B0
:101FB000224B2349234819F073FC2349214819F087
:101FC000F9FB04460028C1D138461FF01FFF08B1B5
:101FD0001E48B7E71E4E08AD0FCE0FC596E80F009E
:101FE00085E80F001B4B384610931E2308A9119358
:101FF00002F0FCF908B11848A4E7384602F016FBD5
:1020000008B116489EE7B968154A91429ED0154816
:102010001EF0A6FF6FF0040498E700BFD06F002009
:10202000FC530200FC5202000E6B0300F76A03002F
:10203000C05F0200B85F0200B05F0200351E000002
:1020400098BC0020A0170020226B03002A6B03001D
:10205000785F020084020020486B0300656B030078
:10206000637A04007E6B03004FF050232DE9F74F95
:10207000D3F85C6549F6A633B6B2002E08BF1E46FB
:102080004FF00008C246454600244FF0FF324FF0A3
:10209000FF336F4819F052F96E4AD2E8EF3F012B37
:1020A00003D1C2E8E14F0029F7D10CBF0127274631
:1020B0000BD1214668481EF0B6FC684B68481A6888
:1020C000684B19681EF04CFFDAE7674BD3E8AF4F57
:1020D000012D11D004D9AB1E012B3CD9474609E094
:1020E0005E4B604A21461B68126860481EF038FF4C
:1020F000A2460125B846C7E7584B08F101081B68FE
:102100004345EBD840F24B13A4EB0A01C1F5C332AF
:10211000574DA032554395FBF3F505F51B442B466F
:10212000A63405F5DD555348009406351EF018FF1A
:10213000B5F5804F04D350481EF012FF0025D9E7B3
:102140004FF0502321464D48C3F85C451EF008FF70
:102150000225A6B2CEE7414B08F101081B684345B2
:10216000BCD8474BD3E8AF8F3E4BB4EB0800D3F855
:10217000009061EB010100294FEA590B21DB4A462F
:102180003B46FDF7E7FF934501DAA2EB09023D4824
:1021900002EBD2723C494FEA6209032D08BF0146A7
:1021A000434622463948CDF800901EF0D9FE09F585
:1021B000FA73B3F57A7F12D9494635481EF0D0FE3E
:1021C00098E7B8EB040061EB01014A463B46FDF796
:1021D000C1FF5A45C8BFA2EB09025242D7E740F2FD
:1021E0004B13234C04FB09F494FBF3F43444B4F58F
:1021F000004F1BDD4BF6FE739C421ADCA4B24FF07D
:102200005023022DC3F85C4589EAE973A3EBE97317
:1022100012D10F2B3FF76EAF01210F481EF003FCC8
:1022200021461C481EF09CFE032563E74FF4004442
:10223000E5E74BF6FF74E2E7202BF5DD00210648C9
:102240001EF0F1FB494614481EF08AFE76E700BFF7
:102250006808002014020020F86F00200C02002003
:10226000B76B03001002002000700020E16B030038
:1022700018FCFFFF0E6C03003F6C0300626C030050
:10228000FC6F0020A96B0300B06B0300846C03009B
:10229000A76C0300C66C0300E06C030010B5184B7C
:1022A000421E9A42014688B005D8164CB4FBF0F2A3
:1022B00000FB124434B114481EF052FE6FF01500BA
:1022C00008B010BD114B1860114B12481A601EF077
:1022D00047FE00220023CDE9062301234FF480624C
:1022E000CDE90243CDE900440B4B0C4904940C4862
:1022F00019F0D6FA0B490A4819F05CFA2046DFE7D4
:102300009F860100A0860100FE6C030010020020E1
:102310000C0200201C6D03006920000058BF002043
:10232000981800203C6D0300014608B503481EF0D4
:102330007AFBBDE80840024818F0C6BF00700020D4
:1023400068080020014601481EF06DBBFC6F0020AC
:1023500008B5012103481EF066FBBDE808400248AD
:1023600018F0B2BF14020020680800202DE9F04FD9
:1023700091B0009302F004030293C2F3C20301334D
:10238000840705460E46DDF868800392059340F009
:10239000BB81041D30B1072909D86FF01B0011B0B3
:1023A000BDE8F08F01F007063444C6F10806009B33
:1023B0004FF000094FF0040A591E4FF0FF334F460B
:1023C0000193CB465346CDF810900DB10098206094
:1023D0000598002800F3E8809848009A824203D3C9
:1023E00097488242C0F0E080039AA4EB050E920762
:1023F0004FEA9E0000F103810F2F00F2B180002D03
:1024000000F0058107F140020DEB020C019A0CF877
:10241000200C0CF8102C049801300490E7E07A2886
:102420005DD84B280ED8472859D829282DD82528DB
:1024300052D054D820287AD02338D0F1000B4BEB5F
:10244000000B74E04C382E2849D8DFE800F07048C3
:10245000484848484848484848484B4848484848F9
:1024600048484859484B4B595959704B6D4870482A
:10247000184B184848827F4B48484B487F00002043
:102480004FF0000B4FF0040A38E001222A38C0B2A6
:1024900002FA00F010EA0E0F49D110F0625C2FD161
:1024A00010EA020B43D06046013C5444B4FBFAF4FA
:1024B0000AFB04F4002D61D0A3EB050CA444B44541
:1024C0003FF66BAF002868D1042B47D158F8043B86
:1024D0002360042304342AE0019A013A01924FF068
:1024E000000B24E011F8010C6C2834D1002011F805
:1024F000023C83466C2BC5D14FF0080A5346D3E704
:1025000008F1070828F00708073424F00704F8E862
:1025100002AB35B106982044B0423FF63EAFC4E965
:1025200000AB4FF0000B08344FF0080A534611F887
:10253000010F002878D0BBF1000F7FF470AF252881
:10254000F5D14FF0010B019B013301934FF0040AC9
:10255000ECE7584694E700208346A5E7082B02D015
:102560006FF015001BE708F1070828F00708B8EC22
:10257000027B84ED007B08230834D8E768B9042B7C
:1025800002D108F10408A4E7082BE9D108F10708F3
:1025900028F0070808F10808EDE7059801380590CC
:1025A00058F8040B009010E7039A900720D54FF0DD
:1025B000010CA4EB050E4FEA9E00BEF5007FCFD2C2
:1025C0000F2FCDD8F5B107F140020DEB020E019AA5
:1025D000C0B20EF8200C0EF8102CBCF1000F3FF426
:1025E0001AAF60F07F000EF8200C09F101090137E5
:1025F000C5F108024FF6DA7E0434069297E74FF0F1
:10260000000CDAE7BCF1000F01D00136EFE7029AC7
:102610000236002AEBD10098CDE90631FDF716FE0F
:10262000DDE906310644E2E7631BB3F5806F97D21C
:1026300045B9A6F10804E018B1E600BFEC5102006C
:1026400090990300029A9B0828602B709DF8103027
:10265000C2B1EB7085F80290B9F1000F05D00022ED
:1026600008A8C5F1010C97420ED14FF0000AC5F140
:1026700001030DF1200801930DF1300B574512D1E4
:10268000601B8CE66B70E5E710F8013B190608D576
:102690000CEB040EB64503F07F033FF67EAE04F864
:1026A000013B0132DFE7B9F1000F03D098F90020B8
:1026B000002A17DB029BD3B11AF80B2004F8012B78
:1026C0000022019B18191044B0423FF666AE98F8FC
:1026D0000000009904F8010B2046039222F04FFB02
:1026E000039A14440AF1010A08F10108C6E798F8B0
:1026F000002055F822300093029B009845F82230C4
:10270000FDF7A4FD421CDCE76FF00D0047E600BFBB
:102710002DE9F04F97B000AFD7F880B03B62CBF314
:10272000C0030446894690F802A0FA62BB6141B931
:10273000457800780AEB800020444D4517D8A0EB7F
:102740000409E378FB61BAF1000F02D01BF0010F1E
:1027500016D1FB6953BBFB6A1BB1494620463A6A56
:1027600098474D4628465C37BD46BDE8F08F461C6D
:102770003046FDF76BFD0130304409F10109DCE71B
:10278000626823787A62FA6A9900796104EB8301BE
:10279000002A40F001810E464FF000084D4601EB43
:1027A0000A094E454CD101EB0A0610E01BF0020F5E
:1027B000D1D023789A007A61626804EB83017A624F
:1027C000FA6A002A77D14D46904601EB0A061BF0C3
:1027D000050F0CBF02230123FB62FB6906EB430AD2
:1027E0000BF00203BB625645BCD016F8021B16F86C
:1027F000013C54F82390994B994502D3984B994545
:1028000036D3BB69002B40D0786A1EF080FB0028CD
:102810003BD0E9468AB06A46924B53617B6AC2E973
:1028200006314FF4007313848F4B42F8103F00239E
:102830004FF412518D4801F0B7F8023DCD46D2E772
:1028400016F8013BF96254F82300FDF7FFFCD7F8B6
:102850008430F96A01304BB1D7F8883098453EBFD3
:10286000D7F8843023F8180008F10108054498E7E8
:10287000BB6923B1786A1EF04AFB0028C9D11BF05E
:10288000010F05D1FB6AED1AADE7BB6A002BAAD098
:102890004846FDF7DBFCD7F8843053B1D7F88830D1
:1028A00098453FBFD7F88420431C22F8183008F120
:1028B0000108054497E7BAF1000F73D01BF0040636
:1028C00073D0D046002607F1480052463B61B962FA
:1028D00022F055FAB96A3B6901EB0A02BA62FA6959
:1028E000F9695200FA60BA6A02EB41023A610BF0F0
:1028F0000202BA603A69B96A8A4258D162781BF01A
:10290000020F18BF00217A6208BF4FEA5801B218BF
:102910001BF0010FD2B240F09F801BF0040F14BFD8
:1029200040460020BB616270A070E17020463A6AA8
:102930007969FB6A9847051EFFF614AFBB694146EB
:1029400023707B6A3A6A6370FB6984F802A0E370C3
:1029500007F14800FB6A9847B0F10008C0F2BA805E
:102960007B69A9EB0A01C91AFB683A6AC91AD7E957
:102970000A0398470028C0F2AF804FF0000BA8442C
:1029800008EB000507F1380AB34571D300213A6A14
:102990000846FB6A9847E5E656464FF0000807F1FF
:1029A000380092E75646D04696E7B04694E7BA6AB2
:1029B00012F8021B12F8015CBA6254F82500274A8B
:1029C000904202D3264A90421ED3BA6932B1786A45
:1029D0007B601EF09CFA7B6800288BD1BA6802BB32
:1029E00008F1280207F1300C08F10100944407F1C6
:1029F000580208F1020852FA80F00CF8101C5FFA35
:102A000088F800F8105C75E7BA693AB1786A7B60BB
:102A10001EF07DFA7B6800287FF46CAF1BF0010F7D
:102A200009D006F1280207F13000711C161806F8CB
:102A3000205CCEB25EE71BF0040F3FF45BAF08F101
:102A4000280207F1300008F1010102EB000808F844
:102A5000105C5FFA81F84DE7002063E7EC5102005B
:102A600090990300456D0300040000017C570200AB
:102A70001BF80A3054F8239087F83730D7F88430A1
:102A80002BB3D7F888309B4521D2D7F8843033F860
:102A90001B8001213A6AFB6A07F13700984700283A
:102AA0001ADB0544B8F1000F06D14846FDF7CEFB0E
:102AB00000F101081FFA88F8414648463A6AFB6A65
:102AC0009847002808DB05440BF1010B5CE74FF049
:102AD0000008DEE7454645E6054643E6014B18603B
:102AE000704700BF1802002080B505460E46174605
:102AF000984619F09BF9034622F06EFB0446DFF876
:102B00001890424649F8003039463046A84754F8F4
:102B1000090002F0B3F900BF080000002DE9F047FA
:102B2000058B04462807904611D4022905F00705B5
:102B300040F0CC8020461EF098FC78B10138218B03
:102B4000042811D8DFE800F0C2106D859500012936
:102B50000CBF45F0100545F02005258388F311884A
:102B6000BFF36F8FBDE8F08701F0070AAA4500F0B8
:102B7000A5800027B9463E46A368002B00F0BC8024
:102B800041F00801218388F31188BFF36F8FA1689A
:102B9000002900F0BA800D68002900F0B6803346A5
:102BA00052462046D1F80480C047002D76D02B68CD
:102BB00029461D46F0E701F007035A1F012A1BD8DA
:102BC000002221F00701062B276889B2C4E9002200
:102BD00009D13B4603E0628B013262831B68002B04
:102BE000F9D141F00201204621831EF03EFC00286D
:102BF0007AD041F0200176E0042B0AD121F00701C0
:102C000089B2204621831EF030FC10B141F0200132
:102C10002183218B01F0070AAA454FD00027B9462E
:102C2000AAE7236921F0070141F00601062DD3F838
:102C3000009021832DD1B9F1000F3FD041F0080160
:102C4000218388F31188BFF36F8F20463949C84725
:102C500029E021F00701236941F0040189B2042D24
:102C6000D3F804902183E6D000274FF0040A3E46B3
:102C700082E721F00701236941F0050189B2052DA2
:102C8000D3F808902183D6D000274FF0050A3E469E
:102C900072E700274FF0060A3E466DE72B4687E7AE
:102CA000B9F1000FD1D1EFF31188202383F31288FB
:102CB000BFF36F8F238B23F008032383258BEA0652
:102CC0002ED525F01003238305F007056669218BB7
:102CD000002EBFF670AF00232768C4E9003321F04F
:102CE000070141F001012183218B4FF0000901F020
:102CF000070AAA457FF440AF002F9CD041F008019D
:102D0000218388F31188BFF36F8F002FC8D03D68EF
:102D100039463346524620461EF0D3FB2F46F4E791
:102D2000AB067FF51BAF25F02003238305F00705D5
:102D300000E700BFEF14020010B530B90B480C4992
:102D40001EF09FFC6FF0150010BD836833B9074873
:102D500008491EF096FC6FF00400F5E71B6813B1FC
:102D6000BDE8104018471846EEE700BF9457020030
:102D7000F96D03000A6E030010B530B90B480C4919
:102D80001EF07FFC6FF0150010BD836833B9074853
:102D900008491EF076FC6FF00400F5E75B6813B19C
:102DA000BDE8104018471846EEE700BF94570200F0
:102DB000F96D03000A6E030070B508B101B132B9B4
:102DC0000B480C491EF05DFC6FF0150070BD846867
:102DD0000CB1E56835B9064807491EF052FC6FF0A2
:102DE0000400F3E741F8040BE368BDE870401847BE
:102DF00094570200286E03000A6E030010B50446C3
:102E000030B9104810491EF03CFC6FF0150010BDA1
:102E1000006830B90B480D491EF033FC6FF001001B
:102E2000F5E783680BB11B6933B9064808491EF002
:102E300028FC6FF00400EAE7616898470028E6D1B3
:102E40002060E4E794570200546E0300656E0300AF
:102E50000A6E030070B51346044630B91048114994
:102E60001EF00FFC6FF0150070BD006830B90C4803
:102E70000D491EF006FC6FF00100F5E782680AB10B
:102E8000956835B9064809491EF0FBFB6FF0040050
:102E9000EAE70A46AC466168BDE87040604700BF9B
:102EA00094570200546E0300656E03000A6E03001F
:102EB000034A13680BB9526813600020704700BFC3
:102EC0001C02002030B50C460E4985B00291D0F8A6
:102ED000D4110546CDE9003100F1F0014FF0FF3388
:102EE000204617F073FC50B9012384F86C30D5F8F4
:102EF000D03123B1204605B0BDE83040184705B0B9
:102F000030BD00BF7B17020038B50C4611460546A0
:102F10001EF035FC034638B9284604491EF02FFC44
:102F200003460020236038BD0120FBE779980300A9
:102F30002DE9F04F01238146056946688FB005F5FC
:102F40007B77D7E8EF2F002A03D1C7E8E13F0029BC
:102F5000F7D10CBF1A46002240F0BB80B368B16ABB
:102F600005F5F8781C1F10461EF090FC844279D8B5
:102F7000013A00F0A880B2FA82F24FF00044D44047
:102F800072682046073222F00302C5F83C22B16A7B
:102F90001EF07CFCC5F84002B36A4046634303332D
:102FA00023F0030302EB4302230103EB4403093341
:102FB00023F0030303EBC403C5F834221A44083298
:102FC000C5F830227368C5F83842C5F82C32424B38
:102FD000C5E9AD63316800F0F1F9044600283FD13E
:102FE000D9F810B0D9F804A0D9F800300BF534792D
:102FF000059004934846DAE90734012B08BF103CDA
:1030000021F025FCDAF82400344904AB009301EBED
:103010008021234648464FF4806218F04FFB202160
:10302000DAF824302E4A06A81CF020FB06A94846F0
:1030300018F0C0FB2B490BF5307021F0C1FBDAE929
:10304000050183685C684CB15B46274AA04704468B
:1030500030B9DAE9050183681B692BB96FF05704B1
:10306000002129E001327EE701229847044600282A
:10307000F6D11E4B2846C5F8D0311D4BC5F8D431CA
:103080001C4B0393D5F840320293D5F83C32CDE97E
:10309000008305F51173B26AD5F8E81300F056F90C
:1030A00004460028DCD105F1F00017F035FC0028BB
:1030B000C5F8F0030ADB022138461EF094FB2046D7
:1030C0000FB0BDE8F08F6FF00B04C9E76FF0150487
:1030D000C6E76FF07704F2E7D117020058C300206B
:1030E0008A6E0300B7170200AB170200F930000028
:1030F000631902001718020013B5044640B10023FB
:103100000122CDE90032074BD0E9091217F032FB5A
:10311000236F1B6823B1606F02B0BDE810401847F1
:1031200002B010BD7998030013B504460846216922
:1031300001F57B71D1E8AF1F022910D193B1A0B185
:103140000121CDE900311346D0E9091217F012FB35
:10315000074B984208BF6FF00B0002B010BD6FF034
:103160000F00FAE76FF04C00F7E76FF00100F4E7AB
:103170002EF8FFFF2DE9F34789461546066906F547
:103180007B73D3E8AF3F022B64D1136823B96FF090
:10319000150002B0BDE8F0871B78002BF7D0D6F8F9
:1031A000E8A3BAF1000F36D106F5EC774FF0FF3205
:1031B0004FF0FF33384617F08DFF30462A6801A9DB
:1031C000FFF7A2FE019C80461CB938461EF009FBA1
:1031D000DDE705F108032367AB6984F86CA063673A
:1031E000646460B138461EF0FCFA21463046A36E96
:1031F0002A68FFF767FE0020C9F80040C9E71F22D0
:10320000296804F1480021F00BFE384684F86780F5
:103210001EF0E7FAEFE7304610491EF0B0FA044618
:103220000028B4D0002705F108030367AB6980F8D4
:103230006C70436740641F222968483021F0F0FD1C
:1032400022460121304684F8677000F061F80028BA
:10325000D1D09CE76FF00F009BE700BF7998030087
:1032600010B50C46006900F57B73D3E8AF3F022B25
:103270000FD189B10A4900F5307021F0CDFA20460E
:1032800020F0E6FD78220021204621F09FFD00205D
:1032900010BD6FF00F00FBE76FF00100F8E700BF13
:1032A000047000202DE9F04F05460E469046002799
:1032B000D0F8C4A085B0AAF5BE7421463046FCF70C
:1032C000B3FFE0B9114BA4F1480B0293DAF81030C8
:1032D0003246CDE9008329464FF0FF335846AAF520
:1032E000E27917F073FA60B97823012203FB0793A0
:1032F00083F86C20DAF80C300BB1584698477834D4
:1033000017B105B0BDE8F08F0127D6E7911902008B
:103310001FB5144690B18AB1012912D10A4B00F1B0
:10332000F0010293D0F8D431483201934FF0FF33CB
:103330002046009317F04AFA04B010BD6FF0150054
:10334000FAE70020F8E700BF911902002DE9F043E9
:1033500087B00E46DDE90E811446DDE910251F46D3
:1033600030B329B3DFF850C000F1F009002D08BFD9
:1033700065469EB9CDE9034400F5E2742046059602
:1033800020F0FEFF03ABCDE900432A463B46414611
:10339000484617F039FB07B0BDE8F08300224146EC
:1033A0000E9248462A4607B0BDE8F04317F07CBCB1
:1033B0006FF01500EFE700BFA5320000F0B504463E
:1033C0002B4A87B004AB0E4692E8030083E8030063
:1033D000002C49D0184617F0D3F80546B0B94FF085
:1033E000FF33E16C04F15407A163CDE901000093C0
:1033F0003846236D04F1380220F0DAF9A06C1EF093
:10340000F6FAC4F8BC0020B96FF00B05284607B0E7
:10341000F0BDA06C1EF0EBFAC4F8C0000028F3D099
:10342000236CD4F8BC10C4F890300423C4F8943052
:10343000C4F8AC300223E3620E4BB4F84820C4F861
:103440008C10616C236204F18C03C4F8A070A4F8A2
:103450009820C4F8B870C4F8A810A4F8B020C4F834
:10346000A400A6612363D1E76FF01505CEE700BF86
:1034700078580200F45F02002DE9F0470446074641
:103480004FF00109DFF8508014B93846BDE8F087E5
:1034900094FAA4F5B5FA85F509FA05F32E0108EBBF
:1034A00005156FEA030A24EA03042B7B002BEBD0FB
:1034B00058F806301B694BB9464473680422284605
:1034C000196807EA0A071EF0FAFADDE72846984766
:1034D0000028D9D1F0E700BFFC57020030B5002228
:1034E00089B00F490F4821F054FB0022002300242B
:1034F000CDE906230E230C4DCDE903344FF4407281
:103500002846CDE90144094B0949009418F0C8F94F
:103510000849284618F04EF9204609B030BD00BFD2
:1035200039350000882E0020881D00204D3800000D
:1035300058C70020966E0300014817F0C5BE00BFB3
:10354000B00800202DE9F047804621480F461EF0C4
:103550009AFA0646002833D000252846BDE8F087B1
:10356000237B83B12368DB680BB1204698476368EF
:1035700083F8069023681B69D3B963680422204648
:1035800019681EF09CFA013610345445E8D3B8F19E
:10359000000FE2D0002DDFD02846FFF76DFF054673
:1035A000002FF7D000214FF4A47021F01EFAF1E7AC
:1035B000204698470028E0D009FA06F31D43E2E7C9
:1035C00005464FF00109034CDFF80CA0DDE700BF12
:1035D0003C700020FC5702000C580200014B53F8CD
:1035E000200070473460020008B5034608462BB13E
:1035F000044A136000F070FC002008BD6FF0150055
:10360000FBE700BF4802002010B5044C237813B933
:10361000034817F059FE0123237010BDEC940020DD
:10362000B008002010B5044609481EF02CFA3CB141
:10363000084BD3E8EF1F0139C3E8E21F002AF8D195
:10364000054821F0B2FABDE81040044817F03CBE2E
:103650003470002038700020882E0020B008002030
:1036600000200146034BD3E8EF0FC3E8E21F002A16
:10367000F9D170473470002070B5FFF7F1FF0546AF
:10368000074C084EB44200D370BD63685B792BB120
:1036900023685B6813B12946204698471034F1E748
:1036A000FC5702000C58020010B5044C0449204697
:1036B0001DF074FD034B1C6010BD00BF9807002077
:1036C000206002002C70002000230D4A10B51370FA
:1036D0000C4A4FF4004113600B4A0C481360FFF78B
:1036E00083FFFFF7E1FF0A4B0A4918468B4200D3DC
:1036F00010BD1A1A5C681211013222711033F5E7FD
:10370000ED9400203470002038700020831A0200ED
:10371000FC5702000C580200014600220023014819
:103720001DF05DBD9807002001481DF0F6BD00BFEB
:1037300098070020024B014618681DF042BE00BFEA
:103740002C70002001481DF077BE00BF98070020B4
:1037500070B5274B1878002849D0FFF7E5FF0546DC
:10376000002841D1234B244C1B68002B19DD21F08C
:10377000C9F94FF47A72A0FB020302FB0131C30BBB
:1037800043EA4143D4E900209B1A40F2E9324FEA70
:10379000D13161EB0001934271F1000101D3FFF7D8
:1037A0006BFFD4E9003213F57A7342F10002C4E9E9
:1037B0000032BDE87040FFF7C5BF63685B7923B195
:1037C0002368294620461B6898471034B442F4D336
:1037D0002846FFF7AFFF094BD3E8EF1F0139C3E8D5
:1037E000E21F002ABED0F7E7054C064EEEE770BD9B
:1037F000EC94002034700020802E002038700020CF
:10380000FC5702000C58020070B50D4D297861B9C3
:103810000120FFF797FE0B4C0B4EB44206D3FFF787
:1038200097FF0028FBD101232B7070BD63685B7983
:103830001BB1236820469B6898471034EDE700BF12
:10384000ED940020FC5702000C58020000212DE9E5
:10385000F0470846FFF776FE044658B340F2676823
:103860004FF0000921F0B8FC1B4B1C4A1B58136099
:1038700033B11B4B1B68092B02DD1A4817F024FDDE
:103880000025194FDFF85CA044B12046FFF7F4FD96
:10389000044618B94FF0FF384FF0FF39FFF758FFD3
:1038A000064628B9B5B942464B46504617F046FD84
:1038B0003546E9E74FF0FF384FF0FF39D2E72B6884
:1038C0009B691BB100222846114698471035BD421E
:1038D000F5D3E8E7054DFAE7080000003070002056
:1038E00038700020B00800200C580200FC5702007D
:1038F00013B518481EF0C7F8174B1B7873B1EFF3D8
:103900001184202383F31288BFF36F8FFFF720FF0A
:1039100084F31188BFF36F8F02B010BD0F4B1B688B
:10392000002BF9D050B9002200230D48CDE9002327
:103930004FF40042002318F093FDEDE70928EBD186
:10394000074821F032F9074802B0BDE8104017F0EF
:10395000BBBC00BF38700020ED9400203070002008
:10396000882E0020B008002010B5064B04461B68C6
:1039700098472146A06004481DF0B0FCBDE8104007
:10398000FFF7B6BF4802002098070020044A054B05
:103990009B1AB1EBD30F34BF52F8310000207047AF
:1039A000FC560200FC5702002DE9F04F8FB0C1F326
:1039B0004A2804AF0D469146B8607B600C0DB8F103
:1039C000000F63D000264FF0040B4FF00A0A07F1F6
:1039D0001403C7F80C80C7E907667E620193CDF82F
:1039E00008B0CDF800A007F11C0332464846F9683C
:1039F000FEF78EFEB0F5006F03461CD36C468AB00E
:103A0000D9F8041004AB26481A46C3E9050140F270
:103A1000FF71D9614FF400711984224B42F8103FB5
:103A20004FF4125133462048FFF7BEFFA5462C370E
:103A3000BD46BDE8F08FC0F30A0804F11700184432
:103A400020F0070080083B60FFF766FE68F353250F
:103A5000044690B13B6800F11001C7E9083607F150
:103A60001403F961CDE900A3CDF808B048460F4A28
:103A7000F96807F11C03FEF74BFE68F353252A464D
:103A800020467B68B9681EF039F8D0E704F11700CA
:103A900020F007008008FFF73FFE0446EDE700BF77
:103AA000AB6E0300040000019C570200D11A020013
:103AB0002DE9F04F87B00446DDE9105ADDE91279AF
:103AC000934698460391BFB13B46524610210020D1
:103AD000CDF80090CDF81490FEF748FCB0F5006FDB
:103AE00006460AD340F2FF730221174A174807B06F
:103AF000BDE8F04F1EF05BB83E4605F117003044BC
:103B000020F007008008FFF707FE04F007040BF021
:103B1000070BE40044EA8B1444EA462444EA0554C3
:103B2000054640B13FB13B4652463146CDF8009084
:103B30001030FEF71BFC434622462846039907B087
:103B4000BDE8F04F1DF0DABFEA6E03009C5702009B
:103B5000406820B1034BC01A40F3CF0070474FF0CC
:103B6000FF307047FC5602000EB403B503AB53F8A8
:103B7000042B01460448019301F018FD02B05DF8E2
:103B800004EB03B0704700BF111C0200CA0605D445
:103B90008B064CBF02490349FFF7E6BF704700BFE1
:103BA00078980300779803002DE9F04F8BB09B467F
:103BB000169B9DF854A00693179B04460593189BEB
:103BC0000D469046199E0493BAF1000F00F09E80B6
:103BD00006F00103089306F00803079306F48073C8
:103BE00009931DF06AFF06F00209024600283BD047
:103BF00020468F49FFF7B8FF0746B9F1000F08D0FC
:103C000016F0440F32D12A4620468A49FFF7ACFF0E
:103C10000744089B53B1884B204653F82A20874B12
:103C20008749002A08BF1A46FFF79EFF099B002B11
:103C300048D0079B002B62D1B8F1000F64D04246F8
:103C400020468049FFF790FF0546069B3D44002B28
:103C50006BD1049B002B71D1F30700F1E280314658
:103C60002046FFF793FFD6E00746C6E7764B186875
:103C70000028CDD0754B4FF47A791B684FF03C0C7F
:103C8000B5FBF3F5B5FBF0F14FF4616300FB1155A3
:103C900009FB05F5B1FBF3F2B5FBF0FE03FB1211D6
:103CA00000FB1E55B1FBFCF309FB05F5B5FBF0F578
:103CB0000CFB131120460091CDE901E56449FFF7A3
:103CC00053FFA5E7079BEBB1624B204653F82A2030
:103CD0006149FFF749FF0546B8F1000F05D042469C
:103CE00020465849FFF740FF0544BBF1000FACD018
:103CF0005A4620465949FFF737FF0544A5E74FF0DC
:103D0000000BE1E7079DE7E745469EE7BBF1010FA2
:103D1000069B06D1002B64D1049B002B7BD0002591
:103D20000CE0002BF8D04E485CE04E48069B224643
:103D30004D491DF0BBF8049B002B68D0DFF838819B
:103D4000DFF83891049F3146102F204628BF1027F6
:103D50004FF0000BFFF71AFF5D4545DC059B494618
:103D600020461A78FFF700FF4FF0010B1BF0070FFA
:103D700003D141462046FFF7F7FE5F453BD9059B3F
:103D80004946204613F80B20FFF7EEFE0BF1010B1E
:103D9000BBF1100FEAD14FF0000B20463349FFF77B
:103DA000E3FE5A46059B20469A5CA2F120015F295A
:103DB00028BF2E222E49FFF7D7FE0BF1010BBBF1D6
:103DC000100F1DD01BF0070F03D141462046FFF70F
:103DD000CBFE5F455A46E5D841462046FFF7C4FE74
:103DE000EBE720485546A1E741462046FFF7BCFED9
:103DF0000BF1010BB0E720461E49FFF7B5FEC5E702
:103E0000059B3B440593049BDB1B04939AD1BAF1B9
:103E1000000F7FF421AF20460BB0BDE8F04F1DF03E
:103E2000EABE2046054A0649FFF79EFE17E700BF97
:103E3000276F03002B6F030044600200226F030012
:103E4000D2780300506F03004470002040700020BF
:103E5000346F030058600200546F03005A6F030070
:103E60003F1C0200111C0200AD550000656F0300ED
:103E7000676F030041980300439803005F6F0300DE
:103E800042F20F7373B58B4228BF0B460568044698
:103E9000052168460D4A1BF0E9FB06466368284683
:103EA0000B225B680A491DF098FE6368324669463A
:103EB00028465B681DF091FE63681B2228465B68FC
:103EC00004491DF08AFE02B070BD00BF6876030091
:103ED000866F03006A6F030000210123064A9042A7
:103EE00006D8064A01B901231360054B18607047D4
:103EF000012140085B00F2E740420F0040700020C3
:103F000044700020F8B50D460446064F4618B442EA
:103F100001D12846F8BD14F8011BBB6801485B6855
:103F20009847F4E75C530200014B036000207047A0
:103F3000A060020008B504481DF012F8BDE8084072
:103F400002481DF00DB800BFCC6F030001700300E4
:103F5000014818F065BE00BFA060020038B50446F5
:103F600018B90F4B0F485B6898476168B1F5683F17
:103F700010D0B1F5680F0DD00B4DA9420AD011F445
:103F80006861206807D00146084820F0B2FA002393
:103F90002360656038BD142220F018FFF9E700BFE8
:103FA000140700202F7003002C5F5CA9747500209B
:103FB00008B560B34368B3F5683F0ED0B3F5680F3A
:103FC00018D0144A934220D000684FF0FF324FF0CF
:103FD000FF3317F07FF858B115E001220368D3E8EA
:103FE000EF1F002903D1C3E8E02F0028F7D10AD141
:103FF000002008BD0368084A1B7803F5807352F857
:104000002330002BF4D00548F3E70548F1E76FF4BF
:10401000E040EEE72C5F5CA900000350E98FFFFF52
:10402000EA8FFFFF08B520B34368B3F5683F09D0B6
:10403000B3F5680F13D0114A93421DD0006817F0F2
:10404000C1F814E000220368D3E8EF1F012903D16F
:10405000C3E8E02F0028F7D109D0094808BD0021A6
:104060000368084A1B7803F5807342F82310002088
:10407000F4E76FF4E040F1E70348EFE72C5F5CA959
:10408000E98FFFFF00000350EA8FFFFF10B50446E1
:1040900018B91D4B1D485B6898476368B3F5683FC6
:1040A0002FD0B3F5680F2CD0194A934219D1236849
:1040B00003BB4FF0FF324FF0FF332146154816F097
:1040C000DBFF08B923681BB90F4B13485B6898479F
:1040D00014220021206820F079FE4FF468636360A9
:1040E00008E0B3F5683F0DD83A2B03D040F6BA622A
:1040F0009342DED1206820F047FA636843F03A0328
:10410000636010BD054AF3E7140700202F70030019
:104110002C5F5CA974750020557003003A00003ACA
:1041200008B5064940231422054820F0D4F9BDE81B
:1041300008400449044818F037BE00BF74700020DE
:1041400074750020A8600200BC600200002370B5F6
:10415000136086B00593037905461446032B03D8F4
:10416000DFE803F0051A315C012006B070BD2D4B6D
:1041700009BA0491196800230422CDE901330092A1
:104180004E69006805AB04A9B0470028ECD1059B37
:1041900000201BBA2360E8E70B0C8DF811304BBAF6
:1041A0008268ADF812301F4B090E1B680192042281
:1041B00061F07F0100921E6A8DF8101005AB04A912
:1041C0000068B047E1E70B0C8DF811304BBAADF841
:1041D00012300B0E63F07F038DF81030114BB1F5E8
:1041E000405F1B6800681E6AAB6801930DD2022312
:1041F0000422009304A905ABB047BDF814305BBAA4
:104200002380003818BF0120AFE7042205AB0092DD
:1042100004A9B047059B1BBA2360F2E722461DF0B4
:104220008BFDEEE7D001002030B50379044685B060
:10423000032B45D8DFE803F002152540214B12BAC5
:1042400003921A68002300939569082209BA029123
:1042500020680DEB0201A847003818BF012005B007
:1042600030BD12BA174B0392A2681B680192042258
:10427000009209BA20685D6A029103AB02A9A847BF
:10428000EAE70BBA02930F4BB1F5405F1B68206859
:104290005D6AA36809D252BA01930223ADF80C20DB
:1042A0000422009303AB02A9E9E712BA03920422A5
:1042B0000193009203ABF6E720461DF05BFDCBE7D0
:1042C0000120CCE7D0010020F0B50C46017905466D
:1042D000022987B00ED8194824BAE1B10168A8684C
:1042E0000594CDE9003013464C6A0422286805A9DC
:1042F000A0471BE003291ED1012023F003031E1950
:10430000171BB44212D0214628463A5D1DF032FDFB
:1043100060B90434F5E70068CDE901110093059414
:104320001346C4690422286805A9A047003818BFAD
:10433000012007B0F0BD0120FBE700BFD001002045
:104340002DE9F84F06460D4617464FF0000BDFF8F3
:104350009080DFF89090DFF890A0BB4501D300205B
:1043600016E055F82B1005EB8B0C4145DCF80400EA
:104370004FEA8B0211D0494520D0184B994226D1E3
:10438000DCE90232014630461DF00FFD10B101207C
:10439000BDE8F88F0BF1040BDFE702F108042B599D
:1043A0000C3201469B0030462A440BF1030BFFF709
:1043B0008BFF0028EBD12C59A344CEE70022DAF87A
:1043C00000301146DB6898470BF1020BC5E7024647
:1043D0003046FFF729FF0028F6D0D8E7010000801B
:1043E0000200008003000080D001002070B50D465F
:1043F000044608B9012070BD0029FBD000F1100669
:104400000FCD0FC60FCD0FC6184B95E8030086E8F9
:1044100003001B6822469B681549A069984701283C
:10442000E8D001234FF02E72C4E90F32114A002068
:10443000A2640322C4E913206266C4F884204FF406
:10444000E8524FF4E055626704220B49E365C4E982
:104450001551A4F86C0084F86E302367A167E267F9
:10446000A4F88C0084F88E002360C4E7D0010020FB
:10447000D51D020038610200A48001002DE9F3413E
:104480000368044633F0040204D10027384602B022
:10449000BDE8F0814768012F21D1022B1DD10025F5
:1044A000A846184E85632B46356805F5C03510358E
:1044B0009D421ED17268019B1A4207D0B168A36B5E
:1044C00020460B43A36329461DF090FC08F1010828
:1044D000B8F1090F06F10C06E5D100236360A06B6B
:1044E0000028D2D0E3690BB1216A98470023A36367
:1044F000CBE72946204601AA1DF070FC0028D9D040
:10450000C4E700BFCC600200F0B5022240F608010B
:10451000D5B0044615261DF069FC3A4F00223B68D1
:104520001146DB68052098476A4640F6040120469C
:104530001DF054FC0546002862D1013E60D0009B6E
:104540009B07EBD5032240F6080120461DF04EFCE8
:10455000082320462C4901AACDE901551DF060FC35
:104560002A4B06AE1F4603F1280C324618685968DC
:10457000083303C263451646F7D1282306AA20460E
:1045800023491DF04DFC234B10AA03F1300C1646B5
:1045900018685968083303C663453246F7D118686E
:1045A0001D493423306010AA20461DF039FCDC225E
:1045B0001A491DA820F0E3FBDC2319491DAA204657
:1045C0001DF02EFC174AD7F83801516803AB03C31E
:1045D0009068154918600C2320460DEB03021DF06E
:1045E0001FFC022240F6080120461DF0FFFB0022BE
:1045F00040F6080120461DF0F9FB284655B0F0BDF5
:104600000125FAE7D0010020AC1004005C5902003B
:10461000A0C8040084590200D0C80400B8590200A0
:1046200010C90400945A02008C100400F7B5604DC4
:1046300004462B6800211B680069984700222B68FC
:104640001146DB68022098472B6801215B6860698E
:10465000984700222B681146DB68022098472B6898
:1046600001211B68206998471526524F00222B68AC
:104670001146DB680A20984739466A4620461DF0F5
:10468000ADFB0146D0B9013E18D0009B1B07EDD50C
:104690006A4620461DF0A2FB80B9009B6A460421B1
:1046A0002046A3601DF09AFB40B9009B10212046D4
:1046B000E36001AA1DF092FB012802D1012003B0A2
:1046C000F0BD019B002B55D0082B4ED15522302137
:1046D00020461DF08BFBAA22302120461DF086FBD0
:1046E0005522342120461DF081FBAA223421204688
:1046F0001DF07CFB44F668512F4A20461DF076FBE6
:1047000044F670512D4A20461DF070FB4FF4803264
:1047100042F2AC4120461DF069FB40F2FF5242F2EA
:10472000B44120461DF062FB42F22041244A20465B
:104730001DF05CFB40F2154242F2244120461DF080
:1047400055FBCC22302120461DF050FB3322302176
:1047500020461DF04BFBCC22342120461DF046FBA9
:104760003322342120461DF041FB2046FFF7CCFECA
:104770000128A3D0D4E90C1204F12400FFF7E0FDD6
:1047800000289BD101260F4DE968002301F5C031B7
:1047900020462A6901F588711DF030FB00288DD173
:1047A0000136092E05F10C05EED10223236086E7C0
:1047B000D0010020148001000000B11DB849027032
:1047C00015041504CC6002002DE9F84F80460C4614
:1047D00000AF002965D0D1E90012E9468AB0A3688C
:1047E0006D464FF0050A2E463748C5E90723C5E94F
:1047F000050146F810AF002332464FF421513348EB
:10480000FFF7D2F8D4E90312CD466369AD463048CC
:10481000C5E90723C5E90501C5F810A00023324604
:104820004FF421512948FFF7BFF8CD46E369012134
:10483000284A26481DF0BBF9264600254FF00A0AF3
:10484000DFF8A0B0E946D6E908E0D6E90A138EB051
:104850006A46C2F81CE005F1010EC2E908E0A81C96
:10486000C2E90A01E91CC2E905B5C2E90C1342F824
:1048700010AF002345F2400114480435FFF794F8C7
:10488000102DCD4606F11006DCD1236E0121124A0F
:104890000E481DF08CF9A3690121104A0B481DF048
:1048A00086F9B8F1010F07D1EFF305830C4A4146B1
:1048B0000648103B1DF07BF92146404616F01AFAD7
:1048C000BD46BDE8F88F00BF82700300DC570200D0
:1048D000B1700300E0700300327103004171030006
:1048E0006F710300EF70030030BFFFF7FDBF00BF23
:1048F0002DE9F04105460B4EDFF83080324606EBDD
:104900000807CC1B2046084920F039FAA019424676
:104910000021083C20F05AFAC5F8A84007F1080029
:10492000BDE8F081000000005058020004000000C3
:10493000054B9A699B689A421FBF044A536843F02B
:1049400080535360704700BFA480002000ED00E05A
:1049500070B52A4C06460D4629482A491DF07AFAB8
:10496000A36ADB0647D5264827491DF073FA1120B4
:10497000A36A1C0704D5224824491DF06BFA1220B3
:104980001E4CA36A990712D521491D481DF062FAF1
:10499000636BA26A120609D501211E4A18481DF050
:1049A00006F91EB1A36A23F08003A3621320134CFF
:1049B000A36ADE0704D5124817491DF04BFA1420EC
:1049C000A36A9C0604D50E4814491DF043FA15202D
:1049D0000A4B9A6AD10658BF9A6A9A6A920642BFEF
:1049E0005A6A22F400525A629A6A42F0FF029A62AC
:1049F00000232B7070BD1020BAE700BF00ED00E06F
:104A0000DC5702008271030098710300CB71030030
:104A1000DE710300F67103000C7203002B720300B9
:104A200010B5244C244925481DF014FAA36A9901B5
:104A30003ED5224822491DF00DFA1E20A36ADA0154
:104A400004D51E481F491DF005FA1F20194CA36A02
:104A5000DB0204D519481C491DF0FCF90220A36AA9
:104A60001C0304D5154819491DF0F4F92120114CF7
:104A7000A36A590304D5114815491DF0EBF922200A
:104A8000A36A9A0304D50D4812491DF0E3F92320C7
:104A9000084CA36ADB0304D508480F491DF0DAF976
:104AA0002420A36A6FEA03436FEA1343A36210BD95
:104AB0001D20C3E700ED00E05A720300DC5702003E
:104AC00072720300857203009F720300C9720300B3
:104AD000E77203000C7303002673030070B5294CC2
:104AE00006460D46284829491DF0B4F9A36AD904A1
:104AF0003CD5254826491DF0ADF91720A36A1A05B3
:104B000004D5214823491DF0A5F918201D4CA36A9E
:104B10009B0512D51C4820491DF09CF9A36BA26A85
:104B2000100409D501211D4A17481DF040F81EB197
:104B3000A36A23F40043A3621920124CA36A590507
:104B400004D5114816491DF085F91A20A36ADA0523
:104B50000ED50D4813491DF07DF91B20094A936AB3
:104B600043F47F43936200232B7070BD1620C5E78A
:104B7000A36A9B04F2D504480B491DF06BF91C2075
:104B8000ECE700BF00ED00E0DC57020051730300CA
:104B900067730300CB710300787303009173030004
:104BA000A6730300C17303002B7203002DE9F041CB
:104BB0009CB0624B0546D3F80480002600AFC8F3D2
:104BC000080486F31188BFF36F8F02F07F43B3F1BF
:104BD0007F4F07D102F00C03082B12D158495948D6
:104BE0001DF038F9002635460023FB71E31E092B22
:104BF00000F28380DFE803F00A797C75818181818E
:104C0000817F10074CBF0D460126EDE74E494D4808
:104C10001DF020F90023494CFB71E36A9A0705D582
:104C20004A4948481DF016F9002431E0E36A002B98
:104C300001DA4749F5E7E36A5B00F5D545494148A4
:104C40001DF008F96369AA6943F480736361BFF3D7
:104C50004F8FBFF36F8F636932F8022C23F4807398
:104C60006361BFF34F8FBFF36F8F4DF602739A42AC
:104C700007D0A36ADBB23BB30120F91DFFF768FE42
:104C800031E02B680121344A2E481CF090FF2C683B
:104C9000FB79ABB96822294607F1080020F06FF8CC
:104CA0007B6A002E45D0C3F3080222B96FEA532372
:104CB0006FEA43237B62204607F10801FFF784FD7A
:104CC0007037BD46BDE8F081A36A13F47F4F04D06E
:104CD0000120F91DFFF702FF05E0A36AB3F5803F4D
:104CE000A2D3FFF79DFE0446D2E70020F91DC5E7D9
:104CF0000020F91DEEE7194993E7194A18F4F87FE7
:104D0000E8468AB0174B18BF13466A461649103C4E
:104D1000C2E905134FF400731384144BD46142F8B5
:104D2000103F00234FF411510648FEF73DFEC546E3
:104D30007AE723F4FF7323F00103BBE700ED00E003
:104D400007740300DC570200327403004974030047
:104D50006A7403007874030097740300B37403004B
:104D6000EE730300D9730300D7740300040000013D
:104D7000064B5A6942F010025A615A6942F4806245
:104D80005A615A6922F008025A61704700ED00E04A
:104D9000EFF30880EFF3098101B57246FFF706FFD4
:104DA00001BD00BF002080F31488BFF36F8F002087
:104DB00080F30A8880F30B88104880F3088800206D
:104DC0000F49087007F06EFB00200E490860BFF322
:104DD0004F8F00F02DF8202080F311880A484FF4FF
:104DE0000061401880F30988EFF314800221084322
:104DF00080F31488BFF36F8F00F00EF998F3002052
:104E00009198002094ED00E058DA00200023184625
:104E10000649D1F89020C2F30722934200DB704785
:104E2000C1F89830C1F8A0000133F6E700ED00E0CA
:104E300010B572B6002484F31388FFF7E7FF23460A
:104E40004FF0FF300C4A03F120010133102B42F8E0
:104E50002100F8D100234FF0FF30074A03F1600131
:104E60000133102B42F82100F8D162B6BFF34F8F07
:104E7000BFF36F8F10BD00BF00E100E0084B9B68DF
:104E800083420BD1EFF3058343B1064B5A6842F0DE
:104E900080525A605A6A22F400425A6216F0CCBF1D
:104EA000A480002000ED00E025498A6882F8F5E042
:104EB0004FF030001044EFF3098C80E8F01F1EF033
:104EC000100F03D102F1B40080EC108A202080F38F
:104ED0001288BFF36F8F1B4F4FF000668A698A609C
:104EE0003E60D2F8A800184C206092F9F5E0D2F8A4
:104EF000AC000023C2F8AC3080F311881EF0100F14
:104F000003D00023E1EE103A03E002F1B40090EC8C
:104F1000108AEFF3148323F0040383F31488BFF3A0
:104F20006F8F02F1300090E8F01F8CF3098802F1D6
:104F3000000004B51CF096FFBDE804407047000077
:104F4000A480002004ED00E0907500201EF0040F06
:104F50000CBFEFF30880EFF30980816911F8021CA0
:104F60000229FFD001B572461CF069FF01BD00BFE8
:104F700040B2002807DB01234109034A00F01F006B
:104F8000834042F82130704700E100E040B2002841
:104F90000CDB01220649430900F01F008240203348
:104FA00041F82320BFF34F8FBFF36F8F704700BFCF
:104FB00000E100E0054B420953F82220012300F0F4
:104FC0001F0003FA00F01040704700BF00E100E04E
:104FD00040B2002801F10101ACBF00F16040064B76
:104FE0004FEA4111C9B2ABBF00F5614000F00F00BC
:104FF00080F800131954704714ED00E0044B054A83
:1050000023F07F039360BFF34F8FBFF36F8F704721
:105010000000000000ED00E008B5FFF7EFFF104BC7
:10502000D3F8882022F47002C3F88820D3F88820AF
:1050300042F4A002C3F888204FF04042C3F8342263
:10504000BFF34F8FBFF36F8F0023E1EE103A15F0DF
:105050003FFF17F049F800F07DF815F07DFF00BF25
:1050600000ED00E042F8203C009B0D4942F81C3C5A
:10507000019B21F0010142F8183C029B42F8081CF8
:1050800042F8143C4FF0807342F8043C0023C0F80F
:10509000AC304FF47D43203A0265C0F8F4307047DD
:1050A000E92A0000104B9B6883421AD1EFF3058078
:1050B000B8B9EFF31181202282F31288BFF36F8F0A
:1050C0001A7B22F002021A73EFF3148323F0040315
:1050D00083F31488BFF36F8F81F31188BFF36F8F51
:1050E00070476FF015007047A48000200E461546EB
:1050F000002300B5E1EE103AEFF3148323F004032C
:1051000083F31488BFF36F8FBFF36F8F0A4BD0F810
:10511000A8209860094B1A60D0F8983083F30B8868
:105120002C4686F309880020054B9847204600212D
:1051300000220023034C2047A4800020907500200B
:105140006F1E0200E92A00001022014B1A6170470D
:1051500000ED00E0002320210348C2180133452B55
:1051600082F80013F9D1704700E100E008B5EFF3D1
:105170000583064A103B02EBC30152F8330049682D
:105180008847BDE80840FFF7D3BB00BF1C540200AE
:105190001FB5094C094A23460121094800F012F9BC
:1051A00000230393074B0121E41A01A80193029401
:1051B00000F012F904B010BD00000720000000202C
:1051C00050610200900A002010B50C7A0B6804F0C0
:1051D0001F0223F01F031A43CB68640923F01F0347
:1051E000054943EA440343F00103C1F89800C1F8BC
:1051F0009C20C1F8A03010BD00ED00E010B50A4BB6
:10520000D3F89030C3F30723013B984208D901211A
:105210000346064A06481CF0CAFC6FF0150010BD94
:10522000FFF7D2FFFBE700BF00ED00E0EE740300E4
:10523000BC5702002DE9F04F8946144606464FF050
:105240000008514D85B0C84527DAD6F804A0BAF158
:10525000000F44D0BAF11F0F17D91AF01F0F14D145
:10526000D6F800B01BF01F0F0FD158461CF03BFEC4
:1052700007460AEB0B0001381CF035FE874210D0C0
:105280006FF01507414A3B4601E04346404A012181
:1052900040481CF08CFC6FF01504204605B0BDE8BA
:1052A000F08F17F1160FEDD0BC42EBDDC5F898700A
:1052B000D5F89C10C5F89870D5F8A03021F01F01E2
:1052C00043F01F0BD6E900321A44994202F1FF3A2B
:1052D0001DD1D34507D13146F8B21CF00DFE08F1BF
:1052E00001080C36AFE73146C5F89870D5F89C3008
:1052F00022F01F0203F01F031343C5F89C30E0B2F5
:105300001CF0FAFD10F1160FC5D0441CE7E7C5F8F4
:105310009870D5F8A020013B23F01F0302F01F0274
:105320001343D3453146E0B2C5F8A030E8D01CF0B5
:10533000E3FD10F1160FAED0C5F89870D5F89C209B
:105340009DF808300BF1FF3B62F304038DF8083041
:10535000D5F8A0309DF808205B0863F347128DF85C
:105360000820D6E900321344009323F01F035B4466
:10537000A3EB0A03013023F01F036946C0B2039375
:10538000FFF73CFFBEE700BF00ED00E0377503000C
:1053900014750300BC5702000522044BC3F8942087
:1053A000BFF34F8FBFF36F8F704700BF00ED00E07A
:1053B000BFF35F8F0022024BC3F89420704700BFF9
:1053C00000ED00E010B5034C2278FFF733FF2070AA
:1053D00010BD00BFEF9400202DE9F74F294D8A46FC
:1053E00006464FF00008AB46274FD0451BDAD6F8EB
:1053F0000490B9F1000F3FD03168084601911CF0CC
:1054000072FD0199044609EB010001381CF06BFDA7
:1054100084424FF014021D4B08D002FB08F36FF0DA
:1054200015024BF8032003B0BDE8F08F14F1160FFE
:105430002C60F8D01978A142F5DD02FB08B0C7F85E
:105440009840C7F89840D7F89C4000F10801007BCD
:1054500064F304000871D7F8A0000C79400860F3E9
:1054600047140C71D7F89C1021F01F016960D7F820
:10547000A01021F01F01296108F1010814350C3634
:10548000B3E700BF9475002000ED00E0EF9400202A
:10549000F0B54149414CD1F890302568C3F307235A
:1054A0009D4287B075D80020FFF782FF3C4BC1F8C2
:1054B000C030854216D13B4C01A82570FEF734FD63
:1054C00000250646384FAE4213D1002023783249DA
:1054D000D1F89020C2F30722934254DBFFF75CFF20
:1054E00000202FE0616801EB0011FFF76DFE013035
:1054F000DFE70199280101EB0513DA683A40B2F5BC
:10550000001F21D0B2F5800F2BD0B2F5801F38D10B
:105510005A689B680958013B22F01F000344012090
:10552000844623F01F0340EA4C10CDE902218DF898
:10553000100002A920780593FFF760FE00281DDA0D
:105540006FF0150007B0F0BD5A689B680958013B21
:1055500022F01F0003444FF0020C012023F01F0330
:10556000E1E75A689B680958013B22F01F00034499
:105570004FF0000C062023F01F03D4E723780133FB
:10558000237001359FE7C1F89830C1F8A0000133BE
:105590009EE74FF0FF30D5E700ED00E05C610200D0
:1055A000AAFF4400EF9400200000F0FFF0B587B0A0
:1055B00007460E4614460021102268461D461FF07D
:1055C00005FC02238DF80230054B2A462146684629
:1055D000CDE9047601931AF00FF907B0F0BD00BFD2
:1055E0002B1F020008B502481AF020F8FEE700BFA2
:1055F0006975030008B5024B1B689847002008BD79
:10560000A8750020034B044A1860937843F0020306
:1056100093707047A8750020FC02002008B5064969
:10562000064821F00701C1F1005202F5E0221BF00B
:10563000E5FB002008BD00BFB73E0120AC7500208F
:1056400070B541690446867A0A4D59B1437ADB0741
:1056500006D42C2303FB06535B6A1B689B689847A0
:10566000002363612C20214606FB0050BDE87040FA
:105670001FF032B8580900202C22024B02FB0030E8
:10568000704700BF580900202C21827A054B01FB8E
:1056900002339A6A1B7F801A1B3323F00303B0FB8B
:1056A000F3F070475809002038B52C24827A064B55
:1056B00004FB02335B6AD3E901240C601568FFF731
:1056C000E3FF04FB005038BD580900202DE9F043EA
:1056D00085B00546684690461C4603911FF014FAB3
:1056E000DDE90067EFF31189202383F31288BFF30C
:1056F0006F8F6B8B002B41D02A8B9A4225D90022C9
:105700000023284615F0AEFD0446F0B189F3118858
:10571000BFF36F8F039B002B41D032463B46684658
:105720001FF016FA2C21A27A254B204601FB0233EA
:105730005B6A03A91B681D68DDE90023A847606157
:1057400070BB2046FFF77CFF24E0698B4B1E6B8308
:1057500089F31188BFF36F8F2B7F2A8BAC6A1B33C1
:1057600023F00303521A02FB0344154B154AEB1AAC
:105770009B105343A3722B7FE372CBE789F311880D
:10578000BFF36F8F23464246284615F06BFD044653
:105790000028BFD10024204605B0BDE8F083636136
:1057A000012300252381039B29466382E27A6560F9
:1057B00004F118001FF00AFB63692582E360EAE741
:1057C00058090020A38B2EBA70B52C250B4C00B9BC
:1057D00070BD037A4668013BDBB20372002BF7D140
:1057E000C3604360837A05FB03431B6A13B1984788
:1057F0003046ECE7FFF724FFFAE700BF5809002026
:10580000054B03EB8000D0F8003223F0E04343F077
:105810004053C0F80032704700258450052370B50E
:10582000144D154E2C780134B4FBF3F303EB8303D2
:10583000E41A1DF064FE114A137823B156F824309F
:10584000C01A072814D94FF05023D3F8141141B1CE
:105850000021C3F81411D3F814312C700CB90123B2
:1058600013702C781DF04BFE46F82400012070BD0B
:105870000020FCE7F1940020B8750020F09400208F
:10588000012208B50B4B0C49C3F800250223002068
:10589000C1F8D036FFF7B4FF1046FFF7B1FFC1F8EB
:1058A0000427C1F80429C1F8002BBDE8084000F026
:1058B000A5B800BF001000500040005007B50DF122
:1058C000070006F047FF0F4B984218D14FF4806253
:1058D0000D4B0E49C3F8B8254FF40062C3F83C25C0
:1058E0009DF807001DF036FE9DF8070008491DF0E1
:1058F0002CFE01209DF80730984006F025FF03B0EC
:105900005DF804FB0000AD0B00A002502CA002507B
:1059100028A1025048B1054B054A1B68B3FBF2F3BE
:105920005843044B43F001031847704730040020EC
:1059300040420F00A05A0200002170B5104C114DDA
:10594000114E000714F8013B03F01F025B090FD052
:10595000012B0FD1334603EB8203D3F80022013130
:1059600022F0E04202430429C3F80022EAD170BDCC
:105970002B46F0E70023803253F82230FFDE00BFD1
:105980008D75030000258450002884502DE9F041D6
:10599000064601200D46FFF7CFFF4FF47F03D3F8F3
:1059A0003021D3F83431072A20D1023B032B02D80F
:1059B000114AD35CD3B14FF050244FF001080027B7
:1059C0000520C4F81886C4F814761DF0BCFD4046C6
:1059D000C4F814861DF0B7FDC4F81476C4F8187620
:1059E00030462B46BDE8F041002118474FF05023C8
:1059F0000022C3F81426F3E7897503000149024821
:105A00001BF083BD94610200CC7500201FB578B1F6
:105A100000230193039301236946084802931BF076
:105A200087FD029B9B0700D1039B05B05DF804FB3B
:105A3000024805B05DF804EB1BF0D1BDCC75002029
:105A4000044B0020D3F80425D20744BF0022C3F83A
:105A50000425704700D0005008B504481EF0CEFC65
:105A600000280CBF6FF01200002008BD3C5302005C
:105A70000E4B402928BF402170B51D460C4C4618DE
:105A8000B04203F1020304D1002305F811300748A6
:105A900070BD02781209A25C03F8022C10F8012BE9
:105AA00002F00F02A25C03F8012CE9E71095002038
:105AB0000976030030B503788BB0044607AD032B9D
:105AC00021D8DFE803F0021A1C1E12492846FAF713
:105AD000B5FB059563781E210493A3780E4A0393C2
