:020000040000FA
:1000000010B50020BD5A0000FB5E0100A95A000097
:10001000A95A0000A95A0000A95A0000A95A0000D4
:10002000000000000000000000000000655C00000F
:10003000A95A000000000000C15B0000A95A00009E
:10004000855E0000855E0000855E0000855E000024
:10005000855E0000855E0000855E0000855E000014
:10006000855E0000855E0000855E0000855E000004
:10007000855E0000855E0000855E0000855E0000F4
:10008000855E0000855E0000855E0000855E0000E4
:10009000855E0000855E0000855E0000855E0000D4
:1000A000855E0000855E0000855E0000855E0000C4
:1000B000855E0000855E0000855E0000855E0000B4
:1000C000855E0000855E0000855E0000855E0000A4
:1000D000855E0000855E0000855E0000855E000094
:1000E000855E0000855E0000855E0000855E000084
:1000F000855E0000855E0000855E0000855E000074
:10010000855E0000855E0000855E0000855E000063
:10011000855E0000855E0000855E0000855E000053
:10012000855E0000855E0000855E0000855E000043
:10013000855E0000855E0000855E0000855E000033
:10014000855E0000855E0000855E0000855E000023
:10015000855E000053B94AB9002908BF00281CBFBA
:100160004FF0FF314FF0FF3000F00CB8ADF1080C4C
:100170006DE904CE00F022F8DDF804E0DDE90223A9
:1001800004B07047704700BF10F8012B11F8013B15
:10019000012A28BF9A42F7D0D01A7047034611F8B7
:1001A000012B03F8012B002AF9D17047034613F8FD
:1001B000012B002AFBD1181A013870472DE9F047AE
:1001C00086468C460846089E154674461946002BFE
:1001D00040F0C1808542B2FA82F245D94AB1C2F1FB
:1001E000200300FA02FC954094402EFA03F343EA00
:1001F0000C0C4FEA154EA8B2230CBCFBFEF80EFB0C
:1002000018CC08FB00F943EA0C43994528D9EB18B0
:1002100008F1FF3704D2994502D9A8F102072B440F
:10022000A3EB0903A4B2B3FBFEFC0EFB1C330CFBD7
:1002300000F044EA0344A04214D92C190CF1FF3316
:1002400004D2A04202D9ACF102032C44241A43EA9E
:1002500007401EB1D440002334607360BDE8F087CE
:100260004746DDE76346F1E792BB431B01214FEAB6
:10027000154EAFB2200CB3FBFEFC0EFB1C330CFB87
:1002800007F840EA0343984561D9EB180CF1FF30B9
:1002900004D2984502D9ACF102002B44A3EB080329
:1002A000A4B2B3FBFEFC0EFB1C330CFB07F744EAC5
:1002B0000344A7424DD92C190CF1FF3304D2A742B5
:1002C00002D9ACF102032C44E41B43EA0040C0E72E
:1002D000C2F120039540944020FA03F12EFA03F373
:1002E0004FEA154E9040AFB20343B1FBFEFC0EFB4C
:1002F0001C10190C0CFB07F841EA0041884522D973
:1003000069180CF1FF3004D2884502D9ACF1020023
:100310002944A1EB08019BB2B1FBFEFC0EFB1C11B2
:100320000CFB07F743EA01439F420ED9EB180CF18F
:10033000FF3104D29F4202D9ACF102012B44DB1BF6
:1003400041EA004193E76046E3E76146F7E760462C
:10035000A4E76346B8E7834206D916B900210846E8
:100360007CE7C6E900E0F9E7B3FA83F78FB9834287
:1003700001D3724508D8BEEB020460EB03030120F1
:100380009C461EB9002169E73846FAE7C6E9004CE9
:10039000F8E7C7F1200CBB400EFA07F522FA0CF47F
:1003A0002EFA0CF1BA401C4320FA0CF3B8404FEA85
:1003B000144901431FFA84FEB3FBF9F809FB183016
:1003C0000B0C08FB0EFA43EA00439A4540D9E318A8
:1003D00008F1FF3004D29A4502D9A8F10200234463
:1003E000A3EB0A0389B2B3FBF9F809FB183308FB46
:1003F0000EFE41EA03418E452CD9611808F1FF3306
:1004000004D28E4502D9A8F10203214443EA0040F8
:10041000A1EB0E01A0FB02984145CE46434602D314
:1004200006D14D4504D20138B9EB020E68EB040346
:10043000002EA7D0B5EB0E0261EB030101FA0CFC14
:1004400022FA07F3F9404CEA0303C6E9003199E7C1
:100450004046C5E74346D9E70023064A52F8041B45
:10046000096829B90133DBB2052BF7D101207047A8
:1004700000207047142D002013B50B4649790C4A13
:100480000529084628BF05200A4C10701A699B8A66
:100490002260094C2380094C24681CB9009008484C
:1004A00014F0B8FD074802B0BDE8104014F039B9A7
:1004B00011050020700100200C0500209C2D00205B
:1004C000309E01001C070020014814F02AB900BF2B
:1004D000340700200146A02210B504460E4817F04C
:1004E000DBFF0E4814F01DF90D4B1A68511C196002
:1004F000C823B2FBF3F003FB10225AB9A31E0E343B
:1005000033F9020FA3420244FAD1BDE81040054876
:1005100014F080BD10BD00BF0E4D00208C060020E1
:10052000102D0020729E010001480EF0E5BF00BFB3
:100530008C2D00201FB501AB07CA83E807000648D1
:1005400014F0F1F8024618B91846044906F030FADA
:1005500005B05DF804FB00BFAC2D0020C10B00000E
:1005600070B50C6892B02378064607AD032B2ED8E1
:10057000DFE803F00227292B18492846FFF70EFE73
:10058000A379059562781E210492A2780AA80392A5
:10059000E27802922279019262790092104A12F076
:1005A00089FF304608F09AFB0AAA01460D4814F06C
:1005B00031FD01220C4B0D481A7014F0B2F812B044
:1005C00070BD0B49D9E70B49D7E70B49D5E70A219D
:1005D00028460A4A12F06EFFD2E700BF979E01003C
:1005E000B99E0100DC9E01005A4E00204C070020FD
:1005F0009E9E0100A59E0100AF9E010049D0010012
:1006000070B505460A460C460146114814F002FD35
:100610000021104814F0A2F80F4B104E1B7856F82A
:100620002330AB4202D10E4814F098F83368AB4245
:1006300002D10C4817F046FE3E2C01D0442C04D1C8
:100640000948BDE8704014F06CB80848F9E700BFED
:100650000C9F0100202E002010050020142D0020EA
:10066000A02D0020B00B0020BC060020D4060020E6
:100670002DE9F043474E484F484D89B030684FF45C
:10068000A472002302A90EF0E5FB48B1002200236A
:10069000384614F04DF8F1E70420002117F032FD40
:1006A000284614F040F80028F6D13D4B1C78012C68
:1006B00038BF0124013C14F0FF04DFD004210DEB0E
:1006C000010006F07DF8019BB3FBF4F204FB12334A
:1006D000344A0133DBB21370334A52F82390B9F134
:1006E000000FCBD0BDF808301BB9304814F092FC95
:1006F000C4E7002200232E4815F082FC044698B976
:100700002C4814F010F80028B8D02B4A1368591C54
:1007100011603222B3FBF2F002FB1033002BADD19B
:10072000264814F077FCA9E7254813F0FCFF38B9F8
:10073000244813F0F8FF18B9204605F0D1FE9DE7D4
:1007400004F10C0840460D2115F093FCBDF808207B
:1007500040460DF10A01DFF8748015F09BFC012181
:10076000284613F0FBFFB8F800202146484615F054
:10077000BEFE021E04DA4946134814F04BFCDBE7C8
:1007800001210C4813F0EAFFB8F800300B44A8F838
:10079000003073E7242E0020640700201C2E002068
:1007A0001105002010050020142D00203C9F0100A1
:1007B00094070020A02D00200C2D0020579F010041
:1007C000A03000209C300020809F01000C4D0020B4
:1007D0002DE9F04FDFF898A15B4CC9B04FF0FF3224
:1007E0004FF0FF3306A959480EF034FB0121504663
:1007F00013F0A0FFBDF81810B1B1554813F0FFFF7A
:1008000053480CAA0DF11A0114F00AF8002863D11C
:100810000CAB20AA33F9021B01302828118051802B
:1008200002F10402F6D10AE04A4A20A81368013313
:100830001360A02217F057FE454813F0E0FF002197
:10084000504613F077FF00204349444D20AB2688E3
:100850000A88B6B292B296424CD322880E8892B2DF
:10086000B6B2921B062A4DD93D4A13680133136074
:100870003C4A136803F10109C2F80090C822B3FB97
:10088000F2F002FB1033002BA8D125880888DFF88E
:10089000C480354F324EADB280B28542D8F800B038
:1008A0003B68326848D325880988ADB289B26D1A91
:1008B000CDE9043201F0C2FA059ACDE90150049B5A
:1008C000009249465A46294814F0A4FB0023C8F870
:1008D00000303B60336081E7B1DA1D4813F08FFFD1
:1008E000214A0021136820A801331360A02217F0C9
:1008F000FAFDA4E70A88268892B2C2F1080212FA29
:1009000086F2AFE79C46228892B205EB8212171F4F
:100910003C323CF8026B06EB064647F8046F974200
:10092000F7D122881030013202F0070250282280CD
:1009300003F120038BD19BE70988258889B2C1F197
:10094000080111FA85F5B3E7B04D0020FC05002041
:10095000E82D0020FC2C0020AE4D0020282E002089
:10096000F42C0020F02C0020F82C0020A39F010084
:10097000E89301002DE9F0414FF47A7517F04FFC30
:100980002F46A0FB050605FB0166C30B43EA464361
:1009900013F5FA644FEAD636DFF8388046F10006E0
:1009A000FFF75AFD08B1BDE8F08117F038FCA0FB55
:1009B000070305FB0131C30B43EA4143A3424FEA5E
:1009C000D131B141EFDA40F6CD420023404613F079
:1009D000AFFEE5E7D406002013B5014604460F48F4
:1009E00014F018FB0E4BD3E8EF1F0131C3E8E21FF0
:1009F000002AF8D10B4813F094FE0B4B1B68A3425E
:100A000009D1002200230948CDE900234FF4804298
:100A100000230FF049FC02B010BD00BFDF9F0100B2
:100A2000A42D0020BC060020142D0020B00B0020B7
:100A300010B5044601210A4813F07CFE094B1A78D0
:100A4000094B53F82230A34203D10021074813F089
:100A500085FEBDE810400021014813F06BBE00BFC9
:100A6000F893010010050020142D00201C2E0020FA
:100A700008B50B4814F0CEFA0A4817F023FC0A48D0
:100A8000002113F06BFE094B186840B109F04EFAD3
:100A9000014620B1BDE80840054814F0BBBA08BDC6
:100AA000F99F0100B00B0020202E00209C2D00207B
:100AB00029A001000D4A1378B3B94389A3B10121DC
:100AC000117001790A4A117040F2E2425343094A17
:100AD00013600268084B1168084819609188998072
:100AE00092799A7113F01DBE704700BF5B4E0020D3
:100AF000524E0020B02D0020534E0020040700204D
:100B000030B5294B0C461B681546834289B048D145
:100B10000121264813F00EFE002D36D02A8A142A11
:100B200033D8A379D90730D5E9680DF10A00ADF8BB
:100B3000082017F0B1FC002200231D48CDE9002356
:100B40004FF4804200230FF0AFFB0023002202A9E4
:100B500018480EF01FF90021144813F0EBFDA3799B
:100B60001B071ED5144A154B206814881988A4B297
:100B700089B28C420DD311881B8889B29BB2C91AE5
:100B800009B0BDE8304002F045B80023ADF80830A8
:100B9000DBE71B8811889BB2C3F1080313FA81F1CC
:100BA000EEE709B030BD00BF142D0020F093010026
:100BB000B00B0020FC050020B04D0020AE4D002001
:100BC0002DE9F04F8FB0002800F0C5800378162B78
:100BD00040F0C1804278052A40F2BD8041680BA8F0
:100BE00015F041FA0BA815F08FFA41F6510398421F
:100BF00040F0B180BDF83030032B0FD801225A4BA2
:100C0000D3E8EF1F002903D1C3E8E02F0028F7D174
:100C100000F0A38000200FB0BDE8F08F0BA815F006
:100C20007BFA05460BA815F067FA04460028E5D0C4
:100C3000024629464D4814F0EDF94FF00008BDF882
:100C40003030072BDAD90BA815F056FA07460028E2
:100C5000D4D00BA815F050FA07900BA815F054FA51
:100C600008900BA815F050FABDF830308346002BE1
:100C7000C4D00BA815F040FABDF8303005468342C9
:100C8000BCD301460BA815F02FFABDF83030002B6D
:100C9000B4D00BA815F030FABDF8303006468342C8
:100CA000ACD34FF0000A01460BA815F01DFAD1464F
:100CB000BDF830100129A1D90BA815F01DFA099033
:100CC0000BA815F019FA0146BDF83000884295D3FB
:100CD0000BA815F009FA099B0AF1010A591EC8B2BE
:100CE0001F289EBF012303FA01F149EA01095FFAB7
:100CF0008AF18F42DCD8079BFF2B28D14DF6AD63DC
:100D0000089A9A4225D14BF6EF60194B1949834551
:100D100008BF0B46089A08F1010800924146CDE948
:100D20000479CDE90256079A1348CDF804B014F0BF
:100D300071F95FFA88F39C4281D8BDF83030002BFE
:100D40007FF45CAF01210D4813F008FD62E70C4B06
:100D5000E0E7074BDEE701205DE76FF0150109488A
:100D600014F058F956E700BFA82D002074A0010028
:100D700061A001004AA00100A6A00100AC2D002046
:100D80003FDC010023A101002DE9F043564B574FF2
:100D90001D8EDFF89081DFF89091C3B04FF0FF32E5
:100DA0004FF0FF33384613F0C3FC404613F0BBFC52
:100DB0000028F3D0A02249461AA817F06DFB0022A4
:100DC0001AAC2146134631F9020B0132082A0344BA
:100DD000F9D147480268511C01606420B2FBF0F66B
:100DE00000FB162232B9434813F09DFC02464248EC
:100DF00014F010F9414813F096FC78B101214048F5
:100E000013F098FC142D0FD0142229463D4814F0FD
:100E100001F900213A4813F08DFCBFE7354813F083
:100E200082FC0028EAD1B9E7374813F0E0FC06A9B4
:100E300000220E46B4F90030B4F902000132034436
:100E400003EBD3735B10282A21F8023B04F104045E
:100E5000F0D131462C4801AA13F0D3FC011E03DA6D
:100E60002A4814F0D7F8D4E701AB0DF11A020DF1BE
:100E7000140C1C4603CC644510605160234602F1FB
:100E80000802F6D1142320681060ADF81830204B0A
:100E900018680022002331460DF07CFF68B10A2259
:100EA0001C4B196801311960B1FBF2F302FB1313FB
:100EB000012B02D1184814F0ADF80021104813F0AE
:100EC00039FC164A1468611C1160C822B4FBF2F0A8
:100ED00002FB1044002C7FF461AF0E4E10483268C4
:100EE00014F098F8346059E7740100208C06002053
:100EF000082D00209C3000203AA10100A0300020E5
:100F0000E093010064A10100B42D00209DA1010027
:100F1000242E0020042D0020BAA10100002D002065
:100F2000E0A10100202E00200E4D002041F2883368
:100F30002DE9F04FA94EAA4A736314233386012387
:100F400086F82E30FF23B370002399B0A548C6E978
:100F5000012314F05FF8A44814F05CF80521A348BD
:100F600014F058F800F09CFD054680B10146A048F9
:100F700014F050F89F4800F057FC044650B1014669
:100F80009D4814F047F8204619B0BDE8F08F00F0F6
:100F9000AFFDEFE700F0BEFD22469849984817F0F4
:100FA00085F99849984816F098FF984B984A9948BF
:100FB00099490534192CC3E9010142F8043B03F1B6
:100FC0001403F6D19549964800F096FF044610B1F7
:100FD00001469448D5E701F003F8044610B10146F4
:100FE0009148CEE701F0F2FD01F03CFE8F4B4FF04F
:100FF000000818608E4813F000FC8E4813F0FBFBCD
:101000004FF0000901234FF4C052CDE90243CDE96E
:101010000689CDE90044884B8849049488480EF03D
:1010200063FB884986480EF0E9FA02274FF48052A4
:10103000CDE90689CDE90247CDE90044824B8349D9
:10104000049483480EF050FB824981480EF0D6FA92
:101050004FF48062CDE90689CDE90374CDE90144FE
:101060007D4B7E4900947E480EF03EFB7D497C48D6
:101070000EF0C4FA204606F0CDFC044610B101463D
:1010800079487EE7794807F011FE794807F050FF6C
:10109000784813F04BFB784813F048FB774813F07F
:1010A00045FB774813F042FB764813F03FFB764848
:1010B00013F03CFB0021754813F050FB744813F00B
:1010C0004DFB744B197015B9284600F011FD72489C
:1010D00013F0A0FF714A0CAB1068516803C390680D
:1010E000002118600CA807F075FD044610B10146F8
:1010F0006B4846E76B4B18706B4813F08BFF4FF053
:10110000FF324FF0FF335B4813F012FB044610B17F
:101110000146664835E7664813F07CFF07F0AAFDF4
:10112000044610B1014663482BE7634B11941868DD
:101130009A889B790F908DF84230604B60481B78FD
:10114000ADF840208DF843305E4BADF848401F6845
:1011500006235F4342F21073B7FBF3F3ADF84A3056
:1011600013F058FF0BA90FA807F00CFE044610B1AE
:101170000146554805E7554813F04CFF54494FF4D4
:1011800000408C462146E7FB00C10023514A6046DF
:10119000FEF7E0FF074602460B4637480C4613F0C1
:1011A000C7FA30B14C4813F035FF0B9807F0A2FD99
:1011B0006EE74A4813F02EFF3A462346304813F0B4
:1011C000B7FA002800F08E80454813F023FF314B1A
:1011D0001B78002B7FF45CAFE7E700BF74010020B1
:1011E000ADDEEFBEFAA1010014A2010044A201008D
:1011F0007BA201006407002090A2010029050000E5
:10120000B00B0020710A00008C2D0020282D00203A
:10121000142D00203001002068010020D5040000BA
:10122000AC010020A9A20100C0A20100242E0020D0
:10123000E82D0020B42D0020D1070000106600200A
:10124000B80A0020D8A20100890D00001056002025
:10125000C0090020E5A20100710600001052002024
:10126000C8080020F2A20100F9A201002401002018
:101270000801002004070020340700204C0700204C
:101280001C070020BC060020D4060020AC2D002046
:10129000A82D00205A4E002019A30100A48F0100A0
:1012A0002CA301005B4E002049A301006EA30100A6
:1012B00086A30100A3A30100534E0020524E00203C
:1012C000BFA30100B02D0020E6A301000CA4010083
:1012D0003F420F0040420F002AA4010041A4010038
:1012E0005AA4010041F28832A64B1968A64B9142DC
:1012F0001B887163338601D1142B2AD01422A34892
:10130000009241F2883213F085FEA14813F082FE6C
:10131000002200239F4813F00BFAB0B19E4813F04F
:1013200079FE9E4813F002FA4FF4203200239B48C6
:1013300013F0FEF998B19A4813F06CFE4FF0FF32AB
:101340004FF0FF33934813F0F3F9964813F062FE21
:101350009EE6954813F053FA944813F048FAFFF7C5
:101360007BF870B9924813F055FE4FF4803000219D
:10137000FFF700FBFFF770F818B98E4813F04AFE2C
:10138000C3E701228C4B8D4F19788D488A40013A72
:10139000BA60397113F03EFE00218A4813F0DEF97D
:1013A0003946894A0B9808F055FF0446002800F09A
:1013B00091800146854813F02DFE14F1780F7FF4DB
:1013C000E2AD4FF480300021FFF7D4FA9DE74846A4
:1013D000099113F01FFE4FF4A0220023504613F092
:1013E000A7F908F10108002858D15846099913F0C7
:1013F00011FE714B5FFA88F11B789942E7D371486F
:1014000013F091F998424ADB714813F003FE002172
:10141000704813F0A3F90C46DFF8FCB13A795FFA93
:1014200084FA52455ED8002401F00EFC6A4B214636
:101430006A481C8013F092F9694816F0E7FB694B83
:10144000186816F0E3FB684B1C80684B1C80684CE6
:1014500000220023204613F06BF90028F8D0012168
:101460005C4813F07BF915B9084600F041FB0027F2
:10147000DFF8A881DFF8A891DFF8A8A14E4B5FFA4A
:1014800087FB1B785B4566D85A4813F0C3FD002DD7
:101490007FF43BAF284600F02BFB36E70446494873
:1014A00013F041F9444B024621461B78524813F091
:1014B000B1FD454B186808F039FD00F11602162AF7
:1014C000044604D84D4B1341DB077FF57AAF214624
:1014D0004B4856E58046DFF85091DFF850A1DFF821
:1014E00050B186E7474B14220021BAFA8AF913A8B3
:1014F00053F82A8016F0F7FF0322514642484FEA7C
:1015000059198DF84D2013F085FD13AA4946404620
:1015100007F0B8FF10F10D0F024611D151465846A1
:1015200013F078FD0121404608F0E0F80021404624
:1015300008F0DCF813AA4946404607F0A3FF02462C
:10154000514601341AB1314813F064FDB1E7304817
:1015500013F060FD62E75946404613F05BFD4FF023
:10156000FF324FF0FF33484613F0E2F801370446EC
:1015700010B10146274804E55946504613F04AFD8C
:101580007CE700BF700100200C0500206CA4010066
:10159000FCA601004C07002020A701001C0700202A
:1015A0003EA7010072A70100E82D0020B42D002005
:1015B000B2A40100DFA401001105002044010020B5
:1015C00021A50100A42D00209C2D002051A5010083
:1015D000D7A50100202E00200C4D0020A02D0020BA
:1015E000FC050020242E0020B04D0020AE4D002030
:1015F0008C060020ECA60100ACA50100FEFFBDFF9B
:1016000029A00100142D0020EEA5010049A601002B
:1016100078A60100B6A601000CA6010090A6010064
:10162000D4060020D4A601006DA50100BC06002050
:101630008EA5010001480DF05FBF00BF28300020DB
:1016400008B50021044813F050F920B1BDE8084066
:1016500040B200F0FFBB08BD4430002010B5114B74
:10166000D3E8AF4FECB904210F4813F02AF9002852
:101670000EDD01210D4813F038F901F0E5FA0C48B0
:1016800013F0C8FC0B4B1868BDE810400DF040BDCE
:101690002146064813F029F9BDE81040064813F02A
:1016A000B9BC10BDA0300020148A01009C3000207D
:1016B00087A70100A430002096A7010008B50848BC
:1016C00013F0A8FC074BD3E8EF1F0331C3E8E21F78
:1016D000002AF8D1BDE8084003480DF00DBF00BF57
:1016E000A6A70100443000204830002001460348EE
:1016F0008368DB690BB1012218477047148A010027
:10170000062108B5054813F0DCF8002804DDBDE823
:10171000084003480DF0F0BE08BD00BF148A010068
:101720007030002008B5084813F074FC074BD3E86C
:10173000EF1F0339C3E8E21F002AF8D1BDE80840D3
:1017400003480DF0D9BE00BFB0A70100443000200F
:101750004830002010B51248D0E8AF4F54B10021F6
:1017600013F0C3F80F4813F0C8F80020BDE810408C
:1017700000F09EBB012113F0B8F80A4813F0BDF841
:101780002146094813F0B1F80848D0E8AF3F23B12B
:1017900013F0ABF8064813F0B0F80120E6E700BFFD
:1017A000A0300020A89301009C3000208030002051
:1017B000C893010010B5154BD3E8AF4F24BB1448B4
:1017C000D0E8AF3F73B1214613F08FF8114813F002
:1017D00094F82146104813F088F81048BDE81040EE
:1017E00013F018BC012113F080F80A4813F085F8B3
:1017F0000121094813F079F801F026FA084B18681E
:101800000DF086FC0748E9E710BD00BFA0300020BE
:1018100080300020C89301009C300020BCA701004C
:10182000A4300020D1A701006D4B10B518606D48A1
:1018300013F077F828B96C4813F0ECFB6FF0120442
:101840000AE04FF48031694813F01CF8044628B1CF
:101850000146674813F0DEFB204610BD4FF0E861FB
:10186000624812F0ECFF044610B101466148F1E70E
:101870006148624B436010238360FFF737FF604885
:1018800013F0C8FB5F48604916F027FB554813F07A
:1018900048F808B95D48CFE7524813F042F80028ED
:1018A000F8D04FF480315A4812F0ECFF044610B1E2
:1018B00001465848CEE74FF4B011574812F0E2FF06
:1018C000044610B101465548C4E74FF0E86150485E
:1018D00012F0B5FF044610B101465148BAE751482D
:1018E000514B436040238360FFF700FF4F4813F0E4
:1018F00091FB4F484F4916F0F0FA3A4813F011F8AF
:1019000008B94D4898E7374813F00BF80028F8D08D
:101910004FF48031494812F0B5FF044600289BD1AE
:101920004FF48031464812F0ADFF0446002893D1B1
:101930004FF0B861414812F082FF044600288BD175
:101940004FF0B8613E4812F07AFF0446002883D178
:101950003C483D4B3D4C4360042383603C4B6360FB
:101960000823A360FFF7C2FE2046FFF7BFFE032156
:10197000384813F04FFB3848384916F0AEFA19488A
:1019800012F0CFFF08B9364856E7164812F0C9FFE3
:101990000028F8D04FF48031324812F073FF04462B
:1019A00000287FF459AF4FF4B0112F4812F06AFFAE
:1019B000044600287FF450AF4FF0B861294812F078
:1019C0003EFF044600287FF447AF2848284B436079
:1019D00020238360FFF78AFE264813F01BFB3BE7BA
:1019E000A4300020148A0100E5A70100D89301006B
:1019F00000A8010021A80100903000205D16000021
:101A000045A8010070300020B517000070A8010043
:101A1000D093010089A80100C8930100AFA801007C
:101A2000D2A801008430002001170000FBA80100AB
:101A300048300020411600001EA90100C09301009B
:101A4000B8930100643000202517000058300020B2
:101A5000BD1600003CA901002830002055170000E9
:101A600062A90100B0930100A89301003830002062
:101A7000351600007DA90100084B1A691268520151
:101A800048BF80F0010028B19B68DB684FF080619F
:101A9000024818479B681B69F8E700BF148A0100D9
:101AA00038B5114D2B78C3B9104C204615F0E3FF23
:101AB000B0B12269A1681368204623F080631360E7
:101AC0000B684FF4C0221A219847034630B9FFF73C
:101AD000D3FF034610B901232B700023184638BDED
:101AE0006FF01203FAE700BF5C4E0020148A010079
:101AF00010B5074B04461B7823B12046BDE81040C3
:101B0000FFF7BABFFFF7CCFF0028F6D010BD00BF2B
:101B10005C4E002010B5214815F0ADFF30B92048CB
:101B200013F078FA6FF01204204610BD1D4812F031
:101B3000FAFE044620B101461B4813F06BFAF3E7A6
:101B4000164815F098FF08B91848E9E7184812F048
:101B5000EAFE044610B101461648EEE70F4815F0BC
:101B60008AFF08B91448DBE7144812F0DCFE04468B
:101B700010B101461248E0E7124815F07CFF08B9A1
:101B80001148CDE7114812F0CEFE044610B10146CF
:101B90000F48D2E70F4813F03DFAC5E7F48901007A
:101BA000ADA90100F0930100CCA90100F6A9010044
:101BB000E893010017AA010043AA0100E093010085
:101BC00064AA0100148A010090AA0100F8930100A0
:101BD000AFAA0100D9AA01002DE9F0410446DFF8BF
:101BE000488000EBC105AC4201D1002017E0D4E9E8
:101BF0000067012E04D1384615F038FF0834F2E7AB
:101C00003A463146404614F04BF903460028F5D0D9
:101C100004483A46314613F0FDF96FF00400BDE880
:101C2000F08100BF26AB0100BC3000202DE9F84355
:101C30000546002849D04FF0000844466F4E704FCB
:101C40003378011F07EB43173C3051F8042F13146E
:101C5000002BB8BF5B429BB212B29C42B8BF1C467D
:101C6000002AB8BF524292B29045B8BF904688420F
:101C7000EBD1DFF8C091D9F80030002B0FDA402CFF
:101C800002DCB8F1400F0ADD4445ACBF0021012160
:101C9000434622465B48C9F8001013F0BBF9D9F857
:101CA0000030002B7BDBDCB2002355F82320002C16
:101CB0007AD1121427F813200133102BF5D1337881
:101CC0000133DBB2042B71D833704F4A4F4E137877
:101CD0004F49DFF86481002B18BF0E4683F00103E3
:101CE0001370D8F800304B4F002B68D09A681488D6
:101CF0005A68A4B2128892B2944260D0396861B135
:101D00009B89121B1A4492FBF3F003FB10224248FA
:101D100092B213F07FF900233B60B446D8F800700C
:101D20004FEA841E3B6803EB841303F140086246CC
:101D300018685968083303C243459446F7D1386898
:101D400040220021704416F0CEFBBB890134B4FB65
:101D5000F3F103FB1144BA68A4B2304B1480D3E80A
:101D6000EF1F0131C3E8E21F002AF8D131462846AF
:101D700000F01AFA014600283ED0294B1A680132B9
:101D8000052A1A6006D93220B2FBF0F300FB1323B8
:101D9000002B31D1BDE8F843224813F03BB944454C
:101DA000ACBF002401247FE712B283E70023337025
:101DB0001D4B1B68002B88D01148984785E74022AF
:101DC0000021304616F08FFB184BD3E8EF1F01318E
:101DD000C3E8E21F002AF8D13B6801333B60144B93
:101DE000D3E8AF1F3A688A42C0D9D3E8EF1FC3E8EF
:101DF000E02F0028BAD0F8E7BDE8F8835E4E002057
:101E0000B24D00205AAB01005D4E00208C31002005
:101E10004C310020B030002090AB0100B4300020E5
:101E2000A8300020C0AB010050320020B8300020A4
:101E3000AC300020BC0100204C32002000200146C4
:101E4000034BD3E8EF0FC3E8E21F002AF9D1704734
:101E5000B830002073B5064644F61801124801AAAE
:101E600014F016F818B16FF0040002B070BD9DF8C0
:101E7000044044F6180104EB4604802CA8BF8024DB
:101E800024EAE474084844F4007214F009F80546A2
:101E90000028E8D16310054822463146403B13F044
:101EA000B9F82846E1E700BFBC300020F7AB0100DD
:101EB00008B558B109210B48FFF78EFE28B90A4B27
:101EC00018600A4813F0A6F8002008BD0A21084847
:101ED000FFF782FE0028F8D14FF0FF32024B054891
:101EE0001A60EFE7B0940100BC0100201BAC0100B8
:101EF000F894010036AC010038B5002853D0002911
:101F000051D02A4D2B78002B4BD1294A1060294AF9
:101F100029481160294A136000F0E0FA044628B10C
:101F20000146274813F076F8204638BD022125489F
:101F3000FFF752FE04460028F6D109212248FFF798
:101F40004BFE04460028EFD104212048FFF744FE51
:101F500004460028E8D10E211D48FFF73DFE044647
:101F60000028E1D10A211B48FFF736FE044600286D
:101F7000DAD103211848FFF72FFE04460028D3D1F9
:101F800044F6180140F262220B4813F089FF014623
:101F900028B1124813F03EF86FF00404C4E701239F
:101FA0002B700024C0E76FF01504BDE7604E0020E1
:101FB0004C32002050320020BC300020BC010020F8
:101FC0004DAC0100009401006895010048950100A6
:101FD00028940100F8940100989401006BAC010072
:101FE00038B5224B1B78002B3CD0214D2B78002B91
:101FF00036D103211F48FFF7EFFD044628B1014603
:102000001D4813F007F8204638BD1C4800F056F86C
:1020100000F05AF8044610B101461948F1E70146AC
:102020004022184816F05FFA21464022164816F062
:102030005AFA1449154800F091F8044610B10146C7
:102040001348DEE71049134800F0AEF8044610B11B
:1020500001461148D5E7114812F0DCFF01232B702F
:102060000024D0E74FF0FF34CDE700BF604E0020E2
:102070005F4E00201094010091AC01002D1C000067
:10208000AEAC01008C3100204C3100200C3200201D
:10209000C9AC0100CC310020E5AC010008AD010065
:1020A000012908D138B1044A126822B1D0E90001EF
:1020B00000B901B11047704754320020014B18603D
:1020C000704700BF5432002037B51D4D2B78002BD0
:1020D00034D14FF0502449F6A633C4F85C350123BF
:1020E000A361D4F8203153B10021164801AA14F09D
:1020F0009FFB002808DA6FF0040003B030BD002118
:10210000212015F0FFFFECE7019B0F4A19791868B1
:1021100009F028FC02460028EDD10121282003F017
:10212000E3FD282003F0B0FD084A094909480BF0F7
:1021300051FA094B9842DED101232B700020DCE7D5
:10214000614E0020B095010000800250A1200000E7
:10215000C0010020E80100200000AD0B1FB50F4CAE
:102160002378012B13D100B989B11023CDE90101E6
:1021700000220B4801A9ADF80C300BF0FDFA094B19
:10218000984207D102230020237004B010BD6FF0E5
:102190001500FAE76FF00400F7E700BF614E00207A
:1021A000E80100200000AD0B1FB50D4B1B78022B82
:1021B00013D100B989B11023CDE90101094801A962
:1021C000ADF80C300BF04CFB074B984214BF6FF08E
:1021D0000400002005B05DF804FB6FF01500F9E77E
:1021E000614E0020E80100200000AD0B01460148CF
:1021F00012F010BF3DAD010008B5024812F00AFF11
:10220000012008BD63AD010008B5024812F002FFCD
:10221000012008BD8EAD010008B5024812F0FAFE9B
:10222000012008BDBAAD010008B5024812F0F2FE67
:10223000012008BDDFAD010008B5024812F0EAFE3A
:10224000012008BD03AE010008B5024812F0E2FE0D
:10225000012008BD36AE010008B5024812F0DAFED2
:10226000012008BD5BAE010008B5024812F0D2FEA5
:10227000012008BD8CAE01000A4608B50123C0B29A
:1022800003FA00F107484AB18368DB68984720B138
:102290000146054812F0BEFE012008BD83681B6997
:1022A000F4E700BF148A0100AFAE0100F8B50125C4
:1022B000154B164E1960164B16491A60164BB76827
:1022C0004B6005FA00F38B60FB6904460BB90120F3
:1022D000F8BD2A46304698470028F8D1E1B2BC69DB
:1022E0003369002CF3D01B688D401D4214BF4FF0A2
:1022F00080634FF000734FF0A0723046A047003863
:1023000018BF0120E4E700BF7C320020148A0100DE
:10231000783200206C3200201D230000B2F5002F1F
:1023200008B50AD1054A064B00201B68116898477A
:10233000BDE8084003480CF0EBBE08BD7832002031
:102340007C320020EC06002010B505480CF05EFE43
:10235000044618B10146034812F05CFE204610BD49
:1023600058320020D2AE010010B54FF0FF324FF0CE
:10237000FF3305480CF0D2FD044618B1014603486E
:1023800012F048FE204610BD58320020EEAE01008B
:1023900010B58AB008460D99042903D0144812F0EC
:1023A00039FE10E008930C9B0024099304AB0293C0
:1023B0000323CDE9040201AACDE906210194039388
:1023C000FFF7D2FF10B101200AB010BD09480A4939
:1023D00083681C6802AB1A46A047014608B107484B
:1023E000DDE7FFF7B1FF003818BF0120ECE700BFC1
:1023F00008AF0100148B0100FC9501002DAF010016
:1024000070B50446084E094D4FF0FF324FF0FF33D0
:1024100030460CF0B7FE204602F0BCFE0028F3D098
:10242000284612F0F7FDEFE7EC0600204EAF010062
:1024300070B5144601B922B10B4812F0EBFD012032
:1024400070BD20EAE0754FF40046214640F2E730C7
:102450004FF47A720023C5FB0601FDF77BFE15F0F1
:1024600051FE2046ECE700BF6FAF010010B58AB007
:1024700008460D99042903D0144812F0CBFD11E051
:1024800008930C9B0024099304AB02930323CDE92A
:10249000040201AA0393CDE906210194FFF764FF2A
:1024A000034610B101200AB010BD094809498268ED
:1024B000146802AAA047014608B10748DDE7FFF704
:1024C00043FF003818BF0120EDE700BF08AF01004F
:1024D000148B0100FC95010092AF0100F0B593B0A0
:1024E00007462822002108A815F0FDFF3E4815F0F8
:1024F000D8FB3E4815F0BFFA48B13D4815F0BBFA8D
:1025000028B13B4815F0B7FA48B93A4800E03A48D4
:1025100012F080FD6FF00504204613B0F0BD4FF4BB
:102520008031364812F015FA04460028F4D13048BC
:1025300015F0A1FA0028E8D04FF48031304812F0AD
:1025400008FA04460028E7D1294815F094FA002833
:10255000DBD04FF400312B4812F0FBF90446002881
:10256000DAD14FF4A4720023CDE906230523CDE987
:102570000070CDE9020304904FF42F72224B2349DF
:1025800023480DF0B1F8234921480DF037F80446EF
:102590000028C1D1384613F093FC08B11E48B7E7B4
:1025A0001E4E08AD0FCE0FC596E80F0085E80F0050
:1025B0001B4B384610931E2308A9119302F0A2FD6D
:1025C00008B11848A4E7384602F0BCFE08B1164826
:1025D0009EE7B968154A91429ED0154812F01AFD3F
:1025E0006FF0040498E700BF58320020148B0100FC
:1025F000148A0100C2AF0100ABAF010020960100B8
:10260000189601001096010001240000107E0020A1
:10261000E80B0020D6AF0100DEAF0100D895010025
:102620009C020020FCAF010019B00100637A040095
:1026300032B00100034648F6D870834206DD4AF204
:1026400073729342CCBF4AF2747098B2044B1A88EA
:1026500082421EBF18804FF05023C3F85C057047BC
:102660000E0500202DE9F84F4FF0502349F6A6370C
:102670000025D3F85C35DFF808939BB2002B08BF28
:102680003B462E46AA464C46DFF8F882A8F80030B2
:102690004FF0FF334FF0FF32AF480CF073FD0023D3
:1026A000D9E8EF2F012A03D1C9E8E13F0029F7D18A
:1026B0000CBF01221A464FD1DFF89CB2002700213F
:1026C000A64812F05DF9A64812F05AF94FF0FF3211
:1026D0004FF0FF3358460CF055FDD4E8EF3F012B87
:1026E00003D1C4E8E27F002AF7D10CBF0123002305
:1026F000E5D09C4FD7E8EF2F012A03D1C7E8E13F8F
:102700000029F7D10CBF4FF0010A4FF0000A40F04A
:102710003B81043FD7E8AF3F49F6A63701218F48F8
:1027200012F02EF9904812F075FC4FF0FF334FF085
:10273000FF3289480CF026FD0023D4E8EF2F012A50
:1027400003D1C4E8E13F0029F7D108BF012340F0DD
:10275000EF8000263546AFE7824BD3E8EF1F012913
:1027600003D1C3E8E02F0028F7D191D1043BD3E88F
:10277000AF3FBAF1030F8BD801A252F82AF000BF85
:102780001D270000212A0000FF270000A5280000C7
:1027900003F51B47A6373846FFF74CFF02216F4869
:1027A00012F0EEF83946714812F034FC4FF0FF3366
:1027B0004FF0FF3268480CF0E5FC0023D4E8EF2F1F
:1027C000012A03D1C4E8E13F0029F7D108BF012362
:1027D0003FF472AFDFF88CA1DAE8EF2F012A03D1C2
:1027E000CAE8E13F0029F7D10CBF4FF0010B4FF0D1
:1027F000000B40F07E81AAF1040ADAE8AF3FC3F192
:10280000040A0A2303FB0AFA40F24B1358484FEA22
:102810006A0A00FB0AF090FBF3F03844FFF70AFF66
:102820005146B8F8002053480AF10F0A12F0F2FBA3
:10283000BAF11E0F00F27B810321484812F0A0F884
:102840000121474812F09CF8B8F800104A4812F0ED
:10285000E1FB4FF0FF334FF0FF323F480CF092FCAA
:102860000023D4E8EF2F012A03D1C4E8E13F002977
:10287000F7D108BF01233FF41FAFDFF8E8A0DAE883
:10288000EF2F012A03D1CAE8E13F0029F7D10CBF9D
:102890004FF0010B4FF0000B40F04C81AAF1040AFD
:1028A000DAE8AF3FC3F104010A23594340F24B1366
:1028B0002F484910484390FBF3F03844FFF7BAFE25
:1028C00001F12003402BC4D92C4812F0A3FB0021B6
:1028D000224812F055F8224812F052F84FF0FF3318
:1028E0004FF0FF321C480CF04DFC0023D4E8EF2FD2
:1028F000012A03D1C4E8E13F0029F7D108BF012331
:102900003FF4DAAEDFF85CB0DBE8EF2F012A03D149
:10291000CBE8E13F0029F7D10CBF4FF0010A4FF09F
:10292000000A40F02881ABF1040BDBE8AF3FF5E68D
:102930000C4ED6E8EF2F012A03D1C6E8E13F00296B
:10294000F7D10CBF0125002544D1043ED6E8AF6F76
:102950004FF0010A9CE600BF5C0600208032002098
:1029600084320020903200205DB001009FB0010051
:1029700018FCFFFFBDB00100E0B00100FCB0010099
:102980002C0200200E0500204FF0FF324FF0FF33E5
:1029900088480CF0F7FBD4E8EF3F012B03D1C4E8E3
:1029A000E2AF002AF7D10CBF012300233FF486AE2B
:1029B000D7E8EF2F012A03D1C7E8E13F0029F7D17B
:1029C0000CBF4FF0010A4FF0000A3FF4A2AE49F6E7
:1029D000A6375DE64FF0FF324FF0FF3375480CF03D
:1029E000D1FBD4E8EF3F012B03D1C4E8E25F002A1A
:1029F000F7D10CBF012200223FF4ABAED6E8EF3F87
:102A0000012B03D1C6E8E15F0029F7D10CBF0125F6
:102A1000002540F0CD80043ED6E8AF3F154616466F
:102A20000135132D1E4493D9142196FBF1F1624A0E
:102A3000C1F10403534340F24B1293FBF2F341F212
:102A40009C7203F6CE3090427FF6A2AE5B4812F045
:102A5000E1FA00215A4811F093FF5A4811F090FF13
:102A60004FF0FF334FF0FF3252480CF08BFB002346
:102A7000D4E8EF2F012A03D1C4E8E13F0029F7D1C0
:102A800008BF01233FF418AEDFF83CB1DBE8EF2FBD
:102A9000012A03D1CBE8E13F0029F7D10CBF4FF069
:102AA000010A4FF0000A3FF43EAF4FF0FF324FF003
:102AB000FF3340480CF066FBD4E8EF3F012B03D115
:102AC000C4E8E2AF002AF7D10CBF012300233FF492
:102AD000F3ADDBE8EF2F012A03D1CBE8E13F00297A
:102AE000F7D10CBF4FF0010A4FF0000A3FF41BAFC3
:102AF000CEE54FF0FF324FF0FF332E480CF042FB93
:102B0000D4E8EF3F012B03D1C4E8E2BF002AF7D19C
:102B10000CBF012300233FF4CFADDAE8EF2F012AE9
:102B200003D1CAE8E13F0029F7D13FF464AE4FF08A
:102B3000020AADE54FF0FF324FF0FF331D480CF0B5
:102B400021FBD4E8EF3F012B03D1C4E8E2BF002A08
:102B5000F7D10CBF012300233FF4AEADDAE8EF2F2D
:102B6000012A03D1CAE8E13F0029F7D13FF496AE2C
:102B70004FF0030A8CE54FF0FF324FF0FF330D4862
:102B80000CF000FBD4E8EF3F012B03D1C4E8E2AF27
:102B9000002AF7D10CBF012300233FF48DADDBE801
:102BA000EF2F012A9DD1CBE8E13F002999D0F6E72C
:102BB0002E46CDE65C06002078ECFFFF6CB00100ED
:102BC00080320020843200209032002010B588B07E
:102BD00000220023CDE9062300230122094CCDE980
:102BE0000323CDE9013300934FF480622046064B66
:102BF00006490CF079FD2046054908B0BDE81040B3
:102C00000CF0FCBCE00C002065260000D080002009
:102C100022B1010038B50D46094C0146204611F09D
:102C2000AFFE2946201D11F0ABFE012104F1080082
:102C300011F0A6FEBDE8384002480CF069BA00BFAA
:102C4000883200205C06002008B50121034811F0FD
:102C500097FEBDE8084002480CF05ABA2C0200204A
:102C60005C060020004870472C0600202DE9F74F35
:102C70000546DDE90CA60068009340F3CF34092C2B
:102C8000DCBFC0F3842320338846D5F830900E99FA
:102C9000D4BFA3404FF4F8434FEAD17BCAF30E07E9
:102CA000D8BF1BB2B9F1000F08D003EB6303B7EB39
:102CB000630FCCBF4FF001094FF00009A2EB0803EE
:102CC00008EB63131BB2B3F5A05FA8BF4FF4A0538A
:102CD000B3F5087FB8BF4FF408734242AB8003EBF3
:102CE000A21303442B60B5F91C30B9F1000F5ED07C
:102CF0000024C5E90344C5E905440A2205F1200181
:102D000005F12200019315F0D4FB019B002F40F048
:102D1000BB80BAF1000F794AA8BF2022002E2A8476
:102D2000B5F92C2000F0D38040F3C080B6FA86F1CC
:102D3000C1F1200189B2B6010E4106EB811636B20F
:102D4000EA85AE85B9F1000F40F0C58014F5385F13
:102D5000ACBF00240124B5F90610EB83BDF90030A7
:102D6000B5F908005B1A01EB6311009B09B243F34C
:102D70000D03C0EB830300EBE31000B2A5F81CB019
:102D80002C63E9802881B9F1000F40F0B480B8F5D8
:102D9000C06FB5F90A206B8980F29F80C2F500727E
:102DA00003EB22131BB26B8103B0BDE8F08FB5F9C2
:102DB0000E40B5F80CC095F90D20A4EBE414ACEB73
:102DC0000202B5F90C00A4B292B239BB24B2A0B28F
:102DD000C0F5705109B212B2C1F1000C6245EC812C
:102DE0004DDAA0F57050A88105F10E0105F11A0029
:102DF000CAF30E0C31F9022FA2EB222292B20A8002
:102E0000BCF1000F07D0B1F910E09EEA0A0F54BFE1
:102E10008032803A0A808842ECD16EE79B4504BF3D
:102E2000CCF1000C0FFA8CF010F5005F13DCA4F568
:102E30008074B5F91E1024B2594513D014F53E5FC5
:102E400018DDB4F5425F17DA803C24B29B450CBF15
:102E5000C032C03ABBE7B0F5005FACBFFF3404EB53
:102E60006014E6E714F5425F04DDB4F53E5F03DA73
:102E70008034EAE7224CE9E74FF44054E6E7914218
:102E8000A8BF1146A981AFE7B7FA87F0C0F12000CB
:102E900080B28101BA0189B20241BAF1000F92B247
:102EA000B8BFA1F580610A4412B237E716F5004FAA
:102EB0000FD07642B6B2B6FA86F1C1F1200189B2DE
:102EC000B6010E4106EB8116A6F5806637E720268F
:102ED00036E70A4E34E700243DE7002C7FF45EAF6E
:102EE000C0EB81010029B8BF4942B1EBE00FBFF64A
:102EF00055AF524254E74FF4807354E720FCFFFF74
:102F000000D0FFFF2DE9F04385B08946064611F059
:102F1000A8FD0746304611F0BDFD00EB070830461E
:102F200011F035FD48F34E081FFA89F91FFA88F8A9
:102F3000A9EB080424B2002CB8BFA8EB0909054688
:102F40002046B8BF0FFA89F4621014BFB2FA82F2B9
:102F50004FF0FF324FEAC4134FF0000418BFC2F124
:102F60001F02013292B21341A910C1EBC21203F049
:102F70007F0313441D4A1BB252F8041B8B4205DB2E
:102F80000134072CF8D1002804DA01E0002828DAFF
:102F9000C4F10F0424B2164B2A4653F8241004F04F
:102FA000080011F00DFD0028B6BFC0F30D0308EBBB
:102FB0000003A8EB03031BB2C8EB67021A4412B26A
:102FC000CDE901320B4B0C4A00902946304653F8AC
:102FD000243052F82420FFF749FEE0B205B0BDE8E6
:102FE000F083002CD6D10F24D5E700BF289601002E
:102FF000C496010044960100849601002DE9F04337
:1030000085B08946054611F02CFD8046284611F012
:1030100041FD0446284611F0BAFC174B09F00F0792
:1030200053F827100646024609F0080011F0C8FCC4
:1030300004EB0803002843F34E03B8BFC0F30D04AC
:103040009BB2ACBF1C181C1B24B2C3EB6803234407
:103050001BB2CDE90143094A094B0090314628468D
:1030600053F8273052F82720FFF700FEA00000B2E7
:1030700005B0BDE8F08300BFC4960100849601004E
:10308000449601002DE9F04F91B0009302F0040343
:103090000293C2F3C2030133840705460E46DDF8EE
:1030A00068800392059340F0BB81041D30B107296D
:1030B00009D86FF01B0011B0BDE8F08F01F00706D2
:1030C0003444C6F10806009B4FF000094FF0040A93
:1030D000591E4FF0FF334F460193CB465346CDF870
:1030E00010900DB1009820600598002800F3E8804A
:1030F0009848009A824203D397488242C0F0E08009
:10310000039AA4EB050E92074FEA9E0000F103819B
:103110000F2F00F2B180002D00F0058107F1400271
:103120000DEB020C019A0CF8200C0CF8102C0498F2
:1031300001300490E7E07A285DD84B280ED8472864
:1031400059D829282DD8252852D054D820287AD0CB
:103150002338D0F1000B4BEB000B74E04C382E28D9
:1031600049D8DFE800F0704848484848484848488F
:1031700048484B484848484848484859484B4B59A4
:103180005959704B6D487048184B184848827F4B0E
:1031900048484B487F0000204FF0000B4FF0040AD6
:1031A00038E001222A38C0B202FA00F010EA0E0F0D
:1031B00049D110F0625C2FD110EA020B43D0604677
:1031C000013C5444B4FBFAF40AFB04F4002D61D032
:1031D000A3EB050CA444B4453FF66BAF002868D1BF
:1031E000042B47D158F8043B2360042304342AE01D
:1031F000019A013A01924FF0000B24E011F8010C02
:103200006C2834D1002011F8023C83466C2BC5D1C8
:103210004FF0080A5346D3E708F1070828F00708DB
:10322000073424F00704F8E802AB35B106982044CF
:10323000B0423FF63EAFC4E900AB4FF0000B08349C
:103240004FF0080A534611F8010F002878D0BBF15F
:10325000000F7FF470AF2528F5D14FF0010B019BD3
:10326000013301934FF0040AECE7584694E700203D
:103270008346A5E7082B02D06FF015001BE708F185
:10328000070828F00708B8EC027B84ED007B0823D0
:103290000834D8E768B9042B02D108F10408A4E780
:1032A000082BE9D108F1070828F0070808F10808F9
:1032B000EDE705980138059058F8040B009010E7E9
:1032C000039A900720D54FF0010CA4EB050E4FEAAE
:1032D0009E00BEF5007FCFD20F2FCDD8F5B107F1FC
:1032E00040020DEB020E019AC0B20EF8200C0EF84F
:1032F000102CBCF1000F3FF41AAF60F07F000EF805
:10330000200C09F101090137C5F108024FF6DA7EF8
:103310000434069297E74FF0000CDAE7BCF1000F97
:1033200001D00136EFE7029A0236002AEBD100986D
:10333000CDE90631FCF73AFFDDE906310644E2E764
:10334000631BB3F5806F97D245B9A6F10804E01866
:10335000B1E600BF048901005CDD0100029A9B0810
:1033600028602B709DF81030C2B1EB7085F8029088
:10337000B9F1000F05D0002208A8C5F1010C974251
:103380000ED14FF0000AC5F101030DF120080193A1
:103390000DF1300B574512D1601B8CE66B70E5E7E1
:1033A00010F8013B190608D50CEB040EB64503F0E6
:1033B0007F033FF67EAE04F8013B0132DFE7B9F14F
:1033C000000F03D098F90020002A17DB029BD3B12D
:1033D0001AF80B2004F8012B0022019B1819104445
:1033E000B0423FF666AE98F80000009904F8010B71
:1033F0002046039215F050F8039A14440AF1010A8A
:1034000008F10108C6E798F8002055F8223000932B
:10341000029B009845F82230FCF7C8FE421CDCE70E
:103420006FF00D0047E600BF2DE9F04F97B000AFF9
:10343000D7F880B03B62CBF3C0030446894690F8CE
:1034400002A0FA62BB6141B9457800780AEB8000BE
:1034500020444D4517D8A0EB0409E378FB61BAF18D
:10346000000F02D01BF0010F16D1FB6953BBFB6AA2
:103470001BB1494620463A6A98474D4628465C3774
:10348000BD46BDE8F08F461C3046FCF78FFE01308C
:10349000304409F10109DCE7626823787A62FA6A4C
:1034A0009900796104EB8301002A40F001810E4606
:1034B0004FF000084D4601EB0A094E454CD101EB97
:1034C0000A0610E01BF0020FD1D023789A007A612F
:1034D000626804EB83017A62FA6A002A77D14D466A
:1034E000904601EB0A061BF0050F0CBF02230123D7
:1034F000FB62FB6906EB430A0BF00203BB62564515
:10350000BCD016F8021B16F8013C54F82390994BD6
:10351000994502D3984B994536D3BB69002B40D0CF
:10352000786A11F04EFD00283BD0E9468AB06A4621
:10353000924B53617B6AC2E906314FF400731384E6
:103540008F4B42F8103F00234FF412518D4801F089
:10355000B7F8023DCD46D2E716F8013BF96254F8C0
:103560002300FCF723FED7F88430F96A01304BB111
:10357000D7F8883098453EBFD7F8843023F8180034
:1035800008F10108054498E7BB6923B1786A11F096
:1035900018FD0028C9D11BF0010F05D1FB6AED1AF7
:1035A000ADE7BB6A002BAAD04846FCF7FFFDD7F871
:1035B000843053B1D7F8883098453FBFD7F884207E
:1035C000431C22F8183008F10108054497E7BAF1C6
:1035D000000F73D01BF0040673D0D046002607F10D
:1035E000480052463B61B96214F056FFB96A3B6924
:1035F00001EB0A02BA62FA69F9695200FA60BA6A22
:1036000002EB41023A610BF00202BA603A69B96A10
:103610008A4258D162781BF0020F18BF00217A62EB
:1036200008BF4FEA5801B2181BF0010FD2B240F0A8
:103630009F801BF0040F14BF40460020BB616270E6
:10364000A070E17020463A6A7969FB6A9847051EC6
:10365000FFF614AFBB69414623707B6A3A6A637018
:10366000FB6984F802A0E37007F14800FB6A984701
:10367000B0F10008C0F2BA807B69A9EB0A01C91A4F
:10368000FB683A6AC91AD7E90A0398470028C0F2CA
:10369000AF804FF0000BA84408EB000507F1380A93
:1036A000B34571D300213A6A0846FB6A9847E5E6BC
:1036B00056464FF0000807F1380092E75646D046CC
:1036C00096E7B04694E7BA6A12F8021B12F8015C5A
:1036D000BA6254F82500274A904202D3264A904203
:1036E0001ED3BA6932B1786A7B6011F06AFC7B68DC
:1036F00000288BD1BA6802BB08F1280207F1300C10
:1037000008F10100944407F1580208F1020852FA46
:1037100080F00CF8101C5FFA88F800F8105C75E770
:10372000BA693AB1786A7B6011F04BFC7B6800287B
:103730007FF46CAF1BF0010F09D006F1280207F1EE
:103740003000711C161806F8205CCEB25EE71BF044
:10375000040F3FF45BAF08F1280207F1300008F1D5
:10376000010102EB000808F8105C5FFA81F84DE7F0
:10377000002063E7048901005CDD01002BB101003A
:1037800004000001748E01001BF80A3054F82390E5
:1037900087F83730D7F884302BB3D7F888309B457B
:1037A00021D2D7F8843033F81B8001213A6AFB6AB2
:1037B00007F13700984700281ADB0544B8F1000FDD
:1037C00006D14846FCF7F2FC00F101081FFA88F820
:1037D000414648463A6AFB6A9847002808DB054498
:1037E0000BF1010B5CE74FF00008DEE7454645E6CC
:1037F000054643E6014B1860704700BF30020020C9
:1038000080B505460E46174698460CF033FA034637
:1038100015F06EF80446DFF81890424649F800307B
:1038200039463046A84754F8090002F0B3F900BF02
:10383000080000002DE9F047058B04462807904654
:1038400011D4022905F0070540F0CC80204611F084
:1038500066FE78B10138218B042811D8DFE800F02A
:10386000C2106D85950001290CBF45F0100545F08B
:103870002005258388F31188BFF36F8FBDE8F0879B
:1038800001F0070AAA4500F0A5800027B9463E4688
:10389000A368002B00F0BC8041F00801218388F36D
:1038A0001188BFF36F8FA168002900F0BA800D68FE
:1038B000002900F0B680334652462046D1F80480F5
:1038C000C047002D76D02B6829461D46F0E701F051
:1038D00007035A1F012A1BD8002221F00701062BDB
:1038E000276889B2C4E9002209D13B4603E0628B14
:1038F000013262831B68002BF9D141F0020120469E
:10390000218311F00CFE00287AD041F0200176E0EE
:10391000042B0AD121F0070189B22046218311F03E
:10392000FEFD10B141F020012183218B01F0070A37
:10393000AA454FD00027B946AAE7236921F007011D
:1039400041F00601062DD3F8009021832DD1B9F165
:10395000000F3FD041F00801218388F31188BFF3A5
:103960006F8F20463949C84729E021F007012369B4
:1039700041F0040189B2042DD3F804902183E6D0EC
:1039800000274FF0040A3E4682E721F00701236931
:1039900041F0050189B2052DD3F808902183D6D0D6
:1039A00000274FF0050A3E4672E700274FF0060A4F
:1039B0003E466DE72B4687E7B9F1000FD1D1EFF313
:1039C0001188202383F31288BFF36F8F238B23F09A
:1039D00008032383258BEA062ED525F010032383C5
:1039E00005F007056669218B002EBFF670AF002336
:1039F0002768C4E9003321F0070141F00101218368
:103A0000218B4FF0000901F0070AAA457FF440AF6F
:103A1000002F9CD041F00801218388F31188BFF367
:103A20006F8F002FC8D03D68394633465246204636
:103A300011F0A1FD2F46F4E7AB067FF51BAF25F093
:103A40002003238305F0070500E700BFA35501000D
:103A500010B530B90B480C4911F06DFE6FF0150030
:103A600010BD836833B90748084911F064FE6FF050
:103A70000400F5E71B6813B1BDE81040184718466D
:103A8000EEE700BF8C8E0100DFB10100F0B1010054
:103A900010B530B90B480C4911F04DFE6FF0150010
:103AA00010BD836833B90748084911F044FE6FF030
:103AB0000400F5E75B6813B1BDE8104018471846ED
:103AC000EEE700BF8C8E0100DFB10100F0B1010014
:103AD00070B508B101B132B90B480C4911F02BFE99
:103AE0006FF0150070BD84680CB1E56835B9064803
:103AF000074911F020FE6FF00400F3E741F8040BD2
:103B0000E368BDE8704018478C8E01000EB20100DA
:103B1000F0B1010010B5044630B91048104911F059
:103B20000AFE6FF0150010BD006830B90B480D4952
:103B300011F001FE6FF00100F5E783680BB11B691E
:103B400033B90648084911F0F6FD6FF00400EAE7C2
:103B5000616898470028E6D12060E4E78C8E010078
:103B60003AB201004BB20100F0B1010070B513464A
:103B7000044630B91048114911F0DDFD6FF0150011
:103B800070BD006830B90C480D4911F0D4FD6FF0DC
:103B90000100F5E782680AB1956835B90648094918
:103BA00011F0C9FD6FF00400EAE70A46AC4661680F
:103BB000BDE87040604700BF8C8E01003AB2010042
:103BC0004BB20100F0B10100034A13680BB952680F
:103BD00013600020704700BF3402002030B50C464F
:103BE0000E4985B00291D0F8D4110546CDE90031D7
:103BF00000F1F0014FF0FF3320460AF047FC50B9C6
:103C0000012384F86C30D5F8D03123B1204605B0BB
:103C1000BDE83040184705B030BD00BF2F58010047
:103C200038B50C461146054611F003FE034638B977
:103C30002846044911F0FDFD03460020236038BDED
:103C40000120FBE73FDC01002DE9F04F0123814615
:103C5000056946688FB005F57B77D7E8EF2F002A16
:103C600003D1C7E8E13F0029F7D10CBF1A46002273
:103C700040F0BB80B368B16A05F5F8781C1F1046A8
:103C800011F05EFE844279D8013A00F0A880B2FAC1
:103C900082F24FF00044D44072682046073222F08E
:103CA0000302C5F83C22B16A11F04AFEC5F8400291
:103CB000B36A40466343033323F0030302EB43023A
:103CC000230103EB4403093323F0030303EBC40391
:103CD000C5F834221A440832C5F830227368C5F892
:103CE0003842C5F82C32424BC5E9AD63316800F06B
:103CF000F1F9044600283FD1D9F810B0D9F804A052
:103D0000D9F800300BF53479059004934846DAE988
:103D10000734012B08BF103C14F026F9DAF8240010
:103D2000344904AB009301EB8021234648464FF40D
:103D300080620BF0E7FB2021DAF824302E4A06A837
:103D40000FF0B8FB06A948460BF058FC2B490BF5C1
:103D5000307014F0C2F8DAE9050183685C684CB190
:103D60005B46274AA047044630B9DAE90501836873
:103D70001B692BB96FF05704002129E001327EE75F
:103D80000122984704460028F6D11E4B2846C5F864
:103D9000D0311D4BC5F8D4311C4B0393D5F84032BC
:103DA0000293D5F83C32CDE9008305F51173B26A70
:103DB000D5F8E81300F056F904460028DCD105F1E7
:103DC000F0000AF009FC0028C5F8F0030ADB022124
:103DD000384611F062FD20460FB0BDE8F08F6FF05D
:103DE0000B04C9E76FF01504C6E76FF07704F2E73C
:103DF00085580100D084002070B201006B5801008A
:103E00005F580100113E0000175A0100CB58010015
:103E100013B5044640B100230122CDE90032074B1F
:103E2000D0E909120AF006FB236F1B6823B1606F0B
:103E300002B0BDE81040184702B010BD3FDC0100E1
:103E400013B504460846216901F57B71D1E8AF1F1F
:103E5000022910D193B1A0B10121CDE9003113465F
:103E6000D0E909120AF0E6FA074B984208BF6FF052
:103E70000B0002B010BD6FF00F00FAE76FF04C00BE
:103E8000F7E76FF00100F4E72EF8FFFF2DE9F347A5
:103E900089461546066906F57B73D3E8AF3F022BCA
:103EA00064D1136823B96FF0150002B0BDE8F08744
:103EB0001B78002BF7D0D6F8E8A3BAF1000F36D163
:103EC00006F5EC774FF0FF324FF0FF3338460BF03A
:103ED00025F830462A6801A9FFF7A2FE019C80461A
:103EE0001CB9384611F0D7FCDDE705F1080323675C
:103EF000AB6984F86CA06367646460B1384611F004
:103F0000CAFC21463046A36E2A68FFF767FE0020F0
:103F1000C9F80040C9E71F22296804F1480014F0DD
:103F20000CFB384684F8678011F0B5FCEFE73046AB
:103F3000104911F07EFC04460028B4D0002705F19A
:103F400008030367AB6980F86C70436740641F2205
:103F50002968483014F0F1FA22460121304684F8ED
:103F6000677000F061F80028D1D09CE76FF00F0077
:103F70009BE700BF3FDC010010B50C46006900F56F
:103F80007B73D3E8AF3F022B0FD189B10A4900F50B
:103F9000307013F0CEFF204613F097FA78220021FC
:103FA000204614F0A0FA002010BD6FF00F00FBE7D0
:103FB0006FF00100F8E700BF943200202DE9F04FC8
:103FC00005460E4690460027D0F8C4A085B0AAF555
:103FD000BE7421463046FCF7D7F8E0B9114BA4F186
:103FE000480B0293DAF810303246CDE900832946B7
:103FF0004FF0FF335846AAF5E2790AF047FA60B964
:104000007823012203FB079383F86C20DAF80C3045
:104010000BB158469847783417B105B0BDE8F08F1A
:104020000127D6E7455A01001FB5144690B18AB161
:10403000012912D10A4B00F1F0010293D0F8D431DA
:10404000483201934FF0FF33204600930AF01EFAE6
:1040500004B010BD6FF01500FAE70020F8E700BFCC
:10406000455A01002DE9F04387B00E46DDE90E8187
:104070001446DDE910251F4630B329B3DFF850C0E0
:1040800000F1F009002D08BF65469EB9CDE9034453
:1040900000F5E2742046059613F0AFFC03ABCDE9C2
:1040A00000432A463B46414648460AF00DFB07B00E
:1040B000BDE8F083002241460E9248462A4607B0EA
:1040C000BDE8F0430AF050BC6FF01500EFE700BF09
:1040D000BD3F0000F0B504462B4A87B004AB0E4646
:1040E00092E8030083E80300002C49D018460AF048
:1040F000A7F80546B0B94FF0FF33E16C04F154075F
:10410000A163CDE9010000933846236D04F1380224
:1041100012F08BFEA06C11F0C4FCC4F8BC0020B9F6
:104120006FF00B05284607B0F0BDA06C11F0B9FC8C
:10413000C4F8C0000028F3D0236CD4F8BC10C4F835
:1041400090300423C4F89430C4F8AC300223E36206
:104150000E4BB4F84820C4F88C10616C236204F153
:104160008C03C4F8A070A4F89820C4F8B870C4F800
:10417000A810A4F8B020C4F8A400A6612363D1E776
:104180006FF01505CEE700BF508F0100309701009A
:104190002DE9F047044607464FF00109DFF850804B
:1041A00014B93846BDE8F08794FAA4F5B5FA85F558
:1041B00009FA05F32E0108EB05156FEA030A24EA54
:1041C00003042B7B002BEBD058F806301B694BB94E
:1041D0004644736804222846196807EA0A0711F062
:1041E000C8FCDDE7284698470028D9D1F0E700BF92
:1041F000F48E010030B5002289B00F490F4814F049
:1042000055F8002200230024CDE906230E230C4D8F
:10421000CDE903344FF440722846CDE90144094BFF
:10422000094900940BF060FA084928460BF0E6F9BA
:10423000204609B030BD00BF51420000D02200200E
:10424000D011002065450000D08800207CB201001C
:1042500001480AF05DBF00BF740600202DE9F04759
:10426000804621480F4611F068FC0646002833D0EE
:1042700000252846BDE8F087237B83B12368DB68EF
:104280000BB120469847636883F8069023681B6942
:10429000D3B9636804222046196811F06AFC01361C
:1042A00010345445E8D3B8F1000FE2D0002DDFD030
:1042B0002846FFF76DFF0546002FF7D000214FF489
:1042C000A47013F01FFFF1E7204698470028E0D0C4
:1042D00009FA06F31D43E2E705464FF00109034CD6
:1042E000DFF80CA0DDE700BFCC320020F48E010027
:1042F000048F0100014B53F82000704770970100B4
:1043000008B5034608462BB1044A136000F070FC60
:10431000002008BD6FF01500FBE700BF6002002021
:1043200010B5044C237813B903480AF0F1FE0123B9
:10433000237010BD624E00207406002010B50446A4
:10434000094811F0FAFB3CB1084BD3E8EF1F0139E3
:10435000C3E8E21F002AF8D1054813F0B3FFBDE817
:10436000104004480AF0D4BEC4320020C8320020F5
:10437000D02200207406002000200146034BD3E821
:10438000EF0FC3E8E21F002AF9D17047C4320020C2
:1043900070B5FFF7F1FF0546074C084EB44200D355
:1043A00070BD63685B792BB123685B6813B12946E4
:1043B000204698471034F1E7F48E0100048F010085
:1043C00010B5044C0449204610F042FF034B1C601A
:1043D00010BD00BF2C0500205C970100BC320020FE
:1043E00000230D4A10B513700C4A4FF400411360BE
:1043F0000B4A0C481360FFF783FFFFF7E1FF0A4BFE
:104400000A4918468B4200D310BD1A1A5C68121173
:10441000013222711033F5E7634E0020C4320020D0
:10442000C8320020375B0100F48E0100048F0100C8
:10443000014600220023014810F02BBF2C0500206C
:10444000014810F0C4BF00BF2C050020024B0146FC
:10445000186811F010B800BFBC320020014811F0FC
:1044600045B800BF2C05002070B5274B18780028F0
:1044700049D0FFF7E5FF0546002841D1234B244CE6
:104480001B68002B19DD13F0CAFE4FF47A72A0FBF3
:10449000020302FB0131C30B43EA4143D4E900208C
:1044A0009B1A40F2E9324FEAD13161EB00019342AD
:1044B00071F1000101D3FFF76BFFD4E9003213F56E
:1044C0007A7342F10002C4E90032BDE87040FFF7A0
:1044D000C5BF63685B7923B12368294620461B6802
:1044E00098471034B442F4D32846FFF7AFFF094B86
:1044F000D3E8EF1F0139C3E8E21F002ABED0F7E777
:10450000054C064EEEE770BD624E0020C43200201E
:10451000C8220020C8320020F48E0100048F010060
:1045200070B50D4D297861B90120FFF797FE0B4C4E
:104530000B4EB44206D3FFF797FF0028FBD10123AF
:104540002B7070BD63685B791BB1236820469B6844
:1045500098471034EDE700BF634E0020F48E010051
:10456000048F010000212DE9F0470846FFF776FE91
:10457000044658B340F267684FF0000914F0B8F9E8
:104580001B4B1C4A1B58136033B11B4B1B68092B78
:1045900002DD1A480AF0BCFD0025194FDFF85CA0C7
:1045A00044B12046FFF7F4FD044618B94FF0FF3838
:1045B0004FF0FF39FFF758FF064628B9B5B9424614
:1045C0004B4650460AF0DEFD3546E9E74FF0FF382E
:1045D0004FF0FF39D2E72B689B691BB100222846B8
:1045E000114698471035BD42F5D3E8E7054DFAE787
:1045F00008000000C0320020C832002074060020ED
:10460000048F0100F48E010013B5184811F095FADB
:10461000174B1B7873B1EFF31184202383F31288B7
:10462000BFF36F8FFFF720FF84F31188BFF36F8F05
:1046300002B010BD0F4B1B68002BF9D050B90022FF
:1046400000230D48CDE900234FF4004200230BF076
:104650002BFEEDE70928EBD1074813F033FE07489E
:1046600002B0BDE810400AF053BD00BFC8320020C0
:10467000634E0020C0320020D022002074060020AB
:1046800010B5064B04461B6898472146A0600448B5
:1046900010F07EFEBDE81040FFF7B6BF60020020BC
:1046A0002C050020044A054B9B1AB1EBD30F34BFF5
:1046B00052F8310000207047148E0100F48E010082
:1046C0002DE9F04F8FB0C1F34A2804AF0D46914653
:1046D000B8607B600C0DB8F1000F63D000264FF07E
:1046E000040B4FF00A0A07F11403C7F80C80C7E95E
:1046F00007667E620193CDF808B0CDF800A007F1FF
:104700001C0332464846F968FEF78EFEB0F5006F8E
:1047100003461CD36C468AB0D9F8041004AB264873
:104720001A46C3E9050140F2FF71D9614FF40071E7
:104730001984224B42F8103F4FF41251334620485F
:10474000FFF7BEFFA5462C37BD46BDE8F08FC0F38E
:104750000A0804F11700184420F0070080083B60A5
:10476000FFF766FE68F35325044690B13B6800F1FD
:104770001001C7E9083607F11403F961CDE900A378
:10478000CDF808B048460F4AF96807F11C03FEF758
:104790004BFE68F353252A4620467B68B96811F022
:1047A00007FAD0E704F1170020F007008008FFF7B0
:1047B0003FFE0446EDE700BF91B201000400000196
:1047C000948E0100855B01002DE9F04F87B004460F
:1047D000DDE9105ADDE91279934698460391BFB19D
:1047E0003B46524610210020CDF80090CDF81490A1
:1047F000FEF748FCB0F5006F06460AD340F2FF739F
:104800000221174A174807B0BDE8F04F11F029BA46
:104810003E4605F11700304420F007008008FFF7FE
:1048200007FE04F007040BF0070BE40044EA8B14C6
:1048300044EA462444EA0554054640B13FB13B46AC
:1048400052463146CDF800901030FEF71BFC43462F
:1048500022462846039907B0BDE8F04F11F0A8B9E9
:10486000D0B20100948E0100406820B1034BC01A01
:1048700040F3CF0070474FF0FF307047148E0100B7
:104880000EB403B503AB53F8042B0146044801935F
:1048900001F018FD02B05DF804EB03B0704700BFF3
:1048A000C55C0100CA0605D48B064CBF024903490A
:1048B000FFF7E6BF704700BF3EDC01003DDC0100B2
:1048C0002DE9F04F8BB09B46169B9DF854A00693A4
:1048D000179B04460593189B0D469046199E04931A
:1048E000BAF1000F00F09E8006F00103089306F075
:1048F0000803079306F48073099311F038F906F062
:104900000209024600283BD020468F49FFF7B8FF36
:104910000746B9F1000F08D016F0440F32D12A46ED
:1049200020468A49FFF7ACFF0744089B53B1884BE8
:10493000204653F82A20874B8749002A08BF1A4689
:10494000FFF79EFF099B002B48D0079B002B62D1ED
:10495000B8F1000F64D0424620468049FFF790FF2F
:104960000546069B3D44002B6BD1049B002B71D167
:10497000F30700F1E28031462046FFF793FFD6E0CF
:104980000746C6E7764B18680028CDD0754B4FF424
:104990007A791B684FF03C0CB5FBF3F5B5FBF0F1F1
:1049A0004FF4616300FB115509FB05F5B1FBF3F210
:1049B000B5FBF0FE03FB121100FB1E55B1FBFCF32F
:1049C00009FB05F5B5FBF0F50CFB13112046009132
:1049D000CDE901E56449FFF753FFA5E7079BEBB17C
:1049E000624B204653F82A206149FFF749FF0546EC
:1049F000B8F1000F05D0424620465849FFF740FF66
:104A00000544BBF1000FACD05A4620465949FFF788
:104A100037FF0544A5E74FF0000BE1E7079DE7E707
:104A200045469EE7BBF1010F069B06D1002B64D1E2
:104A3000049B002B7BD000250CE0002BF8D04E48C7
:104A40005CE04E48069B22464D4910F089FA049BD3
:104A5000002B68D0DFF83881DFF83891049F3146A9
:104A6000102F204628BF10274FF0000BFFF71AFF2A
:104A70005D4545DC059B494620461A78FFF700FF57
:104A80004FF0010B1BF0070F03D141462046FFF703
:104A9000F7FE5F453BD9059B4946204613F80B209E
:104AA000FFF7EEFE0BF1010BBBF1100FEAD14FF057
:104AB000000B20463349FFF7E3FE5A46059B20468C
:104AC0009A5CA2F120015F2928BF2E222E49FFF710
:104AD000D7FE0BF1010BBBF1100F1DD01BF0070F20
:104AE00003D141462046FFF7CBFE5F455A46E5D845
:104AF00041462046FFF7C4FEEBE720485546A1E7B4
:104B000041462046FFF7BCFE0BF1010BB0E7204603
:104B10001E49FFF7B5FEC5E7059B3B440593049B83
:104B2000DB1B04939AD1BAF1000F7FF421AF20462A
:104B30000BB0BDE8F04F11F0B8B82046054A064961
:104B4000FFF79EFE17E700BF0DB3010011B3010090
:104B50008097010008B3010096BC010036B3010044
:104B6000D4320020D03200201AB301009497010003
:104B70003AB3010040B30100F35C0100C55C0100E1
:104B8000C56200004BB301004DB3010007DC01001A
:104B900009DC010045B3010042F20F7373B58B428B
:104BA00028BF0B4605680446052168460D4A0EF0ED
:104BB00081FC0646636828460B225B680A4911F0AF
:104BC00066F863683246694628465B6811F05FF80C
:104BD00063681B2228465B68044911F058F802B04C
:104BE00070BD00BF2CBA01006CB3010050B30100CE
:104BF00000210123064A904206D8064A01B9012342
:104C00001360054B18607047012140085B00F2E714
:104C100040420F00D0320020D4320020F8B50D46BB
:104C20000446064F4618B44201D12846F8BD14F890
:104C3000011BBB6801485B689847F4E7748A010070
:104C4000014B036000207047DC97010008B5044861
:104C500010F0E0F9BDE80840024810F0DBB900BFF1
:104C6000B2B30100E7B3010001480BF0FDBE00BF85
:104C7000DC97010038B5044618B90F4B0F485B6844
:104C800098476168B1F5683F10D0B1F5680F0DD055
:104C90000B4DA9420AD011F46861206807D0014683
:104CA000084812F063FF00232360656038BD1422BA
:104CB00013F019FCF9E700BFA404002015B40100AB
:104CC0002C5F5CA90438002008B560B34368B3F5D5
:104CD000683F0ED0B3F5680F18D0144A934220D025
:104CE00000684FF0FF324FF0FF330AF017F958B168
:104CF00015E001220368D3E8EF1F002903D1C3E8C0
:104D0000E02F0028F7D10AD1002008BD0368084A27
:104D10001B7803F5807352F82330002BF4D005483C
:104D2000F3E70548F1E76FF4E040EEE72C5F5CA99C
:104D300000000350E98FFFFFEA8FFFFF08B520B3A3
:104D40004368B3F5683F09D0B3F5680F13D0114A33
:104D500093421DD000680AF059F914E0002203685C
:104D6000D3E8EF1F012903D1C3E8E02F0028F7D1D2
:104D700009D0094808BD00210368084A1B7803F5DB
:104D8000807342F823100020F4E76FF4E040F1E76D
:104D90000348EFE72C5F5CA9E98FFFFF0000035099
:104DA000EA8FFFFF10B5044618B91D4B1D485B681C
:104DB00098476368B3F5683F2FD0B3F5680F2CD0E0
:104DC000194A934219D1236803BB4FF0FF324FF0C9
:104DD000FF332146154809F0AFFF08B923681BB916
:104DE0000F4B13485B68984714220021206813F08A
:104DF0007AFB4FF46863636008E0B3F5683F0DD851
:104E00003A2B03D040F6BA629342DED1206812F00A
:104E100048FF636843F03A03636010BD054AF3E757
:104E2000A404002015B401002C5F5CA90438002004
:104E30003BB401003A00003A08B506494023142269
:104E4000054812F085FEBDE80840044904480BF00F
:104E5000CFBE00BF0433002004380020E4970100D7
:104E6000F8970100002370B5136086B005930379AD
:104E700005461446032B03D8DFE803F0051A315C1E
:104E8000012006B070BD2D4B09BA049119680023AA
:104E90000422CDE9013300924E69006805AB04A9F4
:104EA000B0470028ECD1059B00201BBA2360E8E73F
:104EB0000B0C8DF811304BBA8268ADF812301F4BD5
:104EC000090E1B680192042261F07F0100921E6AA4
:104ED0008DF8101005AB04A90068B047E1E70B0C92
:104EE0008DF811304BBAADF812300B0E63F07F0322
:104EF0008DF81030114BB1F5405F1B6800681E6AD9
:104F0000AB6801930DD202230422009304A905ABE0
:104F1000B047BDF814305BBA2380003818BF0120B9
:104F2000AFE7042205AB009204A9B047059B1BBA6A
:104F30002360F2E7224610F059FFEEE7F00100206F
:104F400030B50379044685B0032B45D8DFE803F07C
:104F500002152540214B12BA03921A6800230093D0
:104F60009569082209BA029120680DEB0201A84751
:104F7000003818BF012005B030BD12BA174B03929C
:104F8000A2681B6801920422009209BA20685D6A37
:104F9000029103AB02A9A847EAE70BBA02930F4BB1
:104FA000B1F5405F1B6820685D6AA36809D252BAF8
:104FB00001930223ADF80C200422009303AB02A955
:104FC000E9E712BA039204220193009203ABF6E7D9
:104FD000204610F029FFCBE70120CCE7F0010020AC
:104FE000F0B50C4601790546022987B00ED819485C
:104FF00024BAE1B10168A8680594CDE900301346F0
:105000004C6A0422286805A9A0471BE003291ED189
:10501000012023F003031E19171BB44212D02146AE
:1050200028463A5D10F000FF60B90434F5E70068E7
:10503000CDE90111009305941346C4690422286840
:1050400005A9A047003818BF012007B0F0BD012016
:10505000FBE700BFF00100202DE9F84F06460D46A2
:1050600017464FF0000BDFF89080DFF89090DFF8E4
:1050700090A0BB4501D3002016E055F82B1005EB9E
:105080008B0C4145DCF804004FEA8B0211D04945F6
:1050900020D0184B994226D1DCE902320146304635
:1050A00010F0DDFE10B10120BDE8F88F0BF1040B0C
:1050B000DFE702F108042B590C3201469B00304611
:1050C0002A440BF1030BFFF78BFF0028EBD12C597F
:1050D000A344CEE70022DAF800301146DB68984797
:1050E0000BF1020BC5E702463046FFF729FF002807
:1050F000F6D0D8E7010000800200008003000080A5
:10510000F001002070B50D46044608B9012070BDBD
:105110000029FBD000F110060FCD0FC60FCD0FC632
:10512000184B95E8030086E803001B6822469B683D
:105130001549A06998470128E8D001234FF02E7245
:10514000C4E90F32114A0020A2640322C4E91320EB
:105150006266C4F884204FF4E8524FF4E055626769
:1051600004220B49E365C4E91551A4F86C0084F8E6
:105170006E302367A167E267A4F88C0084F88E0084
:105180002360C4E7F0010020895E010074980100EB
:10519000A48001002DE9F3410368044633F00402C2
:1051A00004D10027384602B0BDE8F0814768012FDE
:1051B00021D1022B1DD10025A846184E85632B4610
:1051C000356805F5C03510359D421ED17268019BCA
:1051D0001A4207D0B168A36B20460B43A36329464C
:1051E00010F05EFE08F10108B8F1090F06F10C0697
:1051F000E5D100236360A06B0028D2D0E3690BB136
:10520000216A98470023A363CBE72946204601AAD9
:1052100010F03EFE0028D9D0C4E700BF0898010076
:10522000F0B5022240F60801D5B00446152610F06C
:1052300037FE3A4F00223B681146DB68052098474D
:105240006A4640F60401204610F022FE054600287A
:1052500062D1013E60D0009B9B07EBD5032240F654
:105260000801204610F01CFE082320462C4901AA04
:10527000CDE9015510F02EFE2A4B06AE1F4603F174
:10528000280C324618685968083303C2634516462D
:10529000F7D1282306AA2046234910F01BFE234BF2
:1052A00010AA03F1300C164618685968083303C673
:1052B00063453246F7D118681D493423306010AA7F
:1052C000204610F007FEDC221A491DA813F0E4F86E
:1052D000DC2319491DAA204610F0FCFD174AD7F817
:1052E0003801516803AB03C39068154918600C235B
:1052F00020460DEB030210F0EDFD022240F60801FE
:10530000204610F0CDFD002240F60801204610F0A6
:10531000C7FD284655B0F0BD0125FAE7F001002091
:10532000AC100400BC8F0100A0C80400E48F010091
:10533000D0C804001890010010C90400F4900100C6
:105340008C100400F7B5604D04462B6800211B68E3
:105350000069984700222B681146DB6802209847B5
:105360002B6801215B686069984700222B68114611
:10537000DB68022098472B6801211B682069984749
:105380001526524F00222B681146DB680A209847E9
:1053900039466A46204610F07BFD0146D0B9013EF1
:1053A00018D0009B1B07EDD56A46204610F070FD13
:1053B00080B9009B6A4604212046A36010F068FD76
:1053C00040B9009B10212046E36001AA10F060FD67
:1053D000012802D1012003B0F0BD019B002B55D064
:1053E000082B4ED155223021204610F059FDAA221B
:1053F0003021204610F054FD55223421204610F073
:105400004FFDAA223421204610F04AFD44F668518F
:105410002F4A204610F044FD44F670512D4A204694
:1054200010F03EFD4FF4803242F2AC41204610F0C5
:1054300037FD40F2FF5242F2B441204610F030FDF9
:1054400042F22041244A204610F02AFD40F2154243
:1054500042F22441204610F023FDCC223021204688
:1054600010F01EFD33223021204610F019FDCC2211
:105470003421204610F014FD33223421204610F050
:105480000FFD2046FFF7CCFE0128A3D0D4E90C1273
:1054900004F12400FFF7E0FD00289BD101260F4D09
:1054A000E968002301F5C03120462A6901F58871B9
:1054B00010F0FEFC00288DD10136092E05F10C05F7
:1054C000EED10223236086E7F00100201480010062
:1054D0000000B11DB84902701504150408980100B8
:1054E0002DE9F84F80460C4600AF002965D0D1E980
:1054F0000012E9468AB0A3686D464FF0050A2E46B1
:105500003748C5E90723C5E9050146F810AF002370
:1055100032464FF421513348FFF7D2F8D4E9031251
:10552000CD466369AD463048C5E90723C5E90501A5
:10553000C5F810A0002332464FF421512948FFF747
:10554000BFF8CD46E3690121284A264810F089FBBF
:10555000264600254FF00A0ADFF8A0B0E946D6E952
:1055600008E0D6E90A138EB06A46C2F81CE005F1DD
:10557000010EC2E908E0A81CC2E90A01E91CC2E95F
:1055800005B5C2E90C1342F810AF002345F2400103
:1055900014480435FFF794F8102DCD4606F1100697
:1055A000DCD1236E0121124A0E4810F05AFBA36988
:1055B0000121104A0B4810F054FBB8F1010F07D13C
:1055C000EFF305830C4A41460648103B10F049FBB7
:1055D0002146404609F0EEF9BD46BDE8F88F00BF10
:1055E00068B40100D48E010097B40100C6B4010074
:1055F00018B5010027B5010055B50100D5B401006B
:1056000030BFFFF7FDBF00BF2DE9F04105460B4E4F
:10561000DFF83080324606EB0807CC1B20460849ED
:1056200012F03AFFA01942460021083C12F05BFF3D
:10563000C5F8A84007F10800BDE8F08100000000AF
:10564000488F010004000000054B9A699B689A424C
:105650001FBF044A536843F080535360704700BF34
:105660005C3C002000ED00E070B52A4C06460D467B
:1056700029482A4910F048FCA36ADB0647D526488A
:10568000274910F041FC1120A36A1C0704D52248C9
:10569000244910F039FC12201E4CA36A990712D538
:1056A00021491D4810F030FC636BA26A120609D52F
:1056B00001211E4A184810F0D4FA1EB1A36A23F043
:1056C0008003A3621320134CA36ADE0704D512489B
:1056D000174910F019FC1420A36A9C0604D50E4843
:1056E000144910F011FC15200A4B9A6AD10658BFD4
:1056F0009A6A9A6A920642BF5A6A22F400525A6221
:105700009A6A42F0FF029A6200232B7070BD10204B
:10571000BAE700BF00ED00E0D48E010068B50100DB
:105720007EB50100B1B50100C4B50100DCB50100D2
:10573000F2B5010011B6010010B5244C24492548EA
:1057400010F0E2FBA36A99013ED52248224910F0ED
:10575000DBFB1E20A36ADA0104D51E481F4910F0A6
:10576000D3FB1F20194CA36ADB0204D519481C493E
:1057700010F0CAFB0220A36A1C0304D5154819497E
:1057800010F0C2FB2120114CA36A590304D5114823
:10579000154910F0B9FB2220A36A9A0304D50D48DD
:1057A000124910F0B1FB2320084CA36ADB0304D597
:1057B00008480F4910F0A8FB2420A36A6FEA0343AE
:1057C0006FEA1343A36210BD1D20C3E700ED00E0A4
:1057D00040B60100D48E010058B601006BB601003E
:1057E00085B60100AFB60100CDB60100F2B60100EA
:1057F0000CB7010070B5294C06460D4628482949CA
:1058000010F082FBA36AD9043CD52548264910F044
:105810007BFB1720A36A1A0504D52148234910F001
:1058200073FB18201D4CA36A9B0512D51C48204908
:1058300010F06AFBA36BA26A100409D501211D4A6E
:10584000174810F00EFA1EB1A36A23F40043A362B6
:105850001920124CA36A590504D51148164910F0B5
:1058600053FB1A20A36ADA050ED50D48134910F030
:105870004BFB1B20094A936A43F47F439362002346
:105880002B7070BD1620C5E7A36A9B04F2D50448AF
:105890000B4910F039FB1C20ECE700BF00ED00E0E5
:1058A000D48E010037B701004DB70100B1B501003A
:1058B0005EB7010077B701008CB70100A7B7010000
:1058C00011B601002DE9F0419CB0624B0546D3F8BA
:1058D0000480002600AFC8F3080486F31188BFF3E4
:1058E0006F8F02F07F43B3F17F4F07D102F00C03BB
:1058F000082B12D15849594810F006FB00263546AE
:105900000023FB71E31E092B00F28380DFE803F024
:105910000A797C7581818181817F10074CBF0D469A
:105920000126EDE74E494D4810F0EEFA0023494CB0
:10593000FB71E36A9A0705D54A49484810F0E4FA32
:10594000002431E0E36A002B01DA4749F5E7E36A16
:105950005B00F5D54549414810F0D6FA6369AA695C
:1059600043F480736361BFF34F8FBFF36F8F63693D
:1059700032F8022C23F480736361BFF34F8FBFF3BF
:105980006F8F4DF602739A4207D0A36ADBB23BB326
:105990000120F91DFFF768FE31E02B680121344A30
:1059A0002E4810F05EF92C68FB79ABB968222946C5
:1059B00007F1080012F070FD7B6A002E45D0C3F39A
:1059C000080222B96FEA53236FEA43237B62204621
:1059D00007F10801FFF784FD7037BD46BDE8F0818F
:1059E000A36A13F47F4F04D00120F91DFFF702FFD3
:1059F00005E0A36AB3F5803FA2D3FFF79DFE0446FE
:105A0000D2E70020F91DC5E70020F91DEEE719498E
:105A100093E7194A18F4F87FE8468AB0174B18BF85
:105A200013466A461649103CC2E905134FF4007349
:105A30001384144BD46142F8103F00234FF41151EA
:105A40000648FEF73DFEC5467AE723F4FF7323F0D0
:105A50000103BBE700ED00E0EDB70100D48E0100CB
:105A600018B801002FB8010050B801005EB801005D
:105A70007DB8010099B80100D4B70100BFB701009B
:105A8000BDB8010004000001064B5A6942F0100243
:105A90005A615A6942F480625A615A6922F00802D6
:105AA0005A61704700ED00E0EFF30880EFF30981E1
:105AB00001B57246FFF706FF01BD00BF002080F36D
:105AC0001488BFF36F8F002080F30A8880F30B885F
:105AD000104880F3088800200F49087006F0BCFECB
