:020000040000FA
:10000000F8B90020455C00006DC70200315C0000BB
:10001000315C0000315C0000315C0000315C0000AC
:10002000000000000000000000000000ED5D000086
:10003000315C000000000000495D0000315C000000
:100040000D6000000D6000000D6000000D600000FC
:100050000D6000000D6000000D6000000D600000EC
:100060000D6000000D6000000D6000000D600000DC
:100070000D6000000D6000000D6000000D600000CC
:100080000D6000000D6000000D6000000D600000BC
:100090000D6000000D6000000D6000000D600000AC
:1000A0000D6000000D6000000D6000000D6000009C
:1000B0000D6000000D6000000D6000000D6000008C
:1000C0000D6000000D6000000D6000000D6000007C
:1000D0000D6000000D6000000D6000000D6000006C
:1000E0000D6000000D6000000D6000000D6000005C
:1000F0000D6000000D6000000D6000000D6000004C
:100100000D6000000D6000000D6000000D6000003B
:100110000D6000000D6000000D6000000D6000002B
:100120000D6000000D6000000D6000000D6000001B
:100130000D6000000D6000000D6000000D6000000B
:100140000D6000000D6000000D6000000D600000FB
:100150000D60000053B94AB9002908BF00281CBF30
:100160004FF0FF314FF0FF3000F00CB8ADF1080C4C
:100170006DE904CE00F022F8DDF804E0DDE90223A9
:1001800004B07047704700BF10F8012B11F8013B15
:10019000012A28BF9A42F7D0D01A7047034611F8B7
:1001A000012B03F8012B002AF9D17047034613F8FD
:1001B000012B002AFBD1181A013870472DE9F047AE
:1001C00086468C460846089E154674461946002BFE
:1001D00040F0C1808542B2FA82F245D94AB1C2F1FB
:1001E000200300FA02FC954094402EFA03F343EA00
:1001F0000C0C4FEA154EA8B2230CBCFBFEF80EFB0C
:1002000018CC08FB00F943EA0C43994528D9EB18B0
:1002100008F1FF3704D2994502D9A8F102072B440F
:10022000A3EB0903A4B2B3FBFEFC0EFB1C330CFBD7
:1002300000F044EA0344A04214D92C190CF1FF3316
:1002400004D2A04202D9ACF102032C44241A43EA9E
:1002500007401EB1D440002334607360BDE8F087CE
:100260004746DDE76346F1E792BB431B01214FEAB6
:10027000154EAFB2200CB3FBFEFC0EFB1C330CFB87
:1002800007F840EA0343984561D9EB180CF1FF30B9
:1002900004D2984502D9ACF102002B44A3EB080329
:1002A000A4B2B3FBFEFC0EFB1C330CFB07F744EAC5
:1002B0000344A7424DD92C190CF1FF3304D2A742B5
:1002C00002D9ACF102032C44E41B43EA0040C0E72E
:1002D000C2F120039540944020FA03F12EFA03F373
:1002E0004FEA154E9040AFB20343B1FBFEFC0EFB4C
:1002F0001C10190C0CFB07F841EA0041884522D973
:1003000069180CF1FF3004D2884502D9ACF1020023
:100310002944A1EB08019BB2B1FBFEFC0EFB1C11B2
:100320000CFB07F743EA01439F420ED9EB180CF18F
:10033000FF3104D29F4202D9ACF102012B44DB1BF6
:1003400041EA004193E76046E3E76146F7E760462C
:10035000A4E76346B8E7834206D916B900210846E8
:100360007CE7C6E900E0F9E7B3FA83F78FB9834287
:1003700001D3724508D8BEEB020460EB03030120F1
:100380009C461EB9002169E73846FAE7C6E9004CE9
:10039000F8E7C7F1200CBB400EFA07F522FA0CF47F
:1003A0002EFA0CF1BA401C4320FA0CF3B8404FEA85
:1003B000144901431FFA84FEB3FBF9F809FB183016
:1003C0000B0C08FB0EFA43EA00439A4540D9E318A8
:1003D00008F1FF3004D29A4502D9A8F10200234463
:1003E000A3EB0A0389B2B3FBF9F809FB183308FB46
:1003F0000EFE41EA03418E452CD9611808F1FF3306
:1004000004D28E4502D9A8F10203214443EA0040F8
:10041000A1EB0E01A0FB02984145CE46434602D314
:1004200006D14D4504D20138B9EB020E68EB040346
:10043000002EA7D0B5EB0E0261EB030101FA0CFC14
:1004400022FA07F3F9404CEA0303C6E9003199E7C1
:100450004046C5E74346D9E70023064A52F8041B45
:10046000096829B90133DBB2052BF7D101207047A8
:1004700000207047302D002001482AF02ABE00BF1E
:100480004807002001464FF4A07210B504460E48FC
:100490002EF042FC0D482AF01CFE0D4B1A68511C30
:1004A0001960C823B2FBF3F003FB10225AB9A31E54
:1004B0000E3433F9020FA3420244FAD1BDE81040D2
:1004C00004482BF0DCB910BDB2500020A00600207B
:1004D0002C2D00204A6E030001480FF017B900BF11
:1004E000A82D00201FB501AB07CA83E80700064806
:1004F0002AF0F1FD024618B91846044906F062FBDD
:1005000005B05DF804FB00BFC82D0020E10C000021
:1005100070B50C6892B02378064607AD032B2ED831
:10052000DFE803F00227292B18492846FFF736FE9B
:10053000A379059562781E210492A2780AA80392F5
:10054000E27802922279019262790092104A28F0B0
:100550000FFF304608F0CCFC0AAA01460D482BF0EC
:100560008EF901220C4B0D481A702AF0B2FD12B020
:1005700070BD0B49D9E70B49D7E70B49D5E70A21ED
:1005800028460A4A28F0F4FED2E700BF6F6E030047
:10059000916E0300B46E03004053002060070020FA
:1005A000766E03007D6E0300876E030003A30300D5
:1005B000F7B5054619482AF08EFD84B2A5420F46CC
:1005C000064609D8164800212AF0A0FD154803B0B8
:1005D000BDE8F0402AF09ABD2C1BA4B2042C02D135
:1005E00021460F48F3E700210D482AF08FFD0D4802
:1005F0002AF08CFD01220C4BD3E8EF1F002903D118
:10060000C3E8E02F0028F7D106D12A46394607482B
:100610000094B3B22BF033F903B0F0BD70010020A9
:10062000D82D0020D42D0020D02D0020E46E030012
:10063000F7B54B790F4F052B28BF0523888A3B70F0
:100640000D4D0B690D4E0C460D492B603080FFF7A8
:10065000AFFF0C4B1B683BB93B780B4800933388CA
:100660002A6861792BF00BF9084803B0BDE8F04027
:100670002AF02FBD2705002074010020AE50002075
:100680001A6F0300B82D0020226F030030070020EE
:1006900070B505460A460C46014611482BF0EFF8A6
:1006A000002110482AF032FD0F4B104E1B7856F8EF
:1006B0002330AB4202D10E482AF028FD3368AB420A
:1006C00002D10C482EF03AFA3E2C01D0442C04D131
:1006D0000948BDE870402AF0FCBC0848F9E700BFB3
:1006E000646F0300E02D002026050020302D00203F
:1006F000BC2D0020C80B0020D0060020E8060020FA
:100700002DE9F043474E484F484D8FB030684FF4C5
:10071000A472002302A90EF0A7FC48B10022002316
:1007200038462AF0DDFCF1E7042000212EF026F9FE
:1007300028462AF0D0FC0028F6D13D4B1C78012C2D
:1007400038BF0124013C14F0FF04DFD004210DEB7D
:10075000010006F03FF9019BB3FBF4F204FB1233F6
:10076000344A0133DBB21370334A52F82390B9F1A3
:10077000000FCBD0BDF808301BB930482BF07FF804
:10078000C4E7002200232E482CF076F8044698B9DE
:100790002C482AF0A0FC0028B8D02B4A1368591C1A
:1007A00011603222B3FBF2F002FB1033002BADD10B
:1007B00026482BF064F8A9E725482AF08CFC38B9C4
:1007C00024482AF088FC18B9204605F093FF9DE7DD
:1007D00004F10C0840460D212CF087F8BDF80820E4
:1007E00040460DF10A01DFF874802CF08FF80121EA
:1007F00028462AF08BFCB8F80020214648462CF009
:10080000B2FA021E04DA494613482BF038F8DBE747
:1008100001210C482AF07AFCB8F800300B44A8F803
:10082000003073E7E42D002078070020DC2D002045
:100830002705002026050020302D0020946F03009E
:10084000A8070020BC2D0020282D0020AF6F03003A
:10085000A03100209C310020D86F0300AC50002054
:100860002DE9F0414FF47A752EF015F92F46A0FBD3
:10087000050605FB0166C30B43EA464313F5FA641C
:100880004FEAD636DFF8388046F10006FFF7E4FD80
:1008900008B1BDE8F0812EF0FEF8A0FB070305FBD0
:1008A0000131C30B43EA4143A3424FEAD131B14185
:1008B000EFDA40F6CD42002340462AF011FCE5E78E
:1008C000E806002013B5014604460F482AF0D7FF7A
:1008D0000E4BD3E8EF1F0131C3E8E21F002AF8D125
:1008E0000B482AF0F6FB0B4B1B68A34209D10022F0
:1008F00000230948CDE900234FF4804200230FF084
:10090000DDFD02B010BD00BFFB6F0300C02D002055
:10091000D0060020302D0020C80B00202DE9F04F1C
:100920000024DFF81C82EDB04FF0FF324FF0FF33B0
:1009300010A976480EF098FB75482AF0CCFB0121EF
:10094000064640462AF0CEFBBDF84010002900F0D4
:10095000A780B3B2994228BF19460DF14200B0FA00
:1009600080F35B0902931CAD0DF11E0301934FF45C
:10097000A0720023009504F0FDFC002809DA654A06
:10098000002113682846013313604FF4A0722EF043
:10099000EAF9404600212AF0A5FBBDF84020B0B29C
:1009A000031D9A4229D1831C10AA10A9084413449C
:1009B0005A7886785B8846EA022646EA034631463C
:1009C00055482AF0A3FB554A1368591C116064224C
:1009D000B3FBF2F102FB11337BB908A8014626FAFA
:1009E00003F202F00102013330321E2B00F8012B1A
:1009F000F5D14B488C772AF042FF29460D26002579
:100A0000484A4948494FB2F800C003881FFA8CFC95
:100A10009BB29C454AD31388B0F800C09BB21FFA22
:100A20008CFCA3EB0C030B2B49D941490B68013318
:100A30000B6040490B6803F1010AC1F800A0C8210E
:100A4000B3FBF1F501FB1533002B7FF46DAFB2F86A
:100A500000E0B0F800C0384F2E4E354D1FFA8EFE24
:100A60001FFA8CFCE645D7F800B03368296845D3F7
:100A70001288008892B280B2A2EB0009CDE904315D
:100A800001F0D8FA0599CDE9019000915A465146F6
:100A9000049B2A482AF0F3FE3C6034602C6043E754
:100AA000254A084613680133136058E70388B2F8F3
:100AB00000C09BB2C3F10D0313FA8CF3B3E78A466F
:100AC00013889BB207EB8313A3F1040E3C333AF86F
:100AD00002CB0CEB0C4C4EF804CF7345F7D11388C6
:100AE00010359BB20133B3FBF6FC06FB1C33A02D83
:100AF0009BB2138001F1200185D19AE7008812880A
:100B000080B2C0F10D0010FA82F9B7E7100600209C
:100B100070010020142D0020D42D0020102D002065
:100B200015700300F4510020F2510020E82D002040
:100B30000C2D0020082D0020182D002038700300F7
:100B400068FC020010B5044601210A482AF0CAFADE
:100B5000094B1A78094B53F82230A34203D10021E4
:100B600007482AF0D3FABDE81040002101482AF0D6
:100B7000B9BA00BF78FC020026050020302D002005
:100B8000DC2D002008B50B482AF079FE0A482DF02C
:100B9000D5FF0A4800212AF0B9FA094B186840B17C
:100BA00009F0CEFA014620B1BDE8084005482AF018
:100BB00066BE08BD74700300C80B0020E02D002045
:100BC000B82D0020A47003000D4A1378B3B94389EF
:100BD000A3B10121117001790A4A117040F2E24279
:100BE0005343094A13600268084B116808481960AA
:100BF0009188998092799A712AF06BBA704700BFF8
:100C00004153002038530020CC2D002039530020C0
:100C10001807002070B52B4B0C461B681546834205
:100C20008EB04DD1012128482AF05CFA002D3BD02E
:100C30002E8A2C2E38D8A379DA0735D53246E968C2
:100C40000DF10A00ADF808602EF066F830461F4935
:100C5000FFF7AEFC002200231D48CDE900234FF42E
:100C6000804200230FF02AFC0023002202A9194829
:100C70000EF09AF9002114482AF034FAA3791B07E0
:100C80001ED5154A154B206814881988A4B289B25C
:100C90008C420DD311881B8889B29BB2C91A0EB041
:100CA000BDE8704002F0B2B80023ADF80830DBE7D1
:100CB0001B8811889BB2C3F10D0313FA81F1EEE793
:100CC0000EB070BD302D002070FC0200C570030016
:100CD000C80B002010060020F4510020F251002023
:100CE0002DE9F04F8FB0002800F0F3800378162B29
:100CF00040F0EF804278052A40F2EB8041680BA873
:100D00002BF0EDFD0BA82BF03BFE41F65103984272
:100D100040F0DF80BDF83030032B0FD80122714B3B
:100D2000D3E8EF1F002903D1C3E8E02F0028F7D153
:100D300000F0D18000200FB0BDE8F08F0BA82BF0A1
:100D400027FE04460BA82BF013FE05460028E5D02D
:100D50000246214664482AF092FD4FF00008BDF893
:100D60003030072BDAD90BA82BF002FE07460028FB
:100D7000D4D00BA82BF0FCFD07900BA82BF000FEA5
:100D800008900BA82BF0FCFDBDF830300990002B2B
:100D9000C4D00BA82BF0ECFDBDF8303004468342E4
:100DA000BCD301460BA8DDF82CB02BF0D9FDBDF863
:100DB0003030002BB2D00BA82BF0DAFDBDF830306C
:100DC00006468342AAD301460BA82BF0C9FD002397
:100DD0009C4256D84FF0000AD146BDF83010012988
:100DE0009CD90BA82BF0C4FD83460BA82BF0C0FDAB
:100DF0000146BDF83000884290D30BF1FF3B0BA8B1
:100E00002BF0AEFD5FFA8BF11F2998BF01230AF189
:100E1000010A98BF03FA0BFB5FFA8AF198BF49EA0F
:100E20000B098F42D9D8079BFF2B4ED14DF6AD63EE
:100E3000089A9A424BD14BF6EF602C4B2C49099AF9
:100E4000824208BF0B46099A08F101080192089AEC
:100E500041460092CDE90479CDE90246079A25483A
:100E60002AF00DFD5FFA88F39D423FF678AFBDF89A
:100E70003030002B7FF452AF01211F482AF046F991
:100E800058E71BF80320591C002AA3D050188442AD
:100E9000A0D31BF80110013A042903F10203D2B2D6
:100EA00011D1022A0FD13BF803104B1E2B2B91D8E6
:100EB00012482AF02BF9124B188800288AD01149C1
:100EC000FFF776FB86E7134482E70F4BBBE7074B40
:100ED000B9E701202FE76FF015010C482AF0CFFC8D
:100EE00028E700BFC42D0020F8700300E570030060
:100EF000CE7003002A710300C82D0020700100206D
:100F0000AE5000201A6F0300F9AE0300A771030072
:100F1000F0B5504BEDB01D8E10ABAE1C1E444FF023
:100F2000FF324FF0FF334C482AF0DAF84B482AF0F2
:100F3000D2F80028F3D04FF4A07249491CA82DF034
:100F4000EBFE002213461CA931F9020B0132082ADC
:100F50000344F9D143480268511C01606420B2FB8C
:100F6000F0F400FB142232B93F482AF0B4F80246EC
:100F70003E482AF084FC3E482AF0ADF8D8B1012161
:100F80003C482AF0AFF82C23009300230DF1120700
:100F900005AC4FF4A0711A46029701941CA804F006
:100FA0008FF9014668B134482AF069FC00213148C4
:100FB0002AF098F8B3E72C482AF08DF80028DED103
:100FC000ADE739888D4203D02A462C482AF057FCD9
:100FD00021462A460DF142002DF09EFE28482AF0B7
:100FE0007AF810F0FF0404D02246002130462DF09C
:100FF000BAFE244B2C441868ADF840400022002370
:1010000010A90DF0D1FF68B10A221F4B19680131F8
:101010001960B1FBF2F302FB1313012B02D11B4841
:101020002AF02DFC002113482AF05CF8184A1468B5
:10103000611C1160C822B4FBF2F002FB1044002CCA
:101040007FF46DAF104F13483A682AF018FC3C60EB
:1010500065E700BF78010020A0060020E02D0020F9
:10106000B2500020242D00209C310020BE710300CE
:10107000A031002060FC0200E87103000F72030041
:10108000D82D0020E42D0020202D002044720300E4
:101090001C2D00206A7203002DE9F04FA44899B07E
:1010A0002AF0EDFBA3482AF0EAFB0521A2482AF02A
:1010B000E6FB00F0F1FD054680B101469F482AF0AD
:1010C000DEFB9F4800F0ACFC044650B101469D4851
:1010D0002AF0D5FB204619B0BDE8F08F00F004FEE1
:1010E000EFE700F013FE2246974998482DF01AFDCD
:1010F000974998482DF02DFB974B984A9848994965
:101100000534192CC3E9010142F8043B03F114032F
:10111000F6D19549954800F0EBFF044610B1014621
:101120009348D5E701F058F8044610B101469148BC
:10113000CEE701F047FE01F091FE8F4E8F4B214626
:101140001860B28E204604F055F9044610B10146ED
:101150008B48BDE701278B4B0097019310214FF47B
:10116000FA434FF47A50B28E04F068F9044610B195
:1011700001468548ACE73B4610214FF47A50B28EC9
:1011800004F0E6F9044610B101468048A0E74FF0AC
:1011900000084FF000094FF4C052CDE90370CDE9CB
:1011A00001000090CDE90689794B7A497A480EF022
:1011B000A5FB7A4978480EF02BFB02274FF48052AA
:1011C000CDE90689CDE90247CDE90044744B754964
:1011D000049475480EF092FB744973480EF018FBA6
:1011E0004FF48062CDE90689CDE90374CDE901446D
:1011F0006F4B7049009470480EF080FB6F496E4849
:101200000EF006FB204606F00FFD044610B1014625
:101210006B485DE76B4807F053FE6B4807F092FFA1
:1012200008946A4829F05AFF694829F057FF69482D
:1012300029F054FF684829F051FF684829F04EFF13
:10124000674829F04BFF0021664829F05FFF664898
:1012500029F05CFF2821654829F058FF00216448E7
:1012600029F054FF634829F051FF634829F04EFFED
:10127000624B089A1A80624B1A7015B9284600F022
:1012800033FD60482AF0FBFA5F4A0CAB10685168E6
:1012900003C39068002118600CA807F0A5FD044660
:1012A00010B10146594813E7594B187059482AF0B4
:1012B000E6FA4FF0FF324FF0FF33444829F010FFB9
:1012C000044610B10146544802E754482AF0D7FAC0
:1012D00007F0DAFD044610B101465148F8E6514BDB
:1012E000119418689A889B790F908DF842304E4B74
:1012F0004E481B78ADF840208DF843304C4BADF88C
:1013000048401F6806235F4342F21073B7FBF3F3B4
:10131000ADF84A302AF0B3FA0BA90FA807F03CFE4B
:101320000446002800F0888001464248D0E600BF0D
:10133000847203009E720300BA720300F17203000C
:101340007807002006730300D9040000C80B0020B2
:10135000850B0000A82D0020442D0020302D0020FA
:10136000300100206801002085040000B001002049
:101370001F7303003673030078010020E42D002062
:101380004E730300B05000206C7303008E73030093
:101390001D090000F86A0020D00A0020B073030085
:1013A000110F0000F85A0020D8090020BC73030078
:1013B00001070000F8560020E0080020C873030071
:1013C000CF7303002401002008010020180700202B
:1013D000480700206007002030070020D0060020CA
:1013E000E8060020C82D0020C42D00207001002038
:1013F000D82D0020D42D0020D02D0020AE5000206C
:1014000040530020EF73030024F80200027403002D
:10141000415300201F740300447403005C740300F4
:101420007974030039530020385300209574030069
:10143000CC2D0020BC740300A0482AF020FAA0495B
:101440004FF400408C462146E7FB00C100239D4A33
:101450006046FEF77FFE074602460B469A480C465A
:1014600029F03EFE30B199482AF009FA0B9807F0AE
:101470004BFDD6E696482AF002FA3A4623469548AE
:1014800029F02EFE014640B193482AF0F8F9934B1B
:101490001B78002B7FF4C5AEE8E7914B1A68282330
:1014A000726392B2338603F0A5FF014630B38D48D4
:1014B0002AF0E5F98C482AF0E2F9002200238B4853
:1014C00029F00EFEB0B18A482AF0D9F9814829F0F6
:1014D00005FE4FF4203200237E4829F001FE40B380
:1014E00084482AF0CCF94FF0FF324FF0FF337F48A9
:1014F00029F0F6FD80482AF0C2F992E601247F4BDC
:101500000094019310214FF4FA434FF47A50B28EB5
:1015100003F094FF014608B17948C9E7102123463A
:101520004FF47A50B28E04F013F8014608B17548B2
:10153000BEE7FEF791FF70B973482AF0A0F94FF4A7
:1015400080300021FFF78CF9FEF786FF18B96F484D
:101550002AF095F9AEE701226D4F6E4C39786E484E
:101560008A40013AA26021712AF089F900216B4872
:1015700029F0CCFD21466A4A0B9808F075FF044615
:10158000002800F09280014666482AF078F914F1AC
:10159000780F7FF49FAD4FF480300021FFF760F9A2
:1015A00088E7484609912AF06AF94FF4A0220023FF
:1015B000504629F095FD08F1010800285AD15846F7
:1015C00009992AF05CF93B785FFA88F18B42E8D8F8
:1015D000524829F080FD98424DDB53482AF04FF9DC
:1015E0000021524829F092FD0C46DFF828A19AF814
:1015F00004205FFA84FB5A4500F2BC80002401F00D
:101600001FFC4B4B21464B481C8029F07FFD4A486C
:101610002CF038FF494B18682CF034FF484B1C80E5
:10162000484B1C80484C00220023204629F058FDDE
:101630000028F8D001213D4829F068FD15B9084679
:1016400000F052FB4FF00008DFF81091DFF810A116
:10165000DFF810B13B785FFA88F18B4200F2C3806B
:101660003A482AF00CF9002D7FF424AF284600F008
:101670003BFB1FE70446294829F02DFD2146024681
:101680003B7833482AF0FBF8254B186808F058FDE2
:1016900000F11602162A044604D82E4B1341DB072C
:1016A0007FF579AF21462C4812E58046DFF8B890E7
:1016B000DFF8B8A0DFF8B8B085E700BFE274030038
:1016C0003F420F0040420F00480700200075030012
:1016D00017750300300700203075030040530020C9
:1016E00074010020427503000678030060070020A3
:1016F0002A780300487803007C780300B05000206B
:101700006875030092750300BC750300E97503005A
:1017100027050020440100202B760300C02D002067
:10172000B82D00205B760300E1760300E02D002059
:10173000AC500020BC2D002010060020E42D00201D
:10174000F4510020F2510020A0060020F67703009B
:10175000B6760300FEFFBDFFA47003009A77030076
:10176000E8060020DE77030077760300D00600202D
:1017700098760300274B14220021BBFA8BF913A89B
:1017800053F82B802DF0EFFA0322594622484FEAF6
:1017900059198DF84D202AF072F813AA494640468F
:1017A00007F07AFF10F10D0F024611D159461B4880
:1017B0002AF065F80121404608F0A2F800214046D1
:1017C00008F09EF813AA4946404607F065FF024616
:1017D000594601341AB112482AF051F854E7114819
:1017E0002AF04DF803E7484609912AF048F84FF0EF
:1017F000FF324FF0FF33504629F072FC08F1010828
:101800000446099910B10146074861E458462AF098
:1018100036F81FE7302D0020F87603001677030016
:101820005377030082770300C077030001480DF06F
:101830006DBF00BF2831002008B50021044829F001
:10184000C2FC20B1BDE8084040B200F0FFBB08BDBB
:101850004431002010B5114BD3E8AF4FECB904214F
:101860000F4829F09CFC00280EDD01210D4829F0CD
:10187000AAFC01F0E5FA0C482AF001F80B4B1868B5
:10188000BDE810400DF04EBD2146064829F09BFCF6
:10189000BDE81040064829F0F2BF10BDA03100207D
:1018A00094F202009C31002091780300A4310020C2
:1018B000A078030008B5084829F0E1FF074BD3E8FA
:1018C000EF1F0331C3E8E21F002AF8D1BDE808404A
:1018D00003480DF01BBF00BFB07803004431002067
:1018E00048310020014603488368DB690BB10122BF
:1018F0001847704794F20200062108B5054829F000
:101900004EFC002804DDBDE8084003480DF0FEBE93
:1019100008BD00BF94F202007031002008B50848ED
:1019200029F0ADFF074BD3E8EF1F0339C3E8E21FEF
:10193000002AF8D1BDE8084003480DF0E7BE00BF1B
:10194000BA780300443100204831002010B5124815
:10195000D0E8AF4F54B1002129F035FC0F4829F0F1
:101960003AFC0020BDE8104000F09EBB012129F0A8
:101970002AFC0A4829F02FFC2146094829F023FCBB
:101980000848D0E8AF3F23B129F01DFC064829F0F4
:1019900022FC0120E6E700BFA031002028FC020065
:1019A0009C3100208031002048FC020010B5154B0E
:1019B000D3E8AF4F24BB1448D0E8AF3F73B1214602
:1019C00029F001FC114829F006FC2146104829F0B5
:1019D000FAFB1048BDE8104029F051BF012129F061
:1019E000F2FB0A4829F0F7FB0121094829F0EBFB3B
:1019F00001F026FA084B18680DF094FC0748E9E757
:101A000010BD00BFA03100208031002048FC020042
:101A10009C310020C6780300A4310020DB7803004D
:101A20006D4B10B518606D4829F0E9FB28B96C487A
:101A300029F025FF6FF012040AE04FF48031694865
:101A400029F08EFB044628B10146674829F017FFAC
:101A5000204610BD4FF0E861624829F05EFB044665
:101A600010B101466148F1E76148624B43601023C1
:101A70008360FFF737FF604829F001FF5F48604946
:101A80002CF067FE554829F0BAFB08B95D48CFE74E
:101A9000524829F0B4FB0028F8D04FF480315A485E
:101AA00029F05EFB044610B101465848CEE74FF4DA
:101AB000B011574829F054FB044610B1014655486F
:101AC000C4E74FF0E861504829F027FB044610B105
:101AD00001465148BAE75148514B43604023836067
:101AE000FFF700FF4F4829F0CAFE4F484F492CF03E
:101AF00030FE3A4829F083FB08B94D4898E737484B
:101B000029F07DFB0028F8D04FF48031494829F0B6
:101B100027FB044600289BD14FF48031464829F02A
:101B20001FFB0446002893D14FF0B861414829F0CB
:101B3000F4FA044600288BD14FF0B8613E4829F0F2
:101B4000ECFA0446002883D13C483D4B3D4C4360B1
:101B5000042383603C4B63600823A360FFF7C2FE4D
:101B60002046FFF7BFFE0321384829F088FE384899
:101B700038492CF0EEFD194829F041FB08B93648E8
:101B800056E7164829F03BFB0028F8D04FF4803187
:101B9000324829F0E5FA044600287FF459AF4FF4A3
:101BA000B0112F4829F0DCFA044600287FF450AF2A
:101BB0004FF0B861294829F0B0FA044600287FF4B4
:101BC00047AF2848284B436020238360FFF78AFEF5
:101BD000264829F054FE3BE7A431002094F202008D
:101BE000EF78030058FC02000A7903002B79030008
:101BF00090310020551800004F790300703100200B
:101C0000AD1900007A79030050FC020093790300BB
:101C100048FC0200B9790300DC790300843100201C
:101C2000F9180000057A0300483100203918000037
:101C3000287A030040FC020038FC020064310020D6
:101C40001D19000058310020B5180000467A030025
:101C5000283100204D1900006C7A030030FC02008E
:101C600028FC0200383100202D180000877A03007C
:101C7000084B1A691268520148BF80F0010028B170
:101C80009B68DB684FF08061024818479B681B69BE
:101C9000F8E700BF94F2020038B5114D2B78C3B9B4
:101CA000104C20462CF023FBB0B12269A1681368C8
:101CB000204623F0806313600B684FF4C0221A2182
:101CC0009847034630B9FFF7D3FF034610B9012305
:101CD0002B700023184638BD6FF01203FAE700BFDF
:101CE0004253002094F2020010B5074B04461B78C3
:101CF00023B12046BDE81040FFF7BABFFFF7CCFF85
:101D00000028F6D010BD00BF4253002010B5214876
:101D10002CF0EDFA30B9204829F0B1FD6FF0120433
:101D2000204610BD1D4829F06CFA044620B101463A
:101D30001B4829F0A4FDF3E716482CF0D8FA08B99F
:101D40001848E9E7184829F05CFA044610B1014642
:101D50001648EEE70F482CF0CAFA08B91448DBE73A
:101D6000144829F04EFA044610B101461248E0E743
:101D700012482CF0BCFA08B91148CDE7114829F0F7
:101D800040FA044610B101460F48D2E70F4829F047
:101D900076FDC5E774F20200B77A030070FC02001A
:101DA000D67A0300007B030068FC0200217B03005D
:101DB0004D7B030060FC02006E7B030094F2020086
:101DC0009A7B030078FC0200B97B0300E37B0300ED
:101DD0002DE9F0410446DFF8488000EBC105AC4234
:101DE00001D1002017E0D4E90067012E04D1384664
:101DF0002CF078FA0834F2E73A46314640462AF0A9
:101E000084FC03460028F5D004483A46314629F0C0
:101E100036FD6FF00400BDE8F08100BF307C0300A8
:101E2000BC3100202DE9F8430546002849D04FF089
:101E3000000844466F4E704F3378011F07EB43177D
:101E40003C3051F8042F1314002BB8BF5B429BB2F7
:101E500012B29C42B8BF1C46002AB8BF524292B28E
:101E60009045B8BF90468842EBD1DFF8C091D9F8D1
:101E70000030002B0FDA402C02DCB8F1400F0ADDF5
:101E80004445ACBF00210121434622465B48C9F8C6
:101E9000001029F0F4FCD9F80030002B7BDBDCB219
:101EA000002355F82320002C7AD1121427F8132090
:101EB0000133102BF5D133780133DBB2092B71D804
:101EC00033704F4A4F4E13784F49DFF86481002B2F
:101ED00018BF0E4683F001031370D8F800304B4F43
:101EE000002B68D09A6814885A68A4B2128892B2FB
:101EF000944260D0396861B19B89121B1A4492FBED
:101F0000F3F003FB1022424892B229F0B8FC002300
:101F10003B60B446D8F800704FEA841E3B6803EB80
:101F2000841303F14008624618685968083303C2F5
:101F300043459446F7D138684022002170442CF084
:101F400012FFBB890134B4FBF3F103FB1144BA68FF
:101F5000A4B2304B1480D3E8EF1F0131C3E8E21F75
:101F6000002AF8D13146284600F01AFA0146002826
:101F70003ED0294B1A680132052A1A6006D9322050
:101F8000B2FBF0F300FB1323002B31D1BDE8F84383
:101F9000224829F074BC4445ACBF002401247FE7EB
:101FA00012B283E7002333701D4B1B68002B88D0CF
:101FB0001148984785E74022002130462CF0D3FE97
:101FC000184BD3E8EF1F0131C3E8E21F002AF8D114
:101FD0003B6801333B60144BD3E8AF1F3A688A4239
:101FE000C0D9D3E8EF1FC3E8E02F0028BAD0F8E744
:101FF000BDE8F88344530020F6510020647C0300C0
:10200000435300208C3200204C320020B03100209D
:102010009A7C0300B4310020A8310020CA7C030060
:1020200050330020B8310020AC310020C001002026
:102030004C33002000200146034BD3E8EF0FC3E8E8
:10204000E21F002AF9D17047B831002073B5064667
:1020500044F61801124801AA2AF04FFB18B16FF09C
:10206000040002B070BD9DF8044044F6180104EB72
:102070004604802CA8BF802424EAE474084844F471
:1020800000722AF042FB05460028E8D1631005489B
:1020900022463146403B29F0F2FB2846E1E700BFEB
:1020A000BC310020017D030008B558B109210B485F
:1020B000FFF78EFE28B90A4B18600A4829F0DFFBAB
:1020C000002008BD0A210848FFF782FE0028F8D149
:1020D0004FF0FF32024B05481A60EFE730FD020077
:1020E000C0010020257D030078FD0200407D030033
:1020F00038B5002853D0002951D02A4D2B78002B19
:102100004BD1294A1060294A29481160294A136095
:1021100000F0E0FA044628B10146274829F0AFFB59
:10212000204638BD02212548FFF752FE044600280C
:10213000F6D109212248FFF74BFE04460028EFD1D3
:1021400004212048FFF744FE04460028E8D10E2170
:102150001D48FFF73DFE04460028E1D10A211B4837
:10216000FFF736FE04460028DAD103211848FFF7AE
:102170002FFE04460028D3D144F6180140F2622213
:102180000B482AF0C2FA014628B1124829F077FB21
:102190006FF00404C4E701232B700024C0E76FF044
:1021A0001504BDE7465300204C3300205033002077
:1021B000BC310020C0010020577D030080FC0200DC
:1021C000E8FD0200C8FD0200A8FC020078FD020044
:1021D00018FD0200757D030038B5224B1B78002BDB
:1021E0003CD0214D2B78002B36D103211F48FFF71F
:1021F000EFFD044628B101461D4829F040FB20466A
:1022000038BD1C4800F056F800F05AF8044610B1EA
:1022100001461948F1E70146402218482CF0A3FD79
:102220002146402216482CF09EFD1449154800F026
:1022300091F8044610B101461348DEE710491348EF
:1022400000F0AEF8044610B101461148D5E7114838
:1022500029F015FB01232B700024D0E74FF0FF3449
:10226000CDE700BF465300204553002090FC0200FC
:102270009B7D0300251E0000B87D03008C320020EA
:102280004C3200200C330020D37D0300CC320020E0
:10229000EF7D0300127E0300012908D138B1044A02
:1022A000126822B1D0E9000100B901B110477047AE
:1022B00054330020014B1860704700BF5433002096
:1022C00037B51D4D2B78002B34D14FF0502449F6F3
:1022D000A633C4F85C350123A361D4F8203153B18F
:1022E0000021164801AA2AF0DFFE002808DA6FF064
:1022F000040003B030BD002121202CF03FFBECE7AF
:10230000019B0F4A1979186809F036FC024600282B
:10231000EDD10121282003F0ABFD282003F078FD4A
:10232000084A094909480BF05FFA094B9842DED187
:1023300001232B700020DCE74753002030FE020011
:102340000080025099220000C4010020EC0100200E
:102350000000AD0B1FB50F4C2378012B13D100B932
:1023600089B11023CDE9010100220B4801A9ADF884
:102370000C300BF00BFB094B984207D102230020D5
:10238000237004B010BD6FF01500FAE76FF0040081
:10239000F7E700BF47530020EC0100200000AD0B21
:1023A0001FB50D4B1B78022B13D100B989B1102337
:1023B000CDE90101094801A9ADF80C300BF05AFB39
:1023C000074B984214BF6FF00400002005B05DF881
:1023D00004FB6FF01500F9E747530020EC010020E3
:1023E0000000AD0B0146014829F049BA477E0300C1
:1023F00008B5024829F043FA012008BD6D7E0300AC
:1024000008B5024829F03BFA012008BD987E030078
:1024100008B5024829F033FA012008BDC47E030044
:1024200008B5024829F02BFA012008BDE97E030017
:1024300008B5024829F023FA012008BD0D7F0300EA
:1024400008B5024829F01BFA012008BD407F0300AF
:1024500008B5024829F013FA012008BD657F030082
:1024600008B5024829F00BFA012008BD967F030049
:102470000A4608B50123C0B203FA00F107484AB181
:102480008368DB68984720B10146054829F0F7F9D1
:10249000012008BD83681B69F4E700BF94F20200C5
:1024A000B97F0300F8B50125154B164E1960164B80
:1024B00016491A60164BB7684B6005FA00F38B603B
:1024C000FB6904460BB90120F8BD2A4630469847FF
:1024D0000028F8D1E1B2BC693369002CF3D01B6845
:1024E0008D401D4214BF4FF080634FF000734FF0DA
:1024F000A0723046A047003818BF0120E4E700BFB3
:102500007C33002094F20200783300206C330020EA
:1025100015250000B2F5002F08B50AD1054A064B73
:1025200000201B6811689847BDE8084003480CF07C
:10253000F9BE08BD783300207C330020000700205E
:1025400010B505480CF06CFE044618B1014603486E
:1025500029F095F9204610BD58330020DC7F030098
:1025600010B54FF0FF324FF0FF3305480CF0E0FD9F
:10257000044618B10146034829F081F9204610BDF0
:1025800058330020F87F030010B58AB008460D9933
:10259000042903D0144829F072F910E008930C9B29
:1025A0000024099304AB02930323CDE9040201AA9A
:1025B000CDE9062101940393FFF7D2FF10B101206A
:1025C0000AB010BD09480A4983681C6802AB1A4664
:1025D000A047014608B10748DDE7FFF7B1FF003823
:1025E00018BF0120ECE700BF1280030094F3020043
:1025F0007CFE02003780030070B50446084E094D8A
:102600004FF0FF324FF0FF3330460CF0C5FE20464E
:1026100002F0B0FC0028F3D0284629F030F9EFE7AB
:10262000000700205880030070B5144601B922B19C
:102630000B4829F024F9012070BD20EAE0754FF421
:102640000046214640F2E7304FF47A720023C5FB82
:102650000601FDF77FFD2CF091F92046ECE700BF65
:102660007980030010B58AB008460D99042903D07B
:10267000144829F004F911E008930C9B00240993F5
:1026800004AB02930323CDE9040201AA0393CDE92D
:1026900006210194FFF764FF034610B101200AB040
:1026A00010BD094809498268146802AAA04701467A
:1026B00008B10748DDE7FFF743FF003818BF0120E6
:1026C000EDE700BF1280030094F302007CFE0200DD
:1026D0009C800300F0B593B007462822002108A88B
:1026E0002CF041FB3E482BF018FF3E482BF0FFFD3D
:1026F00048B13D482BF0FBFD28B13B482BF0F7FDDE
:1027000048B93A4800E03A4829F0B9F86FF00504B2
:10271000204613B0F0BD4FF48031364828F087FDD5
:1027200004460028F4D130482BF0E1FD0028E8D021
:102730004FF48031304828F07AFD04460028E7D174
:1027400029482BF0D4FD0028DBD04FF400312B4872
:1027500028F06DFD04460028DAD14FF4A47200235E
:10276000CDE906230523CDE90070CDE902030490ED
:102770004FF42F72224B234923480DF0BFF8234911
:1027800021480DF045F804460028C1D1384629F00B
:10279000CCFF08B11E48B7E71E4E08AD0FCE0FC5DF
:1027A00096E80F0085E80F001B4B384610931E2358
:1027B00008A9119302F096FB08B11848A4E738461F
:1027C00002F0B0FC08B116489EE7B968154A91427C
:1027D0009ED0154829F053F86FF0040498E700BF25
:1027E0005833002094F3020094F20200CC800300DE
:1027F000B5800300A0FE020098FE020090FE0200D9
:10280000F9250000F8820020000C0020E080030081
:10281000E880030058FE0200A002002006810300A9
:1028200023810300637A04003C810300034648F6D9
:10283000D870834206DD4AF273729342CCBF4AF2EB
:10284000747098B2044B1A8882421EBF18804FF0F1
:102850005023C3F85C057047240500202DE9F84F8C
:102860004FF0502349F6A6370025D3F85C35DFF842
:1028700008939BB2002B08BF3B462E46AA464C4607
:10288000DFF8F882A8F800304FF0FF334FF0FF3246
:10289000AF480CF081FD0023D9E8EF2F012A03D1C6
:1028A000C9E8E13F0029F7D10CBF01221A464FD1F8
:1028B000DFF89CB200270021A64828F0CFFCA648EC
:1028C00028F0CCFC4FF0FF324FF0FF3358460CF0AD
:1028D00063FDD4E8EF3F012B03D1C4E8E27F002A77
:1028E000F7D10CBF01230023E5D09C4FD7E8EF2F91
:1028F000012A03D1C7E8E13F0029F7D10CBF4FF00F
:10290000010A4FF0000A40F03B81043FD7E8AF3F97
:1029100049F6A63701218F4828F0A0FC904828F0FE
:10292000AEFF4FF0FF334FF0FF3289480CF034FD1B
:102930000023D4E8EF2F012A03D1C4E8E13F0029A6
:10294000F7D108BF012340F0EF8000263546AFE7FE
:10295000824BD3E8EF1F012903D1C3E8E02F002801
:10296000F7D191D1043BD3E8AF3FBAF1030F8BD835
:1029700001A252F82AF000BF15290000192C00000E
:10298000F72900009D2A000003F51B47A6373846AB
:10299000FFF74CFF02216F4828F060FC3946714870
:1029A00028F06DFF4FF0FF334FF0FF3268480CF016
:1029B000F3FC0023D4E8EF2F012A03D1C4E8E13F60
:1029C0000029F7D108BF01233FF472AFDFF88CA1D3
:1029D000DAE8EF2F012A03D1CAE8E13F0029F7D155
:1029E0000CBF4FF0010B4FF0000B40F07E81AAF1BD
:1029F000040ADAE8AF3FC3F1070A0A2303FB0AFA25
:102A000040F24B1358484FEA6A0A00FB0AF090FB69
:102A1000F3F03844FFF70AFF5146B8F80020534856
:102A20000AF10F0A28F02BFFBAF11E0F00F27B818A
:102A30000321484828F012FC0121474828F00EFCE9
:102A4000B8F800104A4828F01AFF4FF0FF334FF053
:102A5000FF323F480CF0A0FC0023D4E8EF2F012AFE
:102A600003D1C4E8E13F0029F7D108BF01233FF4B7
:102A70001FAFDFF8E8A0DAE8EF2F012A03D1CAE898
:102A8000E13F0029F7D10CBF4FF0010B4FF0000BD5
:102A900040F04C81AAF1040ADAE8AF3FC3F1070124
:102AA0000A23594340F24B132F484910484390FBE7
:102AB000F3F03844FFF7BAFE01F12003402BC4D9EC
:102AC0002C4828F0DCFE0021224828F0C7FB2248D1
:102AD00028F0C4FB4FF0FF334FF0FF321C480CF0DE
:102AE0005BFC0023D4E8EF2F012A03D1C4E8E13FC7
:102AF0000029F7D108BF01233FF4DAAEDFF85CB05C
:102B0000DBE8EF2F012A03D1CBE8E13F0029F7D121
:102B10000CBF4FF0010A4FF0000A40F02881ABF1E2
:102B2000040BDBE8AF3FF5E60C4ED6E8EF2F012AA9
:102B300003D1C6E8E13F0029F7D10CBF01250025EC
:102B400044D1043ED6E8AF6F4FF0010A9CE600BFC7
:102B50007006002080330020843300209033002052
:102B600067810300A981030018FCFFFFC7810300F0
:102B7000EA810300068203003002002024050020C1
:102B80004FF0FF324FF0FF3388480CF005FCD4E8DB
:102B9000EF3F012B03D1C4E8E2AF002AF7D10CBF0D
:102BA000012300233FF486AED7E8EF2F012A03D19B
:102BB000C7E8E13F0029F7D10CBF4FF0010A4FF001
:102BC000000A3FF4A2AE49F6A6375DE64FF0FF32A9
:102BD0004FF0FF3375480CF0DFFBD4E8EF3F012BDB
:102BE00003D1C4E8E25F002AF7D10CBF0122002222
:102BF0003FF4ABAED6E8EF3F012B03D1C6E8E15F6F
:102C00000029F7D10CBF0125002540F0CD80043EFE
:102C1000D6E8AF3F154616460135092D1E4493D917
:102C20000A2196FBF1F1624AC1F10703534340F2D6
:102C30004B1293FBF2F341F29C7203F6CE309042BA
:102C40007FF6A2AE5B4828F01AFE00215A4828F011
:102C500005FB5A4828F002FB4FF0FF334FF0FF32DC
:102C600052480CF099FB0023D4E8EF2F012A03D13E
:102C7000C4E8E13F0029F7D108BF01233FF418AEB3
:102C8000DFF83CB1DBE8EF2F012A03D1CBE8E13FCD
:102C90000029F7D10CBF4FF0010A4FF0000A3FF4B2
:102CA0003EAF4FF0FF324FF0FF3340480CF074FB63
:102CB000D4E8EF3F012B03D1C4E8E2AF002AF7D1FB
:102CC0000CBF012300233FF4F3ADDBE8EF2F012A13
:102CD00003D1CBE8E13F0029F7D10CBF4FF0010A47
:102CE0004FF0000A3FF41BAFCEE54FF0FF324FF03C
:102CF000FF332E480CF050FBD4E8EF3F012B03D1FB
:102D0000C4E8E2BF002AF7D10CBF012300233FF43F
:102D1000CFADDAE8EF2F012A03D1CAE8E13F00295D
:102D2000F7D13FF464AE4FF0020AADE54FF0FF3249
:102D30004FF0FF331D480CF02FFBD4E8EF3F012B81
:102D400003D1C4E8E2BF002AF7D10CBF012300235E
:102D50003FF4AEADDAE8EF2F012A03D1CAE8E13F34
:102D60000029F7D13FF496AE4FF0030A8CE54FF0FF
:102D7000FF324FF0FF330D480CF00EFBD4E8EF3F6D
:102D8000012B03D1C4E8E2AF002AF7D10CBF012325
:102D900000233FF48DADDBE8EF2F012A9DD1CBE876
:102DA000E13F002999D0F6E72E46CDE670060020D7
:102DB00078ECFFFF7681030080330020843300200D
:102DC0009033002010B588B000220023CDE90623FF
:102DD00000230122094CCDE90323CDE901330093FF
:102DE0004FF480622046064B06490CF087FD2046D2
:102DF000054908B0BDE810400CF00ABDF80C0020F1
:102E00005D280000B88500202C82030038B50D46EF
:102E1000094C0146204628F021FA2946201D28F0B9
:102E20001DFA012104F1080028F018FABDE8384025
:102E300002480CF077BA00BF8833002070060020EB
:102E400008B50121034828F009FABDE80840024806
:102E50000CF068BA3002002070060020004870476D
:102E6000400600202DE9F04F91B0009302F00403DA
:102E70000293C2F3C2030133840705460E46DDF810
:102E800068800392059340F0BB81041D30B107298F
:102E900009D86FF01B0011B0BDE8F08F01F00706F4
:102EA0003444C6F10806009B4FF000094FF0040AB5
:102EB000591E4FF0FF334F460193CB465346CDF892
:102EC00010900DB1009820600598002800F3E8806C
:102ED0009848009A824203D397488242C0F0E0802B
:102EE000039AA4EB050E92074FEA9E0000F10381BE
:102EF0000F2F00F2B180002D00F0058107F1400294
:102F00000DEB020C019A0CF8200C0CF8102C049814
:102F100001300490E7E07A285DD84B280ED8472886
:102F200059D829282DD8252852D054D820287AD0ED
:102F30002338D0F1000B4BEB000B74E04C382E28FB
:102F400049D8DFE800F070484848484848484848B1
:102F500048484B484848484848484859484B4B59C6
:102F60005959704B6D487048184B184848827F4B30
:102F700048484B487F0000204FF0000B4FF0040AF8
:102F800038E001222A38C0B202FA00F010EA0E0F2F
:102F900049D110F0625C2FD110EA020B43D0604699
:102FA000013C5444B4FBFAF40AFB04F4002D61D054
:102FB000A3EB050CA444B4453FF66BAF002868D1E1
:102FC000042B47D158F8043B2360042304342AE03F
:102FD000019A013A01924FF0000B24E011F8010C24
:102FE0006C2834D1002011F8023C83466C2BC5D1EB
:102FF0004FF0080A5346D3E708F1070828F00708FE
:10300000073424F00704F8E802AB35B106982044F1
:10301000B0423FF63EAFC4E900AB4FF0000B0834BE
:103020004FF0080A534611F8010F002878D0BBF181
:10303000000F7FF470AF2528F5D14FF0010B019BF5
:10304000013301934FF0040AECE7584694E700205F
:103050008346A5E7082B02D06FF015001BE708F1A7
:10306000070828F00708B8EC027B84ED007B0823F2
:103070000834D8E768B9042B02D108F10408A4E7A2
:10308000082BE9D108F1070828F0070808F108081B
:10309000EDE705980138059058F8040B009010E70B
:1030A000039A900720D54FF0010CA4EB050E4FEAD0
:1030B0009E00BEF5007FCFD20F2FCDD8F5B107F11E
:1030C00040020DEB020E019AC0B20EF8200C0EF871
:1030D000102CBCF1000F3FF41AAF60F07F000EF827
:1030E000200C09F101090137C5F108024FF6DA7E1B
:1030F0000434069297E74FF0000CDAE7BCF1000FBA
:1031000001D00136EFE7029A0236002AEBD100988F
:10311000CDE90631FDF74AF8DDE906310644E2E77C
:10312000631BB3F5806F97D245B9A6F10804E01888
:10313000B1E600BF84F102004CB90300029A9B087B
:1031400028602B709DF81030C2B1EB7085F80290AA
:10315000B9F1000F05D0002208A8C5F1010C974273
:103160000ED14FF0000AC5F101030DF120080193C3
:103170000DF1300B574512D1601B8CE66B70E5E703
:1031800010F8013B190608D50CEB040EB64503F008
:103190007F033FF67EAE04F8013B0132DFE7B9F171
:1031A000000F03D098F90020002A17DB029BD3B14F
:1031B0001AF80B2004F8012B0022019B1819104467
:1031C000B0423FF666AE98F80000009904F8010B93
:1031D000204603922BF0A0FD039A14440AF1010A41
:1031E00008F10108C6E798F8002055F8223000934E
:1031F000029B009845F82230FCF7D8FF421CDCE720
:103200006FF00D0047E600BF2DE9F04F97B000AF1B
:10321000D7F880B03B62CBF3C0030446894690F8F0
:1032200002A0FA62BB6141B9457800780AEB8000E0
:1032300020444D4517D8A0EB0409E378FB61BAF1AF
:10324000000F02D01BF0010F16D1FB6953BBFB6AC4
:103250001BB1494620463A6A98474D4628465C3796
:10326000BD46BDE8F08F461C3046FCF79FFF01309D
:10327000304409F10109DCE7626823787A62FA6A6E
:103280009900796104EB8301002A40F001810E4628
:103290004FF000084D4601EB0A094E454CD101EBB9
:1032A0000A0610E01BF0020FD1D023789A007A6151
:1032B000626804EB83017A62FA6A002A77D14D468C
:1032C000904601EB0A061BF0050F0CBF02230123F9
:1032D000FB62FB6906EB430A0BF00203BB62564537
:1032E000BCD016F8021B16F8013C54F82390994BF9
:1032F000994502D3984B994536D3BB69002B40D0F2
:10330000786A28F093FA00283BD0E9468AB06A46EA
:10331000924B53617B6AC2E906314FF40073138408
:103320008F4B42F8103F00234FF412518D4801F0AB
:10333000B7F8023DCD46D2E716F8013BF96254F8E2
:103340002300FCF733FFD7F88430F96A01304BB122
:10335000D7F8883098453EBFD7F8843023F8180056
:1033600008F10108054498E7BB6923B1786A28F0A1
:103370005DFA0028C9D11BF0010F05D1FB6AED1AD7
:10338000ADE7BB6A002BAAD04846FCF70FFFD7F881
:10339000843053B1D7F8883098453FBFD7F88420A0
:1033A000431C22F8183008F10108054497E7BAF1E8
:1033B000000F73D01BF0040673D0D046002607F12F
:1033C000480052463B61B9622BF0A6FCB96A3B69E2
:1033D00001EB0A02BA62FA69F9695200FA60BA6A44
:1033E00002EB41023A610BF00202BA603A69B96A33
:1033F0008A4258D162781BF0020F18BF00217A620E
:1034000008BF4FEA5801B2181BF0010FD2B240F0CA
:103410009F801BF0040F14BF40460020BB61627008
:10342000A070E17020463A6A7969FB6A9847051EE8
:10343000FFF614AFBB69414623707B6A3A6A63703A
:10344000FB6984F802A0E37007F14800FB6A984723
:10345000B0F10008C0F2BA807B69A9EB0A01C91A71
:10346000FB683A6AC91AD7E90A0398470028C0F2EC
:10347000AF804FF0000BA84408EB000507F1380AB5
:10348000B34571D300213A6A0846FB6A9847E5E6DE
:1034900056464FF0000807F1380092E75646D046EE
:1034A00096E7B04694E7BA6A12F8021B12F8015C7C
:1034B000BA6254F82500274A904202D3264A904225
:1034C0001ED3BA6932B1786A7B6028F0AFF97B68A5
:1034D00000288BD1BA6802BB08F1280207F1300C32
:1034E00008F10100944407F1580208F1020852FA69
:1034F00080F00CF8101C5FFA88F800F8105C75E793
:10350000BA693AB1786A7B6028F090F97B68002844
:103510007FF46CAF1BF0010F09D006F1280207F110
:103520003000711C161806F8205CCEB25EE71BF066
:10353000040F3FF45BAF08F1280207F1300008F1F7
:10354000010102EB000808F8105C5FFA81F84DE712
:10355000002063E784F102004CB9030035820300C8
:1035600004000001F4F602001BF80A3054F823901E
:1035700087F83730D7F884302BB3D7F888309B459D
:1035800021D2D7F8843033F81B8001213A6AFB6AD4
:1035900007F13700984700281ADB0544B8F1000FFF
:1035A00006D14846FCF702FE00F101081FFA88F830
:1035B000414648463A6AFB6A9847002808DB0544BA
:1035C0000BF1010B5CE74FF00008DEE7454645E6EE
:1035D000054643E6014B1860704700BF34020020E7
:1035E00080B505460E46174698460CF04DFC03463E
:1035F0002BF0BEFD0446DFF81890424649F8003033
:1036000039463046A84754F8090002F087FB00BF4E
:10361000080000002DE9F047058B04462807904676
:1036200011D4022905F0070540F0CC80204628F08F
:10363000ABFB78B10138218B042811D8DFE800F00A
:10364000C2106D85950001290CBF45F0100545F0AD
:103650002005258388F31188BFF36F8FBDE8F087BD
:1036600001F0070AAA4500F0A5800027B9463E46AA
:10367000A368002B00F0BC8041F00801218388F38F
:103680001188BFF36F8FA168002900F0BA800D6820
:10369000002900F0B680334652462046D1F8048017
:1036A000C047002D76D02B6829461D46F0E701F073
:1036B00007035A1F012A1BD8002221F00701062BFD
:1036C000276889B2C4E9002209D13B4603E0628B36
:1036D000013262831B68002BF9D141F002012046C0
:1036E000218328F051FB00287AD041F0200176E0B8
:1036F000042B0AD121F0070189B22046218328F04A
:1037000043FB10B141F020012183218B01F0070A16
:10371000AA454FD00027B946AAE7236921F007013F
:1037200041F00601062DD3F8009021832DD1B9F187
:10373000000F3FD041F00801218388F31188BFF3C7
:103740006F8F20463949C84729E021F007012369D6
:1037500041F0040189B2042DD3F804902183E6D00E
:1037600000274FF0040A3E4682E721F00701236953
:1037700041F0050189B2052DD3F808902183D6D0F8
:1037800000274FF0050A3E4672E700274FF0060A71
:103790003E466DE72B4687E7B9F1000FD1D1EFF335
:1037A0001188202383F31288BFF36F8F238B23F0BC
:1037B00008032383258BEA062ED525F010032383E7
:1037C00005F007056669218B002EBFF670AF002358
:1037D0002768C4E9003321F0070141F0010121838A
:1037E000218B4FF0000901F0070AAA457FF440AF92
:1037F000002F9CD041F00801218388F31188BFF38A
:103800006F8F002FC8D03D68394633465246204658
:1038100028F0E6FA2F46F4E7AB067FF51BAF25F05C
:103820002003238305F0070500E700BF0DBE02005B
:1038300010B530B90B480C4928F0B2FB6FF01500F9
:1038400010BD836833B90748084928F0A9FB6FF019
:103850000400F5E71B6813B1BDE81040184718468F
:10386000EEE700BF0CF70200E9820300FA820300D2
:1038700010B530B90B480C4928F092FB6FF01500D9
:1038800010BD836833B90748084928F089FB6FF0F9
:103890000400F5E75B6813B1BDE81040184718460F
:1038A000EEE700BF0CF70200E9820300FA82030092
:1038B00070B508B101B132B90B480C4928F070FB62
:1038C0006FF0150070BD84680CB1E56835B9064825
:1038D000074928F065FB6FF00400F3E741F8040B9B
:1038E000E368BDE8704018470CF702001883030036
:1038F000FA82030010B5044630B91048104928F088
:103900004FFB6FF0150010BD006830B90B480D4932
:1039100028F046FB6FF00100F5E783680BB11B69E7
:1039200033B90648084928F03BFB6FF00400EAE78A
:10393000616898470028E6D12060E4E70CF70200B0
:103940004483030055830300FA82030070B51346D5
:10395000044630B91048114928F022FB6FF01500D9
:1039600070BD006830B90C480D4928F019FB6FF0A4
:103970000100F5E782680AB1956835B9064809493A
:1039800028F00EFB6FF00400EAE70A46AC466168D7
:10399000BDE87040604700BF0CF70200448303009D
:1039A00055830300FA820300034A13680BB9526877
:1039B00013600020704700BF3802002030B50C466D
:1039C0000E4985B00291D0F8D4110546CDE90031F9
:1039D00000F1F0014FF0FF3320460AF061FE50B9CC
:1039E000012384F86C30D5F8D03123B1204605B0DE
:1039F000BDE83040184705B030BD00BF99C0020097
:103A000038B50C461146054628F048FB034638B940
:103A10002846044928F042FB03460020236038BDB5
:103A20000120FBE7F9AE03002DE9F04F01238146A9
:103A3000056946688FB005F57B77D7E8EF2F002A38
:103A400003D1C7E8E13F0029F7D10CBF1A46002295
:103A500040F0BB80B368B16A05F5F8781C1F1046CA
:103A600028F0A3FB844279D8013A00F0A880B2FA8A
:103A700082F24FF00044D44072682046073222F0B0
:103A80000302C5F83C22B16A28F08FFBC5F840025A
:103A9000B36A40466343033323F0030302EB43025C
:103AA000230103EB4403093323F0030303EBC403B3
:103AB000C5F834221A440832C5F830227368C5F8B4
:103AC0003842C5F82C32424BC5E9AD63316800F08D
:103AD000F1F9044600283FD1D9F810B0D9F804A074
:103AE000D9F800300BF53479059004934846DAE9AB
:103AF0000734012B08BF103C2AF072FEDAF82400CC
:103B0000344904AB009301EB8021234648464FF42F
:103B100080620BF001FE2021DAF824302E4A06A83C
:103B200025F026FC06A948460BF072FE2B490BF542
:103B300030702AF00EFEDAE9050183685C684CB14A
:103B40005B46274AA047044630B9DAE90501836895
:103B50001B692BB96FF05704002129E001327EE781
:103B60000122984704460028F6D11E4B2846C5F886
:103B7000D0311D4BC5F8D4311C4B0393D5F84032DE
:103B80000293D5F83C32CDE9008305F51173B26A92
:103B9000D5F8E81300F056F904460028DCD105F109
:103BA000F0000AF023FE0028C5F8F0030ADB02212A
:103BB000384628F0A7FA20460FB0BDE8F08F6FF026
:103BC0000B04C9E76FF01504C6E76FF07704F2E75E
:103BD000EFC00200B88900207A830300D5C002003C
:103BE000C9C00200F13B000081C2020035C10200E1
:103BF00013B5044640B100230122CDE90032074B42
:103C0000D0E909120AF020FD236F1B6823B1606F11
:103C100002B0BDE81040184702B010BDF9AE030075
:103C200013B504460846216901F57B71D1E8AF1F41
:103C3000022910D193B1A0B10121CDE90031134681
:103C4000D0E909120AF000FD074B984208BF6FF057
:103C50000B0002B010BD6FF00F00FAE76FF04C00E0
:103C6000F7E76FF00100F4E72EF8FFFF2DE9F347C7
:103C700089461546066906F57B73D3E8AF3F022BEC
:103C800064D1136823B96FF0150002B0BDE8F08766
:103C90001B78002BF7D0D6F8E8A3BAF1000F36D185
:103CA00006F5EC774FF0FF324FF0FF3338460BF05C
:103CB0003FFA30462A6801A9FFF7A2FE019C804620
:103CC0001CB9384628F01CFADDE705F10803236724
:103CD000AB6984F86CA06367646460B1384628F00F
:103CE0000FFA21463046A36E2A68FFF767FE0020D0
:103CF000C9F80040C9E71F22296804F148002BF0E9
:103D00005CF8384684F8678028F0FAF9EFE7304627
:103D1000104928F0C3F904460028B4D0002705F163
:103D200008030367AB6980F86C70436740641F2227
:103D3000296848302BF041F822460121304684F8AA
:103D4000677000F061F80028D1D09CE76FF00F0099
:103D50009BE700BFF9AE030010B50C46006900F503
:103D60007B73D3E8AF3F022B0FD189B10A4900F52D
:103D700030702AF01AFD204629F0E3FF7822002156
:103D800020462AF0F0FF002010BD6FF00F00FBE787
:103D90006FF00100F8E700BF943300202DE9F04FE9
:103DA00005460E4690460027D0F8C4A085B0AAF577
:103DB000BE7421463046FCF7E7F9E0B9114BA4F197
:103DC000480B0293DAF810303246CDE900832946D9
:103DD0004FF0FF335846AAF5E2790AF061FC60B96A
:103DE0007823012203FB079383F86C20DAF80C3068
:103DF0000BB158469847783417B105B0BDE8F08F3D
:103E00000127D6E7AFC202001FB5144690B18AB1B0
:103E1000012912D10A4B00F1F0010293D0F8D431FC
:103E2000483201934FF0FF33204600930AF038FCEC
:103E300004B010BD6FF01500FAE70020F8E700BFEE
:103E4000AFC202002DE9F04387B00E46DDE90E81D6
:103E50001446DDE910251F4630B329B3DFF850C002
:103E600000F1F009002D08BF65469EB9CDE9034475
:103E700000F5E274204605962AF0FBF903ABCDE984
:103E800000432A463B46414648460AF027FD07B014
:103E9000BDE8F083002241460E9248462A4607B00C
:103EA000BDE8F0430AF06ABE6FF01500EFE700BF0F
:103EB0009D3D0000F0B504462B4A87B004AB0E468A
:103EC00092E8030083E80300002C49D018460AF06A
:103ED000C1FA0546B0B94FF0FF33E16C04F1540765
:103EE000A163CDE9010000933846236D04F1380247
:103EF00029F0D7FBA06C28F009FAC4F8BC0020B95F
:103F00006FF00B05284607B0F0BDA06C28F0FEF955
:103F1000C4F8C0000028F3D0236CD4F8BC10C4F857
:103F200090300423C4F89430C4F8AC300223E36228
:103F30000E4BB4F84820C4F88C10616C236204F175
:103F40008C03C4F8A070A4F89820C4F8B870C4F822
:103F5000A810A4F8B020C4F8A400A6612363D1E798
:103F60006FF01505CEE700BFD0F70200D4FE0200C7
:103F70002DE9F047044607464FF00109DFF850806D
:103F800014B93846BDE8F08794FAA4F5B5FA85F57A
:103F900009FA05F32E0108EB05156FEA030A24EA76
:103FA00003042B7B002BEBD058F806301B694BB970
:103FB0004644736804222846196807EA0A0728F06D
:103FC0000DFADDE7284698470028D9D1F0E700BF71
:103FD0007CF7020030B5002289B00F490F482AF063
:103FE000A1FD002200230024CDE906230E230C4D61
:103FF000CDE903344FF440722846CDE90144094B22
:10400000094900940BF07AFC084928460BF000FCA3
:10401000204609B030BD00BF31400000E82200203A
:10402000E811002045430000B88D0020868303007E
:1040300001480BF077B900BF880600202DE9F04752
:10404000804621480F4628F0ADF90646002833D0B7
:1040500000252846BDE8F087237B83B12368DB6811
:104060000BB120469847636883F8069023681B6964
:10407000D3B9636804222046196828F0AFF90136E5
:1040800010345445E8D3B8F1000FE2D0002DDFD052
:104090002846FFF76DFF0546002FF7D000214FF4AB
:1040A000A4702AF06BFCF1E7204698470028E0D086
:1040B00009FA06F31D43E2E705464FF00109034CF8
:1040C000DFF80CA0DDE700BFCC3300207CF7020056
:1040D0008CF70200014B53F82000704714FF0200D8
:1040E00008B5034608462BB1044A136000F070FC83
:1040F000002008BD6FF01500FBE700BF6402002040
:1041000010B5044C237813B903480BF00BF90123C5
:10411000237010BD485300208806002010B50446C7
:10412000094828F03FF93CB1084BD3E8EF1F0139AB
:10413000C3E8E21F002AF8D105482AF0FFFCBDE8D9
:10414000104004480BF0EEB8C4330020C833002000
:10415000E82200208806002000200146034BD3E817
:10416000EF0FC3E8E21F002AF9D17047C4330020E3
:1041700070B5FFF7F1FF0546074C084EB44200D377
:1041800070BD63685B792BB123685B6813B1294606
:10419000204698471034F1E77CF702008CF70200C4
:1041A00010B5044C0449204627F087FC034B1C60E3
:1041B00010BD00BF4005002000FF0200BC330020FE
:1041C00000230D4A10B513700C4A4FF400411360E0
:1041D0000B4A0C481360FFF783FFFFF7E1FF0A4B20
:1041E0000A4918468B4200D310BD1A1A5C68121196
:1041F000013222711033F5E749530020C433002007
:10420000C8330020A1C302007CF702008CF7020033
:10421000014600220023014827F070BC4005002021
:10422000014827F009BD00BF40050020024B0146B0
:10423000186827F055BD00BFBC330020014827F0A7
:104240008ABD00BF4005002070B5274B18780028B4
:1042500049D0FFF7E5FF0546002841D1234B244C08
:104260001B68002B19DD2AF016FC4FF47A72A0FBB4
:10427000020302FB0131C30B43EA4143D4E90020AE
:104280009B1A40F2E9324FEAD13161EB00019342CF
:1042900071F1000101D3FFF76BFFD4E9003213F590
:1042A0007A7342F10002C4E90032BDE87040FFF7C2
:1042B000C5BF63685B7923B12368294620461B6824
:1042C00098471034B442F4D32846FFF7AFFF094BA8
:1042D000D3E8EF1F0139C3E8E21F002ABED0F7E799
:1042E000054C064EEEE770BD48530020C433002055
:1042F000E0220020C83300207CF702008CF7020087
:1043000070B50D4D297861B90120FFF797FE0B4C70
:104310000B4EB44206D3FFF797FF0028FBD10123D1
:104320002B7070BD63685B791BB1236820469B6866
:1043300098471034EDE700BF495300207CF7020096
:104340008CF7020000212DE9F0470846FFF776FEC2
:10435000044658B340F267684FF000092AF008FF9E
:104360001B4B1C4A1B58136033B11B4B1B68092B9A
:1043700002DD1A480AF0D6FF0025194FDFF85CA0CD
:1043800044B12046FFF7F4FD044618B94FF0FF385A
:104390004FF0FF39FFF758FF064628B9B5B9424636
:1043A0004B4650460AF0F8FF3546E9E74FF0FF3834
:1043B0004FF0FF39D2E72B689B691BB100222846DA
:1043C000114698471035BD42F5D3E8E7054DFAE7A9
:1043D00008000000C0330020C833002088060020F9
:1043E0008CF702007CF7020013B5184827F0DAFFBB
:1043F000174B1B7873B1EFF31184202383F31288DA
:10440000BFF36F8FFFF720FF84F31188BFF36F8F27
:1044100002B010BD0F4B1B68002BF9D050B9002221
:1044200000230D48CDE900234FF4004200230CF097
:1044300045F8EDE70928EBD107482AF07FFB07484C
:1044400002B0BDE810400AF06DBF00BFC8330020C5
:1044500049530020C0330020E822002088060020B5
:1044600010B5064B04461B6898472146A0600448D7
:1044700027F0C3FBBDE81040FFF7B6BF6402002081
:1044800040050020044A054B9B1AB1EBD30F34BF03
:1044900052F831000020704794F602007CF70200C9
:1044A0002DE9F04F8FB0C1F34A2804AF0D46914675
:1044B000B8607B600C0DB8F1000F63D000264FF0A0
:1044C000040B4FF00A0A07F11403C7F80C80C7E980
:1044D00007667E620193CDF808B0CDF800A007F121
:1044E0001C0332464846F968FEF78EFEB0F5006FB1
:1044F00003461CD36C468AB0D9F8041004AB264896
:104500001A46C3E9050140F2FF71D9614FF4007109
:104510001984224B42F8103F4FF412513346204881
:10452000FFF7BEFFA5462C37BD46BDE8F08FC0F3B0
:104530000A0804F11700184420F0070080083B60C7
:10454000FFF766FE68F35325044690B13B6800F11F
:104550001001C7E9083607F11403F961CDE900A39A
:10456000CDF808B048460F4AF96807F11C03FEF77A
:104570004BFE68F353252A4620467B68B96827F02E
:104580004CFFD0E704F1170020F007008008FFF788
:104590003FFE0446EDE700BF9B83030004000001DB
:1045A00014F70200EFC302002DE9F04F87B0044674
:1045B000DDE9105ADDE91279934698460391BFB1BF
:1045C0003B46524610210020CDF80090CDF81490C3
:1045D000FEF748FCB0F5006F06460AD340F2FF73C1
:1045E0000221174A174807B0BDE8F04F27F06EBF09
:1045F0003E4605F11700304420F007008008FFF721
:1046000007FE04F007040BF0070BE40044EA8B14E8
:1046100044EA462444EA0554054640B13FB13B46CE
:1046200052463146CDF800901030FEF71BFC434651
:1046300022462846039907B0BDE8F04F27F0EDBEAB
:10464000DA83030014F70200406820B1034BC01A5C
:1046500040F3CF0070474FF0FF30704794F60200F0
:104660000EB403B503AB53F8042B01460448019381
:1046700001F0ECFE02B05DF804EB03B0704700BF40
:104680002FC50200CA0605D48B064CBF0249034958
:10469000FFF7E6BF704700BFF8AE0300F7AE0300B8
:1046A0002DE9F04F8BB09B46169B9DF854A00693C6
:1046B000179B04460593189B0D469046199E04933C
:1046C000BAF1000F00F09E8006F00103089306F097
:1046D0000803079306F48073099327F07DFE06F024
:1046E0000209024600283BD020468F49FFF7B8FF59
:1046F0000746B9F1000F08D016F0440F32D12A4610
:1047000020468A49FFF7ACFF0744089B53B1884B0A
:10471000204653F82A20874B8749002A08BF1A46AB
:10472000FFF79EFF099B002B48D0079B002B62D10F
:10473000B8F1000F64D0424620468049FFF790FF51
:104740000546069B3D44002B6BD1049B002B71D189
:10475000F30700F1E28031462046FFF793FFD6E0F1
:104760000746C6E7764B18680028CDD0754B4FF446
:104770007A791B684FF03C0CB5FBF3F5B5FBF0F113
:104780004FF4616300FB115509FB05F5B1FBF3F232
:10479000B5FBF0FE03FB121100FB1E55B1FBFCF351
:1047A00009FB05F5B5FBF0F50CFB13112046009154
:1047B000CDE901E56449FFF753FFA5E7079BEBB19E
:1047C000624B204653F82A206149FFF749FF05460E
:1047D000B8F1000F05D0424620465849FFF740FF88
:1047E0000544BBF1000FACD05A4620465949FFF7AB
:1047F00037FF0544A5E74FF0000BE1E7079DE7E72A
:1048000045469EE7BBF1010F069B06D1002B64D104
:10481000049B002B7BD000250CE0002BF8D04E48E9
:104820005CE04E48069B22464D4926F0CEFF049B95
:10483000002B68D0DFF83881DFF83891049F3146CB
:10484000102F204628BF10274FF0000BFFF71AFF4C
:104850005D4545DC059B494620461A78FFF700FF79
:104860004FF0010B1BF0070F03D141462046FFF725
:10487000F7FE5F453BD9059B4946204613F80B20C0
:10488000FFF7EEFE0BF1010BBBF1100FEAD14FF079
:10489000000B20463349FFF7E3FE5A46059B2046AE
:1048A0009A5CA2F120015F2928BF2E222E49FFF732
:1048B000D7FE0BF1010BBBF1100F1DD01BF0070F42
:1048C00003D141462046FFF7CBFE5F455A46E5D867
:1048D00041462046FFF7C4FEEBE720485546A1E7D6
:1048E00041462046FFF7BCFE0BF1010BB0E7204626
:1048F0001E49FFF7B5FEC5E7059B3B440593049BA6
:10490000DB1B04939AD1BAF1000F7FF421AF20464C
:104910000BB0BDE8F04F27F0FDBD2046054A064923
:10492000FFF79EFE17E700BF178403001B840300F8
:1049300024FF020012840300508F03004084030010
:10494000D4330020D03300202484030038FF020039
:10495000448403004A8403005DC502002FC50200A1
:104960004D6400005584030057840300C1AE03006A
:10497000C3AE03004F84030042F20F7373B58B4242
:1049800028BF0B4605680446052168460D4A24F0F9
:10499000EFFC0646636828460B225B680A4927F04D
:1049A000ABFD63683246694628465B6827F0A4FD84
:1049B00063681B2228465B68044927F09DFD02B00E
:1049C00070BD00BFE68C0300768403005A840300A8
:1049D00000210123064A904206D8064A01B9012364
:1049E0001360054B18607047012140085B00F2E737
:1049F00040420F00D0330020D4330020F8B50D46DC
:104A00000446064F4618B44201D12846F8BD14F8B2
:104A1000011BBB6801485B689847F4E7F4F20200A9
:104A2000014B03600020704780FF020008B5044876
:104A300026F025FFBDE80840024826F020BF00BF51
:104A4000BC840300F1840300014821F06BBF00BF68
:104A500080FF020038B5044618B90F4B0F485B6859
:104A600098476168B1F5683F10D0B1F5680F0DD077
:104A70000B4DA9420AD011F46861206807D00146A5
:104A8000084829F0AFFC00232360656038BD14227C
:104A90002AF069F9F9E700BFBC0400201F85030074
:104AA0002C5F5CA90439002008B560B34368B3F5F6
:104AB000683F0ED0B3F5680F18D0144A934220D047
:104AC00000684FF0FF324FF0FF330AF031FB58B16E
:104AD00015E001220368D3E8EF1F002903D1C3E8E2
:104AE000E02F0028F7D10AD1002008BD0368084A4A
:104AF0001B7803F5807352F82330002BF4D005485F
:104B0000F3E70548F1E76FF4E040EEE72C5F5CA9BE
:104B100000000350E98FFFFFEA8FFFFF08B520B3C5
:104B20004368B3F5683F09D0B3F5680F13D0114A55
:104B300093421DD000680AF073FB14E00022036862
:104B4000D3E8EF1F012903D1C3E8E02F0028F7D1F4
:104B500009D0094808BD00210368084A1B7803F5FD
:104B6000807342F823100020F4E76FF4E040F1E78F
:104B70000348EFE72C5F5CA9E98FFFFF00000350BB
:104B8000EA8FFFFF10B5044618B91D4B1D485B683E
:104B900098476368B3F5683F2FD0B3F5680F2CD002
:104BA000194A934219D1236803BB4FF0FF324FF0EB
:104BB000FF33214615480AF0C9F908B923681BB923
:104BC0000F4B13485B6898471422002120682AF095
:104BD000CAF84FF46863636008E0B3F5683F0DD826
:104BE0003A2B03D040F6BA629342DED1206829F016
:104BF00094FC636843F03A03636010BD054AF3E731
:104C0000BC0400201F8503002C5F5CA90439002030
:104C1000458503003A00003A08B5064940231422AE
:104C2000054829F0D1FBBDE808400449044821F0BB
:104C30003DBF00BF043400200439002088FF02007B
:104C40009CFF0200002370B5136086B005930379C2
:104C500005461446032B03D8DFE803F0051A315C40
:104C6000012006B070BD2D4B09BA049119680023CC
:104C70000422CDE9013300924E69006805AB04A916
:104C8000B0470028ECD1059B00201BBA2360E8E761
:104C90000B0C8DF811304BBA8268ADF812301F4BF7
:104CA000090E1B680192042261F07F0100921E6AC6
:104CB0008DF8101005AB04A90068B047E1E70B0CB4
:104CC0008DF811304BBAADF812300B0E63F07F0344
:104CD0008DF81030114BB1F5405F1B6800681E6AFB
:104CE000AB6801930DD202230422009304A905AB03
:104CF000B047BDF814305BBA2380003818BF0120DC
:104D0000AFE7042205AB009204A9B047059B1BBA8C
:104D10002360F2E7224627F09EFCEEE7F401002034
:104D200030B50379044685B0032B45D8DFE803F09E
:104D300002152540214B12BA03921A6800230093F2
:104D40009569082209BA029120680DEB0201A84773
:104D5000003818BF012005B030BD12BA174B0392BE
:104D6000A2681B6801920422009209BA20685D6A59
:104D7000029103AB02A9A847EAE70BBA02930F4BD3
:104D8000B1F5405F1B6820685D6AA36809D252BA1A
:104D900001930223ADF80C200422009303AB02A977
:104DA000E9E712BA039204220193009203ABF6E7FB
:104DB000204627F06EFCCBE70120CCE7F401002071
:104DC000F0B50C4601790546022987B00ED819487E
:104DD00024BAE1B10168A8680594CDE90030134612
:104DE0004C6A0422286805A9A0471BE003291ED1AC
:104DF000012023F003031E19171BB44212D02146D1
:104E000028463A5D27F045FC60B90434F5E70068B0
:104E1000CDE90111009305941346C4690422286862
:104E200005A9A047003818BF012007B0F0BD012038
:104E3000FBE700BFF40100202DE9F84F06460D46C0
:104E400017464FF0000BDFF89080DFF89090DFF806
:104E500090A0BB4501D3002016E055F82B1005EBC0
:104E60008B0C4145DCF804004FEA8B0211D0494518
:104E700020D0184B994226D1DCE902320146304657
:104E800027F022FC10B10120BDE8F88F0BF1040BD4
:104E9000DFE702F108042B590C3201469B00304633
:104EA0002A440BF1030BFFF78BFF0028EBD12C59A1
:104EB000A344CEE70022DAF800301146DB689847B9
:104EC0000BF1020BC5E702463046FFF729FF002829
:104ED000F6D0D8E7010000800200008003000080C7
:104EE000F401002070B50D46044608B9012070BDDC
:104EF0000029FBD000F110060FCD0FC60FCD0FC655
:104F0000184B95E8030086E803001B6822469B685F
:104F10001549A06998470128E8D001234FF02E7267
:104F2000C4E90F32114A0020A2640322C4E913200D
:104F30006266C4F884204FF4E8524FF4E05562678B
:104F400004220B49E365C4E91551A4F86C0084F808
:104F50006E302367A167E267A4F88C0084F88E00A6
:104F60002360C4E7F4010020F3C602001800030028
:104F7000A48001002DE9F3410368044633F00402E4
:104F800004D10027384602B0BDE8F0814768012F00
:104F900021D1022B1DD10025A846184E85632B4632
:104FA000356805F5C03510359D421ED17268019BEC
:104FB0001A4207D0B168A36B20460B43A36329466E
:104FC00027F0A3FB08F10108B8F1090F06F10C0660
:104FD000E5D100236360A06B0028D2D0E3690BB158
:104FE000216A98470023A363CBE72946204601AAFC
:104FF00027F083FB0028D9D0C4E700BFACFF020034
:10500000F0B5022240F60801D5B00446152627F077
:105010007CFB3A4F00223B681146DB68052098472D
:105020006A4640F60401204627F067FB0546002843
:1050300062D1013E60D0009B9B07EBD5032240F676
:105040000801204627F061FB082320462C4901AACD
:10505000CDE9015527F073FB2A4B06AE1F4603F13D
:10506000280C324618685968083303C2634516464F
:10507000F7D1282306AA2046234927F060FB234BBB
:1050800010AA03F1300C164618685968083303C695
:1050900063453246F7D118681D493423306010AAA1
:1050A000204627F04CFBDC221A491DA829F034FECB
:1050B000DC2319491DAA204627F041FB174AD7F8DF
:1050C0003801516803AB03C39068154918600C237D
:1050D00020460DEB030227F032FB022240F60801C6
:1050E000204627F012FB002240F60801204627F058
:1050F0000CFB284655B0F0BD0125FAE7F40100206D
:10510000AC1004003CF80200A0C8040064F80200DF
:10511000D0C8040098F8020010C9040074F9020015
:105120008C100400F7B5604D04462B6800211B6805
:105130000069984700222B681146DB6802209847D7
:105140002B6801215B686069984700222B68114633
:10515000DB68022098472B6801211B68206998476B
:105160001526524F00222B681146DB680A2098470B
:1051700039466A46204627F0C0FA0146D0B9013EBA
:1051800018D0009B1B07EDD56A46204627F0B5FADC
:1051900080B9009B6A4604212046A36027F0ADFA3F
:1051A00040B9009B10212046E36001AA27F0A5FA30
:1051B000012802D1012003B0F0BD019B002B55D086
:1051C000082B4ED155223021204627F09EFAAA22E4
:1051D0003021204627F099FA55223421204627F025
:1051E00094FAAA223421204627F08FFA44F6685117
:1051F0002F4A204627F089FA44F670512D4A20465E
:1052000027F083FA4FF4803242F2AC41204627F077
:105210007CFA40F2FF5242F2B441204627F075FA80
:1052200042F22041244A204627F06FFA40F215420C
:1052300042F22441204627F068FACC223021204651
:1052400027F063FA33223021204627F05EFACC2281
:105250003421204627F059FA33223421204627F002
:1052600054FA2046FFF7CCFE0128A3D0D4E90C1253
:1052700004F12400FFF7E0FD00289BD101260F4D2B
:10528000E968002301F5C03120462A6901F58871DB
:1052900027F043FA00288DD10136092E05F10C05BF
:1052A000EED10223236086E7F40100201480010080
:1052B0000000B11DB849027015041504ACFF0200CE
:1052C00010B5244C88B024888C420AD9224A009117
:1052D00023460121214827F003F96FF0150008B09B
:1052E00010BD1F4C24789C4205D801211D4A1B4843
:1052F00027F0E3F8F1E700240490CDF81640CDF84C
:105300001A40ADF81E40ADF814100AB9164A1268DA
:1053100006920B9A0292BDF82820ADF80C200022CC
:10532000ADF80E20114A52F8230038B90B4801217C
:105330000F4A27F013FA4FF0FF30D0E702AA04A972
:105340000BF0CEFB0028CAD10C9BBDF80E201A80B2
:10535000C5E700BF36530020728503006CF70200DA
:105360004C530020B0850300383900203439002028
:10537000E085030030B51A4D87B02D789D4208D8DE
:1053800018480121184A27F098F86FF0150007B067
:1053900030BDADF810200022ADF80810ADF8122095
:1053A0009DF83010ADF81420104A01908DF80A10C5
:1053B00052F823000A99039138B90A4801210C4A8E
:1053C00027F0CCF94FF0FF30E1E703AA01A916F06E
:1053D000DDFB0028DBD10B9BBDF812201A80D6E73D
:1053E0004B5300206CF70200B085030020390020E9
:1053F00001860300134607B541F64C5293420DD087
:1054000042F21072934212D00A4801210A4A27F050
:10541000A5F96FF0150003B05DF804FB0122CDE99A
:1054200000013F210023084615F0F8FAF3E70022B7
:10543000F5E700BF6CF70200228603002DE9F04F6C
:105440001C4641F64C5385B09A4206460F469DF8DD
:1054500038B00ED042F210739A4213D01346012195
:105460002F4A304827F07AF96FF0150005B0BDE8F3
:10547000F08F4FF0010944B901212B4A294827F048
:105480001CF8F1E74FF00009F5E745F6C0539C42E0
:105490001DD82346254A0221224827F05FF90DF145
:1054A0000C0A53464A46394630461DF0A3FA204BB3
:1054B00018800F9B188080B10025DFF890805D4533
:1054C00013D11C4B03981C601B4B1D70CEE71B4B6C
:1054D0009C42E4D923461A4ADDE712480121194AC1
:1054E00026F0EBFF4FF0FF30C0E7D8F8003043B1B3
:1054F0000C482B460121144A27F030F96FF0770051
:10550000B4E74A4639463046CDE9003A0BF06CF82C
:1055100048F8040B039801350028D0D0A6E700BF57
:10552000228603006CF702003C86030051860300CC
:1055300036530020383900204C530020FF70020001
:10554000768603009C860300C6860300343900205B
:105550002DE9FF471D4641F64C539A4207468846BF
:105560000ED042F210739A4216D013461848012109
:10557000184A27F0F3F86FF0150004B0BDE8F08783
:105580004FF0010A0024144E0DF10C09AC4206D173
:10559000124B00201C70F0E74FF0000AF2E733686E
:1055A00043B10B48234601210D4A27F0D7F86FF08D
:1055B0007700E2E7524641463846CDE9003916F019
:1055C0003BF946F8040B039801340028DED0D4E7F9
:1055D0006CF7020022860300203900204B53002084
:1055E000E986030038B5044600F098FFB0B1002208
:1055F0000D4951F8323001EBC20583B941F8320050
:105600001A466C60094C54F833100133322B0A44AB
:10561000F9D1074B1968914238BF1A6038BD013281
:10562000322AE6D127F014F940390020443900200D
:105630003C39002010B5044600F08AFF5CB100231D
:10564000084A52F8331002EBC300A14204D10021F2
:1056500042F83310416010BD0133322BF1D127F0F5
:10566000F7F800BF403900202DE9F84F80460C467E
:1056700000AF002965D0D1E90012E9468AB0A368DD
:105680006D464FF0050A2E463748C5E90723C5E9A0
:10569000050146F810AF002332464FF4215133483C
:1056A000FEF7FEFED4E90312CD466369AD463048ED
:1056B000C5E90723C5E90501C5F810A00023324656
:1056C0004FF421512948FEF7EBFECD46E369012155
:1056D000284A264826F0FAFE264600254FF00A0AF8
:1056E000DFF8A0B0E946D6E908E0D6E90A138EB0A3
:1056F0006A46C2F81CE005F1010EC2E908E0A81CE8
:10570000C2E90A01E91CC2E905B5C2E90C1342F875
:1057100010AF002345F2400114480435FEF7C0FEE7
:10572000102DCD4606F11006DCD1236E0121124A60
:105730000E4826F0CBFEA3690121104A0B4826F043
:10574000C5FEB8F1010F07D1EFF305830C4A4146BE
:105750000648103B26F0BAFE2146404609F034FACE
:10576000BD46BDE8F88F00BF1987030054F702005B
:105770004887030077870300C9870300D8870300A1
:10578000068803008687030030BFFFF7FDBF00BF18
:105790002DE9F04105460B4EDFF83080324606EB2E
:1057A0000807CC1B2046084929F0B6FAA019424642
:1057B0000021083C29F0D7FAC5F8A84007F10800F5
:1057C000BDE8F08100000000D0F7020008000000F2
:1057D000054B9A699B689A421FBF044A536843F07D
:1057E00080535360704700BF0C3F002000ED00E085
:1057F00070B52A4C06460D4629482A4926F0BDFFB9
:10580000A36ADB0647D52648274926F0B6FF1120B4
:10581000A36A1C0704D52248244926F0AEFF1220B3
:105820001E4CA36A990712D521491D4826F0A5FFF1
:10583000636BA26A120609D501211E4A184826F098
:1058400045FE1EB1A36A23F08003A3621320134C0C
:10585000A36ADE0704D51248174926F08EFF1420EC
:10586000A36A9C0604D50E48144926F086FF15202D
:105870000A4B9A6AD10658BF9A6A9A6A920642BF40
:105880005A6A22F400525A629A6A42F0FF029A62FD
:1058900000232B7070BD1020BAE700BF00ED00E0C0
:1058A00054F70200198803002F8803006288030060
:1058B000758803008D880300A3880300C288030055
:1058C00010B5244C2449254826F057FFA36A9901B6
:1058D0003ED52248224926F050FF1E20A36ADA0155
:1058E00004D51E481F4926F048FF1F20194CA36A03
:1058F000DB0204D519481C4926F03FFF0220A36AA9
:105900001C0304D51548194926F037FF2120114CF6
:10591000A36A590304D51148154926F02EFF222009
:10592000A36A9A0304D50D48124926F026FF2320C6
:10593000084CA36ADB0304D508480F4926F01DFF75
:105940002420A36A6FEA03436FEA1343A36210BDE6
:105950001D20C3E700ED00E0F188030054F70200CA
:10596000098903001C89030036890300608903004C
:105970007E890300A3890300BD89030070B5294C0B
:1059800006460D462848294926F0F7FEA36AD904A1
:105990003CD52548264926F0F0FE1720A36A1A05B3
:1059A00004D52148234926F0E8FE18201D4CA36A9F
:1059B0009B0512D51C48204926F0DFFEA36BA26A86
:1059C000100409D501211D4A174826F07FFD1EB19C
:1059D000A36A23F40043A3621920124CA36A590559
:1059E00004D51148164926F0C8FE1A20A36ADA0524
:1059F0000ED50D48134926F0C0FE1B20094A936AB4
:105A000043F47F43936200232B7070BD1620C5E7DB
:105A1000A36A9B04F2D504480B4926F0AEFE1C2075
:105A2000ECE700BF00ED00E054F70200E889030056
:105A3000FE890300628803000F8A0300288A03009E
:105A40003D8A0300588A0300C28803002DE9F04113
:105A50009CB0624B0546D3F80480002600AFC8F323
:105A6000080486F31188BFF36F8F02F07F43B3F110
:105A70007F4F07D102F00C03082B12D15849594827
:105A800026F07BFE002635460023FB71E31E092B22
:105A900000F28380DFE803F00A797C7581818181DF
:105AA000817F10074CBF0D460126EDE74E494D485A
:105AB00026F063FE0023494CFB71E36A9A0705D583
:105AC0004A49484826F059FE002431E0E36A002B99
:105AD00001DA4749F5E7E36A5B00F5D545494148F6
