:020000040000FA
:1000000040BB00201D510000E3C402000951000064
:100010000951000009510000095100000951000078
:10002000000000000000000000000000C5520000B9
:100030000951000000000000215200000951000099
:10004000E5540000E5540000E5540000E5540000CC
:10005000E5540000E5540000E5540000E5540000BC
:10006000E5540000E5540000E5540000E5540000AC
:10007000E5540000E5540000E5540000E55400009C
:10008000E5540000E5540000E5540000E55400008C
:10009000E5540000E5540000E5540000E55400007C
:1000A000E5540000E5540000E5540000E55400006C
:1000B000E5540000E5540000E5540000E55400005C
:1000C000E5540000E5540000E5540000E55400004C
:1000D000E5540000E5540000E5540000E55400003C
:1000E000E5540000E5540000E5540000E55400002C
:1000F000E5540000E5540000E5540000E55400001C
:10010000E5540000E5540000E5540000E55400000B
:10011000E5540000E5540000E5540000E5540000FB
:10012000E5540000E5540000E5540000E5540000EB
:10013000E5540000E5540000E5540000E5540000DB
:10014000E5540000E5540000E5540000E5540000CB
:10015000E55400007BB972B90029BEBF00204FF002
:10016000004106E008BF00281CBF6FF000414FF0BF
:10017000FF3000F057B8ADF1080C6DE904CE00294E
:1001800009DB002B1ADB00F069F8DDF804E0DDE99B
:10019000022304B07047404261EB4101002B1BDB9E
:1001A00000F05CF8DDF804E0DDE9022304B0404231
:1001B00061EB4101524263EB43037047524263EBF0
:1001C000430300F04BF8DDF804E0DDE9022304B05E
:1001D000404261EB41017047524263EB430300F040
:1001E0003DF8DDF804E0DDE9022304B0524263EBA0
:1001F0004303704753B94AB9002908BF00281CBF00
:100200004FF0FF314FF0FF3000F00CB8ADF1080CAB
:100210006DE904CE00F022F8DDF804E0DDE9022308
:1002200004B07047704700BF10F8012B11F8013B74
:10023000012A28BF9A42F7D0D01A7047034611F816
:10024000012B03F8012B002AF9D17047034613F85C
:10025000012B002AFBD1181A013870472DE9F0470D
:1002600086468C460846089E154674461946002B5D
:1002700040F0C1808542B2FA82F245D94AB1C2F15A
:10028000200300FA02FC954094402EFA03F343EA5F
:100290000C0C4FEA154EA8B2230CBCFBFEF80EFB6B
:1002A00018CC08FB00F943EA0C43994528D9EB1810
:1002B00008F1FF3704D2994502D9A8F102072B446F
:1002C000A3EB0903A4B2B3FBFEFC0EFB1C330CFB37
:1002D00000F044EA0344A04214D92C190CF1FF3376
:1002E00004D2A04202D9ACF102032C44241A43EAFE
:1002F00007401EB1D440002334607360BDE8F0872E
:100300004746DDE76346F1E792BB431B01214FEA15
:10031000154EAFB2200CB3FBFEFC0EFB1C330CFBE6
:1003200007F840EA0343984561D9EB180CF1FF3018
:1003300004D2984502D9ACF102002B44A3EB080388
:10034000A4B2B3FBFEFC0EFB1C330CFB07F744EA24
:100350000344A7424DD92C190CF1FF3304D2A74214
:1003600002D9ACF102032C44E41B43EA0040C0E78D
:10037000C2F120039540944020FA03F12EFA03F3D2
:100380004FEA154E9040AFB20343B1FBFEFC0EFBAB
:100390001C10190C0CFB07F841EA0041884522D9D2
:1003A00069180CF1FF3004D2884502D9ACF1020083
:1003B0002944A1EB08019BB2B1FBFEFC0EFB1C1112
:1003C0000CFB07F743EA01439F420ED9EB180CF1EF
:1003D000FF3104D29F4202D9ACF102012B44DB1B56
:1003E00041EA004193E76046E3E76146F7E760468C
:1003F000A4E76346B8E7834206D916B90021084648
:100400007CE7C6E900E0F9E7B3FA83F78FB98342E6
:1004100001D3724508D8BEEB020460EB0303012050
:100420009C461EB9002169E73846FAE7C6E9004C48
:10043000F8E7C7F1200CBB400EFA07F522FA0CF4DE
:100440002EFA0CF1BA401C4320FA0CF3B8404FEAE4
:10045000144901431FFA84FEB3FBF9F809FB183075
:100460000B0C08FB0EFA43EA00439A4540D9E31807
:1004700008F1FF3004D29A4502D9A8F102002344C2
:10048000A3EB0A0389B2B3FBF9F809FB183308FBA5
:100490000EFE41EA03418E452CD9611808F1FF3365
:1004A00004D28E4502D9A8F10203214443EA004058
:1004B000A1EB0E01A0FB02984145CE46434602D374
:1004C00006D14D4504D20138B9EB020E68EB0403A6
:1004D000002EA7D0B5EB0E0261EB030101FA0CFC74
:1004E00022FA07F3F9404CEA0303C6E9003199E721
:1004F0004046C5E74346D9E70A46014601482BF086
:1005000079B800BFB675030008B5014605482BF061
:1005100071F80022044B05481A80BDE808402AF013
:1005200013BD00BFE6750300C857002098060020E1
:1005300010B504462DF034FB094BA0FB0330DB0B58
:1005400043EA404001F0E6FE21464FF4A072054820
:100550002EF06AFFBDE8104003482AF0F5BC00BF4A
:1005600040420F000C5900206806002001480EF0A0
:10057000A7BF00BF7831002008B508482BF03AF833
:10058000074BD3E8EF1F0331C3E8E21F002AF8D17D
:10059000BDE8084003480EF093BF00BF007603009B
:1005A000C8310020CC31002008B5002104482AF0D1
:1005B000C0FC20B1BDE8084040B201F041B908BD1F
:1005C000C831002010B50D482AF0BBFCA8B90421A1
:1005D0000B482AF09AFC04460028D4BF00210121D0
:1005E00008482AF0A6FC0849084B0948002CC8BF57
:1005F0001946BDE810402AF0FDBF10BDC4310020EF
:10060000A4F90200B43100201A7603001276030028
:10061000237603002DE9F0430646B3B0394D05AB10
:1006200095E8030083E803001946304607F066FBAF
:10063000044638B1014634482AF0DCFF204633B086
:10064000BDE8F083014614220DA82EF014FFA8681F
:1006500001210190D5F80E00AB8903900620ADF87A
:1006600008306B8A01AAADF81030284B12AD1293F6
:1006700003ACAA606860243315AA01310529136010
:10068000C2E9010403F1240302F10C02F5D14FF099
:1006900001081F4BDFF88890CDE9071509934946FB
:1006A000343307AF0AA8CDF828800B970C930AF0D3
:1006B0000BFA044610B101461648BDE74FF400039B
:1006C000D9F800000AA9CDE90B350A952CF0E2FE15
:1006D000044610B101461048AEE716238DF81C30D1
:1006E000BDF82C3042468DF81D300A9B3946304605
:1006F000089307F071FB044600289FD00146074885
:100700009AE700BF00FF02002D760300B02C002006
:100710005801002065760300887603009D7603006B
:10072000642D0020014603488368DB690BB1012278
:1007300018477047A4F9020010B514482AF001FCCC
:10074000044658B1002111482AF0F3FB10482AF062
:10075000FDFB0020BDE8104001F0A0B801210B48CE
:100760002AF0E7FB0A482AF0F1FB214609482AF063
:10077000E0FB09482AF0E5FB28B107482AF0D9FB3D
:1007800006482AF0E3FB0120E4E700BFC431002063
:1007900078030300B4310020A43100208803030053
:1007A00010B513482AF0CDFB044600BB11482AF0CF
:1007B000C8FB78B121460F482AF0BBFB0E482AF04F
:1007C000C5FB21460D482AF0B4FB0D48BDE810409A
:1007D0002AF010BF012107482AF0ABFB06482AF097
:1007E000B5FB012105482AF0A4FB0648EEE710BD41
:1007F000C4310020A431002088030300B43100205C
:10080000BA760300E3760300062108B505482AF00E
:100810007CFB002804DDBDE8084003480EF050BE14
:1008200008BD00BFA4F90200943100201FB5164B8B
:1008300004461B68834220D1012114482AF086FB1C
:1008400013482AF081FB114800212AF07FFB114850
:100850002AF077FB48B9104A13680133012B136063
:1008600003D901210B482AF064FB204601A908F0B6
:100870005BFF20B9019801F03FFD04B010BD074AAD
:10088000136801331360F8E79C2C0020C8030300B1
:10089000C80600202C2E0020242C0020202C002014
:1008A0002DE9F041314D324E324F8AB04FF0FF32D8
:1008B0004FF0FF3328460EF049FC0022002330465B
:1008C0002BF095FE044618B92B482AF093FEEDE76D
:1008D00000F10C080D2140462BF0BCFE00213846EB
:1008E0002AF027FB10B3EC46244B03F1280E624696
:1008F00018685968083303C273459446F7D1282213
:10090000694640462BF0B7FEDFF888801C4B214635
:10091000B8F8002018682CF00DFB011E12DA1948F7
:100920002AF068FE204605F051F9BFE72822684604
:100930002EF0A1FD144B15481968013119602AF0F9
:1009400059FEDCE7B8F80030114A0133A8F800304E
:10095000136801331360C822B3FBF2F102FB1133B9
:10096000002BA3D1084A1360A0E700BFC8060020EF
:10097000F8060020342E00200F770300625C002070
:100980009C2C00205E770300342C0020327703007B
:10099000302C0020C85700202DE9F04FDFF8E8B1D7
:1009A000ADF2245D4FF0FF324FF0FF336B480EF095
:1009B000CDFB01216A482AF0C9FA002108AE0C4695
:1009C000B04689466748684D2AF0B3FA0DF11C0A13
:1009D00007910DF11A0795F82920E3B2002A00F0DB
:1009E000A78035F8021C002900F0A2804FF4A07205
:1009F0002846CDE90179CDF8008003F027FF0123D7
:100A0000024622B1214659482AF0F4FD0023013460
:100A1000042C25F8029C85F8289085F829900AF87E
:100A2000013B08F5A07805F13005D4D16427DBF847
:100A30000010B1FBF7F407FB14140CBB4C482AF070
:100A4000D9FD4C4DDFF8448195F83330002B7DD132
:100A500095F83210002328461A46994278DC12FB9A
:100A600007F2B2FBF1F240462146D2B201342AF03D
:100A7000C1FD042C05F13405E6D13F482AF0BAFD4A
:100A800000253E4FDFF80891DFF808C1B846002086
:100A9000B9F80030DCF800409BB204EB83120592F9
:100AA00000210A460DF11C0E84191EF801ABBAF1A3
:100AB000000F02D034F911A05244A031B1F5207FCB
:100AC000F3D12F49059C8A42B8BF0A4647F6FF7109
:100AD0008A42A8BF0A46110411FA82F1023044F892
:100AE000041B2028059428F8022BD9D1BCF80C202F
:100AF0000133B3FBF2F102FB113310359BB2A02D91
:100B0000A9F8003006F1200607F12007BED1012127
:100B100014482AF00EFA002111482AF017FA194851
:100B20002AF012FADBF800300133CBF8003039E755
:100B300001220021CDE9017208464FF4A072CDF8E0
:100B4000008003F083FE002302465AE7322181E74A
:100B500010F801CB01336244D2B27EE738060020A0
:100B6000B8030300302E00206E2D00207C77030098
:100B7000A7770300925B00204DB30300CC57002001
:100B80000080FFFF20060020282C0020B6770300FD
:100B90004E5A0020480100202DE9F04F4FF0000888
:100BA000464B474F9E8F474DD7B04FF0FF324FF027
:100BB000FF3338460EF0CAFA012128462AF0C6F95A
:100BC0004FF4A072404906A82EF02EFC3F482AF0B0
:100BD000B8F948B93E482AF0B4F9014620B94FF4B3
:100BE000A07206A82EF047FC00213A482AF0A1F98D
:100BF00088B1394C06A834F9023BB0F9002003EB68
:100C0000D37302EBD2725B10013103EB6203A029B4
:100C100020F8023BEFD12CF0C3FF304B0DF1160B47
:100C200001932823009300234FF4A0711A468146B4
:100C3000CDF808B006A803F0AFFD82462CF0B0FF57
:100C40000446BAF1000F08D0514625482AF0D2FCDC
:100C5000002128462AF07AF9A7E7BBF800108E4257
:100C600003D032461F482AF0C5FC01211E48DFF898
:100C70008CA02AF05EF9002128462AF067F99AF83C
:100C8000003023B119482AF05FF98AF80080184A29
:100C90001368591C11606422B3FBF2F002FB10339D
:100CA000002B82D1134AA4EB0900A0FB0202C00B67
:100CB00040EA424210482AF09DFC76E758010020A5
:100CC00020060020B00303000C590020C43100208E
:100CD000B4310020302E0020CC570020625C002070
:100CE000C3770300E4770300342E0020C8060020F9
:100CF0002C2C002040420F00137803001C0500201C
:100D0000F8B50E46144601252F4B53F8042F904298
:100D100054D12E482AF015F9002852D001212C4830
:100D20002AF014F9002C4DD0238A23B1B37983F033
:100D30000203C3F3400330220027013D6A432548E4
:100D400087520127811881F82A7081F82B30B288E8
:100D50003226CA623421204A01FB052292F8321061
:100D600053543944B1FBF6FC06FB1C1182F83210D7
:100D700009B982F833705BB13023228A6B43282A89
:100D800028BF2822C2520233E16818442EF04CFBDF
:100D90001248D0E8EF3F0133C0E8E23F002AF8D123
:100DA000032B05D900212AF0C4F80D482AF0CCF80D
:100DB000BDE8F840002106482AF0C8B80135052DE5
:100DC000A3D1F8BD2346B6E79C2C00202C2E002092
:100DD000C00303006C2D0020925B0020682D0020D2
:100DE0003806002008B508482AF004FC074BD3E871
:100DF000EF1F0339C3E8E21F002AF8D1BDE808401D
:100E000003480EF05DBB00BF30780300C8310020FE
:100E1000CC3100202DE9F0470021012098B00BF0E3
:100E2000BDFF00F1744404F5A6043CB121469F487F
:100E30002AF0E0FB204618B0BDE8F0879C482AF075
:100E4000D9FB9C482AF0D6FB00F02CFB014650B1A0
:100E500099482AF0CFFB99482AF08CF830B9984885
:100E60002AF0C8FB0CE000F045FBF4E74FF48031BA
:100E700094482AF02BF8014670B193482AF0BAFB47
:100E8000924893492DF0EDFF8C482AF073F8D0B9C1
:100E900090482AF0AFFB25E04FF0E861894829F03F
:100EA000F2FF044610B101468B48E7E78B488C4BB4
:100EB000436010238360FFF735FC214689482AF000
:100EC00038F88948CCE77D482AF054F80028DFD06C
:100ED0004FF48031854829F0F9FF014668B1844814
:100EE0002AF088FB00F018FB8249834800F006FDD9
:100EF0000446E8B1014681489AE74FF4B0118048B2
:100F000029F0E4FF014608B17E48E9E74FF0E861C7
:100F1000764829F0B8FF014608B17B48E0E77B48F6
:100F20007B4B436040238360FFF7FCFB7948B0E7CD
:100F300000F058FD044610B10146774878E700F00C
:100F4000ADFC764876492DF08CFF5C482AF012F80B
:100F500060B974482AF04EFB734E306C01F086F98C
:100F60000446002835D00146704861E753482AF00E
:100F700001F80028EDD04FF480316D4829F0A6FF2C
:100F8000014618B16B482AF035FBE5E74FF4B01184
:100F9000694829F09BFF014608B16848F3E74FF024
:100FA000B861634829F06FFF014608B16448EAE779
:100FB0006448654B436020238360FFF7B3FB634BBA
:100FC000634A1968634B644800290CBF11461946EF
:100FD000D9E7624862492DF044FF384829F0CAFF3A
:100FE00070B960482AF006FB0021B6F84020084698
:100FF00003F06CFC0446002837D001465A4817E736
:101000002E4829F0B7FF0028EBD04FF48031574825
:1010100029F05CFF0028E7D14FF48031544829F0D3
:1010200055FF0028E0D14FF0B861504829F02BFF60
:101030000028D9D14FF0B8614D4829F024FF00288D
:10104000D2D14C484C4B4D4C4360042383604C4BF5
:1010500063600823A360FFF765FB2046FFF762FB90
:10106000032148482AF0C6FABEE70125464B009501
:10107000019310214FF4FA434FF47A50B6F8402010
:1010800003F048FC044610B101464048D0E6042372
:1010900010214FF47A50B6F8402003F0C5FC044606
:1010A000002877D001463A48C2E600BF50780300D6
:1010B0007678030090780300AD780300A4F902006D
:1010C000C278030098030300DD7803009431002008
:1010D000A107000053790300FE780300B831002017
:1010E000C5050000B43100202279030090030300FD
:1010F0007779030031050000480100201C7A0300C5
:10110000880303009D790300C0790300A831002003
:1011100009080000E9790300337A030078310020E0
:10112000390700004B7A030058010020247B03009C
:1011300080030300747A0300780303009F7A03009E
:10114000C07A0300883100206D050000C431002002
:101150004C78030044780300EE7A0300CC31002081
:10116000A90500003E7B0300977B0300A803030052
:10117000A0030300E8310020E50D0000DC31002071
:10118000790500005C7B0300CA570020B57B030093
:10119000D77B030093482AF02DFA93482AF02AFAC5
:1011A0004FF000084FF0000903234FF48052CDE9BF
:1011B0000243CDE90689CDE900448C4B8C49049467
:1011C0008C480EF075FA8C498A480EF0FBF9CDE98F
:1011D00006894FF002084FF48052CDE90248CDE96C
:1011E0000044864B8649049486480EF061FA86498D
:1011F00084480EF0E7F9854821462A462DF0CBFDBC
:10120000204605F0E7FE044610B1014680480FE68F
:10121000804F13AD0FCF0FC53B6821462B6009AA45
:1012200013A806F0E9FC044610B101467A48FFE530
:101230004FF4A0220AAB41F652010CA8CDE90D23D0
:101240000C932BF029FA75490CA82BF02FFA1623D2
:101250008DF83C30BDF8343000948DF83D300C9B57
:101260004246109341F20923ADF844306C4B099883
:1012700012930FA923462BF085FD044610B10146B9
:101280006848D5E50998FFF7C5F9044600287FF4BA
:10129000D1AD09982BF0A8FD044610B10146624873
:1012A000C6E5ADF83C008DF83E000FA9099806F0A0
:1012B000D3FC044610B101465C48B9E55C4A5D4F79
:1012C00011463B46052514460998DFF898E1DFF8FA
:1012D00098C1013DC3E901EC41F8043B03F114035B
:1012E000F7D12B4652F8041B0133896896F83AC0AF
:1012F0004968DBB2052B81F803C0F3D14E49336C4A
:101300000CAA8B60F38F0C608B8108F077FA04468F
:1013100010B1014649488BE50646DFF85091DFF8E9
:1013200050A1DFF85081314648462AF063F94FF06A
:10133000FF324FF0FF3350460DF008FF044610B166
:1013400001463F4874E53146404601362AF052F9DD
:10135000052EE8D100F0E4FFDFF81C81394E294664
:1013600040462AF047F91422002113A82EF083F8F2
:101370000323E9B2003918BF0121384613AA8DF8BA
:101380004D3007F021FE044610B101462E484FE5CE
:101390002946304601352AF02DF9052D07F11407AD
:1013A000DDD100220023CDE9062302234FF4806221
:1013B000CDE90243CDE90044244B25490494254856
:1013C0000EF076F9244923480EF0FCF8234829F062
:1013D000BBFD012000F08EF8014600283FF42AAD45
:1013E0001F4825E5F97B0300157C030099090000DF
:1013F0004064002028090020477C0300990B00006E
:1014000040740020200A0020537C030020060020A6
:101410005F7C030014FF02007F7C0300563412003F
:10142000AA7C0300BD7C0300E67C0300167D03005C
:101430009C2C0020382C002024010020457D030036
:101440006E7C0300E87D0300C57D0300A108000059
:1014500040600020300800200D7E0300C8060020F8
:10146000147E0300080100201C010020647D03009D
:1014700098060020897D0300A77D0300084B1A69A8
:101480001268520148BF80F0010028B19B68DB68F8
:101490004FF08061024818479B681B69F8E700BF5E
:1014A000A4F9020038B5114D2B78C3B9104C204671
:1014B0002DF0F5FAB0B12269A1681368204623F037
:1014C000806313600B684FF4C0221A2198470346CB
:1014D00030B9FFF7D3FF034610B901232B70002367
:1014E000184638BD6FF01203FAE700BF8A5C00208F
:1014F000A4F9020010B5074B04461B7823B120461F
:10150000BDE81040FFF7BABFFFF7CCFF0028F6D0C8
:1015100010BD00BF8A5C002010B521482DF0BFFA35
:1015200030B920482AF066F86FF01204204610BD4A
:101530001D4829F021FD044620B101461B482AF030
:1015400059F8F3E716482DF0AAFA08B91848E9E760
:10155000184829F011FD044610B101461648EEE77F
:101560000F482DF09CFA08B91448DBE7144829F01D
:1015700003FD044610B101461248E0E712482DF081
:101580008EFA08B91148CDE7114829F0F5FC044658
:1015900010B101460F48D2E70F482AF02BF8C5E7F3
:1015A00084F902003A7E0300C0030300597E030061
:1015B000837E0300B8030300A47E0300D07E0300F3
:1015C000B0030300F17E0300A4F902001D7F0300B5
:1015D000C80303003C7F0300667F03002DE9F04150
:1015E0000446DFF8488000EBC105AC4201D1002081
:1015F00017E0D4E90067012E04D138462DF04AFAED
:101600000834F2E73A46314640462AF039FF0346AD
:101610000028F5D004483A46314629F0EBFF6FF038
:101620000400BDE8F08100BFB37F03000832002052
:101630002DE9F8430546002849D04FF000084446FC
:101640006F4E704F3378011F07EB43173C3051F852
:10165000042F1314002BB8BF5B429BB212B29C4202
:10166000B8BF1C46002AB8BF524292B29045B8BFDC
:1016700090468842EBD1DFF8C091D9F80030002BBA
:101680000FDA402C02DCB8F1400F0ADD4445ACBF54
:1016900000210121434622465B48C9F8001029F089
:1016A000A9FFD9F80030002B7BDBDCB2002355F812
:1016B0002320002C7AD1121427F813200133102B89
:1016C000F5D133780133DBB2092B71D833704F4A2F
:1016D0004F4E13784F49DFF86481002B18BF0E4638
:1016E00083F001031370D8F800304B4F002B68D003
:1016F0009A6814885A68A4B2128892B2944260D050
:10170000396861B19B89121B1A4492FBF3F003FB09
:101710001022424892B229F06DFF00233B60B4468C
:10172000D8F800704FEA841E3B6803EB841303F182
:101730004008624618685968083303C24345944616
:10174000F7D138684022002170442DF094FEBB8907
:101750000134B4FBF3F103FB1144BA68A4B2304B7B
:101760001480D3E8EF1F0131C3E8E21F002AF8D14B
:101770003146284600F01AFA014600283ED0294B8F
:101780001A680132052A1A6006D93220B2FBF0F33A
:1017900000FB1323002B31D1BDE8F843224829F088
:1017A00029BF4445ACBF002401247FE712B283E780
:1017B000002333701D4B1B68002B88D011489847BD
:1017C00085E74022002130462DF055FE184BD3E826
:1017D000EF1F0131C3E8E21F002AF8D13B68013353
:1017E0003B60144BD3E8AF1F3A688A42C0D9D3E8B4
:1017F000EF1FC3E8E02F0028BAD0F8E7BDE8F88370
:101800008C5C0020505A0020E77F03008B5C002096
:10181000D832002098320020FC3100201D800300C7
:1018200000320020F43100204D8003009C33002062
:1018300004320020F83100209C0100209833002061
:1018400073B5064644F61801124801AA2AF010FEA4
:1018500018B16FF0040002B070BD9DF8044044F66A
:10186000180104EB4604802CA8BF802424EAE47409
:10187000084844F400722AF003FE05460028E8D127
:101880006310054822463146403B29F0B3FE284606
:10189000E1E700BF083200208480030010B5104B40
:1018A0001B78D3B10F4C38B109210F48FFF796FED2
:1018B0000023236078B110BD0A210C48FFF78EFE8B
:1018C0004FF0FF3323600028F5D10949094829F07A
:1018D00091FE0020EFE70849F8E74FF0FF30EAE714
:1018E0008D5C00209C01002080040300C8040300DC
:1018F0004C780300A88003004478030038B5002822
:1019000053D0002951D02A4D2B78002B4BD1294A96
:101910001060294A29481160294A136000F0E0FA52
:10192000044628B10146274829F064FE204638BD08
:1019300002212548FFF752FE04460028F6D109216E
:101940002248FFF74BFE04460028EFD1042120482F
:10195000FFF744FE04460028E8D10E211D48FFF79A
:101960003DFE04460028E1D109211B48FFF736FE61
:1019700004460028DAD103211848FFF72FFE044659
:101980000028D3D144F6180140F262220B482AF015
:1019900077FD014628B1124829F02CFE6FF00404AF
:1019A000C4E701232B700024C0E76FF01504BDE7E6
:1019B0008E5C0020983300209C33002008320020E9
:1019C0009C010020BE800300D00303003805030003
:1019D00018050300F80303008004030068040300F3
:1019E000DC80030038B5224B1B78002B3CD0214D06
:1019F0002B78002B36D103211F48FFF7EFFD04465B
:101A000028B101461D4829F0F5FD204638BD1C4887
:101A100000F056F800F05AF8044610B10146194893
:101A2000F1E70146402218482DF025FD21464022CD
:101A300016482DF020FD1449154800F091F8044691
:101A400010B101461348DEE71049134800F0AEF824
:101A5000044610B101461148D5E7114829F0CAFDE6
:101A600001232B700024D0E74FF0FF34CDE700BFF7
:101A70008E5C00208D5C0020E003030002810300E7
:101A8000311600001F810300D83200209832002058
:101A9000583300203A810300183300205681030098
:101AA00079810300012908D138B1044A126822B1B2
:101AB000D0E9000100B901B110477047A033002000
:101AC000014B1860704700BFA033002037B51D4D93
:101AD0002B78002B34D14FF0502449F6A633C4F8AC
:101AE0005C350123A361D4F8203153B1002116489D
:101AF00001AA2BF0B1FE002808DA6FF0040003B051
:101B000030BD002121202DF0C1FAECE7019B0F4AE6
:101B10001979186809F03EFF02460028EDD101212D
:101B2000282003F011FC282003F0DEFB084A0949B5
:101B300009480BF0F7FD094B9842DED101232B70C9
:101B40000020DCE78F5C002080050300008002504D
:101B5000A51A0000A0010020C80100200000AD0B64
:101B60001FB50F4C2378012B13D100B989B1102375
:101B7000CDE9010100220B4801A9ADF80C300BF0B2
:101B8000A3FE094B984207D102230020237004B022
:101B900010BD6FF01500FAE76FF00400F7E700BF23
:101BA0008F5C0020C80100200000AD0B1FB50D4B5D
:101BB0001B78022B13D100B989B11023CDE90101A3
:101BC000094801A9ADF80C300BF0F2FE074B984222
:101BD00014BF6FF00400002005B05DF804FB6FF047
:101BE0001500F9E78F5C0020C80100200000AD0B54
:101BF0000146014829F0FEBCAE81030008B5024849
:101C000029F0F8FC012008BDD481030008B5024882
:101C100029F0F0FC012008BDFF81030008B502484F
:101C200029F0E8FC012008BD2B82030008B502481A
:101C300029F0E0FC012008BD5082030008B50248ED
:101C400029F0D8FC012008BD7482030008B50248C1
:101C500029F0D0FC012008BDA782030008B5024886
:101C600029F0C8FC012008BDCC82030008B5024859
:101C700029F0C0FC012008BDFD8203000A4608B51A
:101C80000123C0B203FA00F107484AB18368DB6858
:101C9000984720B10146054829F0ACFC012008BD59
:101CA00083681B69F4E700BFA4F9020020830300E6
:101CB000F8B50125154B164E1960164B16491A60DA
:101CC000164BB7684B6005FA00F38B60FB6904465E
:101CD0000BB90120F8BD2A46304698470028F8D1B4
:101CE000E1B2BC693369002CF3D01B688D401D4202
:101CF00014BF4FF080634FF000734FF0A072304676
:101D0000A047003818BF0120E4E700BFC833002017
:101D1000A4F90200C4330020B8330020211D0000C4
:101D2000B2F5002F08B50AD1054A064B00201B6802
:101D300011689847BDE8084003480DF0CDB908BDCB
:101D4000C4330020C8330020B006002010B5054879
:101D50000DF040F9044618B10146034829F04AFC49
:101D6000204610BDA43300204383030010B54FF07C
:101D7000FF324FF0FF3305480DF0B4F8044618B1B8
:101D80000146034829F036FC204610BDA43300204C
:101D90005F83030010B58AB008460D99042903D06B
:101DA000144829F027FC10E008930C9B00240993A9
:101DB00004AB02930323CDE9040201AACDE9062175
:101DC00001940393FFF7D2FF10B101200AB010BDB8
:101DD00009480A4983681C6802AB1A46A0470146B5
:101DE00008B10748DDE7FFF7B1FF003818BF012051
:101DF000ECE700BF79830300A4FA0200CC050300DE
:101E00009E83030070B50446084E094D4FF0FF3223
:101E10004FF0FF3330460DF099F9204602F016FBE3
:101E20000028F3D0284629F0E5FBEFE7B0060020B4
:101E3000BF83030070B5144601B922B10B4829F0E5
:101E4000D9FB012070BD20EAE0754FF40046214621
:101E500040F2E7304FF47A720023C5FB0601FEF72B
:101E6000C9F92DF013F92046ECE700BFE083030029
:101E700010B58AB008460D99042903D0144829F0FA
:101E8000B9FB11E008930C9B0024099304AB029367
:101E90000323CDE9040201AA0393CDE906210194AD
:101EA000FFF764FF034610B101200AB010BD0948D6
:101EB00009498268146802AAA047014608B1074888
:101EC000DDE7FFF743FF003818BF0120EDE700BF53
:101ED00079830300A4FA0200CC0503000384030005
:101EE000F0B593B007462822002108A82DF0C3FAC8
:101EF0003E482CF09AFE3E482CF0D1FD48B13D48BA
:101F00002CF0CDFD28B13B482CF0C9FD48B93A482A
:101F100000E03A4829F06EFB6FF00504204613B04C
:101F2000F0BD4FF48031364829F03CF804460028D3
:101F3000F4D130482CF0B3FD0028E8D04FF48031C4
:101F4000304829F02FF804460028E7D129482CF022
:101F5000A6FD0028DBD04FF400312B4829F022F8F1
:101F600004460028DAD14FF4A4720023CDE90623F9
:101F70000523CDE90070CDE9020304904FF42F72E0
:101F8000224B234923480DF093FB234921480DF0B0
:101F900019FB04460028C1D138462AF081FA08B15D
:101FA0001E48B7E71E4E08AD0FCE0FC596E80F00CE
:101FB00085E80F001B4B384610931E2308A9119388
:101FC00002F0FCF908B11848A4E7384602F016FB05
:101FD00008B116489EE7B968154A91429ED0154847
:101FE00029F008FB6FF0040498E700BFA433002039
:101FF000A4FA0200A4F90200338403001C84030045
:10200000F0050300E8050300E0050300051E0000DD
:1020100040840020180B0020478403004F840300F5
:10202000A8050300840200206D8403008A84030055
:10203000637A0400A38403004FF050232DE9F74F87
:10204000D3F85C6549F6A633B6B2002E08BF1E462B
:102050004FF00008C246454600244FF0FF324FF0D3
:10206000FF336F480DF072F86E4AD2E8EF3F012B54
:1020700003D1C2E8E14F0029F7D10CBF0127274661
:102080000BD12146684828F0A4FF684B68481A68BD
:10209000684B196829F0AEFADAE7674BD3E8AF4F1F
:1020A000012D11D004D9AB1E012B3CD9474609E0C4
:1020B0005E4B604A21461B681268604829F09AFA14
:1020C000A2460125B846C7E7584B08F101081B682E
:1020D0004345EBD840F24B13A4EB0A01C1F5C332E0
:1020E000574DA032554395FBF3F505F51B442B46A0
:1020F000A63405F5DD5553480094063529F07AFAE3
:10210000B5F5804F04D3504829F074FA0025D9E77B
:102110004FF0502321464D48C3F85C4529F06AFA38
:102120000225A6B2CEE7414B08F101081B684345E2
:10213000BCD8474BD3E8AF8F3E4BB4EB0800D3F885
:10214000009061EB010100294FEA590B21DB4A465F
:102150003B46FDF7FFFF934501DAA2EB09023D483C
:1021600002EBD2723C494FEA6209032D08BF0146D7
:10217000434622463948CDF8009029F03BFA09F54C
:10218000FA73B3F57A7F12D94946354829F032FA05
:1021900098E7B8EB040061EB01014A463B46FDF7C6
:1021A000D9FF5A45C8BFA2EB09025242D7E740F215
:1021B0004B13234C04FB09F494FBF3F43444B4F5BF
:1021C000004F1BDD4BF6FE739C421ADCA4B24FF0AD
:1021D0005023022DC3F85C4589EAE973A3EBE97348
:1021E00012D10F2B3FF76EAF01210F4828F0F1FEFF
:1021F00021461C4829F0FEF9032563E74FF400440B
:10220000E5E74BF6FF74E2E7202BF5DD00210648F9
:1022100028F0DFFE4946144829F0ECF976E700BFC4
:102220000806002014020020CC3300200C020020FD
:10223000DC84030010020020D43300200685030054
:1022400018FCFFFF338503006485030087850300C6
:10225000D0330020CE840300D5840300A985030079
:10226000CC850300EB8503000586030010B5184BF1
:10227000421E9A42014688B005D8164CB4FBF0F2D3
:1022800000FB124434B1144829F0B4F96FF0150082
:1022900008B010BD114B1860114B12481A6029F09C
:1022A000A9F900220023CDE9062301234FF480621F
:1022B000CDE90243CDE900440B4B0C4904940C4892
:1022C0000DF0F6F90B490A480DF07CF92046DFE7DE
:1022D0009F860100A08601002386030010020020D3
:1022E0000C020020418603003920000000870020F6
:1022F000100C002061860300014608B5034828F051
:1023000068FEBDE8084002480CF0E6BED433002069
:10231000080600200146014828F05BBED0330020AB
:1023200008B50121034828F054FEBDE808400248E2
:102330000CF0D2BE14020020080600202DE9F04F58
:1023400091B0009302F004030293C2F3C20301337D
:10235000840705460E46DDF868800392059340F039
:10236000BB81041D30B1072909D86FF01B0011B0E3
:10237000BDE8F08F01F007063444C6F10806009B63
:102380004FF000094FF0040A591E4FF0FF334F463B
:102390000193CB465346CDF810900DB100982060C4
:1023A0000598002800F3E8809848009A824203D3F9
:1023B00097488242C0F0E080039AA4EB050E920792
:1023C0004FEA9E0000F103810F2F00F2B180002D33
:1023D00000F0058107F140020DEB020C019A0CF8A8
:1023E000200C0CF8102C049801300490E7E07A28B7
:1023F0005DD84B280ED8472859D829282DD825280C
:1024000052D054D820287AD02338D0F1000B4BEB8F
:10241000000B74E04C382E2849D8DFE800F07048F3
:10242000484848484848484848484B484848484829
:1024300048484859484B4B595959704B6D4870485A
:10244000184B184848827F4B48484B487F00002073
:102450004FF0000B4FF0040A38E001222A38C0B2D6
:1024600002FA00F010EA0E0F49D110F0625C2FD191
:1024700010EA020B43D06046013C5444B4FBFAF42A
:102480000AFB04F4002D61D0A3EB050CA444B44571
:102490003FF66BAF002868D1042B47D158F8043BB6
:1024A0002360042304342AE0019A013A01924FF098
:1024B000000B24E011F8010C6C2834D1002011F835
:1024C000023C83466C2BC5D14FF0080A5346D3E734
:1024D00008F1070828F00708073424F00704F8E893
:1024E00002AB35B106982044B0423FF63EAFC4E996
:1024F00000AB4FF0000B08344FF0080A534611F8B8
:10250000010F002878D0BBF1000F7FF470AF2528B1
:10251000F5D14FF0010B019B013301934FF0040AF9
:10252000ECE7584694E700208346A5E7082B02D045
:102530006FF015001BE708F1070828F00708B8EC52
:10254000027B84ED007B08230834D8E768B9042BAC
:1025500002D108F10408A4E7082BE9D108F1070823
:1025600028F0070808F10808EDE7059801380590FC
:1025700058F8040B009010E7039A900720D54FF00D
:10258000010CA4EB050E4FEA9E00BEF5007FCFD2F2
:102590000F2FCDD8F5B107F140020DEB020E019AD5
:1025A000C0B20EF8200C0EF8102CBCF1000F3FF456
:1025B0001AAF60F07F000EF8200C09F10109013715
:1025C000C5F108024FF6DA7E0434069297E74FF021
:1025D000000CDAE7BCF1000F01D00136EFE7029AF8
:1025E0000236002AEBD10098CDE90631FDF72EFE28
:1025F000DDE906310644E2E7631BB3F5806F97D24D
:1026000045B9A6F10804E018B1E600BF94F802004D
:102610009CBD0300029A9B0828602B709DF8103027
:10262000C2B1EB7085F80290B9F1000F05D000221D
:1026300008A8C5F1010C97420ED14FF0000AC5F170
:1026400001030DF1200801930DF1300B574512D114
:10265000601B8CE66B70E5E710F8013B190608D5A6
:102660000CEB040EB64503F07F033FF67EAE04F894
:10267000013B0132DFE7B9F1000F03D098F90020E8
:10268000002A17DB029BD3B11AF80B2004F8012BA8
:102690000022019B18191044B0423FF666AE98F82C
:1026A0000000009904F8010B204603922CF0BCFEB8
:1026B000039A14440AF1010A08F10108C6E798F8E0
:1026C000002055F822300093029B009845F82230F4
:1026D000FDF7BCFD421CDCE76FF00D0047E600BFD4
:1026E0002DE9F04F97B000AFD7F880B03B62CBF345
:1026F000C0030446894690F802A0FA62BB6141B962
:10270000457800780AEB800020444D4517D8A0EBAF
:102710000409E378FB61BAF1000F02D01BF0010F4E
:1027200016D1FB6953BBFB6A1BB1494620463A6A86
:1027300098474D4628465C37BD46BDE8F08F461C9D
:102740003046FDF783FD0130304409F10109DCE733
:10275000626823787A62FA6A9900796104EB8301EE
:10276000002A40F001810E464FF000084D4601EB73
:102770000A094E454CD101EB0A0610E01BF0020F8E
:10278000D1D023789A007A61626804EB83017A627F
:10279000FA6A002A77D14D46904601EB0A061BF0F3
:1027A000050F0CBF02230123FB62FB6906EB430A02
:1027B0000BF00203BB625645BCD016F8021B16F89C
:1027C000013C54F82390994B994502D3984B994575
:1027D00036D3BB69002B40D0786A28F0E2FE00288F
:1027E0003BD0E9468AB06A46924B53617B6AC2E9A4
:1027F00006314FF4007313848F4B42F8103F0023CF
:102800004FF412518D4801F0B7F8023DCD46D2E7A2
:1028100016F8013BF96254F82300FDF717FDD7F8CD
:102820008430F96A01304BB1D7F8883098453EBF03
:10283000D7F8843023F8180008F10108054498E718
:10284000BB6923B1786A28F0ACFE0028C9D11BF01F
:10285000010F05D1FB6AED1AADE7BB6A002BAAD0C8
:102860004846FDF7F3FCD7F8843053B1D7F88830E9
:1028700098453FBFD7F88420431C22F8183008F150
:102880000108054497E7BAF1000F73D01BF0040666
:1028900073D0D046002607F1480052463B61B9622A
:1028A0002CF0C2FDB96A3B6901EB0A02BA62FA690F
:1028B000F9695200FA60BA6A02EB41023A610BF020
:1028C0000202BA603A69B96A8A4258D162781BF04A
:1028D000020F18BF00217A6208BF4FEA5801B218F0
:1028E0001BF0010FD2B240F09F801BF0040F14BF09
:1028F00040460020BB616270A070E17020463A6AD9
:102900007969FB6A9847051EFFF614AFBB6941461B
:1029100023707B6A3A6A6370FB6984F802A0E370F3
:1029200007F14800FB6A9847B0F10008C0F2BA808E
:102930007B69A9EB0A01C91AFB683A6AC91AD7E987
:102940000A0398470028C0F2AF804FF0000BA8445C
:1029500008EB000507F1380AB34571D300213A6A44
:102960000846FB6A9847E5E656464FF0000807F12F
:10297000380092E75646D04696E7B04694E7BA6AE2
:1029800012F8021B12F8015CBA6254F82500274ABB
:10299000904202D3264A90421ED3BA6932B1786A75
:1029A0007B6028F0FEFD7B6800288BD1BA6802BBF3
:1029B00008F1280207F1300C08F10100944407F1F6
:1029C000580208F1020852FA80F00CF8101C5FFA65
:1029D00088F800F8105C75E7BA693AB1786A7B60EC
:1029E00028F0DFFD7B6800287FF46CAF1BF0010F3F
:1029F00009D006F1280207F13000711C161806F8FC
:102A0000205CCEB25EE71BF0040F3FF45BAF08F131
:102A1000280207F1300008F1010102EB000808F874
:102A2000105C5FFA81F84DE7002063E794F802003C
:102A30009CBD03006A8603000400000124FE02001E
:102A40001BF80A3054F8239087F83730D7F88430D1
:102A50002BB3D7F888309B4521D2D7F8843033F890
:102A60001B8001213A6AFB6A07F13700984700286A
:102A70001ADB0544B8F1000F06D14846FDF7E6FB26
:102A800000F101081FFA88F8414648463A6AFB6A95
:102A90009847002808DB05440BF1010B5CE74FF079
:102AA0000008DEE7454645E6054643E6014B18606B
:102AB000704700BF1802002080B505460E46174635
:102AC00098460DF0BBF803462CF0DAFE0446DFF81A
:102AD0001890424649F8003039463046A84754F825
:102AE000090002F087FB00BF080000002DE9F04755
:102AF000058B04462807904611D4022905F00705E6
:102B000040F0CC80204628F0FAFF78B10138218BC4
:102B1000042811D8DFE800F0C2106D859500012966
:102B20000CBF45F0100545F02005258388F311887A
:102B3000BFF36F8FBDE8F08701F0070AAA4500F0E8
:102B4000A5800027B9463E46A368002B00F0BC8054
:102B500041F00801218388F31188BFF36F8FA168CA
:102B6000002900F0BA800D68002900F0B6803346D5
:102B700052462046D1F80480C047002D76D02B68FD
:102B800029461D46F0E701F007035A1F012A1BD80A
:102B9000002221F00701062B276889B2C4E9002230
:102BA00009D13B4603E0628B013262831B68002B34
:102BB000F9D141F002012046218328F0A0FF00282E
:102BC0007AD041F0200176E0042B0AD121F00701F0
:102BD00089B22046218328F092FF10B141F02001F4
:102BE0002183218B01F0070AAA454FD00027B9465F
:102BF000AAE7236921F0070141F00601062DD3F869
:102C0000009021832DD1B9F1000F3FD041F0080190
:102C1000218388F31188BFF36F8F20463949C84755
:102C200029E021F00701236941F0040189B2042D54
:102C3000D3F804902183E6D000274FF0040A3E46E3
:102C400082E721F00701236941F0050189B2052DD2
:102C5000D3F808902183D6D000274FF0050A3E46CE
:102C600072E700274FF0060A3E466DE72B4687E7DE
:102C7000B9F1000FD1D1EFF31188202383F312882B
:102C8000BFF36F8F238B23F008032383258BEA0682
:102C90002ED525F01003238305F007056669218BE7
:102CA000002EBFF670AF00232768C4E9003321F07F
:102CB000070141F001012183218B4FF0000901F050
:102CC000070AAA457FF440AF002F9CD041F00801CD
:102CD000218388F31188BFF36F8F002FC8D03D6820
:102CE000394633465246204628F035FF2F46F4E752
:102CF000AB067FF51BAF25F02003238305F0070506
:102D000000E700BF83BB020010B530B90B480C4987
:102D100029F001F86FF0150010BD836833B907483A
:102D2000084928F0F8FF6FF00400F5E71B6813B1BD
:102D3000BDE8104018471846EEE700BF3CFE020011
:102D40001E8703002F87030010B530B90B480C49CC
:102D500028F0E1FF6FF0150010BD836833B9074814
:102D6000084928F0D8FF6FF00400F5E75B6813B15D
:102D7000BDE8104018471846EEE700BF3CFE0200D1
:102D80001E8703002F87030070B508B101B132B967
:102D90000B480C4928F0BFFF6FF0150070BD846828
:102DA0000CB1E56835B90648074928F0B4FF6FF063
:102DB0000400F3E741F8040BE368BDE870401847EE
:102DC0003CFE02004D8703002F87030010B5044628
:102DD00030B91048104928F09EFF6FF0150010BD63
:102DE000006830B90B480D4928F095FF6FF00100DD
:102DF000F5E783680BB11B6933B90648084928F029
:102E00008AFF6FF00400EAE7616898470028E6D17E
:102E10002060E4E73CFE0200798703008A87030014
:102E20002F87030070B51346044630B91048114986
:102E300028F071FF6FF0150070BD006830B90C48C4
:102E40000D4928F068FF6FF00100F5E782680AB1CC
:102E5000956835B90648094928F05DFF6FF0040010
:102E6000EAE70A46AC466168BDE87040604700BFCB
:102E70003CFE0200798703008A8703002F87030046
:102E8000034A13680BB9526813600020704700BFF3
:102E90001C02002030B50C460E4985B00291D0F8D6
:102EA000D4110546CDE9003100F1F0014FF0FF33B8
:102EB00020460BF093FB50B9012384F86C30D5F811
:102EC000D03123B1204605B0BDE83040184705B0E9
:102ED00030BD00BF0FBE020038B50C461146054696
:102EE00028F097FF034638B92846044928F091FF97
:102EF00003460020236038BD0120FBE74EB30300EA
:102F00002DE9F04F01238146056946688FB005F52C
:102F10007B77D7E8EF2F002A03D1C7E8E13F0029EC
:102F2000F7D10CBF1A46002240F0BB80B368B16AEB
:102F300005F5F8781C1F104628F0F2FF844279D876
:102F4000013A00F0A880B2FA82F24FF00044D44077
:102F500072682046073222F00302C5F83C22B16AAB
:102F600028F0DEFFC5F84002B36A404663430333EE
:102F700023F0030302EB4302230103EB4403093371
:102F800023F0030303EBC403C5F834221A440832C8
:102F9000C5F830227368C5F83842C5F82C32424B68
:102FA000C5E9AD63316800F0F1F9044600283FD16E
:102FB000D9F810B0D9F804A0D9F800300BF534795D
:102FC000059004934846DAE90734012B08BF103C0A
:102FD0002BF08EFFDAF82400344904AB009301EBA8
:102FE0008021234648464FF480620CF06FFA20217E
:102FF000DAF824302E4A06A826F094F806A94846A6
:103000000CF0E0FA2B490BF530702BF02AFFDAE9CF
:10301000050183685C684CB15B46274AA0470446BB
:1030200030B9DAE9050183681B692BB96FF05704E1
:10303000002129E001327EE701229847044600285A
:10304000F6D11E4B2846C5F8D0311D4BC5F8D431FA
:103050001C4B0393D5F840320293D5F83C32CDE9AE
:10306000008305F51173B26AD5F8E81300F056F93C
:1030700004460028DCD105F1F0000BF055FB0028D8
:10308000C5F8F0030ADB0221384628F0F6FE204698
:103090000FB0BDE8F08F6FF00B04C9E76FF01504B7
:1030A000C6E76FF07704F2E765BE0200008B0020F0
:1030B000AF8703004BBE02003FBE0200C9300000D4
:1030C000F7BF0200ABBE020013B5044640B10023B7
:1030D0000122CDE90032074BD0E909120BF052FA78
:1030E000236F1B6823B1606F02B0BDE81040184722
:1030F00002B010BD4EB3030013B504460846216963
:1031000001F57B71D1E8AF1F022910D193B1A0B1B5
:103110000121CDE900311346D0E909120BF032FA52
:10312000074B984208BF6FF00B0002B010BD6FF064
:103130000F00FAE76FF04C00F7E76FF00100F4E7DB
:103140002EF8FFFF2DE9F34789461546066906F577
:103150007B73D3E8AF3F022B64D1136823B96FF0C0
:10316000150002B0BDE8F0871B78002BF7D0D6F829
:10317000E8A3BAF1000F36D106F5EC774FF0FF3235
:103180004FF0FF3338460BF0ADFE30462A6801A9F8
:10319000FFF7A2FE019C80461CB9384628F06BFE62
:1031A000DDE705F108032367AB6984F86CA063676A
:1031B000646460B1384628F05EFE21463046A36E56
:1031C0002A68FFF767FE0020C9F80040C9E71F2200
:1031D000296804F148002CF078F9384684F86780B3
:1031E00028F049FEEFE73046104928F012FE044669
:1031F0000028B4D0002705F108030367AB6980F805
:103200006C70436740641F22296848302CF05DF9D8
:1032100022460121304684F8677000F061F80028EA
:10322000D1D09CE76FF00F009BE700BF4EB30300C7
:1032300010B50C46006900F57B73D3E8AF3F022B55
:103240000FD189B10A4900F530702BF036FE2046C7
:103250002BF04FF97822002120462CF00CF90020A9
:1032600010BD6FF00F00FBE76FF00100F8E700BF43
:10327000D83300202DE9F04F05460E469046002732
:10328000D0F8C4A085B0AAF5BE7421463046FCF73C
:10329000CBFFE0B9114BA4F1480B0293DAF81030E0
:1032A0003246CDE9008329464FF0FF335846AAF550
:1032B000E2790BF093F960B97823012203FB0793BD
:1032C00083F86C20DAF80C300BB158469847783404
:1032D00017B105B0BDE8F08F0127D6E725C0020081
:1032E0001FB5144690B18AB1012912D10A4B00F1E1
:1032F000F0010293D0F8D431483201934FF0FF33FC
:10330000204600930BF06AF904B010BD6FF0150071
:10331000FAE70020F8E700BF25C002002DE9F043DE
:1033200087B00E46DDE90E811446DDE910251F4603
:1033300030B329B3DFF850C000F1F009002D08BF09
:1033400065469EB9CDE9034400F5E2742046059632
:103350002BF067FB03ABCDE900432A463B464146D1
:1033600048460BF059FA07B0BDE8F0830022414609
:103370000E9248462A4607B0BDE8F0430BF09CBBCE
:103380006FF01500EFE700BF75320000F0B504469E
:103390002B4A87B004AB0E4692E8030083E8030093
:1033A000002C49D018460AF0F3FF0546B0B94FF09B
:1033B000FF33E16C04F15407A163CDE901000093F0
:1033C0003846236D04F138022AF043FDA06C28F042
:1033D00058FEC4F8BC0020B96FF00B05284607B0B2
:1033E000F0BDA06C28F04DFEC4F8C0000028F3D05A
:1033F000236CD4F8BC10C4F890300423C4F8943083
:10340000C4F8AC300223E3620E4BB4F84820C4F891
:103410008C10616C236204F18C03C4F8A070A4F8D2
:103420009820C4F8B870C4F8A810A4F8B020C4F864
:10343000A400A6612363D1E76FF01505CEE700BFB6
:1034400028FF0200240603002DE9F0470446074642
:103450004FF00109DFF8508014B93846BDE8F08715
:1034600094FAA4F5B5FA85F509FA05F32E0108EBEF
:1034700005156FEA030A24EA03042B7B002BEBD02B
:1034800058F806301B694BB9464473680422284635
:10349000196807EA0A0728F05CFEDDE72846984726
:1034A0000028D9D1F0E700BFACFE020030B5002201
:1034B00089B00F490F482BF0BDFE002200230024E5
:1034C000CDE906230E230C4DCDE903344FF44072B1
:1034D0002846CDE90144094B094900940CF0E8F86D
:1034E000084928460CF06EF8204609B030BD00BFF0
:1034F0000935000000220020001100201D380000C6
:10350000008F0020BB87030001480BF0E5BD00BF22
:10351000500600202DE9F047804621480F4628F04C
:10352000FCFD0646002833D000252846BDE8F0877C
:10353000237B83B12368DB680BB12046984763681F
:1035400083F8069023681B69D3B963680422204678
:10355000196828F0FEFD013610345445E8D3B8F15F
:10356000000FE2D0002DDFD02846FFF76DFF0546A3
:10357000002FF7D000214FF4A4702BF087FDF1E766
:10358000204698470028E0D009FA06F31D43E2E7F9
:1035900005464FF00109034CDFF80CA0DDE700BF42
:1035A00010340020ACFE0200BCFE0200014B53F8B8
:1035B000200070476406030008B5034608462BB197
:1035C000044A136000F070FC002008BD6FF0150085
:1035D000FBE700BF4802002010B5044C237813B964
:1035E00003480BF079FD0123237010BD905C00208F
:1035F0005006002010B50446094828F08EFD3CB165
:10360000084BD3E8EF1F0139C3E8E21F002AF8D1C5
:1036100005482BF01BFEBDE8104004480BF05CBDD4
:10362000083400200C340020002200205006002026
:1036300000200146034BD3E8EF0FC3E8E21F002A46
:10364000F9D170470834002070B5FFF7F1FF054647
:10365000074C084EB44200D370BD63685B792BB150
:1036600023685B6813B12946204698471034F1E778
:10367000ACFE0200BCFE020010B5044C044920461A
:1036800028F0D6F8034B1C6010BD00BF38050020A1
:10369000500603000034002000230D4A10B51370BB
:1036A0000C4A4FF4004113600B4A0C481360FFF7BB
:1036B00083FFFFF7E1FF0A4B0A4918468B4200D30C
:1036C00010BD1A1A5C681211013222711033F5E72D
:1036D000915C0020083400200C34002017C1020047
:1036E000ACFE0200BCFE020001460022002301489D
:1036F00028F0BFB838050020014828F058B900BFAD
:1037000038050020024B0146186828F0A4B900BF14
:1037100000340020014828F0D9B900BF3805002046
:1037200070B5274B1878002849D0FFF7E5FF05460C
:10373000002841D1234B244C1B68002B19DD2BF0B2
:1037400032FD4FF47A72A0FB020302FB0131C30B7E
:1037500043EA4143D4E900209B1A40F2E9324FEAA0
:10376000D13161EB0001934271F1000101D3FFF708
:103770006BFFD4E9003213F57A7342F10002C4E919
:103780000032BDE87040FFF7C5BF63685B7923B1C5
:103790002368294620461B6898471034B442F4D366
:1037A0002846FFF7AFFF094BD3E8EF1F0139C3E805
:1037B000E21F002ABED0F7E7054C064EEEE770BDCB
:1037C000905C002008340020F82100200C340020F8
:1037D000ACFE0200BCFE020070B50D4D297861B947
:1037E0000120FFF797FE0B4C0B4EB44206D3FFF7B8
:1037F00097FF0028FBD101232B7070BD63685B79B4
:103800001BB1236820469B6898471034EDE700BF42
:10381000915C0020ACFE0200BCFE020000212DE9FC
:10382000F0470846FFF776FE044658B340F2676853
:103830004FF000092CF024F81B4B1C4A1B58136056
:1038400033B11B4B1B68092B02DD1A480BF044FCFB
:103850000025194FDFF85CA044B12046FFF7F4FDC6
:10386000044618B94FF0FF384FF0FF39FFF758FF03
:10387000064628B9B5B942464B4650460BF066FCA1
:103880003546E9E74FF0FF384FF0FF39D2E72B68B4
:103890009B691BB100222846114698471035BD424E
:1038A000F5D3E8E7054DFAE70800000004340020EE
:1038B0000C34002050060020BCFE0200ACFE0200CA
:1038C00013B5184828F029FC174B1B7873B1EFF398
:1038D0001184202383F31288BFF36F8FFFF720FF3B
:1038E00084F31188BFF36F8F02B010BD0F4B1B68BC
:1038F000002BF9D050B9002200230D48CDE9002358
:103900004FF4004200230CF0B3FCEDE70928EBD1A3
:1039100007482BF09BFC074802B0BDE810400BF0B5
:10392000DBBB00BF0C340020915C0020043400207D
:10393000002200205006002010B5064B04461B68EC
:1039400098472146A060044828F012F8BDE81040CE
:10395000FFF7B6BF4802002038050020044A054B97
:103960009B1AB1EBD30F34BF52F8310000207047DF
:10397000A4FD0200ACFE02002DE9F04F8FB0C1F3B0
:103980004A2804AF0D469146B8607B600C0DB8F133
:10399000000F63D000264FF0040B4FF00A0A07F126
:1039A0001403C7F80C80C7E907667E620193CDF85F
:1039B00008B0CDF800A007F11C0332464846F9686C
:1039C000FEF78EFEB0F5006F03461CD36C468AB03E
:1039D000D9F8041004AB26481A46C3E9050140F2A1
:1039E000FF71D9614FF400711984224B42F8103FE6
:1039F0004FF4125133462048FFF7BEFFA5462C373F
:103A0000BD46BDE8F08FC0F30A0804F11700184462
:103A100020F0070080083B60FFF766FE68F353253F
:103A2000044690B13B6800F11001C7E9083607F180
:103A30001403F961CDE900A3CDF808B048460F4A58
:103A4000F96807F11C03FEF74BFE68F353252A467D
:103A500020467B68B96828F09BFBD0E704F117008B
:103A600020F007008008FFF73FFE0446EDE700BFA7
:103A7000D08703000400000144FE020065C102007B
:103A80002DE9F04F87B00446DDE9105ADDE91279DF
:103A9000934698460391BFB13B4652461021002001
:103AA000CDF80090CDF81490FEF748FCB0F5006F0B
:103AB00006460AD340F2FF730221174A174807B09F
:103AC000BDE8F04F28F0BDBB3E4605F1170030447D
:103AD00020F007008008FFF707FE04F007040BF052
:103AE000070BE40044EA8B1444EA462444EA0554F4
:103AF000054640B13FB13B4652463146CDF80090B5
:103B00001030FEF71BFC434622462846039907B0B7
:103B1000BDE8F04F28F03CBB0F88030044FE0200D4
:103B2000406820B1034BC01A40F3CF0070474FF0FC
:103B3000FF307047A4FD02000EB403B503AB53F889
:103B4000042B01460448019301F0ECFE02B05DF83D
:103B500004EB03B0704700BFA5C20200CA0605D43B
:103B60008B064CBF02490349FFF7E6BF704700BF11
:103B70004DB303004CB303002DE9F04F8BB09B46CF
:103B8000169B9DF854A00693179B04460593189B1B
:103B90000D469046199E0493BAF1000F00F09E80E6
:103BA00006F00103089306F00803079306F48073F8
:103BB000099328F0CCFA06F00209024600283BD00F
:103BC00020468F49FFF7B8FF0746B9F1000F08D02C
:103BD00016F0440F32D12A4620468A49FFF7ACFF3F
:103BE0000744089B53B1884B204653F82A20874B43
:103BF0008749002A08BF1A46FFF79EFF099B002B42
:103C000048D0079B002B62D1B8F1000F64D0424628
:103C100020468049FFF790FF0546069B3D44002B58
:103C20006BD1049B002B71D1F30700F1E280314688
:103C30002046FFF793FFD6E00746C6E7764B1868A5
:103C40000028CDD0754B4FF47A791B684FF03C0CAF
:103C5000B5FBF3F5B5FBF0F14FF4616300FB1155D3
:103C600009FB05F5B1FBF3F2B5FBF0FE03FB121106
:103C700000FB1E55B1FBFCF309FB05F5B5FBF0F5A8
:103C80000CFB131120460091CDE901E56449FFF7D3
:103C900053FFA5E7079BEBB1624B204653F82A2060
:103CA0006149FFF749FF0546B8F1000F05D04246CC
:103CB00020465849FFF740FF0544BBF1000FACD048
:103CC0005A4620465949FFF737FF0544A5E74FF00C
:103CD000000BE1E7079DE7E745469EE7BBF1010FD3
:103CE000069B06D1002B64D1049B002B7BD00025C2
:103CF0000CE0002BF8D04E485CE04E48069B224674
:103D00004D4927F01DFC049B002B68D0DFF838815B
:103D1000DFF83891049F3146102F204628BF102726
:103D20004FF0000BFFF71AFF5D4545DC059B494648
:103D300020461A78FFF700FF4FF0010B1BF0070F2A
:103D400003D141462046FFF7F7FE5F453BD9059B6F
:103D50004946204613F80B20FFF7EEFE0BF1010B4E
:103D6000BBF1100FEAD14FF0000B20463349FFF7AB
:103D7000E3FE5A46059B20469A5CA2F120015F298A
:103D800028BF2E222E49FFF7D7FE0BF1010BBBF106
:103D9000100F1DD01BF0070F03D141462046FFF73F
:103DA000CBFE5F455A46E5D841462046FFF7C4FEA4
:103DB000EBE720485546A1E741462046FFF7BCFE09
:103DC0000BF1010BB0E720461E49FFF7B5FEC5E732
:103DD000059B3B440593049BDB1B04939AD1BAF1EA
:103DE000000F7FF421AF20460BB0BDE8F04F28F064
:103DF0004CBA2046054A0649FFF79EFE17E700BF6A
:103E00004C880300508803007406030047880300B1
:103E1000A793030075880300183400201434002091
:103E20005988030088060300798803007F8803000F
:103E3000D3C20200A5C20200255900008A880300EF
:103E40008C88030016B3030018B3030084880300B2
:103E500042F20F7373B58B4228BF0B4605680446C8
:103E6000052168460D4A25F05DF906466368284637
:103E70000B225B680A4928F0FAF963683246694602
:103E800028465B6828F0F3F963681B2228465B68C4
:103E9000044928F0ECF902B070BD00BF3D91030069
:103EA000AB8803008F88030000210123064A90425B
:103EB00006D8064A01B901231360054B1860704704
:103EC000012140085B00F2E740420F00143400205B
:103ED00018340020F8B50D460446064F4618B44283
:103EE00001D12846F8BD14F8011BBB6801485B6886
:103EF0009847F4E704FA0200014B03600020704782
:103F0000D006030008B5044827F074FBBDE808405C
:103F1000024827F06FBB00BFF18803002689030029
:103F2000014822F0D9BB00BFD006030038B50446D3
:103F300018B90F4B0F485B6898476168B1F5683F47
:103F400010D0B1F5680F0DD00B4DA9420AD011F475
:103F50006861206807D0014608482AF01BFE00234C
:103F60002360656038BD14222BF085FAF9E700BFA5
:103F7000B4040020548903002C5F5CA94839002058
:103F800008B560B34368B3F5683F0ED0B3F5680F6A
:103F900018D0144A934220D000684FF0FF324FF0FF
:103FA000FF330AF09FFF58B115E001220368D3E800
:103FB000EF1F002903D1C3E8E02F0028F7D10AD171
:103FC000002008BD0368084A1B7803F5807352F887
:103FD0002330002BF4D00548F3E70548F1E76FF4F0
:103FE000E040EEE72C5F5CA900000350E98FFFFF83
:103FF000EA8FFFFF08B520B34368B3F5683F09D0E7
:10400000B3F5680F13D0114A93421DD000680AF02F
:10401000E1FF14E000220368D3E8EF1F012903D178
:10402000C3E8E02F0028F7D109D0094808BD0021D6
:104030000368084A1B7803F5807342F823100020B8
:10404000F4E76FF4E040F1E70348EFE72C5F5CA989
:10405000E98FFFFF00000350EA8FFFFF10B5044611
:1040600018B91D4B1D485B6898476368B3F5683FF6
:104070002FD0B3F5680F2CD0194A934219D1236879
:1040800003BB4FF0FF324FF0FF33214615480AF0D3
:10409000FBFE08B923681BB90F4B13485B689847B0
:1040A0001422002120682BF0E6F94FF46863636066
:1040B00008E0B3F5683F0DD83A2B03D040F6BA625A
:1040C0009342DED120682AF0B0FD636843F03A03E2
:1040D000636010BD054AF3E7B4040020548903006F
:1040E0002C5F5CA9483900207A8903003A00003A25
:1040F00008B506494023142205482AF03DFDBDE8D5
:1041000008400449044822F0ABBB00BF48340020FB
:1041100048390020D8060300EC060300002370B5E0
:10412000136086B00593037905461446032B03D824
:10413000DFE803F0051A315C012006B070BD2D4B9D
:1041400009BA0491196800230422CDE901330092D1
:104150004E69006805AB04A9B0470028ECD1059B67
:1041600000201BBA2360E8E70B0C8DF811304BBA26
:104170008268ADF812301F4B090E1B6801920422B1
:1041800061F07F0100921E6A8DF8101005AB04A942
:104190000068B047E1E70B0C8DF811304BBAADF871
:1041A00012300B0E63F07F038DF81030114BB1F518
:1041B000405F1B6800681E6AAB6801930DD2022342
:1041C0000422009304A905ABB047BDF814305BBAD4
:1041D0002380003818BF0120AFE7042205AB00920E
:1041E00004A9B047059B1BBA2360F2E7224628F0DA
:1041F000EDF8EEE7D001002030B50379044685B034
:10420000032B45D8DFE803F002152540214B12BAF5
:1042100003921A68002300939569082209BA029153
:1042200020680DEB0201A847003818BF012005B037
:1042300030BD12BA174B0392A2681B680192042288
:10424000009209BA20685D6A029103AB02A9A847EF
:10425000EAE70BBA02930F4BB1F5405F1B68206889
:104260005D6AA36809D252BA01930223ADF80C200B
:104270000422009303AB02A9E9E712BA03920422D5
:104280000193009203ABF6E7204628F0BDF8CBE798
:104290000120CCE7D0010020F0B50C46017905469D
:1042A000022987B00ED8194824BAE1B10168A8687C
:1042B0000594CDE9003013464C6A0422286805A90C
:1042C000A0471BE003291ED1012023F003031E1980
:1042D000171BB44212D0214628463A5D28F094F8C4
:1042E00060B90434F5E70068CDE901110093059445
:1042F0001346C4690422286805A9A047003818BFDE
:10430000012007B0F0BD0120FBE700BFD001002075
:104310002DE9F84F06460D4617464FF0000BDFF823
:104320009080DFF89090DFF890A0BB4501D300208B
:1043300016E055F82B1005EB8B0C4145DCF804001A
:104340004FEA8B0211D0494520D0184B994226D113
:10435000DCE902320146304628F071F810B1012044
:10436000BDE8F88F0BF1040BDFE702F108042B59CD
:104370000C3201469B0030462A440BF1030BFFF739
:104380008BFF0028EBD12C59A344CEE70022DAF8AA
:1043900000301146DB6898470BF1020BC5E7024677
:1043A0003046FFF729FF0028F6D0D8E7010000804B
:1043B0000200008003000080D001002070B50D468F
:1043C000044608B9012070BD0029FBD000F1100699
:1043D0000FCD0FC60FCD0FC6184B95E8030086E82A
:1043E00003001B6822469B681549A069984701286D
:1043F000E8D001234FF02E72C4E90F32114A002099
:10440000A2640322C4E913206266C4F884204FF436
:10441000E8524FF4E055626704220B49E365C4E9B2
:104420001551A4F86C0084F86E302367A167E26729
:10443000A4F88C0084F88E002360C4E7D00100202B
:1044400069C4020068070300A48001002DE9F3415C
:104450000368044633F0040204D10027384602B052
:10446000BDE8F0814768012F21D1022B1DD1002525
:10447000A846184E85632B46356805F5C0351035BE
:104480009D421ED17268019B1A4207D0B168A36B8E
:1044900020460B43A363294627F0F2FF08F10108E9
:1044A000B8F1090F06F10C06E5D100236360A06B9B
:1044B0000028D2D0E3690BB1216A98470023A36397
:1044C000CBE72946204601AA27F0D2FF0028D9D001
:1044D000C4E700BFFC060300F0B5022240F6080165
:1044E000D5B00446152627F0CBFF3A4F00223B6893
:1044F0001146DB68052098476A4640F604012046CD
:1045000027F0B6FF0546002862D1013E60D0009B2F
:104510009B07EBD5032240F60801204627F0B0FFA9
:10452000082320462C4901AACDE9015527F0C2FFF6
:104530002A4B06AE1F4603F1280C3246186859680C
:10454000083303C263451646F7D1282306AA20463E
:10455000234927F0AFFF234B10AA03F1300C164676
:1045600018685968083303C663453246F7D118689E
:104570001D493423306010AA204627F09BFFDC221F
:104580001A491DA82AF050FFDC2319491DAA20460C
:1045900027F090FF174AD7F83801516803AB03C3DF
:1045A0009068154918600C2320460DEB030227F094
:1045B00081FF022240F60801204627F061FF002219
:1045C00040F60801204627F05BFF284655B0F0BDB5
:1045D0000125FAE7D0010020AC10040088FF02009A
:1045E000A0C80400B0FF0200D0C80400E4FF02002D
:1045F00010C90400C00003008C100400F7B5604D22
:1046000004462B6800211B680069984700222B682C
:104610001146DB68022098472B6801215B686069BE
:10462000984700222B681146DB68022098472B68C8
:1046300001211B68206998471526524F00222B68DC
:104640001146DB680A20984739466A46204627F01B
:104650000FFF0146D0B9013E18D0009B1B07EDD5D6
:104660006A46204627F004FF80B9009B6A46042171
:104670002046A36027F0FCFE40B9009B1021204695
:10468000E36001AA27F0F4FE012802D1012003B063
:10469000F0BD019B002B55D0082B4ED15522302167
:1046A000204627F0EDFEAA223021204627F0E8FE22
:1046B00055223421204627F0E3FEAA223421204649
:1046C00027F0DEFE44F668512F4A204627F0D8FE38
:1046D00044F670512D4A204627F0D2FE4FF4803226
:1046E00042F2AC41204627F0CBFE40F2FF5242F2AC
:1046F000B441204627F0C4FE42F22041244A20461D
:1047000027F0BEFE40F2154242F22441204627F037
:10471000B7FECC223021204627F0B2FE33223021D2
:10472000204627F0ADFECC223421204627F0A8FEFB
:1047300033223421204627F0A3FE2046FFF7CCFE8B
:104740000128A3D0D4E90C1204F12400FFF7E0FD06
:1047500000289BD101260F4DE968002301F5C031E7
:1047600020462A6901F5887127F092FE00288DD134
:104770000136092E05F10C05EED10223236086E7F0
:10478000D0010020148001000000B11DB849027062
:1047900015041504FC06030010B5244C88B02488C9
:1047A0008C420AD9224A009123460121214827F050
:1047B00052FD6FF0150008B010BD1F4C24789C42CC
:1047C00005D801211D4A1B4827F032FDF1E70024DE
:1047D0000490CDF81640CDF81A40ADF81E40ADF863
:1047E00014100AB9164A126806920B9A0292BDF882
:1047F0002820ADF80C200022ADF80E20114A52F806
:10480000230038B90B4801210F4A27F062FE4FF010
:10481000FF30D0E702AA04A90CF03CF80028CAD166
:104820000C9BBDF80E201A80C5E700BF905B0020EE
:10483000A78903009CFE0200945C0020E589030028
:104840007C39002078390020158A030030B51A4DD4
:1048500087B02D789D4208D818480121184A27F0C2
:10486000E7FC6FF0150007B030BDADF81020002256
:10487000ADF80810ADF812209DF83010ADF81420F6
:10488000104A01908DF80A1052F823000A990391FA
:1048900038B90A4801210C4A27F01BFE4FF0FF30BF
:1048A000E1E703AA01A917F04BF80028DBD10B9B25
:1048B000BDF812201A80D6E7935C00209CFE02000F
:1048C000E589030064390020368A0300134607B5E2
:1048D00041F64C5293420DD042F21072934212D0E4
:1048E0000A4801210A4A27F0F4FD6FF0150003B0D1
:1048F0005DF804FB0122CDE900013F2100230846B9
:1049000015F066FFF3E70022F5E700BF9CFE02000A
:10491000578A03002DE9F04F1C4641F64C5385B0F1
:104920009A4206460F469DF838B00ED042F21073F8
:104930009A4213D0134601212F4A304827F0C9FD6F
:104940006FF0150005B0BDE8F08F4FF0010944B9D4
:1049500001212B4A294827F06BFCF1E74FF00009B1
:10496000F5E745F6C0539C421DD82346254A02214F
:10497000224827F0AEFD0DF10C0A53464A4639464F
:1049800030461DF011FF204B18800F9B188080B11E
:104990000025DFF890805D4513D11C4B03981C6007
:1049A0001B4B1D70CEE71B4B9C42E4D923461A4A91
:1049B000DDE712480121194A27F03AFC4FF0FF3099
:1049C000C0E7D8F8003043B10C482B460121144A07
:1049D00027F07FFD6FF07700B4E74A46394630464E
:1049E000CDE9003A0BF0DAFC48F8040B03980135E6
:1049F0000028D0D0A6E700BF578A03009CFE020023
:104A0000718A0300868A0300905B00207C390020B5
:104A1000945C0020FF700200AB8A0300D18A03007F
:104A2000FB8A0300783900202DE9FF471D4641F637
:104A30004C539A42074688460ED042F210739A426F
:104A400016D0134618480121184A27F042FD6FF08E
:104A5000150004B0BDE8F0874FF0010A0024144EA1
:104A60000DF10C09AC4206D1124B00201C70F0E78E
:104A70004FF0000AF2E7336843B10B4823460121A7
:104A80000D4A27F026FD6FF07700E2E752464146D7
:104A90003846CDE9003916F0A9FD46F8040B039815
:104AA00001340028DED0D4E79CFE0200578A0300C0
:104AB00064390020935C00201E8B030038B5044647
:104AC00000F098FFB0B100220D4951F8323001EBEF
:104AD000C20583B941F832001A466C60094C54F89B
:104AE00033100133322B0A44F9D1074B1968914234
:104AF00038BF1A6038BD0132322AE6D127F063FD93
:104B000084390020883900208039002010B50446FF
:104B100000F08AFF5CB10023084A52F8331002EB20
:104B2000C300A14204D1002142F83310416010BDFE
:104B30000133322BF1D127F046FD00BF843900202C
:104B40002DE9F84F80460C4600AF002965D0D1E929
:104B50000012E9468AB0A3686D464FF0050A2E465A
:104B60003748C5E90723C5E9050146F810AF00231A
:104B700032464FF421513348FEF7FEFED4E90312CA
:104B8000CD466369AD463048C5E90723C5E905014F
:104B9000C5F810A0002332464FF421512948FEF7F2
:104BA000EBFECD46E3690121284A264827F049FB60
:104BB000264600254FF00A0ADFF8A0B0E946D6E9FC
:104BC00008E0D6E90A138EB06A46C2F81CE005F187
:104BD000010EC2E908E0A81CC2E90A01E91CC2E909
:104BE00005B5C2E90C1342F810AF002345F24001AD
:104BF00014480435FEF7C0FE102DCD4606F1100610
:104C0000DCD1236E0121124A0E4827F01AFBA3695A
:104C10000121104A0B4827F014FBB8F1010F07D10E
:104C2000EFF305830C4A41460648103B27F009FB89
:104C30002146404609F066FFBD46BDE8F88F00BF3B
:104C40004E8B030084FE02007D8B0300AC8B0300BF
:104C5000FE8B03000D8C03003B8C0300BB8B030019
:104C600030BFFFF7FDBF00BF2DE9F04105460B4EF9
:104C7000DFF83080324606EB0807CC1B2046084997
:104C80002AF0D2FBA01942460021083C2AF0F3FB8F
:104C9000C5F8A84007F10800BDE8F0810000000059
:104CA00000FF020008000000054B9A699B689A42C9
:104CB0001FBF044A536843F080535360704700BFDE
:104CC0002846002000ED00E070B52A4C06460D464F
:104CD00029482A4927F00CFCA36ADB0647D5264859
:104CE000274927F005FC1120A36A1C0704D5224898
:104CF000244927F0FDFB12201E4CA36A990712D508
:104D000021491D4827F0F4FB636BA26A120609D5FE
:104D100001211E4A184827F094FA1EB1A36A23F015
:104D20008003A3621320134CA36ADE0704D5124844
:104D3000174927F0DDFB1420A36A9C0604D50E4812
:104D4000144927F0D5FB15200A4B9A6AD10658BFA3
:104D50009A6A9A6A920642BF5A6A22F400525A62CA
:104D60009A6A42F0FF029A6200232B7070BD1020F5
:104D7000BAE700BF00ED00E084FE02004E8C0300A5
:104D8000648C0300978C0300AA8C0300C28C030080
:104D9000D88C0300F78C030010B5244C2449254817
:104DA00027F0A6FBA36A99013ED52248224927F0A5
:104DB0009FFB1E20A36ADA0104D51E481F4927F075
:104DC00097FB1F20194CA36ADB0204D519481C4924
:104DD00027F08EFB0220A36A1C0304D5154819494D
:104DE00027F086FB2120114CA36A590304D51148F2
:104DF000154927F07DFB2220A36A9A0304D50D48AC
:104E0000124927F075FB2320084CA36ADB0304D565
:104E100008480F4927F06CFB2420A36A6FEA03437C
:104E20006FEA1343A36210BD1D20C3E700ED00E04D
:104E3000268D030084FE02003E8D0300518D030089
:104E40006B8D0300958D0300B38D0300D88D030097
:104E5000F28D030070B5294C06460D4628482949B5
:104E600027F046FBA36AD9043CD52548264927F0FC
:104E70003FFB1720A36A1A0504D52148234927F0D0
:104E800037FB18201D4CA36A9B0512D51C482049EE
:104E900027F02EFBA36BA26A100409D501211D4A3D
:104EA000174827F0CEF91EB1A36A23F40043A3628A
:104EB0001920124CA36A590504D51148164927F048
:104EC00017FB1A20A36ADA050ED50D48134927F0FF
:104ED0000FFB1B20094A936A43F47F43936200232C
:104EE0002B7070BD1620C5E7A36A9B04F2D5044859
:104EF0000B4927F0FDFA1C20ECE700BF00ED00E0B5
:104F000084FE02001D8E0300338E0300978C030085
:104F1000448E03005D8E0300728E03008D8E0300AD
:104F2000F78C03002DE9F0419CB0624B0546D3F8A5
:104F30000480002600AFC8F3080486F31188BFF38D
:104F40006F8F02F07F43B3F17F4F07D102F00C0364
:104F5000082B12D15849594827F0CAFA002635467D
:104F60000023FB71E31E092B00F28380DFE803F0CE
:104F70000A797C7581818181817F10074CBF0D4644
:104F80000126EDE74E494D4827F0B2FA0023494C7F
:104F9000FB71E36A9A0705D54A49484827F0A8FA01
:104FA000002431E0E36A002B01DA4749F5E7E36AC0
:104FB0005B00F5D54549414827F09AFA6369AA692B
:104FC00043F480736361BFF34F8FBFF36F8F6369E7
:104FD00032F8022C23F480736361BFF34F8FBFF369
:104FE0006F8F4DF602739A4207D0A36ADBB23BB3D0
:104FF0000120F91DFFF768FE31E02B680121344ADA
:105000002E4827F01EF92C68FB79ABB96822294697
:1050100007F108002AF008FA7B6A002E45D0C3F396
:10502000080222B96FEA53236FEA43237B622046CA
:1050300007F10801FFF784FD7037BD46BDE8F08138
:10504000A36A13F47F4F04D00120F91DFFF702FF7C
:1050500005E0A36AB3F5803FA2D3FFF79DFE0446A7
:10506000D2E70020F91DC5E70020F91DEEE7194938
:1050700093E7194A18F4F87FE8468AB0174B18BF2F
:1050800013466A461649103CC2E905134FF40073F3
:105090001384144BD46142F8103F00234FF4115194
:1050A0000648FEF769FCC5467AE723F4FF7323F050
:1050B0000103BBE700ED00E0D38E030084FE020095
:1050C000FE8E0300158F0300368F0300448F03000C
:1050D000638F03007F8F0300BA8E0300A58E030049
:1050E000A38F030004000001064B5A6942F010022E
:1050F0005A615A6942F480625A615A6922F0080280
:105100005A61704700ED00E0EFF30880EFF309818A
:1051100001B57246FFF706FF01BD00BF002080F316
:105120001488BFF36F8F002080F30A8880F30B8808
:10513000104880F3088800200F49087007F0B4FB7E
:1051400000200E490860BFF34F8F00F02DF820209B
:1051500080F311880A484FF40061401880F30988F1
:10516000EFF314800221084380F31488BFF36F8F9C
:1051700000F00EF940BB00203760002094ED00E005
:1051800000A20020002318460649D1F89020C2F35F
:105190000722934200DB7047C1F89830C1F8A000A5
:1051A0000133F6E700ED00E010B572B6002484F399
:1051B0001388FFF7E7FF23464FF0FF300C4A03F157
:1051C00020010133102B42F82100F8D100234FF0C9
:1051D000FF30074A03F160010133102B42F8210030
:1051E000F8D162B6BFF34F8FBFF36F8F10BD00BF12
:1051F00000E100E0084B9B6883420BD1EFF305838D
:1052000043B1064B5A6842F080525A605A6A22F4FF
:1052100000425A620AF018BD2846002000ED00E066
:1052200025498A6882F8F5E04FF030001044EFF32A
:10523000098C80E8F01F1EF0100F03D102F1B400BA
:1052400080EC108A202080F31288BFF36F8F1B4FF1
:105250004FF000668A698A603E60D2F8A800184C58
:10526000206092F9F5E0D2F8AC000023C2F8AC302F
:1052700080F311881EF0100F03D00023E1EE103AE6
:1052800003E002F1B40090EC108AEFF3148323F0F2
:10529000040383F31488BFF36F8F02F1300090E8AA
:1052A000F01F8CF3098802F1000004B527F028F9FB
:1052B000BDE80440704700002846002004ED00E0EF
:1052C000143B00201EF0040F0CBFEFF30880EFF337
:1052D0000980816911F8021C0229FFD001B57246CC
:1052E00027F0FBF801BD00BF40B2002807DB012317
:1052F0004109034A00F01F00834042F82130704703
:1053000000E100E040B200280CDB0122064943091D
:1053100000F01F008240203341F82320BFF34F8F5D
:10532000BFF36F8F704700BF00E100E0054B4209FB
:1053300053F82220012300F01F0003FA00F0104070
:10534000704700BF00E100E040B2002801F1010118
:10535000ACBF00F16040064B4FEA4111C9B2ABBF90
:1053600000F5614000F00F0080F8001319547047F9
:1053700014ED00E0044B054A23F07F039360BFF374
:105380004F8FBFF36F8F70470000000000ED00E00B
:1053900008B5FFF7EFFF104BD3F8882022F4700216
:1053A000C3F88820D3F8882042F4A002C3F88820EC
:1053B0004FF04042C3F83422BFF34F8FBFF36F8FDB
:1053C0000023E1EE103A09F08BFC0AF095FD00F0A5
:1053D0007DF809F0C9FC00BF00ED00E042F8203C78
:1053E000009B0D4942F81C3C019B21F0010142F851
:1053F000183C029B42F8081C42F8143C4FF08073A2
:1054000042F8043C0023C0F8AC304FF47D43203A0E
:105410000265C0F8F4307047B92A0000104B9B6851
:1054200083421AD1EFF30580B8B9EFF3118120223E
:1054300082F31288BFF36F8F1A7B22F002021A7375
:10544000EFF3148323F0040383F31488BFF36F8F07
:1054500081F31188BFF36F8F70476FF015007047AD
:10546000284600200E461546002300B5E1EE103A0E
:10547000EFF3148323F0040383F31488BFF36F8FD7
:10548000BFF36F8F0A4BD0F8A8209860094B1A60C1
:10549000D0F8983083F30B882C4686F309880020D7
:1054A000054B98472046002100220023034C20474B
:1054B00028460020143B00200BC50200B92A00003A
:1054C0001022014B1A61704700ED00E000232021FB
:1054D0000348C2180133452B82F80013F9D17047F5
:1054E00000E100E008B5EFF30583064A103B02EB4C
:1054F000C30152F8330049688847BDE80840FFF708
:10550000D3BB00BFC4FA02001FB5094C094A2346A9
:105510000121094800F012F900230393074B0121F0
:10552000E41A01A80193029400F012F904B010BD2E
:105530000000072000000020800703003008002042
:1055400010B50C7A0B6804F01F0223F01F031A43F6
:10555000CB68640923F01F03054943EA440343F081
:105560000103C1F89800C1F89C20C1F8A03010BD1B
:1055700000ED00E010B50A4BD3F89030C3F30723D9
:10558000013B984208D901210346064A064826F005
:1055900058FE6FF0150010BDFFF7D2FFFBE700BF0C
:1055A00000ED00E0BA8F030064FE02002DE9F04F29
:1055B0008946144606464FF00008514D85B0C8454F
:1055C00027DAD6F804A0BAF1000F44D0BAF11F0FC1
:1055D00017D91AF01F0F14D1D6F800B01BF01F0F07
:1055E0000FD1584626F0CDFF07460AEB0B000138D5
:1055F00026F0C7FF874210D06FF01507414A3B469F
:1056000001E04346404A0121404826F01AFE6FF06F
:105610001504204605B0BDE8F08F17F1160FEDD048
:10562000BC42EBDDC5F89870D5F89C10C5F89870B1
:10563000D5F8A03021F01F0143F01F0BD6E900324E
:105640001A44994202F1FF3A1DD1D34507D13146A0
:10565000F8B226F09FFF08F101080C36AFE731469B
:10566000C5F89870D5F89C3022F01F0203F01F0394
:105670001343C5F89C30E0B226F08CFF10F1160FF2
:10568000C5D0441CE7E7C5F89870D5F8A020013BC9
:1056900023F01F0302F01F021343D3453146E0B24B
:1056A000C5F8A030E8D026F075FF10F1160FAED087
:1056B000C5F89870D5F89C209DF808300BF1FF3B99
:1056C00062F304038DF80830D5F8A0309DF8082067
:1056D0005B0863F347128DF80820D6E900321344C3
:1056E000009323F01F035B44A3EB0A03013023F074
:1056F0001F036946C0B20393FFF73CFFBEE700BF3C
:1057000000ED00E003900300E08F030064FE020060
:105710000522044BC3F89420BFF34F8FBFF36F8F64
:10572000704700BF00ED00E0BFF35F8F0022024B27
:10573000C3F89420704700BF00ED00E010B5034CA3
:105740002278FFF733FF207010BD00BF955C00206A
:105750002DE9F74F294D8A4606464FF00008AB4623
:10576000274FD0451BDAD6F80490B9F1000F3FD08F
:1057700031680846019126F004FF0199044609EBBF
:105780000100013826F0FDFE84424FF014021D4B4B
:1057900008D002FB08F36FF015024BF8032003B0AA
:1057A000BDE8F08F14F1160F2C60F8D01978A142E3
:1057B000F5DD02FB08B0C7F89840C7F89840D7F865
:1057C0009C4000F10801007B64F304000871D7F8E5
:1057D000A0000C79400860F347140C71D7F89C10B6
:1057E00021F01F016960D7F8A01021F01F01296185
:1057F00008F1010814350C36B3E700BF183B002050
:1058000000ED00E0955C0020F0B54149414CD1F835
:1058100090302568C3F307239D4287B075D80020D8
:10582000FFF782FF3C4BC1F8C030854216D13B4C9C
:1058300001A82570FEF760FB00250646384FAE42F2
:1058400013D1002023783249D1F89020C2F30722E7
:10585000934254DBFFF75CFF00202FE0616801EB0F
:105860000011FFF76DFE0130DFE70199280101EB20
:105870000513DA683A40B2F5001F21D0B2F5800F67
:105880002BD0B2F5801F38D15A689B680958013B6C
:1058900022F01F0003440120844623F01F0340EA46
:1058A0004C10CDE902218DF8100002A92078059353
:1058B000FFF760FE00281DDA6FF0150007B0F0BD9D
:1058C0005A689B680958013B22F01F0003444FF0BF
:1058D000020C012023F01F03E1E75A689B68095876
:1058E000013B22F01F0003444FF0000C062023F080
:1058F0001F03D4E723780133237001359FE7C1F8F4
:105900009830C1F8A00001339EE74FF0FF30D5E793
:1059100000ED00E08C070300AAFF4400955C002026
:105920000000F0FFF0B587B007460E461446002190
:10593000102268461D4629F09EFD02238DF8023094
:10594000054B2A4621466846CDE90476019323F0AB
:10595000AFFC07B0F0BD00BFCDC5020008B50248DE
:1059600023F0C0FBFEE700BF3590030008B5024BF3
:105970001B689847002008BD2C3B0020034B044ABD
:105980001860937843F00203937070472C3B00201B
:10599000FC02002008B5054825F02CFE002383F307
:1059A0001188BFF36F8F0423184602DF3A9003007B
:1059B00008B50649064821F00701C1F1005202F579
:1059C000E02225F065FD002008BD00BFC3060120D0
:1059D000303B00204FF0FF324FF0FF33014809F019
:1059E00081BA00BF0C030020014809F0F3BA00BFE0
:1059F0000C03002038B50546FFF7ECFF2A460821C6
:105A0000074825F0D1FC044628B925B129F038FF14
:105A10000C22044B1A50FFF7E7FF204638BD00BFA9
:105A2000303B00200C00000010B50446FFF7D2FF09
:105A30002146034825F06CFCBDE81040FFF7D4BFB9
:105A4000303B002070B541690446867A0A4D59B151
:105A5000437ADB0706D42C2303FB06535B6A1B68DF
:105A60009B689847002363612C20214606FB005069
:105A7000BDE8704029F081B9F80600202C22024BC5
:105A800002FB0030704700BFF80600202C21827A0C
:105A9000054B01FB02339A6A1B7F801A1B3323F0EC
:105AA0000303B0FBF3F07047F806002038B52C2450
:105AB000827A064B04FB02335B6AD3E901240C6053
:105AC0001568FFF7E3FF04FB005038BDF80600201F
:105AD0002DE9F04385B00546684690461C46039183
