:020000040000FA
:1000000020B50020794F000073B60200654F000054
:10001000654F0000654F0000654F0000654F000010
:10002000000000000000000000000000215100005E
:10003000654F0000000000007D500000654F00008B
:100040004153000041530000415300004153000060
:100050004153000041530000415300004153000050
:100060004153000041530000415300004153000040
:100070004153000041530000415300004153000030
:100080004153000041530000415300004153000020
:100090004153000041530000415300004153000010
:1000A0004153000041530000415300004153000000
:1000B00041530000415300004153000041530000F0
:1000C00041530000415300004153000041530000E0
:1000D00041530000415300004153000041530000D0
:1000E00041530000415300004153000041530000C0
:1000F00041530000415300004153000041530000B0
:10010000415300004153000041530000415300009F
:10011000415300004153000041530000415300008F
:10012000415300004153000041530000415300007F
:10013000415300004153000041530000415300006F
:10014000415300004153000041530000415300005F
:100150004153000053B94AB9002908BF00281CBF09
:100160004FF0FF314FF0FF3000F00CB8ADF1080C4C
:100170006DE904CE00F022F8DDF804E0DDE90223A9
:1001800004B07047704700BF10F8012B11F8013B15
:10019000012A28BF9A42F7D0D01A7047034611F8B7
:1001A000012B03F8012B002AF9D17047034613F8FD
:1001B000012B002AFBD1181A013870472DE9F047AE
:1001C00086468C460846089E154674461946002BFE
:1001D00040F0C1808542B2FA82F245D94AB1C2F1FB
:1001E000200300FA02FC954094402EFA03F343EA00
:1001F0000C0C4FEA154EA8B2230CBCFBFEF80EFB0C
:1002000018CC08FB00F943EA0C43994528D9EB18B0
:1002100008F1FF3704D2994502D9A8F102072B440F
:10022000A3EB0903A4B2B3FBFEFC0EFB1C330CFBD7
:1002300000F044EA0344A04214D92C190CF1FF3316
:1002400004D2A04202D9ACF102032C44241A43EA9E
:1002500007401EB1D440002334607360BDE8F087CE
:100260004746DDE76346F1E792BB431B01214FEAB6
:10027000154EAFB2200CB3FBFEFC0EFB1C330CFB87
:1002800007F840EA0343984561D9EB180CF1FF30B9
:1002900004D2984502D9ACF102002B44A3EB080329
:1002A000A4B2B3FBFEFC0EFB1C330CFB07F744EAC5
:1002B0000344A7424DD92C190CF1FF3304D2A742B5
:1002C00002D9ACF102032C44E41B43EA0040C0E72E
:1002D000C2F120039540944020FA03F12EFA03F373
:1002E0004FEA154E9040AFB20343B1FBFEFC0EFB4C
:1002F0001C10190C0CFB07F841EA0041884522D973
:1003000069180CF1FF3004D2884502D9ACF1020023
:100310002944A1EB08019BB2B1FBFEFC0EFB1C11B2
:100320000CFB07F743EA01439F420ED9EB180CF18F
:10033000FF3104D29F4202D9ACF102012B44DB1BF6
:1003400041EA004193E76046E3E76146F7E760462C
:10035000A4E76346B8E7834206D916B900210846E8
:100360007CE7C6E900E0F9E7B3FA83F78FB9834287
:1003700001D3724508D8BEEB020460EB03030120F1
:100380009C461EB9002169E73846FAE7C6E9004CE9
:10039000F8E7C7F1200CBB400EFA07F522FA0CF47F
:1003A0002EFA0CF1BA401C4320FA0CF3B8404FEA85
:1003B000144901431FFA84FEB3FBF9F809FB183016
:1003C0000B0C08FB0EFA43EA00439A4540D9E318A8
:1003D00008F1FF3004D29A4502D9A8F10200234463
:1003E000A3EB0A0389B2B3FBF9F809FB183308FB46
:1003F0000EFE41EA03418E452CD9611808F1FF3306
:1004000004D28E4502D9A8F10203214443EA0040F8
:10041000A1EB0E01A0FB02984145CE46434602D314
:1004200006D14D4504D20138B9EB020E68EB040346
:10043000002EA7D0B5EB0E0261EB030101FA0CFC14
:1004400022FA07F3F9404CEA0303C6E9003199E7C1
:100450004046C5E74346D9E70023064A52F8041B45
:10046000096829B90133DBB2052BF7D101207047A8
:1004700000207047F82A0020014829F068BE00BF1C
:100480000806002001464FF4A07270B504461348D8
:100490002DF053FB124829F05AFE124A1368591CDA
:1004A0001160C822B3FBF2F002FB1033A3B91A4665
:1004B000A51E0E3435F9020F0028B8BF404286B29F
:1004C000B342B8BF3346A54212FA80F2F2D1BDE87A
:1004D000704005482AF0D9B970BD00BF9A4E00207F
:1004E00078050020F42A0020BA58030001480EF0D5
:1004F0004BB900BF702B00201FB501AB07CA83E8C2
:100500000700064829F025FE024618B91846044996
:1005100005F0F2FC05B05DF804FB00BF902B002055
:10052000E50D000070B50C6892B02378064607AD63
:10053000032B2ED8DFE803F00227292B1849284681
:10054000FFF72CFEA379059562781E210492A2780C
:100550000AA80392E27802922279019262790092CB
:10056000104A27F043FF304607F05CFE0AAA014616
:100570000D482AF08AF901220C4B0D481A7029F017
:10058000E6FD12B070BD0B49D9E70B49D7E70B491F
:10059000D5E70A2128460A4A27F028FFD2E700BFFC
:1005A000EB5803000D590300305903002851002077
:1005B00020060020F2580300F958030003590300F5
:1005C000EE8B0300F7B50546194829F0C2FD84B249
:1005D000A5420F46064609D81648002129F0C0FD5D
:1005E000154803B0BDE8F04029F0BABD2C1BA4B2F9
:1005F000042C02D121460F48F3E700210D4829F0D1
:10060000AFFD0D4829F0ACFD01220C4BD3E8EF1FE4
:10061000002903D1C3E8E02F0028F7D106D12A46EC
:10062000394607480094B3B22AF02FF903B0F0BD61
:1006300070010020A02B00209C2B0020982B002074
:1006400060590300F7B54B790F4F052B28BF0523E1
:10065000888A3B700D4D0B690D4E0C460D492B6081
:100660003080FFF7AFFF0C4B1B683BB93B780B4862
:10067000009333882A6861792AF007F9084803B0A3
:10068000BDE8F04029F063BDFB03002074010020A9
:10069000964E002096590300802B00209E5903009F
:1006A000F005002030B51A4B0D461B6814468342F6
:1006B00091B02AD13422002103A82DF065FAAB793C
:1006C0001A0744BF2A680492CCB1258A2C2D16D86B
:1006D000DB0714D52A46E16805A8ADF80C502DF0CB
:1006E0002CFA28460B49FFF76DFF002200230A4829
:1006F000CDE900234FF4804200230EF01DFF0022BD
:100700000023064803A90DF08DFC11B030BD00BFD9
:10071000F82A0020E0590300880A0020E80400209D
:1007200070B505460A460C46014611482AF0ADF858
:100730000021104829F014FD0F4B104E1B7856F87D
:100740002330AB4202D10E4829F00AFD3368AB4298
:1007500002D10C482DF003F93E2C01D0442C04D1D9
:100760000948BDE8704029F0F2BC0848F9E700BF2D
:10077000E9590300A82B0020FA030020F82A0020E2
:10078000842B0020880A0020A8050020C005002036
:10079000054B1A78054B53F82230834203D10021D0
:1007A000034829F0DDBC7047FA030020F82A002036
:1007B000A42B00202DE9F043464E474F474D8FB004
:1007C00030684FF4A472002301A90DF08BFC48B1EE
:1007D00000220023384629F0C1FCF1E70420002163
:1007E0002CF0DDFF284629F0B4FC0028F6D13C4B64
:1007F0001C78012C38BF0124013C14F0FF04DFD029
:100800000421684605F080FA009BB3FBF4F204FB78
:100810001233344A0133DBB21370334A52F8239057
:10082000B9F1000FCCD0BDF804301BB92F482AF025
:100830002CF8C5E7002200232D482AF0A0FF04462B
:1008400098B92C4829F085FC0028B9D02A4A1368A9
:10085000591C11603222B3FBF2F002FB1033002B63
:10086000AED126482AF011F8AAE7254829F071FCF4
:1008700038B9244829F06DFC18B9204605F0D4F8A1
:100880009EE704F10C0840460D212AF0B1FFBDF8A7
:100890000420404603A9DFF874802AF0BAFF012142
:1008A000284629F05DFCB8F80020214648462BF088
:1008B000DDF9021E04DA4946134829F0E6FFDCE7B9
:1008C00001210C4829F04CFCB8F800300B44A8F882
:1008D000003075E7AC2B002038060020A42B002048
:1008E000FB030020FA030020F82A0020195A030015
:1008F00068060020842B0020F02A0020345A0300D0
:100900000C300020083000205D5A0300944E002077
:100910002DE9F043504B514E1D8E514FDFF874813D
:10092000EFB03422002111A82DF02EF94FF0FF3244
:100930004FF0FF33304629F011FC384629F009FC0E
:100940000028EED04FF4A07241461EA82DF0F5F815
:10095000002213461EA931F9020B0132082A034472
:10096000F9D140480268511C01606420B2FBF0F4E8
:1009700000FB142232B93C4829F0EBFB02463B480D
:1009800029F083FF3A4829F0E4FBA0B12C2300931F
:1009900000230DF1160906AC4FF4A0711A46CDF8EC
:1009A000089001941EA803F025FE014648B1314885
:1009B00029F06BFFB5E72C4829F0CBFB0028E5D1E7
:1009C000AFE7B9F800108D4203D02A462A4829F033
:1009D0005CFF21462A4613A82DF0AFF8274829F0DE
:1009E000B8FB10F0FF0407D005F1080011AB224658
:1009F000002118442DF0C8F8214B2C441868ADF89C
:100A000044400022002311A90DF00CFB68B10A221A
:100A10001C4B196801311960B1FBF2F302FB13138F
:100A2000012B02D1184829F030FF184A1468611CC4
:100A30001160C822B4FBF2F002FB1044002C7FF4DA
:100A400070AFDFF840901248D9F8002029F01DFF60
:100A5000C9F8004065E700BF780100207805002054
:100A6000A82B0020EC2A002008300020805A030028
:100A70000C300020AA5A0300D15A0300A02B0020FA
:100A8000AC2B0020E82A0020065B0300E42A0020AB
:100A90002C5B03009A4E00202DE9F0414FF47A754B
:100AA0002CF00AFF2F46A0FB050605FB0166C30BD1
:100AB00043EA464313F5FA644FEAD636DFF8388046
:100AC00046F10006FFF7C8FC08B1BDE8F0812CF044
:100AD000F3FEA0FB070305FB0131C30B43EA4143CF
:100AE000A3424FEAD131B141EFDA40F6CD420023C3
:100AF000404629F033FBE5E7C005002013B5014669
:100B000004460F4829F0C1FE0E4BD3E8EF1F013118
:100B1000C3E8E21F002AF8D10B4829F018FB0B4B61
:100B20001B68A34209D1002200230948CDE9002314
:100B30004FF4804200230EF0FFFC02B010BD00BF56
:100B4000465B0300882B0020A8050020F82A00201F
:100B5000880A00202DE9F04F714DEDB04FF0FF32C3
:100B60000FA94FF0FF336F480DF0BCFA6E4829F023
:100B7000F0FABDF83C10044600296FD083B29942C8
:100B800028BF194611A8B0FA80F35B0902931CAE86
:100B90000DF11A0301934FF4A0720023009603F0A5
:100BA00083FD002809DA614A0021136830460133C9
:100BB00013604FF4A0722CF0E7FFBDF83C20A0B208
:100BC000031D9A422BD100F108030FAA0FA9084474
:100BD00013445A78047A5B8844EA022444EA0344C2
:100BE0002146534829F0BCFA524A1368591C116037
:100BF0006422B3FBF2F102FB113383B907A801466B
:100C000024FA03F202F00102013330321E2B00F805
:100C1000012BF5D1002348488B7729F036FEDFF809
:100C200030812A88B8F8003092B22C889BB29A4260
:100C300037BFA4B2B8F80030B8F800301034E41A66
:100C4000A4B22046C4F10F04A4B201F01BFC092C8D
:100C50000AD83A4A1368013313607FE7384A0846D6
:100C60001368013313608EE70020364CB6462B889C
:100C70009BB204EB8312A2F1040C3C323EF8021B3F
:100C800001EB01414CF8041F6245F7D101331030EC
:100C900003F00F03A0282B8006F12006E6D12A4A94
:100CA000136803F1010AC2F800A0C822B3FBF2F1F5
:100CB00002FB1133002B7FF451AF2888B8F80010E5
:100CC000DFF87C90194E1D4C80B289B28842D9F869
:100CD00000B03368276818D32988B8F8000089B2B3
:100CE00080B2A1EB0008059301F0A2F8059BCDE9C5
:100CF00001805A4651461548009729F0C6FD002349
:100D0000C9F800303360236028E7B8F80010B5F860
:100D1000008089B2C1F1100111FA88F8E3E700BF41
:100D2000DC4F0020E804002070010020DC2A0020B5
:100D30009C2B0020D82A0020605B0300D42A0020CE
:100D4000E02A0020B02B0020D02A0020835B030083
:100D5000DA4F002008B50B4829F097FD0A482CF01F
:100D6000FEFD0A48002129F0FBF9094B186840B143
:100D700008F080FB014620B1BDE80840054829F095
:100D800084BD08BDBC5B0300880A0020A82B00209E
:100D9000802B0020EC5B03000D4A1378B3B9438924
:100DA000A3B10121117001790A4A117040F2E242A7
:100DB0005343094A13600268084B116808481960D8
:100DC0009188998092799A7129F0C1B9704700BFD2
:100DD0002951002020510020942B00202151002077
:100DE000D80500202DE9F04F8FB0002800F0F380E7
:100DF0000378162B40F0EF804278052A40F2EB8012
:100E000041680BA82AF0EEFC0BA82AF03CFD41F645
:100E10005103984240F0DF80BDF83030032B0FD8EB
:100E20000122714BD3E8EF1F002903D1C3E8E02F63
:100E30000028F7D100F0D18000200FB0BDE8F08F7E
:100E40000BA82AF028FD04460BA82AF014FD05463D
:100E50000028E5D002462146644829F016FD4FF0EF
:100E60000008BDF83030072BDAD90BA82AF003FDB3
:100E700007460028D4D00BA82AF0FDFC07900BA849
:100E80002AF001FD08900BA82AF0FDFCBDF83030D7
:100E90000990002BC4D00BA82AF0EDFCBDF830302F
:100EA00004468342BCD301460BA8DDF82CB02AF0DF
:100EB000DAFCBDF83030002BB2D00BA82AF0DBFCF6
:100EC000BDF8303006468342AAD301460BA82AF06B
:100ED000CAFC00239C4256D84FF0000AD146BDF808
:100EE000301001299CD90BA82AF0C5FC83460BA819
:100EF0002AF0C1FC0146BDF83000884290D30BF1C6
:100F0000FF3B0BA82AF0AFFC5FFA8BF11F2998BFBB
:100F100001230AF1010A98BF03FA0BFB5FFA8AF179
:100F200098BF49EA0B098F42D9D8079BFF2B4ED1B6
:100F30004DF6AD63089A9A424BD14BF6EF602C4BBD
:100F40002C49099A824208BF0B46099A08F1010808
:100F50000192089A41460092CDE90479CDE9024612
:100F6000079A254829F091FC5FFA88F39D423FF6E5
:100F700078AFBDF83030002B7FF452AF01211F480D
:100F800029F0EEF858E71BF80320591C002AA3D0DB
:100F900050188442A0D31BF80110013A042903F130
:100FA0000203D2B211D1022A0FD13BF803104B1E1B
:100FB0002B2B91D8124829F0D3F8124B188800280F
:100FC0008AD01149FFF7FEFA86E7134482E70F4BF8
:100FD000BBE7074BB9E701202FE76FF015010C487D
:100FE00029F053FC28E700BF8C2B0020375C03005E
:100FF000245C03000D5C0300695C0300902B00205F
:1010000070010020964E002096590300709703004F
:10101000E65C03002DE9F04FA44899B029F035FCB7
:10102000A34829F032FC0521A24829F02EFC00F04B
:1010300091FD054680B101469F4829F026FC9F4856
:1010400000F088FC044650B101469D4829F01DFC83
:10105000204619B0BDE8F08F00F0A4FDEFE729F0BD
:10106000F6F82246974998482CF06DFC9749984825
:101070002CF080FA974B984A984899490534192CD6
:10108000C3E9010142F8043B03F11403F6D1954989
:10109000954800F0EFFE044610B101469348D5E7AD
:1010A00000F020FF044610B101469148CEE701F060
:1010B000C5F901F009FA8F4E8F4B21461860B28EA8
:1010C000204603F031FB044610B101468B48BDE7D2
:1010D00001278B4B0097019310214FF4FA434FF4F3
:1010E0007A50B28E03F044FB044610B101468548A5
:1010F000ACE73B4610214FF47A50B28E03F0C2FBAE
:10110000044610B101468048A0E74FF000084FF0B8
:1011100000094FF4C052CDE90370CDE90100009001
:10112000CDE90689794B7A497A480DF025FC7A4950
:1011300078480DF0ABFB02274FF48052CDE90689C9
:10114000CDE90247CDE90044744B754904947548D4
:101150000DF012FC744973480DF098FB4FF4806257
:10116000CDE90689CDE90374CDE901446F4B70499F
:10117000009470480DF000FC6F496E480DF086FB3E
:10118000204605F0EBFE044610B101466B485DE7D2
:101190006B4807F02FF86B4807F06EF908946A481F
:1011A00028F0DAFF694828F0D7FF694828F0D4FF13
:1011B000684828F0D1FF684828F0CEFF674828F03B
:1011C000CBFF0021664828F0CBFF664828F0C8FF17
:1011D0002821654828F0C4FF0021644828F0C0FF9A
:1011E000634828F0BDFF634828F0BAFF624B089AB5
:1011F0001A80624B1A7015B9284600F0D3FC60487B
:1012000029F043FB5F4A0CAB1068516803C3906838
:10121000002118600CA806F081FF044610B10146B9
:10122000594813E7594B1870594829F02EFB4FF0D5
:10123000FF324FF0FF33444828F090FF044610B1CE
:101240000146544802E7544829F01FFB06F0B6FF58
:10125000044610B101465148F8E6514B1194186804
:101260009A889B790F908DF842304E4B4E481B78F0
:10127000ADF840208DF843304C4BADF848401F6826
:1012800006235F4342F21073B7FBF3F3ADF84A3025
:1012900029F0FBFA0BA90FA807F018F8044600285C
:1012A00000F0888001464248D0E600BFFD5C0300A4
:1012B000175D0300335D03006A5D030038060020FC
:1012C0007F5D0300ED040000880A0020550D00003A
:1012D000702B00200C2B0020F82A00203001002069
:1012E0006801002085040000B0010020985D030023
:1012F000AF5D030078010020AC2B0020C75D030028
:10130000984E0020E55D0300075E0300550B0000CA
:10131000E068002090090020295E03001109000008
:10132000E058002098080020355E0300B507000053
:10133000E0540020A0070020415E0300485E030047
:101340002401002008010020D80500200806002004
:1013500020060020F0050020A8050020C005002080
:10136000902B00208C2B002070010020A02B00204F
:101370009C2B0020982B0020964E00202851002006
:10138000685E03006CE602007B5E030029510020CA
:10139000985E0300BD5E0300D55E0300F25E0300AD
:1013A00021510020205100200E5F0300942B0020CB
:1013B000355F0300A44829F068FAA4494FF40040BF
:1013C0008C462146E7FB00C10023A14A6046FEF798
:1013D000C1FE074602460B469E480C4628F0BEFE5C
:1013E00030B19D4829F051FA0B9806F027FFD6E658
:1013F0009A4829F04AFA3A462346994828F0AEFE20
:10140000014640B1974829F040FA974B1B78002BD2
:101410007FF4C5AEE8E7954B1A682823726392B251
:10142000338603F081F9014630B3914829F02DFA53
:10143000904829F02AFA002200238F4828F08EFED7
:10144000B0B18E4829F021FA854828F085FE4FF486
:1014500020320023824828F081FE40B3884829F0DA
:1014600014FA4FF0FF324FF0FF33834828F076FE36
:10147000844829F00AFA92E60124834B00940193F0
:1014800010214FF4FA434FF47A50B28E03F070F902
:10149000014608B17D48C9E7102123464FF47A5030
:1014A000B28E03F0EFF9014608B17948BEE7FEF7C6
:1014B000D3FF70B9774829F0E8F94FF48030002164
:1014C000FFF7EAFAFEF7C8FF18B9734829F0DDF90B
:1014D000AEE70122714F724C397872488A40013A66
:1014E000A260217129F0D1F900216F4828F038FE5F
:1014F00021466E4A0B9808F051F90446002800F086
:101500009A8001466A4829F0C0F914F1780F7FF4F7
:101510009FAD4FF480300021FFF7BEFA88E74846C0
:10152000099129F0B2F94FF4A0220023504628F087
:1015300015FE08F10108002862D15846099929F0E2
:10154000A4F93B785FFA88F18B42E8D8564828F036
:1015500000FE984255DB574829F097F9002156487C
:1015600028F0FEFD0C46DFF838A19AF804205FFA57
:1015700084FB5A4500F2C680002400F097FF4F4BD1
:1015800021464F481C8028F0EBFD4E482BF08BFE87
:101590004D4B18682BF087FE4C4B21461C804C4B62
:1015A0004FF480624B481C802CF0EEFA00F046FCB1
:1015B000494C00220023204628F0D0FD0028F8D016
:1015C00001213D4828F0CCFD15B9084600F0EAFAA3
:1015D0004FF00008DFF81491DFF814A1DFF814B120
:1015E0003B785FFA88F18B4200F2C5803B4829F0D6
:1015F0004CF9002D7FF41CAF284600F0D3FA17E712
:101600000446294828F0A5FD214602463B78344887
:1016100029F03BF9254B186807F02CFF00F1160262
:10162000162A044604D82F4B1341DB077FF571AF10
:1016300021462D480AE58046DFF8BC90DFF8BCA0C3
:10164000DFF8BCB07DE700BF5B5F03003F420F00E7
:1016500040420F0008060020795F0300905F0300FE
:10166000F0050020A95F030028510020740100202C
:10167000BB5F03007F62030020060020A36203001B
:10168000C1620300F5620300984E0020E15F030091
:101690000B6003003560030062600300FB03002061
:1016A00044010020A4600300882B0020802B002030
:1016B000D46003005A610300A82B0020944E002040
:1016C000842B0020E8040020AC2B0020DC4F0020FD
:1016D000DA4F0020B02B0020780500206F62030055
:1016E0002F610300FEFFBDFFEC5B030013620300EC
:1016F000C005002057620300F0600300A805002029
:1017000011610300274B14220021BBFA8BF913A8A7
:1017100053F82B802CF038FA0322594622484FEA1E
:1017200059198DF84D2029F0B0F813AA49464046C2
:1017300007F04CF910F10D0F024611D159461B4824
:1017400029F0A3F80121404607F074FA0021404631
:1017500007F070FA13AA4946404607F037F90246E7
:10176000594601341AB1124829F08FF852E711484E
:1017700029F08BF8F9E64846099129F086F84FF0F0
:10178000FF324FF0FF33504628F0E8FC08F1010823
:101790000446099910B10146074857E4584629F014
:1017A00074F81DE7F82A0020716103008F610300BF
:1017B000CC610300FB6103003962030008B500211E
:1017C000044828F02AFD20B1BDE8084040B228F0C6
:1017D00048BD08BDB02F002008B5084829F055F8CD
:1017E000074BD3E8EF1F0331C3E8E21F002AF8D10B
:1017F000BDE8084003480CF0C7BF00BF0A63030000
:10180000B02F0020B42F0020014603488368DB6915
:101810000BB1012218477047B8E00200062108B555
:10182000054828F0E6FC002804DDBDE80840034830
:101830000CF0AABF08BD00BFB8E00200E82F0020EE
:1018400008B5084829F021F8074BD3E8EF1F033902
:10185000C3E8E21F002AF8D1BDE8084003480CF0B5
:1018600093BF00BF14630300B02F0020B42F0020EB
:1018700010B5164BD3E8AF4F3CBB1548D0E8AF3F8F
:1018800083B1214628F0C9FC22460121114828F0E5
:10189000CCFC2146104828F0C0FC1048BDE81040A0
:1018A00028F0F3BF012128F0B8FC0A46094828F0C7
:1018B000BCFC0121084828F0B0FC00F0F7FD084B03
:1018C00018680CF06DFD0748E8E710BD0C300020EB
:1018D000F82F002098E00200083000202063030069
:1018E000103000203563030010B5134BD3E8AF3F31
:1018F0000BBB124BD3E8AF4FECB90421104828F0D2
:1019000078FC00280EDD01210E4828F086FC00F04E
:10191000CDFD0D4828F0B9FF0C4B1868BDE810400C
:101920000CF03EBD2146074828F077FCBDE810408A
:10193000074828F0AABF10BD0C300020F82F002067
:10194000B8E0020008300020496303001030002096
:101950005863030038B5554B1860554828F075FC9E
:1019600028B9544828F091FF6FF012040AE04FF4B0
:101970008031514828F01EFC044628B101464F48EA
:1019800028F083FF204638BD4FF0E8614A4828F030
:10199000EEFB044610B101464948F1E749484A4B7D
:1019A000436010238360FFF72FFF484828F06DFF46
:1019B000474848492BF0DEFD3D4828F046FC08B971
:1019C0004548CFE7454828F040FC0028F8D04FF4C0
:1019D0008031434828F0EEFB044610B101464148EF
:1019E000CEE74FF4B011404828F0E4FB044610B1B4
:1019F00001463E48C4E74FF0E861394828F0B7FB9C
:101A0000044610B101463A48BAE73A483A4B4360B7
:101A100040238360FFF7F8FE384828F036FF384847
:101A200038492BF0A7FD224828F00FFC08B93648AA
:101A300098E71F4828F009FC0028F8D04FF48031BF
:101A4000324828F0B7FB044600289BD14FF4803180
:101A50002F4828F0AFFB0446002893D14FF0B8611F
:101A60002A4828F084FB044600288BD14FF0B86147
:101A7000274828F07CFB0446002883D12548264BC4
:101A8000264D436004238360254B6B600823AB60C5
:101A9000FFF7BAFE2846FFF7B7FE0321214828F0DA
:101AA000F4FE214828F0F1FE6CE700BF1030002062
:101AB000B8E002006863030048E9020083630300A2
:101AC000A4630300DC2F0020E9180000C8630300B2
:101AD000E82F002071180000F363030098E0020073
:101AE00058E902000C64030050E90200326403006C
:101AF00055640300FC2F00201D1800007E640300C5
:101B0000B42F0020BD170000A164030040E90200CB
:101B100038E90200D02F002041180000C42F002017
:101B2000D9170000BF640300E5640300084B1A697D
:101B30001268002AB8BF80F0010028B19B68DB68FA
:101B40004FF00041024818479B681B69F8E700BF47
:101B5000B8E0020038B5104D2B78BBB90F4C2046C9
:101B60002BF0D6FAA8B12269A1681368204643F089
:101B7000004313600B680A4A1F219847034630B997
:101B8000FFF7D4FF034610B901232B70002318463A
:101B900038BD6FF01203FAE72A510020B8E00200C6
:101BA00001000A0010B5074B04461B7823B12046FC
:101BB000BDE81040FFF7BABFFFF7CCFF0028F6D012
:101BC00010BD00BF2A5100202DE9F047854F064681
:101BD0003B78002B4BD0002849D04FF000094C46F1
:101BE000814D824B2A78011F03EB42183C3051F89B
:101BF000042F13B2002BB8BF5B429BB212149C425D
:101C0000B8BF1C46002AB8BF524292B29145B8BF35
:101C100091468842EBD1DFF810A2DAF80030002BB1
:101C20000FDA402C02DCB9F1400F0ADD4C45ACBFA5
:101C3000002101214B4622466D48CAF8001028F0C9
:101C400024FEDAF80030002B70DBDCB2002356F8FB
:101C50002320002C6FD112B228F813200133102B4F
:101C6000F5D12B780133DBB2092B66D82B70614A92
:101C7000614813786149DFF8B491002B0CBF8046AE
:101C8000884683F001031370D9F80030002B00F070
:101C90008C809A6814885A68A4B2B2F800A09A8915
:101CA0001FFA8AFA564B544519784FD8AAEB040507
:101CB000ADB2002950D0544577D0DFF864A1DAF8EE
:101CC000001049B1D9F800302A469B894D4828F0C8
:101CD000DCFD0023CAF80030C446D9F800504FEAB2
:101CE000841E2B6803EB841303F1400962461868D5
:101CF0005968083303C24B459446F7D128684022FF
:101D0000002170442BF040FFAB890134B4FBF3F1A8
:101D100003FB1144AA68A4B23B4B1480D3E8EF1F25
:101D20000131C3E8E21F002A1DD0F7E74C45ACBFE4
:101D3000002401248AE712148EE700232B70334B12
:101D40001B68002B93D02948984790E70AEB0205BF
:101D50002D1BADB20029B0D1092D1FD84022002182
:101D600040462BF011FF3B784146002B14BF304614
:101D7000002000F0B3F9014688B3254B1A68013200
:101D8000052A1A6005D93220B2FBF0F300FB1323B9
:101D90002BBBBDE8F0471F4828F077BD01211E4846
:101DA0001970294628F071FD85E740220021404640
:101DB0002BF0EAFE194BD3E8EF1F0131C3E8E21F15
:101DC000002AF8D1164B17481A6801321A60D0E879
:101DD000AF2F19689142C6D928F03BFAC3E7BDE896
:101DE000F08700BF2E5100202D510020DE4F002033
:101DF000106503002B51002068300020283000209F
:101E00002C5100206A650300203000202C31002076
:101E1000143000209A65030046650300243000203A
:101E20001C30002018300020C00100202831002084
:101E30000021014828F00DBA24300020002108B507
:101E4000074B08481970084B196028F002FA074838
:101E500028F0FFF9BDE80840054828F0FAB900BFAE
:101E60002C510020243000201C3000202030002085
:101E70001830002037B502466C460B46134903C99B
:101E800084E803001046F2B1EBB1114D2A7812B18B
:101E9000002003B030BD0F4A10600F4A2046136087
:101EA00000F066FB0028F4D19DF800200B4B1A705F
:101EB000019B5A1C032A28BF4FF0FF33084A1360C6
:101EC00001232B70E4E76FF01500E2E710E6020053
:101ED00030510020283100202C3100202E510020CC
:101EE000C001002070B52C4B1B78002B50D02B4E1E
:101EF0003378002B4AD12A4800F07AF800F07EF8B7
:101F0000044628B10146274828F0BFFC204670BD92
:101F1000014640222448254D2BF036FE2146402222
:101F200023482BF031FEFFF789FF2B782148002B47
:101F300008BF00201C4900F0ABF8044610B1014670
:101F40001D48E1E72B781D48002B08BF00201849E9
:101F500000F0C4F8044610B101461948D4E700F077
:101F600045FB044630B10146164828F08EFC00F0CF
:101F7000D7F8CBE7144B2978144A154800290CBF31
:101F80001146194628F081FC012333700024BDE777
:101F90004FF0FF34BAE700BF305100202F5100202E
:101FA000C91B0000D5650300683000202E510020B9
:101FB00028300020E8300020F0650300A830002021
:101FC0000C6603002F660300CF650300D265030093
:101FD0005E660300012908D138B1044A126822B1B3
:101FE000D0E9000100B901B110477047303100203D
:101FF000014B1860704700BF3031002037B51D4DD0
:102000002B78002B34D14FF0502449F6A633C4F876
:102010005C350123A361D4F8203153B10021164867
:1020200001AA2AF012F8002808DA6FF0040003B0C1
:1020300030BD002121202BF0B2FBECE7019B0F4AC1
:102040001979186809F0D6F802460028EDD1012167
:10205000282003F0A7F8282003F074F8084A09495B
:1020600009480AF057FB094B9842DED101232B7037
:102070000020DCE73151002060E9020000800250BE
:10208000D51F0000C4010020EC0100200000AD0BB2
:102090001FB50F4C2378012B13D100B989B1102340
:1020A000CDE9010100220B4801A9ADF80C300AF07E
:1020B00003FC094B984207D102230020237004B08F
:1020C00010BD6FF01500FAE76FF00400F7E700BFEE
:1020D00031510020EC0100200000AD0B1FB50D4B6D
:1020E0001B78022B13D100B989B11023CDE901016E
:1020F000094801A9ADF80C300AF052FC074B984290
:1021000014BF6FF00400002005B05DF804FB6FF011
:102110001500F9E731510020EC0100200000AD0B63
:1021200010B5054C2378022B04D104480AF07AFC40
:102130000123237010BD00BF31510020EC010020AD
:10214000034648F6D870834206DD4AF27372934222
:10215000CCBF4AF2747098B2044B1A8882421EBFF8
:1021600018804FF05023C3F85C057047F803002037
:10217000F8B507460446002507F8141B194828F04F
:1021800072F8022965610E467D60E561258415D0EF
:1021900003291ED0012E2946134805D028F063F8E4
:1021A000C4E902552582F8BD28F05DF8C4E902555E
:1021B00025820E48BDE8F84028F067BB29460A484A
:1021C00028F051F861680A482582BDE8F84028F0F7
:1021D0005CBB0121044828F046F8064B06481988E4
:1021E0002582F2E734310020383100209066030068
:1021F0009F660300F8030020BD6603002DE9F0414F
:102200008AB02422002101A82BF0BEFC49F6A63298
:102210004FF050230292D3F85C357F4E9BB2002BD7
:1022200008BF13467D4FDFF810827D4D33804FF09D
:10223000FF324FF0FF3338460CF0ECF800214046F7
:1022400028F011F8044648B149F6A633284602930F
:1022500028F009F801A8FFF78BFFE8E7D5E8EF3F82
:10226000012B03D1C5E8E24F002AF7D1DFD16D4B36
:10227000D3E8AF2F9DF825009DF824100328089B74
:102280001FD80DF1280C0CEB410C134401302CF835
:10229000102C08938DF82500013101F003018DF811
:1022A00024109DF82510089B012938BF0121B3FB9C
:1022B000F1F39DF804100329B9D8DFE801F00E10FE
:1022C0003C760AA800EB410030F810CC20F8102C26
:1022D000A3EB0C0313440893DEE70121BAE7039B49
:1022E0001A44049B03920133092B04939FD992FB58
:1022F000F3F30A22C3F1020353435B1083EAE37250
:10230000A2EBE372082AC8BF1C4640F24B12464BB0
:1023100049F6A630634393FBF2F3182BA8BF1823AA
:102320006FF017029342ACBFC01880180290FFF7FD
:1023300007FF02218EE70A22C3F1020353435B1019
:1023400083EAE372A2EBE372082AC8BF1C4640F29C
:102350004B12354B6FF01700634393FBF2F3182BCE
:10236000A8BF1823029A21468342ACBFD018101888
:10237000FFF7E6FE32882D4828F087FA84EAE473F6
:10238000A3EBE4730F2B01DC032163E79DF8153009
:102390000133DBB2092B8DF815307FF648AF2146AB
:1023A000234828F072FA002154E70A22C3F10203FD
:1023B00053435B1083EAE372A2EBE372082AC8BFBF
:1023C0001C4640F24B12184B6FF01700634393FB0F
:1023D000F2F3182BA8BF1823029A8342ACBFD0187F
:1023E0001018FFF7ADFE84EAE473A3EBE473202B2F
:1023F0000DDD9DF814300133DBB2022B8DF8143063
:102400007FF615AF21460B4828F03FFA91E70023ED
:102410008DF814300BE700BFF803002048050020BA
:10242000403100203C31002018FCFFFFD96603003A
:10243000FC6603002B670300F401002010B588B090
:1024400000220023CDE9062300230122094CCDE917
:102450000323CDE9013300934FF480622046064BFD
:1024600006490CF089FA2046054908B0BDE810403D
:102470000CF00CBAC00A0020FD210000E080002012
:102480005667030010B5074C0146204627F0EBFEC7
:102490000121201D27F0E7FEBDE8104002480BF0A7
:1024A0007FBF00BF3C3100204805002008B5012156
:1024B000034827F0D8FEBDE8084002480BF070BF83
:1024C000F40100204805002000487047180500204E
:1024D00010B588B00DF10703029301230022CDE966
:1024E0000513039307238DF807008DF810208DF84E
:1024F0001C3007489DF81C30826843F002038DF8B9
:102500001C3094681823022202A9A04708B010BD0D
:1025100098E102001FB502238DF800008DF801102C
:10252000CDF804D002938DF80C3007489DF80C309C
:10253000826843F002038DF80C309468182301225E
:1025400001A9A04704B010BD98E1020010B50146F2
:1025500004461020FFF7DEFF30B921461120FFF7B7
:10256000D9FF08B9014B1C7010BD00BFFC0300204F
:1025700037B5054650B317482AF0CAFD38B9164892
:1025800028F083F96FF01204204603B030BDFF201D
:102590000DF10701FFF79CFF044620B101460F48EB
:1025A00028F073F9F0E79DF80710422905D00C4890
:1025B00028F06BF96FF00404E6E701232B706B60E1
:1025C000084B1870084828F060F9DDE76FF0150433
:1025D000DAE700BF98E102005F6703007A67030053
:1025E0009C67030032510020C167030037B55C4D82
:1025F000297819B10024204603B030BD17208DF88A
:102600000710FFF787FF044620B10146554828F020
:102610003CF9F0E710210520FFF77CFF044610B1DC
:1026200001465148F3E780210620FFF773FF044677
:10263000014608B14D48EAE70720FFF76BFF044663
:1026400010B101464A48E2E7002140F6CD402BF0A8
:10265000A6F820460DF10701FFF73AFF10210820E8
:10266000FFF758FF044610B101464248CFE710215A
:102670000920FFF74FFF0446014608B13E48C6E770
:102680000A20FFF747FF0446014608B13B48BEE772
:102690000B20FFF73FFF044610B101463848B6E76C
:1026A00030210C20FFF736FF044610B101463548B3
:1026B000ADE733210D20FFF72DFF044610B1014691
:1026C0003148A4E734211220FFF724FF044610B15B
:1026D00001462E489BE72E211320FFF71BFF0446DF
:1026E000014608B12A4892E71520FFF713FF044678
:1026F00010B1014627488AE710211420FFF70AFF8E
:10270000044610B10146244881E702211620FFF754
:1027100001FF044610B10146204878E7204B1878A5
:10272000FFF714FF044610B101461E486FE78F21E2
:102730001720FFF7EFFE044610B101461A4866E77E
:102740002E2333213422194828F09FF89DF80710D2
:102750008B0702D4164828F098F801232B7049E71C
:1027600032510020F3670300186803003A68030041
:10277000626803008B680300B1680300D768030038
:10278000FF680300226903004469030066690300CF
:102790008B690300B0690300D5690300F969030080
:1027A000FC030020186A0300386A03005B6A030018
:1027B000C76A0300F8B50021064615276FF00042EE
:1027C000114B124D1B7835F8134004EB400424B232
:1027D00035F9023B1B1B002BB8BF5B429342B8BFCD
:1027E000CFB201F10101B8BF1A462829F0D138460D
:1027F000FFF7ACFE044620B93A463146044828F0BB
:1028000044F82046F8BD00BFFC030020FC1A03007A
:10281000046B03002DE9F04F91B0009302F0040324
:102820000293C2F3C2030133840705460E46DDF866
:1028300068800392059340F0BB81041D30B10729E5
:1028400009D86FF01B0011B0BDE8F08F01F007064A
:102850003444C6F10806009B4FF000094FF0040A0B
:10286000591E4FF0FF334F460193CB465346CDF8E8
:1028700010900DB1009820600598002800F3E880C2
:102880009848009A824203D397488242C0F0E08081
:10289000039AA4EB050E92074FEA9E0000F1038114
:1028A0000F2F00F2B180002D00F0058107F14002EA
:1028B0000DEB020C019A0CF8200C0CF8102C04986B
:1028C00001300490E7E07A285DD84B280ED84728DD
:1028D00059D829282DD8252852D054D820287AD044
:1028E0002338D0F1000B4BEB000B74E04C382E2852
:1028F00049D8DFE800F07048484848484848484808
:1029000048484B484848484848484859484B4B591C
:102910005959704B6D487048184B184848827F4B86
:1029200048484B487F0000204FF0000B4FF0040A4E
:1029300038E001222A38C0B202FA00F010EA0E0F85
:1029400049D110F0625C2FD110EA020B43D06046EF
:10295000013C5444B4FBFAF40AFB04F4002D61D0AA
:10296000A3EB050CA444B4453FF66BAF002868D137
:10297000042B47D158F8043B2360042304342AE095
:10298000019A013A01924FF0000B24E011F8010C7A
:102990006C2834D1002011F8023C83466C2BC5D141
:1029A0004FF0080A5346D3E708F1070828F0070854
:1029B000073424F00704F8E802AB35B10698204448
:1029C000B0423FF63EAFC4E900AB4FF0000B083415
:1029D0004FF0080A534611F8010F002878D0BBF1D8
:1029E000000F7FF470AF2528F5D14FF0010B019B4C
:1029F000013301934FF0040AECE7584694E70020B6
:102A00008346A5E7082B02D06FF015001BE708F1FD
:102A1000070828F00708B8EC027B84ED007B082348
:102A20000834D8E768B9042B02D108F10408A4E7F8
:102A3000082BE9D108F1070828F0070808F1080871
:102A4000EDE705980138059058F8040B009010E761
:102A5000039A900720D54FF0010CA4EB050E4FEA26
:102A60009E00BEF5007FCFD20F2FCDD8F5B107F174
:102A700040020DEB020E019AC0B20EF8200C0EF8C7
:102A8000102CBCF1000F3FF41AAF60F07F000EF87D
:102A9000200C09F101090137C5F108024FF6DA7E71
:102AA0000434069297E74FF0000CDAE7BCF1000F10
:102AB00001D00136EFE7029A0236002AEBD10098E6
:102AC000CDE90631FDF772FBDDE906310644E2E7A8
:102AD000631BB3F5806F97D245B9A6F10804E018DF
:102AE000B1E600BFA8DF0200C4A10300029A9B0860
:102AF00028602B709DF81030C2B1EB7085F8029001
:102B0000B9F1000F05D0002208A8C5F1010C9742C9
:102B10000ED14FF0000AC5F101030DF12008019319
:102B20000DF1300B574512D1601B8CE66B70E5E759
:102B300010F8013B190608D50CEB040EB64503F05E
:102B40007F033FF67EAE04F8013B0132DFE7B9F1C7
:102B5000000F03D098F90020002A17DB029BD3B1A5
:102B60001AF80B2004F8012B0022019B18191044BD
:102B7000B0423FF666AE98F80000009904F8010BE9
:102B8000204603922AF0D9FF039A14440AF1010A5D
:102B900008F10108C6E798F8002055F822300093A4
:102BA000029B009845F82230FDF700FB421CDCE751
:102BB0006FF00D0047E600BF2DE9F04F97B000AF72
:102BC000D7F880B03B62CBF3C0030446894690F847
:102BD00002A0FA62BB6141B9457800780AEB800037
:102BE00020444D4517D8A0EB0409E378FB61BAF106
:102BF000000F02D01BF0010F16D1FB6953BBFB6A1B
:102C00001BB1494620463A6A98474D4628465C37EC
:102C1000BD46BDE8F08F461C3046FDF7C7FA0130CF
:102C2000304409F10109DCE7626823787A62FA6AC4
:102C30009900796104EB8301002A40F001810E467E
:102C40004FF000084D4601EB0A094E454CD101EB0F
:102C50000A0610E01BF0020FD1D023789A007A61A7
:102C6000626804EB83017A62FA6A002A77D14D46E2
:102C7000904601EB0A061BF0050F0CBF022301234F
:102C8000FB62FB6906EB430A0BF00203BB6256458D
:102C9000BCD016F8021B16F8013C54F82390994B4F
:102CA000994502D3984B994536D3BB69002B40D048
:102CB000786A27F0C1FD00283BD0E9468AB06A4611
:102CC000924B53617B6AC2E906314FF4007313845F
:102CD0008F4B42F8103F00234FF412518D4801F002
:102CE000B7F8023DCD46D2E716F8013BF96254F839
:102CF0002300FDF75BFAD7F88430F96A01304BB155
:102D0000D7F8883098453EBFD7F8843023F81800AC
:102D100008F10108054498E7BB6923B1786A27F0F8
:102D20008BFD0028C9D11BF0010F05D1FB6AED1AFC
:102D3000ADE7BB6A002BAAD04846FDF737FAD7F8B3
:102D4000843053B1D7F8883098453FBFD7F88420F6
:102D5000431C22F8183008F10108054497E7BAF13E
:102D6000000F73D01BF0040673D0D046002607F185
:102D7000480052463B61B9622AF0DFFEB96A3B69FE
:102D800001EB0A02BA62FA69F9695200FA60BA6A9A
:102D900002EB41023A610BF00202BA603A69B96A89
:102DA0008A4258D162781BF0020F18BF00217A6264
:102DB00008BF4FEA5801B2181BF0010FD2B240F021
:102DC0009F801BF0040F14BF40460020BB6162705F
:102DD000A070E17020463A6A7969FB6A9847051E3F
:102DE000FFF614AFBB69414623707B6A3A6A637091
:102DF000FB6984F802A0E37007F14800FB6A98477A
:102E0000B0F10008C0F2BA807B69A9EB0A01C91AC7
:102E1000FB683A6AC91AD7E90A0398470028C0F242
:102E2000AF804FF0000BA84408EB000507F1380A0B
:102E3000B34571D300213A6A0846FB6A9847E5E634
:102E400056464FF0000807F1380092E75646D04644
:102E500096E7B04694E7BA6A12F8021B12F8015CD2
:102E6000BA6254F82500274A904202D3264A90427B
:102E70001ED3BA6932B1786A7B6027F0DDFC7B68CB
:102E800000288BD1BA6802BB08F1280207F1300C88
:102E900008F10100944407F1580208F1020852FABF
:102EA00080F00CF8101C5FFA88F800F8105C75E7E9
:102EB000BA693AB1786A7B6027F0BEFC7B6800286B
:102EC0007FF46CAF1BF0010F09D006F1280207F167
:102ED0003000711C161806F8205CCEB25EE71BF0BD
:102EE000040F3FF45BAF08F1280207F1300008F14E
:102EF000010102EB000808F8105C5FFA81F84DE769
:102F0000002063E7A8DF0200C4A10300206B0300D8
:102F10000400000128E502001BF80A3054F8239051
:102F200087F83730D7F884302BB3D7F888309B45F3
:102F300021D2D7F8843033F81B8001213A6AFB6A2A
:102F400007F13700984700281ADB0544B8F1000F55
:102F500006D14846FDF72AF900F101081FFA88F862
:102F6000414648463A6AFB6A9847002808DB054410
:102F70000BF1010B5CE74FF00008DEE7454645E644
:102F8000054643E6014B1860704700BFF80100207A
:102F900080B505460E46174698460BF0B3FF03462C
:102FA0002AF0F8FF0446DFF81890424649F800304E
:102FB00039463046A84754F8090002F049F800BFE6
:102FC000080000002DE9F047058B044628079046CD
:102FD00011D4022905F0070540F0CC80204627F0E7
:102FE000D9FE78B10138218B042811D8DFE800F030
:102FF000C2106D85950001290CBF45F0100545F004
:103000002005258388F31188BFF36F8FBDE8F08713
:1030100001F0070AAA4500F0A5800027B9463E4600
:10302000A368002B00F0BC8041F00801218388F3E5
:103030001188BFF36F8FA168002900F0BA800D6876
:10304000002900F0B680334652462046D1F804806D
:10305000C047002D76D02B6829461D46F0E701F0C9
:1030600007035A1F012A1BD8002221F00701062B53
:10307000276889B2C4E9002209D13B4603E0628B8C
:10308000013262831B68002BF9D141F00201204616
:10309000218327F07FFE00287AD041F0200176E0DE
:1030A000042B0AD121F0070189B22046218327F0A1
:1030B00071FE10B141F020012183218B01F0070A3C
:1030C000AA454FD00027B946AAE7236921F0070196
:1030D00041F00601062DD3F8009021832DD1B9F1DE
:1030E000000F3FD041F00801218388F31188BFF31E
:1030F0006F8F20463949C84729E021F0070123692D
:1031000041F0040189B2042DD3F804902183E6D064
:1031100000274FF0040A3E4682E721F007012369A9
:1031200041F0050189B2052DD3F808902183D6D04E
:1031300000274FF0050A3E4672E700274FF0060AC7
:103140003E466DE72B4687E7B9F1000FD1D1EFF38B
:103150001188202383F31288BFF36F8F238B23F012
:1031600008032383258BEA062ED525F0100323833D
:1031700005F007056669218B002EBFF670AF0023AE
:103180002768C4E9003321F0070141F001012183E0
:10319000218B4FF0000901F0070AAA457FF440AFE8
:1031A000002F9CD041F00801218388F31188BFF3E0
:1031B0006F8F002FC8D03D683946334652462046AF
:1031C00027F014FE2F46F4E7AB067FF51BAF25F082
:1031D0002003238305F0070500E700BF19AE0200B6
:1031E00010B530B90B480C4927F0E0FE6FF0150020
:1031F00010BD836833B90748084927F0D7FE6FF040
:103200000400F5E71B6813B1BDE8104018471846E5
:10321000EEE700BF50E50200D46B0300E56B03004E
:1032200010B530B90B480C4927F0C0FE6FF01500FF
:1032300010BD836833B90748084927F0B7FE6FF01F
:103240000400F5E75B6813B1BDE810401847184665
:10325000EEE700BF50E50200D46B0300E56B03000E
:1032600070B508B101B132B90B480C4927F09EFE88
:103270006FF0150070BD84680CB1E56835B906487B
:10328000074927F093FE6FF00400F3E741F8040BC1
:10329000E368BDE87040184750E50200036C030086
:1032A000E56B030010B5044630B91048104927F00B
:1032B0007DFE6FF0150010BD006830B90B480D4958
:1032C00027F074FE6FF00100F5E783680BB11B690E
:1032D00033B90648084927F069FE6FF00400EAE7B1
:1032E000616898470028E6D12060E4E750E50200D5
:1032F0002F6C0300406C0300E56B030070B51346B0
:10330000044630B91048114927F050FE6FF01500FF
:1033100070BD006830B90C480D4927F047FE6FF0CA
:103320000100F5E782680AB1956835B90648094990
:1033300027F03CFE6FF00400EAE70A46AC466168FD
:10334000BDE87040604700BF50E502002F6C0300ED
:10335000406C0300E56B0300034A13680BB9526825
:1033600013600020704700BFFC01002030B50C4600
:103370000E4985B00291D0F8D4110546CDE900314F
:1033800000F1F0014FF0FF3320460AF0C7F950B9C1
:10339000012384F86C30D5F8D03123B1204605B034
:1033A000BDE83040184705B030BD00BFA5B00200F1
:1033B00038B50C461146054627F076FE034638B967
:1033C0002846044927F070FE03460020236038BDDC
:1033D0000120FBE7709703002DE9F04F01238146A0
:1033E000056946688FB005F57B77D7E8EF2F002A8F
:1033F00003D1C7E8E13F0029F7D10CBF1A460022EC
:1034000040F0BB80B368B16A05F5F8781C1F104620
:1034100027F0D1FE844279D8013A00F0A880B2FAB0
:1034200082F24FF00044D44072682046073222F006
:103430000302C5F83C22B16A27F0BDFEC5F8400280
:10344000B36A40466343033323F0030302EB4302B2
:10345000230103EB4403093323F0030303EBC40309
:10346000C5F834221A440832C5F830227368C5F80A
:103470003842C5F82C32424BC5E9AD63316800F0E3
:10348000F1F9044600283FD1D9F810B0D9F804A0CA
:10349000D9F800300BF53479059004934846DAE901
:1034A0000734012B08BF103C2AF0ABF8DAF82400EF
:1034B000344904AB009301EB8021234648464FF486
:1034C00080620BF067F92021DAF824302E4A06A832
:1034D00024F08CFF06A948460BF0D8F92B490BF5D0
:1034E00030702AF047F8DAE9050183685C684CB16E
:1034F0005B46274AA047044630B9DAE905018368EC
:103500001B692BB96FF05704002129E001327EE7D7
:103510000122984704460028F6D11E4B2846C5F8DC
:10352000D0311D4BC5F8D4311C4B0393D5F8403234
:103530000293D5F83C32CDE9008305F51173B26AE8
:10354000D5F8E81300F056F904460028DCD105F15F
:10355000F0000AF089F90028C5F8F0030ADB02211F
:10356000384627F0D5FD20460FB0BDE8F08F6FF04C
:103570000B04C9E76FF01504C6E76FF07704F2E7B4
:10358000FBB00200E0840020656C0300E1B00200A3
:10359000D5B00200A13500008DB2020041B1020099
:1035A00013B5044640B100230122CDE90032074B98
:1035B000D0E909120AF086F8236F1B6823B1606F07
:1035C00002B0BDE81040184702B010BD709703006C
:1035D00013B504460846216901F57B71D1E8AF1F98
:1035E000022910D193B1A0B10121CDE900311346D8
:1035F000D0E909120AF066F8074B984208BF6FF04D
:103600000B0002B010BD6FF00F00FAE76FF04C0036
:10361000F7E76FF00100F4E72EF8FFFF2DE9F3471D
:1036200089461546066906F57B73D3E8AF3F022B42
:1036300064D1136823B96FF0150002B0BDE8F087BC
:103640001B78002BF7D0D6F8E8A3BAF1000F36D1DB
:1036500006F5EC774FF0FF324FF0FF3338460AF0B3
:10366000A5FD30462A6801A9FFF7A2FE019C80460D
:103670001CB9384627F04AFDDDE705F1080323674A
:10368000AB6984F86CA06367646460B1384627F066
:103690003DFD21463046A36E2A68FFF767FE0020F5
:1036A000C9F80040C9E71F22296804F148002AF040
:1036B00095FA384684F8678027F028FDEFE7304612
:1036C000104927F0F1FC04460028B4D0002705F18A
:1036D00008030367AB6980F86C70436740641F227E
:1036E000296848302AF07AFA22460121304684F8C7
:1036F000677000F061F80028D1D09CE76FF00F00F0
:103700009BE700BF7097030010B50C46006900F5F9
:103710007B73D3E8AF3F022B0FD189B10A4900F583
:10372000307029F053FF204629F01CFA782200213E
:1037300020462AF029FA002010BD6FF00F00FBE7A9
:103740006FF00100F8E700BF443100202DE9F04F91
:1037500005460E4690460027D0F8C4A085B0AAF5CD
:10376000BE7421463046FCF70FFDE0B9114BA4F1C1
:10377000480B0293DAF810303246CDE9008329462F
:103780004FF0FF335846AAF5E27909F0C7FF60B958
:103790007823012203FB079383F86C20DAF80C30BE
:1037A0000BB158469847783417B105B0BDE8F08F93
:1037B0000127D6E7BBB202001FB5144690B18AB10B
:1037C000012912D10A4B00F1F0010293D0F8D43153
:1037D000483201934FF0FF332046009309F09EFFDB
:1037E00004B010BD6FF01500FAE70020F8E700BF45
:1037F000BBB202002DE9F04387B00E46DDE90E8131
:103800001446DDE910251F4630B329B3DFF850C058
:1038100000F1F009002D08BF65469EB9CDE90344CB
:1038200000F5E2742046059629F034FC03ABCDE99F
:1038300000432A463B46414648460AF08DF807B009
:10384000BDE8F083002241460E9248462A4607B062
:10385000BDE8F0430AF0D0B96FF01500EFE700BF04
:103860004D370000F0B504462B4A87B004AB0E4636
:1038700092E8030083E80300002C49D0184609F0C1
:1038800027FE0546B0B94FF0FF33E16C04F1540751
:10389000A163CDE9010000933846236D04F138029D
:1038A00028F010FEA06C27F037FDC4F8BC0020B94A
:1038B0006FF00B05284607B0F0BDA06C27F02CFD7B
:1038C000C4F8C0000028F3D0236CD4F8BC10C4F8AE
:1038D00090300423C4F89430C4F8AC300223E3627F
:1038E0000E4BB4F84820C4F88C10616C236204F1CC
:1038F0008C03C4F8A070A4F89820C4F8B870C4F879
:10390000A810A4F8B020C4F8A400A6612363D1E7EE
:103910006FF01505CEE700BF18E60200B4E902001B
:103920002DE9F047044607464FF00109DFF85080C3
:1039300014B93846BDE8F08794FAA4F5B5FA85F5D0
:1039400009FA05F32E0108EB05156FEA030A24EACC
:1039500003042B7B002BEBD058F806301B694BB9C6
:103960004644736804222846196807EA0A0727F0C4
:103970003BFDDDE7284698470028D9D1F0E700BF96
:10398000B8E5020030B5002289B00F490F4829F090
:10399000DAFF002200230024CDE906230E230C4D7C
:1039A000CDE903344FF440722846CDE90144094B78
:1039B000094900940AF0E0FF084928460AF066FF2A
:1039C000204609B030BD00BFE1390000B020002022
:1039D000B00F0020F53C0000E0880020716C03006F
:1039E00001480AF0DDBC00BF600500202DE9F0476A
:1039F000804621480F4627F0DBFC0646002833D0DE
:103A000000252846BDE8F087237B83B12368DB6867
:103A10000BB120469847636883F8069023681B69BA
:103A2000D3B9636804222046196827F0DDFC01360B
:103A300010345445E8D3B8F1000FE2D0002DDFD0A8
:103A40002846FFF76DFF0546002FF7D000214FF401
:103A5000A47029F0A4FEF1E7204698470028E0D0A2
:103A600009FA06F31D43E2E705464FF00109034C4E
:103A7000DFF80CA0DDE700BF7C310020B8E50200D4
:103A8000C8E50200014B53F820007047F4E902003A
:103A900008B5034608462BB1044A136000F070FCD9
:103AA000002008BD6FF01500FBE700BF28020020D2
:103AB00010B5044C237813B903480AF071FC0123B4
:103AC000237010BD335100206005002010B504465E
:103AD000094827F06DFC3CB1084BD3E8EF1F0139D2
:103AE000C3E8E21F002AF8D1054829F038FFBDE8F5
:103AF000104004480AF054BC743100207831002092
:103B0000B02000206005002000200146034BD3E8D0
:103B1000EF0FC3E8E21F002AF9D17047743100208B
:103B200070B5FFF7F1FF0546074C084EB44200D3CD
:103B300070BD63685B792BB123685B6813B129465C
:103B4000204698471034F1E7B8E50200C8E50200C6
:103B500010B5044C0449204626F0B5FF034B1C6009
:103B600010BD00BF18040020E0E902006C31002005
:103B700000230D4A10B513700C4A4FF40041136036
:103B80000B4A0C481360FFF783FFFFF7E1FF0A4B76
:103B90000A4918468B4200D310BD1A1A5C681211EC
:103BA000013222711033F5E73451002074310020C6
:103BB00078310020ADB30200B8E50200C8E502008C
:103BC000014600220023014826F09EBF1804002071
:103BD000014827F037B800BF18040020024B014607
:103BE000186827F083B800BF6C310020014827F027
:103BF000B8B800BF1804002070B5274B187800280B
:103C000049D0FFF7E5FF0546002841D1234B244C5E
:103C10001B68002B19DD29F04FFE4FF47A72A0FBD0
:103C2000020302FB0131C30B43EA4143D4E9002004
:103C30009B1A40F2E9324FEAD13161EB0001934225
:103C400071F1000101D3FFF76BFFD4E9003213F5E6
:103C50007A7342F10002C4E90032BDE87040FFF718
:103C6000C5BF63685B7923B12368294620461B687A
:103C700098471034B442F4D32846FFF7AFFF094BFE
:103C8000D3E8EF1F0139C3E8E21F002ABED0F7E7EF
:103C9000054C064EEEE770BD335100207431002014
:103CA000A820002078310020B8E50200C8E5020015
:103CB00070B50D4D297861B90120FFF797FE0B4CC7
:103CC0000B4EB44206D3FFF797FF0028FBD1012328
:103CD0002B7070BD63685B791BB1236820469B68BD
:103CE00098471034EDE700BF34510020B8E50200DA
:103CF000C8E5020000212DE9F0470846FFF776FEEF
:103D0000044658B340F267684FF000092AF042F9C0
:103D10001B4B1C4A1B58136033B11B4B1B68092BF0
:103D200002DD1A480AF03CFB0025194FDFF85CA0C1
:103D300044B12046FFF7F4FD044618B94FF0FF38B0
:103D40004FF0FF39FFF758FF064628B9B5B942468C
:103D50004B4650460AF05EFB3546E9E74FF0FF3828
:103D60004FF0FF39D2E72B689B691BB10022284630
:103D7000114698471035BD42F5D3E8E7054DFAE7FF
:103D8000080000007031002078310020600500201C
:103D9000C8E50200B8E5020013B5184827F008FB93
:103DA000174B1B7873B1EFF31184202383F3128830
:103DB000BFF36F8FFFF720FF84F31188BFF36F8F7E
:103DC00002B010BD0F4B1B68002BF9D050B9002278
:103DD00000230D48CDE900234FF4004200230BF0EF
:103DE000ABFBEDE70928EBD1074829F0B8FD074800
:103DF00002B0BDE810400AF0D3BA00BF783100200D
:103E00003451002070310020B020002060050020D7
:103E100010B5064B04461B6898472146A06004482D
:103E200026F0F1FEBDE81040FFF7B6BF28020020E3
:103E300018040020044A054B9B1AB1EBD30F34BF82
:103E400052F8310000207047C8E40200B8E50200D3
:103E50002DE9F04F8FB0C1F34A2804AF0D469146CB
:103E6000B8607B600C0DB8F1000F63D000264FF0F6
:103E7000040B4FF00A0A07F11403C7F80C80C7E9D6
:103E800007667E620193CDF808B0CDF800A007F177
:103E90001C0332464846F968FEF78EFEB0F5006F07
:103EA00003461CD36C468AB0D9F8041004AB2648EC
:103EB0001A46C3E9050140F2FF71D9614FF4007160
:103EC0001984224B42F8103F4FF4125133462048D8
:103ED000FFF7BEFFA5462C37BD46BDE8F08FC0F307
:103EE0000A0804F11700184420F0070080083B601E
:103EF000FFF766FE68F35325044690B13B6800F176
:103F00001001C7E9083607F11403F961CDE900A3F0
:103F1000CDF808B048460F4AF96807F11C03FEF7D0
:103F20004BFE68F353252A4620467B68B96827F084
:103F30007AFAD0E704F1170020F007008008FFF7B5
:103F40003FFE0446EDE700BF866C0300040000015D
:103F500058E50200FBB302002DE9F04F87B004469C
:103F6000DDE9105ADDE91279934698460391BFB115
:103F70003B46524610210020CDF80090CDF8149019
:103F8000FEF748FCB0F5006F06460AD340F2FF7317
:103F90000221174A174807B0BDE8F04F27F09CBA36
:103FA0003E4605F11700304420F007008008FFF777
:103FB00007FE04F007040BF0070BE40044EA8B143F
:103FC00044EA462444EA0554054640B13FB13B4625
:103FD00052463146CDF800901030FEF71BFC4346A8
:103FE00022462846039907B0BDE8F04F27F01BBAD8
:103FF000C56C030058E50200406820B1034BC01AAD
:1040000040F3CF0070474FF0FF307047C8E4020024
:104010000EB403B503AB53F8042B014604480193D7
:1040200001F0AEFB02B05DF804EB03B0704700BFD7
:104030003BB50200CA0605D48B064CBF02490349B2
:10404000FFF7E6BF704700BF6F9703006E9703004E
:104050002DE9F04F8BB09B46169B9DF854A006931C
:10406000179B04460593189B0D469046199E049392
:10407000BAF1000F00F09E8006F00103089306F0ED
:104080000803079306F48073099327F0ABF906F051
:104090000209024600283BD020468F49FFF7B8FFAF
:1040A0000746B9F1000F08D016F0440F32D12A4666
:1040B00020468A49FFF7ACFF0744089B53B1884B61
:1040C000204653F82A20874B8749002A08BF1A4602
:1040D000FFF79EFF099B002B48D0079B002B62D166
:1040E000B8F1000F64D0424620468049FFF790FFA8
:1040F0000546069B3D44002B6BD1049B002B71D1E0
:10410000F30700F1E28031462046FFF793FFD6E047
:104110000746C6E7764B18680028CDD0754B4FF49C
:104120007A791B684FF03C0CB5FBF3F5B5FBF0F169
:104130004FF4616300FB115509FB05F5B1FBF3F288
:10414000B5FBF0FE03FB121100FB1E55B1FBFCF3A7
:1041500009FB05F5B5FBF0F50CFB131120460091AA
:10416000CDE901E56449FFF753FFA5E7079BEBB1F4
:10417000624B204653F82A206149FFF749FF054664
:10418000B8F1000F05D0424620465849FFF740FFDE
:104190000544BBF1000FACD05A4620465949FFF701
:1041A00037FF0544A5E74FF0000BE1E7079DE7E780
:1041B00045469EE7BBF1010F069B06D1002B64D15B
:1041C000049B002B7BD000250CE0002BF8D04E4840
:1041D0005CE04E48069B22464D4926F0FCFA049BC3
:1041E000002B68D0DFF83881DFF83891049F314622
:1041F000102F204628BF10274FF0000BFFF71AFFA3
:104200005D4545DC059B494620461A78FFF700FFCF
:104210004FF0010B1BF0070F03D141462046FFF77B
:10422000F7FE5F453BD9059B4946204613F80B2016
:10423000FFF7EEFE0BF1010BBBF1100FEAD14FF0CF
:10424000000B20463349FFF7E3FE5A46059B204604
:104250009A5CA2F120015F2928BF2E222E49FFF788
:10426000D7FE0BF1010BBBF1100F1DD01BF0070F98
:1042700003D141462046FFF7CBFE5F455A46E5D8BD
:1042800041462046FFF7C4FEEBE720485546A1E72C
:1042900041462046FFF7BCFE0BF1010BB0E720467C
:1042A0001E49FFF7B5FEC5E7059B3B440593049BFC
:1042B000DB1B04939AD1BAF1000F7FF421AF2046A3
:1042C0000BB0BDE8F04F27F02BB92046054A064950
:1042D000FFF79EFE17E700BF026D0300066D0300A7
:1042E00004EA0200FD6C03003B7803002B6D030021
:1042F00084310020803100200F6D030018EA020095
:104300002F6D0300356D030069B502003BB5020057
:1043100081570000406D0300426D03003897030091
:104320003A9703003A6D030042F20F7373B58B4264
:1043300028BF0B4605680446052168460D4A24F04F
:1043400055F80646636828460B225B680A4927F041
:10435000D9F863683246694628465B6827F0D2F888
:1043600063681B2228465B68044927F0CBF802B03B
:1043700070BD00BFD1750300616D0300456D030082
:1043800000210123064A904206D8064A01B90123BA
:104390001360054B18607047012140085B00F2E78D
:1043A00040420F008031002084310020F8B50D46D6
:1043B0000446064F4618B44201D12846F8BD14F809
:1043C000011BBB6801485B689847F4E718E10200ED
:1043D000014B03600020704760EA020008B5044802
:1043E00026F053FABDE80840024826F04EBA00BF56
:1043F000A76D0300DC6D0300014821F0D1BA00BFB6
:1044000060EA020038B5044618B90F4B0F485B68E4
:1044100098476168B1F5683F10D0B1F5680F0DD0CD
:104420000B4DA9420AD011F46861206807D00146FB
:10443000084828F0E8FE00232360656038BD142298
:1044400029F0A2FBF9E700BF900300200A6E0300E9
:104450002C5F5CA9B436002008B560B34368B3F59F
:10446000683F0ED0B3F5680F18D0144A934220D09D
:1044700000684FF0FF324FF0FF3309F097FE58B15C
:1044800015E001220368D3E8EF1F002903D1C3E838
:10449000E02F0028F7D10AD1002008BD0368084AA0
:1044A0001B7803F5807352F82330002BF4D00548B5
:1044B000F3E70548F1E76FF4E040EEE72C5F5CA915
:1044C00000000350E98FFFFFEA8FFFFF08B520B31C
:1044D0004368B3F5683F09D0B3F5680F13D0114AAC
:1044E00093421DD0006809F0D9FE14E00022036851
:1044F000D3E8EF1F012903D1C3E8E02F0028F7D14B
:1045000009D0094808BD00210368084A1B7803F553
:10451000807342F823100020F4E76FF4E040F1E7E5
:104520000348EFE72C5F5CA9E98FFFFF0000035011
:10453000EA8FFFFF10B5044618B91D4B1D485B6894
:1045400098476368B3F5683F2FD0B3F5680F2CD058
:10455000194A934219D1236803BB4FF0FF324FF041
:10456000FF332146154809F02FFD08B923681BB910
:104570000F4B13485B68984714220021206829F0EC
:1045800003FB4FF46863636008E0B3F5683F0DD840
:104590003A2B03D040F6BA629342DED1206828F06D
:1045A000CDFE636843F03A03636010BD054AF3E74C
:1045B000900300200A6E03002C5F5CA9B436002033
:1045C000306E03003A00003A08B506494023142231
:1045D000054828F00AFEBDE808400449044821F0D7
:1045E000A3BA00BFB4310020B436002068EA02004C
:1045F0007CEA020010B5244C88B024888C420AD989
:10460000224A009123460121214826F06FFF6FF0D6
:10461000150008B010BD1F4C24789C4205D801211C
:104620001D4A1B4826F04FFFF1E700240490CDF807
:104630001640CDF81A40ADF81E40ADF814100AB976
:10464000164A126806920B9A0292BDF82820ADF81D
:104650000C200022ADF80E20114A52F8230038B980
:104660000B4801210F4A26F0FCFF4FF0FF30D0E746
:1046700002AA04A90BF072FA0028CAD10C9BBDF85B
:104680000E201A80C5E700BF1E5100205D6E03009A
:10469000A8E50200375100209B6E0300E836002099
:1046A000E4360020CB6E030030B51A4D87B02D786C
:1046B0009D4208D818480121184A26F004FF6FF0DF
:1046C000150007B030BDADF810200022ADF808107D
:1046D000ADF812209DF83010ADF81420104A01906A
:1046E0008DF80A1052F823000A99039138B90A4844
:1046F00001210C4A26F0B5FF4FF0FF30E1E703AA95
:1047000001A916F081FA0028DBD10B9BBDF812201D
:104710001A80D6E736510020A8E502009B6E030000
:10472000D0360020EC6E0300134607B541F64C521C
:1047300093420DD042F21072934212D00A480121E6
:104740000A4A26F08EFF6FF0150003B05DF804FBF7
:104750000122CDE900013F210023084615F09CF914
:10476000F3E70022F5E700BFA8E502000D6F0300A4
:104770002DE9F04F1C4641F64C5385B09A4206464F
:104780000F469DF838B00ED042F210739A4213D003
:10479000134601212F4A304826F063FF6FF01500C1
:1047A00005B0BDE8F08F4FF0010944B901212B4A53
:1047B000294826F088FEF1E74FF00009F5E745F6B5
:1047C000C0539C421DD82346254A0221224826F088
:1047D00048FF0DF10C0A53464A46394630461DF053
:1047E00047F9204B18800F9B188080B10025DFF817
:1047F00090805D4513D11C4B03981C601B4B1D70B2
:10480000CEE71B4B9C42E4D923461A4ADDE7124807
:104810000121194A26F057FE4FF0FF30C0E7D8F8C3
:10482000003043B10C482B460121144A26F019FFF1
:104830006FF07700B4E74A4639463046CDE9003A92
:104840000AF010FF48F8040B039801350028D0D077
:10485000A6E700BF0D6F0300A8E50200276F030065
:104860003C6F03001E510020E83600203751002025
:10487000FF700200616F0300876F0300B16F0300D8
:10488000E43600202DE9FF471D4641F64C539A427D
:10489000074688460ED042F210739A4216D013464D
:1048A00018480121184A26F0DCFE6FF0150004B00C
:1048B000BDE8F0874FF0010A0024144E0DF10C09F9
:1048C000AC4206D1124B00201C70F0E74FF0000AFA
:1048D000F2E7336843B10B48234601210D4A26F025
:1048E000C0FE6FF07700E2E7524641463846CDE918
:1048F000003915F0DFFF46F8040B03980134002857
:10490000DED0D4E7A8E502000D6F0300D03600200A
:1049100036510020D46F030038B5044600F098FFEC
:10492000B0B100220D4951F8323001EBC20583B914
:1049300041F832001A466C60094C54F833100133C8
:10494000322B0A44F9D1074B1968914238BF1A60DB
:1049500038BD0132322AE6D126F0FDFEF0360020C5
:10496000F4360020EC36002010B5044600F08AFF33
:104970005CB10023084A52F8331002EBC300A14295
:1049800004D1002142F83310416010BD0133322BB5
:10499000F1D126F0E0FE00BFF03600202DE9F84FFF
:1049A00080460C4600AF002965D0D1E90012E946E7
:1049B0008AB0A3686D464FF0050A2E463748C5E910
:1049C0000723C5E9050146F810AF002332464FF42E
:1049D00021513348FFF73CFAD4E90312CD4663690D
:1049E000AD463048C5E90723C5E90501C5F810A063
:1049F000002332464FF421512948FFF729FACD46CA
:104A0000E3690121284A264826F066FD264600254E
:104A10004FF00A0ADFF8A0B0E946D6E908E0D6E987
:104A20000A138EB06A46C2F81CE005F1010EC2E915
:104A300008E0A81CC2E90A01E91CC2E905B5C2E9FF
:104A40000C1342F810AF002345F24001144804351E
:104A5000FFF7FEF9102DCD4606F11006DCD1236ECE
:104A60000121124A0E4826F037FDA3690121104AA0
:104A70000B4826F031FDB8F1010F07D1EFF30583A4
:104A80000C4A41460648103B26F026FD214640468A
:104A900009F0D8F8BD46BDE8F88F00BF04700300E8
:104AA00098E502003370030062700300B4700300E5
:104AB000C3700300F17003007170030030BFFFF793
:104AC000FDBF00BF2DE9F04105460B4EDFF83080F9
:104AD000324606EB0807CC1B2046084929F02DF882
:104AE000A01942460021083C29F04EF8C5F8A8401C
:104AF00007F10800BDE8F081000000000CE60200AC
:104B000008000000054B9A699B689A421FBF044A3F
:104B1000536843F080535360704700BFF43C00205B
:104B200000ED00E070B52A4C06460D4629482A499A
:104B300026F0A6FDA36ADB0647D52648274926F0BE
:104B40009FFD1120A36A1C0704D52248244926F0A2
:104B500097FD12201E4CA36A990712D521491D48C2
:104B600026F08EFD636BA26A120609D501211E4A4A
:104B7000184826F0B1FC1EB1A36A23F08003A3629B
:104B80001320134CA36ADE0704D51248174926F0F8
:104B900077FD1420A36A9C0604D50E48144926F01C
:104BA0006FFD15200A4B9A6AD10658BF9A6A9A6A15
:104BB000920642BF5A6A22F400525A629A6A42F03E
:104BC000FF029A6200232B7070BD1020BAE700BF6D
:104BD00000ED00E098E50200047103001A71030083
:104BE0004D71030060710300787103008E71030042
:104BF000AD71030010B5244C2449254826F040FD32
:104C0000A36A99013ED52248224926F039FD1E208B
:104C1000A36ADA0104D51E481F4926F031FD1F2082
:104C2000194CA36ADB0204D519481C4926F028FD5B
:104C30000220A36A1C0304D51548194926F020FD5B
:104C40002120114CA36A590304D51148154926F0B7
:104C500017FD2220A36A9A0304D50D48124926F0B5
:104C60000FFD2320084CA36ADB0304D508480F4935
:104C700026F006FD2420A36A6FEA03436FEA13437C
:104C8000A36210BD1D20C3E700ED00E0DC7103004E
:104C900098E50200F471030007720300217203001B
:104CA0004B720300697203008E720300A872030046
:104CB00070B5294C06460D462848294926F0E0FCE7
:104CC000A36AD9043CD52548264926F0D9FC1720EB
:104CD000A36A1A0504D52148234926F0D1FC1820DF
:104CE0001D4CA36A9B0512D51C48204926F0C8FC20
:104CF000A36BA26A100409D501211D4A174826F0AA
:104D0000EBFB1EB1A36A23F40043A3621920124CEB
:104D1000A36A590504D51148164926F0B1FC1A209A
:104D2000A36ADA050ED50D48134926F0A9FC1B200D
:104D3000094A936A43F47F43936200232B7070BD4A
:104D40001620C5E7A36A9B04F2D504480B4926F058
:104D500097FC1C20ECE700BF00ED00E098E50200A6
:104D6000D3720300E97203004D710300FA7203006D
:104D7000137303002873030043730300AD71030032
:104D80002DE9F0419CB0624B0546D3F80480002623
:104D900000AFC8F3080486F31188BFF36F8F02F0E9
:104DA0007F43B3F17F4F07D102F00C03082B12D1E0
:104DB0005849594826F064FC002635460023FB710B
:104DC000E31E092B00F28380DFE803F00A797C758B
:104DD00081818181817F10074CBF0D460126EDE75F
:104DE0004E494D4826F04CFC0023494CFB71E36AC8
:104DF0009A0705D54A49484826F042FC002431E08C
:104E0000E36A002B01DA4749F5E7E36A5B00F5D571
:104E10004549414826F034FC6369AA6943F480732C
:104E20006361BFF34F8FBFF36F8F636932F8022C5A
:104E300023F480736361BFF34F8FBFF36F8F4DF621
:104E400002739A4207D0A36ADBB23BB30120F91D7B
:104E5000FFF768FE31E02B680121344A2E4826F026
:104E60003BFB2C68FB79ABB96822294607F10800A7
:104E700028F063FE7B6A002E45D0C3F3080222B9F6
:104E80006FEA53236FEA43237B62204607F1080150
:104E9000FFF784FD7037BD46BDE8F081A36A13F4C7
:104EA0007F4F04D00120F91DFFF702FF05E0A36A40
:104EB000B3F5803FA2D3FFF79DFE0446D2E7002062
:104EC000F91DC5E70020F91DEEE7194993E7194AD6
:104ED00018F4F87FE8468AB0174B18BF13466A46A5
:104EE0001649103CC2E905134FF400731384144BA8
:104EF000D46142F8103F00234FF411510648FEF7E9
:104F0000A7FFC5467AE723F4FF7323F00103BBE74D
:104F100000ED00E08973030098E50200B47303001C
:104F2000CB730300EC730300FA73030019740300DE
:104F300035740300707303005B730300597403003E
:104F400004000001064B5A6942F010025A615A6986
:104F500042F480625A615A6922F008025A6170472D
:104F600000ED00E0EFF30880EFF3098101B5724630
:104F7000FFF706FF01BD00BF002080F31488BFF3D8
:104F80006F8F002080F30A8880F30B88104880F32D
:104F9000088800200F49087006F0FEFC00200E492A
:104FA0000860BFF34F8F00F02DF8202080F31188A8
:104FB0000A484FF40061401880F30988EFF3148029
:104FC0000221084380F31488BFF36F8F00F00EF9BD
:104FD00020B50020DB54002094ED00E0E09B002091
:104FE000002318460649D1F89020C2F307229342C5
:104FF00000DB7047C1F89830C1F8A0000133F6E734
:1050000000ED00E010B572B6002484F31388FFF7BA
:10501000E7FF23464FF0FF300C4A03F12001013334
:10502000102B42F82100F8D100234FF0FF30074A3F
:1050300003F160010133102B42F82100F8D162B670
:10504000BFF34F8FBFF36F8F10BD00BF00E100E0D3
:10505000084B9B6883420BD1EFF3058343B1064BAA
:105060005A6842F080525A605A6A22F400425A62E8
:1050700009F04EBFF43C002000ED00E025498A68AD
:1050800082F8F5E04FF030001044EFF3098C80E82F
:10509000F01F1EF0100F03D102F1B40080EC108A53
:1050A000202080F31288BFF36F8F1B4F4FF00066F4
:1050B0008A698A603E60D2F8A800184C206092F994
:1050C000F5E0D2F8AC000023C2F8AC3080F31188D0
:1050D0001EF0100F03D00023E1EE103A03E002F1BE
:1050E000B40090EC108AEFF3148323F0040383F3ED
:1050F0001488BFF36F8F02F1300090E8F01F8CF33B
:10510000098802F1000004B526F0C2FABDE80440A7
:1051100070470000F43C002004ED00E080380020DF
:105120001EF0040F0CBFEFF30880EFF309808169D4
:1051300011F8021C0229FFD001B5724626F095FA3B
:1051400001BD00BF40B2002807DB01234109034A2B
:1051500000F01F00834042F82130704700E100E07A
:1051600040B200280CDB01220649430900F01F0071
:105170008240203341F82320BFF34F8FBFF36F8F5E
:10518000704700BF00E100E0054B420953F82220C0
:10519000012300F01F0003FA00F01040704700BF29
:1051A00000E100E040B2002801F10101ACBF00F1D4
:1051B0006040064B4FEA4111C9B2ABBF00F56140F8
:1051C00000F00F0080F800131954704714ED00E050
:1051D000044B054A23F07F039360BFF34F8FBFF367
:1051E0006F8F70470000000000ED00E008B5FFF78A
:1051F000EFFF104BD3F8882022F47002C3F8882008
:10520000D3F8882042F4A002C3F888204FF040422F
:10521000C3F83422BFF34F8FBFF36F8F0023E1EE4B
:10522000103A08F0FDFD09F0CBFF00F07DF808F022
:105230003BFE00BF00ED00E042F8203C009B0D4922
:1052400042F81C3C019B21F0010142F8183C029BF2
:1052500042F8081C42F8143C4FF0807342F8043CBA
:105260000023C0F8AC304FF47D43203A0265C0F80B
:10527000F4307047912F0000104B9B6883421AD185
:10528000EFF30580B8B9EFF31181202282F3128881
:10529000BFF36F8F1A7B22F002021A73EFF31483AD
:1052A00023F0040383F31488BFF36F8F81F3118815
:1052B000BFF36F8F70476FF015007047F43C00200C
:1052C0000E461546002300B5E1EE103AEFF31483C5
:1052D00023F0040383F31488BFF36F8FBFF36F8F42
:1052E0000A4BD0F8A8209860094B1A60D0F8983083
:1052F00083F30B882C4686F309880020054B9847DA
:105300002046002100220023034C2047F43C0020CB
:10531000803800209BB60200912F00001022014B24
:105320001A61704700ED00E0002320210348C218F5
:105330000133452B82F80013F9D1704700E100E0FA
:1053400008B5EFF30583064A103B02EBC30152F8A0
:10535000330049688847BDE80840FFF7D3BB00BF6A
:10536000D8E102001FB5094C094A2346012109482A
:1053700000F012F900230393074B0121E41A01A85E
:105380000193029400F012F904B010BD0000072050
:10539000000000208CEA0200A007002010B50C7A63
:1053A0000B6804F01F0223F01F031A43CB68640943
:1053B00023F01F03054943EA440343F00103C1F806
:1053C0009800C1F89C20C1F8A03010BD00ED00E0AD
:1053D00010B50A4BD3F89030C3F30723013B984232
:1053E00008D901210346064A064826F075F86FF0F1
:1053F000150010BDFFF7D2FFFBE700BF00ED00E096
:105400007074030078E502002DE9F04F89461446D8
:1054100006464FF00008514D85B0C84527DAD6F84A
:1054200004A0BAF1000F44D0BAF11F0F17D91AF037
:105430001F0F14D1D6F800B01BF01F0F0FD1584624
:1054400026F067F907460AEB0B00013826F061F9F0
:10545000874210D06FF01507414A3B4601E04346B2
:10546000404A0121404826F037F86FF015042046E5
:1054700005B0BDE8F08F17F1160FEDD0BC42EBDDA3
:10548000C5F89870D5F89C10C5F89870D5F8A0307C
:1054900021F01F0143F01F0BD6E900321A44994254
:1054A00002F1FF3A1DD1D34507D13146F8B226F0BB
:1054B00039F908F101080C36AFE73146C5F89870A4
:1054C000D5F89C3022F01F0203F01F031343C5F8E8
:1054D0009C30E0B226F026F910F1160FC5D0441C1E
:1054E000E7E7C5F89870D5F8A020013B23F01F032B
:1054F00002F01F021343D3453146E0B2C5F8A03095
:10550000E8D026F00FF910F1160FAED0C5F898705C
:10551000D5F89C209DF808300BF1FF3B62F30403A3
:105520008DF80830D5F8A0309DF808205B0863F3AB
:1055300047128DF80820D6E900321344009323F077
:105540001F035B44A3EB0A03013023F01F036946EA
:10555000C0B20393FFF73CFFBEE700BF00ED00E0E1
:10556000B97403009674030078E502000522044B29
:10557000C3F89420BFF34F8FBFF36F8F704700BF06
:1055800000ED00E0BFF35F8F0022024BC3F89420D0
:10559000704700BF00ED00E010B5034C2278FFF724
:1055A00033FF207010BD00BF385100202DE9F74FA8
:1055B000294D8A4606464FF00008AB46274FD04596
:1055C0001BDAD6F80490B9F1000F3FD031680846D5
:1055D000019126F09EF80199044609EB010001387B
:1055E00026F097F884424FF014021D4B08D002FBBE
:1055F00008F36FF015024BF8032003B0BDE8F08FFD
:1056000014F1160F2C60F8D01978A142F5DD02FBD9
:1056100008B0C7F89840C7F89840D7F89C4000F108
:105620000801007B64F304000871D7F8A0000C792E
:10563000400860F347140C71D7F89C1021F01F014B
:105640006960D7F8A01021F01F01296108F1010855
:1056500014350C36B3E700BF8438002000ED00E0BD
:1056600038510020F0B54149414CD1F890302568BF
:10567000C3F307239D4287B075D80020FFF782FF50
:105680003C4BC1F8C030854216D13B4C01A8257077
:10569000FEF79EFE00250646384FAE4213D100208D
:1056A00023783249D1F89020C2F30722934254DB89
:1056B000FFF75CFF00202FE0616801EB0011FFF7AE
:1056C0006DFE0130DFE70199280101EB0513DA686F
:1056D0003A40B2F5001F21D0B2F5800F2BD0B2F5C1
:1056E000801F38D15A689B680958013B22F01F007F
:1056F00003440120844623F01F0340EA4C10CDE907
:1057000002218DF8100002A920780593FFF760FEB2
:1057100000281DDA6FF0150007B0F0BD5A689B68CD
:105720000958013B22F01F0003444FF0020C0120F6
:1057300023F01F03E1E75A689B680958013B22F0F8
:105740001F0003444FF0000C062023F01F03D4E792
:1057500023780133237001359FE7C1F89830C1F8F1
:10576000A00001339EE74FF0FF30D5E700ED00E0E9
:1057700098EA0200AAFF4400385100200000F0FF20
:10578000F0B587B007460E46144600211022684641
:105790001D4628F0F9F902238DF80230054B2A4600
:1057A00021466846CDE90476019322F0E5FE07B074
:1057B000F0BD00BF5DB7020008B5024822F0F6FD5B
:1057C000FEE700BFEB74030008B5024B1B68984767
:1057D000002008BD98380020034B044A18609378D5
:1057E00043F0020393707047983800206402002051
:1057F00008B5054825F049F8002383F31188BFF365
:105800006F8F0423184602DFF074030008B50649C1
:10581000064821F00701C1F1005202F5E02224F010
:1058200082FF002008BD00BFF7F100209C38002057
:105830004FF0FF324FF0FF33014808F0B7BC00BF14
:1058400074020020014808F029BD00BF7402002046
:1058500038B50546FFF7ECFF2A460821074824F033
:10586000EEFE044628B925B128F094FB0C22044B27
:105870001A50FFF7E7FF204638BD00BF9C380020D4
:105880000C00000010B50446FFF7D2FF2146034884
:1058900024F089FEBDE81040FFF7D4BF9C380020FB
:1058A00070B541690446867A0A4D59B1437ADB07DF
:1058B00006D42C2303FB06535B6A1B689B6898473E
:1058C000002363612C20214606FB0050BDE8704098
:1058D00027F0DCBD680600202C22024B02FB0030C2
:1058E000704700BF680600202C21827A054B01FB1F
:1058F00002339A6A1B7F801A1B3323F00303B0FB29
:10590000F3F070476806002038B52C24827A064BE5
:1059100004FB02335B6AD3E901240C601568FFF7CE
:10592000E3FF04FB005038BD680600202DE9F0437A
:1059300085B00546684690461C46039127F0BEFF99
:10594000DDE90067EFF31189202383F31288BFF3A9
:105950006F8F6B8B002B41D02A8B9A4225D9002266
:105960000023284608F0EAFC0446F0B189F31188C8
:10597000BFF36F8F039B002B41D032463B466846F6
:1059800027F0C0FF2C21A27A254B204601FB0233D1
:105990005B6A03A91B681D68DDE90023A8476061F5
:1059A00070BB2046FFF77CFF24E0698B4B1E6B83A6
:1059B00089F31188BFF36F8F2B7F2A8BAC6A1B335F
:1059C00023F00303521A02FB0344154B154AEB1A4A
:1059D0009B105343A3722B7FE372CBE789F31188AB
:1059E000BFF36F8F23464246284608F0A7FC0446C3
:1059F0000028BFD10024204605B0BDE8F0836361D4
:105A0000012300252381039B29466382E27A656096
:105A100004F1180028F0B8F863692582E360EAE72A
:105A200068060020A38B2EBA70B52C250B4C00B94C
:105A300070BD037A4668013BDBB20372002BF7D1DD
:105A4000C3604360837A05FB03431B6A13B1984725
:105A50003046ECE7FFF724FFFAE700BF68060020B6
:105A6000054B03EB8000D0F8003223F0E04343F015
:105A70004053C0F80032704700258450052370B5AC
:105A8000144D154E2C780134B4FBF3F303EB830370
:105A9000E41A26F0B4FB114A137823B156F82430E7
:105AA000C01A072814D94FF05023D3F8141141B16C
:105AB0000021C3F81411D3F814312C700CB9012350
:105AC00013702C7826F09BFB46F82400012070BD53
:105AD0000020FCE73A510020A8380020395100206E
