:020000040000FA
:1000000000D40020E54F0000D1260200D14F0000AF
:10001000D14F0000D14F0000D14F0000D14F000060
:100020000000000000000000000000008D510000F2
:10003000D14F000000000000E9500000D14F000047
:10004000AD530000AD530000AD530000AD530000B0
:10005000AD530000AD530000AD530000AD530000A0
:10006000AD530000AD530000AD530000AD53000090
:10007000AD530000AD530000AD530000AD53000080
:10008000AD530000AD530000AD530000AD53000070
:10009000AD530000AD530000AD530000AD53000060
:1000A000AD530000AD530000AD530000AD53000050
:1000B000AD530000AD530000AD530000AD53000040
:1000C000AD530000AD530000AD530000AD53000030
:1000D000AD530000AD530000AD530000AD53000020
:1000E000AD530000AD530000AD530000AD53000010
:1000F000AD530000AD530000AD530000AD53000000
:10010000AD530000AD530000AD530000AD530000EF
:10011000AD530000AD530000AD530000AD530000DF
:10012000AD530000AD530000AD530000AD530000CF
:10013000AD530000AD530000AD530000AD530000BF
:10014000AD530000AD530000AD530000AD530000AF
:10015000AD5300007BB972B90029BEBF00204FF03B
:10016000004106E008BF00281CBF6FF000414FF0BF
:10017000FF3000F057B8ADF1080C6DE904CE00294E
:1001800009DB002B1ADB00F069F8DDF804E0DDE99B
:10019000022304B07047404261EB4101002B1BDB9E
:1001A00000F05CF8DDF804E0DDE9022304B0404231
:1001B00061EB4101524263EB43037047524263EBF0
:1001C000430300F04BF8DDF804E0DDE9022304B05E
:1001D000404261EB41017047524263EB430300F040
:1001E0003DF8DDF804E0DDE9022304B0524263EBA0
:1001F0004303704753B94AB9002908BF00281CBF00
:100200004FF0FF314FF0FF3000F00CB8ADF1080CAB
:100210006DE904CE00F022F8DDF804E0DDE9022308
:1002200004B07047704700BF10F8012B11F8013B74
:10023000012A28BF9A42F7D0D01A7047034611F816
:10024000012B03F8012B002AF9D17047034613F85C
:10025000012B002AFBD1181A013870472DE9F0470D
:1002600086468C460846089E154674461946002B5D
:1002700040F0C1808542B2FA82F245D94AB1C2F15A
:10028000200300FA02FC954094402EFA03F343EA5F
:100290000C0C4FEA154EA8B2230CBCFBFEF80EFB6B
:1002A00018CC08FB00F943EA0C43994528D9EB1810
:1002B00008F1FF3704D2994502D9A8F102072B446F
:1002C000A3EB0903A4B2B3FBFEFC0EFB1C330CFB37
:1002D00000F044EA0344A04214D92C190CF1FF3376
:1002E00004D2A04202D9ACF102032C44241A43EAFE
:1002F00007401EB1D440002334607360BDE8F0872E
:100300004746DDE76346F1E792BB431B01214FEA15
:10031000154EAFB2200CB3FBFEFC0EFB1C330CFBE6
:1003200007F840EA0343984561D9EB180CF1FF3018
:1003300004D2984502D9ACF102002B44A3EB080388
:10034000A4B2B3FBFEFC0EFB1C330CFB07F744EA24
:100350000344A7424DD92C190CF1FF3304D2A74214
:1003600002D9ACF102032C44E41B43EA0040C0E78D
:10037000C2F120039540944020FA03F12EFA03F3D2
:100380004FEA154E9040AFB20343B1FBFEFC0EFBAB
:100390001C10190C0CFB07F841EA0041884522D9D2
:1003A00069180CF1FF3004D2884502D9ACF1020083
:1003B0002944A1EB08019BB2B1FBFEFC0EFB1C1112
:1003C0000CFB07F743EA01439F420ED9EB180CF1EF
:1003D000FF3104D29F4202D9ACF102012B44DB1B56
:1003E00041EA004193E76046E3E76146F7E760468C
:1003F000A4E76346B8E7834206D916B90021084648
:100400007CE7C6E900E0F9E7B3FA83F78FB98342E6
:1004100001D3724508D8BEEB020460EB0303012050
:100420009C461EB9002169E73846FAE7C6E9004C48
:10043000F8E7C7F1200CBB400EFA07F522FA0CF4DE
:100440002EFA0CF1BA401C4320FA0CF3B8404FEAE4
:10045000144901431FFA84FEB3FBF9F809FB183075
:100460000B0C08FB0EFA43EA00439A4540D9E31807
:1004700008F1FF3004D29A4502D9A8F102002344C2
:10048000A3EB0A0389B2B3FBF9F809FB183308FBA5
:100490000EFE41EA03418E452CD9611808F1FF3365
:1004A00004D28E4502D9A8F10203214443EA004058
:1004B000A1EB0E01A0FB02984145CE46434602D374
:1004C00006D14D4504D20138B9EB020E68EB0403A6
:1004D000002EA7D0B5EB0E0261EB030101FA0CFC74
:1004E00022FA07F3F9404CEA0303C6E9003199E721
:1004F0004046C5E74346D9E70A460146014821F090
:10050000F7B900BF6062030008B50146054821F055
:10051000EFF90022044B05481A80BDE8084020F09E
:100520001DBA00BF9062030008740020CC070020B1
:1005300010B5044623F0AFFB084BA0FB0330DB0BE8
:1005400043EA404001F00AFC2146A022044825F07D
:1005500016F8BDE81040034820F000BA40420F00F2
:10056000AA7400209C07002008B5084821F0C0F9B3
:10057000074BD3E8EF1F0331C3E8E21F002AF8D18D
:10058000BDE8084003481BF043B800BFAA6203005F
:10059000D8500020DC50002008B50021044820F08D
:1005A000D2F920B1BDE8084040B220F0F9B908BD49
:1005B000D8500020062110B50F4820F0B0F90028CF
:1005C0000BDD00210D4820F0BEF9BDE8104046F2D9
:1005D000676200230A481BF0C7B8094824F03EFDB3
:1005E00040B9064820F0B7F920B9BDE810400548E9
:1005F0001BF00EB810BD00BFFC5A0200A050002036
:1006000058160020A45000201FB5124B04461B684A
:10061000834218D1104820F0A1F9104820F09BF92E
:1006200048B90F4A13680133012B136003D9012124
:100630000A4820F088F9204601A908F0A1FF20B956
:10064000019801F07DFB04B010BD064A1368013328
:100650001360F8E73C350020E4070020F435002063
:10066000EC340020E83400202DE9F0430646B3B016
:10067000384D05AB95E8030083E803001946304682
:1006800007F068FA044638B10146334821F030F9E2
:10069000204633B0BDE8F083014614220DA824F0B3
:1006A00095FFAB89A868ADF808306B8A0190ADF86A
:1006B0001030D5F80E00294B0390129303F124005B
:1006C00048331893032301AA1492062201270793A3
:1006D000DFF89C90224B03A9CDE91621CDE9192121
:1006E00015900993494634330DF1480807AD0AA81F
:1006F0001392CDF820800A970B950C930AF026F9F7
:10070000044610B101461748C0E74FF40003D9F87A
:1007100000000AA9CDE90B38CDF8288022F0B1FFFE
:10072000044610B101461048B0E716238DF81C307E
:10073000BDF82C303A468DF81D300A9B29463046CC
:10074000089307F075FA04460028A1D0014607482F
:100750009CE700BF70600200BC62030048350020C7
:1007600058010020F4620300176303002C630300A8
:10077000B4350020014603488368DB690BB10122D0
:1007800018477047FC5A020010B50121154820F0A7
:10079000DAF8154820F0DFF8044620B11348BDE828
:1007A000104021F0A5B8124820F0D5F870B12146CC
:1007B0000F4820F0C8F80F4820F0D2F80E48214624
:1007C00020F0CEF801F080FD0C48E8E7084820F062
:1007D000BAF8084820F0C4F80748012120F0C0F812
:1007E0000748DCE7A0500020B45000204963030014
:1007F0009C500020386402004064020070630300D3
:100800008463030010B5164820F0A5F838BB1548DE
:1008100020F0A1F8044620B11348BDE8104021F0B3
:1008200067B8124820F097F860B121460F4820F0D1
:100830008AF80F4820F094F821460E4820F083F8FB
:100840000D48EAE70121094820F07DF8084820F02A
:1008500087F80121074820F076F80848DDE710BD49
:10086000D45000209C50002097630300B450002017
:1008700040640200C4500020BA630300E363030035
:1008800010B50D4820F067F8A8B904210B4820F0F6
:1008900046F804460028D4BF00210121084820F072
:1008A00052F80849084B0948002CC8BF1946BDE852
:1008B000104021F01DB810BDD4500020FC5A020099
:1008C000C4500020176403000F6403002064030079
:1008D0002DE9F041334D344E344F86B04FF0FF32A6
:1008E0004FF0FF3328461AF019FD0022002330464E
:1008F00021F074FF044618B92D4820F0F9FFEDE708
:1009000000F10C080D21404621F09BFF00213846E4
:1009100020F019F830B3274B01AA03F1100E9446CA
:10092000186859680833ACE8030073456246F6D18D
:100930001868CCF800001422404601A921F092FF6B
:10094000DFF888801C4B2146B8F80020186822F098
:10095000E8FB011E12DA194820F0CAFF204605F014
:1009600061F8BBE7142201A824F030FE144B1548AF
:1009700019680131196020F0BBFFDCE7B8F80030DE
:10098000114A0133A8F80030136801331360C822FC
:10099000B3FBF2F102FB1133002B9FD1084A136025
:1009A0009CE700BFE407002014080020984E0020B8
:1009B0002A640300FA7700203C35002079640300A4
:1009C000FC3400204D640300F8340020087400203B
:1009D0002DE9F0474FF000083C4B3D4E9D8F3D4FB9
:1009E000AAB04FF0FF324FF0FF3330461AF096FCBA
:1009F000A022394602A824F0C2FD37481FF0ABFF01
:100A000018B1502102A801F03FFC34481FF0A3FFA9
:100A100040B933481FF09FFF014618B9A02202A831
:100A200024F0D4FD00212F481FF08DFF88B12E4CFB
:100A300002A834F9023BB0F9002003EBD37302EBB8
:100A4000D2725B10013103EB6203502920F8023BA4
:100A5000EFD123F020F9254B8146CDE900532448FE
:100A60000123002102AA00680EF042FC824623F016
:100A700012F9BAF1FF3F044603D11E4820F038FFB7
:100A8000AFE7DFF888A001211B481FF05CFF9AF850
:100A9000003023B119481FF061FF8AF80080184A1E
:100AA0001368591C11606422B3FBF2F002FB10338F
:100AB000002B96D1134AA4EB0900A0FB0202C00B45
:100AC00040EA4242104820F013FF8AE75801002014
:100AD00054070020AA7400209C500020D45000200D
:100AE000C4500020944E00200A740020FA770020A1
:100AF000904E002097640300984E0020E4070020E9
:100B0000F434002040420F00AA6403005006002085
:100B10002DE9F04FDFF8C8B1D7B04FF0FF324FF0FA
:100B2000FF3366481AF0FAFB00214FF0010A0C4629
:100B30000F466348DFF8AC91624D1FF004FF0DF1E2
:100B40001408ADF81410A0236A7D06AE03FB0463FD
:100B500059F8040B002A00F09C8035F8022C002A7A
:100B600000F09780142ACDE9003A28BF1422002310
:100B700029460EF029FEB0FA80F0400925F8027CE3
:100B80002F756F7508F8010B1C35002C7FD064277A
:100B9000DBF80010B1FBF7F907FB1919B9F1000FE9
:100BA00020D1494820F0A4FE484DDFF83C8195F85B
:100BB0006530002B78D195F86410002328461A463A
:100BC000994273DC12FB07F2B2FBF1F24046494650
:100BD000D2B220F08DFE6635B9F1000F62D03C48EC
:100BE00020F086FE00249DF815309DF81480394DC4
:100BF000DFF8F8C0DFF8F8E003933046A946BCF808
:100C00000030DEF800109BB201EB8317403101EB9E
:100C100083120292B8F1000F4ED0B0F90020039970
:100C200011B1B0F9A0A052442B4902308A42B8BF9A
:100C30000A4647F6FF718A42A8BF0A464FEA024AAF
:100C40001AFA82FA47F804AB29F8022B029ABA4240
:100C5000E0D1BEF80C200133B3FBF2F102FB1133FB
:100C600010349BB2502CACF8003005F1200506F191
:100C70002006C2D1012112481FF065FE17481FF05F
:100C80006DFEDBF800300133CBF8003045E701247E
:100C900059E7CDE9003A00231A4619460EF094FDB3
:100CA00000206BE7A14682E7642186E710F801CBBC
:100CB00001336244D2B283E74246B0E76C070020BA
:100CC000944E0020BE350020C76403002E7700201C
:100CD000929C03000A7400200080FFFF540700204C
:100CE000F0340020884E0020D66403004C750020AC
:100CF00048010020F8B52C4B14465A68904204D0A5
:100D00009B6883424FD1022600E0012627481FF04E
:100D100022FE002847D0002C43D0238A23B18B79B0
:100D200083F00203C3F340031C220027013E7243F9
:100D30001F48875201278518AF75EB758A88662191
:100D4000AA6164251B4A01FB062292F864105354E1
:100D50003944B1FBF5FC05FB1C1182F8641009B99C
:100D600082F865705BB11C23228A7343142A28BF62
:100D70001422C2520233E168184424F000FC0E48E9
:100D8000D0E8EF3F0133C0E8E23F002AF8D1012B61
:100D900009D900211FF0D7FDBDE8F84007481FF032
:100DA000DDBD2346C0E7F8BD3C350020F43500200A
:100DB000BC3500202E770020B83500206C070020BD
:100DC00008B5084820F094FD074BD3E8EF1F03391E
:100DD000C3E8E21F002AF8D1BDE8084003481AF032
:100DE00017BC00BFE3640300D8500020DC50002093
:100DF00041F288332DE9F0419E4A9F4D0021C5E91B
:100E00000F23022385F83A30FF23AB709B4B012060
:100E100098B0C5E901310BF007FD00F1744404F509
:100E2000A6043CB12146964820F062FD204618B049
:100E3000BDE8F081934820F05BFD934820F058FD19
:100E40009249934820F054FD00F01AFB014650B13E
:100E5000904820F04DFD90481FF096FD30B98F4826
:100E600020F046FD0CE000F033FBF4E74FF4803156
:100E70008B481FF035FD014690B18A4820F038FDBF
:100E800089498A4824F090F889488A4924F0DAF898
:100E900081481FF079FDD0B9874820F029FD25E071
:100EA0004FF0E8617E481FF0F8FC044610B101469F
:100EB0008248E3E78248834B436010238360FFF757
:100EC00059FC214680481FF03EFD8048C8E7804815
:100ED0001FF05AFD0028DFD04FF480317D481FF00D
:100EE000FFFC0146C0B17C4820F002FD0321002335
:100EF00008461E2201F07AF9014610B1774820F029
:100F0000F7FC1FF043FD7649764800F03DFC0446AF
:100F100060B30146744887E74FF4B01173481FF07F
:100F2000DFFC014608B17248DEE769481FF02CFD7E
:100F300008B97048B1E74FF4B0116F481FF0D0FC0A
:100F4000014608B16D48CFE74FF0E86161481FF0F6
:100F5000A4FC014608B16A48C6E76A486A4B436088
:100F600040238360FFF706FC684896E700F044FCE6
:100F7000044610B10146664856E700F0EFFB6548AD
:100F800020F0B6FC286C00F095FE044610B1014636
:100F9000614849E76148624924F006F83E481FF07D
:100FA000F3FC002840F0E2805E4820F0A1FC5E4B9C
:100FB00000224FF47A51286C0EF026F85B4B186033
:100FC000002800F00D8100224FF47A51584B286C14
:100FD0000EF074FA574E3060002800F008810022AD
:100FE0004FF47A51544B286C0EF068FA7060002868
:100FF00000F0FC80514820F07BFC514820F078FC48
:1010000000260027002403234FF48052CDE9033447
:10101000CDE90667CDE901444A4B4B4900944B4862
:101020001AF01EFC4A4949481AF0A4FB4FF0020886
:101030004FF48052CDE90667CDE90248CDE900447E
:10104000444B4549049445481AF00AFC4449434836
:101050001AF090FB01222146424823F021FF20464E
:1010600005F0E4FE0446002800F0C68001463E4834
:10107000DAE600BF1400050058010020ADDEEFBE27
:10108000F76403001D650300376503005465030022
:101090006665030076650300FC5A02008B65030059
:1010A00050640200A665030005080000A45000205B
:1010B00058160020890700001C660300C76503005E
:1010C000C850002081080000C4500020EB650300D8
:1010D000DC5A0200486402004066030023670300F4
:1010E0003105000048010020386703004064020019
:1010F000666603008966030038640200A566030083
:10110000C7660300B8500020B5050000F066030074
:101110004F6703006767030097670300DC500020F8
:1011200099050000B1670300300C0020904E0020AC
:10113000F8350020884E0020404200200A68030055
:1011400029680300110B0000C07F0020400A002026
:101150005B680300D1090000C08F0020380B00201D
:101160006768030054070020B068030096481FF02A
:101170000BFC00283FF418AF4FF4803193481FF068
:10118000AFFB00287FF413AF4FF4803190481FF07D
:10119000A7FB00287FF40BAF4FF0B8618B481FF01E
:1011A0007CFB00287FF403AF4FF0B86188481FF044
:1011B00074FB00287FF4FBAE8648874B874E436064
:1011C00004238360864B73600823B360FFF7D2FA71
:1011D0003046FFF7CFFA0321824820F089FBE6E68C
:1011E000814820F085FB6FF004041FE601242146AE
:1011F0007E4820F07DFBF6E77D4F13AE0FCF0FC684
:101200003B682146336009AA13A806F021FC044676
:1012100010B10146774807E64FF4A0220AAB41F629
:1012200052010CA8CDE90D230C9321F02CFB72493F
:101230000CA821F032FB16238DF83C30BDF8343079
:1012400000948DF83D300C9B4246109341F20923E7
:10125000ADF84430694B099812930FA9234621F049
:1012600088FE044610B101466548DDE50998FFF7A0
:10127000FBF9044600287FF4D9AD099821F0ABFEB4
:10128000044610B101465F48CEE5ADF83C008DF84C
:101290003E000FA9099806F00BFC044610B1014668
:1012A0005948C1E5594B5A4A5A4E5B495E609960AC
:1012B00003F11407C3E90661C3E90B611360283326
:1012C000936013460998576052F8041B01348968EB
:1012D00095F83A604968E4B2032CCE70F4D14F49D6
:1012E0002A6C0B608A60EA8F8A810CAA08F0B2F936
:1012F000044610B101464A4896E50546494FDFF8D5
:101300005081494E2946384620F0F2FA4FF0FF321C
:101310004FF0FF3340461AF001F8044610B1014681
:10132000424881E529463046013520F0E1FA032D97
:10133000E8D100F019FD2546344EDFF818813C4F06
:101340002946404620F0D4FA1422002113A824F0A4
:101350003DF90323E9B2003918BF0121304613AA31
:101360008DF84D3007F05CFD044610B10146314860
:101370005AE529463846013520F0BAFA032D06F120
:101380001406DDD100220023CDE9062302234FF409
:101390008062CDE90243CDE90044274B27490494FC
:1013A00027481AF05DFA274925481AF0E3F926483C
:1013B0001FF0D4FA012000F08BF8014600283FF41A
:1013C00035AD224830E500BFFC5A020060640200DF
:1013D00058640200F8500020C10D0000EC500020BD
:1013E00069050000CF67030073680300906803007D
:1013F00084600200D068030056341200FB680300CA
:101400000E69030037690300676903000035002097
:101410003C350020080100201C0100202401002090
:1014200096690300B5690300DA690300BF68030029
:10143000396A0300166A0300D1080000C07B00204F
:10144000480900205E6A0300E4070020656A030083
:10145000CC070020F8690300084B1A691268002ABB
:10146000B8BF80F0010028B19B68DB684FF00041F5
:10147000024818479B681B69F8E700BFFC5A020046
:1014800038B5104D2B78BBB90F4C204623F08CFBA0
:10149000A8B12269A1681368204643F00043136095
:1014A0000B680A4A1F219847034630B9FFF7D4FF5B
:1014B000034610B901232B700023184638BD6FF086
:1014C0001203FAE70E780020FC5A020001000A001D
:1014D00010B5074B04461B7823B12046BDE81040E9
:1014E000FFF7BABFFFF7CCFF0028F6D010BD00BF52
:1014F0000E7800202DE9F047854F06463B78002BFB
:101500004BD0002849D04FF000094C46814D824B0A
:101510002A78011F03EB42183C3051F8042F13B214
:10152000002BB8BF5B429BB212149C42B8BF1C4652
:10153000002AB8BF524292B29145B8BF9146884244
:10154000EBD1DFF810A2DAF80030002B0FDA402CD4
:1015500002DCB9F1400F0ADD4C45ACBF002101218E
:101560004B4622466D48CAF8001020F0C1F9DAF85F
:101570000030002B70DBDCB2002356F82320002C57
:101580006FD112B228F813200133102BF5D12B782C
:101590000133DBB2042B66D82B70614A61481378A3
:1015A0006149DFF8B491002B0CBF8046884683F078
:1015B00001031370D9F80030002B00F08C809A687A
:1015C00014885A68A4B2B2F800A09A891FFA8AFA5D
:1015D000564B544519784FD8AAEB0405ADB20029F3
:1015E00050D0544577D0DFF864A1DAF8001049B143
:1015F000D9F800302A469B894D4820F079F900231C
:10160000CAF80030C446D9F800504FEA841E2B684F
:1016100003EB841303F140096246186859680833E4
:1016200003C24B459446F7D12868402200217044FC
:1016300023F0CCFFAB890134B4FBF3F103FB11447D
:10164000AA68A4B23B4B1480D3E8EF1F0131C3E872
:10165000E21F002A1DD0F7E74C45ACBF002401244F
:101660008AE712148EE700232B70334B1B68002B84
:1016700093D02948984790E70AEB02052D1BADB29D
:101680000029B0D1042D1FD840220021404623F06C
:101690009DFF3B784146002B14BF3046002000F0F0
:1016A000BDF9014688B3254B1A680132052A1A6034
:1016B00005D93220B2FBF0F300FB13232BBBBDE8AE
:1016C000F0471F4820F014B901211E48197029461F
:1016D00020F00EF985E740220021404623F076FFF6
:1016E000194BD3E8EF1F0131C3E8E21F002AF8D1FC
:1016F000164B17481A6801321A60D0E8AF2F1968E4
:101700009142C6D91FF044F9C3E7BDE8F08700BF96
:1017100012780020117800204E7500208B6A03009B
:101720000F78002058510020185100201078002018
:10173000E56A0300105100201C52002004510020D3
:10174000156B0300C16A0300145100200C510020E6
:10175000085100209C010020185200204FF0FF3358
:1017600007B501A901931FF024F938B9019B5A1C50
:10177000032A28BF4FF0FF33024A136003B05DF81D
:1017800004FB00BF9C01002037B502466C460B46A7
:10179000134903C984E803001046F2B1EBB1114DBF
:1017A0002A7812B1002003B030BD0F4A10600F4AF2
:1017B0002046136000F036FB0028F4D19DF800208D
:1017C0000B4B1A70019B5A1C032A28BF4FF0FF33A2
:1017D000084A136001232B70E4E76FF01500E2E77D
:1017E0009860020014780020185200201C5200203B
:1017F000127800209C01002070B5324B1B78002B22
:101800005CD0314E3378002B56D1304800F090F840
:1018100000F094F8044628B101462D4820F068F8FD
:10182000204670BD014640222A4823F0CFFE4022C8
:101830002146294823F0CAFE284B21461C70284B1C
:1018400028481C60284D1FF0A3F828481FF0A0F876
:1018500027481FF09DF82B782648002B08BF002052
:101860001C4900F0B5F8044610B101462248D5E7FE
:101870002B782248002B08BF0020174900F0CEF833
:10188000044610B101461E48C8E700F009FB0446B3
:1018900030B101461B4820F02BF800F0E1F8BFE71B
:1018A000194B2978194A1A4800290CBF11461946C4
:1018B00020F01EF8012333700024B1E74FF0FF340D
:1018C000AEE700BF1478002013780020F514000064
:1018D000506B030058510020185100201078002050
:1018E0000C510020145100201278002010510020CB
:1018F00008510020D85100206B6B03009851002044
:10190000876B0300AA6B03004A6B03004D6B030057
:10191000D96B0300012908D138B1044A126822B1F9
:10192000D0E9000100B901B11047704720520020F2
:10193000014B1860704700BF2052002037B51D4D85
:101940002B78002B34D14FF0502449F6A633C4F83D
:101950005C350123A361D4F8203153B1002116482E
:1019600001AA22F0BEF8002808DA6FF0040003B0E4
:1019700030BD0021212023F038FCECE7019B0F4A09
:10198000197918680AF0F4F802460028EDD101210F
:10199000282003F03DFC282003F00AFC084A0949EE
:1019A00009480BF005FC094B9842DED101232B704E
:1019B0000020DCE7157800206864020000800250F7
:1019C00015190000A0010020C80100200000AD0B87
:1019D0001FB50F4C2378012B13D100B989B1102307
:1019E000CDE9010100220B4801A9ADF80C300BF044
:1019F000B1FC094B984207D102230020237004B0A8
:101A000010BD6FF01500FAE76FF00400F7E700BFB4
:101A100015780020C80100200000AD0B1FB50D4B4C
:101A20001B78022B13D100B989B11023CDE9010134
:101A3000094801A9ADF80C300BF000FD074B9842A6
:101A400014BF6FF00400002005B05DF804FB6FF0D8
:101A50001500F9E715780020C80100200000AD0B43
:101A600010B5054C2378022B04D104480BF028FD57
:101A70000123237010BD00BF15780020C80100208D
:101A80004FF050232DE9F74FD3F85C6549F6A633A4
:101A9000B6B2002E08BF1E464FF00008C2464546AB
:101AA00000244FF0FF324FF0FF336F4819F036FC3F
:101AB0006E4AD2E8EF3F012B03D1C2E8E14F002983
:101AC000F7D10CBF012727460BD1214668481EF0ED
:101AD00069FF684B68481A68684B19681FF008FF6F
:101AE000DAE7674BD3E8AF4F012D11D004D9AB1E15
:101AF000012B3CD9474609E05E4B604A21461B68F2
:101B0000126860481FF0F4FEA2460125B846C7E7F8
:101B1000584B08F101081B684345EBD840F24B13C2
:101B2000A4EB0A01C1F5C332574DA032554395FBD2
:101B3000F3F505F51B442B46A63405F5DD55534852
:101B4000009406351FF0D4FEB5F5804F04D35048FD
:101B50001FF0CEFE0025D9E74FF0502321464D4817
:101B6000C3F85C451FF0C4FE0225A6B2CEE7414B88
:101B700008F101081B684345BCD8474BD3E8AF8F39
:101B80003E4BB4EB0800D3F8009061EB0101002953
:101B90004FEA590B21DB4A463B46FEF7DBFA9345F9
:101BA00001DAA2EB09023D4802EBD2723C494FEA4E
:101BB0006209032D08BF0146434622463948CDF845
:101BC00000901FF095FE09F5FA73B3F57A7F12D9EC
:101BD000494635481FF08CFE98E7B8EB040061EBEE
:101BE00001014A463B46FEF7B5FA5A45C8BFA2EB8B
:101BF00009025242D7E740F24B13234C04FB09F48D
:101C000094FBF3F43444B4F5004F1BDD4BF6FE7344
:101C10009C421ADCA4B24FF05023022DC3F85C455D
:101C200089EAE973A3EBE97312D10F2B3FF76EAF8B
:101C300001210F481EF0B6FE21461C481FF058FE39
:101C4000032563E74FF40044E5E74BF6FF74E2E752
:101C5000202BF5DD002106481EF0A4FE494614485D
:101C60001FF046FE76E700BF3C070020D8010020A9
:101C700024520020D0010020196C0300D401002060
:101C80002C520020436C030018FCFFFF706C030013
:101C9000A16C0300C46C0300285200200B6C0300ED
:101CA000126C0300E66C0300096D0300286D03004D
:101CB000426D030010B5184B421E9A42014688B08F
:101CC00005D8164CB4FBF0F200FB124434B11448B2
:101CD0001FF00EFE6FF0150008B010BD114B18601C
:101CE000114B12481A601FF003FE00220023CDE9B9
:101CF000062301234FF48062CDE90243CDE900447D
:101D00000B4B0C4904940C4819F0AAFD0B490A48E6
:101D100019F030FD2046DFE79F860100A086010014
:101D2000606D0300D4010020D00100207E6D03000F
:101D3000811A0000C09F0020881600209E6D0300BD
:101D4000014608B503481EF02DFEBDE808400248D4
:101D500019F0AABA2C5200203C0700200146014885
:101D60001EF020BE2852002008B5012103481EF0B5
:101D700019FEBDE80840024819F096BAD8010020C3
:101D80003C07002010B588B00DF107030293012332
:101D90000022CDE90513039307238DF807008DF882
:101DA00010208DF81C3007489DF81C30826843F0E5
:101DB00002038DF81C3094681823022202A9A04760
:101DC00008B010BDDC5B02001FB502238DF80000D7
:101DD0008DF80110CDF804D002938DF80C3007482F
:101DE0009DF80C30826843F002038DF80C30946843
:101DF0001823012201A9A04704B010BDDC5B02003A
:101E000010B5014604461020FFF7DEFF30B9214629
:101E10001120FFF7D9FF08B9014B1C7010BD00BF9E
:101E20005106002037B5054650B3174822F0BCFED6
:101E300038B916481FF05CFD6FF01204204603B05D
:101E400030BDFF200DF10701FFF79CFF044620B1D4
:101E500001460F481FF04CFDF0E79DF8071042299E
:101E600005D00C481FF044FD6FF00404E6E70123A1
:101E70002B706B60084B187008481FF039FDDDE7C8
:101E80006FF01504DAE700BFDC5B0200A76D03000A
:101E9000C26D0300E46D030016780020096E030094
:101EA00037B55C4D297819B10024204603B030BD08
:101EB00017208DF80710FFF787FF044620B1014671
:101EC00055481FF015FDF0E710210520FFF77CFFB6
:101ED000044610B101465148F3E780210620FFF780
:101EE00073FF0446014608B14D48EAE70720FFF7B3
:101EF0006BFF044610B101464A48E2E7002140F674
:101F0000CD4023F072F920460DF10701FFF73AFFAB
:101F100010210820FFF758FF044610B1014642483F
:101F2000CFE710210920FFF74FFF0446014608B113
:101F30003E48C6E70A20FFF747FF0446014608B1BE
:101F40003B48BEE70B20FFF73FFF044610B10146B8
:101F50003848B6E730210C20FFF736FF044610B1B1
:101F600001463548ADE733210D20FFF72DFF04462C
:101F700010B101463148A4E734211220FFF724FFB5
:101F8000044610B101462E489BE72E211320FFF78F
:101F90001BFF0446014608B12A4892E71520FFF7C7
:101FA00013FF044610B1014627488AE71021142088
:101FB000FFF70AFF044610B10146244881E70221D9
:101FC0001620FFF701FF044610B10146204878E7CC
:101FD000204B1878FFF714FF044610B101461E4845
:101FE0006FE78F211720FFF7EFFE044610B101467F
:101FF0001A4866E72E233321342219481FF078FC53
:102000009DF807108B0702D416481FF071FC0123BE
:102010002B7049E7167800203B6E0300606E0300CA
:10202000826E0300AA6E0300D36E0300F96E0300F4
:102030001F6F0300476F03006A6F03008C6F03007C
:10204000AE6F0300D36F0300F86F03001D70030031
:10205000417003005106002060700300807003008F
:10206000A37003000F710300F8B500210646152781
:102070006FF00042114B124D1B7835F8134004EB02
:10208000400424B235F9023B1B1B002BB8BF5B4256
:102090009342B8BFCFB201F10101B8BF1A46282957
:1020A000F0D13846FFF7ACFE044620B93A46314637
:1020B00004481FF01DFC2046F8BD00BF510600205B
:1020C000DC6003004C7103000023084A1370084AC7
:1020D0001360084A1360084AD2E8EF1FC2E8E03FE5
:1020E0000028F9D105481FF003BC00BF1878002074
:1020F0003452002030520020C45000206871030088
:1021000038B50A4600EB410504460021A5420DD131
:10211000B1F5FA7F2C4C13DA2378012B3CD0022B3B
:1021200046D0002B3DD1294B002239E034F9023B47
:10213000002BB8BF5B421BB29942B8BF1946E5E716
:102140000146234800F0DAF82378012B22D0022B35
:1021500028D033BB0028E6DD1C491E480A68006809
:10216000013282420A601CDB01220B601A4B227092
:10217000D3E8EF1FC3E8E02F0028F9D1FFF7F4FD03
:10218000164B186808B119F08FF8BDE838401448AC
:102190001FF0AEBB002804DC022301222370114B88
:1021A0001A6038BD002803DD012323700D4BBBE707
:1021B0000C4A1368013313600B4A12689342F0DB38
:1021C000BDE83840FFF780BF187800203452002067
:1021D000445200203C520020C450002040520020B5
:1021E0007771030030520020385200202DE9F3416E
:1021F0001C4C054620460E461746984600F030F91E
:1022000068BBC4F8F002294620461EF0D5FB28B171
:102210006FF01504204602B0BDE8F08120464FF46F
:102220007A511EF0D3FB04460028F1D10E4B324602
:102230001E600E4B29461F600D4BC3F800800D4BEE
:1022400018700D4B18600D4B18600D4B18704FF443
:10225000FA730C4800933B461FF04AFBDAE76FF035
:102260000404D7E7445200203C520020385200209A
:1022700040520020187800203452002030520020B4
:1022800017780020877103009F29034670B512D884
:102290000B4C0C4D26784A0001FB06F0194605EB65
:1022A000400023F06CF916B90123237070BD0023A0
:1022B000A02128462370BDE87040FFF721BF00BF72
:1022C00017780020EE75002010B5084C2378013BEC
:1022D000012B01D8FFF7F8FE0023054A2370136095
:1022E000044A1360044A137010BD00BF1878002020
:1022F00034520020305200201778002038B508B939
:1023000020F058FA0A24D0F8F0520D4B53F825303B
:102310005C43A24207D014245C43A24203D01E2493
:1023200063439A4209D1074B53F825309847002858
:10233000E6DB14BF0120002038BD4FF0FF30FBE783
:10234000A064020090640200032966D8DFE801F06F
:102350000220374E324B1A689B88C0F8C422A0F87E
:10236000C832304B1A689B88C0F8CA22A0F8CE3217
:102370002D4B1A689B88C0F8D022A0F8D4322B4B82
:102380001A689B88C0F8D622A0F8DA32002070477D
:10239000274B1A689B88C0F8C422A0F8C832254B86
:1023A0001A689B88C0F8CA22A0F8CE32224B1A685D
:1023B0009B88C0F8D022A0F8D432204BE0E7204B15
:1023C0001A689B88C0F8C422A0F8C8321D4B1A684E
:1023D0009B88C0F8CA22A0F8CE321B4B1A689B8893
:1023E000C0F8D022A0F8D432184BC9E7184B1A68AD
:1023F0009B88C0F8C422A0F8C832164B1A689B8884
:10240000C0F8CA22A0F8CE32134B1A689B88C0F8D5
:10241000D022A0F8D432114BB2E74FF0FF30704712
:1024200086610300806103007A6103007461030028
:102430006E61030068610300626103005C61030078
:1024400056610300506103004A61030044610300C8
:102450003E61030038610300326103002C61030018
:1024600010B5044610B94FF0FF3010BD0123002114
:102470000360C0E945111022043023F0A7F804F1ED
:1024800014001EF037FE2D4B04F1B40203F11801C5
:1024900053F8040B8B4242F8040BF9D1284B04F19A
:1024A000CC0203F1180153F8040B8B4242F8040BE1
:1024B000F9D1244B04F1E40203F1180153F8040BA1
:1024C0008B4242F8040BF9D11F4B04F1FC0203F1DB
:1024D000180153F8040B8B4242F8040BF9D142F275
:1024E000107104F5ED7304F29A2223F8021F93424F
:1024F000FBD10021C02204F58E7023F067F8002183
:10250000124B2046C4E9A733C4F8A812C4F8AC1291
:10251000A4F8B012C4F8B212C4F8B612A4F8BA12F1
:10252000C4F8BC12C4F8C012C4F8A432FFF70CFF00
:10253000002898D12A23C4F8EC3296E7D46103002E
:10254000BC610300A46103008C61030040064006E7
:102550002DE9F04F00F53777A9B03B461646044603
:102560001EF036FB18220021A4F8E80205461CA83C
:1025700023F02CF81822002122A823F027F8502E4F
:1025800022D1B4F9C4320893B4F9CA320193B4F930
:10259000D0320693B4F9D6320A2D07932EDD4FF0D0
:1025A000000B22AB0493AE4B0DF170080993CDF8EC
:1025B00014B0CDF808B00025029B2E46A7F5377A57
:1025C0004FEA4309039529E0A02E0BD1B4F9C63296
:1025D0000893B4F9CC320193B4F9D2320693B4F92A
:1025E000D832D9E7B4F9C8320893B4F9CE3201939E
:1025F000B4F9D4320693B4F9DA32CDE7B4F918312C
:10260000002B00F31A8200260023A4F81A3130466A
:10261000266029B0BDE8F08F0123039310ABBAF90F
:10262000E420BAF9B4104B44B7F900001EF090FB57
:102630008C4B0CAA33F90930BAF9CC105843039BE0
:10264000064442F8230016ABBAF9FC204B44B7F914
:1026500000001EF07DFB844B039A33F909300AF128
:102660000C0A58430EAB43F82200054409F10C094B
:10267000002AD1D0002E40F0DA80002D00F0E58055
:1026800085EAE573B3FA83F31F22013B1BB2099974
:10269000D21A31F9023B0991059902FB0313059304
:1026A000069B46F30F31B3EB820FB8BF4FF0010B1F
:1026B000002940F3CD800C986C4B03EA80001EF09B
:1026C0009BFCA8F80000C0F58040A8F80C0045F37A
:1026D0000F3100290ADD654B0E9803EA80001EF0D9
:1026E0008BFC049B1880C0F580409881029B08F108
:1026F000020801330293049B023702330493029BC6
:10270000062B7FF458AF059B079A4FF000089342C1
:10271000B4BF5E464BF00106554B36B20A93554B9B
:1027200004F1B4050993544B07934FF448534246C0
:10273000B5F92812204604931EF072FB4FEA4803B5
:102740000693484B074603EB48031A4600212846E8
:1027500002931EF05AF99A224FF4207A8011C0EBAE
:10276000071010FB02F0C0F34F230593434BC8EB57
:1027700048270393049BFF01534407F510571BB2EE
:10278000DDF81890A5F1B40BBFB20B93BBF9FC3088
:10279000BBF9B400BBF9CCC0BBF9E4100493002E24
:1027A0006ED0059B41F69A1E184400B25045B8BF42
:1027B00050463BB29842A8BF184622AB39F90310E5
:1027C00016ABABF8B40039F90300039A01FB00F330
:1027D000DB1213FB0EF35B150133B2F900E00CEBD7
:1027E00063031BB27345B8BF73460B9A0CF1040C1C
:1027F0009342A8BF1346ABF8CC30B5F82832BDF8E9
:102800001020A3EBEC0313FB00F3DB108810A3F5FF
:102810008053584302EB820100114900002809B29D
:1028200063DC404204921EF0E7FB404260E086EA2F
:10283000E672B2FA82F2013A12B23DB185EAE5736C
:10284000B3FA83F3013B1BB221E71F221F231EE7CC
:102850004FF48043A8F8003039E74FF4407A95E709
:102860004462030004620300EC61030000C0FFFF48
:102870001C6203002C62030038620300286203001C
:1028800040F28F2E1CAB33F90930059A049310AB3C
:1028900039F903C0049B03FB0CF3DB1213FB0EF3AB
:1028A00000EBA35313441BB25345B8BF53460FFA72
:1028B00087FE7345A8BF7346ABF8B430B5F828322D
:1028C000A3EBE00313FB0CF30498DB100230801041
:1028D000A3F5805358438013002800F39C804042A6
:1028E00004911EF089FB404298E004921EF084FBA4
:1028F00000B2049A803040F30720024412B2B2F5CD
:10290000C07FB8BF4FF4C072ABF8FC20039B803788
:102910000233BAF5407F0BF10C0BBFB2039309F100
:102920000C099AD10021029A28461EF06EF8069BE7
:10293000454A05F1180A13441A4607460021504635
:102940009B461EF062F8079BC0F34F22814633F985
:10295000020BC7F34F210793531A1BB2834215DAB8
:102960000144891A09B201EB410701EB87015A467C
:1029700041F38F0150461EF048F8B9104942814694
:10298000029A284609B21EF040F80746099A32F921
:10299000023B09924FEAE91249F3CF194B4508DA95
:1029A000298B9A1A11FA82F12983A98C11FA82F2E1
:1029B000AA840A98F91130F9022B47F3CF179742EE
:1029C0000A9008DD521A298811FA82F12980A98912
:1029D00011FA82F2AA8108F10108B8F1060F05F197
:1029E00002057FF4A4AED4F814310133C4F81431D5
:1029F000002E3FF403AEB4F81A3101331BB2062B9C
:102A0000DBBFA4F81A31089BA4F81A810193019B3B
:102A1000A4F81831FBE504911EF0EEFA00B2049917
:102A2000203040F38910084400B2B0F5C07FB8BF31
:102A30004FF4C070ABF8E40068E79BB29E1C013B0A
:102A400036B2A4F81831DFE5EC6103002DE9F04758
:102A500043F6D72C002540F6EA3642F2984A491050
:102A60008D4215DB0646002740F2353C41F2DE7E02
:102A700043F25E088F4234DB002547F6FF7C3A4E76
:102A800002F1020E8D4200F1100053DBBDE8F08729
:102A900050F83580D3F804E01F68A8EB0E0404F565
:102AA0000054A41306FB0474C3F80080D3F8088014
:102AB0005C60A4EB08095FEAA93948BF09F1010984
:102AC0000AFB09EEDC68AEEB0404A41348BF013432
:102AD0000CFB0484C3E902E4641040F8354001357E
:102AE000BEE7D6F804A0D3F814900137AAEB090486
:102AF00004F50054A5131C69C3F810A00CFB054491
:102B00009D695C61A4EB050A5FEAAA3A48BF0AF135
:102B1000010A0EFB0A99DC690836A9EB0404A41328
:102B200048BF013408FB0455C3E906956D1046F80B
:102B3000045C9FE750E90234234450E904473C44D5
:102B4000E413B442B8BF3446DB136445A8BF6446FF
:102B5000B342B8BF33466345A8BF634622F8154069
:102B60002EF8153002358DE70080FFFF2DE9F74F75
:102B70008946019240F20A38002240F23F4C45F665
:102B8000F52143F2672440F2B916DE27DFF894E01E
:102B9000234D09F1040A019B9A4202D103B0BDE81A
:102BA000F08F03680C3008FB03FB50F8083C0BF572
:102BB000804B0EFB03BB50F8043C0CFB03BB0368CB
:102BC00001FB03BB436804FB03BB836805FB03BB3A
:102BD000C36806FB03BB036907FB03B349F8323044
:102BE00050F8083C07FB03FB50F8043C0BF5804B06
:102BF00006FB03BB036805FB03BB436804FB03BB85
:102C0000836801FB03BBC3680CFB03BB03690EFBBA
:102C100003BB436908FB03B34AF832300132BAE719
:102C200039F1FFFFFEF7FFFF2DE9F04F91B0009360
:102C300002F004030293C2F3C20301338407054682
:102C40000E46DDF868800392059340F0BB81041DB9
:102C500030B1072909D86FF01B0011B0BDE8F08F23
:102C600001F007063444C6F10806009B4FF0000946
:102C70004FF0040A591E4FF0FF334F460193CB46E5
:102C80005346CDF810900DB10098206005980028AB
:102C900000F3E8809848009A824203D39748824222
:102CA000C0F0E080039AA4EB050E92074FEA9E0065
:102CB00000F103810F2F00F2B180002D00F005819B
:102CC00007F140020DEB020C019A0CF8200C0CF8F5
:102CD000102C049801300490E7E07A285DD84B2846
:102CE0000ED8472859D829282DD8252852D054D86D
:102CF00020287AD02338D0F1000B4BEB000B74E086
:102D00004C382E2849D8DFE800F070484848484839
:102D10004848484848484B4848484848484848591F
:102D2000484B4B595959704B6D487048184B1848CF
:102D300048827F4B48484B487F0000204FF0000BF3
:102D40004FF0040A38E001222A38C0B202FA00F03B
:102D500010EA0E0F49D110F0625C2FD110EA020B7D
:102D600043D06046013C5444B4FBFAF40AFB04F43B
:102D7000002D61D0A3EB050CA444B4453FF66BAF26
:102D8000002868D1042B47D158F8043B2360042362
:102D900004342AE0019A013A01924FF0000B24E03A
:102DA00011F8010C6C2834D1002011F8023C834644
:102DB0006C2BC5D14FF0080A5346D3E708F107083A
:102DC00028F00708073424F00704F8E802AB35B10F
:102DD00006982044B0423FF63EAFC4E900AB4FF046
:102DE000000B08344FF0080A534611F8010F002871
:102DF00078D0BBF1000F7FF470AF2528F5D14FF0EC
:102E0000010B019B013301934FF0040AECE7584694
:102E100094E700208346A5E7082B02D06FF0150049
:102E20001BE708F1070828F00708B8EC027B84EDDF
:102E3000007B08230834D8E768B9042B02D108F1D5
:102E40000408A4E7082BE9D108F1070828F00708CF
:102E500008F10808EDE705980138059058F8040BCB
:102E6000009010E7039A900720D54FF0010CA4EBD7
:102E7000050E4FEA9E00BEF5007FCFD20F2FCDD8B2
:102E8000F5B107F140020DEB020E019AC0B20EF847
:102E9000200C0EF8102CBCF1000F3FF41AAF60F0BC
:102EA0007F000EF8200C09F101090137C5F1080275
:102EB0004FF6DA7E0434069297E74FF0000CDAE71B
:102EC000BCF1000F01D00136EFE7029A0236002A6A
:102ED000EBD10098CDE90631FDF7B8F9DDE906310F
:102EE0000644E2E7631BB3F5806F97D245B9A6F1BC
:102EF0000804E018B1E600BFEC590200A89D0300E9
:102F0000029A9B0828602B709DF81030C2B1EB70BC
:102F100085F80290B9F1000F05D0002208A8C5F18C
:102F2000010C97420ED14FF0000AC5F101030DF1DB
:102F3000200801930DF1300B574512D1601B8CE630
:102F40006B70E5E710F8013B190608D50CEB040E91
:102F5000B64503F07F033FF67EAE04F8013B013235
:102F6000DFE7B9F1000F03D098F90020002A17DB42
:102F7000029BD3B11AF80B2004F8012B0022019B0D
:102F800018191044B0423FF666AE98F80000009958
:102F900004F8010B2046039222F0F1FA039A14443C
:102FA0000AF1010A08F10108C6E798F8002055F86F
:102FB00022300093029B009845F82230FDF746F935
:102FC000421CDCE76FF00D0047E600BF2DE9F04F33
:102FD00097B000AFD7F880B03B62CBF3C003044694
:102FE000894690F802A0FA62BB6141B94578007841
:102FF0000AEB800020444D4517D8A0EB0409E37884
:10300000FB61BAF1000F02D01BF0010F16D1FB6972
:1030100053BBFB6A1BB1494620463A6A98474D4666
:1030200028465C37BD46BDE8F08F461C3046FDF7AC
:103030000DF90130304409F10109DCE762682378B9
:103040007A62FA6A9900796104EB8301002A40F000
:1030500001810E464FF000084D4601EB0A094E452E
:103060004CD101EB0A0610E01BF0020FD1D02378FF
:103070009A007A61626804EB83017A62FA6A002A34
:1030800077D14D46904601EB0A061BF0050F0CBFA9
:1030900002230123FB62FB6906EB430A0BF00203E8
:1030A000BB625645BCD016F8021B16F8013C54F81A
:1030B0002390994B994502D3984B994536D3BB69D8
:1030C000002B40D0786A1EF0EAFB00283BD0E9468E
:1030D0008AB06A46924B53617B6AC2E906314FF46B
:1030E000007313848F4B42F8103F00234FF41251AA
:1030F0008D4801F0B7F8023DCD46D2E716F8013B06
:10310000F96254F82300FDF7A1F8D7F88430F96A82
:1031100001304BB1D7F8883098453EBFD7F884309E
:1031200023F8180008F10108054498E7BB6923B1AA
:10313000786A1EF0B4FB0028C9D11BF0010F05D13D
:10314000FB6AED1AADE7BB6A002BAAD04846FDF733
:103150007DF8D7F8843053B1D7F8883098453FBF11
:10316000D7F88420431C22F8183008F101080544E0
:1031700097E7BAF1000F73D01BF0040673D0D04666
:10318000002607F1480052463B61B96222F0F7F988
:10319000B96A3B6901EB0A02BA62FA69F96952003D
:1031A000FA60BA6A02EB41023A610BF00202BA60BD
:1031B0003A69B96A8A4258D162781BF0020F18BF87
:1031C00000217A6208BF4FEA5801B2181BF0010FC4
:1031D000D2B240F09F801BF0040F14BF4046002085
:1031E000BB616270A070E17020463A6A7969FB6A3F
:1031F0009847051EFFF614AFBB69414623707B6AF2
:103200003A6A6370FB6984F802A0E37007F1480032
:10321000FB6A9847B0F10008C0F2BA807B69A9EB5D
:103220000A01C91AFB683A6AC91AD7E90A0398471A
:103230000028C0F2AF804FF0000BA84408EB000557
:1032400007F1380AB34571D300213A6A0846FB6A90
:103250009847E5E656464FF0000807F1380092E738
:103260005646D04696E7B04694E7BA6A12F8021B73
:1032700012F8015CBA6254F82500274A904202D342
:10328000264A90421ED3BA6932B1786A7B601EF03A
:1032900006FB7B6800288BD1BA6802BB08F12802C4
:1032A00007F1300C08F10100944407F1580208F1CD
:1032B000020852FA80F00CF8101C5FFA88F800F847
:1032C000105C75E7BA693AB1786A7B601EF0E7FA7C
:1032D0007B6800287FF46CAF1BF0010F09D006F16A
:1032E000280207F13000711C161806F8205CCEB2D7
:1032F0005EE71BF0040F3FF45BAF08F1280207F113
:10330000300008F1010102EB000808F8105C5FFAD8
:1033100081F84DE7002063E7EC590200A89D030007
:10332000CA710300040000018C5F02001BF80A3020
:1033300054F8239087F83730D7F884302BB3D7F878
:1033400088309B4521D2D7F8843033F81B80012187
:103350003A6AFB6A07F13700984700281ADB0544F0
:10336000B8F1000F06D14846FCF770FF00F10108E4
:103370001FFA88F8414648463A6AFB6A984700288F
:1033800008DB05440BF1010B5CE74FF00008DEE7BA
:10339000454645E6054643E6014B1860704700BFC9
:1033A000DC01002080B505460E461746984618F009
:1033B0001DFD034622F010FB0446DFF8189042463C
:1033C00049F8003039463046A84754F8090001F062
:1033D00075FE00BF080000002DE9F047058B04468C
:1033E0002807904611D4022905F0070540F0CC804B
:1033F00020461EF002FD78B10138218B042811D837
:10340000DFE800F0C2106D85950001290CBF45F082
:10341000100545F02005258388F31188BFF36F8FD1
:10342000BDE8F08701F0070AAA4500F0A580002753
:10343000B9463E46A368002B00F0BC8041F008016D
:10344000218388F31188BFF36F8FA168002900F0F2
:10345000BA800D68002900F0B680334652462046F7
:10346000D1F80480C047002D76D02B6829461D4630
:10347000F0E701F007035A1F012A1BD8002221F0B0
:103480000701062B276889B2C4E9002209D13B460F
:1034900003E0628B013262831B68002BF9D141F09B
:1034A0000201204621831EF0A8FC00287AD041F0BA
:1034B000200176E0042B0AD121F0070189B22046D1
:1034C00021831EF09AFC10B141F020012183218B51
:1034D00001F0070AAA454FD00027B946AAE7236999
:1034E00021F0070141F00601062DD3F80090218359
:1034F0002DD1B9F1000F3FD041F00801218388F3AD
:103500001188BFF36F8F20463949C84729E021F061
:103510000701236941F0040189B2042DD3F8049016
:103520002183E6D000274FF0040A3E4682E721F0CF
:103530000701236941F0050189B2052DD3F80890F0
:103540002183D6D000274FF0050A3E4672E70027B8
:103550004FF0060A3E466DE72B4687E7B9F1000FAC
:10356000D1D1EFF31188202383F31288BFF36F8F3B
:10357000238B23F008032383258BEA062ED525F021
:103580001003238305F007056669218B002EBFF623
:1035900070AF00232768C4E9003321F0070141F030
:1035A00001012183218B4FF0000901F0070AAA4590
:1035B0007FF440AF002F9CD041F00801218388F3B5
:1035C0001188BFF36F8F002FC8D03D68394633464E
:1035D000524620461EF03DFC2F46F4E7AB067FF531
:1035E0001BAF25F02003238305F0070500E700BF8C
:1035F0007F1E020010B530B90B480C491EF009FDC2
:103600006FF0150010BD836833B9074808491EF0F4
:1036100000FD6FF00400F5E71B6813B1BDE8104032
:1036200018471846EEE700BFB45F02007E72030041
:103630008F72030010B530B90B480C491EF0E9FC3D
:103640006FF0150010BD836833B9074808491EF0B4
:10365000E0FC6FF00400F5E75B6813B1BDE81040D3
:1036600018471846EEE700BFB45F02007E72030001
:103670008F72030070B508B101B132B90B480C4923
:103680001EF0C7FC6FF0150070BD84680CB1E568D2
:1036900035B9064807491EF0BCFC6FF00400F3E79B
:1036A00041F8040BE368BDE870401847B45F0200BE
:1036B000AD7203008F72030010B5044630B9104894
:1036C00010491EF0A6FC6FF0150010BD006830B95F
:1036D0000B480D491EF09DFC6FF00100F5E7836873
:1036E0000BB11B6933B9064808491EF092FC6FF014
:1036F0000400EAE7616898470028E6D12060E4E723
:10370000B45F0200D9720300EA7203008F720300F3
:1037100070B51346044630B9104811491EF079FCC3
:103720006FF0150070BD006830B90C480D491EF0EF
:1037300070FC6FF00100F5E782680AB1956835B951
:10374000064809491EF065FC6FF00400EAE70A46E6
:10375000AC466168BDE87040604700BFB45F0200DE
:10376000D9720300EA7203008F720300034A1368E0
:103770000BB9526813600020704700BFE0010020C1
:1037800030B50C460E4985B00291D0F8D4110546EB
:10379000CDE9003100F1F0014FF0FF33204617F082
:1037A00005F850B9012384F86C30D5F8D03123B135
:1037B000204605B0BDE83040184705B030BD00BF19
:1037C0000B21020038B50C46114605461EF09FFC41
:1037D000034638B9284604491EF099FC03460020E8
:1037E000236038BD0120FBE7939C03002DE9F04FD7
:1037F00001238146056946688FB005F57B77D7E8D8
:10380000EF2F002A03D1C7E8E13F0029F7D10CBF11
:103810001A46002240F0BB80B368B16A05F5F8781B
:103820001C1F10461EF0FAFC844279D8013A00F0C1
:10383000A880B2FA82F24FF00044D4407268204669
:10384000073222F00302C5F83C22B16A1EF0E6FC02
:10385000C5F84002B36A40466343033323F00303D1
:1038600002EB4302230103EB4403093323F0030378
:1038700003EBC403C5F834221A440832C5F83022D9
:103880007368C5F83842C5F82C32424BC5E9AD63C0
:10389000316800F0F1F9044600283FD1D9F810B0A2
:1038A000D9F804A0D9F800300BF5347905900493C9
:1038B0004846DAE90734012B08BF103C21F0BBFB76
:1038C000DAF82400344904AB009301EB802123464D
:1038D00048464FF4806217F0A1FE2021DAF8243028
:1038E0002E4A06A81BF0A2FE06A9484617F042FF82
:1038F0002B490BF5307021F057FBDAE9050183689D
:103900005C684CB15B46274AA047044630B9DAE907
:10391000050183681B692BB96FF05704002129E06A
:1039200001327EE70122984704460028F6D11E4B5B
:103930002846C5F8D0311D4BC5F8D4311C4B039334
:10394000D5F840320293D5F83C32CDE9008305F535
:103950001173B26AD5F8E81300F056F9044600284E
:10396000DCD105F1F00016F0C7FF0028C5F8F00320
:103970000ADB022138461EF0FEFB20460FB0BDE8F0
:10398000F08F6FF00B04C9E76FF01504C6E76FF016
:103990007704F2E761210200C0A300200F73030047
:1039A000472102003B210200B5390000F32202004A
:1039B000A721020013B5044640B100230122CDE93E
:1039C0000032074BD0E9091216F0C4FE236F1B68C2
:1039D00023B1606F02B0BDE81040184702B010BDBF
:1039E000939C030013B504460846216901F57B71D9
:1039F000D1E8AF1F022910D193B1A0B10121CDE9C7
:103A000000311346D0E9091216F0A4FE074B984284
:103A100008BF6FF00B0002B010BD6FF00F00FAE7A7
:103A20006FF04C00F7E76FF00100F4E72EF8FFFFAE
:103A30002DE9F34789461546066906F57B73D3E8F9
:103A4000AF3F022B64D1136823B96FF0150002B0A9
:103A5000BDE8F0871B78002BF7D0D6F8E8A3BAF1C1
:103A6000000F36D106F5EC774FF0FF324FF0FF3301
:103A7000384617F01FFB30462A6801A9FFF7A2FE5F
:103A8000019C80461CB938461EF073FBDDE705F14A
:103A900008032367AB6984F86CA06367646460B152
:103AA00038461EF066FB21463046A36E2A68FFF7B3
:103AB00067FE0020C9F80040C9E71F22296804F109
:103AC000480021F0ADFD384684F867801EF051FBB8
:103AD000EFE7304610491EF01AFB04460028B4D028
:103AE000002705F108030367AB6980F86C70436732
:103AF00040641F222968483021F092FD22460121AE
:103B0000304684F8677000F061F80028D1D09CE757
:103B10006FF00F009BE700BF939C030010B50C46AD
:103B2000006900F57B73D3E8AF3F022B0FD189B159
:103B30000A4900F5307021F063FA204620F05EFD5E
:103B400078220021204621F041FD002010BD6FF0B9
:103B50000F00FBE76FF00100F8E700BF38550020C9
:103B60002DE9F04F05460E4690460027D0F8C4A038
:103B700085B0AAF5BE7421463046FCF755FBE0B986
:103B8000114BA4F1480B0293DAF810303246CDE91C
:103B9000008329464FF0FF335846AAF5E27916F024
:103BA00005FE60B97823012203FB079383F86C209C
:103BB000DAF80C300BB158469847783417B105B095
:103BC000BDE8F08F0127D6E7212302001FB5144678
:103BD00090B18AB1012912D10A4B00F1F001029390
:103BE000D0F8D431483201934FF0FF332046009390
:103BF00016F0DCFD04B010BD6FF01500FAE70020F0
:103C0000F8E700BF212302002DE9F04387B00E46FC
:103C1000DDE90E811446DDE910251F4630B329B3D6
:103C2000DFF850C000F1F009002D08BF65469EB9CD
:103C3000CDE9034400F5E2742046059620F076FFB6
:103C400003ABCDE900432A463B464146484616F0C1
:103C5000CBFE07B0BDE8F083002241460E924846F5
:103C60002A4607B0BDE8F04317F00EB86FF0150014
:103C7000EFE700BF613B0000F0B504462B4A87B078
:103C800004AB0E4692E8030083E80300002C49D001
:103C9000184616F065FC0546B0B94FF0FF33E16CED
:103CA00004F15407A163CDE9010000933846236D68
:103CB00004F1380220F052F9A06C1EF060FBC4F849
:103CC000BC0020B96FF00B05284607B0F0BDA06C12
:103CD0001EF055FBC4F8C0000028F3D0236CD4F8C4
:103CE000BC10C4F890300423C4F89430C4F8AC304D
:103CF0000223E3620E4BB4F84820C4F88C10616CC8
:103D0000236204F18C03C4F8A070A4F89820C4F8CE
:103D1000B870C4F8A810A4F8B020C4F8A400A66134
:103D20002363D1E76FF01505CEE700BFA060020066
:103D3000DC6402002DE9F047044607464FF0010914
:103D4000DFF8508014B93846BDE8F08794FAA4F53E
:103D5000B5FA85F509FA05F32E0108EB05156FEAAA
:103D6000030A24EA03042B7B002BEBD058F806301F
:103D70001B694BB94644736804222846196807EA50
:103D80000A071EF064FBDDE7284698470028D9D1D2
:103D9000F0E700BF1460020030B5002289B00F497F
:103DA0000F4821F0F6FA002200230024CDE9062373
:103DB0000E230C4DCDE903344FF440722846CDE973
:103DC0000144094B0949009417F04AFD0849284667
:103DD00017F0D0FC204609B030BD00BFF53D000013
:103DE000782C0020781B002009410000C0A700208B
:103DF0001B730300014817F057BA00BF8407002067
:103E00002DE9F047804621480F461EF004FB064688
:103E1000002833D000252846BDE8F087237B83B1F6
:103E20002368DB680BB120469847636883F80690E7
:103E300023681B69D3B963680422204619681EF001
:103E400006FB013610345445E8D3B8F1000FE2D038
:103E5000002DDFD02846FFF76DFF0546002FF7D075
:103E600000214FF4A47021F0C0F9F1E720469847F3
:103E70000028E0D009FA06F31D43E2E705464FF0BB
:103E80000109034CDFF80CA0DDE700BF70550020EE
:103E90001460020024600200014B53F820007047B8
:103EA0001C65020008B5034608462BB1044A13609E
:103EB00000F070FC002008BD6FF01500FBE700BFAC
:103EC0000C02002010B5044C237813B9034817F0F6
:103ED000EBF90123237010BD19780020840700201E
:103EE00010B5044609481EF096FA3CB1084BD3E8D9
:103EF000EF1F0139C3E8E21F002AF8D1054821F07D
:103F000054FABDE81040044817F0CEB968550020B7
:103F10006C550020782C00208407002000200146EA
:103F2000034BD3E8EF0FC3E8E21F002AF9D1704733
:103F30006855002070B5FFF7F1FF0546074C084EA5
:103F4000B44200D370BD63685B792BB123685B68B2
:103F500013B12946204698471034F1E71460020057
:103F60002460020010B5044C044920461DF0DEFD1B
:103F7000034B1C6010BD00BF6C06002008650200EA
:103F80006055002000230D4A10B513700C4A4FF401
:103F9000004113600B4A0C481360FFF783FFFFF7E3
:103FA000E1FF0A4B0A4918468B4200D310BD1A1A8A
:103FB0005C681211013222711033F5E71A78002083
:103FC000685500206C550020132402001460020084
:103FD0002460020001460022002301481DF0C7BDF5
:103FE0006C06002001481DF060BE00BF6C0600207A
:103FF000024B014618681DF0ACBE00BF60550020A2
:1040000001481DF0E1BE00BF6C06002070B5274BD3
:104010001878002849D0FFF7E5FF0546002841D170
:10402000234B244C1B68002B19DD21F06BF94FF456
:104030007A72A0FB020302FB0131C30B43EA414346
:10404000D4E900209B1A40F2E9324FEAD13161EB0A
:104050000001934271F1000101D3FFF76BFFD4E936
:10406000003213F57A7342F10002C4E90032BDE870
:104070007040FFF7C5BF63685B7923B123682946A9
:1040800020461B6898471034B442F4D32846FFF703
:10409000AFFF094BD3E8EF1F0139C3E8E21F002A45
:1040A000BED0F7E7054C064EEEE770BD197800204C
:1040B00068550020702C00206C5500201460020010
:1040C0002460020070B50D4D297861B90120FFF719
:1040D00097FE0B4C0B4EB44206D3FFF797FF002818
:1040E000FBD101232B7070BD63685B791BB1236822
:1040F00020469B6898471034EDE700BF1A780020EF
:10410000146002002460020000212DE9F0470846F7
:10411000FFF776FE044658B340F267684FF0000997
:1041200021F05AFC1B4B1C4A1B58136033B11B4B2C
:104130001B68092B02DD1A4817F0B6F80025194F45
:10414000DFF85CA044B12046FFF7F4FD044618B93F
:104150004FF0FF384FF0FF39FFF758FF064628B9F8
:10416000B5B942464B46504617F0D8F83546E9E710
:104170004FF0FF384FF0FF39D2E72B689B691BB136
:1041800000222846114698471035BD42F5D3E8E78E
:10419000054DFAE708000000645500206C5500202A
:1041A00084070020246002001460020013B5184840
:1041B0001EF031F9174B1B7873B1EFF311842023F4
:1041C00083F31288BFF36F8FFFF720FF84F311880A
:1041D000BFF36F8F02B010BD0F4B1B68002BF9D0DF
:1041E00050B9002200230D48CDE900234FF40042CE
:1041F000002318F015F9EDE70928EBD1074821F065
:10420000D4F8074802B0BDE8104017F04DB800BF21
:104210006C5500201A78002064550020782C00206E
:104220008407002010B5064B04461B6898472146BA
:10423000A06004481DF01AFDBDE81040FFF7B6BFAE
:104240000C0200206C060020044A054B9B1AB1EBBF
:10425000D30F34BF52F83100002070470C5F0200CA
:10426000146002002DE9F04F8FB0C1F34A2804AF6B
:104270000D469146B8607B600C0DB8F1000F63D01D
:1042800000264FF0040B4FF00A0A07F11403C7F899
:104290000C80C7E907667E620193CDF808B0CDF8BF
:1042A00000A007F11C0332464846F968FEF78EFE6F
:1042B000B0F5006F03461CD36C468AB0D9F80410E1
:1042C00004AB26481A46C3E9050140F2FF71D961E3
:1042D0004FF400711984224B42F8103F4FF41251F1
:1042E00033462048FFF7BEFFA5462C37BD46BDE844
:1042F000F08FC0F30A0804F11700184420F00700FB
:1043000080083B60FFF766FE68F35325044690B1D2
:104310003B6800F11001C7E9083607F11403F961A1
:10432000CDE900A3CDF808B048460F4AF96807F177
:104330001C03FEF74BFE68F353252A4620467B6894
:10434000B9681EF0A3F8D0E704F1170020F00700C9
:104350008008FFF73FFE0446EDE700BF307303001F
:1043600004000001BC5F0200612402002DE9F04F4F
:1043700087B00446DDE9105ADDE912799346984684
:104380000391BFB13B46524610210020CDF800906A
:10439000CDF81490FEF748FCB0F5006F06460AD33E
:1043A00040F2FF730221174A174807B0BDE8F04FEB
:1043B0001EF0C5B83E4605F11700304420F0070056
:1043C0008008FFF707FE04F007040BF0070BE4007A
:1043D00044EA8B1444EA462444EA0554054640B1B5
:1043E0003FB13B4652463146CDF800901030FEF7C3
:1043F0001BFC434622462846039907B0BDE8F04F10
:104400001EF044B86F730300BC5F0200406820B127
:10441000034BC01A40F3CF0070474FF0FF30704796
:104420000C5F02000EB403B503AB53F8042B014636
:104430000448019301F0DAF902B05DF804EB03B02F
:10444000704700BFA1250200CA0605D48B064CBFE9
:1044500002490349FFF7E6BF704700BF929C030083
:10446000919C03002DE9F04F8BB09B46169B9DF865
:1044700054A00693179B04460593189B0D4690463F
:10448000199E0493BAF1000F00F09E8006F001031C
:10449000089306F00803079306F4807309931DF050
:1044A000D4FF06F00209024600283BD020468F497F
:1044B000FFF7B8FF0746B9F1000F08D016F0440F18
:1044C00032D12A4620468A49FFF7ACFF0744089BB1
:1044D00053B1884B204653F82A20874B8749002A3E
:1044E00008BF1A46FFF79EFF099B002B48D0079B89
:1044F000002B62D1B8F1000F64D0424620468049BB
:10450000FFF790FF0546069B3D44002B6BD1049BB3
:10451000002B71D1F30700F1E28031462046FFF70E
:1045200093FFD6E00746C6E7764B18680028CDD043
:10453000754B4FF47A791B684FF03C0CB5FBF3F5E3
:10454000B5FBF0F14FF4616300FB115509FB05F574
:10455000B1FBF3F2B5FBF0FE03FB121100FB1E559D
:10456000B1FBFCF309FB05F5B5FBF0F50CFB1311F2
:1045700020460091CDE901E56449FFF753FFA5E727
:10458000079BEBB1624B204653F82A206149FFF7A5
:1045900049FF0546B8F1000F05D04246204658496C
:1045A000FFF740FF0544BBF1000FACD05A46204650
:1045B0005949FFF737FF0544A5E74FF0000BE1E746
:1045C000079DE7E745469EE7BBF1010F069B06D135
:1045D000002B64D1049B002B7BD000250CE0002B2A
:1045E000F8D04E485CE04E48069B22464D491DF0EF
:1045F00025F9049B002B68D0DFF83881DFF838916B
:10460000049F3146102F204628BF10274FF0000B83
:10461000FFF71AFF5D4545DC059B494620461A78A1
:10462000FFF700FF4FF0010B1BF0070F03D14146CE
:104630002046FFF7F7FE5F453BD9059B49462046DC
:1046400013F80B20FFF7EEFE0BF1010BBBF1100F7F
:10465000EAD14FF0000B20463349FFF7E3FE5A46FC
:10466000059B20469A5CA2F120015F2928BF2E22DB
:104670002E49FFF7D7FE0BF1010BBBF1100F1DD038
:104680001BF0070F03D141462046FFF7CBFE5F45E5
:104690005A46E5D841462046FFF7C4FEEBE72048DE
:1046A0005546A1E741462046FFF7BCFE0BF1010B42
:1046B000B0E720461E49FFF7B5FEC5E7059B3B4422
:1046C0000593049BDB1B04939AD1BAF1000F7FF48E
:1046D00021AF20460BB0BDE8F04F1DF054BF20467F
:1046E000054A0649FFF79EFE17E700BFAC730300BB
:1046F000B07303002C650200A7730300607D030004
:10470000D57303007855002074550020B973030059
:1047100040650200D9730300DF730300CF25020058
:10472000A1250200ED570000EA730300EC730300BB
:104730005B9C03005D9C0300E473030042F20F7373
:1047400073B58B4228BF0B460568044605216846B1
:104750000D4A1AF06BFF0646636828460B225B6819
:104760000A491DF002FF63683246694628465B68C5
:104770001DF0FBFE63681B2228465B6804491DF0A0
:10478000F4FE02B070BD00BFF67A03000B740300A4
:10479000EF73030000210123064A904206D8064A1F
:1047A00001B901231360054B1860704701214008CF
:1047B0005B00F2E740420F0074550020785500205E
:1047C000F8B50D460446064F4618B44201D12846B6
:1047D000F8BD14F8011BBB6801485B689847F4E713
:1047E0005C5B0200014B036000207047886502009B
:1047F00008B504481DF07CF8BDE8084002481DF0EB
:1048000077B800BF5174030086740300014818F0A4
:10481000E7B900BF8865020038B5044618B90F4BE8
:104820000F485B6898476168B1F5683F10D0B1F5F3
:10483000680F0DD00B4DA9420AD011F468612068B1
:1048400007D00146084820F02AFA0023236065605B
:1048500038BD142220F0BAFEF9E700BFE8050020B9
:10486000B47403002C5F5CA9A85A002008B560B39B
:104870004368B3F5683F0ED0B3F5680F18D0144AFB
:10488000934220D000684FF0FF324FF0FF3316F014
:1048900011FC58B115E001220368D3E8EF1F00298D
:1048A00003D1C3E8E02F0028F7D10AD1002008BDCA
:1048B0000368084A1B7803F5807352F82330002BF5
:1048C000F4D00548F3E70548F1E76FF4E040EEE780
:1048D0002C5F5CA900000350E98FFFFFEA8FFFFF08
:1048E00008B520B34368B3F5683F09D0B3F5680F46
:1048F00013D0114A93421DD0006816F053FC14E007
:1049000000220368D3E8EF1F012903D1C3E8E02F99
:104910000028F7D109D0094808BD00210368084ADA
:104920001B7803F5807342F823100020F4E76FF43E
:10493000E040F1E70348EFE72C5F5CA9E98FFFFF58
:1049400000000350EA8FFFFF10B5044618B91D4B55
:104950001D485B6898476368B3F5683F2FD0B3F58F
:10496000680F2CD0194A934219D1236803BB4FF02A
:10497000FF324FF0FF332146154816F06DFB08B9A2
:1049800023681BB90F4B13485B689847142200211A
:10499000206820F01BFE4FF46863636008E0B3F505
:1049A000683F0DD83A2B03D040F6BA629342DED16D
:1049B000206820F0BFF9636843F03A03636010BDDC
:1049C000054AF3E7E8050020B47403002C5F5CA9F6
:1049D000A85A0020DA7403003A00003A08B50649E4
:1049E00040231422054820F04CF9BDE80840044952
:1049F000044818F0B9B900BFA8550020A85A0020F3
:104A000090650200A46502002DE9F84F80460C462F
:104A100000AF002965D0D1E90012E9468AB0A36849
:104A20006D464FF0050A2E463748C5E90723C5E90C
:104A3000050146F810AF002332464FF421513348A8
:104A4000FFF710FCD4E90312CD466369AD46304848
:104A5000C5E90723C5E90501C5F810A000233246C2
:104A60004FF421512948FFF7FDFBCD46E3690121B1
:104A7000284A26481DF063FD264600254FF00A0A05
:104A8000DFF8A0B0E946D6E908E0D6E90A138EB00F
:104A90006A46C2F81CE005F1010EC2E908E0A81C54
:104AA000C2E90A01E91CC2E905B5C2E90C1342F8E2
:104AB00010AF002345F2400114480435FFF7D2FB44
:104AC000102DCD4606F11006DCD1236E0121124ACD
:104AD0000E481DF034FDA3690121104A0B481DF05A
:104AE0002EFDB8F1010F07D1EFF305830C4A4146C3
:104AF0000648103B1DF023FD2146404616F0EAF81B
:104B0000BD46BDE8F88F00BF07750300FC5F0200DB
:104B10003675030065750300B7750300C67503009D
:104B2000F47503007475030030BFFFF7FDBF00BFCD
:104B30002DE9F04105460B4EDFF83080324606EB9A
:104B40000807CC1B2046084920F019FDA019424651
:104B50000021083C20F03AFDC5F8A84007F1080004
:104B6000BDE8F08100000000686002000400000061
:104B7000054B9A699B689A421FBF044A536843F0E9
:104B800080535360704700BF5863002000ED00E081
:104B900070B52A4C06460D4629482A491DF09FFD4E
:104BA000A36ADB0647D5264827491DF098FD11204A
:104BB000A36A1C0704D5224824491DF090FD122049
:104BC0001E4CA36A990712D521491D481DF087FD87
:104BD000636BA26A120609D501211E4A18481DF00E
:104BE000AEFC1EB1A36A23F08003A3621320134C12
:104BF000A36ADE0704D5124817491DF070FD142082
:104C0000A36A9C0604D50E4814491DF068FD1520C2
:104C10000A4B9A6AD10658BF9A6A9A6A920642BFAC
:104C20005A6A22F400525A629A6A42F0FF029A6269
:104C300000232B7070BD1020BAE700BF00ED00E02C
:104C4000FC5F0200077603001D7603005076030028
:104C5000637603007B76030091760300B076030051
:104C600010B5244C244925481DF039FDA36A99014B
:104C70003ED5224822491DF032FD1E20A36ADA01EA
:104C800004D51E481F491DF02AFD1F20194CA36A98
:104C9000DB0204D519481C491DF021FD0220A36A3E
:104CA0001C0304D5154819491DF019FD2120114C8C
:104CB000A36A590304D5114815491DF010FD22209F
:104CC000A36A9A0304D50D4812491DF008FD23205C
:104CD000084CA36ADB0304D508480F491DF0FFFC0C
:104CE0002420A36A6FEA03436FEA1343A36210BD53
:104CF0001D20C3E700ED00E0DF760300FC5F02004B
:104D0000F77603000A770300247703004E77030049
:104D10006C77030091770300AB77030070B5294CE3
:104D200006460D46284829491DF0D9FCA36AD90436
:104D30003CD5254826491DF0D2FC1720A36A1A0548
:104D400004D5214823491DF0CAFC18201D4CA36A34
:104D50009B0512D51C4820491DF0C1FCA36BA26A1B
:104D6000100409D501211D4A17481DF0E8FB1EB1AA
:104D7000A36A23F40043A3621920124CA36A5905C5
:104D800004D5114816491DF0AAFC1A20A36ADA05B9
:104D90000ED50D4813491DF0A2FC1B20094A936A49
:104DA00043F47F43936200232B7070BD1620C5E748
:104DB000A36A9B04F2D504480B491DF090FC1C200B
:104DC000ECE700BF00ED00E0FC5F0200D6770300D7
:104DD000EC77030050760300FD770300167803009C
:104DE0002B78030046780300B07603002DE9F041EC
:104DF0009CB0624B0546D3F80480002600AFC8F390
:104E0000080486F31188BFF36F8F02F07F43B3F17C
:104E10007F4F07D102F00C03082B12D15849594893
:104E20001DF05DFC002635460023FB71E31E092BB7
:104E300000F28380DFE803F00A797C75818181814B
:104E4000817F10074CBF0D460126EDE74E494D48C6
:104E50001DF045FC0023494CFB71E36A9A0705D518
:104E60004A4948481DF03BFC002431E0E36A002B2E
:104E700001DA4749F5E7E36A5B00F5D54549414862
:104E80001DF02DFC6369AA6943F480736361BFF36D
:104E90004F8FBFF36F8F636932F8022C23F4807356
:104EA0006361BFF34F8FBFF36F8F4DF602739A426A
:104EB00007D0A36ADBB23BB30120F91DFFF768FE00
:104EC00031E02B680121344A2E481DF038FB2C6854
:104ED000FB79ABB96822294607F1080020F04FFBA7
:104EE0007B6A002E45D0C3F3080222B96FEA532330
:104EF0006FEA43237B62204607F10801FFF784FD38
:104F00007037BD46BDE8F081A36A13F47F4F04D02B
:104F10000120F91DFFF702FF05E0A36AB3F5803F0A
:104F2000A2D3FFF79DFE0446D2E70020F91DC5E796
:104F30000020F91DEEE7194993E7194A18F4F87FA4
:104F4000E8468AB0174B18BF13466A461649103C0C
:104F5000C2E905134FF400731384144BD46142F873
:104F6000103F00234FF411510648FFF77BF9C54667
:104F70007AE723F4FF7323F00103BBE700ED00E0C1
:104F80008C780300FC5F0200B7780300CE78030042
:104F9000EF780300FD7803001C79030038790300E3
:104FA000737803005E7803005C790300040000015D
:104FB000064B5A6942F010025A615A6942F4806203
:104FC0005A615A6922F008025A61704700ED00E008
:104FD000EFF30880EFF3098101B57246FFF706FF92
:104FE00001BD00BF002080F31488BFF36F8F002045
:104FF00080F30A8880F30B88104880F3088800202B
:105000000F49087007F096F900200E490860BFF3B9
:105010004F8F00F02DF8202080F311880A484FF4BC
:105020000061401880F30988EFF3148002210843DF
:1050300080F31488BFF36F8F00F00EF900D40020C6
:10504000BE7B002094ED00E0C0BA0020002318468B
:105050000649D1F89020C2F30722934200DB704743
:10506000C1F89830C1F8A0000133F6E700ED00E088
:1050700010B572B6002484F31388FFF7E7FF2346C8
:105080004FF0FF300C4A03F120010133102B42F89E
:105090002100F8D100234FF0FF30074A03F16001EF
:1050A0000133102B42F82100F8D162B6BFF34F8FC5
:1050B000BFF36F8F10BD00BF00E100E0084B9B689D
:1050C00083420BD1EFF3058343B1064B5A6842F09C
:1050D00080525A605A6A22F400425A6216F08CBE1C
:1050E0005863002000ED00E025498A6882F8F5E069
:1050F0004FF030001044EFF3098C80E8F01F1EF0F1
:10510000100F03D102F1B40080EC108A202080F34C
:105110001288BFF36F8F1B4F4FF000668A698A6059
:105120003E60D2F8A800184C206092F9F5E0D2F861
:10513000AC000023C2F8AC3080F311881EF0100FD1
:1051400003D00023E1EE103A03E002F1B40090EC4A
:10515000108AEFF3148323F0040383F31488BFF35E
:105160006F8F02F1300090E8F01F8CF3098802F194
:10517000000004B51DF0BBFABDE804407047000014
:105180005863002004ED00E0C45A00201EF0040F14
:105190000CBFEFF30880EFF30980816911F8021C5E
:1051A0000229FFD001B572461DF08EFA01BD00BF85
:1051B00040B2002807DB01234109034A00F01F0029
:1051C000834042F82130704700E100E040B20028FF
:1051D0000CDB01220649430900F01F008240203306
:1051E00041F82320BFF34F8FBFF36F8F704700BF8D
:1051F00000E100E0054B420953F82220012300F0B2
:105200001F0003FA00F01040704700BF00E100E00B
:1052100040B2002801F10101ACBF00F16040064B33
:105220004FEA4111C9B2ABBF00F5614000F00F0079
:1052300080F800131954704714ED00E0044B054A40
:1052400023F07F039360BFF34F8FBFF36F8F7047DF
:105250000000000000ED00E008B5FFF7EFFF104B85
:10526000D3F8882022F47002C3F88820D3F888206D
:1052700042F4A002C3F888204FF04042C3F8342221
:10528000BFF34F8FBFF36F8F0023E1EE103A15F09D
:105290000FFE16F009FF00F07DF815F04DFE00BF7F
:1052A00000ED00E042F8203C009B0D4942F81C3C18
:1052B000019B21F0010142F8183C029B42F8081CB6
:1052C00042F8143C4FF0807342F8043C0023C0F8CD
:1052D000AC304FF47D43203A0265C0F8F43070479B
:1052E000A5330000104B9B6883421AD1EFF3058071
:1052F000B8B9EFF31181202282F31288BFF36F8FC8
:105300001A7B22F002021A73EFF3148323F00403D2
:1053100083F31488BFF36F8F81F31188BFF36F8F0E
:1053200070476FF015007047586300200E46154611
:10533000002300B5E1EE103AEFF3148323F00403E9
:1053400083F31488BFF36F8FBFF36F8F0A4BD0F8CE
:10535000A8209860094B1A60D0F8983083F30B8826
:105360002C4686F309880020054B984720460021EB
:1053700000220023034C204758630020C45A002019
:10538000F9260200A53300001022014B1A61704774
:1053900000ED00E0002320210348C2180133452B13
:1053A00082F80013F9D1704700E100E008B5EFF38F
:1053B0000583064A103B02EBC30152F833004968EB
:1053C0008847BDE80840FFF7D3BB00BF1C5C020064
:1053D0001FB5094C094A23460121094800F012F97A
:1053E00000230393074B0121E41A01A801930294BF
:1053F00000F012F904B010BD0000072000000020EA
:10540000B46502004809002010B50C7A0B6804F05E
:105410001F0223F01F031A43CB68640923F01F0304
:10542000054943EA440343F00103C1F89800C1F879
:105430009C20C1F8A03010BD00ED00E010B50A4B73
:10544000D3F89030C3F30723013B984208D90121D8
:105450000346064A06481DF072F86FF0150010BDAD
:10546000FFF7D2FFFBE700BF00ED00E07379030018
:10547000DC5F02002DE9F04F8946144606464FF0E6
:105480000008514D85B0C84527DAD6F804A0BAF116
:10549000000F44D0BAF11F0F17D91AF01F0F14D103
:1054A000D6F800B01BF01F0F0FD158461DF060F961
:1054B00007460AEB0B0001381DF05AF9874210D05D
:1054C0006FF01507414A3B4601E04346404A01213F
:1054D00040481DF034F86FF01504204605B0BDE8D3
:1054E000F08F17F1160FEDD0BC42EBDDC5F89870C8
:1054F000D5F89C10C5F89870D5F8A03021F01F01A0
:1055000043F01F0BD6E900321A44994202F1FF3AE8
:105510001DD1D34507D13146F8B21DF032F908F15B
:1055200001080C36AFE73146C5F89870D5F89C30C5
:1055300022F01F0203F01F031343C5F89C30E0B2B2
:105540001DF01FF910F1160FC5D0441CE7E7C5F890
:105550009870D5F8A020013B23F01F0302F01F0232
:105560001343D3453146E0B2C5F8A030E8D01DF072
:1055700008F910F1160FAED0C5F89870D5F89C2038
:105580009DF808300BF1FF3B62F304038DF80830FF
:10559000D5F8A0309DF808205B0863F347128DF81A
:1055A0000820D6E900321344009323F01F035B4424
:1055B000A3EB0A03013023F01F036946C0B2039333
:1055C000FFF73CFFBEE700BF00ED00E0BC79030041
:1055D00099790300DC5F02000522044BC3F8942094
:1055E000BFF34F8FBFF36F8F704700BF00ED00E038
:1055F000BFF35F8F0022024BC3F89420704700BFB7
:1056000000ED00E010B5034C2278FFF733FF207067
:1056100010BD00BF1C7800202DE9F74F294D8A46A8
:1056200006464FF00008AB46274FD0451BDAD6F8A8
:105630000490B9F1000F3FD03168084601911DF088
:1056400097F80199044609EB010001381DF090F824
:1056500084424FF014021D4B08D002FB08F36FF098
:1056600015024BF8032003B0BDE8F08F14F1160FBC
:105670002C60F8D01978A142F5DD02FB08B0C7F81C
:105680009840C7F89840D7F89C4000F10801007B8B
:1056900064F304000871D7F8A0000C79400860F3A7
:1056A00047140C71D7F89C1021F01F016960D7F8DE
:1056B000A01021F01F01296108F1010814350C36F2
:1056C000B3E700BFC85A002000ED00E01C780020BE
:1056D000F0B54149414CD1F890302568C3F3072318
:1056E0009D4287B075D80020FFF782FF3C4BC1F880
:1056F000C030854216D13B4C01A82570FFF772F8E7
:1057000000250646384FAE4213D100202378324997
:10571000D1F89020C2F30722934254DBFFF75CFFDD
:1057200000202FE0616801EB0011FFF76DFE0130F2
:10573000DFE70199280101EB0513DA683A40B2F579
:10574000001F21D0B2F5800F2BD0B2F5801F38D1C9
:105750005A689B680958013B22F01F00034401204E
:10576000844623F01F0340EA4C10CDE902218DF856
:10577000100002A920780593FFF760FE00281DDACB
:105780006FF0150007B0F0BD5A689B680958013BDF
:1057900022F01F0003444FF0020C012023F01F03EE
:1057A000E1E75A689B680958013B22F01F00034457
:1057B0004FF0000C062023F01F03D4E723780133B9
:1057C000237001359FE7C1F89830C1F8A00001337C
:1057D0009EE74FF0FF30D5E700ED00E0C065020026
:1057E000AAFF44001C7800200000F0FFF0B587B04D
:1057F00007460E4614460021102268461D461FF03B
:10580000E5FE02238DF80230054B2A462146684604
:10581000CDE90476019319F0CFFF07B0F0BD00BFCA
:10582000BB27020008B5024819F0E0FEFEE700BF02
:10583000EE79030008B5024B1B689847002008BDAD
:10584000DC5A0020034B044A1860937843F00203AB
:1058500093707047DC5A00204802002008B50548C4
:105860001CF046F8002383F31188BFF36F8F0423E5
:10587000184602DFF379030008B50649064821F00F
:105880000701C1F1005202F5E0221BF07FFF00206A
:1058900008BD00BF3B1E0120E05A002070B54169E1
:1058A0000446867A0A4D59B1437ADB0706D42C2385
:1058B00003FB06535B6A1B689B6898470023636180
:1058C0002C20214606FB0050BDE870401FF0DABADC
:1058D000140800202C22024B02FB0030704700BF4E
:1058E000140800202C21827A054B01FB02339A6AAE
:1058F0001B7F801A1B3323F00303B0FBF3F07047C8
:105900001408002038B52C24827A064B04FB02339D
:105910005B6AD3E901240C601568FFF7E3FF04FB21
:10592000005038BD140800202DE9F04385B005462D
:10593000684690461C4603911FF0E6FCDDE90067CF
:10594000EFF31189202383F31288BFF36F8F6B8BE2
:10595000002B41D02A8B9A4225D9002200232846C9
:1059600015F070FC0446F0B189F31188BFF36F8F16
:10597000039B002B41D032463B4668461FF0E8FCB3
:105980002C21A27A254B204601FB02335B6A03A936
:105990001B681D68DDE90023A847606170BB2046D5
:1059A000FFF77CFF24E0698B4B1E6B8389F3118822
:1059B000BFF36F8F2B7F2A8BAC6A1B3323F003035B
:1059C000521A02FB0344154B154AEB1A9B10534322
:1059D000A3722B7FE372CBE789F31188BFF36F8F3C
:1059E00023464246284615F02DFC04460028BFD128
:1059F0000024204605B0BDE8F08363610123002543
:105A00002381039B29466382E27A656004F11800D2
:105A10001FF0DCFD63692582E360EAE714080020DB
:105A2000A38B2EBA70B52C250B4C00B970BD037A30
:105A30004668013BDBB20372002BF7D1C3604360C1
:105A4000837A05FB03431B6A13B198473046ECE7A2
:105A5000FFF724FFFAE700BF14080020054B03EB13
:105A60008000D0F8003223F0E04343F04053C0F808
:105A70000032704700258450052370B5144D154E33
:105A80002C780134B4FBF3F303EB8303E41A1EF028
:105A900002F9114A137823B156F82430C01A0728A6
:105AA00014D94FF05023D3F8141141B10021C3F899
:105AB0001411D3F814312C700CB9012313702C7805
:105AC0001EF0E9F846F82400012070BD0020FCE734
:105AD0001E780020EC5A00201D780020012208B515
