:020000040000FA
:10000000C8C40020E14E000099250200CD4E00003A
:10001000CD4E0000CD4E0000CD4E0000CD4E000074
:1000200000000000000000000000000089500000F7
:10003000CD4E000000000000E54F0000CD4E000056
:10004000A9520000A9520000A9520000A9520000C4
:10005000A9520000A9520000A9520000A9520000B4
:10006000A9520000A9520000A9520000A9520000A4
:10007000A9520000A9520000A9520000A952000094
:10008000A9520000A9520000A9520000A952000084
:10009000A9520000A9520000A9520000A952000074
:1000A000A9520000A9520000A9520000A952000064
:1000B000A9520000A9520000A9520000A952000054
:1000C000A9520000A9520000A9520000A952000044
:1000D000A9520000A9520000A9520000A952000034
:1000E000A9520000A9520000A9520000A952000024
:1000F000A9520000A9520000A9520000A952000014
:10010000A9520000A9520000A9520000A952000003
:10011000A9520000A9520000A9520000A9520000F3
:10012000A9520000A9520000A9520000A9520000E3
:10013000A9520000A9520000A9520000A9520000D3
:10014000A9520000A9520000A9520000A9520000C3
:10015000A95200007BB972B90029BEBF00204FF040
:10016000004106E008BF00281CBF6FF000414FF0BF
:10017000FF3000F057B8ADF1080C6DE904CE00294E
:1001800009DB002B1ADB00F069F8DDF804E0DDE99B
:10019000022304B07047404261EB4101002B1BDB9E
:1001A00000F05CF8DDF804E0DDE9022304B0404231
:1001B00061EB4101524263EB43037047524263EBF0
:1001C000430300F04BF8DDF804E0DDE9022304B05E
:1001D000404261EB41017047524263EB430300F040
:1001E0003DF8DDF804E0DDE9022304B0524263EBA0
:1001F0004303704753B94AB9002908BF00281CBF00
:100200004FF0FF314FF0FF3000F00CB8ADF1080CAB
:100210006DE904CE00F022F8DDF804E0DDE9022308
:1002200004B07047704700BF10F8012B11F8013B74
:10023000012A28BF9A42F7D0D01A7047034611F816
:10024000012B03F8012B002AF9D17047034613F85C
:10025000012B002AFBD1181A013870472DE9F0470D
:1002600086468C460846089E154674461946002B5D
:1002700040F0C1808542B2FA82F245D94AB1C2F15A
:10028000200300FA02FC954094402EFA03F343EA5F
:100290000C0C4FEA154EA8B2230CBCFBFEF80EFB6B
:1002A00018CC08FB00F943EA0C43994528D9EB1810
:1002B00008F1FF3704D2994502D9A8F102072B446F
:1002C000A3EB0903A4B2B3FBFEFC0EFB1C330CFB37
:1002D00000F044EA0344A04214D92C190CF1FF3376
:1002E00004D2A04202D9ACF102032C44241A43EAFE
:1002F00007401EB1D440002334607360BDE8F0872E
:100300004746DDE76346F1E792BB431B01214FEA15
:10031000154EAFB2200CB3FBFEFC0EFB1C330CFBE6
:1003200007F840EA0343984561D9EB180CF1FF3018
:1003300004D2984502D9ACF102002B44A3EB080388
:10034000A4B2B3FBFEFC0EFB1C330CFB07F744EA24
:100350000344A7424DD92C190CF1FF3304D2A74214
:1003600002D9ACF102032C44E41B43EA0040C0E78D
:10037000C2F120039540944020FA03F12EFA03F3D2
:100380004FEA154E9040AFB20343B1FBFEFC0EFBAB
:100390001C10190C0CFB07F841EA0041884522D9D2
:1003A00069180CF1FF3004D2884502D9ACF1020083
:1003B0002944A1EB08019BB2B1FBFEFC0EFB1C1112
:1003C0000CFB07F743EA01439F420ED9EB180CF1EF
:1003D000FF3104D29F4202D9ACF102012B44DB1B56
:1003E00041EA004193E76046E3E76146F7E760468C
:1003F000A4E76346B8E7834206D916B90021084648
:100400007CE7C6E900E0F9E7B3FA83F78FB98342E6
:1004100001D3724508D8BEEB020460EB0303012050
:100420009C461EB9002169E73846FAE7C6E9004C48
:10043000F8E7C7F1200CBB400EFA07F522FA0CF4DE
:100440002EFA0CF1BA401C4320FA0CF3B8404FEAE4
:10045000144901431FFA84FEB3FBF9F809FB183075
:100460000B0C08FB0EFA43EA00439A4540D9E31807
:1004700008F1FF3004D29A4502D9A8F102002344C2
:10048000A3EB0A0389B2B3FBF9F809FB183308FBA5
:100490000EFE41EA03418E452CD9611808F1FF3365
:1004A00004D28E4502D9A8F10203214443EA004058
:1004B000A1EB0E01A0FB02984145CE46434602D374
:1004C00006D14D4504D20138B9EB020E68EB0403A6
:1004D000002EA7D0B5EB0E0261EB030101FA0CFC74
:1004E00022FA07F3F9404CEA0303C6E9003199E721
:1004F0004046C5E74346D9E70A460146014821F090
:100500005BB900BF1061030008B50146054821F042
:1005100053F90022044B05481A80BDE8084020F03A
:1005200081B900BF4061030030650020CC07002086
:1005300010B5044623F012FB084BA0FB0330DB0B85
:1005400043EA404001F088FB2146A022044824F001
:1005500079FFBDE81040034820F064B940420F0025
:10056000D26500209C07002008B5084821F024F936
:10057000074BD3E8EF1F0331C3E8E21F002AF8D18D
:10058000BDE8084003481AF0A7BF00BF5A61030046
:100590005C4300206043002008B50021044820F09F
:1005A00036F920B1BDE8084040B220F05DB908BD81
:1005B0005C430020062110B50F4820F014F90028F4
:1005C0000BDD00210D4820F022F9BDE8104046F275
:1005D000676200230A481BF02BB8094824F0A1FCED
:1005E00040B9064820F01BF920B9BDE81040054885
:1005F0001AF072BF10BD00BFC05902002443002092
:1006000058160020284300201FB5124B04461B68D3
:10061000834218D1104820F005F9104820F0FFF867
:1006200048B90F4A13680133012B136003D9012124
:100630000A4820F0ECF8204601A908F01FFF20B975
:10064000019801F0FBFA04B010BD064A13680133AB
:100650001360F8E750340020E4070020C434002081
:100660001434002010340020014603488368DB69FD
:100670000BB1012218477047C059020010B5012183
:10068000154820F0C4F8154820F0C9F8044620B1F8
:100690001348BDE8104021F08FB8124820F0BFF891
:1006A00070B121460F4820F0B2F80F4820F0BCF896
:1006B0000E48214620F0B8F801F084FD0C48E8E728
:1006C000084820F0A4F8084820F0AEF807480121B7
:1006D00020F0AAF80748DCE7244300203843002034
:1006E0006C61030020430020E8620200F062020017
:1006F00093610300A761030010B5164820F08FF83E
:1007000038BB154820F08BF8044620B11348BDE8EB
:10071000104021F051B8124820F081F860B1214614
:100720000F4820F074F80F4820F07EF821460E485C
:1007300020F06DF80D48EAE70121094820F067F83C
:10074000084820F071F80121074820F060F80848B7
:10075000DDE710BD5843002020430020BA610300AC
:1007600038430020F062020048430020DD610300AE
:100770000662030010B50D4820F051F8A8B9042115
:100780000B4820F030F804460028D4BF0021012196
:10079000084820F03CF80849084B0948002CC8BF1D
:1007A0001946BDE8104021F007B810BD584300209D
:1007B000C0590200484300203A620300326203003D
:1007C000436203002DE9F041334D344E344F86B07F
:1007D0004FF0FF324FF0FF3328461AF003FD00229E
:1007E0000023304621F05EFF044618B92D4820F062
:1007F000E3FFEDE700F10C080D21404621F085FFF5
:100800000021384620F003F830B3274B01AA03F14A
:10081000100E9446186859680833ACE80300734515
:100820006246F6D11868CCF800001422404601A9AF
:1008300021F07CFFDFF888801C4B2146B8F80020AF
:10084000186822F0D2FB011E12DA194820F0B4FF1A
:10085000204605F065F8BBE7142201A824F019FE34
:10086000144B154819680131196020F0A5FFDCE729
:10087000B8F80030114A0133A8F80030136801338A
:100880001360C822B3FBF2F102FB1133002B9FD19E
:10089000084A13609CE700BFE4070020140800200A
:1008A0001C4100204D620300BC6800205034002031
:1008B0009C62030024340020706203002034002076
:1008C000306500202DE9F0474FF000083C4B3D4ECD
:1008D0009D8F3D4FAAB04FF0FF324FF0FF333046AF
:1008E0001AF080FCA022394602A824F0ABFD37485C
:1008F0001FF095FF18B1502102A801F043FC3448C5
:100900001FF08DFF40B933481FF089FF014618B929
:10091000A02202A824F0BDFD00212F481FF077FF80
:1009200088B12E4C02A834F9023BB0F9002003EB49
:10093000D37302EBD2725B10013103EB62035029D7
:1009400020F8023BEFD123F009F9254B8146CDE990
:10095000005324480123002102AA00680EF02CFC59
:10096000824623F0FBF8BAF1FF3F044603D11E484C
:1009700020F022FFAFE7DFF888A001211B481FF01D
:1009800046FF9AF8003023B119481FF04BFF8AF850
:100990000080184A1368591C11606422B3FBF2F0FE
:1009A00002FB1033002B96D1134AA4EB0900A0FBE5
:1009B0000202C00B40EA4242104820F0FDFE8AE7E6
:1009C0005801002054070020D26500202043002059
:1009D0005843002048430020184100203265002081
:1009E000BC68002014410020BA6203001C410020B2
:1009F000E40700201C34002040420F00CD620300B9
:100A0000500600202DE9F04F4B4EABB04FF0FF33B6
:100A10004FF0FF3249481AF0E5FB002148481FF02B
:100A2000F6FEF37D474D02AC002B4BD03288286890
:100A3000002A47D00123142ACDE9004328BF1422FD
:100A40000B4641490EF024FEB0FA80F56D094FF0D7
:100A500000034FF064083D4F33803968F382B1FBE7
:100A6000F8F308FB1313D3B9394820F0A5FE394B2E
:100A700093F865200AB993F8648000231A46354933
:100A800098452ADC642312FB03F2B2FBF8F23248E9
:100A90000021D2B220F090FE304820F08DFE0020E0
:100AA000DFF8C0C0DFF8C080DFF8C090E246002168
:100AB000B8F80030D9F800209BB202EB831B95B93F
:100AC0002A4612E00123CDE90043002328681A4694
:100AD00019460EF0DDFD0025B9E711F8010B0133D1
:100AE0000244D2B2CCE734F911204FEA024E013170
:100AF0001EFA82FE10294BF804EB2AF8022BDED1F5
:100B0000B9F80C200133B3FBF2F102FB11331030C2
:100B10009BB25028A8F800300CF1200C04F12004FE
:100B2000C4D1012106481FF072FE0D481FF07AFE65
:100B30003B6801333B6069E7A83400206C07002064
:100B40001841002010410020AA3400201834002051
:100B5000EA62030056680020F9620300429B03002A
:100B600054070020326500207466002048010020F0
:100B7000F8B5244B14465B68834241D122481FF0EC
:100B80004EFE00283CD0002A38D0138A23B18B793E
:100B900083F00203C3F340030125002264261B48AF
:100BA0008575C37502808A888261194A92F864103B
:100BB00053542944B1FBF6F706FB171182F8641071
:100BC00009B982F8655043B1228AE168142A28BF26
:100BD000142202800F4824F035FC0F48D0E8EF3F84
:100BE0000133C0E8E23F002AF8D14BB100211FF0E9
:100BF0000EFEBDE8F84009481FF014BE1346CBE7CF
:100C0000F8BD00BF50340020C4340020A8340020B8
:100C100056680020AA340020A43400206C0700206D
:100C200008B5084820F0C8FD074BD3E8EF1F03398B
:100C3000C3E8E21F002AF8D1BDE8084003481AF0D3
:100C40004BBC00BF066303005C43002060430020F0
:100C500041F288332DE9F04F914A924D0021C5E9C8
:100C60000F23022385F83A30FF23AB708E4B01200F
:100C7000BBB0C5E901310BF03BFD00F1744404F554
:100C8000A6043CB12146894820F096FD20463BB0A1
:100C9000BDE8F08F864820F08FFD864820F08CFD5F
:100CA0008549864820F088FD00F068FB014650B178
:100CB000834820F081FD83481FF0CAFD30B9824887
:100CC00020F07AFD0CE000F081FBF4E74FF4803176
:100CD0007E481FF069FD014690B17D4820F06CFD13
:100CE0007C497D4824F0C3F87C487D4924F00DF907
:100CF00074481FF0ADFDD0B97A4820F05DFD25E0C5
:100D00004FF0E86171481FF02CFD044610B1014618
:100D10007548E3E77548764B436010238360FFF71F
:100D2000A3FC214673481FF072FD7348C8E773485F
:100D30001FF08EFD0028DFD04FF4803170481FF087
:100D400033FD0146C0B16F4820F036FD032100237A
:100D500008461E2201F0C8F9014610B16A4820F089
:100D60002BFD1FF077FD6949694800F08BFC0446B4
:100D700060B30146674887E74FF4B01166481FF03B
:100D800013FD014608B16548DEE75C481FF060FDD1
:100D900008B96348B1E74FF4B01162481FF004FD91
:100DA000014608B16048CFE74FF0E86154481FF0B2
:100DB000D8FC014608B15D48C6E75D485D4B43601D
:100DC00040238360FFF750FC5B4896E700F092FCFD
:100DD000044610B10146594856E700F03DFC58481A
:100DE00020F0EAFC286C00F0E3FE044610B1014656
:100DF000544849E75448554924F039F831481FF020
:100E000027FDA0B9524820F0D7FC524B00224FF4E6
:100E10007A51286C0EF05CF84F4B1860002840F0B7
:100E2000AF804E4820F0C8FC6FF004042EE7254840
:100E30001FF00EFD0028E5D04FF4803148481FF028
:100E4000B3FC0028E1D14FF4803146481FF0ACFCE0
:100E50000028DAD14FF0B86141481FF082FC002829
:100E6000D3D14FF0B8613F481FF07BFC0028CCD1B4
:100E70003D483E4B3E4C4360042383603D4B6360E2
:100E80000823A360FFF7F0FB2046FFF7EDFB0321EB
:100E9000394820F091FCB8E7384820F08DFCC3E7D2
:100EA0001400050058010020ADDEEFBE1A630300F8
:100EB000406303005A630300776303008963030000
:100EC00099630300C0590200AE630300006302008F
:100ED000C9630300F90600002843002058160020CB
:100EE0007D0600003F640300EA6303004C430020DA
:100EF00075070000484300200E640300A05902005B
:100F0000F8620200636403004665030031050000D7
:100F1000480100205B650300F06202008964030061
:100F2000AC640300E8620200C8640300EA640300E2
:100F30003C430020B5050000136503007265030003
:100F40008A650300BA65030060430020990500002C
:100F5000D4650300300C0020144100202D660300EE
:100F600010630200086302007C430020210C000093
:100F70007043002069050000F26503004A66030023
:100F80004FF47A51B04B0022286C0EF0FBF9AF4BB6
:100F90000146186000283FF47FAFAD4820F00CFCFC
:100FA000AC4820F009FC00260027002403234FF45E
:100FB0008052CDE90334CDE90667CDE90144A64B63
:100FC000A6490094A6481AF0AFFBA649A4481AF017
:100FD00035FB4FF0020A4FF48052CDE90667CDE9A8
:100FE000024ACDE90044A04BA0490494A0481AF05D
:100FF0009BFBA0499E481AF021FB012221469E48F6
:1010000023F0B1FE204605F08FFE044610B10146E4
:101010009A4839E6DFF8C0821AAE47460FCF0FC6AE
:101020003B68214633600AAA1AA806F08FFC0446E2
:1010300010B10146924827E64FF4A02311AE41F6C5
:10104000520130460FAFCDE91237119721F07FFBE7
:1010500030468C4921F085FBBDF848304FF0160B27
:101060008DF85130119B0DF15009159341F2092370
:10107000ADF85830844B00941793524623464946A6
:101080000A988DF850B021F0D8FE044610B1014600
:101090007E48F9E50A9B394609934FF03013CDE9B4
:1010A0000F30099806F0D4FC044610B10146784888
:1010B000EAE5014614221DA824F0EBF90BAA1692CA
:1010C00006220127B8F81830D8F81400ADF83030EF
:1010D000B8F81E300B90ADF838306E4BD8F81A00C7
:1010E000149324331793DFF8F4810DABCDE9182363
:1010F000694B0D9041461AA8CDE911A9CDE91A76A0
:10110000159213951C9309F08FFB044610B101460C
:101110006248B9E51AAB14934FF40003494615939E
:10112000D8F800001AAB169322F00EFA044610B15C
:1011300001465B48A8E5BDF854303A468DF8453085
:10114000149B314609988DF844B0129306F0EEFCDA
:10115000044610B10146534896E50A9821F09FFED7
:10116000044610B1014650488EE500230A9814A9A0
:10117000ADF850308DF8523006F018FC044610B12E
:1011800001464A4880E54A4B4A4A4B4C4B495C6011
:101190009960C3E90641136014335360496895F8B8
:1011A0003A300A98CB70516889684968CB702B6CCB
:1011B00043498B60EB8F0A6032468B8108F0C8F997
:1011C000044610B101463F485EE506463E4FDFF853
:1011D00010813E4D3146384620F0EEFA4FF0FF3296
:1011E0004FF0FF33404619F0FDFF044620B10146A1
:1011F000374849E50126EDE73146284620F0DCFA7C
:10120000002EF7D000F02EFD2546294FDFF8D490B0
:10121000DFF8D4802946484620F0CEFA1422002177
:101220001AA824F036F9032338461AAAE9B28DF831
:10123000693007F073FD0446002857D00146254861
:1012400022E53546E6E700BFC83400201041002003
:101250006A66030089660300050A000088700020A2
:10126000400A0020BB660300C508000088800020FB
:10127000380B0020C766030054070020D366030024
:10128000F3660300563412001E6703003167030043
:101290005A670300583400208C0100209267030035
:1012A000B5670300CA670300E76703001768030018
:1012B0002834002050340020080100201C010020A8
:1012C0002401002046680300656803008A68030063
:1012D000E2660300C6680300305F0200A03400200D
:1012E000CC070020A8680300E968030029464046AF
:1012F00020F062FA1437002DA3D000220023CDE99C
:10130000062302234FF48062CDE90243CDE9004475
:101310000A4B0B4904940B481AF006FA0A4909488B
:101320001AF08CF909481FF07DFA012000F04EF800
:10133000014600283FF4AAAC0548A5E4C507000013
:10134000886C0020480900200E690300E407002093
:1013500015690300084B1A691268002AB8BF80F0AB
:10136000010028B19B68DB684FF000410248184734
:101370009B681B69F8E700BFC059020038B5104DE3
:101380002B78BBB90F4C204623F071FBA8B1226922
:10139000A1681368204643F0004313600B680A4AB3
:1013A0001F219847034630B9FFF7D4FF034610B911
:1013B00001232B700023184638BD6FF01203FAE7A3
:1013C000D0680020C059020001000A0010B5074B88
:1013D00004461B7823B12046BDE81040FFF7BABF92
:1013E000FFF7CCFF0028F6D010BD00BFD06800206A
:1013F0002DE9F047854F06463B78002B4BD000285F
:1014000049D04FF000094C46814D824B2A78011F8C
:1014100003EB42183C3051F8042F13B2002BB8BF35
:101420005B429BB212149C42B8BF1C46002AB8BF54
:10143000524292B29145B8BF91468842EBD1DFF853
:1014400010A2DAF80030002B0FDA402C02DCB9F1E0
:10145000400F0ADD4C45ACBF002101214B4622461E
:101460006D48CAF8001020F0A7F9DAF80030002B18
:1014700070DBDCB2002356F82320002C6FD112B2AF
:1014800028F813200133102BF5D12B780133DBB270
:10149000042B66D82B70614A614813786149DFF8E4
:1014A000B491002B0CBF8046884683F00103137073
:1014B000D9F80030002B00F08C809A6814885A68A4
:1014C000A4B2B2F800A09A891FFA8AFA564B544582
:1014D00019784FD8AAEB0405ADB2002950D0544575
:1014E00077D0DFF864A1DAF8001049B1D9F80030FC
:1014F0002A469B894D4820F05FF90023CAF8003046
:10150000C446D9F800504FEA841E2B6803EB8413BD
:1015100003F14009624618685968083303C24B4515
:101520009446F7D1286840220021704423F0B1FF8F
:10153000AB890134B4FBF3F103FB1144AA68A4B2F4
:101540003B4B1480D3E8EF1F0131C3E8E21F002AB0
:101550001DD0F7E74C45ACBF002401248AE71214E4
:101560008EE700232B70334B1B68002B93D0294848
:10157000984790E70AEB02052D1BADB20029B0D1C8
:10158000042D1FD840220021404623F082FF3B78E3
:101590004146002B14BF3046002000F0BDF9014643
:1015A00088B3254B1A680132052A1A6005D9322002
:1015B000B2FBF0F300FB13232BBBBDE8F0471F4841
:1015C00020F0FAB801211E481970294620F0F4F8DD
:1015D00085E740220021404623F05BFF194BD3E80A
:1015E000EF1F0131C3E8E21F002AF8D1164B17485C
:1015F0001A6801321A60D0E8AF2F19689142C6D933
:101600001FF02AF9C3E7BDE8F08700BFD4680020C7
:10161000D3680020766600203B690300D168002073
:10162000DC4300209C430020D26800209569030021
:1016300094430020A044002088430020C569030093
:101640007169030098430020904300208C430020E0
:101650009C0100209C4400204FF0FF3307B501A9F6
:1016600001931FF00AF938B9019B5A1C032A28BFBD
:101670004FF0FF33024A136003B05DF804FB00BF74
:101680009C01002037B502466C460B46134903C93E
:1016900084E803001046F2B1EBB1114D2A7812B183
:1016A000002003B030BD0F4A10600F4A204613607F
:1016B00000F036FB0028F4D19DF800200B4B1A7087
:1016C000019B5A1C032A28BF4FF0FF33084A1360BE
:1016D00001232B70E4E76FF01500E2E7505F020092
:1016E000D66800209C440020A0440020D46800203C
:1016F0009C01002070B5324B1B78002B5CD0314E22
:101700003378002B56D1304800F090F800F094F870
:10171000044628B101462D4820F04EF8204670BD01
:10172000014640222A4823F0B4FE4022214629489F
:1017300023F0AFFE284B21461C70284B28481C6024
:10174000284D1FF089F828481FF086F827481FF019
:1017500083F82B782648002B08BF00201C4900F096
:10176000B5F8044610B101462248D5E72B78224847
:10177000002B08BF0020174900F0CEF8044610B136
:1017800001461E48C8E700F009FB044630B1014697
:101790001B4820F011F800F0E1F8BFE7194B297859
:1017A000194A1A4800290CBF1146194620F004F8BE
:1017B000012333700024B1E74FF0FF34AEE700BFE0
:1017C000D6680020D5680020F1130000006A0300ED
:1017D000DC4300209C430020D2680020904300207E
:1017E00098430020D4680020944300208C430020BC
:1017F0005C4400201B6A03001C440020376A03007D
:101800005A6A0300FA690300FD690300896A03004C
:10181000012908D138B1044A126822B1D0E9000187
:1018200000B901B110477047A4440020014B186073
:10183000704700BFA444002037B51D4D2B78002B06
:1018400034D14FF0502449F6A633C4F85C35012357
:10185000A361D4F8203153B10021164801AA22F027
:10186000A3F8002808DA6FF0040003B030BD0021AF
:10187000212023F01DFCECE7019B0F4A1979186821
:101880000AF0DAF802460028EDD10121282003F001
:101890003DFC282003F00AFC084A094909480BF0DE
:1018A000EBFB094B9842DED101232B700020DCE7D3
:1018B000D768002018630200008002501118000051
:1018C000A0010020C80100200000AD0B1FB50F4C87
:1018D0002378012B13D100B989B11023CDE901017F
:1018E00000220B4801A9ADF80C300BF097FC094B16
:1018F000984207D102230020237004B010BD6FF07E
:101900001500FAE76FF00400F7E700BFD768002082
:10191000C80100200000AD0B1FB50D4B1B78022B3A
:1019200013D100B989B11023CDE90101094801A9FA
:10193000ADF80C300BF0E6FC074B984214BF6FF08B
:101940000400002005B05DF804FB6FF01500F9E716
:10195000D7680020C80100200000AD0B10B5054C71
:101960002378022B04D104480BF00EFD01232370D1
:1019700010BD00BFD7680020C80100204FF05023E1
:101980002DE9F74FD3F85C6549F6A633B6B2002EC1
:1019900008BF1E464FF00008C246454600244FF0DF
:1019A000FF324FF0FF336F4819F01CFC6E4AD2E84B
:1019B000EF3F012B03D1C2E8E14F0029F7D10CBF63
:1019C000012727460BD1214668481EF04FFF684B80
:1019D00068481A68684B19681FF0EEFEDAE7674B33
:1019E000D3E8AF4F012D11D004D9AB1E012B3CD948
:1019F000474609E05E4B604A21461B681268604812
:101A00001FF0DAFEA2460125B846C7E7584B08F199
:101A100001081B684345EBD840F24B13A4EB0A01C5
:101A2000C1F5C332574DA032554395FBF3F505F58B
:101A30001B442B46A63405F5DD5553480094063566
:101A40001FF0BAFEB5F5804F04D350481FF0B4FE26
:101A50000025D9E74FF0502321464D48C3F85C4597
:101A60001FF0AAFE0225A6B2CEE7414B08F10108FD
:101A70001B684345BCD8474BD3E8AF8F3E4BB4EB14
:101A80000800D3F8009061EB010100294FEA590BDF
:101A900021DB4A463B46FEF75DFB934501DAA2EBAC
:101AA00009023D4802EBD2723C494FEA6209032D1C
:101AB00008BF0146434622463948CDF800901FF042
:101AC0007BFE09F5FA73B3F57A7F12D9494635489A
:101AD0001FF072FE98E7B8EB040061EB01014A4683
:101AE0003B46FEF737FB5A45C8BFA2EB09025242FC
:101AF000D7E740F24B13234C04FB09F494FBF3F4B7
:101B00003444B4F5004F1BDD4BF6FE739C421ADCE7
:101B1000A4B24FF05023022DC3F85C4589EAE97363
:101B2000A3EBE97312D10F2B3FF76EAF01210F48E2
:101B30001EF09CFE21461C481FF03EFE032563E775
:101B40004FF40044E5E74BF6FF74E2E7202BF5DDA8
:101B5000002106481EF08AFE494614481FF02CFE5C
:101B600076E700BF3C070020D8010020A8440020F1
:101B7000D0010020C96A0300D4010020B044002035
:101B8000F36A030018FCFFFF206B0300516B030096
:101B9000746B0300AC440020BB6A0300C26A0300FC
:101BA000966B0300B96B0300D86B0300F26B030064
:101BB00010B5184B421E9A42014688B005D8164C03
:101BC000B4FBF0F200FB124434B114481FF0F4FDF2
:101BD0006FF0150008B010BD114B1860114B124882
:101BE0001A601FF0E9FD00220023CDE9062301233E
:101BF0004FF48062CDE90243CDE900440B4B0C4920
:101C000004940C4819F090FD0B490A4819F016FD90
:101C10002046DFE79F860100A0860100106C0300CC
:101C2000D4010020D00100202E6C03007D1900009B
:101C300088900020881600204E6C0300014608B5ED
:101C400003481EF013FEBDE80840024819F090BAA0
:101C5000B04400203C070020014601481EF006BEAB
:101C6000AC44002008B5012103481EF0FFFDBDE88B
:101C70000840024819F07CBAD80100203C07002037
:101C800010B588B00DF10703029301230022CDE9BE
:101C90000513039307238DF807008DF810208DF8A6
:101CA0001C3007489DF81C30826843F002038DF811
:101CB0001C3094681823022202A9A04708B010BD66
:101CC000A05A02001FB502238DF800008DF8011004
:101CD000CDF804D002938DF80C3007489DF80C30F5
:101CE000826843F002038DF80C30946818230122B7
:101CF00001A9A04704B010BDA05A020010B50146CA
:101D000004461020FFF7DEFF30B921461120FFF70F
:101D1000D9FF08B9014B1C7010BD00BF510600204F
:101D200037B5054650B3174822F0A1FE38B916481A
:101D30001FF042FD6FF01204204603B030BDFF20BB
:101D40000DF10701FFF79CFF044620B101460F4843
:101D50001FF032FDF0E79DF80710422905D00C482E
:101D60001FF02AFD6FF00404E6E701232B706B607F
:101D7000084B187008481FF01FFDDDE76FF01504D1
:101D8000DAE700BFA05A0200576C0300726C030030
:101D9000946C0300D8680020B96C030037B55C4D23
:101DA000297819B10024204603B030BD17208DF8E2
:101DB0000710FFF787FF044620B1014655481FF082
:101DC000FBFCF0E710210520FFF77CFF044610B173
:101DD00001465148F3E780210620FFF773FF0446D0
:101DE000014608B14D48EAE70720FFF76BFF0446BC
:101DF00010B101464A48E2E7002140F6CD4023F009
:101E000057F920460DF10701FFF73AFF102108208E
:101E1000FFF758FF044610B101464248CFE71021B2
:101E20000920FFF74FFF0446014608B13E48C6E7C8
:101E30000A20FFF747FF0446014608B13B48BEE7CA
:101E40000B20FFF73FFF044610B101463848B6E7C4
:101E500030210C20FFF736FF044610B1014635480B
:101E6000ADE733210D20FFF72DFF044610B10146E9
:101E70003148A4E734211220FFF724FF044610B1B3
:101E800001462E489BE72E211320FFF71BFF044637
:101E9000014608B12A4892E71520FFF713FF0446D0
:101EA00010B1014627488AE710211420FFF70AFFE6
:101EB000044610B10146244881E702211620FFF7AD
:101EC00001FF044610B10146204878E7204B1878FE
:101ED000FFF714FF044610B101461E486FE78F213B
:101EE0001720FFF7EFFE044610B101461A4866E7D7
:101EF0002E233321342219481FF05EFC9DF8071071
:101F00008B0702D416481FF057FC01232B7049E7BA
:101F1000D8680020EB6C0300106D0300326D0300E5
:101F20005A6D0300836D0300A96D0300CF6D03009C
:101F3000F76D03001A6E03003C6E03005E6E030033
:101F4000836E0300A86E0300CD6E0300F16E0300E4
:101F500051060020106F0300306F0300536F030021
:101F6000BF6F0300F8B50021064615276FF0004249
:101F7000114B124D1B7835F8134004EB400424B28A
:101F800035F9023B1B1B002BB8BF5B429342B8BF25
:101F9000CFB201F10101B8BF1A462829F0D1384665
:101FA000FFF7ACFE044620B93A46314604481FF01C
:101FB00003FC2046F8BD00BF510600208C5F0300E3
:101FC000FC6F03000023084A1370084A1360084A94
:101FD0001360084AD2E8EF1FC2E8E03F0028F9D1B9
:101FE00005481FF0E9BB00BFDA680020B8440020B4
:101FF000B4440020484300201870030038B50A4656
:1020000000EB410504460021A5420DD1B1F5FA7F50
:102010002C4C13DA2378012B3CD0022B46D0002B1A
:102020003DD1294B002239E034F9023B002BB8BFE7
:102030005B421BB29942B8BF1946E5E70146234807
:1020400000F0DAF82378012B22D0022B28D033BB02
:102050000028E6DD1C491E480A68006801328242F9
:102060000A601CDB01220B601A4B2270D3E8EF1FC1
:10207000C3E8E02F0028F9D1FFF7F4FD164B1868EC
:1020800008B119F075F8BDE8384014481FF094BB4A
:10209000002804DC022301222370114B1A6038BD92
:1020A000002803DD012323700D4BBBE70C4A1368A6
:1020B000013313600B4A12689342F0DBBDE83840ED
:1020C000FFF780BFDA680020B8440020C844002031
:1020D000C044002048430020C4440020277003006F
:1020E000B4440020BC4400202DE9F3411C4C0546BB
:1020F00020460E461746984600F030F968BBC4F8F3
:10210000F002294620461EF0BBFB28B16FF01504F3
:10211000204602B0BDE8F08120464FF47A511EF00F
:10212000B9FB04460028F1D10E4B32461E600E4B1F
:1021300029461F600D4BC3F800800D4B18700D4BE6
:1021400018600D4B18600D4B18704FF4FA730C4863
:1021500000933B461FF030FBDAE76FF00404D7E74B
:10216000C8440020C0440020BC440020C4440020D7
:10217000DA680020B8440020B4440020D968002068
:10218000377003009F29034670B512D80B4C0C4DD5
:1021900026784A0001FB06F0194605EB400023F0C3
:1021A00051F916B90123237070BD0023A0212846E0
:1021B0002370BDE87040FFF721BF00BFD968002041
:1021C0001667002010B5084C2378013B012B01D87D
:1021D000FFF7F8FE0023054A23701360044A1360DA
:1021E000044A137010BD00BFDA680020B844002014
:1021F000B4440020D968002038B508B920F03EFA70
:102200000A24D0F8F0520D4B53F825305C43A2421B
:1022100007D014245C43A24203D01E2463439A4295
:1022200009D1074B53F8253098470028E6DB14BF47
:102230000120002038BD4FF0FF30FBE75063020063
:1022400040630200032966D8DFE801F00220374E20
:10225000324B1A689B88C0F8C422A0F8C832304BB1
:102260001A689B88C0F8CA22A0F8CE322D4B1A6893
:102270009B88C0F8D022A0F8D4322B4B1A689B88D8
:10228000C0F8D622A0F8DA3200207047274B1A682F
:102290009B88C0F8C422A0F8C832254B1A689B88D6
:1022A000C0F8CA22A0F8CE32224B1A689B88C0F828
:1022B000D022A0F8D432204BE0E7204B1A689B884C
:1022C000C0F8C422A0F8C8321D4B1A689B88C0F819
:1022D000CA22A0F8CE321B4B1A689B88C0F8D022C5
:1022E000A0F8D432184BC9E7184B1A689B88C0F87D
:1022F000C422A0F8C832164B1A689B88C0F8CA22BC
:10230000A0F8CE32134B1A689B88C0F8D022A0F8F0
:10231000D432114BB2E74FF0FF3070473660030004
:10232000306003002A600300246003001E60030085
:1023300018600300126003000C60030006600300D5
:1023400000600300FA5F0300F45F0300EE5F030028
:10235000E85F0300E25F0300DC5F030010B50446A2
:1023600010B94FF0FF3010BD012300210360C0E918
:1023700045111022043023F08CF804F114001EF0F3
:102380001DFE2D4B04F1B40203F1180153F8040BA8
:102390008B4242F8040BF9D1284B04F1CC0203F133
:1023A000180153F8040B8B4242F8040BF9D1244B6B
:1023B00004F1E40203F1180153F8040B8B4242F8D4
:1023C000040BF9D11F4B04F1FC0203F1180153F87F
:1023D000040B8B4242F8040BF9D142F2107104F560
:1023E000ED7304F29A2223F8021F9342FBD10021DD
:1023F000C02204F58E7023F04CF80021124B2046C9
:10240000C4E9A733C4F8A812C4F8AC12A4F8B012F7
:10241000C4F8B212C4F8B612A4F8BA12C4F8BC12C6
:10242000C4F8C012C4F8A432FFF70CFF002898D1FA
:102430002A23C4F8EC3296E7846003006C60030042
:10244000546003003C600300400640062DE9F04F55
:1024500000F53777A9B03B46164604461EF01CFB34
:1024600018220021A4F8E80205461CA823F011F860
:102470001822002122A823F00CF8502E22D1B4F902
:10248000C4320893B4F9CA320193B4F9D032069336
:10249000B4F9D6320A2D07932EDD4FF0000B22AB94
:1024A0000493AE4B0DF170080993CDF814B0CDF83C
:1024B00008B00025029B2E46A7F5377A4FEA43095C
:1024C000039529E0A02E0BD1B4F9C6320893B4F9D4
:1024D000CC320193B4F9D2320693B4F9D832D9E7A9
:1024E000B4F9C8320893B4F9CE320193B4F9D432B6
:1024F0000693B4F9DA32CDE7B4F91831002B00F3C2
:102500001A8200260023A4F81A313046266029B02A
:10251000BDE8F08F0123039310ABBAF9E420BAF9B8
:10252000B4104B44B7F900001EF076FB8C4B0CAA9C
:1025300033F90930BAF9CC105843039B064442F8EA
:10254000230016ABBAF9FC204B44B7F900001EF08B
:1025500063FB844B039A33F909300AF10C0A5843A0
:102560000EAB43F82200054409F10C09002AD1D032
:10257000002E40F0DA80002D00F0E58085EAE5735A
:10258000B3FA83F31F22013B1BB20999D21A31F926
:10259000023B0991059902FB03130593069B46F341
:1025A0000F31B3EB820FB8BF4FF0010B002940F39E
:1025B000CD800C986C4B03EA80001EF081FCA8F8DB
:1025C0000000C0F58040A8F80C0045F30F31002949
:1025D0000ADD654B0E9803EA80001EF071FC049B37
:1025E0001880C0F580409881029B08F102080133F1
:1025F0000293049B023702330493029B062B7FF461
:1026000058AF059B079A4FF000089342B4BF5E464F
:102610004BF00106554B36B20A93554B04F1B40505
:102620000993544B07934FF448534246B5F9281287
:10263000204604931EF058FB4FEA48030693484B8C
:10264000074603EB48031A460021284602931EF072
:1026500040F99A224FF4207A8011C0EB071010FB4A
:1026600002F0C0F34F230593434BC8EB4827039375
:10267000049BFF01534407F510571BB2DDF8189077
:10268000A5F1B40BBFB20B93BBF9FC30BBF9B4009E
:10269000BBF9CCC0BBF9E4100493002E6ED0059BAF
:1026A00041F69A1E184400B25045B8BF50463BB29E
:1026B0009842A8BF184622AB39F9031016ABABF805
:1026C000B40039F90300039A01FB00F3DB1213FB9A
:1026D0000EF35B150133B2F900E00CEB63031BB2A0
:1026E0007345B8BF73460B9A0CF1040C9342A8BF14
:1026F0001346ABF8CC30B5F82832BDF81020A3EB68
:10270000EC0313FB00F3DB108810A3F58053584350
:1027100002EB820100114900002809B263DC40424B
:1027200004921EF0CDFB404260E086EAE672B2FA07
:1027300082F2013A12B23DB185EAE573B3FA83F34E
:10274000013B1BB221E71F221F231EE74FF48043EA
:10275000A8F8003039E74FF4407A95E7F4600300B9
:10276000B46003009C60030000C0FFFFCC60030066
:10277000DC600300E8600300D860030040F28F2EA5
:102780001CAB33F90930059A049310AB39F903C037
:10279000049B03FB0CF3DB1213FB0EF300EBA353C0
:1027A00013441BB25345B8BF53460FFA87FE734517
:1027B000A8BF7346ABF8B430B5F82832A3EBE003FA
:1027C00013FB0CF30498DB1002308010A3F5805348
:1027D00058438013002800F39C80404204911EF06F
:1027E0006FFB404298E004921EF06AFB00B2049A2C
:1027F000803040F30720024412B2B2F5C07FB8BF68
:102800004FF4C072ABF8FC20039B80370233BAF55B
:10281000407F0BF10C0BBFB2039309F10C099AD165
:102820000021029A28461EF054F8069B454A05F1FD
:10283000180A13441A460746002150469B461EF0CC
:1028400048F8079BC0F34F22814633F9020BC7F3C8
:102850004F210793531A1BB2834215DA0144891A98
:1028600009B201EB410701EB87015A4641F38F01A1
:1028700050461EF02EF8B91049428146029A284669
:1028800009B21EF026F80746099A32F9023B09926E
:102890004FEAE91249F3CF194B4508DA298B9A1A06
:1028A00011FA82F12983A98C11FA82F2AA840A987A
:1028B000F91130F9022B47F3CF1797420A9008DD40
:1028C000521A298811FA82F12980A98911FA82F213
:1028D000AA8108F10108B8F1060F05F102057FF49D
:1028E000A4AED4F814310133C4F81431002E3FF4EF
:1028F00003AEB4F81A3101331BB2062BDBBFA4F8C8
:102900001A31089BA4F81A810193019BA4F818318D
:10291000FBE504911EF0D4FA00B20499203040F394
:102920008910084400B2B0F5C07FB8BF4FF4C07042
:10293000ABF8E40068E79BB29E1C013B36B2A4F8FA
:102940001831DFE59C6003002DE9F04743F6D72CF2
:10295000002540F6EA3642F2984A49108D4215DBCE
:102960000646002740F2353C41F2DE7E43F25E0827
:102970008F4234DB002547F6FF7C3A4E02F1020E0F
:102980008D4200F1100053DBBDE8F08750F8358030
:10299000D3F804E01F68A8EB0E0404F50054A41358
:1029A00006FB0474C3F80080D3F808805C60A4EBD5
:1029B00008095FEAA93948BF09F101090AFB09EED4
:1029C000DC68AEEB0404A41348BF01340CFB0484A0
:1029D000C3E902E4641040F835400135BEE7D6F89B
:1029E00004A0D3F814900137AAEB090404F50054AD
:1029F000A5131C69C3F810A00CFB05449D695C611C
:102A0000A4EB050A5FEAAA3A48BF0AF1010A0EFBE5
:102A10000A99DC690836A9EB0404A41348BF013401
:102A200008FB0455C3E906956D1046F8045C9FE762
:102A300050E90234234450E904473C44E413B442CF
:102A4000B8BF3446DB136445A8BF6446B342B8BF81
:102A500033466345A8BF634622F815402EF815306B
:102A600002358DE70080FFFF2DE9F74F894601927F
:102A700040F20A38002240F23F4C45F6F52143F27D
:102A8000672440F2B916DE27DFF894E0234D09F100
:102A9000040A019B9A4202D103B0BDE8F08F03689B
:102AA0000C3008FB03FB50F8083C0BF5804B0EFB89
:102AB00003BB50F8043C0CFB03BB036801FB03BBE6
:102AC000436804FB03BB836805FB03BBC36806FBC9
:102AD00003BB036907FB03B349F8323050F8083CE5
:102AE00007FB03FB50F8043C0BF5804B06FB03BBD4
:102AF000036805FB03BB436804FB03BB836801FB5E
:102B000003BBC3680CFB03BB03690EFB03BB436938
:102B100008FB03B34AF832300132BAE739F1FFFF5C
:102B2000FEF7FFFF2DE9F04F91B0009302F0040390
:102B30000293C2F3C2030133840705460E46DDF853
:102B400068800392059340F0BB81041D30B10729D2
:102B500009D86FF01B0011B0BDE8F08F01F0070637
:102B60003444C6F10806009B4FF000094FF0040AF8
:102B7000591E4FF0FF334F460193CB465346CDF8D5
:102B800010900DB1009820600598002800F3E880AF
:102B90009848009A824203D397488242C0F0E0806E
:102BA000039AA4EB050E92074FEA9E0000F1038101
:102BB0000F2F00F2B180002D00F0058107F14002D7
:102BC0000DEB020C019A0CF8200C0CF8102C049858
:102BD00001300490E7E07A285DD84B280ED84728CA
:102BE00059D829282DD8252852D054D820287AD031
:102BF0002338D0F1000B4BEB000B74E04C382E283F
:102C000049D8DFE800F070484848484848484848F4
:102C100048484B484848484848484859484B4B5909
:102C20005959704B6D487048184B184848827F4B73
:102C300048484B487F0000204FF0000B4FF0040A3B
:102C400038E001222A38C0B202FA00F010EA0E0F72
:102C500049D110F0625C2FD110EA020B43D06046DC
:102C6000013C5444B4FBFAF40AFB04F4002D61D097
:102C7000A3EB050CA444B4453FF66BAF002868D124
:102C8000042B47D158F8043B2360042304342AE082
:102C9000019A013A01924FF0000B24E011F8010C67
:102CA0006C2834D1002011F8023C83466C2BC5D12E
:102CB0004FF0080A5346D3E708F1070828F0070841
:102CC000073424F00704F8E802AB35B10698204435
:102CD000B0423FF63EAFC4E900AB4FF0000B083402
:102CE0004FF0080A534611F8010F002878D0BBF1C5
:102CF000000F7FF470AF2528F5D14FF0010B019B39
:102D0000013301934FF0040AECE7584694E70020A2
:102D10008346A5E7082B02D06FF015001BE708F1EA
:102D2000070828F00708B8EC027B84ED007B082335
:102D30000834D8E768B9042B02D108F10408A4E7E5
:102D4000082BE9D108F1070828F0070808F108085E
:102D5000EDE705980138059058F8040B009010E74E
:102D6000039A900720D54FF0010CA4EB050E4FEA13
:102D70009E00BEF5007FCFD20F2FCDD8F5B107F161
:102D800040020DEB020E019AC0B20EF8200C0EF8B4
:102D9000102CBCF1000F3FF41AAF60F07F000EF86A
:102DA000200C09F101090137C5F108024FF6DA7E5E
:102DB0000434069297E74FF0000CDAE7BCF1000FFD
:102DC00001D00136EFE7029A0236002AEBD10098D3
:102DD000CDE90631FDF73AFADDE906310644E2E7CE
:102DE000631BB3F5806F97D245B9A6F10804E018CC
:102DF000B1E600BFB0580200589C0300029A9B083D
:102E000028602B709DF81030C2B1EB7085F80290ED
:102E1000B9F1000F05D0002208A8C5F1010C9742B6
:102E20000ED14FF0000AC5F101030DF12008019306
:102E30000DF1300B574512D1601B8CE66B70E5E746
:102E400010F8013B190608D50CEB040EB64503F04B
:102E50007F033FF67EAE04F8013B0132DFE7B9F1B4
:102E6000000F03D098F90020002A17DB029BD3B192
:102E70001AF80B2004F8012B0022019B18191044AA
:102E8000B0423FF666AE98F80000009904F8010BD6
:102E90002046039222F0D6FA039A14440AF1010A5A
:102EA00008F10108C6E798F8002055F82230009391
:102EB000029B009845F82230FDF7C8F9421CDCE778
:102EC0006FF00D0047E600BF2DE9F04F97B000AF5F
:102ED000D7F880B03B62CBF3C0030446894690F834
:102EE00002A0FA62BB6141B9457800780AEB800024
:102EF00020444D4517D8A0EB0409E378FB61BAF1F3
:102F0000000F02D01BF0010F16D1FB6953BBFB6A07
:102F10001BB1494620463A6A98474D4628465C37D9
:102F2000BD46BDE8F08F461C3046FDF78FF90130F5
:102F3000304409F10109DCE7626823787A62FA6AB1
:102F40009900796104EB8301002A40F001810E466B
:102F50004FF000084D4601EB0A094E454CD101EBFC
:102F60000A0610E01BF0020FD1D023789A007A6194
:102F7000626804EB83017A62FA6A002A77D14D46CF
:102F8000904601EB0A061BF0050F0CBF022301233C
:102F9000FB62FB6906EB430A0BF00203BB6256457A
:102FA000BCD016F8021B16F8013C54F82390994B3C
:102FB000994502D3984B994536D3BB69002B40D035
:102FC000786A1EF0D0FB00283BD0E9468AB06A46FA
:102FD000924B53617B6AC2E906314FF4007313844C
:102FE0008F4B42F8103F00234FF412518D4801F0EF
:102FF000B7F8023DCD46D2E716F8013BF96254F826
:103000002300FDF723F9D7F88430F96A01304BB17A
:10301000D7F8883098453EBFD7F8843023F8180099
:1030200008F10108054498E7BB6923B1786A1EF0EE
:103030009AFB0028C9D11BF0010F05D1FB6AED1ADC
:10304000ADE7BB6A002BAAD04846FDF7FFF8D7F8DA
:10305000843053B1D7F8883098453FBFD7F88420E3
:10306000431C22F8183008F10108054497E7BAF12B
:10307000000F73D01BF0040673D0D046002607F172
:10308000480052463B61B96222F0DCF9B96A3B69FB
:1030900001EB0A02BA62FA69F9695200FA60BA6A87
:1030A00002EB41023A610BF00202BA603A69B96A76
:1030B0008A4258D162781BF0020F18BF00217A6251
:1030C00008BF4FEA5801B2181BF0010FD2B240F00E
:1030D0009F801BF0040F14BF40460020BB6162704C
:1030E000A070E17020463A6A7969FB6A9847051E2C
:1030F000FFF614AFBB69414623707B6A3A6A63707E
:10310000FB6984F802A0E37007F14800FB6A984766
:10311000B0F10008C0F2BA807B69A9EB0A01C91AB4
:10312000FB683A6AC91AD7E90A0398470028C0F22F
:10313000AF804FF0000BA84408EB000507F1380AF8
:10314000B34571D300213A6A0846FB6A9847E5E621
:1031500056464FF0000807F1380092E75646D04631
:1031600096E7B04694E7BA6A12F8021B12F8015CBF
:10317000BA6254F82500274A904202D3264A904268
:103180001ED3BA6932B1786A7B601EF0ECFA7B68B4
:1031900000288BD1BA6802BB08F1280207F1300C75
:1031A00008F10100944407F1580208F1020852FAAC
:1031B00080F00CF8101C5FFA88F800F8105C75E7D6
:1031C000BA693AB1786A7B601EF0CDFA7B68002854
:1031D0007FF46CAF1BF0010F09D006F1280207F154
:1031E0003000711C161806F8205CCEB25EE71BF0AA
:1031F000040F3FF45BAF08F1280207F1300008F13B
:10320000010102EB000808F8105C5FFA81F84DE755
:10321000002063E7B0580200589C03007A70030056
:1032200004000001505E02001BF80A3054F823909D
:1032300087F83730D7F884302BB3D7F888309B45E0
:1032400021D2D7F8843033F81B8001213A6AFB6A17
:1032500007F13700984700281ADB0544B8F1000F42
:1032600006D14846FCF7F2FF00F101081FFA88F882
:10327000414648463A6AFB6A9847002808DB0544FD
:103280000BF1010B5CE74FF00008DEE7454645E631
:10329000054643E6014B1860704700BFDC01002083
:1032A00080B505460E461746984618F003FD0346BE
:1032B00022F0F4FA0446DFF81890424649F800304C
:1032C00039463046A84754F8090001F075FE00BFA2
:1032D000080000002DE9F047058B044628079046BA
:1032E00011D4022905F0070540F0CC8020461EF0DD
:1032F000E8FC78B10138218B042811D8DFE800F010
:10330000C2106D85950001290CBF45F0100545F0F0
:103310002005258388F31188BFF36F8FBDE8F08700
:1033200001F0070AAA4500F0A5800027B9463E46ED
:10333000A368002B00F0BC8041F00801218388F3D2
:103340001188BFF36F8FA168002900F0BA800D6863
:10335000002900F0B680334652462046D1F804805A
:10336000C047002D76D02B6829461D46F0E701F0B6
:1033700007035A1F012A1BD8002221F00701062B40
:10338000276889B2C4E9002209D13B4603E0628B79
:10339000013262831B68002BF9D141F00201204603
:1033A00021831EF08EFC00287AD041F0200176E0C7
:1033B000042B0AD121F0070189B2204621831EF097
:1033C00080FC10B141F020012183218B01F0070A1C
:1033D000AA454FD00027B946AAE7236921F0070183
:1033E00041F00601062DD3F8009021832DD1B9F1CB
:1033F000000F3FD041F00801218388F31188BFF30B
:103400006F8F20463949C84729E021F00701236919
:1034100041F0040189B2042DD3F804902183E6D051
:1034200000274FF0040A3E4682E721F00701236996
:1034300041F0050189B2052DD3F808902183D6D03B
:1034400000274FF0050A3E4672E700274FF0060AB4
:103450003E466DE72B4687E7B9F1000FD1D1EFF378
:103460001188202383F31288BFF36F8F238B23F0FF
:1034700008032383258BEA062ED525F0100323832A
:1034800005F007056669218B002EBFF670AF00239B
:103490002768C4E9003321F0070141F001012183CD
:1034A000218B4FF0000901F0070AAA457FF440AFD5
:1034B000002F9CD041F00801218388F31188BFF3CD
:1034C0006F8F002FC8D03D6839463346524620469C
:1034D0001EF023FC2F46F4E7AB067FF51BAF25F06B
:1034E0002003238305F0070500E700BF471D020006
:1034F00010B530B90B480C491EF0EFFC6FF0150009
:1035000010BD836833B9074808491EF0E6FC6FF028
:103510000400F5E71B6813B1BDE8104018471846D2
:10352000EEE700BF785E02002E7103003F710300DA
:1035300010B530B90B480C491EF0CFFC6FF01500E8
:1035400010BD836833B9074808491EF0C6FC6FF008
:103550000400F5E75B6813B1BDE810401847184652
:10356000EEE700BF785E02002E7103003F7103009A
:1035700070B508B101B132B90B480C491EF0ADFC71
:103580006FF0150070BD84680CB1E56835B9064868
:1035900007491EF0A2FC6FF00400F3E741F8040BAA
:1035A000E368BDE870401847785E02005D71030073
:1035B0003F71030010B5044630B9104810491EF0A1
:1035C0008CFC6FF0150010BD006830B90B480D4938
:1035D0001EF083FC6FF00100F5E783680BB11B69F7
:1035E00033B9064808491EF078FC6FF00400EAE79A
:1035F000616898470028E6D12060E4E7785E020021
:10360000897103009A7103003F71030070B513467E
:10361000044630B9104811491EF05FFC6FF01500E8
:1036200070BD006830B90C480D491EF056FC6FF0B3
:103630000100F5E782680AB1956835B9064809497D
:103640001EF04BFC6FF00400EAE70A46AC466168E6
:10365000BDE87040604700BF785E020089710300DA
:103660009A7103003F710300034A13680BB9526853
:1036700013600020704700BFE001002030B50C4609
:103680000E4985B00291D0F8D4110546CDE900313C
:1036900000F1F0014FF0FF33204616F0EBFF50B978
:1036A000012384F86C30D5F8D03123B1204605B021
:1036B000BDE83040184705B030BD00BFD31F020041
:1036C00038B50C46114605461EF085FC034638B950
:1036D000284604491EF07FFC03460020236038BDC5
:1036E0000120FBE7439B03002DE9F04F01238146B6
:1036F000056946688FB005F57B77D7E8EF2F002A7C
:1037000003D1C7E8E13F0029F7D10CBF1A460022D8
:1037100040F0BB80B368B16A05F5F8781C1F10460D
:103720001EF0E0FC844279D8013A00F0A880B2FA99
:1037300082F24FF00044D44072682046073222F0F3
:103740000302C5F83C22B16A1EF0CCFCC5F8400269
:10375000B36A40466343033323F0030302EB43029F
:10376000230103EB4403093323F0030303EBC403F6
:10377000C5F834221A440832C5F830227368C5F8F7
:103780003842C5F82C32424BC5E9AD63316800F0D0
:10379000F1F9044600283FD1D9F810B0D9F804A0B7
:1037A000D9F800300BF53479059004934846DAE9EE
:1037B0000734012B08BF103C21F0A0FBDAF82400ED
:1037C000344904AB009301EB8021234648464FF473
:1037D000806217F087FE2021DAF824302E4A06A8EE
:1037E0001BF088FE06A9484617F028FF2B490BF569
:1037F000307021F03CFBDAE9050183685C684CB16C
:103800005B46274AA047044630B9DAE905018368D8
:103810001B692BB96FF05704002129E001327EE7C4
:103820000122984704460028F6D11E4B2846C5F8C9
:10383000D0311D4BC5F8D4311C4B0393D5F8403221
:103840000293D5F83C32CDE9008305F51173B26AD5
:10385000D5F8E81300F056F904460028DCD105F14C
:10386000F00016F0ADFF0028C5F8F0030ADB0221D6
:1038700038461EF0E4FB20460FB0BDE8F08F6FF035
:103880000B04C9E76FF01504C6E76FF07704F2E7A1
:103890002920020088940020BF7103000F2002003D
:1038A00003200200B1380000BB2102006F2002009B
:1038B00013B5044640B100230122CDE90032074B85
:1038C000D0E9091216F0AAFE236F1B6823B1606FBE
:1038D00002B0BDE81040184702B010BD439B030082
:1038E00013B504460846216901F57B71D1E8AF1F85
:1038F000022910D193B1A0B10121CDE900311346C5
:10390000D0E9091216F08AFE074B984208BF6FF003
:103910000B0002B010BD6FF00F00FAE76FF04C0023
:10392000F7E76FF00100F4E72EF8FFFF2DE9F3470A
:1039300089461546066906F57B73D3E8AF3F022B2F
:1039400064D1136823B96FF0150002B0BDE8F087A9
:103950001B78002BF7D0D6F8E8A3BAF1000F36D1C8
:1039600006F5EC774FF0FF324FF0FF33384617F093
:1039700005FB30462A6801A9FFF7A2FE019C80469C
:103980001CB938461EF059FBDDE705F10803236733
:10399000AB6984F86CA06367646460B138461EF05C
:1039A0004CFB21463046A36E2A68FFF767FE0020D5
:1039B000C9F80040C9E71F22296804F1480021F036
:1039C00092FD384684F867801EF037FBEFE73046FB
:1039D00010491EF000FB04460028B4D0002705F172
:1039E00008030367AB6980F86C70436740641F226B
:1039F0002968483021F077FD22460121304684F8BD
:103A0000677000F061F80028D1D09CE76FF00F00DC
:103A10009BE700BF439B030010B50C46006900F50F
:103A20007B73D3E8AF3F022B0FD189B10A4900F570
:103A3000307021F048FA204620F043FD7822002122
:103A4000204621F026FD002010BD6FF00F00FBE79F
:103A50006FF00100F8E700BFBC4700202DE9F04FF0
:103A600005460E4690460027D0F8C4A085B0AAF5BA
:103A7000BE7421463046FCF7D7FBE0B9114BA4F1E8
:103A8000480B0293DAF810303246CDE9008329461C
:103A90004FF0FF335846AAF5E27916F0EBFD60B916
:103AA0007823012203FB079383F86C20DAF80C30AB
:103AB0000BB158469847783417B105B0BDE8F08F80
:103AC0000127D6E7E92102001FB5144690B18AB15B
:103AD000012912D10A4B00F1F0010293D0F8D43140
:103AE000483201934FF0FF332046009316F0C2FD99
:103AF00004B010BD6FF01500FAE70020F8E700BF32
:103B0000E92102002DE9F04387B00E46DDE90E8180
:103B10001446DDE910251F4630B329B3DFF850C045
:103B200000F1F009002D08BF65469EB9CDE90344B8
:103B300000F5E2742046059620F05BFF03ABCDE96B
:103B400000432A463B464146484616F0B1FE07B0C0
:103B5000BDE8F083002241460E9248462A4607B04F
:103B6000BDE8F04316F0F4BF6FF01500EFE700BFBB
:103B70005D3A0000F0B504462B4A87B004AB0E4610
:103B800092E8030083E80300002C49D0184616F0A1
:103B90004BFC0546B0B94FF0FF33E16C04F154071C
:103BA000A163CDE9010000933846236D04F138028A
:103BB00020F037F9A06C1EF046FBC4F8BC0020B919
:103BC0006FF00B05284607B0F0BDA06C1EF03BFB64
:103BD000C4F8C0000028F3D0236CD4F8BC10C4F89B
:103BE00090300423C4F89430C4F8AC300223E3626C
:103BF0000E4BB4F84820C4F88C10616C236204F1B9
:103C00008C03C4F8A070A4F89820C4F8B870C4F865
:103C1000A810A4F8B020C4F8A400A6612363D1E7DB
:103C20006FF01505CEE700BF585F02008C630200FD
:103C30002DE9F047044607464FF00109DFF85080B0
:103C400014B93846BDE8F08794FAA4F5B5FA85F5BD
:103C500009FA05F32E0108EB05156FEA030A24EAB9
:103C600003042B7B002BEBD058F806301B694BB9B3
:103C70004644736804222846196807EA0A071EF0BA
:103C80004AFBDDE7284698470028D9D1F0E700BF76
:103C9000D85E020030B5002289B00F490F4821F0EC
:103CA000DBFA002200230024CDE906230E230C4D6D
:103CB000CDE903344FF440722846CDE90144094B65
:103CC0000949009417F030FD0849284617F0B6FC62
:103CD000204609B030BD00BFF13C0000782C002028
:103CE000781B00200540000088980020CB7103005D
:103CF000014817F03DBA00BF840700202DE9F047C6
:103D0000804621480F461EF0EAFA0646002833D0C6
:103D100000252846BDE8F087237B83B12368DB6854
:103D20000BB120469847636883F8069023681B69A7
:103D3000D3B963680422204619681EF0ECFA0136F4
:103D400010345445E8D3B8F1000FE2D0002DDFD095
:103D50002846FFF76DFF0546002FF7D000214FF4EE
:103D6000A47021F0A5F9F1E7204698470028E0D09B
:103D700009FA06F31D43E2E705464FF00109034C3B
:103D8000DFF80CA0DDE700BFF4470020D85E02009A
:103D9000E85E0200014B53F820007047CC6302003C
:103DA00008B5034608462BB1044A136000F070FCC6
:103DB000002008BD6FF01500FBE700BF0C020020DB
:103DC00010B5044C237813B9034817F0D1F9012337
:103DD000237010BDDB6800208407002010B5044666
:103DE00009481EF07CFA3CB1084BD3E8EF1F0139BB
:103DF000C3E8E21F002AF8D1054821F039FABDE8EE
:103E00001040044817F0B4B9EC470020F0470020F8
:103E1000782C00208407002000200146034BD3E8C3
:103E2000EF0FC3E8E21F002AF9D17047EC470020EA
:103E300070B5FFF7F1FF0546074C084EB44200D3BA
:103E400070BD63685B792BB123685B6813B1294649
:103E5000204698471034F1E7D85E0200E85E020081
:103E600010B5044C044920461DF0C4FD034B1C60F2
:103E700010BD00BF6C060020B8630200E4470020BC
:103E800000230D4A10B513700C4A4FF40041136023
:103E90000B4A0C481360FFF783FFFFF7E1FF0A4B63
:103EA0000A4918468B4200D310BD1A1A5C681211D9
:103EB000013222711033F5E7DC680020EC47002066
:103EC000F0470020DB220200D85E0200E85E02001C
:103ED00001460022002301481DF0ADBD6C06002004
:103EE00001481DF046BE00BF6C060020024B014693
:103EF00018681DF092BE00BFE447002001481DF085
:103F0000C7BE00BF6C06002070B5274B187800288C
:103F100049D0FFF7E5FF0546002841D1234B244C4B
:103F20001B68002B19DD21F050F94FF47A72A0FBC9
:103F3000020302FB0131C30B43EA4143D4E90020F1
:103F40009B1A40F2E9324FEAD13161EB0001934212
:103F500071F1000101D3FFF76BFFD4E9003213F5D3
:103F60007A7342F10002C4E90032BDE87040FFF705
:103F7000C5BF63685B7923B12368294620461B6867
:103F800098471034B442F4D32846FFF7AFFF094BEB
:103F9000D3E8EF1F0139C3E8E21F002ABED0F7E7DC
:103FA000054C064EEEE770BDDB680020EC470020B4
:103FB000702C0020F0470020D85E0200E85E02006E
:103FC00070B50D4D297861B90120FFF797FE0B4CB4
:103FD0000B4EB44206D3FFF797FF0028FBD1012315
:103FE0002B7070BD63685B791BB1236820469B68AA
:103FF00098471034EDE700BFDC680020D85E02006F
:10400000E85E020000212DE9F0470846FFF776FE42
:10401000044658B340F267684FF0000921F03EFCB7
:104020001B4B1C4A1B58136033B11B4B1B68092BDD
:1040300002DD1A4817F09CF80025194FDFF85CA044
:1040400044B12046FFF7F4FD044618B94FF0FF389D
:104050004FF0FF39FFF758FF064628B9B5B9424679
:104060004B46504617F0BEF83546E9E74FF0FF38AB
:104070004FF0FF39D2E72B689B691BB1002228461D
:10408000114698471035BD42F5D3E8E7054DFAE7EC
:1040900008000000E8470020F047002084070020C7
:1040A000E85E0200D85E020013B518481EF017F94A
:1040B000174B1B7873B1EFF31184202383F312881D
:1040C000BFF36F8FFFF720FF84F31188BFF36F8F6B
:1040D00002B010BD0F4B1B68002BF9D050B9002265
:1040E00000230D48CDE900234FF40042002318F0CF
:1040F000FBF8EDE70928EBD1074821F0B9F80748AC
:1041000002B0BDE8104017F033B800BFF047002000
:10411000DC680020E8470020782C0020840700207D
:1041200010B5064B04461B6898472146A06004481A
:104130001DF000FDBDE81040FFF7B6BF0C020020E7
:104140006C060020044A054B9B1AB1EBD30F34BF19
:1041500052F8310000207047D05D0200D85E0200A6
:104160002DE9F04F8FB0C1F34A2804AF0D469146B8
:10417000B8607B600C0DB8F1000F63D000264FF0E3
:10418000040B4FF00A0A07F11403C7F80C80C7E9C3
:1041900007667E620193CDF808B0CDF800A007F164
:1041A0001C0332464846F968FEF78EFEB0F5006FF4
:1041B00003461CD36C468AB0D9F8041004AB2648D9
:1041C0001A46C3E9050140F2FF71D9614FF400714D
:1041D0001984224B42F8103F4FF4125133462048C5
:1041E000FFF7BEFFA5462C37BD46BDE8F08FC0F3F4
:1041F0000A0804F11700184420F0070080083B600B
:10420000FFF766FE68F35325044690B13B6800F162
:104210001001C7E9083607F11403F961CDE900A3DD
:10422000CDF808B048460F4AF96807F11C03FEF7BD
:104230004BFE68F353252A4620467B68B9681EF07A
:1042400089F8D0E704F1170020F007008008FFF795
:104250003FFE0446EDE700BFE071030004000001EB
:10426000805E0200292302002DE9F04F87B004464A
:10427000DDE9105ADDE91279934698460391BFB102
:104280003B46524610210020CDF80090CDF8149006
:10429000FEF748FCB0F5006F06460AD340F2FF7304
:1042A0000221174A174807B0BDE8F04F1EF0ABB81F
:1042B0003E4605F11700304420F007008008FFF764
:1042C00007FE04F007040BF0070BE40044EA8B142C
:1042D00044EA462444EA0554054640B13FB13B4612
:1042E00052463146CDF800901030FEF71BFC434695
:1042F00022462846039907B0BDE8F04F1EF02AB8C1
:104300001F720300805E0200406820B1034BC01A98
:1043100040F3CF0070474FF0FF307047D05D020090
:104320000EB403B503AB53F8042B014604480193C4
:1043300001F0DAF902B05DF804EB03B0704700BF9A
:1043400069240200CA0605D48B064CBF0249034902
:10435000FFF7E6BF704700BF429B0300419B03008D
:104360002DE9F04F8BB09B46169B9DF854A0069309
:10437000179B04460593189B0D469046199E04937F
:10438000BAF1000F00F09E8006F00103089306F0DA
:104390000803079306F4807309931DF0BAFF06F033
:1043A0000209024600283BD020468F49FFF7B8FF9C
:1043B0000746B9F1000F08D016F0440F32D12A4653
:1043C00020468A49FFF7ACFF0744089B53B1884B4E
:1043D000204653F82A20874B8749002A08BF1A46EF
:1043E000FFF79EFF099B002B48D0079B002B62D153
:1043F000B8F1000F64D0424620468049FFF790FF95
:104400000546069B3D44002B6BD1049B002B71D1CC
:10441000F30700F1E28031462046FFF793FFD6E034
:104420000746C6E7764B18680028CDD0754B4FF489
:104430007A791B684FF03C0CB5FBF3F5B5FBF0F156
:104440004FF4616300FB115509FB05F5B1FBF3F275
:10445000B5FBF0FE03FB121100FB1E55B1FBFCF394
:1044600009FB05F5B5FBF0F50CFB13112046009197
:10447000CDE901E56449FFF753FFA5E7079BEBB1E1
:10448000624B204653F82A206149FFF749FF054651
:10449000B8F1000F05D0424620465849FFF740FFCB
:1044A0000544BBF1000FACD05A4620465949FFF7EE
:1044B00037FF0544A5E74FF0000BE1E7079DE7E76D
:1044C00045469EE7BBF1010F069B06D1002B64D148
:1044D000049B002B7BD000250CE0002BF8D04E482D
:1044E0005CE04E48069B22464D491DF00BF9049BAB
:1044F000002B68D0DFF83881DFF83891049F31460F
:10450000102F204628BF10274FF0000BFFF71AFF8F
:104510005D4545DC059B494620461A78FFF700FFBC
:104520004FF0010B1BF0070F03D141462046FFF768
:10453000F7FE5F453BD9059B4946204613F80B2003
:10454000FFF7EEFE0BF1010BBBF1100FEAD14FF0BC
:10455000000B20463349FFF7E3FE5A46059B2046F1
:104560009A5CA2F120015F2928BF2E222E49FFF775
:10457000D7FE0BF1010BBBF1100F1DD01BF0070F85
:1045800003D141462046FFF7CBFE5F455A46E5D8AA
:1045900041462046FFF7C4FEEBE720485546A1E719
:1045A00041462046FFF7BCFE0BF1010BB0E7204669
:1045B0001E49FFF7B5FEC5E7059B3B440593049BE9
:1045C000DB1B04939AD1BAF1000F7FF421AF204690
:1045D0000BB0BDE8F04F1DF03ABF2046054A064932
:1045E000FFF79EFE17E700BF5C72030060720300D6
:1045F000DC63020057720300107C03008572030025
:10460000FC470020F847002069720300F0630200B5
:10461000897203008F72030097240200692402004C
:10462000E95600009A7203009C7203000B9B030082
:104630000D9B03009472030042F20F7373B58B421B
:1046400028BF0B4605680446052168460D4A1AF046
:1046500051FF0646636828460B225B680A491DF035
:10466000E8FE63683246694628465B681DF0E1FE55
:1046700063681B2228465B6804491DF0DAFE02B01D
:1046800070BD00BFA6790300BB7203009F720300D8
:1046900000210123064A904206D8064A01B90123A7
:1046A0001360054B18607047012140085B00F2E77A
:1046B00040420F00F8470020FC470020F8B50D46A7
:1046C0000446064F4618B44201D12846F8BD14F8F6
:1046D000011BBB6801485B689847F4E7205A020059
:1046E000014B0360002070473864020008B504489D
:1046F0001DF062F8BDE8084002481DF05DB800BF3B
:104700000173030036730300014818F0CDB900BFF0
:104710003864020038B5044618B90F4B0F485B687F
:1047200098476168B1F5683F10D0B1F5680F0DD0BA
:104730000B4DA9420AD011F46861206807D00146E8
:10474000084820F00FFA00232360656038BD14226A
:1047500020F09FFEF9E700BFE80500206473030026
:104760002C5F5CA92C4D002008B560B34368B3F5FD
:10477000683F0ED0B3F5680F18D0144A934220D08A
:1047800000684FF0FF324FF0FF3316F0F7FB58B1DF
:1047900015E001220368D3E8EF1F002903D1C3E825
:1047A000E02F0028F7D10AD1002008BD0368084A8D
:1047B0001B7803F5807352F82330002BF4D00548A2
:1047C000F3E70548F1E76FF4E040EEE72C5F5CA902
:1047D00000000350E98FFFFFEA8FFFFF08B520B309
:1047E0004368B3F5683F09D0B3F5680F13D0114A99
:1047F00093421DD0006816F039FC14E000220368D3
:10480000D3E8EF1F012903D1C3E8E02F0028F7D137
:1048100009D0094808BD00210368084A1B7803F540
:10482000807342F823100020F4E76FF4E040F1E7D2
:104830000348EFE72C5F5CA9E98FFFFF00000350FE
:10484000EA8FFFFF10B5044618B91D4B1D485B6881
:1048500098476368B3F5683F2FD0B3F5680F2CD045
:10486000194A934219D1236803BB4FF0FF324FF02E
:10487000FF332146154816F053FB08B923681BB9CE
:104880000F4B13485B68984714220021206820F0E2
:1048900000FE4FF46863636008E0B3F5683F0DD82D
:1048A0003A2B03D040F6BA629342DED1206820F062
:1048B000A4F9636843F03A03636010BD054AF3E767
:1048C000E8050020647303002C5F5CA92C4D0020D8
:1048D0008A7303003A00003A08B5064940231422BF
:1048E000054820F031F9BDE808400449044818F0B3
:1048F0009FB900BF2C4800202C4D002040640200CE
:10490000546402002DE9F84F80460C4600AF0029A0
:1049100065D0D1E90012E9468AB0A3686D464FF030
:10492000050A2E463748C5E90723C5E9050146F8BB
:1049300010AF002332464FF421513348FFF710FCEB
:10494000D4E90312CD466369AD463048C5E9072373
:10495000C5E90501C5F810A0002332464FF42151E6
:104960002948FFF7FDFBCD46E3690121284A264887
:104970001DF049FD264600254FF00A0ADFF8A0B0D9
:10498000E946D6E908E0D6E90A138EB06A46C2F8CD
:104990001CE005F1010EC2E908E0A81CC2E90A0109
:1049A000E91CC2E905B5C2E90C1342F810AF0023B7
:1049B00045F2400114480435FFF7D2FB102DCD46D7
:1049C00006F11006DCD1236E0121124A0E481DF0BB
:1049D0001AFDA3690121104A0B481DF014FDB8F11E
:1049E000010F07D1EFF305830C4A41460648103BFF
:1049F0001DF009FD2146404616F0D0F8BD46BDE841
:104A0000F88F00BFB7730300C05E0200E6730300B7
:104A1000157403006774030076740300A474030024
:104A20002474030030BFFFF7FDBF00BF2DE9F04144
:104A300005460B4EDFF83080324606EB0807CC1BEC
:104A40002046084920F0FEFCA01942460021083CFF
:104A500020F01FFDC5F8A84007F10800BDE8F0816F
:104A6000000000002C5F020004000000054B9A6962
:104A70009B689A421FBF044A536843F080535360B7
:104A8000704700BF8054002000ED00E070B52A4C54
:104A900006460D4629482A491DF085FDA36ADB0616
:104AA00047D5264827491DF07EFD1120A36A1C0723
:104AB00004D5224824491DF076FD12201E4CA36A1D
:104AC000990712D521491D481DF06DFD636BA26A3F
:104AD000120609D501211E4A18481DF094FC1EB18A
:104AE000A36A23F08003A3621320134CA36ADE079A
:104AF00004D5124817491DF056FD1420A36A9C06E0
:104B000004D50E4814491DF04EFD15200A4B9A6A33
:104B1000D10658BF9A6A9A6A920642BF5A6A22F42C
:104B200000525A629A6A42F0FF029A6200232B7086
:104B300070BD1020BAE700BF00ED00E0C05E0200CB
:104B4000B7740300CD7403000075030013750300F0
:104B50002B750300417503006075030010B5244CEC
:104B6000244925481DF01FFDA36A99013ED522481E
:104B700022491DF018FD1E20A36ADA0104D51E4843
:104B80001F491DF010FD1F20194CA36ADB0204D53C
:104B900019481C491DF007FD0220A36A1C0304D517
:104BA000154819491DF0FFFC2120114CA36A590337
:104BB00004D5114815491DF0F6FC2220A36A9A037A
:104BC00004D50D4812491DF0EEFC2320084CA36AC1
:104BD000DB0304D508480F491DF0E5FC2420A36A37
:104BE0006FEA03436FEA1343A36210BD1D20C3E7BE
:104BF00000ED00E08F750300C05E0200A7750300A2
:104C0000BA750300D4750300FE7503001C7603001B
:104C1000417603005B76030070B5294C06460D46CD
:104C2000284829491DF0BFFCA36AD9043CD5254872
:104C300026491DF0B8FC1720A36A1A0504D521489F
:104C400023491DF0B0FC18201D4CA36A9B0512D50A
:104C50001C4820491DF0A7FCA36BA26A100409D5CB
:104C600001211D4A17481DF0CEFB1EB1A36A23F493
:104C70000043A3621920124CA36A590504D51148B8
:104C800016491DF090FC1A20A36ADA050ED50D48CE
:104C900013491DF088FC1B20094A936A43F47F43A3
:104CA000936200232B7070BD1620C5E7A36A9B0496
:104CB000F2D504480B491DF076FC1C20ECE700BF40
:104CC00000ED00E0C05E0200867603009C760300E3
:104CD00000750300AD760300C6760300DB760300A3
:104CE000F6760300607503002DE9F0419CB0624B3D
:104CF0000546D3F80480002600AFC8F3080486F305
:104D00001188BFF36F8F02F07F43B3F17F4F07D15C
:104D100002F00C03082B12D1584959481DF043FCEE
:104D2000002635460023FB71E31E092B00F2838029
:104D3000DFE803F00A797C7581818181817F10072A
:104D40004CBF0D460126EDE74E494D481DF02BFCAA
:104D50000023494CFB71E36A9A0705D54A49484844
:104D60001DF021FC002431E0E36A002B01DA474901
:104D7000F5E7E36A5B00F5D5454941481DF013FCB2
:104D80006369AA6943F480736361BFF34F8FBFF314
:104D90006F8F636932F8022C23F480736361BFF371
:104DA0004F8FBFF36F8F4DF602739A4207D0A36AFD
:104DB000DBB23BB30120F91DFFF768FE31E02B6841
:104DC0000121344A2E481DF01EFB2C68FB79ABB93B
:104DD0006822294607F1080020F034FB7B6A002E88
:104DE00045D0C3F3080222B96FEA53236FEA432385
:104DF0007B62204607F10801FFF784FD7037BD464E
:104E0000BDE8F081A36A13F47F4F04D00120F91D9F
:104E1000FFF702FF05E0A36AB3F5803FA2D3FFF7D7
:104E20009DFE0446D2E70020F91DC5E70020F91DCC
:104E3000EEE7194993E7194A18F4F87FE8468AB073
:104E4000174B18BF13466A461649103CC2E90513B2
:104E50004FF400731384144BD46142F8103F0023C5
:104E60004FF411510648FFF77BF9C5467AE723F462
:104E7000FF7323F00103BBE700ED00E03C77030084
:104E8000C05E0200677703007E7703009F77030010
:104E9000AD770300CC770300E877030023770300A6
:104EA0000E7703000C78030004000001064B5A69DA
:104EB00042F010025A615A6942F480625A615A699A
:104EC00022F008025A61704700ED00E0EFF308801D
:104ED000EFF3098101B57246FFF706FF01BD00BF80
:104EE000002080F31488BFF36F8F002080F30A88BE
:104EF00080F30B88104880F3088800200F49087061
:104F000007F07CF900200E490860BFF34F8F00F0D6
:104F10002DF8202080F311880A484FF400614018D2
:104F200080F30988EFF314800221084380F314888A
:104F3000BFF36F8F00F00EF9C8C40020806C002012
:104F400094ED00E088AB0020002318460649D1F814
:104F50009020C2F30722934200DB7047C1F89830DB
:104F6000C1F8A0000133F6E700ED00E010B572B61D
:104F7000002484F31388FFF7E7FF23464FF0FF3048
:104F80000C4A03F120010133102B42F82100F8D123
:104F900000234FF0FF30074A03F160010133102B6B
:104FA00042F82100F8D162B6BFF34F8FBFF36F8F85
:104FB00010BD00BF00E100E0084B9B6883420BD1AD
:104FC000EFF3058343B1064B5A6842F080525A60B2
:104FD0005A6A22F400425A6216F072BE80540020CF
:104FE00000ED00E025498A6882F8F5E04FF03000D6
:104FF0001044EFF3098C80E8F01F1EF0100F03D16E
:1050000002F1B40080EC108A202080F31288BFF3F4
:105010006F8F1B4F4FF000668A698A603E60D2F83E
:10502000A800184C206092F9F5E0D2F8AC000023FB
:10503000C2F8AC3080F311881EF0100F03D00023AB
:10504000E1EE103A03E002F1B40090EC108AEFF3C5
:10505000148323F0040383F31488BFF36F8F02F1EA
:10506000300090E8F01F8CF3098802F1000004B5CD
:105070001DF0A1FABDE804407047000080540020F4
:1050800004ED00E0484D00201EF0040F0CBFEFF3CC
:105090000880EFF30980816911F8021C0229FFD012
:1050A00001B572461DF074FA01BD00BF40B2002880
:1050B00007DB01234109034A00F01F00834042F847
:1050C0002130704700E100E040B200280CDB0122F3
:1050D0000649430900F01F008240203341F8232095
:1050E000BFF34F8FBFF36F8F704700BF00E100E049
:1050F000054B420953F82220012300F01F0003FA58
:1051000000F01040704700BF00E100E040B200280E
:1051100001F10101ACBF00F16040064B4FEA4111C3
:10512000C9B2ABBF00F5614000F00F0080F800137A
:105130001954704714ED00E0044B054A23F07F0337
:105140009360BFF34F8FBFF36F8F70470000000075
:1051500000ED00E008B5FFF7EFFF104BD3F8882013
:1051600022F47002C3F88820D3F8882042F4A00209
:10517000C3F888204FF04042C3F83422BFF34F8F6A
:10518000BFF36F8F0023E1EE103A15F0F5FD16F036
:10519000EFFE00F07DF815F033FE00BF00ED00E0FB
:1051A00042F8203C009B0D4942F81C3C019B21F039
:1051B000010142F8183C029B42F8081C42F8143CDA
:1051C0004FF0807342F8043C0023C0F8AC304FF439
:1051D0007D43203A0265C0F8F4307047A1320000E8
:1051E000104B9B6883421AD1EFF30580B8B9EFF3F7
:1051F0001181202282F31288BFF36F8F1A7B22F075
:1052000002021A73EFF3148323F0040383F3148868
:10521000BFF36F8F81F31188BFF36F8F70476FF00B
:1052200015007047805400200E461546002300B537
:10523000E1EE103AEFF3148323F0040383F31488B0
:10524000BFF36F8FBFF36F8F0A4BD0F8A820986021
:10525000094B1A60D0F8983083F30B882C4686F3FC
:1052600009880020054B9847204600210022002392
:10527000034C204780540020484D0020C1250200E7
:10528000A13200001022014B1A61704700ED00E0CE
:10529000002320210348C2180133452B82F8001354
:1052A000F9D1704700E100E008B5EFF30583064A45
:1052B000103B02EBC30152F8330049688847BDE850
:1052C0000840FFF7D3BB00BFE05A02001FB5094CEE
:1052D000094A23460121094800F012F900230393EB
:1052E000074B0121E41A01A80193029400F012F97E
:1052F00004B010BD0000072000000020646402001C
:105300004809002010B50C7A0B6804F01F0223F046
:105310001F031A43CB68640923F01F03054943EABE
:10532000440343F00103C1F89800C1F89C20C1F880
:10533000A03010BD00ED00E010B50A4BD3F890305E
:10534000C3F30723013B984208D901210346064ACB
:1053500006481DF058F86FF0150010BDFFF7D2FF9A
:10536000FBE700BF00ED00E023780300A05E020031
:105370002DE9F04F8946144606464FF00008514D7E
:1053800085B0C84527DAD6F804A0BAF1000F44D09A
:10539000BAF11F0F17D91AF01F0F14D1D6F800B0A9
:1053A0001BF01F0F0FD158461DF046F907460AEBB8
:1053B0000B0001381DF040F9874210D06FF015073F
:1053C000414A3B4601E04346404A012140481DF026
:1053D0001AF86FF01504204605B0BDE8F08F17F1FC
:1053E000160FEDD0BC42EBDDC5F89870D5F89C10D7
:1053F000C5F89870D5F8A03021F01F0143F01F0BBD
:10540000D6E900321A44994202F1FF3A1DD1D34540
:1054100007D13146F8B21DF018F908F101080C3631
:10542000AFE73146C5F89870D5F89C3022F01F02DE
:1054300003F01F031343C5F89C30E0B21DF005F9DB
:1054400010F1160FC5D0441CE7E7C5F89870D5F8E1
:10545000A020013B23F01F0302F01F021343D3459A
:105460003146E0B2C5F8A030E8D01DF0EEF810F1FA
:10547000160FAED0C5F89870D5F89C209DF808306E
:105480000BF1FF3B62F304038DF80830D5F8A03030
:105490009DF808205B0863F347128DF80820D6E9D1
:1054A00000321344009323F01F035B44A3EB0A0371
:1054B000013023F01F036946C0B20393FFF73CFF9E
:1054C000BEE700BF00ED00E06C7803004978030000
:1054D000A05E02000522044BC3F89420BFF34F8F57
:1054E000BFF36F8F704700BF00ED00E0BFF35F8F29
:1054F0000022024BC3F89420704700BF00ED00E08B
:1055000010B5034C2278FFF733FF207010BD00BFA9
:10551000DE6800202DE9F74F294D8A4606464FF0F8
:105520000008AB46274FD0451BDAD6F80490B9F1F6
:10553000000F3FD03168084601911DF07DF80199B8
:10554000044609EB010001381DF076F884424FF063
:1055500014021D4B08D002FB08F36FF015024BF844
:10556000032003B0BDE8F08F14F1160F2C60F8D0C3
:105570001978A142F5DD02FB08B0C7F89840C7F8DA
:105580009840D7F89C4000F10801007B64F30400C8
:105590000871D7F8A0000C79400860F347140C712B
:1055A000D7F89C1021F01F016960D7F8A01021F0F6
:1055B0001F01296108F1010814350C36B3E700BF5B
:1055C0004C4D002000ED00E0DE680020F0B54149C0
:1055D000414CD1F890302568C3F307239D4287B032
:1055E00075D80020FFF782FF3C4BC1F8C0308542E0
:1055F00016D13B4C01A82570FFF772F8002506462E
:10560000384FAE4213D1002023783249D1F8902090
:10561000C2F30722934254DBFFF75CFF00202FE028
:10562000616801EB0011FFF76DFE0130DFE70199C2
:10563000280101EB0513DA683A40B2F5001F21D0CA
:10564000B2F5800F2BD0B2F5801F38D15A689B6815
:105650000958013B22F01F0003440120844623F037
:105660001F0340EA4C10CDE902218DF8100002A979
:1056700020780593FFF760FE00281DDA6FF0150013
:1056800007B0F0BD5A689B680958013B22F01F0023
:1056900003444FF0020C012023F01F03E1E75A6896
:1056A0009B680958013B22F01F0003444FF0000C97
:1056B000062023F01F03D4E723780133237001353C
:1056C0009FE7C1F89830C1F8A00001339EE74FF082
:1056D000FF30D5E700ED00E070640200AAFF44004F
:1056E000DE6800200000F0FFF0B587B007460E46E8
:1056F00014460021102268461D461FF0CAFE0223F0
:105700008DF80230054B2A4621466846CDE90476DD
:10571000019319F0B5FF07B0F0BD00BF832602006A
:1057200008B5024819F0C6FEFEE700BF9E780300E8
:1057300008B5024B1B689847002008BD604D00204B
:10574000034B044A1860937843F002039370704748
:10575000604D00204802002008B505481CF02CF8D8
:10576000002383F31188BFF36F8F0423184602DFF1
:10577000A378030008B50649064821F00701C1F1E6
:10578000005202F5E0221BF065FF002008BD00BFBB
:10579000930E0120644D002070B541690446867A5D
:1057A0000A4D59B1437ADB0706D42C2303FB065379
:1057B0005B6A1B689B689847002363612C20214625
:1057C00006FB0050BDE870401FF0BFBA140800206F
:1057D0002C22024B02FB0030704700BF140800204F
:1057E0002C21827A054B01FB02339A6A1B7F801AB7
:1057F0001B3323F00303B0FBF3F0704714080020C1
:1058000038B52C24827A064B04FB02335B6AD3E959
:1058100001240C601568FFF7E3FF04FB005038BD5E
:10582000140800202DE9F04385B0054668469046EF
:105830001C4603911FF0CBFCDDE90067EFF31189F3
:10584000202383F31288BFF36F8F6B8B002B41D023
:105850002A8B9A4225D900220023284615F056FCAF
:105860000446F0B189F31188BFF36F8F039B002BBF
:1058700041D032463B4668461FF0CDFC2C21A27A2F
:10588000254B204601FB02335B6A03A91B681D6898
:10589000DDE90023A847606170BB2046FFF77CFF6D
:1058A00024E0698B4B1E6B8389F31188BFF36F8FE4
:1058B0002B7F2A8BAC6A1B3323F00303521A02FBA3
:1058C0000344154B154AEB1A9B105343A3722B7FCD
:1058D000E372CBE789F31188BFF36F8F234642460B
:1058E000284615F013FC04460028BFD100242046AA
:1058F00005B0BDE8F0836361012300252381039B8C
:1059000029466382E27A656004F118001FF0C1FD48
:1059100063692582E360EAE714080020A38B2EBAAE
:1059200070B52C250B4C00B970BD037A4668013B5D
:10593000DBB20372002BF7D1C3604360837A05FBAF
:1059400003431B6A13B198473046ECE7FFF724FF87
:10595000FAE700BF14080020054B03EB8000D0F8E5
:10596000003223F0E04343F04053C0F80032704768
:1059700000258450052370B5144D154E2C78013444
:10598000B4FBF3F303EB8303E41A1EF0E7F8114AC8
:10599000137823B156F82430C01A072814D94FF0D1
:1059A0005023D3F8141141B10021C3F81411D3F8D6
:1059B00014312C700CB9012313702C781EF0CEF822
:1059C00046F82400012070BD0020FCE7E0680020BC
:1059D000704D0020DF680020012208B50B4B0C49F8
:1059E000C3F8002502230020C1F8D036FFF7B4FF2A
:1059F0001046FFF7B1FFC1F80427C1F80429C1F828
:105A0000002BBDE8084000F0A5B800BF0010005012
:105A10000040005007B50DF1070006F047FD0F4BA1
:105A2000984218D14FF480620D4B0E49C3F8B82547
:105A30004FF40062C3F83C259DF807001EF0B9F84A
:105A40009DF8070008491EF0AFF801209DF80730C7
:105A5000984006F025FD03B05DF804FB0000AD0B97
:105A600000A002502CA0025028A1025048B1054BC2
:105A7000054A1B68B3FBF2F35843044B43F00103A0
:105A8000184770470403002040420F0040600200A6
:105A9000002170B5104C114D114E000714F8013B58
:105AA00003F01F025B090FD0012B0FD1334603EB2C
:105AB0008203D3F80022013122F0E042024304299C
:105AC000C3F80022EAD170BD2B46F0E700238032F4
:105AD00053F82230FFDE00BFCB780300002584504E
