:020000040000FA
:1000000090CE0020816100007FFA02006D61000047
:100010006D6100006D6100006D6100006D610000A8
:100020000000000000000000000000002963000044
:100030006D61000000000000856200006D6100003D
:1000400049650000496500004965000049650000F8
:1000500049650000496500004965000049650000E8
:1000600049650000496500004965000049650000D8
:1000700049650000496500004965000049650000C8
:1000800049650000496500004965000049650000B8
:1000900049650000496500004965000049650000A8
:1000A0004965000049650000496500004965000098
:1000B0004965000049650000496500004965000088
:1000C0004965000049650000496500004965000078
:1000D0004965000049650000496500004965000068
:1000E0004965000049650000496500004965000058
:1000F0004965000049650000496500004965000048
:100100004965000049650000496500004965000037
:100110004965000049650000496500004965000027
:100120004965000049650000496500004965000017
:100130004965000049650000496500004965000007
:1001400049650000496500004965000049650000F7
:100150004965000053B94AB9002908BF00281CBFEF
:100160004FF0FF314FF0FF3000F00CB8ADF1080C4C
:100170006DE904CE00F035F8DDF804E0DDE9022396
:1001800004B07047704700BF10F8012B11F8013B15
:10019000012A28BF9A42F7D0D01A7047034611F8B7
:1001A000012B03F8012B002AF9D17047034613F8FD
:1001B000012B002AFBD1181A01387047430803F0BD
:1001C0005533C01A00F03333800800F03330184440
:1001D0004FF0013300EB101000F00F305843000EC9
:1001E00070472DE9F04786468C460846089E15461E
:1001F00074461946002B40F0C1808542B2FA82F263
:1002000045D94AB1C2F1200300FA02FC954094405E
:100210002EFA03F343EA0C0C4FEA154EA8B2230C56
:10022000BCFBFEF80EFB18CC08FB00F943EA0C43BC
:10023000994528D9EB1808F1FF3704D2994502D91E
:10024000A8F102072B44A3EB0903A4B2B3FBFEFC05
:100250000EFB1C330CFB00F044EA0344A04214D90B
:100260002C190CF1FF3304D2A04202D9ACF10203E5
:100270002C44241A43EA07401EB1D44000233460C2
:100280007360BDE8F0874746DDE76346F1E792BB60
:10029000431B01214FEA154EAFB2200CB3FBFEFC0D
:1002A0000EFB1C330CFB07F840EA0343984561D969
:1002B000EB180CF1FF3004D2984502D9ACF10200E2
:1002C0002B44A3EB0803A4B2B3FBFEFC0EFB1C33D0
:1002D0000CFB07F744EA0344A7424DD92C190CF153
:1002E000FF3304D2A74202D9ACF102032C44E41B31
:1002F00043EA0040C0E7C2F120039540944020FA51
:1003000003F12EFA03F34FEA154E9040AFB20343C8
:10031000B1FBFEFC0EFB1C10190C0CFB07F841EAAC
:100320000041884522D969180CF1FF3004D2884574
:1003300002D9ACF102002944A1EB08019BB2B1FB48
:10034000FEFC0EFB1C110CFB07F743EA01439F4226
:100350000ED9EB180CF1FF3104D29F4202D9ACF157
:1003600002012B44DB1B41EA004193E76046E3E7CF
:100370006146F7E76046A4E76346B8E7834206D9DB
:1003800016B9002108467CE7C6E900E0F9E7B3FAB0
:1003900083F78FB9834201D3724508D8BEEB0204BC
:1003A00060EB030301209C461EB9002169E7384633
:1003B000FAE7C6E9004CF8E7C7F1200CBB400EFA9B
:1003C00007F522FA0CF42EFA0CF1BA401C4320FA7D
:1003D0000CF3B8404FEA144901431FFA84FEB3FB03
:1003E000F9F809FB18300B0C08FB0EFA43EA00433E
:1003F0009A4540D9E31808F1FF3004D29A4502D952
:10040000A8F102002344A3EB0A0389B2B3FBF9F875
:1004100009FB183308FB0EFE41EA03418E452CD937
:10042000611808F1FF3304D28E4502D9A8F1020306
:10043000214443EA0040A1EB0E01A0FB0298414594
:10044000CE46434602D306D14D4504D20138B9EB1E
:10045000020E68EB0403002EA7D0B5EB0E0261EB91
:10046000030101FA0CFC22FA07F3F9404CEA0303FA
:10047000C6E9003199E74046C5E74346D9E70000A1
:100480000023064A52F8041B096829B90133DBB27C
:10049000052BF7D10120704700207047302F002036
:1004A00001482DF07CBA00BF7007002001464FF4D0
:1004B000A07270B50446134831F01CFF12482DF0AD
:1004C0006EFA124A1368591C1160C822B3FBF2F08D
:1004D00002FB1033A3B91A46A51E0E3435F9020FDC
:1004E0000028B8BF404286B2B342B8BF3346A542E7
:1004F00012FA80F2F2D1BDE8704005482EF0FFBA42
:1005000070BD00BFBA600020E00600202C2F002044
:10051000FAA20300014811F02FBD00BFA82F002050
:100520001FB501AB07CA83E8070006482DF039FA6A
:10053000024618B91846044906F0E6FD05B05DF814
:1005400004FB00BFC82F0020890F000073B52E4D9B
:100550002B78FF2B50D12D4B2D481B782DF021FAF5
:1005600010B1002002B070BD2A482DF01AFA002800
:10057000F7D0012B38BF0123013B13F0FF03F0D06C
:1005800025482DF00EFA0124C0B29C40042804F145
:10059000FF3413D121482DF004FA84430ED1204AB0
:1005A0001368591C1160C822B3FBF2F102FB11332E
:1005B000002BD6D11B482EF0A2FAD2E72046FFF737
:1005C000FDFD064604210DEB010006F0A5FC019B94
:1005D0000021B3FBF6F206FB123224FA01F3DB072B
:1005E0000DD55AB9C9B24B1C2B7002310C4B0E48B9
:1005F000C9B21A602EF083FA0120B3E7013A013143
:100600001E29EAD1ADE700BF2E05002030050020ED
:100610001C34002018340020D82F0020D42F0020B4
:10062000DC2F00202BA3030063A3030070B50C682C
:1006300092B02378064607AD032B2ED8DFE803F0EF
:100640000227292B18492846FFF7A8FDA37905950D
:1006500062781E210492A2780AA80392E27802929C
:100660002279019262790092104A2BF0E7FA304623
:1006700008F0E0FE0AAA01460D482EF040FA0122D9
:100680000C4B0D481A702DF08AF912B070BD0B4951
:10069000D9E70B49D7E70B49D5E70A2128460A4A8B
:1006A0002BF0CCFAD2E700BF8CA30300AEA303006B
:1006B000D1A303008A6400208807002093A30300CD
:1006C0009AA30300A4A3030073DD030010B5114B2C
:1006D0001A68904210D05A6890420FD1012149B255
:1006E0000D4A127853F8223083420AD1BDE81040F7
:1006F00000210A482DF05CB90021F0E74FF0FF31EE
:10070000EEE707482DF04DF9BDE8104003460548D7
:100710002EF0F5B9302F00202F050020E02F00200B
:100720001834002001A40300F7B5054619482DF040
:1007300038F984B2A5420F46064609D8164800216A
:100740002DF036F9154803B0BDE8F0402DF030B972
:100750002C1BA4B2042C02D121460F48F3E7002140
:100760000D482DF025F90D482DF022F901220C4BF2
:10077000D3E8EF1F002903D1C3E8E02F0028F7D109
:1007800006D12A46394607480094B3B22EF0B7F98D
:1007900003B0F0BD20020020D82F0020D42F00206D
:1007A000D02F002037A40300F7B54B790F4F052B4E
:1007B00028BF0523888A3B700D4D0B690D4E0C46F2
:1007C0000D492B603080FFF7AFFF0C4B1B683BB926
:1007D0003B780B48009333882A6861792EF08FF9B3
:1007E000084803B0BDE8F0402DF0D9B8300500202E
:1007F00024020020B66000206DA40300B82F002062
:1008000075A403005807002030B51A4B0D461B682D
:100810001446834291B02AD13422002103A831F03A
:1008200090FDAB791A0744BF2A680492CCB1258A9F
:100830002C2D16D8DB0714D52A46E16805A8ADF89B
:100840000C5031F057FD28460B49FFF76DFF002291
:1008500000230A48CDE900234FF48042002312F020
:1008600093FA00220023064803A910F0D3FF11B029
:1008700030BD00BF302F0020B7A40300800C002043
:100880003806002070B505460A460C460146114858
:100890002EF035F9002110482DF08AF80F4B104E3C
:1008A0001B7856F82330AB4202D10E482DF080F869
:1008B0003368AB4202D10C4831F02EFC3E2C01D003
:1008C000442C04D10948BDE870402DF068B80848B0
:1008D000F9E700BFC0A40300E42F00202F0500208B
:1008E000302F0020BC2F0020800C0020100700209B
:1008F000280700202DE9F041514E524D8EB030684E
:100900004FF4A472002301A910F0E4FF044650B391
:10091000002200234C482DF049F8F0E70420002184
:1009200031F01AFB4CF24F3364349C4208D94046F4
:1009300029782DF036F8024644482EF0E0F80024DD
:1009400038462DF02EF80028E8D141482DF029F83E
:1009500068B1404B404A1B78FF2B12D10123D2F8DB
:1009600004802B7010E03D4FDFF8F480E8E73C484E
:100970002DF017F80028ECD0FFF7E8FD0028E8D1AB
:10098000BDE752F823802B70B8F1000FB7D0BDF847
:1009900004301BB933482EF0B2F8B0E70022002330
:1009A00031482FF0F2F8044698B930482CF0F9FF9E
:1009B0000028A4D02E4A1368591C11603222B3FBC0
:1009C000F2F002FB1033002B99D12A482EF097F851
:1009D00095E71F482CF0E5FF38B921482CF0E1FFDE
:1009E00018B9204606F024F989E704F10C073846C7
:1009F0000D212FF003F9BDF80420384603A91E4F3E
:100A00002FF00DF9012115482CF0D2FF3A882978F2
:100A10001A482EF074F83A88214640462FF02CFBF5
:100A2000021E04DA414616482EF069F8D9E7012182
:100A30000E482CF0BDFF3B880B443B805FE700BFB6
:100A4000E82F00202F050020A0070020F0A40300BD
:100A50001C3400202E050020302F0020E02F002025
:100A6000183400202DA50300E8070020BC2F00202B
:100A7000282F002048A50300B460002071A50300C2
:100A80008BA503002DE9F0414FF47A7531F0F1FAAE
:100A90002F46A0FB050605FB0166C30B43EA464350
:100AA00013F5FA644FEAD636DFF8388046F10006CF
:100AB000FFF7E6FC08B1BDE8F08131F0DAFAA0FBFF
:100AC000070305FB0131C30B43EA4143A3424FEA4D
:100AD000D131B141EFDA40F6CD42002340462CF04F
:100AE00065FFE5E72807002013B5014604460F48D7
:100AF0002EF005F80E4BD3E8EF1F0131C3E8E21FDB
:100B0000002AF8D10B482CF04AFF0B4B1B68A3427C
:100B100009D1002200230948CDE900234FF4804287
:100B2000002312F031F902B010BD00BFAEA50300E2
:100B3000C02F002010070020302F0020800C002044
:100B40002DE9F04F714DEDB04FF0FF320FA94FF08E
:100B5000FF336F4810F0BEFE6E482CF022FFBDF848
:100B60003C10044600296FD083B2994228BF194631
:100B700011A8B0FA80F35B0902931CAE0DF11A03C1
:100B800001934FF4A0720023009604F091FE002818
:100B900009DA614A002113683046013313604FF4CB
:100BA000A07231F0CEFBBDF83C20A0B2031D9A42EA
:100BB0002BD100F108030FAA0FA9084413445A7857
:100BC000047A5B8844EA022444EA034421465348F9
:100BD0002CF0EEFE524A1368591C11606422B3FBDC
:100BE000F2F102FB113383B907A8014624FA03F29C
:100BF00002F00102013330321E2B00F8012BF5D137
:100C0000002348488B772DF07AFFDFF830812A885F
:100C1000B8F8003092B22C889BB29A4237BFA4B287
:100C2000B8F80030B8F800301034E41AA4B2204606
:100C3000C4F10F04A4B201F049FE092C0AD83A4AC3
:100C40001368013313607FE7384A0846136801339D
:100C500013608EE70020364CB6462B889BB204EB1F
:100C60008312A2F1040C3C323EF8021B01EB01415D
:100C70004CF8041F6245F7D10133103003F00F0325
:100C8000A0282B8006F12006E6D12A4A136803F13A
:100C9000010AC2F800A0C822B3FBF2F102FB113333
:100CA000002B7FF451AF2888B8F80010DFF87C9053
:100CB000194E1D4C80B289B28842D9F800B0336811
:100CC000276818D32988B8F8000089B280B2A1EB50
:100CD0000008059301F0D0FA059BCDE901805A4642
:100CE0005146154800972DF00AFF0023C9F800303F
:100CF0003360236028E7B8F80010B5F8008089B2A7
:100D0000C1F1100111FA88F8E3E700BFFC6100208F
:100D10003806002020020020142F0020D42F0020AD
:100D2000102F0020C8A503000C2F0020182F002032
:100D3000EC2F0020082F0020EBA50300FA61002013
:100D400008B50B482DF0DBFE0A4831F0E5F90A48FA
:100D500000212CF02DFE094B186840B109F092FCDF
:100D6000014620B1BDE8084005482DF0C8BE08BDC9
:100D700024A60300800C0020E42F0020B82F0020C0
:100D800054A603000D4A1378B3B94389A3B10121D6
:100D9000117001790A4A117040F2E2425343094A44
:100DA00013600268084B116808481960918899809F
:100DB00092799A712CF0F3BD704700BF8B640020CC
:100DC00082640020CC2F0020836400204007002094
:100DD0002DE9F0435B4B5C4E1D8E5C4FDFF8A48128
:100DE000EFB03422002111A831F0ABFA4FF0FF32FE
:100DF0004FF0FF3330462CF0D9FD38462CF0D1FDB2
:100E00000028EED04FF4A07241461EA831F072FACD
:100E10004F482CF0C6FD18B1A0211EA801F060FEBD
:100E2000002213461EA931F9020B0132082A03449D
:100E3000F9D148480268511C01606420B2FBF0F40B
:100E400000FB142232B944482CF0ABFD0246434863
:100E50002DF055FE42482CF0A4FDC0B140482CF0C6
:100E6000A0FDD0B12C23009300230DF1160906AC90
:100E70004FF4A0711A46CDF8089001941EA804F012
:100E8000BDFC014698B137482DF039FEA9E732483C
:100E90002CF087FD0028E1D1A3E72F482CF081FD3D
:100EA0000028DFD0FFF752FB0028DBD199E7B9F823
:100EB00000108D4203D02A462B482DF020FE2146FB
:100EC0002A4613A831F016FA28482CF06AFD10F0D3
:100ED000FF0407D005F1080011AB22460021184499
:100EE00031F02FFA224B2C441868ADF84440002210
:100EF000002311A910F08EFC68B10A221D4B19685D
:100F000001311960B1FBF2F302FB1313012B02D183
:100F100019482DF0F4FD194A1468611C1160C822AB
:100F2000B4FBF2F002FB1044002C7FF45AAFDFF860
:100F300044901348D9F800202DF0E1FDC9F8004095
:100F40004FE700BF28020020E0060020E42F002029
:100F500014340020242F00201834002075A603002C
:100F60001C3400209FA60300C6A60300D82F002033
:100F7000E82F0020202F0020FBA603001C2F0020BC
:100F800021A70300BA6000202DE9F04F8FB00028A0
:100F900000F0F3800378162B40F0EF804278052AAA
:100FA00040F2EB8041680BA82EF022FE0BA82EF039
:100FB00070FE41F65103984240F0DF80BDF83030BA
:100FC000032B0FD80122714BD3E8EF1F002903D167
:100FD000C3E8E02F0028F7D100F0D18000200FB047
:100FE000BDE8F08F0BA82EF05CFE04460BA82EF097
:100FF00048FE05460028E5D00246214664482DF00B
:101000007EFD4FF00008BDF83030072BDAD90BA871
:101010002EF037FE07460028D4D00BA82EF031FE64
:1010200007900BA82EF035FE08900BA82EF031FE8D
:10103000BDF830300990002BC4D00BA82EF021FE53
:10104000BDF8303004468342BCD301460BA8DDF81E
:101050002CB02EF00EFEBDF83030002BB2D00BA815
:101060002EF00FFEBDF8303006468342AAD301466B
:101070000BA82EF0FEFD00239C4256D84FF0000A2C
:10108000D146BDF8301001299CD90BA82EF0F9FDEE
:1010900083460BA82EF0F5FD0146BDF830008842CE
:1010A00090D30BF1FF3B0BA82EF0E3FD5FFA8BF121
:1010B0001F2998BF01230AF1010A98BF03FA0BFB0D
:1010C0005FFA8AF198BF49EA0B098F42D9D8079B8A
:1010D000FF2B4ED14DF6AD63089A9A424BD14BF699
:1010E000EF602C4B2C49099A824208BF0B46099AA3
:1010F00008F101080192089A41460092CDE904796D
:10110000CDE90246079A25482DF0F9FC5FFA88F3ED
:101110009D423FF678AFBDF83030002B7FF452AFE0
:1011200001211F482CF044FC58E71BF80320591CF0
:10113000002AA3D050188442A0D31BF80110013A12
:10114000042903F10203D2B211D1022A0FD13BF8D4
:1011500003104B1E2B2B91D812482CF029FC124B5C
:10116000188800288AD01149FFF7DEFA86E7134471
:1011700082E70F4BBBE7074BB9E701202FE76FF082
:1011800015010C482DF0BBFC28E700BFC42F002040
:1011900065A7030052A703003BA7030097A703001E
:1011A000C82F002020020020B66000206DA403009C
:1011B000D2E7030014A80300FF22044B04481A706E
:1011C0000022044B1A602DF09ABC00BF2E050020AF
:1011D0002BA80300DC2F00202DE9F04FAB4899B07D
:1011E0002DF08DFCAA482DF08AFC0221A9482DF093
:1011F00086FC00F0C9FD054680B10146A6482DF0E9
:101200007EFCA64800F05EFC044650B10146A448AE
:101210002DF075FC204619B0BDE8F08F00F0DCFD24
:10122000EFE703211E2208469C4B01F00BFC014610
:1012300010B19C482DF063FC2CF009FC00F07EFE00
:1012400000229949994830F05BFF9949994830F05C
:1012500062FD0022984B9949994C9A480532192A07
:10126000C3E9014041F8043B03F11403F6D1964968
:10127000964801F023F8044610B101469448C7E7A8
:1012800001F054F8044610B101469248C0E701F05D
:10129000F9FA01F03DFB904E904B21461860B28E5A
:1012A000204604F045FB044610B101468C48AFE7E8
:1012B00001278C4B0097019310214FF4FA434FF410
:1012C0007A50B28E04F058FB044610B101468648AD
:1012D0009EE73B4610214FF47A50B28E04F0D6FBC5
:1012E000044610B10146814892E74FF000084FF0E4
:1012F00000094FF4C052CDE90370CDE90100009020
:10130000CDE906897A4B7B497B4810F05DFF7B492C
:10131000794810F0E3FE02274FF48052CDE90689A8
:10132000CDE90247CDE90044754B764904947648EF
:1013300010F04AFF7549744810F0D0FE4FF48062F7
:10134000CDE90689CDE90374CDE90144704B7149BB
:101350000094714810F038FF70496F4810F0BEFEDD
:10136000204606F003FF044610B101466C484FE7E3
:101370006C4808F047F86C4808F086F908946B4808
:101380002CF012FB6A482CF00FFB6A482CF00CFB87
:1013900069482CF009FB69482CF006FB68482CF0E2
:1013A00003FB002167482CF003FB67482CF000FB8F
:1013B000282166482CF0FCFA002165482CF0F8FA48
:1013C00064482CF0F5FA64482CF0F2FA634B089A62
:1013D0001A80634B1A7015B9284600F0FDFC61486D
:1013E0002DF08DFB604A0CAB1068516803C3906808
:1013F000002118600CA807F099FF044610B10146BF
:101400005A4805E75A4B18705A482DF078FB4FF0B0
:10141000FF324FF0FF3345482CF0C8FA044610B1B4
:1014200001465548F4E655482DF069FB07F0CEFF1C
:10143000044610B101465248EAE6524B119418682E
:101440009A889B790F908DF842304F4B4F481B780C
:10145000ADF840208DF843304D4BADF848401F6843
:1014600006235F4342F21073B7FBF3F3ADF84A3043
:101470002DF045FB0BA90FA808F030F80446002812
:1014800000F08A8001464348C2E600BF59A8030025
:1014900073A803008FA80300BBA80300A0070020C7
:1014A000D0A80300E9A8030015050000800C002067
:1014B000410D0000A82F0020442F0020302F0020D5
:1014C000E001002018020020AD04000060020020AE
:1014D000FEA8030015A9030028020020E82F002021
:1014E0002DA90300B86000204BA903006DA90300DB
:1014F000410B0000507C0020880B00208FA90300C6
:10150000D10D0000506C0020900A00209BA9030020
:10151000F50800005068002098090020A7A90300E2
:10152000AEA90300D4010020B8010020400700202C
:1015300070070020880700205807002010070020AF
:1015400028070020C82F0020C42F002020020020E0
:10155000D82F0020D42F0020D02F0020B6600020EC
:101560008A640020CEA90300CC2E0300E1A9030069
:101570008B640020FEA9030023AA03003BAA0300FA
:1015800058AA0300836400208264002074AA030028
:10159000CC2F00209BAA0300A4482DF0B0FAA44948
:1015A0004FF400408C462146E7FB00C10023A14ACE
:1015B0006046FEF7CFFD074602460B469E480C46A6
:1015C0002CF0F4F930B19D482DF099FA0B9807F002
:1015D0003DFFD4E69A482DF092FA3A4623469948C0
:1015E0002CF0E4F9014640B197482DF088FA974B6A
:1015F0001B78002B7FF4C3AEE8E7954B1A682823CD
:10160000726392B2338604F093F9014630B3914885
:101610002DF075FA90482DF072FA002200238F48C1
:101620002CF0C4F9B0B18E482DF069FA85482CF041
:10163000BBF94FF42032002382482CF0B7F940B3B5
:1016400088482DF05CFA4FF0FF324FF0FF338348AB
:101650002CF0ACF984482DF052FA90E60124834B2B
:101660000094019310214FF4FA434FF47A50B28E54
:1016700004F082F9014608B17D48C9E710212346EC
:101680004FF47A50B28E04F001FA014608B179485D
:10169000BEE7FEF7F5FE70B977482DF030FA4FF44B
:1016A00080300021FFF7EEF9FEF7EAFE18B9734823
:1016B0002DF025FAAEE70122714F724C397872484D
:1016C0008A40013AA26021712DF019FA00216F4879
:1016D0002CF06EF921466E4A0B9809F067F9044622
:1016E000002800F09A8001466A482DF008FA14F1AB
:1016F000780F7FF48FAD4FF480300021FFF7C2F9EF
:1017000088E7484609912DF0FAF94FF4A02200230A
:1017100050462CF04BF908F10108002862D15846D8
:1017200009992DF0ECF93B785FFA88F18B42E8D803
:1017300056482CF036F9984255DB57482DF0DFF922
:10174000002156482CF034F90C46DFF838A19AF8FD
:1017500004205FFA84FB5A4500F2C680002401F0A1
:10176000C9F84F4B21464F481C802CF021F94E48B8
:1017700030F04CF94D4B186830F048F94C4B21468D
:101780001C804C4B4FF480624B481C8030F0D9FDDC
:1017900000F078FD494C0022002320462CF006F989
:1017A0000028F8D001213D482CF002F915B908466F
:1017B00000F012FB4FF00008DFF81491DFF814A1DD
:1017C000DFF814B13B785FFA88F18B4200F2C580F4
:1017D0003B482DF094F9002D7FF41CAF284600F013
:1017E000FBFA17E7044629482CF0DBF821460246AD
:1017F0003B7834482DF083F9254B186808F042FFF8
:1018000000F11602162A044604D82F4B1341DB07B9
:101810007FF571AF21462D48FAE48046DFF8BC9091
:10182000DFF8BCA0DFF8BCB07DE700BFC1AA0300B1
:101830003F420F0040420F0070070020DFAA030064
:10184000F6AA0300580700200FAB03008A640020AB
:101850002402002021AB0300E5AD0300880700202F
:1018600009AE030027AE03005BAE0300B8600020A2
:1018700047AB030071AB03009BAB0300C8AB030095
:1018800030050020F40100200AAC0300C02F002026
:10189000B82F00203AAC0300C0AC0300E42F0020B6
:1018A000B4600020BC2F002038060020E82F002064
:1018B000FC610020FA610020EC2F0020E0060020EF
:1018C000D5AD030095AC0300FEFFBDFF54A6030099
:1018D00079AD030028070020BDAD030056AC03001E
:1018E0001007002077AC0300274B14220021BBFA1D
:1018F0008BF913A853F82B8030F023FD03225946AF
:1019000022484FEA59198DF84D202DF0F8F813AA06
:101910004946404608F062F910F10D0F024611D118
:1019200059461B482DF0EBF80121404608F08AFA91
:101930000021404608F086FA13AA4946404608F0BE
:101940004DF90246594601341AB112482DF0D7F824
:1019500052E711482DF0D3F8F9E6484609912DF0E9
:10196000CEF84FF0FF324FF0FF3350462CF01EF808
:1019700008F101080446099910B10146074847E4F7
:1019800058462DF0BCF81DE7302F0020D7AC0300DF
:10199000F5AC030032AD030061AD03009FAD030061
:1019A000014810F0E9BA00BFF833002001460348AF
:1019B0008368DB690BB10122184770478028030058
:1019C00010B5154BD3E8AF4F24BB14482CF016F8D4
:1019D0000028134B11DD0122D3E8EF1FC3E8E02FED
:1019E0000028F9D100F086FF0E482DF088F80E4B44
:1019F0001868BDE8104010F0CBB8D3E8EF2FC3E86B
:101A0000E14F0029F9D1FFF7D7FBBDE810400748A7
:101A10002DF075B810BD00BF1C34002098310300B4
:101A20001834002070AE0300203400207FAE030085
:101A300010B50446164BD3E8AF3F3BBB154B98B1EE
:101A40000124D3E8EF2FC3E8E14F0029F9D1214663
:101A500011482BF0E8FF114821462BF0E4FF104815
:101A6000BDE810402DF04BB8D3E8EF2FC3E8E14FAD
:101A70000029F9D1214608482BF0D5FF0748214617
:101A80002BF0D1FF01F04CF80648E9E710BD00BF8C
:101A90001C34002014340020A8310300A0310300BE
:101AA0008FAE0300A6AE030008B505482BF0A6FFD5
:101AB000BDE808400028D4BF00200120FFF7B8BFD0
:101AC000B031030038B54D4B18604D4D28462FF00E
:101AD000D2FE30B94B482DF012F86FF012042046B8
:101AE00038BD4FF4803148482BF069FF044620B1DF
:101AF000014646482DF003F8F1E7AB689C695CB1FC
:101B00004FF0C0634FF0A0720A212846A047044658
:101B100028B121463E48EDE76FF05704F9E73D480C
:101B20003D4B43604FF480638360FFF73FFF3B48CA
:101B30002CF0E5FF3A482CF0E2FF3A493A4830F001
:101B4000EAF828462FF097FE08B93848C3E7384826
:101B50002FF091FE0028F8D035482FF08CFE002899
:101B6000F3D04FF4803133482BF029FF044610B1F5
:101B700001463148BEE74FF4B01130482BF01FFF4B
:101B800004460028ABD14FF4B0112D482BF017FFBD
:101B900004460028A3D1AB689C695CB14FF0C063D8
:101BA0004FF0A0720C211648A047044628B12146E8
:101BB00024489FE76FF05704F9E72348234B43601D
:101BC0004FF480538360FFF7F1FE1A482BF016FFA5
:101BD0000028D4BF00200120FFF72AFF1C482CF06A
:101BE0008EFF1C482CF08BFF00F07AF8044600288A
:101BF0007FF475AF18482CF082FF70E72034002086
:101C000080280300BEAE030098310300D9AE030064
:101C1000FAAE0300EC330020C11900001EAF030030
:101C200049AF0300A91A0000F83300206BAF03008E
:101C30005C280300B031030087AF0300A831030024
:101C4000A0310300AFAF030008340020A119000049
:101C5000DBAF030001B0030028B003000022064BF5
:101C6000D3E8EF0FC3E8E12F0029F9D110B140B25A
:101C70002BF02BBF704700BF2834002013B504465B
:101C800083684021DB689847002810DBA3686A4618
:101C9000242120461B699847002808DB0D49009A3B
:101CA0000B681A44032392FBF3F313B90A6002B0E2
:101CB00010BDA3EB830002440A60074AD2E8EF0F8D
:101CC000C01AC2E8E10F0029F8D1044810F054F915
:101CD000EDE700BF24340020283400202C340020FD
:101CE00013B5164B18680190154C20462FF0C3FD14
:101CF00038B914482CF003FF6FF01204204602B0EC
:101D000010BD1149114830F006F8A3689B6853B123
:101D100020460F4A01A99847044638B121460D488C
:101D20002CF0EDFEEAE76FF05704F7E701220321FC
:101D3000094B0A482CF0E3FEE0E700BFD82E030071
:101D4000C429030053B003005D1C00002C340020A4
:101D50007D1C00006DB003008EB003009AB003003C
:101D6000084B1A691268D20548BF80F0010028B1FB
:101D70009B68DB684FF48071024818479B681B69B9
:101D8000F8E700BF5C28030038B5104D2B78BBB9CD
:101D90000F4C20462FF06FFDA8B12269A16813688F
:101DA000204643F4807313600B680A4A0821984761
:101DB000034630B9FFF7D4FF034610B901232B7057
:101DC0000023184638BD6FF01203FAE78C64002038
:101DD0005C28030001000A0010B5074B04461B787D
:101DE00023B12046BDE81040FFF7BABFFFF7CCFF94
:101DF0000028F6D010BD00BF8C640020F0B589B07B
:101E00001422002103A830F09CFA02230693012338
:101E100004930C23364E8DF81C300596354803A9E3
:101E200085686B689847044600284FD1B6F90030A2
:101E30002A8902A9534302930AF0ECFB04460028C6
:101E400044D140F6E323029E2B48361326EAE67679
:101E50005E432BF01DFE4FF4FA6705462748B6FB9C
:101E6000F7F72BF015FE1DB901282CD1244D06E003
:101E7000012D244D03D1244B002808BF1D46092203
:101E8000A7F6E44393FBF2F3204A964203DB642B6C
:101E9000A8BF64231C464FF47A72B7FBF2F12346C5
:101EA00002FB11721A4800952CF029FE28461449AD
:101EB000FEF76AF9174B1A69126852060DD470B111
:101EC0009B681B690DE00F4D134BD5E72146134866
:101ED00009B0BDE8F0402CF012BE0028F0D09B689D
:101EE000DB6840210B4809B0BDE8F040184700BF4F
:101EF000FE61002058290300C8310300C0310300EF
:101F0000DAB00300D2B00300CDB0030090FB640050
:101F100003B103005C280300E3B00300E9B0030051
:101F200010B5FFF76BFFBDE810404FF420320023DF
:101F3000014810F0CDB800BFB80C002010B5244CFB
:101F400020462FF098FC30B922482CF0D8FD6FF0D5
:101F50001204204610BD20482FF08DFC08B91F4800
:101F6000F3E71D482FF087FC0028F8D0A36820462F
:101F70001B681B499847044620B1014619482CF0BC
:101F8000BEFDE6E74FF4803117482BF062FD0446B2
:101F90000028DED14FF4803114482BF05AFD04465E
:101FA0000028D6D112482FF066FC20B14FF4B011B2
:101FB00010482BF04EFD104910482FF0FAFEFFF7A5
:101FC0001DFF4FF4203200230C4810F081F8C0E7C9
:101FD000582903002DB103008028030043B10300FA
:101FE000D631030060B10300C8310300C0310300E3
:101FF0005C280300B8310300211F0000B80C00204A
:102000002DE9F047DFF86482064698F80030002B8F
:1020100054D0002852D00027B946844C844D2378F0
:10202000021F05EB43153C3052F8041F0BB2002B86
:10203000B8BF5B429BB209149945B8BF99460029C5
:10204000B8BF494289B28F42B8BF0F469042EBD128
:10205000DFF81CA2DAF80030002B0FDAB9F1400FDC
:1020600001DC402F0ADDB945ACBF002101213B4610
:102070004A467048CAF800102CF041FDDAF800001A
:10208000002803DAB945ACBF00200120002156F832
:10209000213002281AB24FEA23436DD11A4402EBD1
:1020A000D27242F34F0325F8113001311029EED1DD
:1020B00023780133DBB2092B62D823705E4A5F4F6D
:1020C00013785F49DFF8AC91002B18BF0F4683F0FF
:1020D00001031370D9F80030002B00F08A809A6851
:1020E00014885A68A4B2B2F800A09A891FFA8AFA32
:1020F000544B544519784CD8AAEB0405ADB20029CD
:102100004DD0544575D0DFF85CA1DAF8001049B124
:10211000D9F800302A469B894B482CF0F0FC00236C
:10212000CAF80030BC46D9F800504FEA841E2B682C
:1021300003EB841303F140096246186859680833B9
:1021400003C24B459446F7D12868402200217044D1
:1021500030F0F7F8AB890134B4FBF3F103FB114421
:10216000AA68A4B2394B1480D3E8EF1F0131C3E849
:10217000E21F002A1AD0F7E7002808BF134692E7AB
:1021800000232370324B1B68002B97D028489847B8
:1021900094E70AEB02052D1BADB20029B3D1092D3E
:1021A00020D840220021384630F0CBF898F8003093
:1021B0003946002B14BF3046002000F0B3F9014629
:1021C00088B3244B1A680132052A1A6005D93220D7
:1021D000B2FBF0F300FB13232BBBBDE8F0471E4816
:1021E0002CF08DBC01211D48197029462CF087FC6C
:1021F00087E740220021384630F0A3F8184BD3E897
:10220000EF1F0131C3E8E21F002AF8D1154B164831
:102210001A6801321A60D0E8AF2F19689142C5D907
:102220002BF04BFCC2E7BDE8F08700BF8F640020B5
:102230000062002085B103008D64002090340020EE
:10224000503400208E640020DFB1030048340020A9
:10225000543500203C3400200FB20300BBB1030012
:102260004C3400204434002040340020906400208E
:102270007002002050350020002101482BF01DBCC9
:102280004C340020002108B5074B08481970084B52
:1022900019602BF012FC07482BF00FFCBDE808403A
:1022A00005482BF00ABC00BF8E6400204C3400208F
:1022B00044340020483400204034002037B5024622
:1022C0006C460B46134903C984E803001046F2B17B
:1022D000EBB1114D2A7812B1002003B030BD0F4A86
:1022E00010600F4A2046136001F01AF90028F4D15B
:1022F0009DF800200B4B1A70019B5A1C042A28BF22
:102300004FF0FF33084A136001232B70E4E76FF0AE
:102310001500E2E7702E0300926400205035002083
:1023200054350020906400207002002070B52C4BC2
:102330001B78002B50D02B4E3378002B4AD12A48E3
:1023400000F07AF800F07EF8044628B101462748EC
:102350002CF0D5FB204670BD014640222448254D77
:102360002FF0EFFF2146402223482FF0EAFFFFF72E
:1023700089FF2B782148002B08BF00201C4900F062
:10238000ABF8044610B101461D48E1E72B781D4823
:10239000002B08BF0020184900F0C4F8044610B113
:1023A00001461948D4E701F0FDF8044630B1014672
:1023B00016482CF0A4FB00F0D7F8CBE7144B297893
:1023C000144A154800290CBF114619462CF097FBFA
:1023D000012333700024BDE74FF0FF34BAE700BF9C
:1023E0009264002091640020012000004AB20300A2
:1023F00090340020906400205034002010350020DC
:1024000065B20300D034002081B20300A4B20300FF
:1024100044B2030047B20300D3B20300012908D13C
:1024200038B1044A126822B1D0E9000100B901B103
:102430001047704758350020014B1860704700BFA7
:102440005835002037B51D4D2B78002B34D14FF077
:10245000502449F6A633C4F85C350123A361D4F8AF
:10246000203153B10021164801AA2EF03DF8002872
:1024700008DA6FF0040003B030BD002121202FF0F6
:102480006BFDECE7019B0F4A197918680BF0F0FB24
:1024900002460028EDD10121282003F087FF2820E3
:1024A00003F054FF084A094909480CF02FFF094B73
:1024B0009842DED101232B700020DCE793640020DA
:1024C000E4310300008002501D240000740200204B
:1024D0009C0200200000AD0B1FB50F4C2378012B90
:1024E00013D100B989B11023CDE9010100220B48B5
:1024F00001A9ADF80C300CF0DBFF094B984207D175
:1025000002230020237004B010BD6FF01500FAE71D
:102510006FF00400F7E700BF936400209C020020E6
:102520000000AD0B1FB50D4B1B78022B13D100B96A
:1025300089B11023CDE90101094801A9ADF80C309A
:102540000DF02AF8074B984214BF6FF004000020EA
:1025500005B05DF804FB6FF01500F9E79364002007
:102560009C0200200000AD0B10B5054C2378022B17
:1025700004D104480DF052F80123237010BD00BFB0
:10258000936400209C020020034648F6D8708342E2
:1025900006DD4AF273729342CCBF4AF2747098B26D
:1025A000044B1A8882421EBF18804FF05023C3F894
:1025B0005C0570472C050020F8B507460446002549
:1025C00007F8141B19482BF082FA022965610E46A0
:1025D0007D60E561258415D003291ED0012E294692
:1025E000134805D02BF073FAC4E902552582F8BDD3
:1025F0002BF06DFAC4E9025525820E48BDE8F8407B
:102600002CF07DBA29460A482BF061FA61680A4825
:102610002582BDE8F8402CF072BA012104482BF065
:1026200056FA064B064819882582F2E75C350020E9
:102630006035002005B3030014B303002C0500200F
:1026400032B303002DE9F0418AB02422002101A811
:102650002FF077FE49F6A6324FF050230292D3F8BE
:102660005C357F4E9BB2002B08BF13467D4FDFF8D1
:1026700010827D4D33804FF0FF324FF0FF333846EC
:102680000FF0C0FA002140462BF021FA044648B171
:1026900049F6A633284602932BF019FA01A8FFF752
:1026A0008BFFE8E7D5E8EF3F012B03D1C5E8E24F08
:1026B000002AF7D1DFD16D4BD3E8AF2F9DF825006D
:1026C0009DF824100328089B1FD80DF1280C0CEB53
:1026D000410C134401302CF8102C08938DF8250080
:1026E000013101F003018DF824109DF82510089B9D
:1026F000012938BF0121B3FBF1F39DF80410032930
:10270000B9D8DFE801F00E103C760AA800EB4100D2
:1027100030F810CC20F8102CA3EB0C0313440893D2
:10272000DEE70121BAE7039B1A44049B03920133BD
:10273000092B04939FD992FBF3F30A22C3F10203FE
:1027400053435B1083EAE372A2EBE372082AC8BF2B
:102750001C4640F24B12464B49F6A630634393FBAE
:10276000F2F3182BA8BF18236FF017029342ACBFE7
:10277000C01880180290FFF707FF02218EE70A2297
:10278000C3F1020353435B1083EAE372A2EBE372EB
:10279000082AC8BF1C4640F24B12354B6FF0170099
:1027A000634393FBF2F3182BA8BF1823029A214628
:1027B0008342ACBFD0181018FFF7E6FE32882D48D0
:1027C0002CF09DF984EAE473A3EBE4730F2B01DC96
:1027D000032163E79DF815300133DBB2092B8DF837
:1027E00015307FF648AF214623482CF088F90021A8
:1027F00054E70A22C3F1020353435B1083EAE372F6
:10280000A2EBE372082AC8BF1C4640F24B12184BD9
:102810006FF01700634393FBF2F3182BA8BF182344
:10282000029A8342ACBFD0181018FFF7ADFE84EABD
:10283000E473A3EBE473202B0DDD9DF8143001331A
:10284000DBB2022B8DF814307FF615AF21460B4812
:102850002CF055F991E700238DF814300BE700BFF9
:102860002C050020980600206835002064350020E3
:1028700018FCFFFF4EB3030071B30300A0B30300C5
:10288000A402002010B588B000220023CDE9062361
:1028900000230122094CCDE90323CDE90133009344
:1028A0004FF480622046064B06490FF08DFC20460F
:1028B000054908B0BDE810400FF010BCE80C00203E
:1028C0004526000050940020CBB3030010B5074C00
:1028D000014620462BF0FBF80121201D2BF0F7F8D4
:1028E000BDE8104002480FF053B900BF6435002026
:1028F0009806002008B5012103482BF0E8F8BDE850
:10290000084002480FF044B9A402002098060020B5
:10291000004870476806002008B50023094A137074
:10292000094A1360094A1360094AD2E8EF1FC2E856
:10293000E03F0028F9D1FEF73FFCBDE8084005481C
:102940002CF0DDB895640020703500206C35002037
:1029500018340020D4B3030038B50A4600EB410513
:1029600004460021A5420DD1B1F5967F2C4C13DA17
:102970002378012B3CD0022B46D0002B3DD1294B94
:10298000002239E034F9023B002BB8BF5B421BB296
:102990009942B8BF1946E5E70146234800F0DAF846
:1029A0002378012B22D0022B28D033BB0028E6DD70
:1029B0001C491E480A680068013282420A601CDB1A
:1029C00001220B601A4B2270D3E8EF1FC3E8E02FFF
:1029D0000028F9D1FFF78EFF164B186808B10FF0E9
:1029E000D7F8BDE8384014482CF089B8002804DC3A
:1029F000022301222370114B1A6038BD002803DD29
:102A0000012323700D4BBBE70C4A1368013313609D
:102A10000B4A12689342F0DBBDE83840FFF77CBFF9
:102A20009564002070350020803500207835002026
:102A3000183400207C350020E3B303006C350020FF
:102A4000743500202DE9F3411C4C054620460E4606
:102A50001746984600F030F968BBC4F8F0022946E2
:102A600020462BF03CF828B16FF01504204602B048
:102A7000BDE8F08120464FF47A512BF03AF8044635
:102A80000028F1D10E4B32461E600E4B29461F60C6
:102A90000D4BC3F800800D4B18700D4B18600D4B9B
:102AA00018600D4B18704FF496730C4800933B461A
:102AB0002CF025F8DAE76FF00404D7E78035002022
:102AC00078350020743500207C3500209564002086
:102AD000703500206C35002094640020F3B30300AF
:102AE0009F29034670B512D80B4C0C4D26784A002E
:102AF00001FB06F0194605EB40002FF0FBFB16B971
:102B00000123237070BD0023A02128462370BDE857
:102B10007040FFF721BF00BF946400204063002095
:102B200010B5084C2378013B012B01D8FFF7F4FEC8
:102B30000023054A23701360044A1360044A13708B
:102B400010BD00BF95640020703500206C3500205A
:102B50009464002038B508B92DF003F80A24D0F8A1
:102B6000F0520D4B53F825305C43A24207D0142499
:102B70005C43A24203D01E2463439A4209D1074B0F
:102B800053F8253098470028E6DB14BF01200020C9
:102B900038BD4FF0FF30FBE7383203002832030026
:102BA000032966D8DFE801F00220374E324B1A685D
:102BB0009B88C0F8C422A0F8C832304B1A689B88A2
:102BC000C0F8CA22A0F8CE322D4B1A689B88C0F8F4
:102BD000D022A0F8D4322B4B1A689B88C0F8D6229A
:102BE000A0F8DA3200207047274B1A689B88C0F89B
:102BF000C422A0F8C832254B1A689B88C0F8CA22A4
:102C0000A0F8CE32224B1A689B88C0F8D022A0F8D8
:102C1000D432204BE0E7204B1A689B88C0F8C422CE
:102C2000A0F8C8321D4B1A689B88C0F8CA22A0F8C9
:102C3000CE321B4B1A689B88C0F8D022A0F8D43241
:102C4000184BC9E7184B1A689B88C0F8C422A0F833
:102C5000C832164B1A689B88C0F8CA22A0F8CE3238
:102C6000134B1A689B88C0F8D022A0F8D432114BBD
:102C7000B2E74FF0FF307047726403006C640300EA
:102C800066640300606403005A6403005464030034
:102C90004E64030048640300426403003C64030084
:102CA00036640300306403002A64030024640300D4
:102CB0001E6403001864030010B5044610B94FF0F9
:102CC000FF3010BD012300210360C0E9451110222F
:102CD00004302FF036FB04F114002BF09EFA2D4B3C
:102CE00004F1B40203F1180153F8040B8B4242F8CB
:102CF000040BF9D1284B04F1CC0203F1180153F86D
:102D0000040B8B4242F8040BF9D1244B04F1E4028A
:102D100003F1180153F8040B8B4242F8040BF9D16C
:102D20001F4B04F1FC0203F1180153F8040B8B4212
:102D300042F8040BF9D142F2107104F5ED7304F27C
:102D40009A2223F8021F9342FBD10021C02204F5EE
:102D50008E702FF0F6FA0021124B2046C4E9A733FB
:102D6000C4F8A812C4F8AC12A4F8B012C4F8B21295
:102D7000C4F8B612A4F8BA12C4F8BC12C4F8C0124F
:102D8000C4F8A432FFF70CFF002898D12A23C4F816
:102D9000EC3296E7C0640300A8640300906403006B
:102DA00078640300400640062DE9F04F00F53777C0
:102DB000A9B03B46164604462AF09DFF1822002182
:102DC000A4F8E80205461CA82FF0BBFA182200213F
:102DD00022A82FF0B6FA502E22D1B4F9C4320893AB
:102DE000B4F9CA320193B4F9D0320693B4F9D632A9
:102DF0000A2D07932EDD4FF0000B22AB0493AE4B50
:102E00000DF170080993CDF814B0CDF808B0002585
:102E1000029B2E46A7F5377A4FEA4309039529E02E
:102E2000A02E0BD1B4F9C6320893B4F9CC32019379
:102E3000B4F9D2320693B4F9D832D9E7B4F9C8322A
:102E40000893B4F9CE320193B4F9D4320693B4F9AD
:102E5000DA32CDE7B4F91831002B00F31A820026DC
:102E60000023A4F81A313046266029B0BDE8F08F5F
:102E70000123039310ABBAF9E420BAF9B4104B4420
:102E8000B7F900002AF0F7FF8C4B0CAA33F9093090
:102E9000BAF9CC105843039B064442F8230016AB02
:102EA000BAF9FC204B44B7F900002AF0E4FF844B48
:102EB000039A33F909300AF10C0A58430EAB43F870
:102EC0002200054409F10C09002AD1D0002E40F05F
:102ED000DA80002D00F0E58085EAE573B3FA83F32C
:102EE0001F22013B1BB20999D21A31F9023B099109
:102EF000059902FB03130593069B46F30F31B3EBD1
:102F0000820FB8BF4FF0010B002940F3CD800C9821
:102F10006C4B03EA80002BF002F9A8F80000C0F522
:102F20008040A8F80C0045F30F3100290ADD654BFD
:102F30000E9803EA80002BF0F2F8049B1880C0F58D
:102F400080409881029B08F1020801330293049BA0
:102F5000023702330493029B062B7FF458AF059B84
:102F6000079A4FF000089342B4BF5E464BF001064B
:102F7000554B36B20A93554B04F1B4050993544BA3
:102F800007934FF448534246B5F92812204604935C
:102F90002AF0D9FF4FEA48030693484B074603EB54
:102FA00048031A460021284602932AF0C1FD9A22BE
:102FB0004FF4207A8011C0EB071010FB02F0C0F331
:102FC0004F230593434BC8EB48270393049BFF0112
:102FD000534407F510571BB2DDF81890A5F1B40B58
:102FE000BFB20B93BBF9FC30BBF9B400BBF9CCC04A
:102FF000BBF9E4100493002E6ED0059B41F69A1E97
:10300000184400B25045B8BF50463BB29842A8BFE2
:10301000184622AB39F9031016ABABF8B40039F9F6
:103020000300039A01FB00F3DB1213FB0EF35B15A5
:103030000133B2F900E00CEB63031BB27345B8BF78
:1030400073460B9A0CF1040C9342A8BF1346ABF8DD
:10305000CC30B5F82832BDF81020A3EBEC0313FBFD
:1030600000F3DB108810A3F58053584302EB820174
:1030700000114900002809B263DC404204922BF0A1
:103080004EF8404260E086EAE672B2FA82F2013A15
:1030900012B23DB185EAE573B3FA83F3013B1BB28B
:1030A00021E71F221F231EE74FF48043A8F80030BA
:1030B00039E74FF4407A95E730650300F064030088
:1030C000D864030000C0FFFF086503001865030013
:1030D000246503001465030040F28F2E1CAB33F906
:1030E0000930059A049310AB39F903C0049B03FB24
:1030F0000CF3DB1213FB0EF300EBA35313441BB2D0
:103100005345B8BF53460FFA87FE7345A8BF7346B1
:10311000ABF8B430B5F82832A3EBE00313FB0CF3A3
:103120000498DB1002308010A3F5805358438013BD
:10313000002800F39C80404204912AF0F0FF4042B6
:1031400098E004922AF0EBFF00B2049A803040F33A
:103150000720024412B2B2F5C07FB8BF4FF4C0726C
:10316000ABF8FC20039B80370233BAF5407F0BF1AC
:103170000C0BBFB2039309F10C099AD10021029AFA
:1031800028462AF0D5FC069B454A05F1180A134447
:103190001A460746002150469B462AF0C9FC079B69
:1031A000C0F34F22814633F9020BC7F34F21079337
:1031B000531A1BB2834215DA0144891A09B201EB92
:1031C000410701EB87015A4641F38F0150462AF02F
:1031D000AFFCB91049428146029A284609B22AF04A
:1031E000A7FC0746099A32F9023B09924FEAE91215
:1031F00049F3CF194B4508DA298B9A1A11FA82F153
:103200002983A98C11FA82F2AA840A98F91130F95B
:10321000022B47F3CF1797420A9008DD521A2988EC
:1032200011FA82F12980A98911FA82F2AA8108F1A2
:103230000108B8F1060F05F102057FF4A4AED4F839
:1032400014310133C4F81431002E3FF403AEB4F846
:103250001A3101331BB2062BDBBFA4F81A31089BCD
:10326000A4F81A810193019BA4F81831FBE504919D
:103270002AF055FF00B20499203040F38910084429
:1032800000B2B0F5C07FB8BF4FF4C070ABF8E40037
:1032900068E79BB29E1C013B36B2A4F81831DFE50B
:1032A000D86403002DE9F04743F6D72C002540F6FB
:1032B000EA3642F2984A49108D4215DB064600274D
:1032C00040F2353C41F2DE7E43F25E088F4234DB51
:1032D000002547F6FF7C3A4E02F1020E8D4200F1C6
:1032E000100053DBBDE8F08750F83580D3F804E0D8
:1032F0001F68A8EB0E0404F50054A41306FB047425
:10330000C3F80080D3F808805C60A4EB08095FEA8A
:10331000A93948BF09F101090AFB09EEDC68AEEBE7
:103320000404A41348BF01340CFB0484C3E902E481
:10333000641040F835400135BEE7D6F804A0D3F854
:1033400014900137AAEB090404F50054A5131C6975
:10335000C3F810A00CFB05449D695C61A4EB050A51
:103360005FEAAA3A48BF0AF1010A0EFB0A99DC6932
:103370000836A9EB0404A41348BF013408FB045524
:10338000C3E906956D1046F8045C9FE750E90234E6
:10339000234450E904473C44E413B442B8BF3446E4
:1033A000DB136445A8BF6446B342B8BF33466345E8
:1033B000A8BF634622F815402EF8153002358DE778
:1033C0000080FFFF2DE9F74F8946019240F20A384D
:1033D000002240F23F4C45F6F52143F2672440F2CB
:1033E000B916DE27DFF894E0234D09F1040A019BAA
:1033F0009A4202D103B0BDE8F08F03680C3008FB9D
:1034000003FB50F8083C0BF5804B0EFB03BB50F858
:10341000043C0CFB03BB036801FB03BB436804FBD8
:1034200003BB836805FB03BBC36806FB03BB0369DF
:1034300007FB03B349F8323050F8083C07FB03FBA5
:1034400050F8043C0BF5804B06FB03BB036805FBFF
:1034500003BB436804FB03BB836801FB03BBC36876
:103460000CFB03BB03690EFB03BB436908FB03B3FF
:103470004AF832300132BAE739F1FFFFFEF7FFFFB9
:1034800010B588B00DF10703029301230022CDE9A6
:103490000513039307238DF807008DF810208DF88E
:1034A0001C3007489DF81C30826843F002038DF8F9
:1034B0001C3094681823022202A9A04708B010BD4E
:1034C000A02903001FB502238DF800008DF801101C
:1034D000CDF804D002938DF80C3007489DF80C30DD
:1034E000826843F002038DF80C309468182301229F
:1034F00001A9A04704B010BDA029030010B50146E2
:1035000004461020FFF7DEFF30B921461120FFF7F7
:10351000D9FF08B9014B1C7010BD00BF3105002058
:1035200037B5054660B318482EF0A5F938B91748E5
:103530002BF0E5FA6FF01204204603B030BDFF20F7
:103540000DF10701FFF79CFF044620B1014610482A
:103550002BF0D5FAF0E79DF80710422905D00D4869
:103560002BF0CDFA6FF00404E6E701230A4A2B7032
:103570000A4B68601870114609482BF0C0FADBE767
:103580006FF01504D8E700BFA029030036B403008C
:1035900051B4030073B4030098B40300976400208F
:1035A0009DB4030030B55E4D85B0297819B1002473
:1035B000204605B030BD17208DF80F10FFF782FFB1
:1035C000044620B1014657482BF099FAF0E7102144
:1035D0000520FFF777FF044610B101465248F3E794
:1035E00080210620FFF76EFF0446014608B14F48D0
:1035F000EAE70720FFF766FF044610B101464C4892
:10360000E2E7002140F6CD402EF0A6FC20460DF169
:103610000F01FFF735FF10210820FFF753FF044685
:1036200010B101464348CFE710210920FFF74AFFB8
:103630000446014608B14048C6E70A20FFF742FFAA
:103640000446014608B13D48BEE70B20FFF73AFFAC
:10365000044610B101463A48B6E730210C20FFF786
:1036600031FF044610B101463648ADE733210D2045
:10367000FFF728FF044610B101463348A4E72E2186
:103680001220FFF71FFF0446014608B12F489BE7B1
:103690001320FFF717FF0446014608B12C4893E7B3
:1036A0001520FFF70FFF044610B1014629488BE7AC
:1036B00040211420FFF706FF0446014608B12648C2
:1036C00082E71620FFF7FEFE044610B101462348AC
:1036D0007AE7234B1878FFF711FF044610B1014633
:1036E000204871E78F211720FFF7ECFE044610B148
:1036F00001461D4868E71D4B1D49187040233322C1
:10370000CDE900032E231B482BF0F9F99DF80F108B
:103710008B0702D418482BF0F2F901232B7046E7EF
:1037200097640020CBB40300F0B4030012B503008B
:103730003AB5030063B5030089B50300AFB50300D4
:10374000D7B50300FAB503001CB603003EB603006C
:1037500063B6030088B60300ADB60300D1B603001C
:1037600031050020F0B6030010B703009664002076
:1037700098B4030033B7030092B70300F8B50021F3
:10378000064615276FF00042114B124D1B7835F895
:10379000134004EB400424B235F9023B1B1B002B01
:1037A000B8BF5B429342B8BFCFB201F10101B8BFCD
:1037B0001A462829F0D13846FFF7A0FE044620B962
:1037C0003A46314604482BF09AF92046F8BD00BF2E
:1037D000310500203C650300CFB703002DE9F04F11
:1037E00091B0009302F004030293C2F3C2030133C9
:1037F000840705460E46DDF868800392059340F085
:10380000BB81041D30B1072909D86FF01B0011B02E
:10381000BDE8F08F01F007063444C6F10806009BAE
:103820004FF000094FF0040A591E4FF0FF334F4686
:103830000193CB465346CDF810900DB1009820600F
:103840000598002800F3E8809848009A824203D344
:1038500097488242C0F0E080039AA4EB050E9207DD
:103860004FEA9E0000F103810F2F00F2B180002D7E
:1038700000F0058107F140020DEB020C019A0CF8F3
:10388000200C0CF8102C049801300490E7E07A2802
:103890005DD84B280ED8472859D829282DD8252857
:1038A00052D054D820287AD02338D0F1000B4BEBDB
:1038B000000B74E04C382E2849D8DFE800F070483F
:1038C000484848484848484848484B484848484875
:1038D00048484859484B4B595959704B6D487048A6
:1038E000184B184848827F4B48484B487F000020BF
:1038F0004FF0000B4FF0040A38E001222A38C0B222
:1039000002FA00F010EA0E0F49D110F0625C2FD1DC
:1039100010EA020B43D06046013C5444B4FBFAF475
:103920000AFB04F4002D61D0A3EB050CA444B445BC
:103930003FF66BAF002868D1042B47D158F8043B01
:103940002360042304342AE0019A013A01924FF0E3
:10395000000B24E011F8010C6C2834D1002011F880
:10396000023C83466C2BC5D14FF0080A5346D3E77F
:1039700008F1070828F00708073424F00704F8E8DE
:1039800002AB35B106982044B0423FF63EAFC4E9E1
:1039900000AB4FF0000B08344FF0080A534611F803
:1039A000010F002878D0BBF1000F7FF470AF2528FD
:1039B000F5D14FF0010B019B013301934FF0040A45
:1039C000ECE7584694E700208346A5E7082B02D091
:1039D0006FF015001BE708F1070828F00708B8EC9E
:1039E000027B84ED007B08230834D8E768B9042BF8
:1039F00002D108F10408A4E7082BE9D108F107086F
:103A000028F0070808F10808EDE705980138059047
:103A100058F8040B009010E7039A900720D54FF058
:103A2000010CA4EB050E4FEA9E00BEF5007FCFD23D
:103A30000F2FCDD8F5B107F140020DEB020E019A20
:103A4000C0B20EF8200C0EF8102CBCF1000F3FF4A1
:103A50001AAF60F07F000EF8200C09F10109013760
:103A6000C5F108024FF6DA7E0434069297E74FF06C
:103A7000000CDAE7BCF1000F01D00136EFE7029A43
:103A80000236002AEBD10098CDE90631FCF78EFB17
:103A9000DDE906310644E2E7631BB3F5806F97D298
:103AA00045B9A6F10804E018B1E600BF602703009D
:103AB00024F20300029A9B0828602B709DF81030B6
:103AC000C2B1EB7085F80290B9F1000F05D0002269
:103AD00008A8C5F1010C97420ED14FF0000AC5F1BC
:103AE00001030DF1200801930DF1300B574512D160
:103AF000601B8CE66B70E5E710F8013B190608D5F2
:103B00000CEB040EB64503F07F033FF67EAE04F8DF
:103B1000013B0132DFE7B9F1000F03D098F9002033
:103B2000002A17DB029BD3B11AF80B2004F8012BF3
:103B30000022019B18191044B0423FF666AE98F877
:103B40000000009904F8010B204603922EF0D2FBEE
:103B5000039A14440AF1010A08F10108C6E798F82B
:103B6000002055F822300093029B009845F822303F
:103B7000FCF71CFB421CDCE76FF00D0047E600BFC2
:103B80002DE9F04F97B000AFD7F880B03B62CBF390
:103B9000C0030446894690F802A0FA62BB6141B9AD
:103BA000457800780AEB800020444D4517D8A0EBFB
:103BB0000409E378FB61BAF1000F02D01BF0010F9A
:103BC00016D1FB6953BBFB6A1BB1494620463A6AD2
:103BD00098474D4628465C37BD46BDE8F08F461CE9
:103BE0003046FCF7E3FA0130304409F10109DCE723
:103BF000626823787A62FA6A9900796104EB83013A
:103C0000002A40F001810E464FF000084D4601EBBE
:103C10000A094E454CD101EB0A0610E01BF0020FD9
:103C2000D1D023789A007A61626804EB83017A62CA
:103C3000FA6A002A77D14D46904601EB0A061BF03E
:103C4000050F0CBF02230123FB62FB6906EB430A4D
:103C50000BF00203BB625645BCD016F8021B16F8E7
:103C6000013C54F82390994B994502D3984B9945C0
:103C700036D3BB69002B40D0786A2AF017FF0028A2
:103C80003BD0E9468AB06A46924B53617B6AC2E9EF
:103C900006314FF4007313848F4B42F8103F00231A
:103CA0004FF412518D4801F067F9023DCD46D2E73D
:103CB00016F8013BF96254F82300FCF777FAD7F8BD
:103CC0008430F96A01304BB1D7F8883098453EBF4F
:103CD000D7F8843023F8180008F10108054498E764
:103CE000BB6923B1786A2AF0E1FE0028C9D11BF034
:103CF000010F05D1FB6AED1AADE7BB6A002BAAD014
:103D00004846FCF753FAD7F8843053B1D7F88830D7
:103D100098453FBFD7F88420431C22F8183008F19B
:103D20000108054497E7BAF1000F73D01BF00406B1
:103D300073D0D046002607F1480052463B61B96275
:103D40002EF0D8FAB96A3B6901EB0A02BA62FA6945
:103D5000F9695200FA60BA6A02EB41023A610BF06B
:103D60000202BA603A69B96A8A4258D162781BF095
:103D7000020F18BF00217A6208BF4FEA5801B2183B
:103D80001BF0010FD2B240F09F801BF0040F14BF54
:103D900040460020BB616270A070E17020463A6A24
:103DA0007969FB6A9847051EFFF614AFBB69414667
:103DB00023707B6A3A6A6370FB6984F802A0E3703F
:103DC00007F14800FB6A9847B0F10008C0F2BA80DA
:103DD0007B69A9EB0A01C91AFB683A6AC91AD7E9D3
:103DE0000A0398470028C0F2AF804FF0000BA844A8
:103DF00008EB000507F1380AB34571D300213A6A90
:103E00000846FB6A9847E5E656464FF0000807F17A
:103E1000380092E75646D04696E7B04694E7BA6A2D
:103E200012F8021B12F8015CBA6254F82500274A06
:103E3000904202D3264A90421ED3BA6932B1786AC0
:103E40007B602AF033FE7B6800288BD1BA6802BB06
:103E500008F1280207F1300C08F10100944407F141
:103E6000580208F1020852FA80F00CF8101C5FFAB0
:103E700088F800F8105C75E7BA693AB1786A7B6037
:103E80002AF014FE7B6800287FF46CAF1BF0010F52
:103E900009D006F1280207F13000711C161806F847
:103EA000205CCEB25EE71BF0040F3FF45BAF08F17D
:103EB000280207F1300008F1010102EB000808F8C0
:103EC000105C5FFA81F84DE7002063E7602703008C
:103ED00024F20300EBB70300040000015C2D030093
:103EE0001BF80A3054F8239087F83730D7F884301D
:103EF0002BB3D7F888309B4521D2D7F8843033F8DC
:103F00001B8001213A6AFB6A07F1370098470028B5
:103F10001ADB0544B8F1000F06D14846FCF746F914
:103F200000F101081FFA88F8414648463A6AFB6AE0
:103F30009847002808DB05440BF1010B5CE74FF0C4
:103F40000008DEE7454645E6054643E6014B1860B6
:103F5000704700BFA802002080B505460E461746F0
:103F600098460EF0F7FB03462EF0F0FB0446DFF810
:103F70001890424649F8003039463046A84754F870
:103F8000090002F069F900BF080000002DE9F047C0
:103F9000058B04462807904611D4022905F0070531
:103FA00040F0CC8020462BF054F878B10138218BBA
:103FB000042811D8DFE800F0C2106D8595000129B2
:103FC0000CBF45F0100545F02005258388F31188C6
:103FD000BFF36F8FBDE8F08701F0070AAA4500F034
:103FE000A5800027B9463E46A368002B00F0BC80A0
:103FF00041F00801218388F31188BFF36F8FA16816
:10400000002900F0BA800D68002900F0B680334620
:1040100052462046D1F80480C047002D76D02B6848
:1040200029461D46F0E701F007035A1F012A1BD855
:10403000002221F00701062B276889B2C4E900227B
:1040400009D13B4603E0628B013262831B68002B7F
:10405000F9D141F00201204621832AF0FAFF00281D
:104060007AD041F0200176E0042B0AD121F007013B
:1040700089B2204621832AF0ECFF10B141F02001E3
:104080002183218B01F0070AAA454FD00027B946AA
:10409000AAE7236921F0070141F00601062DD3F8B4
:1040A000009021832DD1B9F1000F3FD041F00801DC
:1040B000218388F31188BFF36F8F20463949C847A1
:1040C00029E021F00701236941F0040189B2042DA0
:1040D000D3F804902183E6D000274FF0040A3E462F
:1040E00082E721F00701236941F0050189B2052D1E
:1040F000D3F808902183D6D000274FF0050A3E461A
:1041000072E700274FF0060A3E466DE72B4687E729
:10411000B9F1000FD1D1EFF31188202383F3128876
:10412000BFF36F8F238B23F008032383258BEA06CD
:104130002ED525F01003238305F007056669218B32
:10414000002EBFF670AF00232768C4E9003321F0CA
:10415000070141F001012183218B4FF0000901F09B
:10416000070AAA457FF440AF002F9CD041F0080118
:10417000218388F31188BFF36F8F002FC8D03D686B
:1041800039463346524620462AF08FFF2F46F4E741
:10419000AB067FF51BAF25F02003238305F0070551
:1041A00000E700BFD7F00200036803F01F025B09BD
:1041B000026004D0012B034818BF0020704702485A
:1041C000704700BF002884500025845008B515486A
:1041D0002DF051FB40B14FF4B01113482BF06EF8A5
:1041E000002111482BF06AF80E482DF044FB40B135
:1041F0004FF4B0110D482BF061F800210B482BF063
:104200005DF808482DF037FB50B14FF4B011084865
:104210002BF054F8BDE80840002105482BF04EB8BB
:1042200008BD00BF5C280300503203005832030071
:104230004832030007B50B2168460091FFF7B4FF31
:10424000009B019100EB8300D0F80022164B134035
:1042500043F00C03C0F8003201A8FFF7A5FF019B53
:1042600000EB8300D0F8003243F44033C0F8003252
:104270002BF053F818B9FFF7A9FF2AF0C5FE4FF449
:10428000D0110A482BF01AF8C8202BF036F84FF45A
:10429000B01106482BF012F801220020044B1A70CE
:1042A00003B05DF804FB00BFF0F0FCFF58320300E0
:1042B0009864002008B5124C2378C3B12AF0F0FFAF
:1042C000C8B12BF02AF80028FBD04FF4D0110D48CC
:1042D0002AF0F4FF4FF4FA702BF00FF84FF4B011FE
:1042E00008482AF0EBFFFFF771FF2AF08DFE6420EB
:1042F0002BF003F8E0E70A202AF0FFFFDEE700BF1B
:10430000986400205032030010B530B90B480C49B6
:104310002BF036F86FF0150010BD836833B90748ED
:1043200008492BF02DF86FF00400F5E71B6813B176
:10433000BDE8104018471846EEE700BF7C2D03008B
:10434000AFB80300C0B8030010B530B90B480C4932
:104350002BF016F86FF0150010BD836833B90748CD
:1043600008492BF00DF86FF00400F5E75B6813B116
:10437000BDE8104018471846EEE700BF7C2D03004B
:10438000AFB80300C0B8030070B508B101B132B9CD
:104390000B480C492AF0F4FF6FF0150070BD8468DB
:1043A0000CB1E56835B9064807492AF0E9FF6FF016
:1043B0000400F3E741F8040BE368BDE870401847D8
:1043C0007C2D0300DEB80300C0B8030010B504461E
:1043D00030B9104810492AF0D3FF6FF0150010BD16
:1043E000006830B90B480D492AF0CAFF6FF0010090
:1043F000F5E783680BB11B6933B9064808492AF011
:10440000BFFF6FF00400EAE7616898470028E6D133
:104410002060E4E77C2D03000AB903001BB9030008
:10442000C0B8030070B51346044630B910481149AE
:104430002AF0A6FF6FF0150070BD006830B90C4877
:104440000D492AF09DFF6FF00100F5E782680AB17F
:10445000956835B9064809492AF092FF6FF00400C3
:10446000EAE70A46AC466168BDE87040604700BFB5
:104470007C2D03000AB903001BB90300C0B8030078
:10448000034A13680BB9526813600020704700BFDD
:10449000AC02002030B50C460E4985B00291D0F830
:1044A000D4110546CDE9003100F1F0014FF0FF33A2
:1044B00020460CF02BFD50B9012384F86C30D5F860
:1044C000D03123B1204605B0BDE83040184705B0D3
:1044D00030BD00BF79F4020038B50C4611460546E0
:1044E0002AF0CCFF034638B9284604492AF0C6FF13
:1044F00003460020236038BD0120FBE7D2E703001C
:104500002DE9F04F01238146056946688FB005F516
:104510007B77D7E8EF2F002A03D1C7E8E13F0029D6
:10452000F7D10CBF1A46002240F0BB80B368B16AD5
:1045300005F5F8781C1F10462BF027F8844279D82F
:10454000013A00F0A880B2FA82F24FF00044D44061
:1045500072682046073222F00302C5F83C22B16A95
:104560002BF013F8C5F84002B36A404663430333A7
:1045700023F0030302EB4302230103EB440309335B
:1045800023F0030303EBC403C5F834221A440832B2
:10459000C5F830227368C5F83842C5F82C32424B52
:1045A000C5E9AD63316800F0F1F9044600283FD158
:1045B000D9F810B0D9F804A0D9F800300BF5347947
:1045C000059004934846DAE90734012B08BF103CF4
:1045D0002DF0E8FBDAF82400344904AB009301EB3A
:1045E0008021234648464FF480620DF0CBFC202109
:1045F000DAF824302E4A06A827F020FB06A9484600
:104600000DF06CFD2B490BF530702DF084FBDAE9D1
:10461000050183685C684CB15B46274AA0470446A5
:1046200030B9DAE9050183681B692BB96FF05704CB
:10463000002129E001327EE7012298470446002844
:10464000F6D11E4B2846C5F8D0311D4BC5F8D431E4
:104650001C4B0393D5F840320293D5F83C32CDE998
:10466000008305F51173B26AD5F8E81300F056F926
:1046700004460028DCD105F1F0000CF0EDFC002828
:10468000C5F8F0030ADB022138462AF02BFF20464A
:104690000FB0BDE8F08F6FF00B04C9E76FF01504A1
:1046A000C6E76FF07704F2E7CFF40200509A0020DB
:1046B00040B90300B5F40200A9F40200C9460000A5
:1046C00061F6020015F5020013B5044640B100235F
:1046D0000122CDE90032074BD0E909120CF0EAFBC8
:1046E000236F1B6823B1606F02B0BDE8104018470C
:1046F00002B010BDD2E7030013B504460846216995
:1047000001F57B71D1E8AF1F022910D193B1A0B19F
:104710000121CDE900311346D0E909120CF0CAFBA2
:10472000074B984208BF6FF00B0002B010BD6FF04E
:104730000F00FAE76FF04C00F7E76FF00100F4E7C5
:104740002EF8FFFF2DE9F34789461546066906F561
:104750007B73D3E8AF3F022B64D1136823B96FF0AA
:10476000150002B0BDE8F0871B78002BF7D0D6F813
:10477000E8A3BAF1000F36D106F5EC774FF0FF321F
:104780004FF0FF3338460DF009F930462A6801A989
:10479000FFF7A2FE019C80461CB938462AF0A0FE15
:1047A000DDE705F108032367AB6984F86CA0636754
:1047B000646460B138462AF093FE21463046A36E09
:1047C0002A68FFF767FE0020C9F80040C9E71F22EA
:1047D000296804F148002DF0DEFD384684F8678032
:1047E0002AF07EFEEFE7304610492AF047FE0446E5
:1047F0000028B4D0002705F108030367AB6980F8EF
:104800006C70436740641F22296848302DF0C3FD57
:1048100022460121304684F8677000F061F80028D4
:10482000D1D09CE76FF00F009BE700BFD2E70300F9
:1048300010B50C46006900F57B73D3E8AF3F022B3F
:104840000FD189B10A4900F530702DF090FA204659
:104850002CF03BFD7822002120462DF072FD002037
:1048600010BD6FF00F00FBE76FF00100F8E700BF2D
:10487000743800202DE9F04F05460E46904600277B
:10488000D0F8C4A085B0AAF5BE7421463046FBF727
:104890007BFCE0B9114BA4F1480B0293DAF810301D
:1048A0003246CDE9008329464FF0FF335846AAF53A
:1048B000E2790CF02BFB60B97823012203FB07930C
:1048C00083F86C20DAF80C300BB1584698477834EE
:1048D00017B105B0BDE8F08F0127D6E78FF60200CB
:1048E0001FB5144690B18AB1012912D10A4B00F1CB
:1048F000F0010293D0F8D431483201934FF0FF33E6
:10490000204600930CF002FB04B010BD6FF01500C0
:10491000FAE70020F8E700BF8FF602002DE9F04328
:1049200087B00E46DDE90E811446DDE910251F46ED
:1049300030B329B3DFF850C000F1F009002D08BFF3
:1049400065469EB9CDE9034400F5E274204605961C
:104950002CF053FF03ABCDE900432A463B464146CA
:1049600048460CF0F1FB07B0BDE8F0830022414659
:104970000E9248462A4607B0BDE8F0430CF034BD1D
:104980006FF01500EFE700BF75480000F0B5044672
:104990002B4A87B004AB0E4692E8030083E803007D
:1049A000002C49D018460CF08BF90546B0B94FF0F1
:1049B000FF33E16C04F15407A163CDE901000093DA
:1049C0003846236D04F138022CF02FF9A06C2AF040
:1049D0008DFEC4F8BC0020B96FF00B05284607B067
:1049E000F0BDA06C2AF082FEC4F8C0000028F3D00D
:1049F000236CD4F8BC10C4F890300423C4F894306D
:104A0000C4F8AC300223E3620E4BB4F84820C4F87B
:104A10008C10616C236204F18C03C4F8A070A4F8BC
:104A20009820C4F8B870C4F8A810A4F8B020C4F84E
:104A3000A400A6612363D1E76FF01505CEE700BFA0
:104A4000782E03008C3203002DE9F0470446074618
:104A50004FF00109DFF8508014B93846BDE8F087FF
:104A600094FAA4F5B5FA85F509FA05F32E0108EBD9
:104A700005156FEA030A24EA03042B7B002BEBD015
:104A800058F806301B694BB946447368042228461F
:104A9000196807EA0A072AF091FEDDE728469847D9
:104AA0000028D9D1F0E700BF142E030030B5002252
:104AB00089B00F490F482DF023FB0022002300246A
:104AC000CDE906230E230C4DCDE903344FF440729B
:104AD0002846CDE90144094B094900940DF074FBC7
:104AE000084928460DF0FAFA204609B030BD00BF4B
:104AF000094B0000D0230020D01200201D4E0000E2
:104B0000509E00204CB9030001480DF041B800BF91
:104B1000C80600202DE9F047804621480F462AF0BC
:104B200031FE0646002833D000252846BDE8F08730
:104B3000237B83B12368DB680BB120469847636809
:104B400083F8069023681B69D3B963680422204662
:104B500019682AF033FE013610345445E8D3B8F111
:104B6000000FE2D0002DDFD02846FFF76DFF05468D
:104B7000002FF7D000214FF4A4702DF0EDF9F1E7EC
:104B8000204698470028E0D009FA06F31D43E2E7E3
:104B900005464FF00109034CDFF80CA0DDE700BF2C
:104BA000AC380020142E0300242E0300014B53F8D0
:104BB00020007047CC32030008B5034608462BB1ED
:104BC000044A136000F070FC002008BD6FF015006F
:104BD000FBE700BFD802002010B5044C237813B9BE
:104BE00003480CF0D5FF0123237010BD9964002009
:104BF000C806002010B5044609482AF0C3FD3CB1A0
:104C0000084BD3E8EF1F0139C3E8E21F002AF8D1AF
:104C100005482DF081FABDE8104004480CF0B8BFFB
:104C2000A4380020A8380020D0230020C806002087
:104C300000200146034BD3E8EF0FC3E8E21F002A30
:104C4000F9D17047A438002070B5FFF7F1FF054691
:104C5000074C084EB44200D370BD63685B792BB13A
:104C600023685B6813B12946204698471034F1E762
:104C7000142E0300242E030010B5044C04492046D2
:104C80002AF05BF8034B1C6010BD00BF4C050020F0
:104C9000B83203009C38002000230D4A10B5137071
:104CA0000C4A4FF4004113600B4A0C481360FFF7A5
:104CB00083FFFFF7E1FF0A4B0A4918468B4200D3F6
:104CC00010BD1A1A5C681211013222711033F5E717
:104CD0009A640020A4380020A838002081F7020040
:104CE000142E0300242E0300014600220023014855
:104CF0002AF044B84C05002001482AF0DDB800BF76
:104D00004C050020024B014618682AF029B900BF63
:104D10009C38002001482AF05EB900BF4C050020F5
:104D200070B5274B1878002849D0FFF7E5FF0546F6
:104D3000002841D1234B244C1B68002B19DD2DF09A
:104D400098F94FF47A72A0FB020302FB0131C30B06
:104D500043EA4143D4E900209B1A40F2E9324FEA8A
:104D6000D13161EB0001934271F1000101D3FFF7F2
:104D70006BFFD4E9003213F57A7342F10002C4E903
:104D80000032BDE87040FFF7C5BF63685B7923B1AF
:104D90002368294620461B6898471034B442F4D350
:104DA0002846FFF7AFFF094BD3E8EF1F0139C3E8EF
:104DB000E21F002ABED0F7E7054C064EEEE770BDB5
:104DC00099640020A4380020C8230020A8380020BF
:104DD000142E0300242E030070B50D4D297861B9FF
:104DE0000120FFF797FE0B4C0B4EB44206D3FFF7A2
:104DF00097FF0028FBD101232B7070BD63685B799E
:104E00001BB1236820469B6898471034EDE700BF2C
:104E10009A640020142E0300242E030000212DE9A3
:104E2000F0470846FFF776FE044658B340F267683D
:104E30004FF000092DF08AFC1B4B1C4A1B581360D5
:104E400033B11B4B1B68092B02DD1A480CF0A0FE86
:104E50000025194FDFF85CA044B12046FFF7F4FDB0
:104E6000044618B94FF0FF384FF0FF39FFF758FFED
:104E7000064628B9B5B942464B4650460CF0C2FE2C
:104E80003546E9E74FF0FF384FF0FF39D2E72B689E
:104E90009B691BB100222846114698471035BD4238
:104EA000F5D3E8E7054DFAE708000000A038002038
:104EB000A8380020C8060020242E0300142E03006A
:104EC00013B518482AF05EFC174B1B7873B1EFF34B
:104ED0001184202383F31288BFF36F8FFFF720FF25
:104EE00084F31188BFF36F8F02B010BD0F4B1B68A6
:104EF000002BF9D050B9002200230D48CDE9002342
:104F00004FF4004200230DF03FFFEDE70928EBD1FD
:104F100007482DF001F9074802B0BDE810400CF039
:104F200037BE00BFA83800209A640020A0380020B7
:104F3000D0230020C806002010B5064B04461B688D
:104F400098472146A060044829F097FFBDE810402B
:104F5000FFF7B6BFD80200204C050020044A054BDD
:104F60009B1AB1EBD30F34BF52F8310000207047C9
:104F7000F42C0300142E03002DE9F04F8FB0C1F381
:104F80004A2804AF0D469146B8607B600C0DB8F11D
:104F9000000F63D000264FF0040B4FF00A0A07F110
:104FA0001403C7F80C80C7E907667E620193CDF849
:104FB00008B0CDF800A007F11C0332464846F96856
:104FC000FEF7DEFDB0F5006F03461CD36C468AB0D9
:104FD000D9F8041004AB26481A46C3E9050140F28B
:104FE000FF71D9614FF400711984224B42F8103FD0
:104FF0004FF4125133462048FFF7BEFFA5462C3729
:10500000BD46BDE8F08FC0F30A0804F1170018444C
:1050100020F0070080083B60FFF766FE68F3532529
:10502000044690B13B6800F11001C7E9083607F16A
:105030001403F961CDE900A3CDF808B048460F4A42
:10504000F96807F11C03FEF79BFD68F353252A4618
:1050500020467B68B9682AF0D0FBD0E704F117003E
:1050600020F007008008FFF73FFE0446EDE700BF91
:1050700061B9030004000001842D0300CFF7020092
:105080002DE9F04F87B00446DDE9105ADDE91279C9
:10509000934698460391BFB13B46524610210020EB
:1050A000CDF80090CDF81490FEF798FBB0F5006FA6
:1050B00006460AD340F2FF730221174A174807B089
:1050C000BDE8F04F2AF0F2BB3E4605F11700304430
:1050D00020F007008008FFF707FE04F007040BF03C
:1050E000070BE40044EA8B1444EA462444EA0554DE
:1050F000054640B13FB13B4652463146CDF800909F
:105100001030FEF76BFB434622462846039907B052
:10511000BDE8F04F2AF071BBA0B90300842D030055
:10512000406820B1034BC01A40F3CF0070474FF0E6
:10513000FF307047F42C03000EB403B503AB53F8F3
:10514000042B01460448019301F01EFC02B05DF8F7
:1051500004EB03B0704700BF0FF90200CA0605D484
:105160008B064CBF02490349FFF7E6BF704700BFFB
:10517000D1E70300D0E703002DE9F04F8BB09B4649
:10518000169B9DF854A00693179B04460593189B05
:105190000D469046199E0493BAF1000F00F09E80D0
:1051A00006F00103089306F00803079306F48073E2
:1051B00009932AF001FB06F00209024600283BD0C1
:1051C00020468F49FFF7B8FF0746B9F1000F08D016
:1051D00016F0440F32D12A4620468A49FFF7ACFF29
:1051E0000744089B53B1884B204653F82A20874B2D
:1051F0008749002A08BF1A46FFF79EFF099B002B2C
:1052000048D0079B002B62D1B8F1000F64D0424612
:1052100020468049FFF790FF0546069B3D44002B42
:105220006BD1049B002B71D1F30700F1E280314672
:105230002046FFF793FFD6E00746C6E7764B18688F
:105240000028CDD0754B4FF47A791B684FF03C0C99
:10525000B5FBF3F5B5FBF0F14FF4616300FB1155BD
:1052600009FB05F5B1FBF3F2B5FBF0FE03FB1211F0
:1052700000FB1E55B1FBFCF309FB05F5B5FBF0F592
:105280000CFB131120460091CDE901E56449FFF7BD
:1052900053FFA5E7079BEBB1624B204653F82A204A
:1052A0006149FFF749FF0546B8F1000F05D04246B6
:1052B00020465849FFF740FF0544BBF1000FACD032
:1052C0005A4620465949FFF737FF0544A5E74FF0F6
:1052D000000BE1E7079DE7E745469EE7BBF1010FBD
:1052E000069B06D1002B64D1049B002B7BD00025AC
:1052F0000CE0002BF8D04E485CE04E48069B22465E
:105300004D4929F0A2FB049B002B68D0DFF83881BF
:10531000DFF83891049F3146102F204628BF102710
:105320004FF0000BFFF71AFF5D4545DC059B494632
:1053300020461A78FFF700FF4FF0010B1BF0070F14
:1053400003D141462046FFF7F7FE5F453BD9059B59
:105350004946204613F80B20FFF7EEFE0BF1010B38
:10536000BBF1100FEAD14FF0000B20463349FFF795
:10537000E3FE5A46059B20469A5CA2F120015F2974
:1053800028BF2E222E49FFF7D7FE0BF1010BBBF1F0
:10539000100F1DD01BF0070F03D141462046FFF729
:1053A000CBFE5F455A46E5D841462046FFF7C4FE8E
:1053B000EBE720485546A1E741462046FFF7BCFEF3
:1053C0000BF1010BB0E720461E49FFF7B5FEC5E71C
:1053D000059B3B440593049BDB1B04939AD1BAF1D4
:1053E000000F7FF421AF20460BB0BDE8F04F2AF04C
:1053F00081BA2046054A0649FFF79EFE17E700BF1F
:10540000DDB90300E1B90300DC320300D8B90300C1
:105410003FC5030006BA0300B4380020B0380020AE
:10542000EAB90300F03203000ABA030010BA03001D
:105430003DF902000FF90200896900001BBA030060
:105440001DBA03009AE703009CE7030015BA0300A6
:1054500042F20F7373B58B4228BF0B4605680446B2
:10546000052168460D4A26F0E9FB06466368284692
:105470000B225B680A492AF02FFA636832466946B4
:1054800028465B682AF028FA63681B2228465B6876
:1054900004492AF021FA02B070BD00BFBDDE03004E
:1054A0003CBA030020BA030000210123064A9042BF
:1054B00006D8064A01B901231360054B18607047EE
:1054C000012140085B00F2E740420F00B0380020A5
:1054D000B43800202DE9F34143680DF107011C6841
:1054E000104865682AF08DFA30B99DF80710012937
:1054F00002D10C4800F030F801232B7725682F6883
:10550000D5E90136D3E9004824B96B681C6002B0C4
:10551000BDE8F081214630464246B847241A064489
:10552000F2E700BFEC280300F8B50D460446064F2D
:105530004618B44201D12846F8BD14F8011BBB68D7
:1055400001485B689847F4E7EC280300014B0360CF
:10555000002070473833030070B5046A0D469CB3D1
:105560001E4A2379565CB34231D01D4A525C9A429E
:1055700030D1A3689847002810DA022D0CD0032DF3
:105580000BD110F1860F07D0D4E8EF3F43F00203B0
:10559000C4E8E23F002AF6E7267170BD022D2671AD
:1055A00001D00020F9E7D4E8EF3F23F00403C4E87A
:1055B000E23F002AF7D1D4E8EF3F23F00203C4E82A
:1055C000E23F002AEDD0F6E76FF05700E5E76FF015
:1055D0007700E2E76FF08500DFE700BF9EBA0300C7
:1055E0009ABA030008B5044829F089FABDE80840D2
:1055F000024829F084BA00BFC9BA0300FEBA03000A
:10560000014823F0F5BD00BF3833030038B5044628
:1056100018B90F4B0F485B6898476168B1F5683F50
:1056200010D0B1F5680F0DD00B4DA9420AD011F47E
:105630006861206807D0014608482CF097F90023DC
:105640002360656038BD14222CF07BFEF9E700BFB3
:10565000C40400202CBB03002C5F5CA9E43D0020A7
:1056600008B560B34368B3F5683F0ED0B3F5680F73
:1056700018D0144A934220D000684FF0FF324FF008
:10568000FF330CF08BF958B115E001220368D3E821
:10569000EF1F002903D1C3E8E02F0028F7D10AD17A
:1056A000002008BD0368084A1B7803F5807352F890
:1056B0002330002BF4D00548F3E70548F1E76FF4F9
:1056C000E040EEE72C5F5CA900000350E98FFFFF8C
:1056D000EA8FFFFF08B520B34368B3F5683F09D0F0
:1056E000B3F5680F13D0114A93421DD000680CF037
:1056F000CDF914E000220368D3E8EF1F012903D19C
:10570000C3E8E02F0028F7D109D0094808BD0021DF
:105710000368084A1B7803F5807342F823100020C1
:10572000F4E76FF4E040F1E70348EFE72C5F5CA992
:10573000E98FFFFF00000350EA8FFFFF10B504461A
:1057400018B91D4B1D485B6898476368B3F5683FFF
:105750002FD0B3F5680F2CD0194A934219D1236882
:1057600003BB4FF0FF324FF0FF33214615480CF0DA
:1057700023F808B923681BB90F4B13485B68984797
:105780001422002120682CF0DCFD4FF46863636074
:1057900008E0B3F5683F0DD83A2B03D040F6BA6263
:1057A0009342DED120682CF07CF9636843F03A0321
:1057B000636010BD054AF3E7C40400202CBB03005E
:1057C0002C5F5CA9E43D002052BB03003A00003A84
:1057D00008B506494023142205482CF0B9F8BDE865
:1057E00008400449044823F0C7BD00BFE438002046
:1057F000E43D0020403303005433030010B5244C33
:1058000088B024888C420AD9224A0091234601217B
:1058100021482AF055F86FF0150008B010BD1F4C54
:1058200024789C4205D801211D4A1B482AF035F8EE
:10583000F1E700240490CDF81640CDF81A40ADF8F9
:105840001E40ADF814100AB9164A126806920B9A57
:105850000292BDF82820ADF80C200022ADF80E20F1
:10586000114A52F8230038B90B4801210F4A2AF097
:10587000FEF84FF0FF30D0E702AA04A90DF096FD24
:105880000028CAD10C9BBDF80E201A80C5E700BFC6
:10589000806400207FBB0300E42D03009D64002092
:1058A000BDBB0300183E0020143E0020EDBB0300EA
:1058B00030B51A4D87B02D789D4208D8184801217F
:1058C000184A29F0EAFF6FF0150007B030BDADF8B7
:1058D00010200022ADF80810ADF812209DF830100D
:1058E000ADF81420104A01908DF80A1052F82300E8
:1058F0000A99039138B90A4801210C4A2AF0B7F8ED
:105900004FF0FF30E1E703AA01A918F0A5FD002838
:10591000DBD10B9BBDF812201A80D6E79C640020D7
:10592000E42D0300BDBB0300003E00200EBC0300BD
:10593000134607B541F64C5293420DD042F2107215
:10594000934212D00A4801210A4A2AF090F86FF0D7
:10595000150003B05DF804FB0122CDE900013F21F1
:105960000023084617F0C0FCF3E70022F5E700BF6C
:10597000E42D03002FBC03002DE9F04F1C4641F637
:105980004C5385B09A4206460F469DF838B00ED06B
:1059900042F210739A4213D0134601212F4A304825
:1059A0002AF065F86FF0150005B0BDE8F08F4FF0F4
:1059B000010944B901212B4A294829F06EFFF1E77A
:1059C0004FF00009F5E745F6C0539C421DD8234629
:1059D000254A022122482AF04AF80DF10C0A5346C2
:1059E0004A46394630461FF06BFC204B18800F9B0F
:1059F000188080B10025DFF890805D4513D11C4BE5
:105A000003981C601B4B1D70CEE71B4B9C42E4D9D6
:105A100023461A4ADDE712480121194A29F03DFFC1
:105A20004FF0FF30C0E7D8F8003043B10C482B46A8
:105A30000121144A2AF01BF86FF07700B4E74A46B8
:105A400039463046CDE9003A0DF034FA48F8040BF7
:105A5000039801350028D0D0A6E700BF2FBC030073
:105A6000E42D030049BC03005EBC030080640020F9
:105A7000183E00209D640020FF70020083BC0300DC
:105A8000A9BC0300D3BC0300143E00202DE9FF474E
:105A90001D4641F64C539A42074688460ED042F2C4
:105AA00010739A4216D0134618480121184A29F05B
:105AB000DEFF6FF0150004B0BDE8F0874FF0010A7B
:105AC0000024144E0DF10C09AC4206D1124B0020FB
:105AD0001C70F0E74FF0000AF2E7336843B10B485F
