:020000040000FA
:1000000018CD0020415A0000B12802002D5A0000EE
:100010002D5A00002D5A00002D5A00002D5A0000C4
:10002000000000000000000000000000E95B00008C
:100030002D5A000000000000455B00002D5A000012
:10004000095E0000095E0000095E0000095E000014
:10005000095E0000095E0000095E0000095E000004
:10006000095E0000095E0000095E0000095E0000F4
:10007000095E0000095E0000095E0000095E0000E4
:10008000095E0000095E0000095E0000095E0000D4
:10009000095E0000095E0000095E0000095E0000C4
:1000A000095E0000095E0000095E0000095E0000B4
:1000B000095E0000095E0000095E0000095E0000A4
:1000C000095E0000095E0000095E0000095E000094
:1000D000095E0000095E0000095E0000095E000084
:1000E000095E0000095E0000095E0000095E000074
:1000F000095E0000095E0000095E0000095E000064
:10010000095E0000095E0000095E0000095E000053
:10011000095E0000095E0000095E0000095E000043
:10012000095E0000095E0000095E0000095E000033
:10013000095E0000095E0000095E0000095E000023
:10014000095E0000095E0000095E0000095E000013
:10015000095E000053B94AB9002908BF00281CBF36
:100160004FF0FF314FF0FF3000F00CB8ADF1080C4C
:100170006DE904CE00F035F8DDF804E0DDE9022396
:1001800004B07047704700BF10F8012B11F8013B15
:10019000012A28BF9A42F7D0D01A7047034611F8B7
:1001A000012B03F8012B002AF9D17047034613F8FD
:1001B000012B002AFBD1181A01387047430803F0BD
:1001C0005533C01A00F03333800800F03330184440
:1001D0004FF0013300EB101000F00F305843000EC9
:1001E00070472DE9F04786468C460846089E15461E
:1001F00074461946002B40F0C1808542B2FA82F263
:1002000045D94AB1C2F1200300FA02FC954094405E
:100210002EFA03F343EA0C0C4FEA154EA8B2230C56
:10022000BCFBFEF80EFB18CC08FB00F943EA0C43BC
:10023000994528D9EB1808F1FF3704D2994502D91E
:10024000A8F102072B44A3EB0903A4B2B3FBFEFC05
:100250000EFB1C330CFB00F044EA0344A04214D90B
:100260002C190CF1FF3304D2A04202D9ACF10203E5
:100270002C44241A43EA07401EB1D44000233460C2
:100280007360BDE8F0874746DDE76346F1E792BB60
:10029000431B01214FEA154EAFB2200CB3FBFEFC0D
:1002A0000EFB1C330CFB07F840EA0343984561D969
:1002B000EB180CF1FF3004D2984502D9ACF10200E2
:1002C0002B44A3EB0803A4B2B3FBFEFC0EFB1C33D0
:1002D0000CFB07F744EA0344A7424DD92C190CF153
:1002E000FF3304D2A74202D9ACF102032C44E41B31
:1002F00043EA0040C0E7C2F120039540944020FA51
:1003000003F12EFA03F34FEA154E9040AFB20343C8
:10031000B1FBFEFC0EFB1C10190C0CFB07F841EAAC
:100320000041884522D969180CF1FF3004D2884574
:1003300002D9ACF102002944A1EB08019BB2B1FB48
:10034000FEFC0EFB1C110CFB07F743EA01439F4226
:100350000ED9EB180CF1FF3104D29F4202D9ACF157
:1003600002012B44DB1B41EA004193E76046E3E7CF
:100370006146F7E76046A4E76346B8E7834206D9DB
:1003800016B9002108467CE7C6E900E0F9E7B3FAB0
:1003900083F78FB9834201D3724508D8BEEB0204BC
:1003A00060EB030301209C461EB9002169E7384633
:1003B000FAE7C6E9004CF8E7C7F1200CBB400EFA9B
:1003C00007F522FA0CF42EFA0CF1BA401C4320FA7D
:1003D0000CF3B8404FEA144901431FFA84FEB3FB03
:1003E000F9F809FB18300B0C08FB0EFA43EA00433E
:1003F0009A4540D9E31808F1FF3004D29A4502D952
:10040000A8F102002344A3EB0A0389B2B3FBF9F875
:1004100009FB183308FB0EFE41EA03418E452CD937
:10042000611808F1FF3304D28E4502D9A8F1020306
:10043000214443EA0040A1EB0E01A0FB0298414594
:10044000CE46434602D306D14D4504D20138B9EB1E
:10045000020E68EB0403002EA7D0B5EB0E0261EB91
:10046000030101FA0CFC22FA07F3F9404CEA0303FA
:10047000C6E9003199E74046C5E74346D9E70000A1
:100480000023064A52F8041B096829B90133DBB27C
:10049000052BF7D10120704700207047B0370020AE
:1004A000014820F0DCBA00BF680800200146A02205
:1004B00070B50446124824F085FC124820F0CFFAAB
:1004C000114A1368591C1160C822B3FBF2F002FBF9
:1004D0001033A3B91A46A51E0E3435F9020F0028B1
:1004E000B8BF404286B2B342B8BF3346A54212FA03
:1004F00080F2F2D1BDE87040044821F0E9BA70BD45
:1005000094660020D8070020AC370020445A03002E
:1005100001481BF05FB900BF283800201FB501ABB0
:1005200007CA83E80700064820F09BFA024618B97C
:100530001846044906F00CFA05B05DF804FB00BF4C
:1005400048380020710F000073B52E4D2B78FF2B1B
:1005500050D12D4B2D481B7820F083FA10B100208C
:1005600002B070BD2A4820F07CFA0028F7D0012B99
:1005700038BF0123013B13F0FF03F0D0254820F0E2
:1005800070FA0124C0B29C40042804F1FF3413D156
:10059000214820F066FA84430ED1204A1368591C82
:1005A0001160C822B3FBF2F102FB1133002BD6D14C
:1005B0001B4821F08DFAD2E72046FFF7FFFD0646E3
:1005C00004210DEB010006F0CBF8019B0021B3FBE9
:1005D000F6F206FB123224FA01F3DB070DD55AB905
:1005E000C9B24B1C2B7002310C4B0E48C9B21A60B9
:1005F00021F06EFA0120B3E7013A01311E29EAD158
:10060000ADE700BF5A0600205C060020A04700208E
:100610009C47002058380020543800205C380020C7
:10062000755A0300AD5A030070B50C6892B0237878
:10063000064607AD032B2ED8DFE803F00227292B4F
:1006400018492846FFF7AAFDA379059562781E216F
:100650000492A2780AA80392E27802922279019287
:1006600062790092104A1FF0C3F8304608F006FB8A
:100670000AAA01460D4821F02BFA01220C4B0D4825
:100680001A7020F0ECF912B070BD0B49D9E70B4994
:10069000D7E70B49D5E70A2128460A4A1FF0A8F8F0
:1006A000D2E700BFD65A0300F85A03001B5B0300D1
:1006B0002069002080080020DD5A0300E45A03006E
:1006C000EE5A0300AD8D030010B5114B1A6890422D
:1006D00010D05A6890420FD1012149B20D4A1278C8
:1006E00053F8223083420AD1BDE8104000210A4865
:1006F00020F0BEB90021F0E74FF0FF31EEE70748E8
:1007000020F0AFF9BDE810400346054821F0E0B9FC
:10071000B03700205B060020B04400209C4700203A
:100720004B5B0300F7B50546194820F09AF984B2EF
:10073000A5420F46064609D81648002120F098F930
:10074000154803B0BDE8F04020F092B92C1BA4B2CC
:10075000042C02D121460F48F3E700210D4820F078
:1007600087F90D4820F084F901220C4BD3E8EF1FE4
:10077000002903D1C3E8E02F0028F7D106D12A468B
:10078000394607480094B3B221F0A2F903B0F0BD96
:1007900070010020583800205438002050380020C4
:1007A000815B0300F7B54B790F4F052B28BF05235D
:1007B000888A3B700D4D0B690D4E0C460D492B6020
:1007C0003080FFF7AFFF0C4B1B683BB93B780B4801
:1007D000009333882A68617921F07AF9084803B0D8
:1007E000BDE8F04020F03BB95C0600207401002019
:1007F00092660020B75B030038380020BF5B03001F
:100800005008002030B51A4B0D461B681446834231
:100810008BB02AD12022002102A824F0FAFAAB7969
:100820001A0744BF2A680392CCB1258A182D16D81E
:10083000DB0714D52A46E16804A8ADF8085024F077
:10084000C1FA28460B49FFF76DFF002200230A4832
:10085000CDE900234FF4804200231BF0C3FE0022A9
:100860000023064802A91AF003FC0BB030BD00BFFC
:10087000B0370020015C0300E80C0020480700208E
:1008800070B505460A460C460146114821F020F98C
:100890000021104820F0ECF80F4B104E1B7856F852
:1008A0002330AB4202D10E4820F0E2F83368AB426D
:1008B00002D10C4824F09CF93E2C01D0442C04D1E8
:1008C0000948BDE8704020F0CAB80848F9E700BF01
:1008D0000A5C0300B44400205B060020B03700200F
:1008E0003C380020E80C00200808002020080020E8
:1008F0002DE9F041514E524D88B030684FF4A4724A
:10090000002369461AF014FC044650B30022002369
:100910004C4820F0ABF8F0E70420002124F088F8E0
:100920004CF24F3364349C4208D94046297820F079
:1009300098F80246444821F0CBF80024384620F0CD
:1009400090F80028E8D1414820F08BF868B1404B7E
:10095000404A1B78FF2B12D10123D2F804802B7060
:1009600010E03D4FDFF8F480E8E73C4820F079F8EC
:100970000028ECD0FFF7E8FD0028E8D1BDE752F8E9
:1009800023802B70B8F1000FB7D0BDF800301BB931
:10099000334821F09DF8B0E700220023314822F0CF
:1009A0000DF8044698B9304820F05BF80028A4D030
:1009B0002E4A1368591C11603222B3FBF2F002FB7D
:1009C0001033002B99D12A4821F082F895E71F486F
:1009D00020F047F838B9214820F043F818B92046EC
:1009E00005F04EFD89E704F10C0738460D2122F091
:1009F0001EF8BDF80020384602A91E4F22F028F844
:100A00000121154820F034F83A8829781A4821F055
:100A10005FF83A882146404622F047FA021E04DA7F
:100A20004146164821F054F8D9E701210E4820F03C
:100A30001FF83B880B443B805FE700BFB8440020B1
:100A40005B060020980800203A5C0300A0470020C5
:100A50005A060020B0370020B04400209C470020F8
:100A6000775C0300C80800203C380020A83700202D
:100A7000925C030090660020BB5C0300D55C030021
:100A80002DE9F0414FF47A7524F05FF82F46A0FB72
:100A9000050605FB0166C30B43EA464313F5FA64FA
:100AA0004FEAD636DFF8388046F10006FFF7E8FC5B
:100AB00008B1BDE8F08124F048F8A0FB070305FB6E
:100AC0000131C30B43EA4143A3424FEAD131B14163
:100AD000EFDA40F6CD42002340461FF0C7FFE5E7BE
:100AE0002008002013B5014604460F4820F0F0FF0F
:100AF0000E4BD3E8EF1F0131C3E8E21F002AF8D103
:100B00000B481FF0ACFF0B4B1B68A34209D100221E
:100B100000230948CDE900234FF4804200231BF055
:100B200061FD02B010BD00BFF85C0300403800203A
:100B300008080020B0370020E80C00202DE9F04F15
:100B40000026BFB04FF0FF324FF0FF336F480EA9C1
:100B50001AF0EEFA6E481FF084FFBDF83820044604
:100B6000002A6DD083B29A4228BF1A4610A90123E9
:100B7000684816AF01930097002300680EF002FE4C
:100B8000002808DA644A00211368384601331360EC
:100B9000A02224F03EF9BDF83820A0B2031D9A42ED
:100BA0002ED100F108030EAA00F1F8010DEB0100AF
:100BB00013445A7810F8B84C5B8844EA022444EA9B
:100BC0000344214655481FF053FF554A1368591CEA
:100BD00011606422B3FBF2F102FB113383B906A862
:100BE000014624FA03F202F00102013330321E2BD7
:100BF00000F8012BF5D14B488DF8366020F068FFE6
:100C0000DFF83CA1484D2988BAF8003089B22C8819
:100C10009BB2994237BFA4B2BAF80030BAF800309C
:100C20000A34E41AA4B22046C4F10904A4B201F0C3
:100C3000A3FD042C0AD83D4A13680133136081E7F1
:100C40003B490B6801330B60114690E700200A24F2
:100C5000384AB9462B889BB202EB8311A1F10408F4
:100C60003C3139F802EB0EEB0E4E48F804EF4145EB
:100C7000F7D10133B3FBF4F104FB113310309BB215
:100C800050282B8007F12007E3D12B490B6803F193
:100C90000109C1F80090C821B3FBF1F001FB10334A
:100CA000002B7FF44FAFB5F800C0BAF80000DFF8B2
:100CB0008080194F1D4C1FFA8CFC80B28445D8F8F7
:100CC00000B03B68216818D32D88BAF80020ADB277
:100CD00092B2AD1ACDE9043101F024FA0599CDE9BB
:100CE000015000915A464946049B144820F0F0FEFA
:100CF000C8F800603E60266024E7BAF800202D881E
:100D000092B2C2F10A0212FA85F5E3E74807002021
:100D100070010020AC44002094370020543800209B
:100D200090370020125D0300366700208C370020CA
:100D300098370020BC44002088370020355D030030
:100D40003467002008B50B4820F0C2FE0A4823F0A3
:100D50004FFF0A4800211FF08BFE094B186840B175
:100D600009F0B4F8014620B1BDE80840054820F07C
:100D7000AFBE08BD6E5D0300E80C0020B444002047
:100D8000383800209E5D03000D4A1378B3B94389BB
:100D9000A3B10121117001790A4A117040F2E242B7
:100DA0005343094A13600268084B116808481960E8
:100DB0009188998092799A711FF051BE704700BF57
:100DC00021690020186900204C3800201969002092
:100DD000380800202DE9F043544B554E1D8E554FD9
:100DE000DFF88881B9B0202200210DEB020024F049
:100DF00010F84FF0FF324FF0FF3330461FF036FE51
:100E000038461FF02EFE0028EDD0A022414610A843
:100E100023F0D8FF48481FF024FE18B1502110A835
:100E200001F0B4FD0022134610A931F9020B013282
:100E3000082A0344F9D141480268511C016064202A
:100E4000B2FBF0F400FB142232B93D481FF009FE5A
:100E500002463C4820F03CFE3B481FF002FE98B1A1
:100E600039481FF0FEFDA8B102ACCDE90054374867
:100E700000210123006810AA0EF018FA011E13DAEF
:100E8000334820F025FEAEE72D481FF0EAFD00288C
:100E9000E6D1A8E72A481FF0E4FD0028E4D0FFF7D8
:100EA00053FB0028E0D19EE721462A460AA823F0FA
:100EB00089FF28481FF0D5FD10F0FF0407D005F189
:100EC000080008AB22460021184423F0A2FF224B61
:100ED0002C441868ADF820400022002308A91AF01D
:100EE000C7F868B10A221D4B196801311960B1FBBE
:100EF000F2F302FB1313012B02D1194820F0E8FD95
:100F0000184A1468611C1160C822B4FBF2F002FB9D
:100F10001044002C7FF467AFDFF840901248D9F8F6
:100F2000002020F0D5FDC9F800405CE778010020E2
:100F3000D8070020B444002098470020A4370020A0
:100F40009C470020BF5D0300A047002060380020C0
:100F5000E95D030058380020B8440020A037002085
:100F6000055E03009C3700202B5E03009466002082
:100F70002DE9F04F8FB0002800F0F3800378162B96
:100F800040F0EF804278052A40F2EB8041680BA8E0
:100F900021F047FD0BA821F095FD41F65103984241
:100FA00040F0DF80BDF83030032B0FD80122714BA9
:100FB000D3E8EF1F002903D1C3E8E02F0028F7D1C1
:100FC00000F0D18000200FB0BDE8F08F0BA821F019
:100FD00081FD04460BA821F06DFD05460028E5D0F3
:100FE00002462146644820F073FD4FF00008BDF82A
:100FF0003030072BDAD90BA821F05CFD074600281A
:10100000D4D00BA821F056FD07900BA821F05AFD73
:1010100008900BA821F056FDBDF830300990002B48
:10102000C4D00BA821F046FDBDF830300446834201
:10103000BCD301460BA8DDF82CB021F033FDBDF880
:101040003030002BB2D00BA821F034FDBDF8303089
:1010500006468342AAD301460BA821F023FD0023B4
:101060009C4256D84FF0000AD146BDF830100129F5
:101070009CD90BA821F01EFD83460BA821F01AFD78
:101080000146BDF83000884290D30BF1FF3B0BA81E
:1010900021F008FD5FFA8BF11F2998BF01230AF1A7
:1010A000010A98BF03FA0BFB5FFA8AF198BF49EA7D
:1010B0000B098F42D9D8079BFF2B4ED14DF6AD635C
:1010C000089A9A424BD14BF6EF602C4B2C49099A67
:1010D000824208BF0B46099A08F101080192089A5A
:1010E00041460092CDE90479CDE90246079A2548A8
:1010F00020F0EEFC5FFA88F39D423FF678AFBDF832
:101100003030002B7FF452AF01211F481FF0B0FC9C
:1011100058E71BF80320591C002AA3D0501884421A
:10112000A0D31BF80110013A042903F10203D2B243
:1011300011D1022A0FD13BF803104B1E172B91D867
:1011400012481FF095FC124B188800288AD01149CC
:10115000FFF7E8FA86E7134482E70F4BBBE7074B3C
:10116000B9E701202FE76FF015010C4820F0B0FC23
:1011700028E700BF443800206F5E03005C5E030078
:10118000455E0300A15E0300483800207001002086
:1011900092660020B75B03002F9903001E5F0300D7
:1011A000FF22044B04481A700022044B1A6020F0FE
:1011B0008FBC00BF5A060020355F03005C3800205A
:1011C00041F288332DE9F04FA94E99B0736314238F
:1011D00033860123A74886F82E3020F079FCA648F4
:1011E00020F076FC0221A54820F072FC00F02CFED5
:1011F000054668B10146A24820F06AFCA14800F00B
:10120000F5FC044638B101469F4820F061FC4DE0F2
:1012100000F042FEF2E703211E220846994B01F03E
:1012200067FB014610B1994820F052FC1FF09EFC6C
:101230001FF09EFC00229649964823F0CDFC96496B
:10124000964823F0D4FA0022954B9649964C97483D
:101250000532192AC3E9014041F8043B03F11403A4
:10126000F6D19349934800F07FFF044610B1014640
:101270009148CAE700F0B0FF044610B101468F481C
:10128000C3E701F055FA01F099FA8D4B2246186038
:101290004FF47A518B4B706B0EF0EEF88A4B18605E
:1012A00040B98A4820F014FC6FF00404204619B0BD
:1012B000BDE8F08F864B22464FF47A51706B0DF0EB
:1012C00081FE844B186008B98348EBE74FF00008B3
:1012D0004FF0000901234FF4C052CDE90243CDE99C
:1012E0000689CDE900447D4B7D4904947D481AF080
:1012F00099FB7D497B481AF01FFB02274FF480526F
:10130000CDE90689CDE90247CDE90044774B78491C
:10131000049478481AF086FB774976481AF00CFB5B
:101320004FF48062CDE90689CDE90374CDE901442B
:10133000724B7349009473481AF074FB72497148F8
:101340001AF0FAFA204606F035FB044610B10146C1
:101350006E485AE76E4807F079FC6E4807F0B8FD12
:1013600008946D481FF080FB6C481FF07DFB6C48B3
:101370001FF07AFB6B481FF077FB6B481FF074FB84
:101380006A481FF071FB002169481FF071FB694832
:101390001FF06EFB142168481FF06AFB00216748AC
:1013A0001FF066FB66481FF063FB66481FF060FB9A
:1013B000654B089A1A80654B1A7015B9284600F0DB
:1013C0006BFD634820F084FB624A0CAB10685168E7
:1013D00003C39068002118600CA807F0CBFB0446FB
:1013E00010B101465C4810E75C4B18705C4820F077
:1013F0006FFB4FF0FF324FF0FF3347481FF036FBD3
:10140000044610B101465748FFE6574820F060FBFC
:1014100007F000FC044610B101465448F5E6544B71
:10142000119418689A889B790F908DF84230514B2F
:1014300051481B78ADF840208DF843304F4BADF844
:1014400048401F6806235F4342F21073B7FBF3F373
:10145000ADF84A3020F03CFB0BA90FA807F062FC66
:101460000446002800F08E8001464548CDE600BFC6
:1014700078010020635F03007D5F03009C5F030031
:10148000C85F030098080020DD5F0300F65F0300DB
:1014900011050000E80C0020450D00002838002050
:1014A000C4370020B0370020300100206801002040
:1014B000AD040000B00100200B60030022600300B7
:1014C000B844002064380020AC4400203A60030097
:1014D000200D0020603800205E6003003D0B0000FE
:1014E000D8800020F00B002082600300D50D0000A2
:1014F000D8700020F80A00208E600300F108000078
:10150000D86C0020000A00209A600300A16003004C
:10151000240100200801002038080020680800206D
:101520008008002050080020080800202008002023
:10153000483800204438002070010020583800202E
:101540005438002050380020926600202069002086
:10155000C160030070590200D460030021690020BB
:10156000F1600300166103002E6103004B6103006C
:101570001969002018690020676103004C380020B9
:101580008E610300B94820F0A3FAB9494FF4004036
:101590008C462146E7FB00C10023B64A6046FEF7B1
:1015A000D9FD074602460B46B3480C461FF05EFACB
:1015B00030B1B24820F08CFA0B9807F06BFBD0E604
:1015C000AF4820F085FA23463A46AE481FF04EFA5F
:1015D000044640B1AC4820F07BFAAC4B1B78002BA2
:1015E0007FF4BFAEE8E7AA4B2246186814234FF4F5
:1015F0007A513386A74B70630DF03EFFA64B1860FF
:1016000030BBA64820F064FAA54820F061FA002219
:101610000023A4481FF02AFAB0B1A34820F058FADA
:1016200098481FF021FA4FF42032002395481FF00C
:101630001DFAC8B19D4820F04BFA4FF0FF324FF031
:10164000FF3398481FF012FA994820F041FA88E6D3
:10165000984B22464FF47A51706B0DF0B3FC964BC9
:10166000186008B99548CDE7FEF70AFF60B99448BD
:1016700020F02EFA4FF480300021FFF701FAFEF738
:10168000FFFE08B98F48BDE701228F4F8F4C397894
:101690008F488A40013AA260217120F019FA002196
:1016A0008C481FF0E5F921468B4A0B9808F0A2FD03
:1016B0000446002800F09B800146884820F008FA84
:1016C00014F1780F7FF4F2AD4FF480300021FFF772
:1016D000D7F999E74846099120F0FAF94FF4A0228A
:1016E000002350461FF0C2F908F10108002863D119
:1016F0005846099920F0ECF93B785FFA88F18B4263
:10170000E8D874481FF0ADF9984256DB744820F0D1
:10171000DFF9002173481FF0ABF90C46DFF8AC91FC
:10172000DFF800B299F804205FFA84FA524566D8CF
:10173000002401F035F86C4B21466C481C801FF0EA
:1017400097F96B4822F0CEFE6A4B186822F0CAFE69
:10175000694B21461C80694B4FF4207268481C80FD
:1017600023F057FB00F0E4FC664C002200232046E7
:101770001FF07CF90028F8D001215A481FF078F9B1
:1017800015B9084600F088FB0027DFF83C81DFF838
:101790009891DFF898A198F800305FFA87FB5B45D5
:1017A00000F2D080584820F093F9002D7FF42CAF40
:1017B000284600F071FB27E7044646481FF051F920
:1017C000214602463B78514820F082F9424B186886
:1017D00008F07CFB00F11602162A044604D84C4B94
:1017E0001341DB077FF570AF21464A480DE580467F
:1017F000DFF83C91DFF83CA1DFF83CB17CE7464BD9
:1018000014220021BAFA8AF813A853F82A7023F098
:1018100000FB0322514641484FEA58188DF84D20ED
:1018200020F056F913AA4146384607F0FBFD10F1A7
:101830000D0F024611D15146584620F049F90121B9
:10184000384607F023FF0021384607F01FFF13AA90
:101850004146384607F0E6FD024651460134002A6B
:101860006CD02F4820F034F9B0E700BFB46103001A
:101870003F420F0040420F0068080020D261030081
:10188000E961030050080020026203002069002083
:101890007401002064380020AC440020146203006E
:1018A000A064030080080020C4640300E264030015
:1018B00016650300200D002060380020356203000B
:1018C00056620300836203005C060020440100208E
:1018D000C56203004038002038380020F56203005C
:1018E0007B630300B4440020906600203C38002055
:1018F00048070020B84400203667002034670020E5
:10190000BC440020D807002090640300506303000B
:10191000FEFFBDFF9E5D0300B03700209263030011
:10192000ED630300B063030034640300200800206B
:101930001163030008080020326303000C4820F004
:10194000C7F8EFE65946484620F0C2F84FF0FF329C
:101950004FF0FF3350461FF089F80137044610B1AD
:101960000146044851E45946034820F0B1F812E713
:101970001C6403005A6403007864030008B5002166
:1019800004481FF0D5F820B1BDE8084040B21FF070
:10199000F9B808BD3C470020062110B50F481FF0DC
:1019A000B0F800280BDD00210D481FF0C1F8BDE89C
:1019B000104046F2676200230A4819F0B7BF094891
:1019C00022F06FFF40B906481FF0AFF820B9BDE81C
:1019D0001040054819F0FEBE10BD00BF4053020084
:1019E00074470020481700207847002008B50848B1
:1019F00020F06EF8074BD3E8EF1F0331C3E8E21F76
:101A0000002AF8D1BDE80840034819F0E3BE00BF42
:101A10002B6503003C470020404700200146034857
:101A20008368DB690BB101221847704740530200FD
:101A300010B5012115481FF07BF815481FF075F807
:101A4000044620B11348BDE8104020F041B81248C8
:101A50001FF06BF870B121460F481FF069F80F486E
:101A60001FF06EF80E4821461FF06AF800F0AEFF36
:101A70000C48E8E708481FF05BF808481FF060F8DA
:101A8000074801211FF05CF80748DCE77447002095
:101A9000884700203565030098470020505C02000D
:101AA000585C02005C6503007065030010B51A48BD
:101AB0001FF03BF878BB19481FF037F8044620B1F7
:101AC0001748BDE8104020F003B816481FF02DF865
:101AD00070B1214613481FF02BF813481FF030F85F
:101AE000214612481FF024F8FFF75AFB1048E8E798
:101AF00001210C481FF01CF80B481FF021F80121B0
:101B00000A481FF015F800F04BFE0A4B186819F050
:101B10006DFC0948D5E710BDA0470020984700207C
:101B20008365030088470020585C02009C47002022
:101B3000A6650300A4470020BB65030008B508485C
:101B40001FF0C6FF074BD3E8EF1F0339C3E8E21FBE
:101B5000002AF8D1BDE80840034819F03BBE00BF99
:101B6000CF6503003C4700204047002010B51748D0
:101B70001EF0DBFF40BB16481EF0D7FF20BB154808
:101B80001EF0D3FF0446F8B9042113481EF0B9FF34
:101B900000280EDD012111481EF0CAFF00F000FEF2
:101BA0000F481FF095FF0F4B1868BDE8104019F063
:101BB0001DBC214609481EF0BBFFFFF7F1FABDE846
:101BC000104009481FF084BF10BD00BFA04700208F
:101BD0008847002098470020405302009C4700207F
:101BE000DB650300A4470020EA650300634B10B5E2
:101BF000186063481EF0B8FF28B962481FF068FFFC
:101C00006FF012040AE04FF480315F481EF05AFF73
:101C1000044628B101465D481FF05AFF204610BD1A
:101C20004FF0E86158481EF02AFF044610B1014603
:101C30005748F1E75748584B436010238360FFF73C
:101C4000EDFE56481FF044FF5549564822F0CFFD9F
:101C50005548564922F019FE49481EF085FF08B93B
:101C60005348CBE753481EF07FFF0028F8D04FF4CD
:101C7000803151481EF026FF044610B101464F48FE
:101C8000CAE74FF4B0114E481EF01CFF044610B1D5
:101C900001464C48C0E747481EF066FF08B94A486D
:101CA000ACE74FF4B01149481EF00CFF044610B1E8
:101CB00001464748B0E74FF0E8613F481EF0DFFEBD
:101CC000044610B101464348A6E74348434B4360EE
:101CD00040238360FFF7A2FE41481FF0F9FE414810
:101CE000414922F084FD26481EF03EFF08B93F48D6
:101CF00084E723481EF038FF0028F8D04FF48031E5
:101D00003B481EF0DFFE0446002887D14FF48031A7
:101D100038481EF0D7FE044600287FF47FAF4FF00E
:101D2000B86133481EF0ABFE044600287FF476AF5E
:101D30004FF0B8612F481EF0A2FE044600287FF441
:101D40006DAF2D482D4B2E4C4360042383602D4BEB
:101D500063600823A360FFF761FE2046FFF75EFE85
:101D6000032129481FF0B4FE00F052F80446002871
:101D70007FF454AF25481FF0ABFE4FE7A447002087
:101D800040530200FA650300485C02001566030038
:101D900036660300684700206D1B00005A6603008A
:101DA000AD1A00007847002048170020311A0000C3
:101DB0008566030020530200605C02009E660300FB
:101DC000585C0200C4660300E7660300505C020032
:101DD00003670300256703008C4700209919000062
:101DE0004E670300404700207D1900007167030023
:101DF000405C0200385C02005C4700203D1B000094
:101E000050470020ED1900008F670300B5670300FD
:101E100008B502481FF05CFE002008BDE067030023
:101E2000084B1A691268002AB8BF80F0010028B177
:101E30009B68DB684FF00041024818479B681B69AC
:101E4000F8E700BF4053020038B5104D2B78BBB9FE
:101E50000F4C204622F07BFAA8B12269A1681368D2
:101E6000204643F0004313600B680A4A1F2198473D
:101E7000034630B9FFF7D4FF034610B901232B7096
:101E80000023184638BD6FF01203FAE722690020DC
:101E90004053020001000A0010B5074B04461B78AE
:101EA00023B12046BDE81040FFF7BABFFFF7CCFFD3
:101EB0000028F6D010BD00BF226900202DE9F047B0
:101EC000854F06463B78002B4BD0002849D04FF079
:101ED00000094C46814D824B2A78011F03EB4218C2
:101EE0003C3051F8042F13B2002BB8BF5B429BB2B9
:101EF00012149C42B8BF1C46002AB8BF524292B28C
:101F00009145B8BF91468842EBD1DFF810A2DAF8CC
:101F10000030002B0FDA402C02DCB9F1400F0ADD53
:101F20004C45ACBF002101214B4622466D48CAF802
:101F300000101FF0CDFDDAF80030002B70DBDCB2B2
:101F4000002356F82320002C6FD112B228F813205A
:101F50000133102BF5D12B780133DBB2042B66D87B
:101F60002B70614A614813786149DFF8B491002B06
:101F70000CBF8046884683F001031370D9F8003007
:101F8000002B00F08C809A6814885A68A4B2B2F8CA
:101F900000A09A891FFA8AFA564B544519784FD8EF
:101FA000AAEB0405ADB2002950D0544577D0DFF834
:101FB00064A1DAF8001049B1D9F800302A469B89AB
:101FC0004D481FF085FD0023CAF80030C446D9F8FB
:101FD00000504FEA841E2B6803EB841303F1400981
:101FE000624618685968083303C24B459446F7D1D6
:101FF000286840220021704422F00BFFAB89013495
:10200000B4FBF3F103FB1144AA68A4B23B4B148068
:10201000D3E8EF1F0131C3E8E21F002A1DD0F7E724
:102020004C45ACBF002401248AE712148EE700233C
:102030002B70334B1B68002B93D02948984790E7AF
:102040000AEB02052D1BADB20029B0D1042D1FD81B
:1020500040220021404622F0DCFE3B784146002B26
:1020600014BF3046002000F0B3F9014688B3254B79
:102070001A680132052A1A6005D93220B2FBF0F342
:1020800000FB13232BBBBDE8F0471F481FF020BD0A
:1020900001211E48197029461FF01AFD85E74022CC
:1020A0000021404622F0B5FE194BD3E8EF1F013165
:1020B000C3E8E21F002AF8D1164B17481A6801320C
:1020C0001A60D0E8AF2F19689142C6D91EF052FDB0
:1020D000C3E7BDE8F08700BF26690020256900201E
:1020E000386700201F68030023690020FC47002098
:1020F000BC4700202469002079680300B447002011
:10210000C0480020A8470020A968030055680300C4
:10211000B8470020B0470020AC470020C001002095
:10212000BC480020002101481EF024BDB847002013
:10213000002108B5074B08481970084B19601EF0BC
:1021400019FD07481EF016FDBDE8084005481EF0C1
:1021500011BD00BF24690020B8470020B04700200F
:10216000B4470020AC47002037B502466C460B460A
:10217000134903C984E803001046F2B1EBB1114DD5
:102180002A7812B1002003B030BD0F4A10600F4A08
:102190002046136001F01AF90028F4D19DF80020C0
:1021A0000B4B1A70019B5A1C032A28BF4FF0FF33B8
:1021B000084A136001232B70E4E76FF01500E2E793
:1021C0009058020028690020BC480020C048002028
:1021D00026690020C001002070B52C4B1B78002B15
:1021E00050D02B4E3378002B4AD12A4800F07AF891
:1021F00000F07EF8044628B1014627481FF068FC2D
:10220000204670BD014640222448254D22F001FEA3
:1022100021464022234822F0FCFDFFF789FF2B785E
:102220002148002B08BF00201C4900F0ABF80446F1
:1022300010B101461D48E1E72B781D48002B08BF6F
:102240000020184900F0C4F8044610B101461948AE
:10225000D4E701F0FDF8044630B1014616481FF0FE
:1022600037FC00F0D7F8CBE7144B2978144A15480F
:1022700000290CBF114619461FF02AFC01233370B8
:102280000024BDE74FF0FF34BAE700BF2869002003
:1022900027690020BD1E0000E4680300FC47002001
:1022A00026690020BC4700207C480020FF6803000E
:1022B0003C4800201B6903003E690300DE68030000
:1022C000E16803006D690300012908D138B1044AAF
:1022D000126822B1D0E9000100B901B1104770477E
:1022E000C4480020014B1860704700BFC44800205C
:1022F00037B51D4D2B78002B34D14FF0502449F6C3
:10230000A633C4F85C350123A361D4F8203153B15E
:102310000021164801AA20F0B7FF002808DA6FF064
:10232000040003B030BD0021212022F081FBECE746
:10233000019B0F4A1979186809F088FC02460028A9
:10234000EDD10121282003F091FC282003F05EFC50
:10235000084A094909480AF009FF094B9842DED1A9
:1023600001232B700020DCE729690020685C020053
:1023700000800250C9220000C4010020EC010020AE
:102380000000AD0B1FB50F4C2378012B13D100B902
:1023900089B11023CDE9010100220B4801A9ADF854
:1023A0000C300AF0B5FF094B984207D102230020F8
:1023B000237004B010BD6FF01500FAE76FF0040051
:1023C000F7E700BF29690020EC0100200000AD0BF9
:1023D0001FB50D4B1B78022B13D100B989B1102307
:1023E000CDE90101094801A9ADF80C300BF004F862
:1023F000074B984214BF6FF00400002005B05DF851
:1024000004FB6FF01500F9E729690020EC010020BA
:102410000000AD0B10B5054C2378022B04D1044805
:102420000BF02CF80123237010BD00BF2969002098
:10243000EC010020034648F6D870834206DD4AF2DC
:1024400073729342CCBF4AF2747098B2044B1A88EC
:1024500082421EBF18804FF05023C3F85C057047BE
:1024600058060020F8B507460446002507F8141B57
:1024700019481EF089FB022965610E467D60E56101
:10248000258415D003291ED0012E2946134805D0D6
:102490001EF07AFBC4E902552582F8BD1EF074FBDC
:1024A000C4E9025525820E48BDE8F8401FF010BB74
:1024B00029460A481EF068FB61680A482582BDE883
:1024C000F8401FF005BB012104481EF05DFB064BE0
:1024D000064819882582F2E7C8480020CC48002029
:1024E0009F690300AE69030058060020CC69030011
:1024F0002DE9F0418AB02422002101A822F089FCB4
:1025000049F6A6324FF050230292D3F85C357F4E45
:102510009BB2002B08BF13467D4FDFF810827D4D24
:1025200033804FF0FF324FF0FF33384618F098FFFA
:10253000002140461EF028FB044648B149F6A63368
:10254000284602931EF020FB01A8FFF78BFFE8E767
:10255000D5E8EF3F012B03D1C5E8E24F002AF7D1C0
:10256000DFD16D4BD3E8AF2F9DF825009DF82410E7
:102570000328089B1FD80DF1280C0CEB410C1344C9
:1025800001302CF8102C08938DF82500013101F052
:1025900003018DF824109DF82510089B012938BFF0
:1025A0000121B3FBF1F39DF804100329B9D8DFE84A
:1025B00001F00E103C760AA800EB410030F810CC78
:1025C00020F8102CA3EB0C0313440893DEE7012141
:1025D000BAE7039B1A44049B03920133132B049321
:1025E0009FD992FBF3F30A22C3F1020353435B101A
:1025F00083EAE372A2EBE372082AC8BF1C4640F2EA
:102600004B12464B49F6A630634393FBF2F3182B6B
:10261000A8BF18236FF017029342ACBFC0188018F0
:102620000290FFF707FF02218EE70A22C3F102039F
:1026300053435B1083EAE372A2EBE372082AC8BF3C
:102640001C4640F24B12354B6FF01700634393FB6F
:10265000F2F3182BA8BF1823029A21468342ACBF7D
:10266000D0181018FFF7E6FE32882D481FF030FA18
:1026700084EAE473A3EBE4730F2B01DC032163E72B
:102680009DF815300133DBB2092B8DF815307FF63C
:1026900048AF214623481FF01BFA002154E70A22C5
:1026A000C3F1020353435B1083EAE372A2EBE372CC
:1026B000082AC8BF1C4640F24B12184B6FF0170097
:1026C000634393FBF2F3182BA8BF1823029A8342AB
:1026D000ACBFD0181018FFF7ADFE84EAE473A3EB8B
:1026E000E473202B0DDD9DF814300133DBB2022B97
:1026F0008DF814307FF615AF21460B481FF0E8F92E
:1027000091E700238DF814300BE700BF5806002036
:10271000A8070020D4480020D048002018FCFFFF64
:10272000E86903000B6A03003A6A0300F401002021
:1027300010B588B000220023CDE906230023012232
:10274000094CCDE90323CDE9013300934FF48062B6
:102750002046064B064919F065F92046054908B0A0
:10276000BDE8104019F0E8B878170020F124000007
:10277000D8980020656A030010B5074C0146204632
:102780001EF002FA0121201D1EF0FEF9BDE81040E6
:10279000024818F02BBE00BFD0480020A807002038
:1027A00008B5012103481EF0EFF9BDE808400248D2
:1027B00018F01CBEF4010020A80700200048704754
:1027C0007807002008B50023094A1370094A1360EE
:1027D000094A1360094AD2E8EF1FC2E8E03F002827
:1027E000F9D1FEF7DDFCBDE8084005481FF070B9DF
:1027F0002B690020DC480020D84800209C4700209E
:102800006E6A030038B50A4600EB41050446002114
:10281000A5420DD1B1F5967F2C4C13DA2378012B0C
:102820003CD0022B46D0002B3DD1294B002239E071
:1028300034F9023B002BB8BF5B421BB29942B8BFD0
:102840001946E5E70146234800F0DAF82378012B22
:1028500022D0022B28D033BB0028E6DD1C491E48BD
:102860000A680068013282420A601CDB01220B60A8
:102870001A4B2270D3E8EF1FC3E8E02F0028F9D1EC
:10288000FFF78EFF164B186808B118F0AFFDBDE8D2
:10289000384014481FF01CB9002804DC0223012230
:1028A0002370114B1A6038BD002803DD012323700B
:1028B0000D4BBBE70C4A1368013313600B4A1268D7
:1028C0009342F0DBBDE83840FFF77CBF2B69002066
:1028D000DC480020EC480020E44800209C47002011
:1028E000E84800207D6A0300D8480020E048002026
:1028F0002DE9F3411C4C054620460E4617469846E6
:1029000000F030F968BBC4F8F002294620461EF0FA
:1029100043F928B16FF01504204602B0BDE8F081FC
:1029200020464FF47A511EF041F904460028F1D1B7
:102930000E4B32461E600E4B29461F600D4BC3F8EE
:1029400000800D4B18700D4B18600D4B18600D4B2F
:1029500018704FF496730C4800933B461FF0B8F87C
:10296000DAE76FF00404D7E7EC480020E4480020E1
:10297000E0480020E84800202B690020DC480020C7
:10298000D84800202A6900208D6A03009F29034649
:1029900070B512D80B4C0C4D26784A0001FB06F09E
:1029A000194605EB400022F00DFA16B901232370F9
:1029B00070BD0023A02128462370BDE87040FFF7BA
:1029C00021BF00BF2A690020D867002010B5084C3D
:1029D0002378013B012B01D8FFF7F4FE0023054AC1
:1029E00023701360044A1360044A137010BD00BFC3
:1029F0002B690020DC480020D84800202A690020EC
:102A000038B508B91FF0C6FF0A24D0F8F0520D4BB4
:102A100053F825305C43A24207D014245C43A24201
:102A200003D01E2463439A4209D1074B53F8253043
:102A300098470028E6DB14BF0120002038BD4FF086
:102A4000FF30FBE7A05C0200905C0200032966D81F
:102A5000DFE801F00220374E324B1A689B88C0F83D
:102A6000C422A0F8C832304B1A689B88C0F8CA222A
:102A7000A0F8CE322D4B1A689B88C0F8D022A0F85F
:102A8000D4322B4B1A689B88C0F8D622A0F8DA32D1
:102A900000207047274B1A689B88C0F8C422A0F812
:102AA000C832254B1A689B88C0F8CA22A0F8CE32DB
:102AB000224B1A689B88C0F8D022A0F8D432204B51
:102AC000E0E7204B1A689B88C0F8C422A0F8C832FF
:102AD0001D4B1A689B88C0F8CA22A0F8CE321B4B47
:102AE0001A689B88C0F8D022A0F8D432184BC9E7E6
:102AF000184B1A689B88C0F8C422A0F8C832164B3D
:102B00001A689B88C0F8CA22A0F8CE32134B1A6804
:102B10009B88C0F8D022A0F8D432114BB2E74FF016
:102B2000FF3070471A590300145903000E5903006F
:102B30000859030002590300FC580300F65803002B
:102B4000F0580300EA580300E4580300DE5803007D
:102B5000D8580300D2580300CC580300C6580300CD
:102B6000C058030010B5044610B94FF0FF3010BD37
:102B7000012300210360C0E945111022043022F036
:102B800048F904F114001EF0A5FB2D4B04F1B4022A
:102B900003F1180153F8040B8B4242F8040BF9D1EE
:102BA000284B04F1CC0203F1180153F8040B8B42BB
:102BB00042F8040BF9D1244B04F1E40203F11801AB
:102BC00053F8040B8B4242F8040BF9D11F4B04F16C
:102BD000FC0203F1180153F8040B8B4242F8040B7A
:102BE000F9D142F2107104F5ED7304F29A2223F840
:102BF000021F9342FBD10021C02204F58E7022F007
:102C000008F90021124B2046C4E9A733C4F8A812E2
:102C1000C4F8AC12A4F8B012C4F8B212C4F8B612D8
:102C2000A4F8BA12C4F8BC12C4F8C012C4F8A43292
:102C3000FFF70CFF002898D12A23C4F8EC3296E75E
:102C40006859030050590300385903002059030004
:102C5000400640062DE9F04F00F53777A9B03B4616
:102C6000164604461EF0A4F818220021A4F8E80233
:102C700005461CA822F0CDF81822002122A822F037
:102C8000C8F8502E22D1B4F9C4320893B4F9CA322C
:102C90000193B4F9D0320693B4F9D6320A2D0793D2
:102CA0002EDD4FF0000B22AB0493AE4B0DF17008FC
:102CB0000993CDF814B0CDF808B00025029B2E463C
:102CC000A7F5377A4FEA4309039529E0A02E0BD1E7
:102CD000B4F9C6320893B4F9CC320193B4F9D232C4
:102CE0000693B4F9D832D9E7B4F9C8320893B4F9E5
:102CF000CE320193B4F9D4320693B4F9DA32CDE787
:102D0000B4F91831002B00F31A8200260023A4F82E
:102D10001A313046266029B0BDE8F08F01230393B5
:102D200010ABBAF9E420BAF9B4104B44B7F900007B
:102D30001EF0FEF88C4B0CAA33F90930BAF9CC100E
:102D40005843039B064442F8230016ABBAF9FC2013
:102D50004B44B7F900001EF0EBF8844B039A33F9AB
:102D600009300AF10C0A58430EAB43F8220005441F
:102D700009F10C09002AD1D0002E40F0DA80002D94
:102D800000F0E58085EAE573B3FA83F31F22013B87
:102D90001BB20999D21A31F9023B0991059902FB3C
:102DA00003130593069B46F30F31B3EB820FB8BFB5
:102DB0004FF0010B002940F3CD800C986C4B03EAD7
:102DC00080001EF009FAA8F80000C0F58040A8F8BD
:102DD0000C0045F30F3100290ADD654B0E9803EA1C
:102DE00080001EF0F9F9049B1880C0F5804098819E
:102DF000029B08F1020801330293049B023702335D
:102E00000493029B062B7FF458AF059B079A4FF063
:102E100000089342B4BF5E464BF00106554B36B2F4
:102E20000A93554B04F1B4050993544B07934FF49F
:102E300048534246B5F92812204604931EF0E0F8A4
:102E40004FEA48030693484B074603EB48031A46EC
:102E50000021284602931DF0C8FE9A224FF4207AE2
:102E60008011C0EB071010FB02F0C0F34F23059355
:102E7000434BC8EB48270393049BFF01534407F5DA
:102E800010571BB2DDF81890A5F1B40BBFB20B932D
:102E9000BBF9FC30BBF9B400BBF9CCC0BBF9E41002
:102EA0000493002E6ED0059B41F69A1E184400B282
:102EB0005045B8BF50463BB29842A8BF184622AB17
:102EC00039F9031016ABABF8B40039F90300039AD3
:102ED00001FB00F3DB1213FB0EF35B150133B2F9B8
:102EE00000E00CEB63031BB27345B8BF73460B9A4B
:102EF0000CF1040C9342A8BF1346ABF8CC30B5F8E4
:102F00002832BDF81020A3EBEC0313FB00F3DB1019
:102F10008810A3F58053584302EB82010011490049
:102F2000002809B263DC404204921EF055F9404289
:102F300060E086EAE672B2FA82F2013A12B23DB17C
:102F400085EAE573B3FA83F3013B1BB221E71F2245
:102F50001F231EE74FF48043A8F8003039E74FF4F1
:102F6000407A95E7D8590300985903008059030027
:102F700000C0FFFFB0590300C0590300CC59030043
:102F8000BC59030040F28F2E1CAB33F90930059A6F
:102F9000049310AB39F903C0049B03FB0CF3DB1261
:102FA00013FB0EF300EBA35313441BB25345B8BFFE
:102FB00053460FFA87FE7345A8BF7346ABF8B4308B
:102FC000B5F82832A3EBE00313FB0CF30498DB10F5
:102FD00002308010A3F5805358438013002800F37B
:102FE0009C80404204911EF0F7F8404298E0049221
:102FF0001EF0F2F800B2049A803040F30720024439
:1030000012B2B2F5C07FB8BF4FF4C072ABF8FC206B
:10301000039B80370233BAF5407F0BF10C0BBFB234
:10302000039309F10C099AD10021029A28461DF058
:10303000DCFD069B454A05F1180A13441A4607466B
:10304000002150469B461DF0D0FD079BC0F34F2248
:10305000814633F9020BC7F34F210793531A1BB272
:10306000834215DA0144891A09B201EB410701EBE9
:1030700087015A4641F38F0150461DF0B6FDB91045
:1030800049428146029A284609B21DF0AEFD074624
:10309000099A32F9023B09924FEAE91249F3CF1932
:1030A0004B4508DA298B9A1A11FA82F12983A98CE7
:1030B00011FA82F2AA840A98F91130F9022B47F327
:1030C000CF1797420A9008DD521A298811FA82F127
:1030D0002980A98911FA82F2AA8108F10108B8F1C0
:1030E000060F05F102057FF4A4AED4F814310133C4
:1030F000C4F81431002E3FF403AEB4F81A31013392
:103100001BB2062BDBBFA4F81A31089BA4F81A8166
:103110000193019BA4F81831FBE504911EF05CF8C3
:1031200000B20499203040F38910084400B2B0F591
:10313000C07FB8BF4FF4C070ABF8E40068E79BB243
:103140009E1C013B36B2A4F81831DFE5805903001C
:103150002DE9F04743F6D72C002540F6EA3642F237
:10316000984A49108D4215DB0646002740F2353C4F
:1031700041F2DE7E43F25E088F4234DB002547F6E3
:10318000FF7C3A4E02F1020E8D4200F1100053DB3B
:10319000BDE8F08750F83580D3F804E01F68A8EB4D
:1031A0000E0404F50054A41306FB0474C3F8008055
:1031B000D3F808805C60A4EB08095FEAA93948BF2E
:1031C00009F101090AFB09EEDC68AEEB0404A41363
:1031D00048BF01340CFB0484C3E902E4641040F8E6
:1031E00035400135BEE7D6F804A0D3F81490013776
:1031F000AAEB090404F50054A5131C69C3F810A038
:103200000CFB05449D695C61A4EB050A5FEAAA3AE0
:1032100048BF0AF1010A0EFB0A99DC690836A9EBDE
:103220000404A41348BF013408FB0455C3E9069500
:103230006D1046F8045C9FE750E90234234450E9DE
:1032400004473C44E413B442B8BF3446DB1364453E
:10325000A8BF6446B342B8BF33466345A8BF6346C0
:1032600022F815402EF8153002358DE70080FFFF5B
:103270002DE9F74F8946019240F20A38002240F2C8
:103280003F4C45F6F52143F2672440F2B916DE279C
:10329000DFF894E0234D09F1040A019B9A4202D120
:1032A00003B0BDE8F08F03680C3008FB03FB50F857
:1032B000083C0BF5804B0EFB03BB50F8043C0CFBA9
:1032C00003BB036801FB03BB436804FB03BB8368C8
:1032D00005FB03BBC36806FB03BB036907FB03B322
:1032E00049F8323050F8083C07FB03FB50F8043C27
:1032F0000BF5804B06FB03BB036805FB03BB436870
:1033000004FB03BB836801FB03BBC3680CFB03BB6B
:1033100003690EFB03BB436908FB03B34AF8323071
:103320000132BAE739F1FFFFFEF7FFFF10B588B0B1
:103330000DF10703029301230022CDE90513039346
:1033400007238DF807008DF810208DF81C300748F2
:103350009DF81C30826843F002038DF81C3094689D
:103360001823022202A9A04708B010BD2054020071
:103370001FB502238DF800008DF80110CDF804D0A0
:1033800002938DF80C3007489DF80C30826843F0AA
:1033900002038DF80C3094681823012201A9A0477C
:1033A00004B010BD2054020010B5014604461020A0
:1033B000FFF7DEFF30B921461120FFF7D9FF08B92A
:1033C000014B1C7010BD00BF5D06002037B50546DF
:1033D00060B3184820F0BBFF38B917481EF078FBDF
:1033E0006FF01204204603B030BDFF200DF107013D
:1033F000FFF79CFF044620B1014610481EF068FB11
:10340000F0E79DF80710422905D00D481EF060FB3B
:103410006FF00404E6E701230A4A2B706B600A4B45
:103420001146187009481EF053FBDBE76FF01504D6
:10343000D8E700BF20540200D06A0300EB6A030003
:103440000D6B0300326B03002C690020386B030006
:1034500030B55E4D85B0297819B10024204605B0FD
:1034600030BD17208DF80F10FFF782FF044620B102
:10347000014657481EF02CFBF0E710210520FFF70E
:1034800077FF044610B101465248F3E78021062039
:10349000FFF76EFF0446014608B14F48EAE70720F0
:1034A000FFF766FF044610B101464C48E2E70021F1
:1034B00040F6CD4021F0BCFA20460DF10F01FFF798
:1034C00035FF10210820FFF753FF044610B10146D5
:1034D0004348CFE710210920FFF74AFF0446014681
:1034E00008B14048C6E70A20FFF742FF04460146FC
:1034F00008B13D48BEE70B20FFF73AFF044610B184
:1035000001463A48B6E730210C20FFF731FF044668
:1035100010B101463648ADE733210D20FFF728FFF3
:103520000446014608B13348A4E71220FFF720FF04
:10353000044610B1014630489CE72E211320FFF7C6
:1035400017FF0446014608B12C4893E71520FFF702
:103550000FFF044610B1014629488BE710211420C3
:10356000FFF706FF044610B10146264882E7022114
:103570001620FFF7FDFE044610B10146224879E708
:10358000224B1878FFF710FF044610B1014620487F
:1035900070E78F211720FFF7EBFE044610B10146BC
:1035A0001C4867E72E2310221B49CDE90032034651
:1035B00033221A481EF08CFA9DF80F10880702D4A7
:1035C00017481EF085FA01232B7046E72C6900206E
:1035D000666B03008B6B0300AD6B0300D56B0300C0
:1035E000FE6B0300246C03004A6C0300726C030042
:1035F000956C0300B76C0300D96C0300FE6C0300EC
:10360000236D0300486D03006C6D03005D06002010
:103610008B6D0300AB6D0300326B0300CE6D0300B6
:103620002D6E0300F8B50021064615276FF0004205
:10363000114B124D1B7835F8134004EB400424B2B3
:1036400035F9023B1B1B002BB8BF5B429342B8BF4E
:10365000CFB201F10101B8BF1A462829F0D138468E
:10366000FFF7A2FE044620B93A46314604481EF050
:103670002FFA2046F8BD00BF5D060020E459030084
:103680006A6E03002DE9F04F91B0009302F004033D
:103690000293C2F3C2030133840705460E46DDF8E8
:1036A00068800392059340F0BB81041D30B1072967
:1036B00009D86FF01B0011B0BDE8F08F01F00706CC
:1036C0003444C6F10806009B4FF000094FF0040A8D
:1036D000591E4FF0FF334F460193CB465346CDF86A
:1036E00010900DB1009820600598002800F3E88044
:1036F0009848009A824203D397488242C0F0E08003
:10370000039AA4EB050E92074FEA9E0000F1038195
:103710000F2F00F2B180002D00F0058107F140026B
:103720000DEB020C019A0CF8200C0CF8102C0498EC
:1037300001300490E7E07A285DD84B280ED847285E
:1037400059D829282DD8252852D054D820287AD0C5
:103750002338D0F1000B4BEB000B74E04C382E28D3
:1037600049D8DFE800F07048484848484848484889
:1037700048484B484848484848484859484B4B599E
:103780005959704B6D487048184B184848827F4B08
:1037900048484B487F0000204FF0000B4FF0040AD0
:1037A00038E001222A38C0B202FA00F010EA0E0F07
:1037B00049D110F0625C2FD110EA020B43D0604671
:1037C000013C5444B4FBFAF40AFB04F4002D61D02C
:1037D000A3EB050CA444B4453FF66BAF002868D1B9
:1037E000042B47D158F8043B2360042304342AE017
:1037F000019A013A01924FF0000B24E011F8010CFC
:103800006C2834D1002011F8023C83466C2BC5D1C2
:103810004FF0080A5346D3E708F1070828F00708D5
:10382000073424F00704F8E802AB35B106982044C9
:10383000B0423FF63EAFC4E900AB4FF0000B083496
:103840004FF0080A534611F8010F002878D0BBF159
:10385000000F7FF470AF2528F5D14FF0010B019BCD
:10386000013301934FF0040AECE7584694E7002037
:103870008346A5E7082B02D06FF015001BE708F17F
:10388000070828F00708B8EC027B84ED007B0823CA
:103890000834D8E768B9042B02D108F10408A4E77A
:1038A000082BE9D108F1070828F0070808F10808F3
:1038B000EDE705980138059058F8040B009010E7E3
:1038C000039A900720D54FF0010CA4EB050E4FEAA8
:1038D0009E00BEF5007FCFD20F2FCDD8F5B107F1F6
:1038E00040020DEB020E019AC0B20EF8200C0EF849
:1038F000102CBCF1000F3FF41AAF60F07F000EF8FF
:10390000200C09F101090137C5F108024FF6DA7EF2
:103910000434069297E74FF0000CDAE7BCF1000F91
:1039200001D00136EFE7029A0236002AEBD1009867
:10393000CDE90631FCF73AFCDDE906310644E2E761
:10394000631BB3F5806F97D245B9A6F10804E01860
:10395000B1E600BF305202004C9A0300029A9B0865
:1039600028602B709DF81030C2B1EB7085F8029082
:10397000B9F1000F05D0002208A8C5F1010C97424B
:103980000ED14FF0000AC5F101030DF1200801939B
:103990000DF1300B574512D1601B8CE66B70E5E7DB
:1039A00010F8013B190608D50CEB040EB64503F0E0
:1039B0007F033FF67EAE04F8013B0132DFE7B9F149
:1039C000000F03D098F90020002A17DB029BD3B127
:1039D0001AF80B2004F8012B0022019B181910443F
:1039E000B0423FF666AE98F80000009904F8010B6B
:1039F0002046039221F0E6F9039A14440AF1010AE1
:103A000008F10108C6E798F8002055F82230009325
:103A1000029B009845F82230FCF7C8FB421CDCE70B
:103A20006FF00D0047E600BF2DE9F04F97B000AFF3
:103A3000D7F880B03B62CBF3C0030446894690F8C8
:103A400002A0FA62BB6141B9457800780AEB8000B8
:103A500020444D4517D8A0EB0409E378FB61BAF187
:103A6000000F02D01BF0010F16D1FB6953BBFB6A9C
:103A70001BB1494620463A6A98474D4628465C376E
:103A8000BD46BDE8F08F461C3046FCF78FFB013089
:103A9000304409F10109DCE7626823787A62FA6A46
:103AA0009900796104EB8301002A40F001810E4600
:103AB0004FF000084D4601EB0A094E454CD101EB91
:103AC0000A0610E01BF0020FD1D023789A007A6129
:103AD000626804EB83017A62FA6A002A77D14D4664
:103AE000904601EB0A061BF0050F0CBF02230123D1
:103AF000FB62FB6906EB430A0BF00203BB6256450F
:103B0000BCD016F8021B16F8013C54F82390994BD0
:103B1000994502D3984B994536D3BB69002B40D0C9
:103B2000786A1DF0ACFF00283BD0E9468AB06A46AF
:103B3000924B53617B6AC2E906314FF400731384E0
:103B40008F4B42F8103F00234FF412518D4801F083
:103B5000B7F8023DCD46D2E716F8013BF96254F8BA
:103B60002300FCF723FBD7F88430F96A01304BB10E
:103B7000D7F8883098453EBFD7F8843023F818002E
:103B800008F10108054498E7BB6923B1786A1DF084
:103B900076FF0028C9D11BF0010F05D1FB6AED1A91
:103BA000ADE7BB6A002BAAD04846FCF7FFFAD7F86E
:103BB000843053B1D7F8883098453FBFD7F8842078
:103BC000431C22F8183008F10108054497E7BAF1C0
:103BD000000F73D01BF0040673D0D046002607F107
:103BE000480052463B61B96221F0ECF8B96A3B6982
:103BF00001EB0A02BA62FA69F9695200FA60BA6A1C
:103C000002EB41023A610BF00202BA603A69B96A0A
:103C10008A4258D162781BF0020F18BF00217A62E5
:103C200008BF4FEA5801B2181BF0010FD2B240F0A2
:103C30009F801BF0040F14BF40460020BB616270E0
:103C4000A070E17020463A6A7969FB6A9847051EC0
:103C5000FFF614AFBB69414623707B6A3A6A637012
:103C6000FB6984F802A0E37007F14800FB6A9847FB
:103C7000B0F10008C0F2BA807B69A9EB0A01C91A49
:103C8000FB683A6AC91AD7E90A0398470028C0F2C4
:103C9000AF804FF0000BA84408EB000507F1380A8D
:103CA000B34571D300213A6A0846FB6A9847E5E6B6
:103CB00056464FF0000807F1380092E75646D046C6
:103CC00096E7B04694E7BA6A12F8021B12F8015C54
:103CD000BA6254F82500274A904202D3264A9042FD
:103CE0001ED3BA6932B1786A7B601DF0C8FE7B686A
:103CF00000288BD1BA6802BB08F1280207F1300C0A
:103D000008F10100944407F1580208F1020852FA40
:103D100080F00CF8101C5FFA88F800F8105C75E76A
:103D2000BA693AB1786A7B601DF0A9FE7B68002809
:103D30007FF46CAF1BF0010F09D006F1280207F1E8
:103D40003000711C161806F8205CCEB25EE71BF03E
:103D5000040F3FF45BAF08F1280207F1300008F1CF
:103D6000010102EB000808F8105C5FFA81F84DE7EA
:103D7000002063E7305202004C9A0300866E030075
:103D800004000001B05702001BF80A3054F82390D9
:103D900087F83730D7F884302BB3D7F888309B4575
:103DA00021D2D7F8843033F81B8001213A6AFB6AAC
:103DB00007F13700984700281ADB0544B8F1000FD7
:103DC00006D14846FCF7F2F900F101081FFA88F81D
:103DD000414648463A6AFB6A9847002808DB054492
:103DE0000BF1010B5CE74FF00008DEE7454645E6C6
:103DF000054643E6014B1860704700BFF8010020FC
:103E000080B505460E461746984618F0D1F8034689
:103E100021F004FA0446DFF81890424649F80030D1
:103E200039463046A84754F8090001F075FE00BF36
:103E3000080000002DE9F047058B0446280790464E
:103E400011D4022905F0070540F0CC8020461EF071
:103E5000C4F878B10138218B042811D8DFE800F0CC
:103E6000C2106D85950001290CBF45F0100545F085
:103E70002005258388F31188BFF36F8FBDE8F08795
:103E800001F0070AAA4500F0A5800027B9463E4682
:103E9000A368002B00F0BC8041F00801218388F367
:103EA0001188BFF36F8FA168002900F0BA800D68F8
:103EB000002900F0B680334652462046D1F80480EF
:103EC000C047002D76D02B6829461D46F0E701F04B
:103ED00007035A1F012A1BD8002221F00701062BD5
:103EE000276889B2C4E9002209D13B4603E0628B0E
:103EF000013262831B68002BF9D141F00201204698
:103F000021831EF06AF800287AD041F0200176E083
:103F1000042B0AD121F0070189B2204621831EF02B
:103F20005CF810B141F020012183218B01F0070AD8
:103F3000AA454FD00027B946AAE7236921F0070117
:103F400041F00601062DD3F8009021832DD1B9F15F
:103F5000000F3FD041F00801218388F31188BFF39F
:103F60006F8F20463949C84729E021F007012369AE
:103F700041F0040189B2042DD3F804902183E6D0E6
:103F800000274FF0040A3E4682E721F0070123692B
:103F900041F0050189B2052DD3F808902183D6D0D0
:103FA00000274FF0050A3E4672E700274FF0060A49
:103FB0003E466DE72B4687E7B9F1000FD1D1EFF30D
:103FC0001188202383F31288BFF36F8F238B23F094
:103FD00008032383258BEA062ED525F010032383BF
:103FE00005F007056669218B002EBFF670AF002330
:103FF0002768C4E9003321F0070141F00101218362
:10400000218B4FF0000901F0070AAA457FF440AF69
:10401000002F9CD041F00801218388F31188BFF361
:104020006F8F002FC8D03D68394633465246204630
:104030001DF0FFFF2F46F4E7AB067FF51BAF25F021
:104040002003238305F0070500E700BF5F2002007F
:1040500010B530B90B480C491EF0CBF86FF01500C5
:1040600010BD836833B9074808491EF0C2F86FF0E5
:104070000400F5E71B6813B1BDE810401847184667
:10408000EEE700BFD85702003A6F03004B6F030002
:1040900010B530B90B480C491EF0ABF86FF01500A5
:1040A00010BD836833B9074808491EF0A2F86FF0C5
:1040B0000400F5E75B6813B1BDE8104018471846E7
:1040C000EEE700BFD85702003A6F03004B6F0300C2
:1040D00070B508B101B132B90B480C491EF089F82E
:1040E0006FF0150070BD84680CB1E56835B90648FD
:1040F00007491EF07EF86FF00400F3E741F8040B67
:10410000E368BDE870401847D8570200696F0300A4
:104110004B6F030010B5044630B9104810491EF02B
:1041200068F86FF0150010BD006830B90B480D49F4
:104130001EF05FF86FF00100F5E783680BB11B69B3
:1041400033B9064808491EF054F86FF00400EAE756
:10415000616898470028E6D12060E4E7D85702005C
:10416000956F0300A66F03004B6F030070B51346F5
:10417000044630B9104811491EF03BF86FF01500A5
:1041800070BD006830B90C480D491EF032F86FF070
:104190000100F5E782680AB1956835B90648094912
:1041A0001EF027F86FF00400EAE70A46AC466168A3
:1041B000BDE87040604700BFD8570200956F03000C
:1041C000A66F03004B6F0300034A13680BB95268D4
:1041D00013600020704700BFFC01002030B50C4682
:1041E0000E4985B00291D0F8D4110546CDE90031D1
:1041F00000F1F0014FF0FF33204616F0B5FA50B948
:10420000012384F86C30D5F8D03123B1204605B0B5
:10421000BDE83040184705B030BD00BFEB220200BA
:1042200038B50C46114605461EF061F8034638B90C
:10423000284604491EF05BF803460020236038BD81
:104240000120FBE72F9903002DE9F04F0123814660
:10425000056946688FB005F57B77D7E8EF2F002A10
:1042600003D1C7E8E13F0029F7D10CBF1A4600226D
:1042700040F0BB80B368B16A05F5F8781C1F1046A2
:104280001EF0BCF8844279D8013A00F0A880B2FA56
:1042900082F24FF00044D44072682046073222F088
:1042A0000302C5F83C22B16A1EF0A8F8C5F8400226
:1042B000B36A40466343033323F0030302EB430234
:1042C000230103EB4403093323F0030303EBC4038B
:1042D000C5F834221A440832C5F830227368C5F88C
:1042E0003842C5F82C32424BC5E9AD63316800F065
:1042F000F1F9044600283FD1D9F810B0D9F804A04C
:10430000D9F800300BF53479059004934846DAE982
:104310000734012B08BF103C20F0B0FADAF8240073
:10432000344904AB009301EB8021234648464FF407
:10433000806217F055FA2021DAF824302E4A06A8B8
:104340001BF056FA06A9484617F0F6FA2B490BF56A
:10435000307020F04CFADAE9050183685C684CB1F2
:104360005B46274AA047044630B9DAE9050183686D
:104370001B692BB96FF05704002129E001327EE759
:104380000122984704460028F6D11E4B2846C5F85E
:10439000D0311D4BC5F8D4311C4B0393D5F84032B6
:1043A0000293D5F83C32CDE9008305F51173B26A6A
:1043B000D5F8E81300F056F904460028DCD105F1E1
:1043C000F00016F077FA0028C5F8F0030ADB0221A6
:1043D00038461DF0C0FF20460FB0BDE8F08F6FF0EB
:1043E0000B04C9E76FF01504C6E76FF07704F2E736
:1043F00041230200D89C0020CB6F0300272302003A
:104400001B23020011440000D32402008723020072
:1044100013B5044640B100230122CDE90032074B19
:10442000D0E9091216F074F9236F1B6823B1606F8D
:1044300002B0BDE81040184702B010BD2F9903002C
:1044400013B504460846216901F57B71D1E8AF1F19
:10445000022910D193B1A0B10121CDE90031134659
:10446000D0E9091216F054F9074B984208BF6FF0D3
:104470000B0002B010BD6FF00F00FAE76FF04C00B8
:10448000F7E76FF00100F4E72EF8FFFF2DE9F3479F
:1044900089461546066906F57B73D3E8AF3F022BC4
:1044A00064D1136823B96FF0150002B0BDE8F0873E
:1044B0001B78002BF7D0D6F8E8A3BAF1000F36D15D
:1044C00006F5EC774FF0FF324FF0FF33384616F029
:1044D00093FE30462A6801A9FFF7A2FE019C8046A0
:1044E0001CB938461DF035FFDDE705F108032367E9
:1044F000AB6984F86CA06367646460B138461DF0F2
:1045000028FF21463046A36E2A68FFF767FE002089
:10451000C9F80040C9E71F22296804F1480020F0CB
:10452000A2FC384684F867801DF013FFEFE73046A1
:1045300010491DF0DCFE04460028B4D0002705F128
:1045400008030367AB6980F86C70436740641F22FF
:104550002968483020F087FC22460121304684F843
:10456000677000F061F80028D1D09CE76FF00F0071
:104570009BE700BF2F99030010B50C46006900F5BA
:104580007B73D3E8AF3F022B0FD189B10A4900F505
:10459000307020F058F920461FF003FC78220021EB
:1045A000204620F036FC002010BD6FF00F00FBE726
:1045B0006FF00100F8E700BFE04B00202DE9F04F5D
:1045C00005460E4690460027D0F8C4A085B0AAF54F
:1045D000BE7421463046FBF7D7FDE0B9114BA4F17C
:1045E000480B0293DAF810303246CDE900832946B1
:1045F0004FF0FF335846AAF5E27916F0B5F860B9E6
:104600007823012203FB079383F86C20DAF80C303F
:104610000BB158469847783417B105B0BDE8F08F14
:104620000127D6E7012502001FB5144690B18AB1D3
:10463000012912D10A4B00F1F0010293D0F8D431D4
:10464000483201934FF0FF332046009316F08CF868
:1046500004B010BD6FF01500FAE70020F8E700BFC6
:10466000012502002DE9F04387B00E46DDE90E81F9
:104670001446DDE910251F4630B329B3DFF850C0DA
:1046800000F1F009002D08BF65469EB9CDE903444D
:1046900000F5E274204605961FF01BFE03ABCDE942
:1046A00000432A463B464146484616F07BF907B090
:1046B000BDE8F083002241460E9248462A4607B0E4
:1046C000BDE8F04316F0BEBA6FF01500EFE700BF8B
:1046D000BD450000F0B504462B4A87B004AB0E463A
:1046E00092E8030083E80300002C49D0184615F037
:1046F00015FF0546B0B94FF0FF33E16C04F15407E4
:10470000A163CDE9010000933846236D04F138021E
:104710001EF0F7FFA06C1DF022FFC4F8BC0020B90A
:104720006FF00B05284607B0F0BDA06C1DF017FF19
:10473000C4F8C0000028F3D0236CD4F8BC10C4F82F
:1047400090300423C4F89430C4F8AC300223E36200
:104750000E4BB4F84820C4F88C10616C236204F14D
:104760008C03C4F8A070A4F89820C4F8B870C4F8FA
:10477000A810A4F8B020C4F8A400A6612363D1E770
:104780006FF01505CEE700BF98580200DC5C020010
:104790002DE9F047044607464FF00109DFF8508045
:1047A00014B93846BDE8F08794FAA4F5B5FA85F552
:1047B00009FA05F32E0108EB05156FEA030A24EA4E
:1047C00003042B7B002BEBD058F806301B694BB948
:1047D0004644736804222846196807EA0A071DF050
:1047E00026FFDDE7284698470028D9D1F0E700BF2B
:1047F0003858020030B5002289B00F490F4820F028
:10480000EBF9002200230024CDE906230E230C4DF2
:10481000CDE903344FF440722846CDE90144094BF9
:104820000949009417F0FEF80849284617F084F863
:10483000204609B030BD00BF51480000682D00205F
:10484000681C0020654B0000D8A00020D76F030033
:10485000014816F0CBBD00BFC00700202DE9F0478E
:10486000804621480F461DF0C6FE0646002833D07C
:1048700000252846BDE8F087237B83B12368DB68E9
:104880000BB120469847636883F8069023681B693C
:10489000D3B963680422204619681DF0C8FE0136AA
:1048A00010345445E8D3B8F1000FE2D0002DDFD02A
:1048B0002846FFF76DFF0546002FF7D000214FF483
:1048C000A47020F0B5F8F1E7204698470028E0D022
:1048D00009FA06F31D43E2E705464FF00109034CD0
:1048E000DFF80CA0DDE700BF184C002038580200AC
:1048F00048580200014B53F8200070471C5D02002D
:1049000008B5034608462BB1044A136000F070FC5A
:10491000002008BD6FF01500FBE700BF2802002053
:1049200010B5044C237813B9034816F05FFD01233A
:10493000237010BD2D690020C007002010B504466B
:1049400009481DF058FE3CB1084BD3E8EF1F013970
:10495000C3E8E21F002AF8D1054820F049F9BDE874
:104960001040044816F042BD104C0020144C0020AA
:10497000682D0020C007002000200146034BD3E82B
:10498000EF0FC3E8E21F002AF9D17047104C002056
:1049900070B5FFF7F1FF0546074C084EB44200D34F
:1049A00070BD63685B792BB123685B6813B12946DE
:1049B000204698471034F1E7385802004858020062
:1049C00010B5044C044920461DF0A0F9034B1C60AF
:1049D00010BD00BF78060020085D0200084C0020D2
:1049E00000230D4A10B513700C4A4FF400411360B8
:1049F0000B4A0C481360FFF783FFFFF7E1FF0A4BF8
:104A00000A4918468B4200D310BD1A1A5C6812116D
:104A1000013222711033F5E72E690020104C00207E
:104A2000144C0020F32502003858020048580200B8
:104A300001460022002301481DF089B978060020B4
:104A400001481DF022BA00BF78060020024B014643
:104A500018681DF06EBA00BF084C002001481DF018
:104A6000A3BA00BF7806002070B5274B187800283D
:104A700049D0FFF7E5FF0546002841D1234B244CE0
:104A80001B68002B19DD20F060F84FF47A72A0FB50
:104A9000020302FB0131C30B43EA4143D4E9002086
:104AA0009B1A40F2E9324FEAD13161EB00019342A7
:104AB00071F1000101D3FFF76BFFD4E9003213F568
:104AC0007A7342F10002C4E90032BDE87040FFF79A
:104AD000C5BF63685B7923B12368294620461B68FC
:104AE00098471034B442F4D32846FFF7AFFF094B80
:104AF000D3E8EF1F0139C3E8E21F002ABED0F7E771
:104B0000054C064EEEE770BD2D690020104C0020CC
:104B1000602D0020144C0020385802004858020034
:104B200070B50D4D297861B90120FFF797FE0B4C48
:104B30000B4EB44206D3FFF797FF0028FBD10123A9
:104B40002B7070BD63685B791BB1236820469B683E
:104B500098471034EDE700BF2E6900203858020056
:104B60004858020000212DE9F0470846FFF776FE7D
:104B7000044658B340F267684FF0000920F04EFB3E
:104B80001B4B1C4A1B58136033B11B4B1B68092B72
:104B900002DD1A4816F02AFC0025194FDFF85CA048
:104BA00044B12046FFF7F4FD044618B94FF0FF3832
:104BB0004FF0FF39FFF758FF064628B9B5B942460E
:104BC0004B46504616F04CFC3546E9E74FF0FF38AF
:104BD0004FF0FF39D2E72B689B691BB100222846B2
:104BE000114698471035BD42F5D3E8E7054DFAE781
:104BF000080000000C4C0020144C0020C0070020CE
:104C0000485802003858020013B518481DF0F3FC4C
:104C1000174B1B7873B1EFF31184202383F31288B1
:104C2000BFF36F8FFFF720FF84F31188BFF36F8FFF
:104C300002B010BD0F4B1B68002BF9D050B90022F9
:104C400000230D48CDE900234FF40042002317F064
:104C5000C9FCEDE70928EBD107481FF0C9FF074859
:104C600002B0BDE8104016F0C1BB00BF144C0020DC
:104C70002E6900200C4C0020682D0020C007002069
:104C800010B5064B04461B6898472146A0600448AF
:104C90001DF0DCF8BDE81040FFF7B6BF2802002089
:104CA00078060020044A054B9B1AB1EBD30F34BFA2
:104CB00052F8310000207047505702003858020067
:104CC0002DE9F04F8FB0C1F34A2804AF0D4691464D
:104CD000B8607B600C0DB8F1000F63D000264FF078
:104CE000040B4FF00A0A07F11403C7F80C80C7E958
:104CF00007667E620193CDF808B0CDF800A007F1F9
:104D00001C0332464846F968FEF78EFEB0F5006F88
:104D100003461CD36C468AB0D9F8041004AB26486D
:104D20001A46C3E9050140F2FF71D9614FF40071E1
:104D30001984224B42F8103F4FF412513346204859
:104D4000FFF7BEFFA5462C37BD46BDE8F08FC0F388
:104D50000A0804F11700184420F0070080083B609F
:104D6000FFF766FE68F35325044690B13B6800F1F7
:104D70001001C7E9083607F11403F961CDE900A372
:104D8000CDF808B048460F4AF96807F11C03FEF752
:104D90004BFE68F353252A4620467B68B9681DF010
:104DA00065FCD0E704F1170020F007008008FFF74A
:104DB0003FFE0446EDE700BFEC6F03000400000176
:104DC000E0570200412602002DE9F04F87B004466B
:104DD000DDE9105ADDE91279934698460391BFB197
:104DE0003B46524610210020CDF80090CDF814909B
:104DF000FEF748FCB0F5006F06460AD340F2FF7399
:104E00000221174A174807B0BDE8F04F1DF087BCD4
:104E10003E4605F11700304420F007008008FFF7F8
:104E200007FE04F007040BF0070BE40044EA8B14C0
:104E300044EA462444EA0554054640B13FB13B46A6
:104E400052463146CDF800901030FEF71BFC434629
:104E500022462846039907B0BDE8F04F1DF006BC76
:104E60002B700300E0570200406820B1034BC01ACA
:104E700040F3CF0070474FF0FF30704750570200AB
:104E80000EB403B503AB53F8042B01460448019359
:104E900001F0DAF902B05DF804EB03B0704700BF2F
:104EA00081270200CA0605D48B064CBF024903497C
:104EB000FFF7E6BF704700BF2E9903002D9903004E
:104EC0002DE9F04F8BB09B46169B9DF854A006939E
:104ED000179B04460593189B0D469046199E049314
:104EE000BAF1000F00F09E8006F00103089306F06F
:104EF0000803079306F4807309931DF096FB06F0F0
:104F00000209024600283BD020468F49FFF7B8FF30
:104F10000746B9F1000F08D016F0440F32D12A46E7
:104F200020468A49FFF7ACFF0744089B53B1884BE2
:104F3000204653F82A20874B8749002A08BF1A4683
:104F4000FFF79EFF099B002B48D0079B002B62D1E7
:104F5000B8F1000F64D0424620468049FFF790FF29
:104F60000546069B3D44002B6BD1049B002B71D161
:104F7000F30700F1E28031462046FFF793FFD6E0C9
:104F80000746C6E7764B18680028CDD0754B4FF41E
:104F90007A791B684FF03C0CB5FBF3F5B5FBF0F1EB
:104FA0004FF4616300FB115509FB05F5B1FBF3F20A
:104FB000B5FBF0FE03FB121100FB1E55B1FBFCF329
:104FC00009FB05F5B5FBF0F50CFB1311204600912C
:104FD000CDE901E56449FFF753FFA5E7079BEBB176
:104FE000624B204653F82A206149FFF749FF0546E6
:104FF000B8F1000F05D0424620465849FFF740FF60
:105000000544BBF1000FACD05A4620465949FFF782
:1050100037FF0544A5E74FF0000BE1E7079DE7E701
:1050200045469EE7BBF1010F069B06D1002B64D1DC
:10503000049B002B7BD000250CE0002BF8D04E48C1
:105040005CE04E48069B22464D491CF0E7FC049B61
:10505000002B68D0DFF83881DFF83891049F3146A3
:10506000102F204628BF10274FF0000BFFF71AFF24
:105070005D4545DC059B494620461A78FFF700FF51
:105080004FF0010B1BF0070F03D141462046FFF7FD
:10509000F7FE5F453BD9059B4946204613F80B2098
:1050A000FFF7EEFE0BF1010BBBF1100FEAD14FF051
:1050B000000B20463349FFF7E3FE5A46059B204686
:1050C0009A5CA2F120015F2928BF2E222E49FFF70A
:1050D000D7FE0BF1010BBBF1100F1DD01BF0070F1A
:1050E00003D141462046FFF7CBFE5F455A46E5D83F
:1050F00041462046FFF7C4FEEBE720485546A1E7AE
:1051000041462046FFF7BCFE0BF1010BB0E72046FD
:105110001E49FFF7B5FEC5E7059B3B440593049B7D
:10512000DB1B04939AD1BAF1000F7FF421AF204624
:105130000BB0BDE8F04F1DF016BB2046054A0649EE
:10514000FFF79EFE17E700BF687003006C70030056
:105150002C5D020063700300FA7903009170030074
:10516000204C00201C4C002075700300405D0200A4
:10517000957003009B700300AF2702008127020097
:1051800049620000A6700300A8700300F7980300AE
:10519000F9980300A070030042F20F7373B58B42BD
:1051A00028BF0B4605680446052168460D4A1AF0DB
:1051B0001FFB0646636828460B225B680A491DF000
:1051C000C4FA63683246694628465B681DF0BDFA3A
:1051D00063681B2228465B6804491DF0B6FA02B0DA
:1051E00070BD00BF90770300C7700300AB70030071
:1051F00000210123064A904206D8064A01B901233C
:105200001360054B18607047012140085B00F2E70E
:1052100040420F001C4C0020204C0020F8B50D46E9
:105220000446064F4618B44201D12846F8BD14F88A
:10523000011BBB6801485B689847F4E7A053020074
:10524000014B036000207047885D020008B50448E8
:105250001CF03EFCBDE8084002481CF039BC00BF11
:105260000D71030042710300014817F09BBD00BFA0
:10527000885D020038B5044618B90F4B0F485B68CB
:1052800098476168B1F5683F10D0B1F5680F0DD04F
:105290000B4DA9420AD011F46861206807D001467D
:1052A00008481FF0CFF800232360656038BD142242
:1052B0001FF0AFFDF9E700BFF0050020707103009B
:1052C0002C5F5CA95051002008B560B34368B3F56A
:1052D000683F0ED0B3F5680F18D0144A934220D01F
:1052E00000684FF0FF324FF0FF3315F085FF58B1E3
:1052F00015E001220368D3E8EF1F002903D1C3E8BA
:10530000E02F0028F7D10AD1002008BD0368084A21
:105310001B7803F5807352F82330002BF4D0054836
:10532000F3E70548F1E76FF4E040EEE72C5F5CA996
:1053300000000350E98FFFFFEA8FFFFF08B520B39D
:105340004368B3F5683F09D0B3F5680F13D0114A2D
:1053500093421DD0006815F0C7FF14E000220368D7
:10536000D3E8EF1F012903D1C3E8E02F0028F7D1CC
:1053700009D0094808BD00210368084A1B7803F5D5
:10538000807342F823100020F4E76FF4E040F1E767
:105390000348EFE72C5F5CA9E98FFFFF0000035093
:1053A000EA8FFFFF10B5044618B91D4B1D485B6816
:1053B00098476368B3F5683F2FD0B3F5680F2CD0DA
:1053C000194A934219D1236803BB4FF0FF324FF0C3
:1053D000FF332146154815F01DFE08B923681BB997
:1053E0000F4B13485B6898471422002120681FF078
:1053F00010FD4FF46863636008E0B3F5683F0DD8B3
:105400003A2B03D040F6BA629342DED120681FF0F7
:10541000B4F8636843F03A03636010BD054AF3E7EC
:10542000F0050020707103002C5F5CA95051002032
:10543000967103003A00003A08B506494023142249
:1054400005481EF0F1FFBDE808400449044817F084
:105450006DBD00BF504C002050510020905D0200F7
:10546000A45D02002DE9F84F80460C4600AF0029EC
:1054700065D0D1E90012E9468AB0A3686D464FF0C5
:10548000050A2E463748C5E90723C5E9050146F850
:1054900010AF002332464FF421513348FFF710FC80
:1054A000D4E90312CD466369AD463048C5E9072308
:1054B000C5E90501C5F810A0002332464FF421517B
:1054C0002948FFF7FDFBCD46E3690121284A26481C
:1054D0001DF025F9264600254FF00A0ADFF8A0B096
:1054E000E946D6E908E0D6E90A138EB06A46C2F862
:1054F0001CE005F1010EC2E908E0A81CC2E90A019E
:10550000E91CC2E905B5C2E90C1342F810AF00234B
:1055100045F2400114480435FFF7D2FB102DCD466B
:1055200006F11006DCD1236E0121124A0E481DF04F
:10553000F6F8A3690121104A0B481DF0F0F8B8F104
:10554000010F07D1EFF305830C4A41460648103B93
:105550001DF0E5F82146404615F09AFBBD46BDE832
:10556000F88F00BFC371030020580200F2710300DE
:10557000217203007372030082720300B072030091
:105580003072030030BFFFF7FDBF00BF2DE9F041CF
:1055900005460B4EDFF83080324606EB0807CC1B81
:1055A000204608491FF00EFCA01942460021083C85
:1055B0001FF02FFCC5F8A84007F10800BDE8F081F6
:1055C000000000008C58020004000000054B9A699E
:1055D0009B689A421FBF044A536843F0805353604C
:1055E000704700BFE055002000ED00E070B52A4C88
:1055F00006460D4629482A491DF061F9A36ADB06D3
:1056000047D5264827491DF05AF91120A36A1C07DF
:1056100004D5224824491DF052F912201E4CA36AD9
:10562000990712D521491D481DF049F9636BA26AFB
:10563000120609D501211E4A18481DF070F81EB146
:10564000A36A23F08003A3621320134CA36ADE072E
:1056500004D5124817491DF032F91420A36A9C069C
:1056600004D50E4814491DF02AF915200A4B9A6AF0
:10567000D10658BF9A6A9A6A920642BF5A6A22F4C1
:1056800000525A629A6A42F0FF029A6200232B701B
:1056900070BD1020BAE700BF00ED00E02058020006
:1056A000C3720300D97203000C7303001F7303005D
:1056B000377303004D7303006C73030010B5244C63
:1056C000244925481DF0FBF8A36A99013ED52248DC
:1056D00022491DF0F4F81E20A36ADA0104D51E4801
:1056E0001F491DF0ECF81F20194CA36ADB0204D5FA
:1056F00019481C491DF0E3F80220A36A1C0304D5D5
:10570000154819491DF0DBF82120114CA36A5903F3
:1057100004D5114815491DF0D2F82220A36A9A0336
:1057200004D50D4812491DF0CAF82320084CA36A7D
:10573000DB0304D508480F491DF0C1F82420A36AF3
:105740006FEA03436FEA1343A36210BD1D20C3E752
:1057500000ED00E09B73030020580200B3730300C8
:10576000C6730300E07303000A7403002874030087
:105770004D7403006774030070B5294C06460D464E
:10578000284829491DF09BF8A36AD9043CD525482F
:1057900026491DF094F81720A36A1A0504D521485C
:1057A00023491DF08CF818201D4CA36A9B0512D5C7
:1057B0001C4820491DF083F8A36BA26A100409D588
:1057C00001211D4A17481CF0AAFF1EB1A36A23F449
:1057D0000043A3621920124CA36A590504D511484D
:1057E00016491DF06CF81A20A36ADA050ED50D488B
:1057F00013491DF064F81B20094A936A43F47F4360
:10580000936200232B7070BD1620C5E7A36A9B042A
:10581000F2D504480B491DF052F81C20ECE700BFFC
:1058200000ED00E02058020092740300A874030009
:105830000C730300B9740300D2740300E77403000F
:10584000027503006C7303002DE9F0419CB0624BBC
:105850000546D3F80480002600AFC8F3080486F399
:105860001188BFF36F8F02F07F43B3F17F4F07D1F1
:1058700002F00C03082B12D1584959481DF01FF8AB
:10588000002635460023FB71E31E092B00F28380BE
:10589000DFE803F00A797C7581818181817F1007BF
:1058A0004CBF0D460126EDE74E494D481DF007F867
:1058B0000023494CFB71E36A9A0705D54A494848D9
:1058C0001CF0FDFF002431E0E36A002B01DA4749B8
:1058D000F5E7E36A5B00F5D5454941481CF0EFFF69
:1058E0006369AA6943F480736361BFF34F8FBFF3A9
:1058F0006F8F636932F8022C23F480736361BFF306
:105900004F8FBFF36F8F4DF602739A4207D0A36A91
:10591000DBB23BB30120F91DFFF768FE31E02B68D5
:105920000121344A2E481CF0FAFE2C68FB79ABB9F1
:105930006822294607F108001FF044FA7B6A002E0E
:1059400045D0C3F3080222B96FEA53236FEA432319
:105950007B62204607F10801FFF784FD7037BD46E2
:10596000BDE8F081A36A13F47F4F04D00120F91D34
:10597000FFF702FF05E0A36AB3F5803FA2D3FFF76C
:105980009DFE0446D2E70020F91DC5E70020F91D61
:10599000EEE7194993E7194A18F4F87FE8468AB008
:1059A000174B18BF13466A461649103CC2E9051347
:1059B0004FF400731384144BD46142F8103F00235A
:1059C0004FF411510648FFF77BF9C5467AE723F4F7
:1059D000FF7323F00103BBE700ED00E0487503000F
:1059E00020580200737503008A750300AB7503002D
:1059F000B9750300D8750300F47503002F75030013
:105A00001A7503001876030004000001064B5A695A
:105A100042F010025A615A6942F480625A615A692E
:105A200022F008025A61704700ED00E0EFF30880B1
:105A3000EFF3098101B57246FFF706FF01BD00BF14
:105A4000002080F31488BFF36F8F002080F30A8852
:105A500080F30B88104880F3088800200F490870F5
:105A600006F0C6FC00200E490860BFF34F8F00F01F
:105A70002DF8202080F311880A484FF40061401867
:105A800080F30988EFF314800221084380F314881F
:105A9000BFF36F8F00F00EF918CD0020D36C0020FB
:105AA00094ED00E0D8B30020002318460649D1F851
:105AB0009020C2F30722934200DB7047C1F8983070
:105AC000C1F8A0000133F6E700ED00E010B572B6B2
:105AD000002484F31388FFF7E7FF23464FF0FF30DD
