:020000040000FA
:1000000080F2002005500000B5260200F14F0000EC
:10001000F14F0000F14F0000F14F0000F14F0000E0
:10002000000000000000000000000000AD510000D2
:10003000F14F00000000000009510000F14F0000E6
:10004000CD530000CD530000CD530000CD53000030
:10005000CD530000CD530000CD530000CD53000020
:10006000CD530000CD530000CD530000CD53000010
:10007000CD530000CD530000CD530000CD53000000
:10008000CD530000CD530000CD530000CD530000F0
:10009000CD530000CD530000CD530000CD530000E0
:1000A000CD530000CD530000CD530000CD530000D0
:1000B000CD530000CD530000CD530000CD530000C0
:1000C000CD530000CD530000CD530000CD530000B0
:1000D000CD530000CD530000CD530000CD530000A0
:1000E000CD530000CD530000CD530000CD53000090
:1000F000CD530000CD530000CD530000CD53000080
:10010000CD530000CD530000CD530000CD5300006F
:10011000CD530000CD530000CD530000CD5300005F
:10012000CD530000CD530000CD530000CD5300004F
:10013000CD530000CD530000CD530000CD5300003F
:10014000CD530000CD530000CD530000CD5300002F
:10015000CD5300007BB972B90029BEBF00204FF01B
:10016000004106E008BF00281CBF6FF000414FF0BF
:10017000FF3000F057B8ADF1080C6DE904CE00294E
:1001800009DB002B1ADB00F069F8DDF804E0DDE99B
:10019000022304B07047404261EB4101002B1BDB9E
:1001A00000F05CF8DDF804E0DDE9022304B0404231
:1001B00061EB4101524263EB43037047524263EBF0
:1001C000430300F04BF8DDF804E0DDE9022304B05E
:1001D000404261EB41017047524263EB430300F040
:1001E0003DF8DDF804E0DDE9022304B0524263EBA0
:1001F0004303704753B94AB9002908BF00281CBF00
:100200004FF0FF314FF0FF3000F00CB8ADF1080CAB
:100210006DE904CE00F022F8DDF804E0DDE9022308
:1002200004B07047704700BF10F8012B11F8013B74
:10023000012A28BF9A42F7D0D01A7047034611F816
:10024000012B03F8012B002AF9D17047034613F85C
:10025000012B002AFBD1181A013870472DE9F0470D
:1002600086468C460846089E154674461946002B5D
:1002700040F0C1808542B2FA82F245D94AB1C2F15A
:10028000200300FA02FC954094402EFA03F343EA5F
:100290000C0C4FEA154EA8B2230CBCFBFEF80EFB6B
:1002A00018CC08FB00F943EA0C43994528D9EB1810
:1002B00008F1FF3704D2994502D9A8F102072B446F
:1002C000A3EB0903A4B2B3FBFEFC0EFB1C330CFB37
:1002D00000F044EA0344A04214D92C190CF1FF3376
:1002E00004D2A04202D9ACF102032C44241A43EAFE
:1002F00007401EB1D440002334607360BDE8F0872E
:100300004746DDE76346F1E792BB431B01214FEA15
:10031000154EAFB2200CB3FBFEFC0EFB1C330CFBE6
:1003200007F840EA0343984561D9EB180CF1FF3018
:1003300004D2984502D9ACF102002B44A3EB080388
:10034000A4B2B3FBFEFC0EFB1C330CFB07F744EA24
:100350000344A7424DD92C190CF1FF3304D2A74214
:1003600002D9ACF102032C44E41B43EA0040C0E78D
:10037000C2F120039540944020FA03F12EFA03F3D2
:100380004FEA154E9040AFB20343B1FBFEFC0EFBAB
:100390001C10190C0CFB07F841EA0041884522D9D2
:1003A00069180CF1FF3004D2884502D9ACF1020083
:1003B0002944A1EB08019BB2B1FBFEFC0EFB1C1112
:1003C0000CFB07F743EA01439F420ED9EB180CF1EF
:1003D000FF3104D29F4202D9ACF102012B44DB1B56
:1003E00041EA004193E76046E3E76146F7E760468C
:1003F000A4E76346B8E7834206D916B90021084648
:100400007CE7C6E900E0F9E7B3FA83F78FB98342E6
:1004100001D3724508D8BEEB020460EB0303012050
:100420009C461EB9002169E73846FAE7C6E9004C48
:10043000F8E7C7F1200CBB400EFA07F522FA0CF4DE
:100440002EFA0CF1BA401C4320FA0CF3B8404FEAE4
:10045000144901431FFA84FEB3FBF9F809FB183075
:100460000B0C08FB0EFA43EA00439A4540D9E31807
:1004700008F1FF3004D29A4502D9A8F102002344C2
:10048000A3EB0A0389B2B3FBF9F809FB183308FBA5
:100490000EFE41EA03418E452CD9611808F1FF3365
:1004A00004D28E4502D9A8F10203214443EA004058
:1004B000A1EB0E01A0FB02984145CE46434602D374
:1004C00006D14D4504D20138B9EB020E68EB0403A6
:1004D000002EA7D0B5EB0E0261EB030101FA0CFC74
:1004E00022FA07F3F9404CEA0303C6E9003199E721
:1004F0004046C5E74346D9E70A460146014821F090
:10050000E9B900BF4062030008B50146054821F083
:10051000E1F90022044B05481A80BDE8084020F0AC
:100520000FBA00BF70620300B8910020CC07002012
:1005300010B5044623F0A1FB084BA0FB0330DB0BF6
:1005400043EA404001F01AFC2146A022044825F06D
:1005500008F8BDE81040034820F0F2B940420F000F
:100560005A9200209C07002008B5084821F0B2F9F3
:10057000074BD3E8EF1F0331C3E8E21F002AF8D18D
:10058000BDE8084003481BF035B800BF8A6203008D
:10059000D06B0020D46B002008B50021044820F067
:1005A000C4F920B1BDE8084040B220F0EBB908BD65
:1005B000D06B0020062110B50F4820F0A2F90028CA
:1005C0000BDD00210D4820F0B0F9BDE8104046F2E7
:1005D000676200230A481BF0B9B8094824F030FDCF
:1005E00040B9064820F0A9F920B9BDE810400548F7
:1005F0001BF000B810BD00BFE05A0200986B00204D
:10060000581600209C6B00201FB5124B04461B6837
:10061000834218D1104820F093F9104820F08DF94A
:1006200048B90F4A13680133012B136003D9012124
:100630000A4820F07AF9204601A908F0B1FF20B954
:10064000019801F08DFB04B010BD064A1368013318
:100650001360F8E714370020E40700205438002026
:100660009C360020983600202DE9F0430646B3B0B2
:10067000394D05AB95E8030083E803001946304681
:1006800007F078FA044638B10146344821F022F9DF
:10069000204633B0BDE8F083014614220DA824F0B3
:1006A00087FFA86801210190D5F80E00AB8903905F
:1006B0000620ADF808306B8A01AAADF81030284B3F
:1006C00012AD129303ACAA606860243315AA0131FD
:1006D00005291360C2E9010403F1240302F10C02AD
:1006E000F5D14FF001081F4BDFF88890CDE90715D1
:1006F00009934946343307AF0AA8CDF828800B97F1
:100700000C930AF01DF9044610B101461648BDE7E6
:100710004FF40003D9F800000AA9CDE90B350A957A
:1007200022F0A1FF044610B101461048AEE716239F
:100730008DF81C30BDF82C3042468DF81D300A9BD8
:1007400039463046089307F083FA044600289FD0C4
:10075000014607489AE700BF506002009C62030010
:100760002837002058010020D4620300F7620300FC
:100770000C630300DC370020014603488368DB6913
:100780000BB1012218477047E05A020010B5012151
:10079000154820F0CAF8154820F0CFF8044620B1DB
:1007A0001348BDE8104021F095B8124820F0C5F874
:1007B00070B121460F4820F0B8F80F4820F0C2F879
:1007C0000E48214620F0BEF801F08EFD0C48E8E707
:1007D000084820F0AAF8084820F0B4F8074801219A
:1007E00020F0B0F80748DCE7986B0020AC6B0020E5
:1007F00029630300946B0020186402002064020047
:10080000506303006463030010B5164820F095F8A8
:1008100038BB154820F091F8044620B11348BDE8D4
:10082000104021F057B8124820F087F860B12146F7
:100830000F4820F07AF80F4820F084F821460E483F
:1008400020F073F80D48EAE70121094820F06DF81F
:10085000084820F077F80121074820F066F808489A
:10086000DDE710BDCC6B0020946B002077630300A4
:10087000AC6B002020640200BC6B00209A63030074
:10088000C363030010B50D4820F057F8A8B9042140
:100890000B4820F036F804460028D4BF002101217F
:1008A000084820F042F80849084B0948002CC8BF06
:1008B0001946BDE8104021F00DB810BDCC6B0020EA
:1008C000E05A0200BC6B0020F7630300EF630300F3
:1008D000006403002DE9F041334D344E344F86B0AF
:1008E0004FF0FF324FF0FF3328461AF009FD002287
:1008F0000023304621F064FF044618B92D4820F04B
:10090000E9FFEDE700F10C080D21404621F08BFFD7
:100910000021384620F009F830B3274B01AA03F133
:10092000100E9446186859680833ACE80300734504
:100930006246F6D11868CCF800001422404601A99E
:1009400021F082FFDFF888801C4B2146B8F8002098
:10095000186822F0D8FB011E12DA194820F0BAFFFD
:10096000204605F06FF8BBE7142201A824F020FE12
:10097000144B154819680131196020F0ABFFDCE712
:10098000B8F80030114A0133A8F800301368013379
:100990001360C822B3FBF2F102FB1133002B9FD18D
:1009A000084A13609CE700BFE407002014080020F9
:1009B000906900200A640300769600201437002016
:1009C00059640300AC3600202D640300A8360020D3
:1009D000B89100202DE9F0474FF000083C4B3D4E08
:1009E0009D8F3D4FAAB04FF0FF324FF0FF3330469E
:1009F0001AF086FCA022394602A824F0B2FD37483E
:100A00001FF09BFF18B1502102A801F04DFC3448A3
:100A10001FF093FF40B933481FF08FFF014618B90C
:100A2000A02202A824F0C4FD00212F481FF07DFF62
:100A300088B12E4C02A834F9023BB0F9002003EB38
:100A4000D37302EBD2725B10013103EB62035029C6
:100A500020F8023BEFD123F010F9254B8146CDE978
:100A6000005324480123002102AA00680EF032FC42
:100A7000824623F002F9BAF1FF3F044603D11E4833
:100A800020F028FFAFE7DFF888A001211B481FF006
:100A90004CFF9AF8003023B119481FF051FF8AF833
:100AA0000080184A1368591C11606422B3FBF2F0ED
:100AB00002FB1033002B96D1134AA4EB0900A0FBD4
:100AC0000202C00B40EA4242104820F003FF8AE7CE
:100AD00058010020540700205A920020946B0020F7
:100AE000CC6B0020BC6B00208C690020BA910020E8
:100AF00076960020886900207764030090690020C2
:100B0000E4070020A436002040420F008A6403005E
:100B1000500600202DE9F04FADF5277D4FF0FF3254
:100B20004FF0FF3373481AF0EBFB002106AC0E4682
:100B3000A0468A46704805AD704FDFF8E8B11FF057
:100B4000F4FE29607B7DEBB137F8023CD3B1142B66
:100B500028BF1423994640F64843694A4FF47A5116
:100B600003FB0623DBF8400000220EF099FC654AE7
:100B700042F82600002840F0A7800290B11C62488D
:100B800020F0A8FEA0220021404624F011FD0136ED
:100B9000042E27F802AC87F814A087F815A008F1F6
:100BA000A00807F11C07CDD14FF06409574F3968F1
:100BB000B1FBF9F609FB161626BB554820F08AFE54
:100BC000DFF86481DFF864A198F86530002B40F00D
:100BD000888098F86410002340461A46994200F332
:100BE000828012FB09F2B2FBF1F250463146D2B2DA
:100BF000013620F06FFE042E08F16608E4D1454866
:100C000020F068FE00232A46194612F8010B00B1B5
:100C100001310133042BF8D14FF0000CDFF810E163
:100C2000DFF8108100263C4BD8F800201B88CDF857
:100C30000CE09BB2029302EB831A0020A946024605
:100C4000A31919F801BBBBF1000F02D033F910B0A2
:100C50005A445030B0F5A07FF3D1304B02369A425F
:100C6000B8BF1A4647F6FF739A42A8BF1A46100447
:100C700010FA82F04AF8040B0398202E20F8022B79
:100C80000390DAD1029BB8F80C200133B3FBF2F0E9
:100C900002FB10330CF1100C1F4A9BB2BCF1500F39
:100CA000138004F120040EF1200EBBD10029D4BF23
:100CB0000021012110481FF038FE19481FF040FEA6
:100CC0003B6801333B6029E701234A46CDE90083B5
:100CD000394600230EF06AFDB0FA80F04009A855AD
:100CE00055E7642177E710F801CB01336244D2B2B3
:100CF00074E700BF6C0700208C690020E6370020F5
:100D00005838002078690020A7640300A03600202E
:100D1000E0640300C99C0300FC9200200080FFFFF8
:100D20005407002058010020DE940020EF640300E7
:100D3000BA91002048010020F8B5144601222B4B3F
:100D400053F8045FA84204D129481FF0F6FD20B9EA
:100D5000F8BD0132052AF3D1FAE7002C43D0238AEB
:100D600023B18B7983F00203C3F34003551E1C2289
:100D700000276A431F48875201278618B775F37505
:100D80008A886621B26164261B4A01FB052292F81B
:100D9000641053543944B1FBF6FC06FB1C1182F875
:100DA000641009B982F865705BB11C23228A6B4319
:100DB000142A28BF1422C2520233E168184424F0D6
:100DC000D0FB0E48D0E8EF3F0133C0E8E23F002AF5
:100DD000F8D1032BBCD900211FF0A7FDBDE8F840D6
:100DE00007481FF0ADBD2346C0E700BF1437002001
:100DF00054380020E4370020DE940020E037002043
:100E00006C07002008B5084820F064FD074BD3E8C4
:100E1000EF1F0339C3E8E21F002AF8D1BDE80840FC
:100E200003481AF0E7BB00BFFC640300D06B00204E
:100E3000D46B002041F288332DE9F043984A994D54
:100E40000021C5E90F23022385F83A30FF23AB7058
:100E5000954B012099B0C5E901310BF0D7FC00F1A9
:100E6000744404F5A6043CB12146904820F032FDBC
:100E7000204619B0BDE8F0838D4820F02BFD8D4849
:100E800020F028FD8C498D4820F024FD00F008FB5F
:100E9000014650B18A4820F01DFD8A481FF066FDCA
:100EA00030B9894820F016FD0CE000F021FBF4E792
:100EB0004FF4803185481FF005FD014690B184480C
:100EC00020F008FD8349844824F060F88348844971
:100ED00024F0AAF87B481FF049FDD0B9814820F0E2
:100EE000F9FC25E04FF0E86178481FF0C8FC0446A3
:100EF00010B101467C48E3E77C487D4B43601023FA
:100F00008360FFF739FC21467A481FF00EFD7A48CE
:100F1000C8E77A481FF02AFD0028DFD04FF480315F
:100F200077481FF0CFFC0146C0B1764820F0D2FCD4
:100F30000321002308461E2201F068F9014610B182
:100F4000714820F0C7FC1FF013FD7049704800F095
:100F50002BFC044660B301466E4887E74FF4B0119E
:100F60006D481FF0AFFC014608B16C48DEE76348EE
:100F70001FF0FCFC08B96A48B1E74FF4B0116948AA
:100F80001FF0A0FC014608B16748CFE74FF0E861C9
:100F90005B481FF074FC014608B16448C6E764482A
:100FA000644B436040238360FFF7E6FB624896E7AB
:100FB00000F032FC044610B10146604856E700F0EC
:100FC000DDFB5F4820F086FC286C00F083FE0446C1
:100FD00010B101465B4849E75B485C4923F0D6FF06
:100FE00038481FF0C3FC98B9594820F073FC594B9E
:100FF00000224FF47A51286C0DF0F8FF564B186020
:1010000000283AD1554820F065FC6FF004042FE722
:101010002C481FF0ABFC0028E6D04FF4803150483C
:101020001FF050FC0028E2D14FF480314D481FF0F2
:1010300049FC0028DBD14FF0B86149481FF01FFC84
:101040000028D4D14FF0B86146481FF018FC0028A2
:10105000CDD14548454B464E436004238360454B04
:1010600073600823B360FFF787FB3046FFF784FB0C
:101070000321414820F02EFCB9E7404E404F334653
:1010800000224FF47A51286C0EF00AFA47F8040B4C
:10109000002879D121463B4820F01CFCB5E700BF71
:1010A0001400050058010020ADDEEFBE10650300FE
:1010B00036650300506503006D6503007F6503001E
:1010C0008F650300E05A0200A4650300306402004B
:1010D000BF650300090800009C6B00205816002023
:1010E0008D07000035660300E0650300C06B00203B
:1010F00085080000BC6B002004660300C05A020093
:1011000028640200596603003C67030031050000B3
:101110004801002051670300206402007F6603003D
:10112000A266030018640200BE660300E0660300C6
:10113000B06B0020B5050000096703006867030075
:1011400080670300B0670300D46B0020990500009E
:10115000CA670300300C0020886900202368030060
:101160004064020038640200F06B0020050E0000AD
:10117000E46B002069050000E86703005838002090
:1011800078690020406803000134042C06F64846C4
:101190007FF475AF924820F09DFB924820F09AFBB7
:1011A00000260027002403234FF48052CDE90334A6
:1011B000CDE90667CDE901448B4B8C4900948C48FE
:1011C0001AF040FB8B498A481AF0C6FA4FF0020821
:1011D0004FF48052CDE90667CDE90248CDE90044DD
:1011E000854B8649049486481AF02CFB854984482F
:1011F0001AF0B2FA01222146834823F043FE20462A
:1012000005F024FE044610B1014680482EE6804FCA
:1012100013AE0FCF0FC63B682146336009AA13A84F
:1012200006F026FC044610B101467A481EE64FF44B
:10123000A0220AAB41F652010CA8CDE90D230C9374
:1012400021F013FB74490CA821F019FB16238DF82B
:101250003C30BDF8343000948DF83D300C9B424654
:10126000109341F20923ADF844306C4B0998129366
:101270000FA9234621F06FFE044610B101466848CD
:10128000F4E50998FFF7F0F9044600287FF4F0AD83
:10129000099821F092FE044610B101466148E5E547
:1012A000ADF83C008DF83E000FA9099806F010FC3F
:1012B000044610B101465C48D8E55C4A5C4E1146D4
:1012C000334617460998DFF89CE1DFF89CC10134EA
:1012D000052CC3E901EC41F8043B03F11403F6D1FA
:1012E000002352F8041B0133896895F83A40496895
:1012F000DBB2052BCC70F4D14E492B6C0CAA8B6061
:10130000EB8F0F608B8108F0B5F9044610B10146F0
:101310004948ABE50546DFF85481DFF85491474F63
:101320002946404620F0D6FA4FF0FF324FF0FF3307
:10133000484619F0E5FF044610B10146404895E5DE
:1013400029463846013520F0C5FA052DE8D100F0D0
:101350001BFD2546DFF81C813A4F2946404620F008
:10136000B9FA1422002113A824F022F90323E9B2C8
:10137000003918BF0121304613AA8DF84D3007F00F
:101380005FFD044610B101462F486FE529463846F7
:10139000013520F09FFA052D06F11406DDD100225B
:1013A0000023CDE9062302234FF48062CDE90243F6
:1013B000CDE90044254B2649049426481AF042FA08
:1013C000254924481AF0C8F924481FF0B9FA012029
:1013D00000F08EF8014600283FF44AAD204845E56C
:1013E000606803007F680300150B0000409E00202A
:1013F000400A0020CF680300D509000040AE00205D
:10140000380B0020DB68030054070020E768030066
:101410006460020007690300563412003269030059
:10142000456903006E6903009E69030014370020BC
:10143000B036002024010020CD690300116A0300AA
:10144000F6680300706A03004D6A0300D5080000C7
:10145000409A002048090020956A0300E407002014
:101460009C6A0300080100201C010020EC690300B5
:10147000CC0700202F6A0300084B1A691268002A63
:10148000B8BF80F0010028B19B68DB684FF00041D5
:10149000024818479B681B69F8E700BFE05A020042
:1014A00038B5104D2B78BBB90F4C204623F06EFB9E
:1014B000A8B12269A1681368204643F00043136075
:1014C0000B680A4A1F219847034630B9FFF7D4FF3B
:1014D000034610B901232B700023184638BD6FF066
:1014E0001203FAE78A960020E05A020001000A007F
:1014F00010B5074B04461B7823B12046BDE81040C9
:10150000FFF7BABFFFF7CCFF0028F6D010BD00BF31
:101510008A9600202DE9F047854F06463B78002B40
:101520004BD0002849D04FF000094C46814D824BEA
:101530002A78011F03EB42183C3051F8042F13B2F4
:10154000002BB8BF5B429BB212149C42B8BF1C4632
:10155000002AB8BF524292B29145B8BF9146884224
:10156000EBD1DFF810A2DAF80030002B0FDA402CB4
:1015700002DCB9F1400F0ADD4C45ACBF002101216E
:101580004B4622466D48CAF8001020F0A3F9DAF85D
:101590000030002B70DBDCB2002356F82320002C37
:1015A0006FD112B228F813200133102BF5D12B780C
:1015B0000133DBB2042B66D82B70614A6148137883
:1015C0006149DFF8B491002B0CBF8046884683F058
:1015D00001031370D9F80030002B00F08C809A685A
:1015E00014885A68A4B2B2F800A09A891FFA8AFA3D
:1015F000564B544519784FD8AAEB0405ADB20029D3
:1016000050D0544577D0DFF864A1DAF8001049B122
:10161000D9F800302A469B894D4820F05BF9002319
:10162000CAF80030C446D9F800504FEA841E2B682F
:1016300003EB841303F140096246186859680833C4
:1016400003C24B459446F7D12868402200217044DC
:1016500023F0AEFFAB890134B4FBF3F103FB11447B
:10166000AA68A4B23B4B1480D3E8EF1F0131C3E852
:10167000E21F002A1DD0F7E74C45ACBF002401242F
:101680008AE712148EE700232B70334B1B68002B64
:1016900093D02948984790E70AEB02052D1BADB27D
:1016A0000029B0D1042D1FD840220021404623F04C
:1016B0007FFF3B784146002B14BF3046002000F0EE
:1016C000BDF9014688B3254B1A680132052A1A6014
:1016D00005D93220B2FBF0F300FB13232BBBBDE88E
:1016E000F0471F4820F0F6B801211E48197029461E
:1016F00020F0F0F885E740220021404623F058FF13
:10170000194BD3E8EF1F0131C3E8E21F002AF8D1DB
:10171000164B17481A6801321A60D0E8AF2F1968C3
:101720009142C6D91FF026F9C3E7BDE8F08700BF94
:101730008E9600208D960020FE920020C26A030043
:101740008B960020506C0020106C00208C9600209E
:101750001C6B0300086C0020146D0020FC6B002043
:101760004C6B0300F86A03000C6C0020046C002032
:10177000006C00209C010020106D00204FF0FF3312
:1017800007B501A901931FF006F938B9019B5A1C4E
:10179000032A28BF4FF0FF33024A136003B05DF8FD
:1017A00004FB00BF9C01002037B502466C460B4687
:1017B000134903C984E803001046F2B1EBB1114D9F
:1017C0002A7812B1002003B030BD0F4A10600F4AD2
:1017D0002046136000F036FB0028F4D19DF800206D
:1017E0000B4B1A70019B5A1C032A28BF4FF0FF3382
:1017F000084A136001232B70E4E76FF01500E2E75D
:101800007860020090960020106D0020146D00207A
:101810008E9600209C01002070B5324B1B78002B67
:101820005CD0314E3378002B56D1304800F090F820
:1018300000F094F8044628B101462D4820F04AF8FB
:10184000204670BD014640222A4823F0B1FE4022C6
:101850002146294823F0ACFE284B21461C70284B1A
:1018600028481C60284D1FF085F828481FF082F892
:1018700027481FF07FF82B782648002B08BF002050
:101880001C4900F0B5F8044610B101462248D5E7DE
:101890002B782248002B08BF0020174900F0CEF813
:1018A000044610B101461E48C8E700F009FB044693
:1018B00030B101461B4820F00DF800F0E1F8BFE719
:1018C000194B2978194A1A4800290CBF11461946A4
:1018D00020F000F8012333700024B1E74FF0FF340B
:1018E000AEE700BF909600208F96002015150000EF
:1018F000876B0300506C0020106C00208C96002039
:10190000046C00200C6C00208E960020086C0020D7
:10191000006C0020D06C0020A26B0300906C0020B3
:10192000BE6B0300E16B0300816B0300846B03005B
:10193000106C0300012908D138B1044A126822B1A1
:10194000D0E9000100B901B110477047186D0020BF
:10195000014B1860704700BF186D002037B51D4D52
:101960002B78002B34D14FF0502449F6A633C4F81D
:101970005C350123A361D4F8203153B1002116480E
:1019800001AA22F0A0F8002808DA6FF0040003B0E2
:1019900030BD0021212023F01AFCECE7019B0F4A07
:1019A000197918680AF0D6F802460028EDD101210D
:1019B000282003F03DFC282003F00AFC084A0949CE
:1019C00009480BF0E7FB094B9842DED101232B704D
:1019D0000020DCE79196002048640200008002505D
:1019E00035190000A0010020C80100200000AD0B47
:1019F0001FB50F4C2378012B13D100B989B11023E7
:101A0000CDE9010100220B4801A9ADF80C300BF023
:101A100093FC094B984207D102230020237004B0A5
:101A200010BD6FF01500FAE76FF00400F7E700BF94
:101A300091960020C80100200000AD0B1FB50D4B92
:101A40001B78022B13D100B989B11023CDE9010114
:101A5000094801A9ADF80C300BF0E2FC074B9842A5
:101A600014BF6FF00400002005B05DF804FB6FF0B8
:101A70001500F9E791960020C80100200000AD0B89
:101A800010B5054C2378022B04D104480BF00AFD55
:101A90000123237010BD00BF91960020C8010020D3
:101AA0004FF050232DE9F74FD3F85C6549F6A63384
:101AB000B6B2002E08BF1E464FF00008C24645468B
:101AC00000244FF0FF324FF0FF336F4819F018FC3D
:101AD0006E4AD2E8EF3F012B03D1C2E8E14F002963
:101AE000F7D10CBF012727460BD1214668481EF0CD
:101AF0004BFF684B68481A68684B19681FF0EAFE8C
:101B0000DAE7674BD3E8AF4F012D11D004D9AB1EF4
:101B1000012B3CD9474609E05E4B604A21461B68D1
:101B2000126860481FF0D6FEA2460125B846C7E7F6
:101B3000584B08F101081B684345EBD840F24B13A2
:101B4000A4EB0A01C1F5C332574DA032554395FBB2
:101B5000F3F505F51B442B46A63405F5DD55534832
:101B6000009406351FF0B6FEB5F5804F04D35048FB
:101B70001FF0B0FE0025D9E74FF0502321464D4815
:101B8000C3F85C451FF0A6FE0225A6B2CEE7414B86
:101B900008F101081B684345BCD8474BD3E8AF8F19
:101BA0003E4BB4EB0800D3F8009061EB0101002933
:101BB0004FEA590B21DB4A463B46FEF7CBFA9345E9
:101BC00001DAA2EB09023D4802EBD2723C494FEA2E
:101BD0006209032D08BF0146434622463948CDF825
:101BE00000901FF077FE09F5FA73B3F57A7F12D9EA
:101BF000494635481FF06EFE98E7B8EB040061EBEC
:101C000001014A463B46FEF7A5FA5A45C8BFA2EB7A
:101C100009025242D7E740F24B13234C04FB09F46C
:101C200094FBF3F43444B4F5004F1BDD4BF6FE7324
:101C30009C421ADCA4B24FF05023022DC3F85C453D
:101C400089EAE973A3EBE97312D10F2B3FF76EAF6B
:101C500001210F481EF098FE21461C481FF03AFE55
:101C6000032563E74FF40044E5E74BF6FF74E2E732
:101C7000202BF5DD002106481EF086FE494614485B
:101C80001FF028FE76E700BF3C070020D8010020A7
:101C90001C6D0020D0010020506C0300D4010020F6
:101CA000246D00207A6C030018FCFFFFA76C030072
:101CB000D86C0300FB6C0300206D0020426C030015
:101CC000496C03001D6D0300406D03005F6D030050
:101CD000796D030010B5184B421E9A42014688B038
:101CE00005D8164CB4FBF0F200FB124434B1144892
:101CF0001FF0F0FD6FF0150008B010BD114B18601B
:101D0000114B12481A601FF0E5FD00220023CDE9B7
:101D1000062301234FF48062CDE90243CDE900445C
:101D20000B4B0C4904940C4819F08CFD0B490A48E4
:101D300019F012FD2046DFE79F860100A086010012
:101D4000976D0300D4010020D0010020B56D030081
:101D5000A11A000040BE002088160020D56D0300A7
:101D6000014608B503481EF00FFEBDE808400248D2
:101D700019F08CBA246D00203C0700200146014870
:101D80001EF002BE206D002008B5012103481EF0A0
:101D9000FBFDBDE80840024819F078BAD8010020E0
:101DA0003C07002010B588B00DF107030293012312
:101DB0000022CDE90513039307238DF807008DF862
:101DC00010208DF81C3007489DF81C30826843F0C5
:101DD00002038DF81C3094681823022202A9A04740
:101DE00008B010BDC05B02001FB502238DF80000D3
:101DF0008DF80110CDF804D002938DF80C3007480F
:101E00009DF80C30826843F002038DF80C30946822
:101E10001823012201A9A04704B010BDC05B020035
:101E200010B5014604461020FFF7DEFF30B9214609
:101E30001120FFF7D9FF08B9014B1C7010BD00BF7E
:101E40005106002037B5054650B3174822F09EFED4
:101E500038B916481FF03EFD6FF01204204603B05B
:101E600030BDFF200DF10701FFF79CFF044620B1B4
:101E700001460F481FF02EFDF0E79DF8071042299C
:101E800005D00C481FF026FD6FF00404E6E701239F
:101E90002B706B60084B187008481FF01BFDDDE7C6
:101EA0006FF01504DAE700BFC05B0200DE6D0300CF
:101EB000F96D03001B6E030092960020406E030034
:101EC00037B55C4D297819B10024204603B030BDE8
:101ED00017208DF80710FFF787FF044620B1014651
:101EE00055481FF0F7FCF0E710210520FFF77CFFB5
:101EF000044610B101465148F3E780210620FFF760
:101F000073FF0446014608B14D48EAE70720FFF792
:101F10006BFF044610B101464A48E2E7002140F653
:101F2000CD4023F054F920460DF10701FFF73AFFA9
:101F300010210820FFF758FF044610B1014642481F
:101F4000CFE710210920FFF74FFF0446014608B1F3
:101F50003E48C6E70A20FFF747FF0446014608B19E
:101F60003B48BEE70B20FFF73FFF044610B1014698
:101F70003848B6E730210C20FFF736FF044610B191
:101F800001463548ADE733210D20FFF72DFF04460C
:101F900010B101463148A4E734211220FFF724FF95
:101FA000044610B101462E489BE72E211320FFF76F
:101FB0001BFF0446014608B12A4892E71520FFF7A7
:101FC00013FF044610B1014627488AE71021142068
:101FD000FFF70AFF044610B10146244881E70221B9
:101FE0001620FFF701FF044610B10146204878E7AC
:101FF000204B1878FFF714FF044610B101461E4825
:102000006FE78F211720FFF7EFFE044610B101465E
:102010001A4866E72E233321342219481FF05AFC50
:102020009DF807108B0702D416481FF053FC0123BC
:102030002B7049E792960020726E0300976E0300A2
:10204000B96E0300E16E03000A6F0300306F0300F6
:10205000566F03007E6F0300A16F0300C36F030080
:10206000E56F03000A7003002F7003005470030033
:10207000787003005106002097700300B7700300CA
:10208000DA70030046710300F8B5002106461527F3
:102090006FF00042114B124D1B7835F8134004EBE2
:1020A000400424B235F9023B1B1B002BB8BF5B4236
:1020B0009342B8BFCFB201F10101B8BF1A46282937
:1020C000F0D13846FFF7ACFE044620B93A46314617
:1020D00004481FF0FFFB2046F8BD00BF510600205A
:1020E000BC600300837103000023084A1370084A90
:1020F0001360084A1360084AD2E8EF1FC2E8E03FC5
:102100000028F9D105481FF0E5BB00BF94960020D8
:102110002C6D0020286D0020BC6B00209F710300F7
:1021200038B50A4600EB410504460021A5420DD111
:10213000B1F5FA7F2C4C13DA2378012B3CD0022B1B
:1021400046D0002B3DD1294B002239E034F9023B27
:10215000002BB8BF5B421BB29942B8BF1946E5E7F6
:102160000146234800F0DAF82378012B22D0022B15
:1021700028D033BB0028E6DD1C491E480A680068E9
:10218000013282420A601CDB01220B601A4B227072
:10219000D3E8EF1FC3E8E02F0028F9D1FFF7F4FDE3
:1021A000164B186808B119F071F8BDE838401448AA
:1021B0001FF090BB002804DC022301222370114B86
:1021C0001A6038BD002803DD012323700D4BBBE7E7
:1021D0000C4A1368013313600B4A12689342F0DB18
:1021E000BDE83840FFF780BF949600202C6D00209A
:1021F0003C6D0020346D0020BC6B0020386D002049
:10220000AE710300286D0020306D00202DE9F341F0
:102210001C4C054620460E461746984600F030F9FD
:1022200068BBC4F8F002294620461EF0B7FB28B16F
:102230006FF01504204602B0BDE8F08120464FF44F
:102240007A511EF0B5FB04460028F1D10E4B324600
:102250001E600E4B29461F600D4BC3F800800D4BCE
:1022600018700D4B18600D4B18600D4B18704FF423
:10227000FA730C4800933B461FF02CFBDAE76FF033
:102280000404D7E73C6D0020346D0020306D002041
:10229000386D0020949600202C6D0020286D0020C1
:1022A00093960020BE7103009F29034670B512D893
:1022B0000B4C0C4D26784A0001FB06F0194605EB45
:1022C000400023F04EF916B90123237070BD00239E
:1022D000A02128462370BDE87040FFF721BF00BF52
:1022E000939600209E93002010B5084C2378013B64
:1022F000012B01D8FFF7F8FE0023054A2370136075
:10230000044A1360044A137010BD00BF9496002065
:102310002C6D0020286D00209396002038B508B958
:1023200020F03AFA0A24D0F8F0520D4B53F8253039
:102330005C43A24207D014245C43A24203D01E2473
:1023400063439A4209D1074B53F825309847002838
:10235000E6DB14BF0120002038BD4FF0FF30FBE763
:102360008064020070640200032966D8DFE801F08F
:102370000220374E324B1A689B88C0F8C422A0F85E
:10238000C832304B1A689B88C0F8CA22A0F8CE32F7
:102390002D4B1A689B88C0F8D022A0F8D4322B4B62
:1023A0001A689B88C0F8D622A0F8DA32002070475D
:1023B000274B1A689B88C0F8C422A0F8C832254B66
:1023C0001A689B88C0F8CA22A0F8CE32224B1A683D
:1023D0009B88C0F8D022A0F8D432204BE0E7204BF5
:1023E0001A689B88C0F8C422A0F8C8321D4B1A682E
:1023F0009B88C0F8CA22A0F8CE321B4B1A689B8873
:10240000C0F8D022A0F8D432184BC9E7184B1A688C
:102410009B88C0F8C422A0F8C832164B1A689B8863
:10242000C0F8CA22A0F8CE32134B1A689B88C0F8B5
:10243000D022A0F8D432114BB2E74FF0FF307047F2
:1024400066610300606103005A6103005461030088
:102450004E61030048610300426103003C610300D8
:1024600036610300306103002A6103002461030028
:102470001E61030018610300126103000C61030078
:1024800010B5044610B94FF0FF3010BD01230021F4
:102490000360C0E945111022043023F089F804F1EB
:1024A00014001EF019FE2D4B04F1B40203F11801C3
:1024B00053F8040B8B4242F8040BF9D1284B04F17A
:1024C000CC0203F1180153F8040B8B4242F8040BC1
:1024D000F9D1244B04F1E40203F1180153F8040B81
:1024E0008B4242F8040BF9D11F4B04F1FC0203F1BB
:1024F000180153F8040B8B4242F8040BF9D142F255
:10250000107104F5ED7304F29A2223F8021F93422E
:10251000FBD10021C02204F58E7023F049F8002180
:10252000124B2046C4E9A733C4F8A812C4F8AC1271
:10253000A4F8B012C4F8B212C4F8B612A4F8BA12D1
:10254000C4F8BC12C4F8C012C4F8A432FFF70CFFE0
:10255000002898D12A23C4F8EC3296E7B46103002E
:102560009C610300846103006C6103004006400627
:102570002DE9F04F00F53777A9B03B4616460446E3
:102580001EF018FB18220021A4F8E80205461CA83A
:1025900023F00EF81822002122A823F009F8502E6B
:1025A00022D1B4F9C4320893B4F9CA320193B4F910
:1025B000D0320693B4F9D6320A2D07932EDD4FF0B0
:1025C000000B22AB0493AE4B0DF170080993CDF8CC
:1025D00014B0CDF808B00025029B2E46A7F5377A37
:1025E0004FEA4309039529E0A02E0BD1B4F9C63276
:1025F0000893B4F9CC320193B4F9D2320693B4F90A
:10260000D832D9E7B4F9C8320893B4F9CE3201937D
:10261000B4F9D4320693B4F9DA32CDE7B4F918310B
:10262000002B00F31A8200260023A4F81A3130464A
:10263000266029B0BDE8F08F0123039310ABBAF9EF
:10264000E420BAF9B4104B44B7F900001EF072FB55
:102650008C4B0CAA33F90930BAF9CC105843039BC0
:10266000064442F8230016ABBAF9FC204B44B7F9F4
:1026700000001EF05FFB844B039A33F909300AF126
:102680000C0A58430EAB43F82200054409F10C092B
:10269000002AD1D0002E40F0DA80002D00F0E58035
:1026A00085EAE573B3FA83F31F22013B1BB2099954
:1026B000D21A31F9023B0991059902FB03130593E4
:1026C000069B46F30F31B3EB820FB8BF4FF0010BFF
:1026D000002940F3CD800C986C4B03EA80001EF07B
:1026E0007DFCA8F80000C0F58040A8F80C0045F378
:1026F0000F3100290ADD654B0E9803EA80001EF0B9
:102700006DFC049B1880C0F580409881029B08F105
:10271000020801330293049B023702330493029BA5
:10272000062B7FF458AF059B079A4FF000089342A1
:10273000B4BF5E464BF00106554B36B20A93554B7B
:1027400004F1B4050993544B07934FF448534246A0
:10275000B5F92812204604931EF054FB4FEA4803B3
:102760000693484B074603EB48031A4600212846C8
:1027700002931EF03CF99A224FF4207A8011C0EBAC
:10278000071010FB02F0C0F34F230593434BC8EB37
:1027900048270393049BFF01534407F510571BB2CE
:1027A000DDF81890A5F1B40BBFB20B93BBF9FC3068
:1027B000BBF9B400BBF9CCC0BBF9E4100493002E04
:1027C0006ED0059B41F69A1E184400B25045B8BF22
:1027D00050463BB29842A8BF184622AB39F90310C5
:1027E00016ABABF8B40039F90300039A01FB00F310
:1027F000DB1213FB0EF35B150133B2F900E00CEBB7
:1028000063031BB27345B8BF73460B9A0CF1040CFB
:102810009342A8BF1346ABF8CC30B5F82832BDF8C8
:102820001020A3EBEC0313FB00F3DB108810A3F5DF
:102830008053584302EB820100114900002809B27D
:1028400063DC404204921EF0C9FB404260E086EA2D
:10285000E672B2FA82F2013A12B23DB185EAE5734C
:10286000B3FA83F3013B1BB221E71F221F231EE7AC
:102870004FF48043A8F8003039E74FF4407A95E7E9
:1028800024620300E4610300CC61030000C0FFFF89
:10289000FC6103000C62030018620300086203007D
:1028A00040F28F2E1CAB33F90930059A049310AB1C
:1028B00039F903C0049B03FB0CF3DB1213FB0EF38B
:1028C00000EBA35313441BB25345B8BF53460FFA52
:1028D00087FE7345A8BF7346ABF8B430B5F828320D
:1028E000A3EBE00313FB0CF30498DB100230801021
:1028F000A3F5805358438013002800F39C80404286
:1029000004911EF06BFB404298E004921EF066FBBF
:1029100000B2049A803040F30720024412B2B2F5AC
:10292000C07FB8BF4FF4C072ABF8FC20039B803768
:102930000233BAF5407F0BF10C0BBFB2039309F1E0
:102940000C099AD10021029A28461EF050F8069BE5
:10295000454A05F1180A13441A4607460021504615
:102960009B461EF044F8079BC0F34F22814633F983
:10297000020BC7F34F210793531A1BB2834215DA98
:102980000144891A09B201EB410701EB87015A465C
:1029900041F38F0150461EF02AF8B9104942814692
:1029A000029A284609B21EF022F80746099A32F91F
:1029B000023B09924FEAE91249F3CF194B4508DA75
:1029C000298B9A1A11FA82F12983A98C11FA82F2C1
:1029D000AA840A98F91130F9022B47F3CF179742CE
:1029E0000A9008DD521A298811FA82F12980A989F2
:1029F00011FA82F2AA8108F10108B8F1060F05F177
:102A000002057FF4A4AED4F814310133C4F81431B4
:102A1000002E3FF403AEB4F81A3101331BB2062B7B
:102A2000DBBFA4F81A31089BA4F81A810193019B1B
:102A3000A4F81831FBE504911EF0D0FA00B2049915
:102A4000203040F38910084400B2B0F5C07FB8BF11
:102A50004FF4C070ABF8E40068E79BB29E1C013BEA
:102A600036B2A4F81831DFE5CC6103002DE9F04758
:102A700043F6D72C002540F6EA3642F2984A491030
:102A80008D4215DB0646002740F2353C41F2DE7EE2
:102A900043F25E088F4234DB002547F6FF7C3A4E56
:102AA00002F1020E8D4200F1100053DBBDE8F08709
:102AB00050F83580D3F804E01F68A8EB0E0404F545
:102AC0000054A41306FB0474C3F80080D3F80880F4
:102AD0005C60A4EB08095FEAA93948BF09F1010964
:102AE0000AFB09EEDC68AEEB0404A41348BF013412
:102AF0000CFB0484C3E902E4641040F8354001355E
:102B0000BEE7D6F804A0D3F814900137AAEB090465
:102B100004F50054A5131C69C3F810A00CFB054470
:102B20009D695C61A4EB050A5FEAAA3A48BF0AF115
:102B3000010A0EFB0A99DC690836A9EB0404A41308
:102B400048BF013408FB0455C3E906956D1046F8EB
:102B5000045C9FE750E90234234450E904473C44B5
:102B6000E413B442B8BF3446DB136445A8BF6446DF
:102B7000B342B8BF33466345A8BF634622F8154049
:102B80002EF8153002358DE70080FFFF2DE9F74F55
:102B90008946019240F20A38002240F23F4C45F645
:102BA000F52143F2672440F2B916DE27DFF894E0FE
:102BB000234D09F1040A019B9A4202D103B0BDE8FA
:102BC000F08F03680C3008FB03FB50F8083C0BF552
:102BD000804B0EFB03BB50F8043C0CFB03BB0368AB
:102BE00001FB03BB436804FB03BB836805FB03BB1A
:102BF000C36806FB03BB036907FB03B349F8323024
:102C000050F8083C07FB03FB50F8043C0BF5804BE5
:102C100006FB03BB036805FB03BB436804FB03BB64
:102C2000836801FB03BBC3680CFB03BB03690EFB9A
:102C300003BB436908FB03B34AF832300132BAE7F9
:102C400039F1FFFFFEF7FFFF2DE9F04F91B0009340
:102C500002F004030293C2F3C20301338407054662
:102C60000E46DDF868800392059340F0BB81041D99
:102C700030B1072909D86FF01B0011B0BDE8F08F03
:102C800001F007063444C6F10806009B4FF0000926
:102C90004FF0040A591E4FF0FF334F460193CB46C5
:102CA0005346CDF810900DB100982060059800288B
:102CB00000F3E8809848009A824203D39748824202
:102CC000C0F0E080039AA4EB050E92074FEA9E0045
:102CD00000F103810F2F00F2B180002D00F005817B
:102CE00007F140020DEB020C019A0CF8200C0CF8D5
:102CF000102C049801300490E7E07A285DD84B2826
:102D00000ED8472859D829282DD8252852D054D84C
:102D100020287AD02338D0F1000B4BEB000B74E065
:102D20004C382E2849D8DFE800F070484848484819
:102D30004848484848484B484848484848484859FF
:102D4000484B4B595959704B6D487048184B1848AF
:102D500048827F4B48484B487F0000204FF0000BD3
:102D60004FF0040A38E001222A38C0B202FA00F01B
:102D700010EA0E0F49D110F0625C2FD110EA020B5D
:102D800043D06046013C5444B4FBFAF40AFB04F41B
:102D9000002D61D0A3EB050CA444B4453FF66BAF06
:102DA000002868D1042B47D158F8043B2360042342
:102DB00004342AE0019A013A01924FF0000B24E01A
:102DC00011F8010C6C2834D1002011F8023C834624
:102DD0006C2BC5D14FF0080A5346D3E708F107081A
:102DE00028F00708073424F00704F8E802AB35B1EF
:102DF00006982044B0423FF63EAFC4E900AB4FF026
:102E0000000B08344FF0080A534611F8010F002850
:102E100078D0BBF1000F7FF470AF2528F5D14FF0CB
:102E2000010B019B013301934FF0040AECE7584674
:102E300094E700208346A5E7082B02D06FF0150029
:102E40001BE708F1070828F00708B8EC027B84EDBF
:102E5000007B08230834D8E768B9042B02D108F1B5
:102E60000408A4E7082BE9D108F1070828F00708AF
:102E700008F10808EDE705980138059058F8040BAB
:102E8000009010E7039A900720D54FF0010CA4EBB7
:102E9000050E4FEA9E00BEF5007FCFD20F2FCDD892
:102EA000F5B107F140020DEB020E019AC0B20EF827
:102EB000200C0EF8102CBCF1000F3FF41AAF60F09C
:102EC0007F000EF8200C09F101090137C5F1080255
:102ED0004FF6DA7E0434069297E74FF0000CDAE7FB
:102EE000BCF1000F01D00136EFE7029A0236002A4A
:102EF000EBD10098CDE90631FDF7A8F9DDE90631FF
:102F00000644E2E7631BB3F5806F97D245B9A6F19B
:102F10000804E018B1E600BFD0590200E09D0300AC
:102F2000029A9B0828602B709DF81030C2B1EB709C
:102F300085F80290B9F1000F05D0002208A8C5F16C
:102F4000010C97420ED14FF0000AC5F101030DF1BB
:102F5000200801930DF1300B574512D1601B8CE610
:102F60006B70E5E710F8013B190608D50CEB040E71
:102F7000B64503F07F033FF67EAE04F8013B013215
:102F8000DFE7B9F1000F03D098F90020002A17DB22
:102F9000029BD3B11AF80B2004F8012B0022019BED
:102FA00018191044B0423FF666AE98F80000009938
:102FB00004F8010B2046039222F0D3FA039A14443A
:102FC0000AF1010A08F10108C6E798F8002055F84F
:102FD00022300093029B009845F82230FDF736F925
:102FE000421CDCE76FF00D0047E600BF2DE9F04F13
:102FF00097B000AFD7F880B03B62CBF3C003044674
:10300000894690F802A0FA62BB6141B94578007820
:103010000AEB800020444D4517D8A0EB0409E37863
:10302000FB61BAF1000F02D01BF0010F16D1FB6952
:1030300053BBFB6A1BB1494620463A6A98474D4646
:1030400028465C37BD46BDE8F08F461C3046FDF78C
:10305000FDF80130304409F10109DCE762682378AA
:103060007A62FA6A9900796104EB8301002A40F0E0
:1030700001810E464FF000084D4601EB0A094E450E
:103080004CD101EB0A0610E01BF0020FD1D02378DF
:103090009A007A61626804EB83017A62FA6A002A14
:1030A00077D14D46904601EB0A061BF0050F0CBF89
:1030B00002230123FB62FB6906EB430A0BF00203C8
:1030C000BB625645BCD016F8021B16F8013C54F8FA
:1030D0002390994B994502D3984B994536D3BB69B8
:1030E000002B40D0786A1EF0CCFB00283BD0E9468C
:1030F0008AB06A46924B53617B6AC2E906314FF44B
:10310000007313848F4B42F8103F00234FF4125189
:103110008D4801F0B7F8023DCD46D2E716F8013BE5
:10312000F96254F82300FDF791F8D7F88430F96A72
:1031300001304BB1D7F8883098453EBFD7F884307E
:1031400023F8180008F10108054498E7BB6923B18A
:10315000786A1EF096FB0028C9D11BF0010F05D13B
:10316000FB6AED1AADE7BB6A002BAAD04846FDF713
:103170006DF8D7F8843053B1D7F8883098453FBF01
:10318000D7F88420431C22F8183008F101080544C0
:1031900097E7BAF1000F73D01BF0040673D0D04646
:1031A000002607F1480052463B61B96222F0D9F986
:1031B000B96A3B6901EB0A02BA62FA69F96952001D
:1031C000FA60BA6A02EB41023A610BF00202BA609D
:1031D0003A69B96A8A4258D162781BF0020F18BF67
:1031E00000217A6208BF4FEA5801B2181BF0010FA4
:1031F000D2B240F09F801BF0040F14BF4046002065
:10320000BB616270A070E17020463A6A7969FB6A1E
:103210009847051EFFF614AFBB69414623707B6AD1
:103220003A6A6370FB6984F802A0E37007F1480012
:10323000FB6A9847B0F10008C0F2BA807B69A9EB3D
:103240000A01C91AFB683A6AC91AD7E90A039847FA
:103250000028C0F2AF804FF0000BA84408EB000537
:1032600007F1380AB34571D300213A6A0846FB6A70
:103270009847E5E656464FF0000807F1380092E718
:103280005646D04696E7B04694E7BA6A12F8021B53
:1032900012F8015CBA6254F82500274A904202D322
:1032A000264A90421ED3BA6932B1786A7B601EF01A
:1032B000E8FA7B6800288BD1BA6802BB08F12802C3
:1032C00007F1300C08F10100944407F1580208F1AD
:1032D000020852FA80F00CF8101C5FFA88F800F827
:1032E000105C75E7BA693AB1786A7B601EF0C9FA7A
:1032F0007B6800287FF46CAF1BF0010F09D006F14A
:10330000280207F13000711C161806F8205CCEB2B6
:103310005EE71BF0040F3FF45BAF08F1280207F1F2
:10332000300008F1010102EB000808F8105C5FFAB8
:1033300081F84DE7002063E7D0590200E09D0300CB
:103340000172030004000001705F02001BF80A30E4
:1033500054F8239087F83730D7F884302BB3D7F858
:1033600088309B4521D2D7F8843033F81B80012167
:103370003A6AFB6A07F13700984700281ADB0544D0
:10338000B8F1000F06D14846FCF760FF00F10108D4
:103390001FFA88F8414648463A6AFB6A984700286F
:1033A00008DB05440BF1010B5CE74FF00008DEE79A
:1033B000454645E6054643E6014B1860704700BFA9
:1033C000DC01002080B505460E461746984618F0E9
:1033D000FFFC034622F0F2FA0446DFF8189042465A
:1033E00049F8003039463046A84754F8090001F042
:1033F00075FE00BF080000002DE9F047058B04466C
:103400002807904611D4022905F0070540F0CC802A
:1034100020461EF0E4FC78B10138218B042811D835
:10342000DFE800F0C2106D85950001290CBF45F062
:10343000100545F02005258388F31188BFF36F8FB1
:10344000BDE8F08701F0070AAA4500F0A580002733
:10345000B9463E46A368002B00F0BC8041F008014D
:10346000218388F31188BFF36F8FA168002900F0D2
:10347000BA800D68002900F0B680334652462046D7
:10348000D1F80480C047002D76D02B6829461D4610
:10349000F0E701F007035A1F012A1BD8002221F090
:1034A0000701062B276889B2C4E9002209D13B46EF
:1034B00003E0628B013262831B68002BF9D141F07B
:1034C0000201204621831EF08AFC00287AD041F0B8
:1034D000200176E0042B0AD121F0070189B22046B1
:1034E00021831EF07CFC10B141F020012183218B4F
:1034F00001F0070AAA454FD00027B946AAE7236979
:1035000021F0070141F00601062DD3F80090218338
:103510002DD1B9F1000F3FD041F00801218388F38C
:103520001188BFF36F8F20463949C84729E021F041
:103530000701236941F0040189B2042DD3F80490F6
:103540002183E6D000274FF0040A3E4682E721F0AF
:103550000701236941F0050189B2052DD3F80890D0
:103560002183D6D000274FF0050A3E4672E7002798
:103570004FF0060A3E466DE72B4687E7B9F1000F8C
:10358000D1D1EFF31188202383F31288BFF36F8F1B
:10359000238B23F008032383258BEA062ED525F001
:1035A0001003238305F007056669218B002EBFF603
:1035B00070AF00232768C4E9003321F0070141F010
:1035C00001012183218B4FF0000901F0070AAA4570
:1035D0007FF440AF002F9CD041F00801218388F395
:1035E0001188BFF36F8F002FC8D03D68394633462E
:1035F000524620461EF01FFC2F46F4E7AB067FF52F
:103600001BAF25F02003238305F0070500E700BF6B
:10361000631E020010B530B90B480C491EF0EBFCDC
:103620006FF0150010BD836833B9074808491EF0D4
:10363000E2FC6FF00400F5E71B6813B1BDE8104031
:1036400018471846EEE700BF985F0200B572030006
:10365000C672030010B530B90B480C491EF0CBFC04
:103660006FF0150010BD836833B9074808491EF094
:10367000C2FC6FF00400F5E75B6813B1BDE81040D1
:1036800018471846EEE700BF985F0200B5720300C6
:10369000C672030070B508B101B132B90B480C49CC
:1036A0001EF0A9FC6FF0150070BD84680CB1E568D0
:1036B00035B9064807491EF09EFC6FF00400F3E799
:1036C00041F8040BE368BDE870401847985F0200BA
:1036D000E4720300C672030010B5044630B9104806
:1036E00010491EF088FC6FF0150010BD006830B95D
:1036F0000B480D491EF07FFC6FF00100F5E7836871
:103700000BB11B6933B9064808491EF074FC6FF011
:103710000400EAE7616898470028E6D12060E4E702
:10372000985F02001073030021730300C672030048
:1037300070B51346044630B9104811491EF05BFCC1
:103740006FF0150070BD006830B90C480D491EF0CF
:1037500052FC6FF00100F5E782680AB1956835B94F
:10376000064809491EF047FC6FF00400EAE70A46E4
:10377000AC466168BDE87040604700BF985F0200DA
:103780001073030021730300C6720300034A136819
:103790000BB9526813600020704700BFE0010020A1
:1037A00030B50C460E4985B00291D0F8D4110546CB
:1037B000CDE9003100F1F0014FF0FF33204616F063
:1037C000E7FF50B9012384F86C30D5F8D03123B12C
:1037D000204605B0BDE83040184705B030BD00BFF9
:1037E000EF20020038B50C46114605461EF081FC5C
:1037F000034638B9284604491EF07BFC03460020E6
:10380000236038BD0120FBE7CA9C03002DE9F04F7F
:1038100001238146056946688FB005F57B77D7E8B7
:10382000EF2F002A03D1C7E8E13F0029F7D10CBFF1
:103830001A46002240F0BB80B368B16A05F5F878FB
:103840001C1F10461EF0DCFC844279D8013A00F0BF
:10385000A880B2FA82F24FF00044D4407268204649
:10386000073222F00302C5F83C22B16A1EF0C8FC00
:10387000C5F84002B36A40466343033323F00303B1
:1038800002EB4302230103EB4403093323F0030358
:1038900003EBC403C5F834221A440832C5F83022B9
:1038A0007368C5F83842C5F82C32424BC5E9AD63A0
:1038B000316800F0F1F9044600283FD1D9F810B082
:1038C000D9F804A0D9F800300BF5347905900493A9
:1038D0004846DAE90734012B08BF103C21F09DFB74
:1038E000DAF82400344904AB009301EB802123462D
:1038F00048464FF4806217F083FE2021DAF8243026
:103900002E4A06A81BF084FE06A9484617F024FF9D
:103910002B490BF5307021F039FBDAE9050183689A
:103920005C684CB15B46274AA047044630B9DAE9E7
:10393000050183681B692BB96FF05704002129E04A
:1039400001327EE70122984704460028F6D11E4B3B
:103950002846C5F8D0311D4BC5F8D4311C4B039314
:10396000D5F840320293D5F83C32CDE9008305F515
:103970001173B26AD5F8E81300F056F9044600282E
:10398000DCD105F1F00016F0A9FF0028C5F8F0031E
:103990000ADB022138461EF0E0FB20460FB0BDE8EE
:1039A000F08F6FF00B04C9E76FF01504C6E76FF0F6
:1039B0007704F2E74521020040C20020467303006D
:1039C0002B2102001F210200D5390000D72202005E
:1039D0008B21020013B5044640B100230122CDE93A
:1039E0000032074BD0E9091216F0A6FE236F1B68C0
:1039F00023B1606F02B0BDE81040184702B010BD9F
:103A0000CA9C030013B504460846216901F57B7181
:103A1000D1E8AF1F022910D193B1A0B10121CDE9A6
:103A200000311346D0E9091216F086FE074B984282
:103A300008BF6FF00B0002B010BD6FF00F00FAE787
:103A40006FF04C00F7E76FF00100F4E72EF8FFFF8E
:103A50002DE9F34789461546066906F57B73D3E8D9
:103A6000AF3F022B64D1136823B96FF0150002B089
:103A7000BDE8F0871B78002BF7D0D6F8E8A3BAF1A1
:103A8000000F36D106F5EC774FF0FF324FF0FF33E1
:103A9000384617F001FB30462A6801A9FFF7A2FE5D
:103AA000019C80461CB938461EF055FBDDE705F148
:103AB00008032367AB6984F86CA06367646460B132
:103AC00038461EF048FB21463046A36E2A68FFF7B1
:103AD00067FE0020C9F80040C9E71F22296804F1E9
:103AE000480021F08FFD384684F867801EF033FBD4
:103AF000EFE7304610491EF0FCFA04460028B4D027
:103B0000002705F108030367AB6980F86C70436711
:103B100040641F222968483021F074FD22460121AB
:103B2000304684F8677000F061F80028D1D09CE737
:103B30006FF00F009BE700BFCA9C030010B50C4656
:103B4000006900F57B73D3E8AF3F022B0FD189B139
:103B50000A4900F5307021F045FA204620F040FD7A
:103B600078220021204621F023FD002010BD6FF0B7
:103B70000F00FBE76FF00100F8E700BF3070002096
:103B80002DE9F04F05460E4690460027D0F8C4A018
:103B900085B0AAF5BE7421463046FCF745FBE0B976
:103BA000114BA4F1480B0293DAF810303246CDE9FC
:103BB000008329464FF0FF335846AAF5E27916F004
:103BC000E7FD60B97823012203FB079383F86C209B
:103BD000DAF80C300BB158469847783417B105B075
:103BE000BDE8F08F0127D6E7052302001FB5144674
:103BF00090B18AB1012912D10A4B00F1F001029370
:103C0000D0F8D431483201934FF0FF33204600936F
:103C100016F0BEFD04B010BD6FF01500FAE70020ED
:103C2000F8E700BF052302002DE9F04387B00E46F8
:103C3000DDE90E811446DDE910251F4630B329B3B6
:103C4000DFF850C000F1F009002D08BF65469EB9AD
:103C5000CDE9034400F5E2742046059620F058FFB4
:103C600003ABCDE900432A463B464146484616F0A1
:103C7000ADFE07B0BDE8F083002241460E924846F3
:103C80002A4607B0BDE8F04316F0F0BF6FF015000C
:103C9000EFE700BF813B0000F0B504462B4A87B038
:103CA00004AB0E4692E8030083E80300002C49D0E1
:103CB000184616F047FC0546B0B94FF0FF33E16CEB
:103CC00004F15407A163CDE9010000933846236D48
:103CD00004F1380220F034F9A06C1EF042FBC4F865
:103CE000BC0020B96FF00B05284607B0F0BDA06CF2
:103CF0001EF037FBC4F8C0000028F3D0236CD4F8C2
:103D0000BC10C4F890300423C4F89430C4F8AC302C
:103D10000223E3620E4BB4F84820C4F88C10616CA7
:103D2000236204F18C03C4F8A070A4F89820C4F8AE
:103D3000B870C4F8A810A4F8B020C4F8A400A66114
:103D40002363D1E76FF01505CEE700BF8060020066
:103D5000BC6402002DE9F047044607464FF0010914
:103D6000DFF8508014B93846BDE8F08794FAA4F51E
:103D7000B5FA85F509FA05F32E0108EB05156FEA8A
:103D8000030A24EA03042B7B002BEBD058F80630FF
:103D90001B694BB94644736804222846196807EA30
:103DA0000A071EF046FBDDE7284698470028D9D1D0
:103DB000F0E700BFF85F020030B5002289B00F497C
:103DC0000F4821F0D8FA002200230024CDE9062371
:103DD0000E230C4DCDE903344FF440722846CDE953
:103DE0000144094B0949009417F02CFD0849284665
:103DF00017F0B2FC204609B030BD00BF153E0000F0
:103E0000782C0020781B00202941000040C60020AB
:103E100052730300014817F039BA00BF840700202D
:103E20002DE9F047804621480F461EF0E6FA064687
:103E3000002833D000252846BDE8F087237B83B1D6
:103E40002368DB680BB120469847636883F80690C7
:103E500023681B69D3B963680422204619681EF0E1
:103E6000E8FA013610345445E8D3B8F1000FE2D037
:103E7000002DDFD02846FFF76DFF0546002FF7D055
:103E800000214FF4A47021F0A2F9F1E720469847F1
:103E90000028E0D009FA06F31D43E2E705464FF09B
:103EA0000109034CDFF80CA0DDE700BF68700020BB
:103EB000F85F020008600200014B53F820007047D1
:103EC000FC64020008B5034608462BB1044A13609F
:103ED00000F070FC002008BD6FF01500FBE700BF8C
:103EE0000C02002010B5044C237813B9034817F0D6
:103EF000CDF90123237010BD959600208407002082
:103F000010B5044609481EF078FA3CB1084BD3E8D6
:103F1000EF1F0139C3E8E21F002AF8D1054821F05C
:103F200036FABDE81040044817F0B0B960700020C0
:103F300064700020782C00208407002000200146B7
:103F4000034BD3E8EF0FC3E8E21F002AF9D1704713
:103F50006070002070B5FFF7F1FF0546074C084E72
:103F6000B44200D370BD63685B792BB123685B6892
:103F700013B12946204698471034F1E7F85F020054
:103F80000860020010B5044C044920461DF0C0FD35
:103F9000034B1C6010BD00BF6C060020E8640200EB
:103FA0005870002000230D4A10B513700C4A4FF4CE
:103FB000004113600B4A0C481360FFF783FFFFF7C3
:103FC000E1FF0A4B0A4918468B4200D310BD1A1A6A
:103FD0005C681211013222711033F5E796960020C9
:103FE0006070002064700020F7230200F85F020078
:103FF0000860020001460022002301481DF0A9BD0F
:104000006C06002001481DF042BE00BF6C06002077
:10401000024B014618681DF08EBE00BF587000208C
:1040200001481DF0C3BE00BF6C06002070B5274BD1
:104030001878002849D0FFF7E5FF0546002841D150
:10404000234B244C1B68002B19DD21F04DF94FF454
:104050007A72A0FB020302FB0131C30B43EA414326
:10406000D4E900209B1A40F2E9324FEAD13161EBEA
:104070000001934271F1000101D3FFF76BFFD4E916
:10408000003213F57A7342F10002C4E90032BDE850
:104090007040FFF7C5BF63685B7923B12368294689
:1040A00020461B6898471034B442F4D32846FFF7E3
:1040B000AFFF094BD3E8EF1F0139C3E8E21F002A25
:1040C000BED0F7E7054C064EEEE770BD9596002092
:1040D00060700020702C002064700020F85F0200E7
:1040E0000860020070B50D4D297861B90120FFF715
:1040F00097FE0B4C0B4EB44206D3FFF797FF0028F8
:10410000FBD101232B7070BD63685B791BB1236801
:1041100020469B6898471034EDE700BF9696002034
:10412000F85F02000860020000212DE9F047084610
:10413000FFF776FE044658B340F267684FF0000977
:1041400021F03CFC1B4B1C4A1B58136033B11B4B2A
:104150001B68092B02DD1A4817F098F80025194F43
:10416000DFF85CA044B12046FFF7F4FD044618B91F
:104170004FF0FF384FF0FF39FFF758FF064628B9D8
:10418000B5B942464B46504617F0BAF83546E9E70E
:104190004FF0FF384FF0FF39D2E72B689B691BB116
:1041A00000222846114698471035BD42F5D3E8E76E
:1041B000054DFAE7080000005C70002064700020E4
:1041C0008407002008600200F85F020013B5184859
:1041D0001EF013F9174B1B7873B1EFF311842023F2
:1041E00083F31288BFF36F8FFFF720FF84F31188EA
:1041F000BFF36F8F02B010BD0F4B1B68002BF9D0BF
:1042000050B9002200230D48CDE900234FF40042AD
:10421000002318F0F7F8EDE70928EBD1074821F063
:10422000B6F8074802B0BDE8104017F02FB800BF3D
:1042300064700020969600205C700020782C00208E
:104240008407002010B5064B04461B68984721469A
:10425000A06004481DF0FCFCBDE81040FFF7B6BFAD
:104260000C0200206C060020044A054B9B1AB1EB9F
:10427000D30F34BF52F8310000207047F05E0200C7
:10428000F85F02002DE9F04F8FB0C1F34A2804AF68
:104290000D469146B8607B600C0DB8F1000F63D0FD
:1042A00000264FF0040B4FF00A0A07F11403C7F879
:1042B0000C80C7E907667E620193CDF808B0CDF89F
:1042C00000A007F11C0332464846F968FEF78EFE4F
:1042D000B0F5006F03461CD36C468AB0D9F80410C1
:1042E00004AB26481A46C3E9050140F2FF71D961C3
:1042F0004FF400711984224B42F8103F4FF41251D1
:1043000033462048FFF7BEFFA5462C37BD46BDE823
:10431000F08FC0F30A0804F11700184420F00700DA
:1043200080083B60FFF766FE68F35325044690B1B2
:104330003B6800F11001C7E9083607F11403F96181
:10434000CDE900A3CDF808B048460F4AF96807F157
:104350001C03FEF74BFE68F353252A4620467B6874
:10436000B9681EF085F8D0E704F1170020F00700C7
:104370008008FFF73FFE0446EDE700BF67730300C8
:1043800004000001A05F0200452402002DE9F04F67
:1043900087B00446DDE9105ADDE912799346984664
:1043A0000391BFB13B46524610210020CDF800904A
:1043B000CDF81490FEF748FCB0F5006F06460AD31E
:1043C00040F2FF730221174A174807B0BDE8F04FCB
:1043D0001EF0A7B83E4605F11700304420F0070054
:1043E0008008FFF707FE04F007040BF0070BE4005A
:1043F00044EA8B1444EA462444EA0554054640B195
:104400003FB13B4652463146CDF800901030FEF7A2
:104410001BFC434622462846039907B0BDE8F04FEF
:104420001EF026B8A6730300A05F0200406820B10A
:10443000034BC01A40F3CF0070474FF0FF30704776
:10444000F05E02000EB403B503AB53F8042B014633
:104450000448019301F0DAF902B05DF804EB03B00F
:10446000704700BF85250200CA0605D48B064CBFE5
:1044700002490349FFF7E6BF704700BFC99C03002C
:10448000C89C03002DE9F04F8BB09B46169B9DF80E
:1044900054A00693179B04460593189B0D4690461F
:1044A000199E0493BAF1000F00F09E8006F00103FC
:1044B000089306F00803079306F4807309931DF030
:1044C000B6FF06F00209024600283BD020468F497D
:1044D000FFF7B8FF0746B9F1000F08D016F0440FF8
:1044E00032D12A4620468A49FFF7ACFF0744089B91
:1044F00053B1884B204653F82A20874B8749002A1E
:1045000008BF1A46FFF79EFF099B002B48D0079B68
:10451000002B62D1B8F1000F64D04246204680499A
:10452000FFF790FF0546069B3D44002B6BD1049B93
:10453000002B71D1F30700F1E28031462046FFF7EE
:1045400093FFD6E00746C6E7764B18680028CDD023
:10455000754B4FF47A791B684FF03C0CB5FBF3F5C3
:10456000B5FBF0F14FF4616300FB115509FB05F554
:10457000B1FBF3F2B5FBF0FE03FB121100FB1E557D
:10458000B1FBFCF309FB05F5B5FBF0F50CFB1311D2
:1045900020460091CDE901E56449FFF753FFA5E707
:1045A000079BEBB1624B204653F82A206149FFF785
:1045B00049FF0546B8F1000F05D04246204658494C
:1045C000FFF740FF0544BBF1000FACD05A46204630
:1045D0005949FFF737FF0544A5E74FF0000BE1E726
:1045E000079DE7E745469EE7BBF1010F069B06D115
:1045F000002B64D1049B002B7BD000250CE0002B0A
:10460000F8D04E485CE04E48069B22464D491DF0CE
:1046100007F9049B002B68D0DFF83881DFF8389168
:10462000049F3146102F204628BF10274FF0000B63
:10463000FFF71AFF5D4545DC059B494620461A7881
:10464000FFF700FF4FF0010B1BF0070F03D14146AE
:104650002046FFF7F7FE5F453BD9059B49462046BC
:1046600013F80B20FFF7EEFE0BF1010BBBF1100F5F
:10467000EAD14FF0000B20463349FFF7E3FE5A46DC
:10468000059B20469A5CA2F120015F2928BF2E22BB
:104690002E49FFF7D7FE0BF1010BBBF1100F1DD018
:1046A0001BF0070F03D141462046FFF7CBFE5F45C5
:1046B0005A46E5D841462046FFF7C4FEEBE72048BE
:1046C0005546A1E741462046FFF7BCFE0BF1010B22
:1046D000B0E720461E49FFF7B5FEC5E7059B3B4402
:1046E0000593049BDB1B04939AD1BAF1000F7FF46E
:1046F00021AF20460BB0BDE8F04F1DF036BF20467D
:10470000054A0649FFF79EFE17E700BFE373030063
:10471000E77303000C650200DE730300977D03005E
:104720000C740300707000206C700020F0730300A4
:10473000206502001074030016740300B325020004
:10474000852502000D580000217403002374030026
:10475000929C0300949C03001B74030042F20F73AD
:1047600073B58B4228BF0B46056804460521684691
:104770000D4A1AF04DFF0646636828460B225B6817
:104780000A491DF0E4FE63683246694628465B68C4
:104790001DF0DDFE63681B2228465B6804491DF09E
:1047A000D6FE02B070BD00BF2D7B03004274030033
:1047B0002674030000210123064A904206D8064AC7
:1047C00001B901231360054B1860704701214008AF
:1047D0005B00F2E740420F006C7000207070002018
:1047E000F8B50D460446064F4618B44201D1284696
:1047F000F8BD14F8011BBB6801485B689847F4E7F3
:10480000405B0200014B03600020704768650200B6
:1048100008B504481DF05EF8BDE8084002481DF0E8
:1048200059B800BF88740300BD740300014818F034
:10483000C9B900BF6865020038B5044618B90F4B06
:104840000F485B6898476168B1F5683F10D0B1F5D3
:10485000680F0DD00B4DA9420AD011F46861206891
:1048600007D00146084820F00CFA00232360656059
:1048700038BD142220F09CFEF9E700BFE8050020B7
:10488000EB7403002C5F5CA9A075002008B560B331
:104890004368B3F5683F0ED0B3F5680F18D0144ADB
:1048A000934220D000684FF0FF324FF0FF3316F0F4
:1048B000F3FB58B115E001220368D3E8EF1F00298C
:1048C00003D1C3E8E02F0028F7D10AD1002008BDAA
:1048D0000368084A1B7803F5807352F82330002BD5
:1048E000F4D00548F3E70548F1E76FF4E040EEE760
:1048F0002C5F5CA900000350E98FFFFFEA8FFFFFE8
:1049000008B520B34368B3F5683F09D0B3F5680F25
:1049100013D0114A93421DD0006816F035FC14E004
:1049200000220368D3E8EF1F012903D1C3E8E02F79
:104930000028F7D109D0094808BD00210368084ABA
:104940001B7803F5807342F823100020F4E76FF41E
:10495000E040F1E70348EFE72C5F5CA9E98FFFFF38
:1049600000000350EA8FFFFF10B5044618B91D4B35
:104970001D485B6898476368B3F5683F2FD0B3F56F
:10498000680F2CD0194A934219D1236803BB4FF00A
:10499000FF324FF0FF332146154816F04FFB08B9A0
:1049A00023681BB90F4B13485B68984714220021FA
:1049B000206820F0FDFD4FF46863636008E0B3F504
:1049C000683F0DD83A2B03D040F6BA629342DED14D
:1049D000206820F0A1F9636843F03A03636010BDDA
:1049E000054AF3E7E8050020EB7403002C5F5CA99F
:1049F000A0750020117503003A00003A08B5064979
:104A000040231422054820F02EF9BDE8084004494F
:104A1000044818F09BB900BFA0700020A0750020CA
:104A200070650200846502002DE9F84F80460C464F
:104A300000AF002965D0D1E90012E9468AB0A36829
:104A40006D464FF0050A2E463748C5E90723C5E9EC
:104A5000050146F810AF002332464FF42151334888
:104A6000FFF710FCD4E90312CD466369AD46304828
:104A7000C5E90723C5E90501C5F810A000233246A2
:104A80004FF421512948FFF7FDFBCD46E369012191
:104A9000284A26481DF045FD264600254FF00A0A03
:104AA000DFF8A0B0E946D6E908E0D6E90A138EB0EF
:104AB0006A46C2F81CE005F1010EC2E908E0A81C34
:104AC000C2E90A01E91CC2E905B5C2E90C1342F8C2
:104AD00010AF002345F2400114480435FFF7D2FB24
:104AE000102DCD4606F11006DCD1236E0121124AAD
:104AF0000E481DF016FDA3690121104A0B481DF058
:104B000010FDB8F1010F07D1EFF305830C4A4146C0
:104B10000648103B1DF005FD2146404616F0CCF836
:104B2000BD46BDE8F88F00BF3E750300E05F0200A0
:104B30006D7503009C750300EE750300FD750300A1
:104B40002B760300AB75030030BFFFF7FDBF00BF3E
:104B50002DE9F04105460B4EDFF83080324606EB7A
:104B60000807CC1B2046084920F0FBFCA019424650
:104B70000021083C20F01CFDC5F8A84007F1080002
:104B8000BDE8F081000000004C600200040000005D
:104B9000054B9A699B689A421FBF044A536843F0C9
:104BA00080535360704700BF0881002000ED00E093
:104BB00070B52A4C06460D4629482A491DF081FD4C
:104BC000A36ADB0647D5264827491DF07AFD112048
:104BD000A36A1C0704D5224824491DF072FD122047
:104BE0001E4CA36A990712D521491D481DF069FD85
:104BF000636BA26A120609D501211E4A18481DF0EE
:104C000090FC1EB1A36A23F08003A3621320134C0F
:104C1000A36ADE0704D5124817491DF052FD14207F
:104C2000A36A9C0604D50E4814491DF04AFD1520C0
:104C30000A4B9A6AD10658BF9A6A9A6A920642BF8C
:104C40005A6A22F400525A629A6A42F0FF029A6249
:104C500000232B7070BD1020BAE700BF00ED00E00C
:104C6000E05F02003E76030054760300877603007F
:104C70009A760300B2760300C8760300E776030055
:104C800010B5244C244925481DF01BFDA36A990149
:104C90003ED5224822491DF014FD1E20A36ADA01E8
:104CA00004D51E481F491DF00CFD1F20194CA36A96
:104CB000DB0204D519481C491DF003FD0220A36A3C
:104CC0001C0304D5154819491DF0FBFC2120114C8B
:104CD000A36A590304D5114815491DF0F2FC22209E
:104CE000A36A9A0304D50D4812491DF0EAFC23205B
:104CF000084CA36ADB0304D508480F491DF0E1FC0A
:104D00002420A36A6FEA03436FEA1343A36210BD32
:104D10001D20C3E700ED00E016770300E05F02000E
:104D20002E770300417703005B770300857703004C
:104D3000A3770300C8770300E277030070B5294C1E
:104D400006460D46284829491DF0BBFCA36AD90434
:104D50003CD5254826491DF0B4FC1720A36A1A0546
:104D600004D5214823491DF0ACFC18201D4CA36A32
:104D70009B0512D51C4820491DF0A3FCA36BA26A19
:104D8000100409D501211D4A17481DF0CAFB1EB1A8
:104D9000A36A23F40043A3621920124CA36A5905A5
:104DA00004D5114816491DF08CFC1A20A36ADA05B7
:104DB0000ED50D4813491DF084FC1B20094A936A47
:104DC00043F47F43936200232B7070BD1620C5E728
:104DD000A36A9B04F2D504480B491DF072FC1C2009
:104DE000ECE700BF00ED00E0E05F02000D7803009B
:104DF0002378030087760300347803004D7803009E
:104E0000627803007D780300E77603002DE9F04126
:104E10009CB0624B0546D3F80480002600AFC8F36F
:104E2000080486F31188BFF36F8F02F07F43B3F15C
:104E30007F4F07D102F00C03082B12D15849594873
:104E40001DF03FFC002635460023FB71E31E092BB5
:104E500000F28380DFE803F00A797C75818181812B
:104E6000817F10074CBF0D460126EDE74E494D48A6
:104E70001DF027FC0023494CFB71E36A9A0705D516
:104E80004A4948481DF01DFC002431E0E36A002B2C
:104E900001DA4749F5E7E36A5B00F5D54549414842
:104EA0001DF00FFC6369AA6943F480736361BFF36B
:104EB0004F8FBFF36F8F636932F8022C23F4807336
:104EC0006361BFF34F8FBFF36F8F4DF602739A424A
:104ED00007D0A36ADBB23BB30120F91DFFF768FEE0
:104EE00031E02B680121344A2E481DF01AFB2C6852
:104EF000FB79ABB96822294607F1080020F031FBA5
:104F00007B6A002E45D0C3F3080222B96FEA53230F
:104F10006FEA43237B62204607F10801FFF784FD17
:104F20007037BD46BDE8F081A36A13F47F4F04D00B
:104F30000120F91DFFF702FF05E0A36AB3F5803FEA
:104F4000A2D3FFF79DFE0446D2E70020F91DC5E776
:104F50000020F91DEEE7194993E7194A18F4F87F84
:104F6000E8468AB0174B18BF13466A461649103CEC
:104F7000C2E905134FF400731384144BD46142F853
:104F8000103F00234FF411510648FFF77BF9C54647
:104F90007AE723F4FF7323F00103BBE700ED00E0A1
:104FA000C3780300E05F0200EE7803000579030098
:104FB0002679030034790300537903006F790300E5
:104FC000AA78030095780300937903000400000198
:104FD000064B5A6942F010025A615A6942F48062E3
:104FE0005A615A6922F008025A61704700ED00E0E8
:104FF000EFF30880EFF3098101B57246FFF706FF72
:1050000001BD00BF002080F31488BFF36F8F002024
:1050100080F30A8880F30B88104880F3088800200A
:105020000F49087007F078F900200E490860BFF3B7
:105030004F8F00F02DF8202080F311880A484FF49C
:105040000061401880F30988EFF3148002210843BF
:1050500080F31488BFF36F8F00F00EF980F2002008
:105060003A9A002094ED00E040D900200023184631
:105070000649D1F89020C2F30722934200DB704723
:10508000C1F89830C1F8A0000133F6E700ED00E068
:1050900010B572B6002484F31388FFF7E7FF2346A8
:1050A0004FF0FF300C4A03F120010133102B42F87E
:1050B0002100F8D100234FF0FF30074A03F16001CF
:1050C0000133102B42F82100F8D162B6BFF34F8FA5
:1050D000BFF36F8F10BD00BF00E100E0084B9B687D
:1050E00083420BD1EFF3058343B1064B5A6842F07C
:1050F00080525A605A6A22F400425A6216F06EBE1A
:105100000881002000ED00E025498A6882F8F5E07A
:105110004FF030001044EFF3098C80E8F01F1EF0D0
:10512000100F03D102F1B40080EC108A202080F32C
:105130001288BFF36F8F1B4F4FF000668A698A6039
:105140003E60D2F8A800184C206092F9F5E0D2F841
:10515000AC000023C2F8AC3080F311881EF0100FB1
:1051600003D00023E1EE103A03E002F1B40090EC2A
:10517000108AEFF3148323F0040383F31488BFF33E
:105180006F8F02F1300090E8F01F8CF3098802F174
:10519000000004B51DF09DFABDE804407047000012
:1051A0000881002004ED00E0BC7500201EF0040F13
:1051B0000CBFEFF30880EFF30980816911F8021C3E
:1051C0000229FFD001B572461DF070FA01BD00BF83
:1051D00040B2002807DB01234109034A00F01F0009
:1051E000834042F82130704700E100E040B20028DF
:1051F0000CDB01220649430900F01F0082402033E6
:1052000041F82320BFF34F8FBFF36F8F704700BF6C
:1052100000E100E0054B420953F82220012300F091
:105220001F0003FA00F01040704700BF00E100E0EB
:1052300040B2002801F10101ACBF00F16040064B13
:105240004FEA4111C9B2ABBF00F5614000F00F0059
:1052500080F800131954704714ED00E0044B054A20
:1052600023F07F039360BFF34F8FBFF36F8F7047BF
:105270000000000000ED00E008B5FFF7EFFF104B65
:10528000D3F8882022F47002C3F88820D3F888204D
:1052900042F4A002C3F888204FF04042C3F8342201
:1052A000BFF34F8FBFF36F8F0023E1EE103A15F07D
:1052B000F1FD16F0EBFE00F07DF815F02FFE00BFBB
:1052C00000ED00E042F8203C009B0D4942F81C3CF8
:1052D000019B21F0010142F8183C029B42F8081C96
:1052E00042F8143C4FF0807342F8043C0023C0F8AD
:1052F000AC304FF47D43203A0265C0F8F43070477B
:10530000C5330000104B9B6883421AD1EFF3058030
:10531000B8B9EFF31181202282F31288BFF36F8FA7
:105320001A7B22F002021A73EFF3148323F00403B2
:1053300083F31488BFF36F8F81F31188BFF36F8FEE
:1053400070476FF015007047088100200E46154623
:10535000002300B5E1EE103AEFF3148323F00403C9
:1053600083F31488BFF36F8FBFF36F8F0A4BD0F8AE
:10537000A8209860094B1A60D0F8983083F30B8806
:105380002C4686F309880020054B984720460021CB
:1053900000220023034C204708810020BC75002018
:1053A000DD260200C53300001022014B1A61704750
:1053B00000ED00E0002320210348C2180133452BF3
:1053C00082F80013F9D1704700E100E008B5EFF36F
:1053D0000583064A103B02EBC30152F833004968CB
:1053E0008847BDE80840FFF7D3BB00BF005C020060
:1053F0001FB5094C094A23460121094800F012F95A
:1054000000230393074B0121E41A01A8019302949E
:1054100000F012F904B010BD0000072000000020C9
:10542000946502004809002010B50C7A0B6804F05E
:105430001F0223F01F031A43CB68640923F01F03E4
:10544000054943EA440343F00103C1F89800C1F859
:105450009C20C1F8A03010BD00ED00E010B50A4B53
:10546000D3F89030C3F30723013B984208D90121B8
:105470000346064A06481DF054F86FF0150010BDAB
:10548000FFF7D2FFFBE700BF00ED00E0AA790300C1
:10549000C05F02002DE9F04F8946144606464FF0E2
:1054A0000008514D85B0C84527DAD6F804A0BAF1F6
:1054B000000F44D0BAF11F0F17D91AF01F0F14D1E3
:1054C000D6F800B01BF01F0F0FD158461DF042F95F
:1054D00007460AEB0B0001381DF03CF9874210D05B
:1054E0006FF01507414A3B4601E04346404A01211F
:1054F00040481DF016F86FF01504204605B0BDE8D1
:10550000F08F17F1160FEDD0BC42EBDDC5F89870A7
:10551000D5F89C10C5F89870D5F8A03021F01F017F
:1055200043F01F0BD6E900321A44994202F1FF3AC8
:105530001DD1D34507D13146F8B21DF014F908F159
:1055400001080C36AFE73146C5F89870D5F89C30A5
:1055500022F01F0203F01F031343C5F89C30E0B292
:105560001DF001F910F1160FC5D0441CE7E7C5F88E
:105570009870D5F8A020013B23F01F0302F01F0212
:105580001343D3453146E0B2C5F8A030E8D01DF052
:10559000EAF810F1160FAED0C5F89870D5F89C2037
:1055A0009DF808300BF1FF3B62F304038DF80830DF
:1055B000D5F8A0309DF808205B0863F347128DF8FA
:1055C0000820D6E900321344009323F01F035B4404
:1055D000A3EB0A03013023F01F036946C0B2039313
:1055E000FFF73CFFBEE700BF00ED00E0F3790300EA
:1055F000D0790300C05F02000522044BC3F8942059
:10560000BFF34F8FBFF36F8F704700BF00ED00E017
:10561000BFF35F8F0022024BC3F89420704700BF96
:1056200000ED00E010B5034C2278FFF733FF207047
:1056300010BD00BF989600202DE9F74F294D8A46EE
:1056400006464FF00008AB46274FD0451BDAD6F888
:105650000490B9F1000F3FD03168084601911DF068
:1056600079F80199044609EB010001381DF072F840
:1056700084424FF014021D4B08D002FB08F36FF078
:1056800015024BF8032003B0BDE8F08F14F1160F9C
:105690002C60F8D01978A142F5DD02FB08B0C7F8FC
:1056A0009840C7F89840D7F89C4000F10801007B6B
:1056B00064F304000871D7F8A0000C79400860F387
:1056C00047140C71D7F89C1021F01F016960D7F8BE
:1056D000A01021F01F01296108F1010814350C36D2
:1056E000B3E700BFC075002000ED00E098960020F1
:1056F000F0B54149414CD1F890302568C3F30723F8
:105700009D4287B075D80020FFF782FF3C4BC1F85F
:10571000C030854216D13B4C01A82570FFF772F8C6
:1057200000250646384FAE4213D100202378324977
:10573000D1F89020C2F30722934254DBFFF75CFFBD
:1057400000202FE0616801EB0011FFF76DFE0130D2
:10575000DFE70199280101EB0513DA683A40B2F559
:10576000001F21D0B2F5800F2BD0B2F5801F38D1A9
:105770005A689B680958013B22F01F00034401202E
:10578000844623F01F0340EA4C10CDE902218DF836
:10579000100002A920780593FFF760FE00281DDAAB
:1057A0006FF0150007B0F0BD5A689B680958013BBF
:1057B00022F01F0003444FF0020C012023F01F03CE
:1057C000E1E75A689B680958013B22F01F00034437
:1057D0004FF0000C062023F01F03D4E72378013399
:1057E000237001359FE7C1F89830C1F8A00001335C
:1057F0009EE74FF0FF30D5E700ED00E0A065020026
:10580000AAFF4400989600200000F0FFF0B587B092
:1058100007460E4614460021102268461D461FF01A
:10582000C7FE02238DF80230054B2A462146684602
:10583000CDE90476019319F0B1FF07B0F0BD00BFC8
:105840009F27020008B5024819F0C2FEFEE700BF1C
:10585000257A030008B5024B1B689847002008BD55
:10586000D4750020034B044A1860937843F0020378
:1058700093707047D47500204802002008B5054891
:105880001CF028F8002383F31188BFF36F8F0423E3
:10589000184602DF2A7A030008B50649064821F0B7
:1058A0000701C1F1005202F5E0221BF061FF002068
:1058B00008BD00BF9F3D0120D875002070B541692B
:1058C0000446867A0A4D59B1437ADB0706D42C2365
:1058D00003FB06535B6A1B689B6898470023636160
:1058E0002C20214606FB0050BDE870401FF0BCBADA
:1058F000140800202C22024B02FB0030704700BF2E
:10590000140800202C21827A054B01FB02339A6A8D
:105910001B7F801A1B3323F00303B0FBF3F07047A7
:105920001408002038B52C24827A064B04FB02337D
:105930005B6AD3E901240C601568FFF7E3FF04FB01
:10594000005038BD140800202DE9F04385B005460D
:10595000684690461C4603911FF0C8FCDDE90067CD
:10596000EFF31189202383F31288BFF36F8F6B8BC2
:10597000002B41D02A8B9A4225D9002200232846A9
:1059800015F052FC0446F0B189F31188BFF36F8F14
:10599000039B002B41D032463B4668461FF0CAFCB1
:1059A0002C21A27A254B204601FB02335B6A03A916
:1059B0001B681D68DDE90023A847606170BB2046B5
:1059C000FFF77CFF24E0698B4B1E6B8389F3118802
:1059D000BFF36F8F2B7F2A8BAC6A1B3323F003033B
:1059E000521A02FB0344154B154AEB1A9B10534302
:1059F000A3722B7FE372CBE789F31188BFF36F8F1C
:105A000023464246284615F00FFC04460028BFD125
:105A10000024204605B0BDE8F08363610123002522
:105A20002381039B29466382E27A656004F11800B2
:105A30001FF0BEFD63692582E360EAE714080020D9
:105A4000A38B2EBA70B52C250B4C00B970BD037A10
:105A50004668013BDBB20372002BF7D1C3604360A1
:105A6000837A05FB03431B6A13B198473046ECE782
:105A7000FFF724FFFAE700BF14080020054B03EBF3
:105A80008000D0F8003223F0E04343F04053C0F8E8
:105A90000032704700258450052370B5144D154E13
:105AA0002C780134B4FBF3F303EB8303E41A1EF008
:105AB000E4F8114A137823B156F82430C01A0728A5
:105AC00014D94FF05023D3F8141141B10021C3F879
:105AD0001411D3F814312C700CB9012313702C78E5
